{
	"data": {
		"bytecode": {
			"linkReferences": {},
			"object": "60c06040525f6003555f6004555f60065f6101000a81548160ff0219169083151502179055505f60085f6101000a81548160ff021916908315150217905550348015610049575f80fd5b50604051611ca8380380611ca8833981810160405281019061006b9190610103565b5f805f6101000a81548160ff0219169083600281111561008e5761008d610141565b5b02179055508060808181525050603c80836100a9919061019b565b6100b3919061019b565b426100be91906101dc565b60a08181525050505061020f565b5f80fd5b5f819050919050565b6100e2816100d0565b81146100ec575f80fd5b50565b5f815190506100fd816100d9565b92915050565b5f8060408385031215610119576101186100cc565b5b5f610126858286016100ef565b9250506020610137858286016100ef565b9150509250929050565b7f4e487b71000000000000000000000000000000000000000000000000000000005f52602160045260245ffd5b7f4e487b71000000000000000000000000000000000000000000000000000000005f52601160045260245ffd5b5f6101a5826100d0565b91506101b0836100d0565b92508282026101be816100d0565b915082820484148315176101d5576101d461016e565b5b5092915050565b5f6101e6826100d0565b91506101f1836100d0565b92508282019050808211156102095761020861016e565b5b92915050565b60805160a051611a636102455f395f610fe201525f8181610bae01528181610bd701528181610c3601526110920152611a635ff3fe60806040526004361061007a575f3560e01c8063c487282c1161004d578063c487282c14610118578063d66a0ffc14610142578063ed92c4bb1461016c578063fd6673f5146101965761007a565b8063109782621461007e57806321870eec146100a8578063873b604e146100b2578063b7d0628b146100ee575b5f80fd5b348015610089575f80fd5b506100926101c0565b60405161009f9190611286565b60405180910390f35b6100b0610ada565b005b3480156100bd575f80fd5b506100d860048036038101906100d391906112cd565b610fa7565b6040516100e59190611312565b60405180910390f35b3480156100f9575f80fd5b50610102611072565b60405161010f919061139e565b60405180910390f35b348015610123575f80fd5b5061012c611086565b60405161013991906113cf565b60405180910390f35b34801561014d575f80fd5b5061015661108f565b60405161016391906113cf565b60405180910390f35b348015610177575f80fd5b506101806110b6565b60405161018d91906115e7565b60405180910390f35b3480156101a1575f80fd5b506101aa611262565b6040516101b791906113cf565b60405180910390f35b5f6002808111156101d4576101d361132b565b5b5f8054906101000a900460ff1660028111156101f3576101f261132b565b5b0361022a576040517f919142bc00000000000000000000000000000000000000000000000000000000815260040160405180910390fd5b6001600281111561023e5761023d61132b565b5b5f8054906101000a900460ff16600281111561025d5761025c61132b565b5b1461029d576040517f08c379a000000000000000000000000000000000000000000000000000000000815260040161029490611661565b60405180910390fd5b5f600190505f5b604b424483806102b3906116ac565b94506040516020016102c793929190611713565b604051602081830303815290604052805190602001205f1c6102e9919061177c565b92505f5b8181101561032f5760055f8560ff1660ff1681526020019081526020015f205f9054906101000a900460ff1615610322575f92505b80806001019150506102ed565b5081156102a457600160055f8560ff1660ff1681526020019081526020015f205f6101000a81548160ff0219169083151502179055505f8091505b6001805490508210156107d1575f6001838154811061038c5761038b6117ac565b5b905f5260205f20015f9054906101000a900473ffffffffffffffffffffffffffffffffffffffff1690505f5b60025f8373ffffffffffffffffffffffffffffffffffffffff1673ffffffffffffffffffffffffffffffffffffffff1681526020019081526020015f20805490508110156107c2575f60025f8473ffffffffffffffffffffffffffffffffffffffff1673ffffffffffffffffffffffffffffffffffffffff1681526020019081526020015f2082815481106104505761044f6117ac565b5b905f5260205f20906003020190505f600367ffffffffffffffff81111561047a576104796117d9565b5b6040519080825280602002602001820160405280156104a85781602001602082028036833780820191505090505b5090505f5b60038110156105ce575f5b60058110156105c05760055f855f0184600381106104d9576104d86117ac565b5b0183600581106104ec576104eb6117ac565b5b602091828204019190069054906101000a900460ff1660ff1660ff1681526020019081526020015f205f9054906101000a900460ff16156105b35782828151811061053a576105396117ac565b5b60200260200101805180919061054f90611806565b60ff1660ff16815250508960ff16845f018360038110610572576105716117ac565b5b018260058110610585576105846117ac565b5b602091828204019190069054906101000a900460ff1660ff16036105b25786806105ae906116ac565b9750505b5b80806001019150506104b8565b5080806001019150506104ad565b5060065f9054906101000a900460ff1615801561065a57506005815f815181106105fb576105fa6117ac565b5b602002602001015160ff1614806106305750600581600181518110610623576106226117ac565b5b602002602001015160ff16145b80610659575060058160028151811061064c5761064b6117ac565b5b602002602001015160ff16145b5b156106c057600784908060018154018082558091505060019003905f5260205f20015f9091909190916101000a81548173ffffffffffffffffffffffffffffffffffffffff021916908373ffffffffffffffffffffffffffffffffffffffff1602179055505b60085f9054906101000a900460ff161580156106f957506005815f815181106106ec576106eb6117ac565b5b602002602001015160ff16145b80156107235750600581600181518110610716576107156117ac565b5b602002602001015160ff16145b801561074d57506005816002815181106107405761073f6117ac565b5b602002602001015160ff16145b156107b357600984908060018154018082558091505060019003905f5260205f20015f9091909190916101000a81548173ffffffffffffffffffffffffffffffffffffffff021916908373ffffffffffffffffffffffffffffffffffffffff1602179055505b505080806001019150506103b8565b5050818060010192505061036a565b7ffa83873dffe3ed5544b8e883cd74a5a292aa4d936df89b0d7bba55cb7804ba18848260405161080292919061182e565b60405180910390a160065f9054906101000a900460ff1615801561082a57505f600780549050115b1561097b575f601e60644761083f9190611855565b6108499190611885565b90507f33ef1e817bb5116dfdc8c1eeca292bec270599a13a70a131c2f045675b033a08816007805490506040516108819291906118c6565b60405180910390a15f6007805490508261089b9190611855565b90505f93505b600780549050841015610978575f600785815481106108c3576108c26117ac565b5b905f5260205f20015f9054906101000a900473ffffffffffffffffffffffffffffffffffffffff1690508073ffffffffffffffffffffffffffffffffffffffff166108fc8390811502906040515f60405180830381858888f19350505050158015610930573d5f803e3d5ffd5b507f9a551b3764bd83fafa1cc7dc9a25869f3c4f2bdd9cc209ce7de6169ac5fa2037828260405161096292919061192c565b60405180910390a15083806001019450506108a1565b50505b60085f9054906101000a900460ff1615801561099b57505f600980549050115b15610ad4575f4790507fa781572f44007e9124da6fa9d747f1c30cc7d7e37bb6d137ca50fb7c6ebb4fe3816007805490506040516109da9291906118c6565b60405180910390a15f600780549050826109f49190611855565b90505f93505b600780549050841015610ad1575f60078581548110610a1c57610a1b6117ac565b5b905f5260205f20015f9054906101000a900473ffffffffffffffffffffffffffffffffffffffff1690508073ffffffffffffffffffffffffffffffffffffffff166108fc8390811502906040515f60405180830381858888f19350505050158015610a89573d5f803e3d5ffd5b507f9a551b3764bd83fafa1cc7dc9a25869f3c4f2bdd9cc209ce7de6169ac5fa20378282604051610abb92919061192c565b60405180910390a15083806001019450506109fa565b50505b50505090565b600280811115610aed57610aec61132b565b5b5f8054906101000a900460ff166002811115610b0c57610b0b61132b565b5b03610b43576040517f919142bc00000000000000000000000000000000000000000000000000000000815260040160405180910390fd5b5f6002811115610b5657610b5561132b565b5b5f8054906101000a900460ff166002811115610b7557610b7461132b565b5b14610bac576040517ffb875c1900000000000000000000000000000000000000000000000000000000815260040160405180910390fd5b7f0000000000000000000000000000000000000000000000000000000000000000341015610c3357347f00000000000000000000000000000000000000000000000000000000000000006040517f9423c2f4000000000000000000000000000000000000000000000000000000008152600401610c2a9291906118c6565b60405180910390fd5b5f7f000000000000000000000000000000000000000000000000000000000000000034610c609190611855565b90505f60025f3373ffffffffffffffffffffffffffffffffffffffff1673ffffffffffffffffffffffffffffffffffffffff1681526020019081526020015f208054905003610d2157600133908060018154018082558091505060019003905f5260205f20015f9091909190916101000a81548173ffffffffffffffffffffffffffffffffffffffff021916908373ffffffffffffffffffffffffffffffffffffffff16021790555060035f815480929190610d1b906116ac565b91905055505b8060045f828254610d329190611953565b9250508190555060605f5b82811015610f6957600f67ffffffffffffffff811115610d6057610d5f6117d9565b5b604051908082528060200260200182016040528015610d8e5781602001602082028036833780820191505090505b5091505f5b600f811015610e60575f600190505f5b604b42448587604051602001610dbc9493929190611986565b604051602081830303815290604052805190602001205f1c610dde919061177c565b90505f5b83811015610e22578160ff16868281518110610e0157610e006117ac565b5b602002602001015160ff1603610e15575f92505b8080600101915050610de2565b508115610da35780858481518110610e3d57610e3c6117ac565b5b602002602001019060ff16908160ff168152505050508080600101915050610d93565b505f60025f3373ffffffffffffffffffffffffffffffffffffffff1673ffffffffffffffffffffffffffffffffffffffff1681526020019081526020015f2060018160018154018082558091505003905f5260205f20906003020190505f5b600f811015610f5a575f600382610ed6919061177c565b90505f600383610ee69190611855565b9050858381518110610efb57610efa6117ac565b5b6020026020010151845f018360038110610f1857610f176117ac565b5b018260058110610f2b57610f2a6117ac565b5b602091828204019190066101000a81548160ff021916908360ff16021790555050508080600101915050610ebf565b50508080600101915050610d3d565b507f4a4f8803a153cb465c54a6622248067ab9c67841d3001704c4c5f675c017b5213383604051610f9b9291906119d3565b60405180910390a15050565b5f806002811115610fbb57610fba61132b565b5b5f8054906101000a900460ff166002811115610fda57610fd961132b565b5b0361104757427f000000000000000000000000000000000000000000000000000000000000000061100b91906119fa565b6040517f2d166fa500000000000000000000000000000000000000000000000000000000815260040161103e91906113cf565b60405180910390fd5b60055f8360ff1660ff1681526020019081526020015f205f9054906101000a900460ff169050919050565b5f805f9054906101000a900460ff16905090565b5f600454905090565b5f7f0000000000000000000000000000000000000000000000000000000000000000905090565b60605f60025f3373ffffffffffffffffffffffffffffffffffffffff1673ffffffffffffffffffffffffffffffffffffffff1681526020019081526020015f208054905003611131576040517fc298787700000000000000000000000000000000000000000000000000000000815260040160405180910390fd5b60025f3373ffffffffffffffffffffffffffffffffffffffff1673ffffffffffffffffffffffffffffffffffffffff1681526020019081526020015f20805480602002602001604051908101604052809291908181526020015f905b82821015611259578382905f5260205f2090600302016040518060200160405290815f8201600380602002604051908101604052809291905f905b828210156112425783820160058060200260405190810160405280929190826005801561122e576020028201915f905b82829054906101000a900460ff1660ff16815260200190600101906020825f010492830192600103820291508084116111f85790505b5050505050815260200190600101906111c8565b50505050815250508152602001906001019061118d565b50505050905090565b5f600354905090565b5f60ff82169050919050565b6112808161126b565b82525050565b5f6020820190506112995f830184611277565b92915050565b5f80fd5b6112ac8161126b565b81146112b6575f80fd5b50565b5f813590506112c7816112a3565b92915050565b5f602082840312156112e2576112e161129f565b5b5f6112ef848285016112b9565b91505092915050565b5f8115159050919050565b61130c816112f8565b82525050565b5f6020820190506113255f830184611303565b92915050565b7f4e487b71000000000000000000000000000000000000000000000000000000005f52602160045260245ffd5b600381106113695761136861132b565b5b50565b5f81905061137982611358565b919050565b5f6113888261136c565b9050919050565b6113988161137e565b82525050565b5f6020820190506113b15f83018461138f565b92915050565b5f819050919050565b6113c9816113b7565b82525050565b5f6020820190506113e25f8301846113c0565b92915050565b5f81519050919050565b5f82825260208201905092915050565b5f819050602082019050919050565b5f60039050919050565b5f81905092915050565b5f819050919050565b5f60059050919050565b5f81905092915050565b5f819050919050565b6114548161126b565b82525050565b5f611465838361144b565b60208301905092915050565b5f602082019050919050565b6114868161142e565b6114908184611438565b925061149b82611442565b805f5b838110156114cb5781516114b2878261145a565b96506114bd83611471565b92505060018101905061149e565b505050505050565b5f6114de838361147d565b60a08301905092915050565b5f602082019050919050565b6114ff81611411565b611509818461141b565b925061151482611425565b805f5b8381101561154457815161152b87826114d3565b9650611536836114ea565b925050600181019050611517565b505050505050565b6101e082015f8201516115615f8501826114f6565b50505050565b5f611572838361154c565b6101e08301905092915050565b5f602082019050919050565b5f611595826113e8565b61159f81856113f2565b93506115aa83611402565b805f5b838110156115da5781516115c18882611567565b97506115cc8361157f565b9250506001810190506115ad565b5085935050505092915050565b5f6020820190508181035f8301526115ff818461158b565b905092915050565b5f82825260208201905092915050565b7f4e6f742065787472616374696f6e2070686173650000000000000000000000005f82015250565b5f61164b601483611607565b915061165682611617565b602082019050919050565b5f6020820190508181035f8301526116788161163f565b9050919050565b7f4e487b71000000000000000000000000000000000000000000000000000000005f52601160045260245ffd5b5f6116b6826113b7565b91507fffffffffffffffffffffffffffffffffffffffffffffffffffffffffffffffff82036116e8576116e761167f565b5b600182019050919050565b5f819050919050565b61170d611708826113b7565b6116f3565b82525050565b5f61171e82866116fc565b60208201915061172e82856116fc565b60208201915061173e82846116fc565b602082019150819050949350505050565b7f4e487b71000000000000000000000000000000000000000000000000000000005f52601260045260245ffd5b5f611786826113b7565b9150611791836113b7565b9250826117a1576117a061174f565b5b828206905092915050565b7f4e487b71000000000000000000000000000000000000000000000000000000005f52603260045260245ffd5b7f4e487b71000000000000000000000000000000000000000000000000000000005f52604160045260245ffd5b5f6118108261126b565b915060ff82036118235761182261167f565b5b600182019050919050565b5f6040820190506118415f830185611277565b61184e60208301846113c0565b9392505050565b5f61185f826113b7565b915061186a836113b7565b92508261187a5761187961174f565b5b828204905092915050565b5f61188f826113b7565b915061189a836113b7565b92508282026118a8816113b7565b915082820484148315176118bf576118be61167f565b5b5092915050565b5f6040820190506118d95f8301856113c0565b6118e660208301846113c0565b9392505050565b5f73ffffffffffffffffffffffffffffffffffffffff82169050919050565b5f611916826118ed565b9050919050565b6119268161190c565b82525050565b5f60408201905061193f5f8301856113c0565b61194c602083018461191d565b9392505050565b5f61195d826113b7565b9150611968836113b7565b92508282019050808211156119805761197f61167f565b5b92915050565b5f61199182876116fc565b6020820191506119a182866116fc565b6020820191506119b182856116fc565b6020820191506119c182846116fc565b60208201915081905095945050505050565b5f6040820190506119e65f83018561191d565b6119f360208301846113c0565b9392505050565b5f611a04826113b7565b9150611a0f836113b7565b9250828203905081811115611a2757611a2661167f565b5b9291505056fea2646970667358221220322c76035c62a8f802a9f7c4049a009feaa89e35d49092dc324d276fcd68671764736f6c634300081a0033",
			"opcodes": "PUSH1 0xC0 PUSH1 0x40 MSTORE PUSH0 PUSH1 0x3 SSTORE PUSH0 PUSH1 0x4 SSTORE PUSH0 PUSH1 0x6 PUSH0 PUSH2 0x100 EXP DUP2 SLOAD DUP2 PUSH1 0xFF MUL NOT AND SWAP1 DUP4 ISZERO ISZERO MUL OR SWAP1 SSTORE POP PUSH0 PUSH1 0x8 PUSH0 PUSH2 0x100 EXP DUP2 SLOAD DUP2 PUSH1 0xFF MUL NOT AND SWAP1 DUP4 ISZERO ISZERO MUL OR SWAP1 SSTORE POP CALLVALUE DUP1 ISZERO PUSH2 0x49 JUMPI PUSH0 DUP1 REVERT JUMPDEST POP PUSH1 0x40 MLOAD PUSH2 0x1CA8 CODESIZE SUB DUP1 PUSH2 0x1CA8 DUP4 CODECOPY DUP2 DUP2 ADD PUSH1 0x40 MSTORE DUP2 ADD SWAP1 PUSH2 0x6B SWAP2 SWAP1 PUSH2 0x103 JUMP JUMPDEST PUSH0 DUP1 PUSH0 PUSH2 0x100 EXP DUP2 SLOAD DUP2 PUSH1 0xFF MUL NOT AND SWAP1 DUP4 PUSH1 0x2 DUP2 GT ISZERO PUSH2 0x8E JUMPI PUSH2 0x8D PUSH2 0x141 JUMP JUMPDEST JUMPDEST MUL OR SWAP1 SSTORE POP DUP1 PUSH1 0x80 DUP2 DUP2 MSTORE POP POP PUSH1 0x3C DUP1 DUP4 PUSH2 0xA9 SWAP2 SWAP1 PUSH2 0x19B JUMP JUMPDEST PUSH2 0xB3 SWAP2 SWAP1 PUSH2 0x19B JUMP JUMPDEST TIMESTAMP PUSH2 0xBE SWAP2 SWAP1 PUSH2 0x1DC JUMP JUMPDEST PUSH1 0xA0 DUP2 DUP2 MSTORE POP POP POP POP PUSH2 0x20F JUMP JUMPDEST PUSH0 DUP1 REVERT JUMPDEST PUSH0 DUP2 SWAP1 POP SWAP2 SWAP1 POP JUMP JUMPDEST PUSH2 0xE2 DUP2 PUSH2 0xD0 JUMP JUMPDEST DUP2 EQ PUSH2 0xEC JUMPI PUSH0 DUP1 REVERT JUMPDEST POP JUMP JUMPDEST PUSH0 DUP2 MLOAD SWAP1 POP PUSH2 0xFD DUP2 PUSH2 0xD9 JUMP JUMPDEST SWAP3 SWAP2 POP POP JUMP JUMPDEST PUSH0 DUP1 PUSH1 0x40 DUP4 DUP6 SUB SLT ISZERO PUSH2 0x119 JUMPI PUSH2 0x118 PUSH2 0xCC JUMP JUMPDEST JUMPDEST PUSH0 PUSH2 0x126 DUP6 DUP3 DUP7 ADD PUSH2 0xEF JUMP JUMPDEST SWAP3 POP POP PUSH1 0x20 PUSH2 0x137 DUP6 DUP3 DUP7 ADD PUSH2 0xEF JUMP JUMPDEST SWAP2 POP POP SWAP3 POP SWAP3 SWAP1 POP JUMP JUMPDEST PUSH32 0x4E487B7100000000000000000000000000000000000000000000000000000000 PUSH0 MSTORE PUSH1 0x21 PUSH1 0x4 MSTORE PUSH1 0x24 PUSH0 REVERT JUMPDEST PUSH32 0x4E487B7100000000000000000000000000000000000000000000000000000000 PUSH0 MSTORE PUSH1 0x11 PUSH1 0x4 MSTORE PUSH1 0x24 PUSH0 REVERT JUMPDEST PUSH0 PUSH2 0x1A5 DUP3 PUSH2 0xD0 JUMP JUMPDEST SWAP2 POP PUSH2 0x1B0 DUP4 PUSH2 0xD0 JUMP JUMPDEST SWAP3 POP DUP3 DUP3 MUL PUSH2 0x1BE DUP2 PUSH2 0xD0 JUMP JUMPDEST SWAP2 POP DUP3 DUP3 DIV DUP5 EQ DUP4 ISZERO OR PUSH2 0x1D5 JUMPI PUSH2 0x1D4 PUSH2 0x16E JUMP JUMPDEST JUMPDEST POP SWAP3 SWAP2 POP POP JUMP JUMPDEST PUSH0 PUSH2 0x1E6 DUP3 PUSH2 0xD0 JUMP JUMPDEST SWAP2 POP PUSH2 0x1F1 DUP4 PUSH2 0xD0 JUMP JUMPDEST SWAP3 POP DUP3 DUP3 ADD SWAP1 POP DUP1 DUP3 GT ISZERO PUSH2 0x209 JUMPI PUSH2 0x208 PUSH2 0x16E JUMP JUMPDEST JUMPDEST SWAP3 SWAP2 POP POP JUMP JUMPDEST PUSH1 0x80 MLOAD PUSH1 0xA0 MLOAD PUSH2 0x1A63 PUSH2 0x245 PUSH0 CODECOPY PUSH0 PUSH2 0xFE2 ADD MSTORE PUSH0 DUP2 DUP2 PUSH2 0xBAE ADD MSTORE DUP2 DUP2 PUSH2 0xBD7 ADD MSTORE DUP2 DUP2 PUSH2 0xC36 ADD MSTORE PUSH2 0x1092 ADD MSTORE PUSH2 0x1A63 PUSH0 RETURN INVALID PUSH1 0x80 PUSH1 0x40 MSTORE PUSH1 0x4 CALLDATASIZE LT PUSH2 0x7A JUMPI PUSH0 CALLDATALOAD PUSH1 0xE0 SHR DUP1 PUSH4 0xC487282C GT PUSH2 0x4D JUMPI DUP1 PUSH4 0xC487282C EQ PUSH2 0x118 JUMPI DUP1 PUSH4 0xD66A0FFC EQ PUSH2 0x142 JUMPI DUP1 PUSH4 0xED92C4BB EQ PUSH2 0x16C JUMPI DUP1 PUSH4 0xFD6673F5 EQ PUSH2 0x196 JUMPI PUSH2 0x7A JUMP JUMPDEST DUP1 PUSH4 0x10978262 EQ PUSH2 0x7E JUMPI DUP1 PUSH4 0x21870EEC EQ PUSH2 0xA8 JUMPI DUP1 PUSH4 0x873B604E EQ PUSH2 0xB2 JUMPI DUP1 PUSH4 0xB7D0628B EQ PUSH2 0xEE JUMPI JUMPDEST PUSH0 DUP1 REVERT JUMPDEST CALLVALUE DUP1 ISZERO PUSH2 0x89 JUMPI PUSH0 DUP1 REVERT JUMPDEST POP PUSH2 0x92 PUSH2 0x1C0 JUMP JUMPDEST PUSH1 0x40 MLOAD PUSH2 0x9F SWAP2 SWAP1 PUSH2 0x1286 JUMP JUMPDEST PUSH1 0x40 MLOAD DUP1 SWAP2 SUB SWAP1 RETURN JUMPDEST PUSH2 0xB0 PUSH2 0xADA JUMP JUMPDEST STOP JUMPDEST CALLVALUE DUP1 ISZERO PUSH2 0xBD JUMPI PUSH0 DUP1 REVERT JUMPDEST POP PUSH2 0xD8 PUSH1 0x4 DUP1 CALLDATASIZE SUB DUP2 ADD SWAP1 PUSH2 0xD3 SWAP2 SWAP1 PUSH2 0x12CD JUMP JUMPDEST PUSH2 0xFA7 JUMP JUMPDEST PUSH1 0x40 MLOAD PUSH2 0xE5 SWAP2 SWAP1 PUSH2 0x1312 JUMP JUMPDEST PUSH1 0x40 MLOAD DUP1 SWAP2 SUB SWAP1 RETURN JUMPDEST CALLVALUE DUP1 ISZERO PUSH2 0xF9 JUMPI PUSH0 DUP1 REVERT JUMPDEST POP PUSH2 0x102 PUSH2 0x1072 JUMP JUMPDEST PUSH1 0x40 MLOAD PUSH2 0x10F SWAP2 SWAP1 PUSH2 0x139E JUMP JUMPDEST PUSH1 0x40 MLOAD DUP1 SWAP2 SUB SWAP1 RETURN JUMPDEST CALLVALUE DUP1 ISZERO PUSH2 0x123 JUMPI PUSH0 DUP1 REVERT JUMPDEST POP PUSH2 0x12C PUSH2 0x1086 JUMP JUMPDEST PUSH1 0x40 MLOAD PUSH2 0x139 SWAP2 SWAP1 PUSH2 0x13CF JUMP JUMPDEST PUSH1 0x40 MLOAD DUP1 SWAP2 SUB SWAP1 RETURN JUMPDEST CALLVALUE DUP1 ISZERO PUSH2 0x14D JUMPI PUSH0 DUP1 REVERT JUMPDEST POP PUSH2 0x156 PUSH2 0x108F JUMP JUMPDEST PUSH1 0x40 MLOAD PUSH2 0x163 SWAP2 SWAP1 PUSH2 0x13CF JUMP JUMPDEST PUSH1 0x40 MLOAD DUP1 SWAP2 SUB SWAP1 RETURN JUMPDEST CALLVALUE DUP1 ISZERO PUSH2 0x177 JUMPI PUSH0 DUP1 REVERT JUMPDEST POP PUSH2 0x180 PUSH2 0x10B6 JUMP JUMPDEST PUSH1 0x40 MLOAD PUSH2 0x18D SWAP2 SWAP1 PUSH2 0x15E7 JUMP JUMPDEST PUSH1 0x40 MLOAD DUP1 SWAP2 SUB SWAP1 RETURN JUMPDEST CALLVALUE DUP1 ISZERO PUSH2 0x1A1 JUMPI PUSH0 DUP1 REVERT JUMPDEST POP PUSH2 0x1AA PUSH2 0x1262 JUMP JUMPDEST PUSH1 0x40 MLOAD PUSH2 0x1B7 SWAP2 SWAP1 PUSH2 0x13CF JUMP JUMPDEST PUSH1 0x40 MLOAD DUP1 SWAP2 SUB SWAP1 RETURN JUMPDEST PUSH0 PUSH1 0x2 DUP1 DUP2 GT ISZERO PUSH2 0x1D4 JUMPI PUSH2 0x1D3 PUSH2 0x132B JUMP JUMPDEST JUMPDEST PUSH0 DUP1 SLOAD SWAP1 PUSH2 0x100 EXP SWAP1 DIV PUSH1 0xFF AND PUSH1 0x2 DUP2 GT ISZERO PUSH2 0x1F3 JUMPI PUSH2 0x1F2 PUSH2 0x132B JUMP JUMPDEST JUMPDEST SUB PUSH2 0x22A JUMPI PUSH1 0x40 MLOAD PUSH32 0x919142BC00000000000000000000000000000000000000000000000000000000 DUP2 MSTORE PUSH1 0x4 ADD PUSH1 0x40 MLOAD DUP1 SWAP2 SUB SWAP1 REVERT JUMPDEST PUSH1 0x1 PUSH1 0x2 DUP2 GT ISZERO PUSH2 0x23E JUMPI PUSH2 0x23D PUSH2 0x132B JUMP JUMPDEST JUMPDEST PUSH0 DUP1 SLOAD SWAP1 PUSH2 0x100 EXP SWAP1 DIV PUSH1 0xFF AND PUSH1 0x2 DUP2 GT ISZERO PUSH2 0x25D JUMPI PUSH2 0x25C PUSH2 0x132B JUMP JUMPDEST JUMPDEST EQ PUSH2 0x29D JUMPI PUSH1 0x40 MLOAD PUSH32 0x8C379A000000000000000000000000000000000000000000000000000000000 DUP2 MSTORE PUSH1 0x4 ADD PUSH2 0x294 SWAP1 PUSH2 0x1661 JUMP JUMPDEST PUSH1 0x40 MLOAD DUP1 SWAP2 SUB SWAP1 REVERT JUMPDEST PUSH0 PUSH1 0x1 SWAP1 POP PUSH0 JUMPDEST PUSH1 0x4B TIMESTAMP PREVRANDAO DUP4 DUP1 PUSH2 0x2B3 SWAP1 PUSH2 0x16AC JUMP JUMPDEST SWAP5 POP PUSH1 0x40 MLOAD PUSH1 0x20 ADD PUSH2 0x2C7 SWAP4 SWAP3 SWAP2 SWAP1 PUSH2 0x1713 JUMP JUMPDEST PUSH1 0x40 MLOAD PUSH1 0x20 DUP2 DUP4 SUB SUB DUP2 MSTORE SWAP1 PUSH1 0x40 MSTORE DUP1 MLOAD SWAP1 PUSH1 0x20 ADD KECCAK256 PUSH0 SHR PUSH2 0x2E9 SWAP2 SWAP1 PUSH2 0x177C JUMP JUMPDEST SWAP3 POP PUSH0 JUMPDEST DUP2 DUP2 LT ISZERO PUSH2 0x32F JUMPI PUSH1 0x5 PUSH0 DUP6 PUSH1 0xFF AND PUSH1 0xFF AND DUP2 MSTORE PUSH1 0x20 ADD SWAP1 DUP2 MSTORE PUSH1 0x20 ADD PUSH0 KECCAK256 PUSH0 SWAP1 SLOAD SWAP1 PUSH2 0x100 EXP SWAP1 DIV PUSH1 0xFF AND ISZERO PUSH2 0x322 JUMPI PUSH0 SWAP3 POP JUMPDEST DUP1 DUP1 PUSH1 0x1 ADD SWAP2 POP POP PUSH2 0x2ED JUMP JUMPDEST POP DUP2 ISZERO PUSH2 0x2A4 JUMPI PUSH1 0x1 PUSH1 0x5 PUSH0 DUP6 PUSH1 0xFF AND PUSH1 0xFF AND DUP2 MSTORE PUSH1 0x20 ADD SWAP1 DUP2 MSTORE PUSH1 0x20 ADD PUSH0 KECCAK256 PUSH0 PUSH2 0x100 EXP DUP2 SLOAD DUP2 PUSH1 0xFF MUL NOT AND SWAP1 DUP4 ISZERO ISZERO MUL OR SWAP1 SSTORE POP PUSH0 DUP1 SWAP2 POP JUMPDEST PUSH1 0x1 DUP1 SLOAD SWAP1 POP DUP3 LT ISZERO PUSH2 0x7D1 JUMPI PUSH0 PUSH1 0x1 DUP4 DUP2 SLOAD DUP2 LT PUSH2 0x38C JUMPI PUSH2 0x38B PUSH2 0x17AC JUMP JUMPDEST JUMPDEST SWAP1 PUSH0 MSTORE PUSH1 0x20 PUSH0 KECCAK256 ADD PUSH0 SWAP1 SLOAD SWAP1 PUSH2 0x100 EXP SWAP1 DIV PUSH20 0xFFFFFFFFFFFFFFFFFFFFFFFFFFFFFFFFFFFFFFFF AND SWAP1 POP PUSH0 JUMPDEST PUSH1 0x2 PUSH0 DUP4 PUSH20 0xFFFFFFFFFFFFFFFFFFFFFFFFFFFFFFFFFFFFFFFF AND PUSH20 0xFFFFFFFFFFFFFFFFFFFFFFFFFFFFFFFFFFFFFFFF AND DUP2 MSTORE PUSH1 0x20 ADD SWAP1 DUP2 MSTORE PUSH1 0x20 ADD PUSH0 KECCAK256 DUP1 SLOAD SWAP1 POP DUP2 LT ISZERO PUSH2 0x7C2 JUMPI PUSH0 PUSH1 0x2 PUSH0 DUP5 PUSH20 0xFFFFFFFFFFFFFFFFFFFFFFFFFFFFFFFFFFFFFFFF AND PUSH20 0xFFFFFFFFFFFFFFFFFFFFFFFFFFFFFFFFFFFFFFFF AND DUP2 MSTORE PUSH1 0x20 ADD SWAP1 DUP2 MSTORE PUSH1 0x20 ADD PUSH0 KECCAK256 DUP3 DUP2 SLOAD DUP2 LT PUSH2 0x450 JUMPI PUSH2 0x44F PUSH2 0x17AC JUMP JUMPDEST JUMPDEST SWAP1 PUSH0 MSTORE PUSH1 0x20 PUSH0 KECCAK256 SWAP1 PUSH1 0x3 MUL ADD SWAP1 POP PUSH0 PUSH1 0x3 PUSH8 0xFFFFFFFFFFFFFFFF DUP2 GT ISZERO PUSH2 0x47A JUMPI PUSH2 0x479 PUSH2 0x17D9 JUMP JUMPDEST JUMPDEST PUSH1 0x40 MLOAD SWAP1 DUP1 DUP3 MSTORE DUP1 PUSH1 0x20 MUL PUSH1 0x20 ADD DUP3 ADD PUSH1 0x40 MSTORE DUP1 ISZERO PUSH2 0x4A8 JUMPI DUP2 PUSH1 0x20 ADD PUSH1 0x20 DUP3 MUL DUP1 CALLDATASIZE DUP4 CALLDATACOPY DUP1 DUP3 ADD SWAP2 POP POP SWAP1 POP JUMPDEST POP SWAP1 POP PUSH0 JUMPDEST PUSH1 0x3 DUP2 LT ISZERO PUSH2 0x5CE JUMPI PUSH0 JUMPDEST PUSH1 0x5 DUP2 LT ISZERO PUSH2 0x5C0 JUMPI PUSH1 0x5 PUSH0 DUP6 PUSH0 ADD DUP5 PUSH1 0x3 DUP2 LT PUSH2 0x4D9 JUMPI PUSH2 0x4D8 PUSH2 0x17AC JUMP JUMPDEST JUMPDEST ADD DUP4 PUSH1 0x5 DUP2 LT PUSH2 0x4EC JUMPI PUSH2 0x4EB PUSH2 0x17AC JUMP JUMPDEST JUMPDEST PUSH1 0x20 SWAP2 DUP3 DUP3 DIV ADD SWAP2 SWAP1 MOD SWAP1 SLOAD SWAP1 PUSH2 0x100 EXP SWAP1 DIV PUSH1 0xFF AND PUSH1 0xFF AND PUSH1 0xFF AND DUP2 MSTORE PUSH1 0x20 ADD SWAP1 DUP2 MSTORE PUSH1 0x20 ADD PUSH0 KECCAK256 PUSH0 SWAP1 SLOAD SWAP1 PUSH2 0x100 EXP SWAP1 DIV PUSH1 0xFF AND ISZERO PUSH2 0x5B3 JUMPI DUP3 DUP3 DUP2 MLOAD DUP2 LT PUSH2 0x53A JUMPI PUSH2 0x539 PUSH2 0x17AC JUMP JUMPDEST JUMPDEST PUSH1 0x20 MUL PUSH1 0x20 ADD ADD DUP1 MLOAD DUP1 SWAP2 SWAP1 PUSH2 0x54F SWAP1 PUSH2 0x1806 JUMP JUMPDEST PUSH1 0xFF AND PUSH1 0xFF AND DUP2 MSTORE POP POP DUP10 PUSH1 0xFF AND DUP5 PUSH0 ADD DUP4 PUSH1 0x3 DUP2 LT PUSH2 0x572 JUMPI PUSH2 0x571 PUSH2 0x17AC JUMP JUMPDEST JUMPDEST ADD DUP3 PUSH1 0x5 DUP2 LT PUSH2 0x585 JUMPI PUSH2 0x584 PUSH2 0x17AC JUMP JUMPDEST JUMPDEST PUSH1 0x20 SWAP2 DUP3 DUP3 DIV ADD SWAP2 SWAP1 MOD SWAP1 SLOAD SWAP1 PUSH2 0x100 EXP SWAP1 DIV PUSH1 0xFF AND PUSH1 0xFF AND SUB PUSH2 0x5B2 JUMPI DUP7 DUP1 PUSH2 0x5AE SWAP1 PUSH2 0x16AC JUMP JUMPDEST SWAP8 POP POP JUMPDEST JUMPDEST DUP1 DUP1 PUSH1 0x1 ADD SWAP2 POP POP PUSH2 0x4B8 JUMP JUMPDEST POP DUP1 DUP1 PUSH1 0x1 ADD SWAP2 POP POP PUSH2 0x4AD JUMP JUMPDEST POP PUSH1 0x6 PUSH0 SWAP1 SLOAD SWAP1 PUSH2 0x100 EXP SWAP1 DIV PUSH1 0xFF AND ISZERO DUP1 ISZERO PUSH2 0x65A JUMPI POP PUSH1 0x5 DUP2 PUSH0 DUP2 MLOAD DUP2 LT PUSH2 0x5FB JUMPI PUSH2 0x5FA PUSH2 0x17AC JUMP JUMPDEST JUMPDEST PUSH1 0x20 MUL PUSH1 0x20 ADD ADD MLOAD PUSH1 0xFF AND EQ DUP1 PUSH2 0x630 JUMPI POP PUSH1 0x5 DUP2 PUSH1 0x1 DUP2 MLOAD DUP2 LT PUSH2 0x623 JUMPI PUSH2 0x622 PUSH2 0x17AC JUMP JUMPDEST JUMPDEST PUSH1 0x20 MUL PUSH1 0x20 ADD ADD MLOAD PUSH1 0xFF AND EQ JUMPDEST DUP1 PUSH2 0x659 JUMPI POP PUSH1 0x5 DUP2 PUSH1 0x2 DUP2 MLOAD DUP2 LT PUSH2 0x64C JUMPI PUSH2 0x64B PUSH2 0x17AC JUMP JUMPDEST JUMPDEST PUSH1 0x20 MUL PUSH1 0x20 ADD ADD MLOAD PUSH1 0xFF AND EQ JUMPDEST JUMPDEST ISZERO PUSH2 0x6C0 JUMPI PUSH1 0x7 DUP5 SWAP1 DUP1 PUSH1 0x1 DUP2 SLOAD ADD DUP1 DUP3 SSTORE DUP1 SWAP2 POP POP PUSH1 0x1 SWAP1 SUB SWAP1 PUSH0 MSTORE PUSH1 0x20 PUSH0 KECCAK256 ADD PUSH0 SWAP1 SWAP2 SWAP1 SWAP2 SWAP1 SWAP2 PUSH2 0x100 EXP DUP2 SLOAD DUP2 PUSH20 0xFFFFFFFFFFFFFFFFFFFFFFFFFFFFFFFFFFFFFFFF MUL NOT AND SWAP1 DUP4 PUSH20 0xFFFFFFFFFFFFFFFFFFFFFFFFFFFFFFFFFFFFFFFF AND MUL OR SWAP1 SSTORE POP JUMPDEST PUSH1 0x8 PUSH0 SWAP1 SLOAD SWAP1 PUSH2 0x100 EXP SWAP1 DIV PUSH1 0xFF AND ISZERO DUP1 ISZERO PUSH2 0x6F9 JUMPI POP PUSH1 0x5 DUP2 PUSH0 DUP2 MLOAD DUP2 LT PUSH2 0x6EC JUMPI PUSH2 0x6EB PUSH2 0x17AC JUMP JUMPDEST JUMPDEST PUSH1 0x20 MUL PUSH1 0x20 ADD ADD MLOAD PUSH1 0xFF AND EQ JUMPDEST DUP1 ISZERO PUSH2 0x723 JUMPI POP PUSH1 0x5 DUP2 PUSH1 0x1 DUP2 MLOAD DUP2 LT PUSH2 0x716 JUMPI PUSH2 0x715 PUSH2 0x17AC JUMP JUMPDEST JUMPDEST PUSH1 0x20 MUL PUSH1 0x20 ADD ADD MLOAD PUSH1 0xFF AND EQ JUMPDEST DUP1 ISZERO PUSH2 0x74D JUMPI POP PUSH1 0x5 DUP2 PUSH1 0x2 DUP2 MLOAD DUP2 LT PUSH2 0x740 JUMPI PUSH2 0x73F PUSH2 0x17AC JUMP JUMPDEST JUMPDEST PUSH1 0x20 MUL PUSH1 0x20 ADD ADD MLOAD PUSH1 0xFF AND EQ JUMPDEST ISZERO PUSH2 0x7B3 JUMPI PUSH1 0x9 DUP5 SWAP1 DUP1 PUSH1 0x1 DUP2 SLOAD ADD DUP1 DUP3 SSTORE DUP1 SWAP2 POP POP PUSH1 0x1 SWAP1 SUB SWAP1 PUSH0 MSTORE PUSH1 0x20 PUSH0 KECCAK256 ADD PUSH0 SWAP1 SWAP2 SWAP1 SWAP2 SWAP1 SWAP2 PUSH2 0x100 EXP DUP2 SLOAD DUP2 PUSH20 0xFFFFFFFFFFFFFFFFFFFFFFFFFFFFFFFFFFFFFFFF MUL NOT AND SWAP1 DUP4 PUSH20 0xFFFFFFFFFFFFFFFFFFFFFFFFFFFFFFFFFFFFFFFF AND MUL OR SWAP1 SSTORE POP JUMPDEST POP POP DUP1 DUP1 PUSH1 0x1 ADD SWAP2 POP POP PUSH2 0x3B8 JUMP JUMPDEST POP POP DUP2 DUP1 PUSH1 0x1 ADD SWAP3 POP POP PUSH2 0x36A JUMP JUMPDEST PUSH32 0xFA83873DFFE3ED5544B8E883CD74A5A292AA4D936DF89B0D7BBA55CB7804BA18 DUP5 DUP3 PUSH1 0x40 MLOAD PUSH2 0x802 SWAP3 SWAP2 SWAP1 PUSH2 0x182E JUMP JUMPDEST PUSH1 0x40 MLOAD DUP1 SWAP2 SUB SWAP1 LOG1 PUSH1 0x6 PUSH0 SWAP1 SLOAD SWAP1 PUSH2 0x100 EXP SWAP1 DIV PUSH1 0xFF AND ISZERO DUP1 ISZERO PUSH2 0x82A JUMPI POP PUSH0 PUSH1 0x7 DUP1 SLOAD SWAP1 POP GT JUMPDEST ISZERO PUSH2 0x97B JUMPI PUSH0 PUSH1 0x1E PUSH1 0x64 SELFBALANCE PUSH2 0x83F SWAP2 SWAP1 PUSH2 0x1855 JUMP JUMPDEST PUSH2 0x849 SWAP2 SWAP1 PUSH2 0x1885 JUMP JUMPDEST SWAP1 POP PUSH32 0x33EF1E817BB5116DFDC8C1EECA292BEC270599A13A70A131C2F045675B033A08 DUP2 PUSH1 0x7 DUP1 SLOAD SWAP1 POP PUSH1 0x40 MLOAD PUSH2 0x881 SWAP3 SWAP2 SWAP1 PUSH2 0x18C6 JUMP JUMPDEST PUSH1 0x40 MLOAD DUP1 SWAP2 SUB SWAP1 LOG1 PUSH0 PUSH1 0x7 DUP1 SLOAD SWAP1 POP DUP3 PUSH2 0x89B SWAP2 SWAP1 PUSH2 0x1855 JUMP JUMPDEST SWAP1 POP PUSH0 SWAP4 POP JUMPDEST PUSH1 0x7 DUP1 SLOAD SWAP1 POP DUP5 LT ISZERO PUSH2 0x978 JUMPI PUSH0 PUSH1 0x7 DUP6 DUP2 SLOAD DUP2 LT PUSH2 0x8C3 JUMPI PUSH2 0x8C2 PUSH2 0x17AC JUMP JUMPDEST JUMPDEST SWAP1 PUSH0 MSTORE PUSH1 0x20 PUSH0 KECCAK256 ADD PUSH0 SWAP1 SLOAD SWAP1 PUSH2 0x100 EXP SWAP1 DIV PUSH20 0xFFFFFFFFFFFFFFFFFFFFFFFFFFFFFFFFFFFFFFFF AND SWAP1 POP DUP1 PUSH20 0xFFFFFFFFFFFFFFFFFFFFFFFFFFFFFFFFFFFFFFFF AND PUSH2 0x8FC DUP4 SWAP1 DUP2 ISZERO MUL SWAP1 PUSH1 0x40 MLOAD PUSH0 PUSH1 0x40 MLOAD DUP1 DUP4 SUB DUP2 DUP6 DUP9 DUP9 CALL SWAP4 POP POP POP POP ISZERO DUP1 ISZERO PUSH2 0x930 JUMPI RETURNDATASIZE PUSH0 DUP1 RETURNDATACOPY RETURNDATASIZE PUSH0 REVERT JUMPDEST POP PUSH32 0x9A551B3764BD83FAFA1CC7DC9A25869F3C4F2BDD9CC209CE7DE6169AC5FA2037 DUP3 DUP3 PUSH1 0x40 MLOAD PUSH2 0x962 SWAP3 SWAP2 SWAP1 PUSH2 0x192C JUMP JUMPDEST PUSH1 0x40 MLOAD DUP1 SWAP2 SUB SWAP1 LOG1 POP DUP4 DUP1 PUSH1 0x1 ADD SWAP5 POP POP PUSH2 0x8A1 JUMP JUMPDEST POP POP JUMPDEST PUSH1 0x8 PUSH0 SWAP1 SLOAD SWAP1 PUSH2 0x100 EXP SWAP1 DIV PUSH1 0xFF AND ISZERO DUP1 ISZERO PUSH2 0x99B JUMPI POP PUSH0 PUSH1 0x9 DUP1 SLOAD SWAP1 POP GT JUMPDEST ISZERO PUSH2 0xAD4 JUMPI PUSH0 SELFBALANCE SWAP1 POP PUSH32 0xA781572F44007E9124DA6FA9D747F1C30CC7D7E37BB6D137CA50FB7C6EBB4FE3 DUP2 PUSH1 0x7 DUP1 SLOAD SWAP1 POP PUSH1 0x40 MLOAD PUSH2 0x9DA SWAP3 SWAP2 SWAP1 PUSH2 0x18C6 JUMP JUMPDEST PUSH1 0x40 MLOAD DUP1 SWAP2 SUB SWAP1 LOG1 PUSH0 PUSH1 0x7 DUP1 SLOAD SWAP1 POP DUP3 PUSH2 0x9F4 SWAP2 SWAP1 PUSH2 0x1855 JUMP JUMPDEST SWAP1 POP PUSH0 SWAP4 POP JUMPDEST PUSH1 0x7 DUP1 SLOAD SWAP1 POP DUP5 LT ISZERO PUSH2 0xAD1 JUMPI PUSH0 PUSH1 0x7 DUP6 DUP2 SLOAD DUP2 LT PUSH2 0xA1C JUMPI PUSH2 0xA1B PUSH2 0x17AC JUMP JUMPDEST JUMPDEST SWAP1 PUSH0 MSTORE PUSH1 0x20 PUSH0 KECCAK256 ADD PUSH0 SWAP1 SLOAD SWAP1 PUSH2 0x100 EXP SWAP1 DIV PUSH20 0xFFFFFFFFFFFFFFFFFFFFFFFFFFFFFFFFFFFFFFFF AND SWAP1 POP DUP1 PUSH20 0xFFFFFFFFFFFFFFFFFFFFFFFFFFFFFFFFFFFFFFFF AND PUSH2 0x8FC DUP4 SWAP1 DUP2 ISZERO MUL SWAP1 PUSH1 0x40 MLOAD PUSH0 PUSH1 0x40 MLOAD DUP1 DUP4 SUB DUP2 DUP6 DUP9 DUP9 CALL SWAP4 POP POP POP POP ISZERO DUP1 ISZERO PUSH2 0xA89 JUMPI RETURNDATASIZE PUSH0 DUP1 RETURNDATACOPY RETURNDATASIZE PUSH0 REVERT JUMPDEST POP PUSH32 0x9A551B3764BD83FAFA1CC7DC9A25869F3C4F2BDD9CC209CE7DE6169AC5FA2037 DUP3 DUP3 PUSH1 0x40 MLOAD PUSH2 0xABB SWAP3 SWAP2 SWAP1 PUSH2 0x192C JUMP JUMPDEST PUSH1 0x40 MLOAD DUP1 SWAP2 SUB SWAP1 LOG1 POP DUP4 DUP1 PUSH1 0x1 ADD SWAP5 POP POP PUSH2 0x9FA JUMP JUMPDEST POP POP JUMPDEST POP POP POP SWAP1 JUMP JUMPDEST PUSH1 0x2 DUP1 DUP2 GT ISZERO PUSH2 0xAED JUMPI PUSH2 0xAEC PUSH2 0x132B JUMP JUMPDEST JUMPDEST PUSH0 DUP1 SLOAD SWAP1 PUSH2 0x100 EXP SWAP1 DIV PUSH1 0xFF AND PUSH1 0x2 DUP2 GT ISZERO PUSH2 0xB0C JUMPI PUSH2 0xB0B PUSH2 0x132B JUMP JUMPDEST JUMPDEST SUB PUSH2 0xB43 JUMPI PUSH1 0x40 MLOAD PUSH32 0x919142BC00000000000000000000000000000000000000000000000000000000 DUP2 MSTORE PUSH1 0x4 ADD PUSH1 0x40 MLOAD DUP1 SWAP2 SUB SWAP1 REVERT JUMPDEST PUSH0 PUSH1 0x2 DUP2 GT ISZERO PUSH2 0xB56 JUMPI PUSH2 0xB55 PUSH2 0x132B JUMP JUMPDEST JUMPDEST PUSH0 DUP1 SLOAD SWAP1 PUSH2 0x100 EXP SWAP1 DIV PUSH1 0xFF AND PUSH1 0x2 DUP2 GT ISZERO PUSH2 0xB75 JUMPI PUSH2 0xB74 PUSH2 0x132B JUMP JUMPDEST JUMPDEST EQ PUSH2 0xBAC JUMPI PUSH1 0x40 MLOAD PUSH32 0xFB875C1900000000000000000000000000000000000000000000000000000000 DUP2 MSTORE PUSH1 0x4 ADD PUSH1 0x40 MLOAD DUP1 SWAP2 SUB SWAP1 REVERT JUMPDEST PUSH32 0x0 CALLVALUE LT ISZERO PUSH2 0xC33 JUMPI CALLVALUE PUSH32 0x0 PUSH1 0x40 MLOAD PUSH32 0x9423C2F400000000000000000000000000000000000000000000000000000000 DUP2 MSTORE PUSH1 0x4 ADD PUSH2 0xC2A SWAP3 SWAP2 SWAP1 PUSH2 0x18C6 JUMP JUMPDEST PUSH1 0x40 MLOAD DUP1 SWAP2 SUB SWAP1 REVERT JUMPDEST PUSH0 PUSH32 0x0 CALLVALUE PUSH2 0xC60 SWAP2 SWAP1 PUSH2 0x1855 JUMP JUMPDEST SWAP1 POP PUSH0 PUSH1 0x2 PUSH0 CALLER PUSH20 0xFFFFFFFFFFFFFFFFFFFFFFFFFFFFFFFFFFFFFFFF AND PUSH20 0xFFFFFFFFFFFFFFFFFFFFFFFFFFFFFFFFFFFFFFFF AND DUP2 MSTORE PUSH1 0x20 ADD SWAP1 DUP2 MSTORE PUSH1 0x20 ADD PUSH0 KECCAK256 DUP1 SLOAD SWAP1 POP SUB PUSH2 0xD21 JUMPI PUSH1 0x1 CALLER SWAP1 DUP1 PUSH1 0x1 DUP2 SLOAD ADD DUP1 DUP3 SSTORE DUP1 SWAP2 POP POP PUSH1 0x1 SWAP1 SUB SWAP1 PUSH0 MSTORE PUSH1 0x20 PUSH0 KECCAK256 ADD PUSH0 SWAP1 SWAP2 SWAP1 SWAP2 SWAP1 SWAP2 PUSH2 0x100 EXP DUP2 SLOAD DUP2 PUSH20 0xFFFFFFFFFFFFFFFFFFFFFFFFFFFFFFFFFFFFFFFF MUL NOT AND SWAP1 DUP4 PUSH20 0xFFFFFFFFFFFFFFFFFFFFFFFFFFFFFFFFFFFFFFFF AND MUL OR SWAP1 SSTORE POP PUSH1 0x3 PUSH0 DUP2 SLOAD DUP1 SWAP3 SWAP2 SWAP1 PUSH2 0xD1B SWAP1 PUSH2 0x16AC JUMP JUMPDEST SWAP2 SWAP1 POP SSTORE POP JUMPDEST DUP1 PUSH1 0x4 PUSH0 DUP3 DUP3 SLOAD PUSH2 0xD32 SWAP2 SWAP1 PUSH2 0x1953 JUMP JUMPDEST SWAP3 POP POP DUP2 SWAP1 SSTORE POP PUSH1 0x60 PUSH0 JUMPDEST DUP3 DUP2 LT ISZERO PUSH2 0xF69 JUMPI PUSH1 0xF PUSH8 0xFFFFFFFFFFFFFFFF DUP2 GT ISZERO PUSH2 0xD60 JUMPI PUSH2 0xD5F PUSH2 0x17D9 JUMP JUMPDEST JUMPDEST PUSH1 0x40 MLOAD SWAP1 DUP1 DUP3 MSTORE DUP1 PUSH1 0x20 MUL PUSH1 0x20 ADD DUP3 ADD PUSH1 0x40 MSTORE DUP1 ISZERO PUSH2 0xD8E JUMPI DUP2 PUSH1 0x20 ADD PUSH1 0x20 DUP3 MUL DUP1 CALLDATASIZE DUP4 CALLDATACOPY DUP1 DUP3 ADD SWAP2 POP POP SWAP1 POP JUMPDEST POP SWAP2 POP PUSH0 JUMPDEST PUSH1 0xF DUP2 LT ISZERO PUSH2 0xE60 JUMPI PUSH0 PUSH1 0x1 SWAP1 POP PUSH0 JUMPDEST PUSH1 0x4B TIMESTAMP PREVRANDAO DUP6 DUP8 PUSH1 0x40 MLOAD PUSH1 0x20 ADD PUSH2 0xDBC SWAP5 SWAP4 SWAP3 SWAP2 SWAP1 PUSH2 0x1986 JUMP JUMPDEST PUSH1 0x40 MLOAD PUSH1 0x20 DUP2 DUP4 SUB SUB DUP2 MSTORE SWAP1 PUSH1 0x40 MSTORE DUP1 MLOAD SWAP1 PUSH1 0x20 ADD KECCAK256 PUSH0 SHR PUSH2 0xDDE SWAP2 SWAP1 PUSH2 0x177C JUMP JUMPDEST SWAP1 POP PUSH0 JUMPDEST DUP4 DUP2 LT ISZERO PUSH2 0xE22 JUMPI DUP2 PUSH1 0xFF AND DUP7 DUP3 DUP2 MLOAD DUP2 LT PUSH2 0xE01 JUMPI PUSH2 0xE00 PUSH2 0x17AC JUMP JUMPDEST JUMPDEST PUSH1 0x20 MUL PUSH1 0x20 ADD ADD MLOAD PUSH1 0xFF AND SUB PUSH2 0xE15 JUMPI PUSH0 SWAP3 POP JUMPDEST DUP1 DUP1 PUSH1 0x1 ADD SWAP2 POP POP PUSH2 0xDE2 JUMP JUMPDEST POP DUP2 ISZERO PUSH2 0xDA3 JUMPI DUP1 DUP6 DUP5 DUP2 MLOAD DUP2 LT PUSH2 0xE3D JUMPI PUSH2 0xE3C PUSH2 0x17AC JUMP JUMPDEST JUMPDEST PUSH1 0x20 MUL PUSH1 0x20 ADD ADD SWAP1 PUSH1 0xFF AND SWAP1 DUP2 PUSH1 0xFF AND DUP2 MSTORE POP POP POP POP DUP1 DUP1 PUSH1 0x1 ADD SWAP2 POP POP PUSH2 0xD93 JUMP JUMPDEST POP PUSH0 PUSH1 0x2 PUSH0 CALLER PUSH20 0xFFFFFFFFFFFFFFFFFFFFFFFFFFFFFFFFFFFFFFFF AND PUSH20 0xFFFFFFFFFFFFFFFFFFFFFFFFFFFFFFFFFFFFFFFF AND DUP2 MSTORE PUSH1 0x20 ADD SWAP1 DUP2 MSTORE PUSH1 0x20 ADD PUSH0 KECCAK256 PUSH1 0x1 DUP2 PUSH1 0x1 DUP2 SLOAD ADD DUP1 DUP3 SSTORE DUP1 SWAP2 POP POP SUB SWAP1 PUSH0 MSTORE PUSH1 0x20 PUSH0 KECCAK256 SWAP1 PUSH1 0x3 MUL ADD SWAP1 POP PUSH0 JUMPDEST PUSH1 0xF DUP2 LT ISZERO PUSH2 0xF5A JUMPI PUSH0 PUSH1 0x3 DUP3 PUSH2 0xED6 SWAP2 SWAP1 PUSH2 0x177C JUMP JUMPDEST SWAP1 POP PUSH0 PUSH1 0x3 DUP4 PUSH2 0xEE6 SWAP2 SWAP1 PUSH2 0x1855 JUMP JUMPDEST SWAP1 POP DUP6 DUP4 DUP2 MLOAD DUP2 LT PUSH2 0xEFB JUMPI PUSH2 0xEFA PUSH2 0x17AC JUMP JUMPDEST JUMPDEST PUSH1 0x20 MUL PUSH1 0x20 ADD ADD MLOAD DUP5 PUSH0 ADD DUP4 PUSH1 0x3 DUP2 LT PUSH2 0xF18 JUMPI PUSH2 0xF17 PUSH2 0x17AC JUMP JUMPDEST JUMPDEST ADD DUP3 PUSH1 0x5 DUP2 LT PUSH2 0xF2B JUMPI PUSH2 0xF2A PUSH2 0x17AC JUMP JUMPDEST JUMPDEST PUSH1 0x20 SWAP2 DUP3 DUP3 DIV ADD SWAP2 SWAP1 MOD PUSH2 0x100 EXP DUP2 SLOAD DUP2 PUSH1 0xFF MUL NOT AND SWAP1 DUP4 PUSH1 0xFF AND MUL OR SWAP1 SSTORE POP POP POP DUP1 DUP1 PUSH1 0x1 ADD SWAP2 POP POP PUSH2 0xEBF JUMP JUMPDEST POP POP DUP1 DUP1 PUSH1 0x1 ADD SWAP2 POP POP PUSH2 0xD3D JUMP JUMPDEST POP PUSH32 0x4A4F8803A153CB465C54A6622248067AB9C67841D3001704C4C5F675C017B521 CALLER DUP4 PUSH1 0x40 MLOAD PUSH2 0xF9B SWAP3 SWAP2 SWAP1 PUSH2 0x19D3 JUMP JUMPDEST PUSH1 0x40 MLOAD DUP1 SWAP2 SUB SWAP1 LOG1 POP POP JUMP JUMPDEST PUSH0 DUP1 PUSH1 0x2 DUP2 GT ISZERO PUSH2 0xFBB JUMPI PUSH2 0xFBA PUSH2 0x132B JUMP JUMPDEST JUMPDEST PUSH0 DUP1 SLOAD SWAP1 PUSH2 0x100 EXP SWAP1 DIV PUSH1 0xFF AND PUSH1 0x2 DUP2 GT ISZERO PUSH2 0xFDA JUMPI PUSH2 0xFD9 PUSH2 0x132B JUMP JUMPDEST JUMPDEST SUB PUSH2 0x1047 JUMPI TIMESTAMP PUSH32 0x0 PUSH2 0x100B SWAP2 SWAP1 PUSH2 0x19FA JUMP JUMPDEST PUSH1 0x40 MLOAD PUSH32 0x2D166FA500000000000000000000000000000000000000000000000000000000 DUP2 MSTORE PUSH1 0x4 ADD PUSH2 0x103E SWAP2 SWAP1 PUSH2 0x13CF JUMP JUMPDEST PUSH1 0x40 MLOAD DUP1 SWAP2 SUB SWAP1 REVERT JUMPDEST PUSH1 0x5 PUSH0 DUP4 PUSH1 0xFF AND PUSH1 0xFF AND DUP2 MSTORE PUSH1 0x20 ADD SWAP1 DUP2 MSTORE PUSH1 0x20 ADD PUSH0 KECCAK256 PUSH0 SWAP1 SLOAD SWAP1 PUSH2 0x100 EXP SWAP1 DIV PUSH1 0xFF AND SWAP1 POP SWAP2 SWAP1 POP JUMP JUMPDEST PUSH0 DUP1 PUSH0 SWAP1 SLOAD SWAP1 PUSH2 0x100 EXP SWAP1 DIV PUSH1 0xFF AND SWAP1 POP SWAP1 JUMP JUMPDEST PUSH0 PUSH1 0x4 SLOAD SWAP1 POP SWAP1 JUMP JUMPDEST PUSH0 PUSH32 0x0 SWAP1 POP SWAP1 JUMP JUMPDEST PUSH1 0x60 PUSH0 PUSH1 0x2 PUSH0 CALLER PUSH20 0xFFFFFFFFFFFFFFFFFFFFFFFFFFFFFFFFFFFFFFFF AND PUSH20 0xFFFFFFFFFFFFFFFFFFFFFFFFFFFFFFFFFFFFFFFF AND DUP2 MSTORE PUSH1 0x20 ADD SWAP1 DUP2 MSTORE PUSH1 0x20 ADD PUSH0 KECCAK256 DUP1 SLOAD SWAP1 POP SUB PUSH2 0x1131 JUMPI PUSH1 0x40 MLOAD PUSH32 0xC298787700000000000000000000000000000000000000000000000000000000 DUP2 MSTORE PUSH1 0x4 ADD PUSH1 0x40 MLOAD DUP1 SWAP2 SUB SWAP1 REVERT JUMPDEST PUSH1 0x2 PUSH0 CALLER PUSH20 0xFFFFFFFFFFFFFFFFFFFFFFFFFFFFFFFFFFFFFFFF AND PUSH20 0xFFFFFFFFFFFFFFFFFFFFFFFFFFFFFFFFFFFFFFFF AND DUP2 MSTORE PUSH1 0x20 ADD SWAP1 DUP2 MSTORE PUSH1 0x20 ADD PUSH0 KECCAK256 DUP1 SLOAD DUP1 PUSH1 0x20 MUL PUSH1 0x20 ADD PUSH1 0x40 MLOAD SWAP1 DUP2 ADD PUSH1 0x40 MSTORE DUP1 SWAP3 SWAP2 SWAP1 DUP2 DUP2 MSTORE PUSH1 0x20 ADD PUSH0 SWAP1 JUMPDEST DUP3 DUP3 LT ISZERO PUSH2 0x1259 JUMPI DUP4 DUP3 SWAP1 PUSH0 MSTORE PUSH1 0x20 PUSH0 KECCAK256 SWAP1 PUSH1 0x3 MUL ADD PUSH1 0x40 MLOAD DUP1 PUSH1 0x20 ADD PUSH1 0x40 MSTORE SWAP1 DUP2 PUSH0 DUP3 ADD PUSH1 0x3 DUP1 PUSH1 0x20 MUL PUSH1 0x40 MLOAD SWAP1 DUP2 ADD PUSH1 0x40 MSTORE DUP1 SWAP3 SWAP2 SWAP1 PUSH0 SWAP1 JUMPDEST DUP3 DUP3 LT ISZERO PUSH2 0x1242 JUMPI DUP4 DUP3 ADD PUSH1 0x5 DUP1 PUSH1 0x20 MUL PUSH1 0x40 MLOAD SWAP1 DUP2 ADD PUSH1 0x40 MSTORE DUP1 SWAP3 SWAP2 SWAP1 DUP3 PUSH1 0x5 DUP1 ISZERO PUSH2 0x122E JUMPI PUSH1 0x20 MUL DUP3 ADD SWAP2 PUSH0 SWAP1 JUMPDEST DUP3 DUP3 SWAP1 SLOAD SWAP1 PUSH2 0x100 EXP SWAP1 DIV PUSH1 0xFF AND PUSH1 0xFF AND DUP2 MSTORE PUSH1 0x20 ADD SWAP1 PUSH1 0x1 ADD SWAP1 PUSH1 0x20 DUP3 PUSH0 ADD DIV SWAP3 DUP4 ADD SWAP3 PUSH1 0x1 SUB DUP3 MUL SWAP2 POP DUP1 DUP5 GT PUSH2 0x11F8 JUMPI SWAP1 POP JUMPDEST POP POP POP POP POP DUP2 MSTORE PUSH1 0x20 ADD SWAP1 PUSH1 0x1 ADD SWAP1 PUSH2 0x11C8 JUMP JUMPDEST POP POP POP POP DUP2 MSTORE POP POP DUP2 MSTORE PUSH1 0x20 ADD SWAP1 PUSH1 0x1 ADD SWAP1 PUSH2 0x118D JUMP JUMPDEST POP POP POP POP SWAP1 POP SWAP1 JUMP JUMPDEST PUSH0 PUSH1 0x3 SLOAD SWAP1 POP SWAP1 JUMP JUMPDEST PUSH0 PUSH1 0xFF DUP3 AND SWAP1 POP SWAP2 SWAP1 POP JUMP JUMPDEST PUSH2 0x1280 DUP2 PUSH2 0x126B JUMP JUMPDEST DUP3 MSTORE POP POP JUMP JUMPDEST PUSH0 PUSH1 0x20 DUP3 ADD SWAP1 POP PUSH2 0x1299 PUSH0 DUP4 ADD DUP5 PUSH2 0x1277 JUMP JUMPDEST SWAP3 SWAP2 POP POP JUMP JUMPDEST PUSH0 DUP1 REVERT JUMPDEST PUSH2 0x12AC DUP2 PUSH2 0x126B JUMP JUMPDEST DUP2 EQ PUSH2 0x12B6 JUMPI PUSH0 DUP1 REVERT JUMPDEST POP JUMP JUMPDEST PUSH0 DUP2 CALLDATALOAD SWAP1 POP PUSH2 0x12C7 DUP2 PUSH2 0x12A3 JUMP JUMPDEST SWAP3 SWAP2 POP POP JUMP JUMPDEST PUSH0 PUSH1 0x20 DUP3 DUP5 SUB SLT ISZERO PUSH2 0x12E2 JUMPI PUSH2 0x12E1 PUSH2 0x129F JUMP JUMPDEST JUMPDEST PUSH0 PUSH2 0x12EF DUP5 DUP3 DUP6 ADD PUSH2 0x12B9 JUMP JUMPDEST SWAP2 POP POP SWAP3 SWAP2 POP POP JUMP JUMPDEST PUSH0 DUP2 ISZERO ISZERO SWAP1 POP SWAP2 SWAP1 POP JUMP JUMPDEST PUSH2 0x130C DUP2 PUSH2 0x12F8 JUMP JUMPDEST DUP3 MSTORE POP POP JUMP JUMPDEST PUSH0 PUSH1 0x20 DUP3 ADD SWAP1 POP PUSH2 0x1325 PUSH0 DUP4 ADD DUP5 PUSH2 0x1303 JUMP JUMPDEST SWAP3 SWAP2 POP POP JUMP JUMPDEST PUSH32 0x4E487B7100000000000000000000000000000000000000000000000000000000 PUSH0 MSTORE PUSH1 0x21 PUSH1 0x4 MSTORE PUSH1 0x24 PUSH0 REVERT JUMPDEST PUSH1 0x3 DUP2 LT PUSH2 0x1369 JUMPI PUSH2 0x1368 PUSH2 0x132B JUMP JUMPDEST JUMPDEST POP JUMP JUMPDEST PUSH0 DUP2 SWAP1 POP PUSH2 0x1379 DUP3 PUSH2 0x1358 JUMP JUMPDEST SWAP2 SWAP1 POP JUMP JUMPDEST PUSH0 PUSH2 0x1388 DUP3 PUSH2 0x136C JUMP JUMPDEST SWAP1 POP SWAP2 SWAP1 POP JUMP JUMPDEST PUSH2 0x1398 DUP2 PUSH2 0x137E JUMP JUMPDEST DUP3 MSTORE POP POP JUMP JUMPDEST PUSH0 PUSH1 0x20 DUP3 ADD SWAP1 POP PUSH2 0x13B1 PUSH0 DUP4 ADD DUP5 PUSH2 0x138F JUMP JUMPDEST SWAP3 SWAP2 POP POP JUMP JUMPDEST PUSH0 DUP2 SWAP1 POP SWAP2 SWAP1 POP JUMP JUMPDEST PUSH2 0x13C9 DUP2 PUSH2 0x13B7 JUMP JUMPDEST DUP3 MSTORE POP POP JUMP JUMPDEST PUSH0 PUSH1 0x20 DUP3 ADD SWAP1 POP PUSH2 0x13E2 PUSH0 DUP4 ADD DUP5 PUSH2 0x13C0 JUMP JUMPDEST SWAP3 SWAP2 POP POP JUMP JUMPDEST PUSH0 DUP2 MLOAD SWAP1 POP SWAP2 SWAP1 POP JUMP JUMPDEST PUSH0 DUP3 DUP3 MSTORE PUSH1 0x20 DUP3 ADD SWAP1 POP SWAP3 SWAP2 POP POP JUMP JUMPDEST PUSH0 DUP2 SWAP1 POP PUSH1 0x20 DUP3 ADD SWAP1 POP SWAP2 SWAP1 POP JUMP JUMPDEST PUSH0 PUSH1 0x3 SWAP1 POP SWAP2 SWAP1 POP JUMP JUMPDEST PUSH0 DUP2 SWAP1 POP SWAP3 SWAP2 POP POP JUMP JUMPDEST PUSH0 DUP2 SWAP1 POP SWAP2 SWAP1 POP JUMP JUMPDEST PUSH0 PUSH1 0x5 SWAP1 POP SWAP2 SWAP1 POP JUMP JUMPDEST PUSH0 DUP2 SWAP1 POP SWAP3 SWAP2 POP POP JUMP JUMPDEST PUSH0 DUP2 SWAP1 POP SWAP2 SWAP1 POP JUMP JUMPDEST PUSH2 0x1454 DUP2 PUSH2 0x126B JUMP JUMPDEST DUP3 MSTORE POP POP JUMP JUMPDEST PUSH0 PUSH2 0x1465 DUP4 DUP4 PUSH2 0x144B JUMP JUMPDEST PUSH1 0x20 DUP4 ADD SWAP1 POP SWAP3 SWAP2 POP POP JUMP JUMPDEST PUSH0 PUSH1 0x20 DUP3 ADD SWAP1 POP SWAP2 SWAP1 POP JUMP JUMPDEST PUSH2 0x1486 DUP2 PUSH2 0x142E JUMP JUMPDEST PUSH2 0x1490 DUP2 DUP5 PUSH2 0x1438 JUMP JUMPDEST SWAP3 POP PUSH2 0x149B DUP3 PUSH2 0x1442 JUMP JUMPDEST DUP1 PUSH0 JUMPDEST DUP4 DUP2 LT ISZERO PUSH2 0x14CB JUMPI DUP2 MLOAD PUSH2 0x14B2 DUP8 DUP3 PUSH2 0x145A JUMP JUMPDEST SWAP7 POP PUSH2 0x14BD DUP4 PUSH2 0x1471 JUMP JUMPDEST SWAP3 POP POP PUSH1 0x1 DUP2 ADD SWAP1 POP PUSH2 0x149E JUMP JUMPDEST POP POP POP POP POP POP JUMP JUMPDEST PUSH0 PUSH2 0x14DE DUP4 DUP4 PUSH2 0x147D JUMP JUMPDEST PUSH1 0xA0 DUP4 ADD SWAP1 POP SWAP3 SWAP2 POP POP JUMP JUMPDEST PUSH0 PUSH1 0x20 DUP3 ADD SWAP1 POP SWAP2 SWAP1 POP JUMP JUMPDEST PUSH2 0x14FF DUP2 PUSH2 0x1411 JUMP JUMPDEST PUSH2 0x1509 DUP2 DUP5 PUSH2 0x141B JUMP JUMPDEST SWAP3 POP PUSH2 0x1514 DUP3 PUSH2 0x1425 JUMP JUMPDEST DUP1 PUSH0 JUMPDEST DUP4 DUP2 LT ISZERO PUSH2 0x1544 JUMPI DUP2 MLOAD PUSH2 0x152B DUP8 DUP3 PUSH2 0x14D3 JUMP JUMPDEST SWAP7 POP PUSH2 0x1536 DUP4 PUSH2 0x14EA JUMP JUMPDEST SWAP3 POP POP PUSH1 0x1 DUP2 ADD SWAP1 POP PUSH2 0x1517 JUMP JUMPDEST POP POP POP POP POP POP JUMP JUMPDEST PUSH2 0x1E0 DUP3 ADD PUSH0 DUP3 ADD MLOAD PUSH2 0x1561 PUSH0 DUP6 ADD DUP3 PUSH2 0x14F6 JUMP JUMPDEST POP POP POP POP JUMP JUMPDEST PUSH0 PUSH2 0x1572 DUP4 DUP4 PUSH2 0x154C JUMP JUMPDEST PUSH2 0x1E0 DUP4 ADD SWAP1 POP SWAP3 SWAP2 POP POP JUMP JUMPDEST PUSH0 PUSH1 0x20 DUP3 ADD SWAP1 POP SWAP2 SWAP1 POP JUMP JUMPDEST PUSH0 PUSH2 0x1595 DUP3 PUSH2 0x13E8 JUMP JUMPDEST PUSH2 0x159F DUP2 DUP6 PUSH2 0x13F2 JUMP JUMPDEST SWAP4 POP PUSH2 0x15AA DUP4 PUSH2 0x1402 JUMP JUMPDEST DUP1 PUSH0 JUMPDEST DUP4 DUP2 LT ISZERO PUSH2 0x15DA JUMPI DUP2 MLOAD PUSH2 0x15C1 DUP9 DUP3 PUSH2 0x1567 JUMP JUMPDEST SWAP8 POP PUSH2 0x15CC DUP4 PUSH2 0x157F JUMP JUMPDEST SWAP3 POP POP PUSH1 0x1 DUP2 ADD SWAP1 POP PUSH2 0x15AD JUMP JUMPDEST POP DUP6 SWAP4 POP POP POP POP SWAP3 SWAP2 POP POP JUMP JUMPDEST PUSH0 PUSH1 0x20 DUP3 ADD SWAP1 POP DUP2 DUP2 SUB PUSH0 DUP4 ADD MSTORE PUSH2 0x15FF DUP2 DUP5 PUSH2 0x158B JUMP JUMPDEST SWAP1 POP SWAP3 SWAP2 POP POP JUMP JUMPDEST PUSH0 DUP3 DUP3 MSTORE PUSH1 0x20 DUP3 ADD SWAP1 POP SWAP3 SWAP2 POP POP JUMP JUMPDEST PUSH32 0x4E6F742065787472616374696F6E207068617365000000000000000000000000 PUSH0 DUP3 ADD MSTORE POP JUMP JUMPDEST PUSH0 PUSH2 0x164B PUSH1 0x14 DUP4 PUSH2 0x1607 JUMP JUMPDEST SWAP2 POP PUSH2 0x1656 DUP3 PUSH2 0x1617 JUMP JUMPDEST PUSH1 0x20 DUP3 ADD SWAP1 POP SWAP2 SWAP1 POP JUMP JUMPDEST PUSH0 PUSH1 0x20 DUP3 ADD SWAP1 POP DUP2 DUP2 SUB PUSH0 DUP4 ADD MSTORE PUSH2 0x1678 DUP2 PUSH2 0x163F JUMP JUMPDEST SWAP1 POP SWAP2 SWAP1 POP JUMP JUMPDEST PUSH32 0x4E487B7100000000000000000000000000000000000000000000000000000000 PUSH0 MSTORE PUSH1 0x11 PUSH1 0x4 MSTORE PUSH1 0x24 PUSH0 REVERT JUMPDEST PUSH0 PUSH2 0x16B6 DUP3 PUSH2 0x13B7 JUMP JUMPDEST SWAP2 POP PUSH32 0xFFFFFFFFFFFFFFFFFFFFFFFFFFFFFFFFFFFFFFFFFFFFFFFFFFFFFFFFFFFFFFFF DUP3 SUB PUSH2 0x16E8 JUMPI PUSH2 0x16E7 PUSH2 0x167F JUMP JUMPDEST JUMPDEST PUSH1 0x1 DUP3 ADD SWAP1 POP SWAP2 SWAP1 POP JUMP JUMPDEST PUSH0 DUP2 SWAP1 POP SWAP2 SWAP1 POP JUMP JUMPDEST PUSH2 0x170D PUSH2 0x1708 DUP3 PUSH2 0x13B7 JUMP JUMPDEST PUSH2 0x16F3 JUMP JUMPDEST DUP3 MSTORE POP POP JUMP JUMPDEST PUSH0 PUSH2 0x171E DUP3 DUP7 PUSH2 0x16FC JUMP JUMPDEST PUSH1 0x20 DUP3 ADD SWAP2 POP PUSH2 0x172E DUP3 DUP6 PUSH2 0x16FC JUMP JUMPDEST PUSH1 0x20 DUP3 ADD SWAP2 POP PUSH2 0x173E DUP3 DUP5 PUSH2 0x16FC JUMP JUMPDEST PUSH1 0x20 DUP3 ADD SWAP2 POP DUP2 SWAP1 POP SWAP5 SWAP4 POP POP POP POP JUMP JUMPDEST PUSH32 0x4E487B7100000000000000000000000000000000000000000000000000000000 PUSH0 MSTORE PUSH1 0x12 PUSH1 0x4 MSTORE PUSH1 0x24 PUSH0 REVERT JUMPDEST PUSH0 PUSH2 0x1786 DUP3 PUSH2 0x13B7 JUMP JUMPDEST SWAP2 POP PUSH2 0x1791 DUP4 PUSH2 0x13B7 JUMP JUMPDEST SWAP3 POP DUP3 PUSH2 0x17A1 JUMPI PUSH2 0x17A0 PUSH2 0x174F JUMP JUMPDEST JUMPDEST DUP3 DUP3 MOD SWAP1 POP SWAP3 SWAP2 POP POP JUMP JUMPDEST PUSH32 0x4E487B7100000000000000000000000000000000000000000000000000000000 PUSH0 MSTORE PUSH1 0x32 PUSH1 0x4 MSTORE PUSH1 0x24 PUSH0 REVERT JUMPDEST PUSH32 0x4E487B7100000000000000000000000000000000000000000000000000000000 PUSH0 MSTORE PUSH1 0x41 PUSH1 0x4 MSTORE PUSH1 0x24 PUSH0 REVERT JUMPDEST PUSH0 PUSH2 0x1810 DUP3 PUSH2 0x126B JUMP JUMPDEST SWAP2 POP PUSH1 0xFF DUP3 SUB PUSH2 0x1823 JUMPI PUSH2 0x1822 PUSH2 0x167F JUMP JUMPDEST JUMPDEST PUSH1 0x1 DUP3 ADD SWAP1 POP SWAP2 SWAP1 POP JUMP JUMPDEST PUSH0 PUSH1 0x40 DUP3 ADD SWAP1 POP PUSH2 0x1841 PUSH0 DUP4 ADD DUP6 PUSH2 0x1277 JUMP JUMPDEST PUSH2 0x184E PUSH1 0x20 DUP4 ADD DUP5 PUSH2 0x13C0 JUMP JUMPDEST SWAP4 SWAP3 POP POP POP JUMP JUMPDEST PUSH0 PUSH2 0x185F DUP3 PUSH2 0x13B7 JUMP JUMPDEST SWAP2 POP PUSH2 0x186A DUP4 PUSH2 0x13B7 JUMP JUMPDEST SWAP3 POP DUP3 PUSH2 0x187A JUMPI PUSH2 0x1879 PUSH2 0x174F JUMP JUMPDEST JUMPDEST DUP3 DUP3 DIV SWAP1 POP SWAP3 SWAP2 POP POP JUMP JUMPDEST PUSH0 PUSH2 0x188F DUP3 PUSH2 0x13B7 JUMP JUMPDEST SWAP2 POP PUSH2 0x189A DUP4 PUSH2 0x13B7 JUMP JUMPDEST SWAP3 POP DUP3 DUP3 MUL PUSH2 0x18A8 DUP2 PUSH2 0x13B7 JUMP JUMPDEST SWAP2 POP DUP3 DUP3 DIV DUP5 EQ DUP4 ISZERO OR PUSH2 0x18BF JUMPI PUSH2 0x18BE PUSH2 0x167F JUMP JUMPDEST JUMPDEST POP SWAP3 SWAP2 POP POP JUMP JUMPDEST PUSH0 PUSH1 0x40 DUP3 ADD SWAP1 POP PUSH2 0x18D9 PUSH0 DUP4 ADD DUP6 PUSH2 0x13C0 JUMP JUMPDEST PUSH2 0x18E6 PUSH1 0x20 DUP4 ADD DUP5 PUSH2 0x13C0 JUMP JUMPDEST SWAP4 SWAP3 POP POP POP JUMP JUMPDEST PUSH0 PUSH20 0xFFFFFFFFFFFFFFFFFFFFFFFFFFFFFFFFFFFFFFFF DUP3 AND SWAP1 POP SWAP2 SWAP1 POP JUMP JUMPDEST PUSH0 PUSH2 0x1916 DUP3 PUSH2 0x18ED JUMP JUMPDEST SWAP1 POP SWAP2 SWAP1 POP JUMP JUMPDEST PUSH2 0x1926 DUP2 PUSH2 0x190C JUMP JUMPDEST DUP3 MSTORE POP POP JUMP JUMPDEST PUSH0 PUSH1 0x40 DUP3 ADD SWAP1 POP PUSH2 0x193F PUSH0 DUP4 ADD DUP6 PUSH2 0x13C0 JUMP JUMPDEST PUSH2 0x194C PUSH1 0x20 DUP4 ADD DUP5 PUSH2 0x191D JUMP JUMPDEST SWAP4 SWAP3 POP POP POP JUMP JUMPDEST PUSH0 PUSH2 0x195D DUP3 PUSH2 0x13B7 JUMP JUMPDEST SWAP2 POP PUSH2 0x1968 DUP4 PUSH2 0x13B7 JUMP JUMPDEST SWAP3 POP DUP3 DUP3 ADD SWAP1 POP DUP1 DUP3 GT ISZERO PUSH2 0x1980 JUMPI PUSH2 0x197F PUSH2 0x167F JUMP JUMPDEST JUMPDEST SWAP3 SWAP2 POP POP JUMP JUMPDEST PUSH0 PUSH2 0x1991 DUP3 DUP8 PUSH2 0x16FC JUMP JUMPDEST PUSH1 0x20 DUP3 ADD SWAP2 POP PUSH2 0x19A1 DUP3 DUP7 PUSH2 0x16FC JUMP JUMPDEST PUSH1 0x20 DUP3 ADD SWAP2 POP PUSH2 0x19B1 DUP3 DUP6 PUSH2 0x16FC JUMP JUMPDEST PUSH1 0x20 DUP3 ADD SWAP2 POP PUSH2 0x19C1 DUP3 DUP5 PUSH2 0x16FC JUMP JUMPDEST PUSH1 0x20 DUP3 ADD SWAP2 POP DUP2 SWAP1 POP SWAP6 SWAP5 POP POP POP POP POP JUMP JUMPDEST PUSH0 PUSH1 0x40 DUP3 ADD SWAP1 POP PUSH2 0x19E6 PUSH0 DUP4 ADD DUP6 PUSH2 0x191D JUMP JUMPDEST PUSH2 0x19F3 PUSH1 0x20 DUP4 ADD DUP5 PUSH2 0x13C0 JUMP JUMPDEST SWAP4 SWAP3 POP POP POP JUMP JUMPDEST PUSH0 PUSH2 0x1A04 DUP3 PUSH2 0x13B7 JUMP JUMPDEST SWAP2 POP PUSH2 0x1A0F DUP4 PUSH2 0x13B7 JUMP JUMPDEST SWAP3 POP DUP3 DUP3 SUB SWAP1 POP DUP2 DUP2 GT ISZERO PUSH2 0x1A27 JUMPI PUSH2 0x1A26 PUSH2 0x167F JUMP JUMPDEST JUMPDEST SWAP3 SWAP2 POP POP JUMP INVALID LOG2 PUSH5 0x6970667358 0x22 SLT KECCAK256 ORIGIN 0x2C PUSH23 0x35C62A8F802A9F7C4049A009FEAA89E35D49092DC324D 0x27 PUSH16 0xCD68671764736F6C634300081A003300 "
		},
		"gasEstimates": {
			"creation": {
				"codeDepositCost": "1351000",
				"executionCost": "infinite",
				"totalCost": "infinite"
			},
			"external": {
				"buyCards()": "infinite",
				"extractNextNumber()": "infinite",
				"getCardCost()": "infinite",
				"getGameState()": "2628",
				"getMyCards()": "infinite",
				"getNumberOfCards()": "2432",
				"getNumberOfPlayers()": "2498",
				"isItExtracted(uint8)": "infinite"
			}
		},
		"methodIdentifiers": {
			"buyCards()": "21870eec",
			"extractNextNumber()": "10978262",
			"getCardCost()": "d66a0ffc",
			"getGameState()": "b7d0628b",
			"getMyCards()": "ed92c4bb",
			"getNumberOfCards()": "c487282c",
			"getNumberOfPlayers()": "fd6673f5",
			"isItExtracted(uint8)": "873b604e"
		}
	},
	"abi": [
		{
			"inputs": [
				{
					"internalType": "uint256",
					"name": "bookingPeriodInHours",
					"type": "uint256"
				},
				{
					"internalType": "uint256",
					"name": "cardUnitCost",
					"type": "uint256"
				}
			],
			"stateMutability": "nonpayable",
			"type": "constructor"
		},
		{
			"inputs": [],
			"name": "BookingPeriodAlreadyExpired",
			"type": "error"
		},
		{
			"inputs": [],
			"name": "EnquirerIsNotAGamer",
			"type": "error"
		},
		{
			"inputs": [
				{
					"internalType": "uint256",
					"name": "secondsToGo",
					"type": "uint256"
				}
			],
			"name": "ExtractionPhaseNotYetStarted",
			"type": "error"
		},
		{
			"inputs": [],
			"name": "GameAlreadyEnded",
			"type": "error"
		},
		{
			"inputs": [
				{
					"internalType": "uint256",
					"name": "providedFunds",
					"type": "uint256"
				},
				{
					"internalType": "uint256",
					"name": "cardCost",
					"type": "uint256"
				}
			],
			"name": "InsufficientFundsToBuyEvenACard",
			"type": "error"
		},
		{
			"anonymous": false,
			"inputs": [
				{
					"indexed": false,
					"internalType": "uint256",
					"name": "prizeAmount",
					"type": "uint256"
				},
				{
					"indexed": false,
					"internalType": "uint256",
					"name": "numberOfWinners",
					"type": "uint256"
				}
			],
			"name": "BingoHasBeenWon",
			"type": "event"
		},
		{
			"anonymous": false,
			"inputs": [
				{
					"indexed": false,
					"internalType": "uint256",
					"name": "prizeAmount",
					"type": "uint256"
				},
				{
					"indexed": false,
					"internalType": "uint256",
					"name": "numberOfWinners",
					"type": "uint256"
				}
			],
			"name": "FiveInARowHasBeenWon",
			"type": "event"
		},
		{
			"anonymous": false,
			"inputs": [
				{
					"indexed": false,
					"internalType": "uint8",
					"name": "number",
					"type": "uint8"
				},
				{
					"indexed": false,
					"internalType": "uint256",
					"name": "matchingCards",
					"type": "uint256"
				}
			],
			"name": "NumberExtraction",
			"type": "event"
		},
		{
			"anonymous": false,
			"inputs": [
				{
					"indexed": false,
					"internalType": "uint256",
					"name": "prizeAmount",
					"type": "uint256"
				},
				{
					"indexed": false,
					"internalType": "address",
					"name": "winner",
					"type": "address"
				}
			],
			"name": "PrizePayed",
			"type": "event"
		},
		{
			"anonymous": false,
			"inputs": [
				{
					"indexed": false,
					"internalType": "address",
					"name": "buyer",
					"type": "address"
				},
				{
					"indexed": false,
					"internalType": "uint256",
					"name": "numberOfCards",
					"type": "uint256"
				}
			],
			"name": "PurchaseOfCards",
			"type": "event"
		},
		{
			"inputs": [],
			"name": "buyCards",
			"outputs": [],
			"stateMutability": "payable",
			"type": "function"
		},
		{
			"inputs": [],
			"name": "extractNextNumber",
			"outputs": [
				{
					"internalType": "uint8",
					"name": "number",
					"type": "uint8"
				}
			],
			"stateMutability": "nonpayable",
			"type": "function"
		},
		{
			"inputs": [],
			"name": "getCardCost",
			"outputs": [
				{
					"internalType": "uint256",
					"name": "cost",
					"type": "uint256"
				}
			],
			"stateMutability": "view",
			"type": "function"
		},
		{
			"inputs": [],
			"name": "getGameState",
			"outputs": [
				{
					"internalType": "enum BingoGameSpecs.GameState",
					"name": "state",
					"type": "uint8"
				}
			],
			"stateMutability": "view",
			"type": "function"
		},
		{
			"inputs": [],
			"name": "getMyCards",
			"outputs": [
				{
					"components": [
						{
							"internalType": "uint8[5][3]",
							"name": "cells",
							"type": "uint8[5][3]"
						}
					],
					"internalType": "struct BingoGameSpecs.Card[]",
					"name": "myCards",
					"type": "tuple[]"
				}
			],
			"stateMutability": "view",
			"type": "function"
		},
		{
			"inputs": [],
			"name": "getNumberOfCards",
			"outputs": [
				{
					"internalType": "uint256",
					"name": "cardsNumber",
					"type": "uint256"
				}
			],
			"stateMutability": "view",
			"type": "function"
		},
		{
			"inputs": [],
			"name": "getNumberOfPlayers",
			"outputs": [
				{
					"internalType": "uint256",
					"name": "playersNumber",
					"type": "uint256"
				}
			],
			"stateMutability": "view",
			"type": "function"
		},
		{
			"inputs": [
				{
					"internalType": "uint8",
					"name": "number",
					"type": "uint8"
				}
			],
			"name": "isItExtracted",
			"outputs": [
				{
					"internalType": "bool",
					"name": "",
					"type": "bool"
				}
			],
			"stateMutability": "view",
			"type": "function"
		}
	]
}