{
	"contracts/exam-2021-07-12/exam-2021-07-12.sol": {
		"CorporateManagement": {
			"abi": [
				{
					"inputs": [
						{
							"internalType": "uint256",
							"name": "minimumAssociatingShare",
							"type": "uint256"
						}
					],
					"stateMutability": "payable",
					"type": "constructor"
				},
				{
					"anonymous": false,
					"inputs": [
						{
							"indexed": false,
							"internalType": "address",
							"name": "id",
							"type": "address"
						}
					],
					"name": "AcceptedAssociate",
					"type": "event"
				},
				{
					"anonymous": false,
					"inputs": [],
					"name": "AcceptedCorporateDissolution",
					"type": "event"
				},
				{
					"anonymous": false,
					"inputs": [
						{
							"indexed": false,
							"internalType": "string",
							"name": "description",
							"type": "string"
						}
					],
					"name": "AcceptedGenericProposal",
					"type": "event"
				},
				{
					"anonymous": false,
					"inputs": [
						{
							"indexed": false,
							"internalType": "uint256",
							"name": "proposalId",
							"type": "uint256"
						},
						{
							"indexed": false,
							"internalType": "address",
							"name": "id",
							"type": "address"
						}
					],
					"name": "NewAssociateCandidate",
					"type": "event"
				},
				{
					"anonymous": false,
					"inputs": [
						{
							"indexed": false,
							"internalType": "uint256",
							"name": "proposalId",
							"type": "uint256"
						}
					],
					"name": "NewDissolutionProposal",
					"type": "event"
				},
				{
					"anonymous": false,
					"inputs": [
						{
							"indexed": false,
							"internalType": "uint256",
							"name": "proposalId",
							"type": "uint256"
						},
						{
							"indexed": false,
							"internalType": "string",
							"name": "description",
							"type": "string"
						}
					],
					"name": "NewGenericProposal",
					"type": "event"
				},
				{
					"inputs": [],
					"name": "depositDissolutionProposal",
					"outputs": [],
					"stateMutability": "nonpayable",
					"type": "function"
				},
				{
					"inputs": [],
					"name": "depositFunds",
					"outputs": [],
					"stateMutability": "payable",
					"type": "function"
				},
				{
					"inputs": [
						{
							"internalType": "string",
							"name": "description",
							"type": "string"
						}
					],
					"name": "depositGenericProposal",
					"outputs": [],
					"stateMutability": "nonpayable",
					"type": "function"
				},
				{
					"inputs": [
						{
							"internalType": "address",
							"name": "",
							"type": "address"
						}
					],
					"name": "isAssociated",
					"outputs": [
						{
							"internalType": "bool",
							"name": "",
							"type": "bool"
						}
					],
					"stateMutability": "view",
					"type": "function"
				},
				{
					"inputs": [
						{
							"internalType": "address",
							"name": "",
							"type": "address"
						}
					],
					"name": "isCandidated",
					"outputs": [
						{
							"internalType": "bool",
							"name": "",
							"type": "bool"
						}
					],
					"stateMutability": "view",
					"type": "function"
				},
				{
					"inputs": [],
					"name": "isDissoluted",
					"outputs": [
						{
							"internalType": "bool",
							"name": "",
							"type": "bool"
						}
					],
					"stateMutability": "view",
					"type": "function"
				},
				{
					"inputs": [],
					"name": "requestShareRefunding",
					"outputs": [],
					"stateMutability": "nonpayable",
					"type": "function"
				},
				{
					"inputs": [],
					"name": "totalShares",
					"outputs": [
						{
							"internalType": "uint256",
							"name": "",
							"type": "uint256"
						}
					],
					"stateMutability": "view",
					"type": "function"
				},
				{
					"inputs": [
						{
							"internalType": "uint256",
							"name": "proposalId",
							"type": "uint256"
						}
					],
					"name": "voteProposal",
					"outputs": [],
					"stateMutability": "nonpayable",
					"type": "function"
				}
			],
			"devdoc": {
				"kind": "dev",
				"methods": {},
				"version": 1
			},
			"evm": {
				"assembly": "    /* \"contracts/exam-2021-07-12/exam-2021-07-12.sol\":104:6173  contract CorporateManagement is CorporateManagementSpecs {... */\n  mstore(0x40, 0xc0)\n    /* \"contracts/exam-2021-07-12/exam-2021-07-12.sol\":798:1090  constructor(uint minimumAssociatingShare) payable {... */\n  mload(0x40)\n  sub(codesize, bytecodeSize)\n  dup1\n  bytecodeSize\n  dup4\n  codecopy\n  dup2\n  dup2\n  add\n  0x40\n  mstore\n  dup2\n  add\n  swap1\n  tag_1\n  swap2\n  swap1\n  tag_2\n  jump\t// in\ntag_1:\n    /* \"contracts/exam-2021-07-12/exam-2021-07-12.sol\":869:879  msg.sender */\n  caller\n    /* \"contracts/exam-2021-07-12/exam-2021-07-12.sol\":859:879  founder = msg.sender */\n  0xffffffffffffffffffffffffffffffffffffffff\n  and\n  0x80\n  dup2\n  0xffffffffffffffffffffffffffffffffffffffff\n  and\n  dup2\n  mstore\n  pop\n  pop\n    /* \"contracts/exam-2021-07-12/exam-2021-07-12.sol\":901:924  minimumAssociatingShare */\n  dup1\n    /* \"contracts/exam-2021-07-12/exam-2021-07-12.sol\":890:924  minShare = minimumAssociatingShare */\n  0xa0\n  dup2\n  dup2\n  mstore\n  pop\n  pop\n    /* \"contracts/exam-2021-07-12/exam-2021-07-12.sol\":962:966  true */\n  0x01\n    /* \"contracts/exam-2021-07-12/exam-2021-07-12.sol\":935:947  isAssociated */\n  0x00\n    /* \"contracts/exam-2021-07-12/exam-2021-07-12.sol\":935:959  isAssociated[msg.sender] */\n  dup1\n    /* \"contracts/exam-2021-07-12/exam-2021-07-12.sol\":948:958  msg.sender */\n  caller\n    /* \"contracts/exam-2021-07-12/exam-2021-07-12.sol\":935:959  isAssociated[msg.sender] */\n  0xffffffffffffffffffffffffffffffffffffffff\n  and\n  0xffffffffffffffffffffffffffffffffffffffff\n  and\n  dup2\n  mstore\n  0x20\n  add\n  swap1\n  dup2\n  mstore\n  0x20\n  add\n  0x00\n  keccak256\n  0x00\n    /* \"contracts/exam-2021-07-12/exam-2021-07-12.sol\":935:966  isAssociated[msg.sender] = true */\n  0x0100\n  exp\n  dup2\n  sload\n  dup2\n  0xff\n  mul\n  not\n  and\n  swap1\n  dup4\n  iszero\n  iszero\n  mul\n  or\n  swap1\n  sstore\n  pop\n    /* \"contracts/exam-2021-07-12/exam-2021-07-12.sol\":1008:1017  msg.value */\n  callvalue\n    /* \"contracts/exam-2021-07-12/exam-2021-07-12.sol\":977:993  associatesShares */\n  0x01\n    /* \"contracts/exam-2021-07-12/exam-2021-07-12.sol\":977:1005  associatesShares[msg.sender] */\n  0x00\n    /* \"contracts/exam-2021-07-12/exam-2021-07-12.sol\":994:1004  msg.sender */\n  caller\n    /* \"contracts/exam-2021-07-12/exam-2021-07-12.sol\":977:1005  associatesShares[msg.sender] */\n  0xffffffffffffffffffffffffffffffffffffffff\n  and\n  0xffffffffffffffffffffffffffffffffffffffff\n  and\n  dup2\n  mstore\n  0x20\n  add\n  swap1\n  dup2\n  mstore\n  0x20\n  add\n  0x00\n  keccak256\n    /* \"contracts/exam-2021-07-12/exam-2021-07-12.sol\":977:1017  associatesShares[msg.sender] = msg.value */\n  dup2\n  swap1\n  sstore\n  pop\n    /* \"contracts/exam-2021-07-12/exam-2021-07-12.sol\":1042:1051  msg.value */\n  callvalue\n    /* \"contracts/exam-2021-07-12/exam-2021-07-12.sol\":1028:1039  totalShares */\n  0x02\n    /* \"contracts/exam-2021-07-12/exam-2021-07-12.sol\":1028:1051  totalShares = msg.value */\n  dup2\n  swap1\n  sstore\n  pop\n    /* \"contracts/exam-2021-07-12/exam-2021-07-12.sol\":1077:1082  false */\n  0x00\n    /* \"contracts/exam-2021-07-12/exam-2021-07-12.sol\":1062:1074  isDissoluted */\n  0x07\n  0x00\n    /* \"contracts/exam-2021-07-12/exam-2021-07-12.sol\":1062:1082  isDissoluted = false */\n  0x0100\n  exp\n  dup2\n  sload\n  dup2\n  0xff\n  mul\n  not\n  and\n  swap1\n  dup4\n  iszero\n  iszero\n  mul\n  or\n  swap1\n  sstore\n  pop\n    /* \"contracts/exam-2021-07-12/exam-2021-07-12.sol\":798:1090  constructor(uint minimumAssociatingShare) payable {... */\n  pop\n    /* \"contracts/exam-2021-07-12/exam-2021-07-12.sol\":104:6173  contract CorporateManagement is CorporateManagementSpecs {... */\n  jump(tag_5)\n    /* \"#utility.yul\":88:205   */\ntag_7:\n    /* \"#utility.yul\":197:198   */\n  0x00\n    /* \"#utility.yul\":194:195   */\n  dup1\n    /* \"#utility.yul\":187:199   */\n  revert\n    /* \"#utility.yul\":334:411   */\ntag_9:\n    /* \"#utility.yul\":371:378   */\n  0x00\n    /* \"#utility.yul\":400:405   */\n  dup2\n    /* \"#utility.yul\":389:405   */\n  swap1\n  pop\n    /* \"#utility.yul\":334:411   */\n  swap2\n  swap1\n  pop\n  jump\t// out\n    /* \"#utility.yul\":417:539   */\ntag_10:\n    /* \"#utility.yul\":490:514   */\n  tag_18\n    /* \"#utility.yul\":508:513   */\n  dup2\n    /* \"#utility.yul\":490:514   */\n  tag_9\n  jump\t// in\ntag_18:\n    /* \"#utility.yul\":483:488   */\n  dup2\n    /* \"#utility.yul\":480:515   */\n  eq\n    /* \"#utility.yul\":470:533   */\n  tag_19\n  jumpi\n    /* \"#utility.yul\":529:530   */\n  0x00\n    /* \"#utility.yul\":526:527   */\n  dup1\n    /* \"#utility.yul\":519:531   */\n  revert\n    /* \"#utility.yul\":470:533   */\ntag_19:\n    /* \"#utility.yul\":417:539   */\n  pop\n  jump\t// out\n    /* \"#utility.yul\":545:688   */\ntag_11:\n    /* \"#utility.yul\":602:607   */\n  0x00\n    /* \"#utility.yul\":633:639   */\n  dup2\n    /* \"#utility.yul\":627:640   */\n  mload\n    /* \"#utility.yul\":618:640   */\n  swap1\n  pop\n    /* \"#utility.yul\":649:682   */\n  tag_21\n    /* \"#utility.yul\":676:681   */\n  dup2\n    /* \"#utility.yul\":649:682   */\n  tag_10\n  jump\t// in\ntag_21:\n    /* \"#utility.yul\":545:688   */\n  swap3\n  swap2\n  pop\n  pop\n  jump\t// out\n    /* \"#utility.yul\":694:1045   */\ntag_2:\n    /* \"#utility.yul\":764:770   */\n  0x00\n    /* \"#utility.yul\":813:815   */\n  0x20\n    /* \"#utility.yul\":801:810   */\n  dup3\n    /* \"#utility.yul\":792:799   */\n  dup5\n    /* \"#utility.yul\":788:811   */\n  sub\n    /* \"#utility.yul\":784:816   */\n  slt\n    /* \"#utility.yul\":781:900   */\n  iszero\n  tag_23\n  jumpi\n    /* \"#utility.yul\":819:898   */\n  tag_24\n  tag_7\n  jump\t// in\ntag_24:\n    /* \"#utility.yul\":781:900   */\ntag_23:\n    /* \"#utility.yul\":939:940   */\n  0x00\n    /* \"#utility.yul\":964:1028   */\n  tag_25\n    /* \"#utility.yul\":1020:1027   */\n  dup5\n    /* \"#utility.yul\":1011:1017   */\n  dup3\n    /* \"#utility.yul\":1000:1009   */\n  dup6\n    /* \"#utility.yul\":996:1018   */\n  add\n    /* \"#utility.yul\":964:1028   */\n  tag_11\n  jump\t// in\ntag_25:\n    /* \"#utility.yul\":954:1028   */\n  swap2\n  pop\n    /* \"#utility.yul\":910:1038   */\n  pop\n    /* \"#utility.yul\":694:1045   */\n  swap3\n  swap2\n  pop\n  pop\n  jump\t// out\n    /* \"contracts/exam-2021-07-12/exam-2021-07-12.sol\":104:6173  contract CorporateManagement is CorporateManagementSpecs {... */\ntag_5:\n  mload(0x80)\n  mload(0xa0)\n  codecopy(0x00, dataOffset(sub_0), dataSize(sub_0))\n  0x00\n  assignImmutable(\"0xa3bcf8af6929b66d6da7ee355c48fd1cf926fd090bc75a4dcbf7bd8e365645e3\")\n  0x00\n  assignImmutable(\"0xcc193713febc75d3d9bd2f9ce113f403ff19633f15c8cdbcf79756ae23e77f9a\")\n  return(0x00, dataSize(sub_0))\nstop\n\nsub_0: assembly {\n        /* \"contracts/exam-2021-07-12/exam-2021-07-12.sol\":104:6173  contract CorporateManagement is CorporateManagementSpecs {... */\n      mstore(0x40, 0x80)\n      jumpi(tag_1, lt(calldatasize, 0x04))\n      shr(0xe0, calldataload(0x00))\n      dup1\n      0x3dc15606\n      gt\n      tag_11\n      jumpi\n      dup1\n      0x3dc15606\n      eq\n      tag_6\n      jumpi\n      dup1\n      0x807896d5\n      eq\n      tag_7\n      jumpi\n      dup1\n      0xd55fe582\n      eq\n      tag_8\n      jumpi\n      dup1\n      0xe2c41dbc\n      eq\n      tag_9\n      jumpi\n      dup1\n      0xe3a27f0f\n      eq\n      tag_10\n      jumpi\n      jump(tag_1)\n    tag_11:\n      dup1\n      0x07e5c998\n      eq\n      tag_2\n      jumpi\n      dup1\n      0x2cc84285\n      eq\n      tag_3\n      jumpi\n      dup1\n      0x3a98ef39\n      eq\n      tag_4\n      jumpi\n      dup1\n      0x3c2dfe99\n      eq\n      tag_5\n      jumpi\n    tag_1:\n      0x00\n      dup1\n      revert\n        /* \"contracts/exam-2021-07-12/exam-2021-07-12.sol\":5084:6170  function requestShareRefunding() external {... */\n    tag_2:\n      callvalue\n      dup1\n      iszero\n      tag_12\n      jumpi\n      0x00\n      dup1\n      revert\n    tag_12:\n      pop\n      tag_13\n      tag_14\n      jump\t// in\n    tag_13:\n      stop\n        /* \"contracts/exam-2021-07-12/exam-2021-07-12.sol\":3356:3830  function depositDissolutionProposal() external onlyAssociate onlyActive {... */\n    tag_3:\n      callvalue\n      dup1\n      iszero\n      tag_15\n      jumpi\n      0x00\n      dup1\n      revert\n    tag_15:\n      pop\n      tag_16\n      tag_17\n      jump\t// in\n    tag_16:\n      stop\n        /* \"contracts/exam-2021-07-12/exam-2021-07-12.sol\":560:583  uint public totalShares */\n    tag_4:\n      callvalue\n      dup1\n      iszero\n      tag_18\n      jumpi\n      0x00\n      dup1\n      revert\n    tag_18:\n      pop\n      tag_19\n      tag_20\n      jump\t// in\n    tag_19:\n      mload(0x40)\n      tag_21\n      swap2\n      swap1\n      tag_22\n      jump\t// in\n    tag_21:\n      mload(0x40)\n      dup1\n      swap2\n      sub\n      swap1\n      return\n        /* \"contracts/exam-2021-07-12/exam-2021-07-12.sol\":756:789  bool public override isDissoluted */\n    tag_5:\n      callvalue\n      dup1\n      iszero\n      tag_23\n      jumpi\n      0x00\n      dup1\n      revert\n    tag_23:\n      pop\n      tag_24\n      tag_25\n      jump\t// in\n    tag_24:\n      mload(0x40)\n      tag_26\n      swap2\n      swap1\n      tag_27\n      jump\t// in\n    tag_26:\n      mload(0x40)\n      dup1\n      swap2\n      sub\n      swap1\n      return\n        /* \"contracts/exam-2021-07-12/exam-2021-07-12.sol\":2797:3348  function depositGenericProposal(string calldata description) external onlyAssociate onlyActive {... */\n    tag_6:\n      callvalue\n      dup1\n      iszero\n      tag_28\n      jumpi\n      0x00\n      dup1\n      revert\n    tag_28:\n      pop\n      tag_29\n      0x04\n      dup1\n      calldatasize\n      sub\n      dup2\n      add\n      swap1\n      tag_30\n      swap2\n      swap1\n      tag_31\n      jump\t// in\n    tag_30:\n      tag_32\n      jump\t// in\n    tag_29:\n      stop\n        /* \"contracts/exam-2021-07-12/exam-2021-07-12.sol\":2277:2789  function voteProposal(uint proposalId) external onlyAssociate onlyActive {... */\n    tag_7:\n      callvalue\n      dup1\n      iszero\n      tag_33\n      jumpi\n      0x00\n      dup1\n      revert\n    tag_33:\n      pop\n      tag_34\n      0x04\n      dup1\n      calldatasize\n      sub\n      dup2\n      add\n      swap1\n      tag_35\n      swap2\n      swap1\n      tag_36\n      jump\t// in\n    tag_35:\n      tag_37\n      jump\t// in\n    tag_34:\n      stop\n        /* \"contracts/exam-2021-07-12/exam-2021-07-12.sol\":452:505  mapping(address => bool) public override isAssociated */\n    tag_8:\n      callvalue\n      dup1\n      iszero\n      tag_38\n      jumpi\n      0x00\n      dup1\n      revert\n    tag_38:\n      pop\n      tag_39\n      0x04\n      dup1\n      calldatasize\n      sub\n      dup2\n      add\n      swap1\n      tag_40\n      swap2\n      swap1\n      tag_41\n      jump\t// in\n    tag_40:\n      tag_42\n      jump\t// in\n    tag_39:\n      mload(0x40)\n      tag_43\n      swap2\n      swap1\n      tag_27\n      jump\t// in\n    tag_43:\n      mload(0x40)\n      dup1\n      swap2\n      sub\n      swap1\n      return\n        /* \"contracts/exam-2021-07-12/exam-2021-07-12.sol\":1372:2269  function depositFunds() external payable onlyActive {... */\n    tag_9:\n      tag_44\n      tag_45\n      jump\t// in\n    tag_44:\n      stop\n        /* \"contracts/exam-2021-07-12/exam-2021-07-12.sol\":590:634  mapping(address => bool) public isCandidated */\n    tag_10:\n      callvalue\n      dup1\n      iszero\n      tag_46\n      jumpi\n      0x00\n      dup1\n      revert\n    tag_46:\n      pop\n      tag_47\n      0x04\n      dup1\n      calldatasize\n      sub\n      dup2\n      add\n      swap1\n      tag_48\n      swap2\n      swap1\n      tag_41\n      jump\t// in\n    tag_48:\n      tag_49\n      jump\t// in\n    tag_47:\n      mload(0x40)\n      tag_50\n      swap2\n      swap1\n      tag_27\n      jump\t// in\n    tag_50:\n      mload(0x40)\n      dup1\n      swap2\n      sub\n      swap1\n      return\n        /* \"contracts/exam-2021-07-12/exam-2021-07-12.sol\":5084:6170  function requestShareRefunding() external {... */\n    tag_14:\n        /* \"contracts/exam-2021-07-12/exam-2021-07-12.sol\":5140:5152  isAssociated */\n      0x00\n        /* \"contracts/exam-2021-07-12/exam-2021-07-12.sol\":5140:5164  isAssociated[msg.sender] */\n      dup1\n        /* \"contracts/exam-2021-07-12/exam-2021-07-12.sol\":5153:5163  msg.sender */\n      caller\n        /* \"contracts/exam-2021-07-12/exam-2021-07-12.sol\":5140:5164  isAssociated[msg.sender] */\n      0xffffffffffffffffffffffffffffffffffffffff\n      and\n      0xffffffffffffffffffffffffffffffffffffffff\n      and\n      dup2\n      mstore\n      0x20\n      add\n      swap1\n      dup2\n      mstore\n      0x20\n      add\n      0x00\n      keccak256\n      0x00\n      swap1\n      sload\n      swap1\n      0x0100\n      exp\n      swap1\n      div\n      0xff\n      and\n        /* \"contracts/exam-2021-07-12/exam-2021-07-12.sol\":5137:6163  if(isAssociated[msg.sender]) {... */\n      iszero\n      tag_52\n      jumpi\n        /* \"contracts/exam-2021-07-12/exam-2021-07-12.sol\":5189:5201  isDissoluted */\n      0x07\n      0x00\n      swap1\n      sload\n      swap1\n      0x0100\n      exp\n      swap1\n      div\n      0xff\n      and\n        /* \"contracts/exam-2021-07-12/exam-2021-07-12.sol\":5181:5256  require(isDissoluted, \"Company is not dissoluting, you cannot be refunded\") */\n      tag_53\n      jumpi\n      mload(0x40)\n      0x08c379a000000000000000000000000000000000000000000000000000000000\n      dup2\n      mstore\n      0x04\n      add\n      tag_54\n      swap1\n      tag_55\n      jump\t// in\n    tag_54:\n      mload(0x40)\n      dup1\n      swap2\n      sub\n      swap1\n      revert\n    tag_53:\n        /* \"contracts/exam-2021-07-12/exam-2021-07-12.sol\":5303:5319  associatesShares */\n      0x01\n        /* \"contracts/exam-2021-07-12/exam-2021-07-12.sol\":5303:5331  associatesShares[msg.sender] */\n      0x00\n        /* \"contracts/exam-2021-07-12/exam-2021-07-12.sol\":5320:5330  msg.sender */\n      caller\n        /* \"contracts/exam-2021-07-12/exam-2021-07-12.sol\":5303:5331  associatesShares[msg.sender] */\n      0xffffffffffffffffffffffffffffffffffffffff\n      and\n      0xffffffffffffffffffffffffffffffffffffffff\n      and\n      dup2\n      mstore\n      0x20\n      add\n      swap1\n      dup2\n      mstore\n      0x20\n      add\n      0x00\n      keccak256\n      sload\n        /* \"contracts/exam-2021-07-12/exam-2021-07-12.sol\":5278:5299  address(this).balance */\n      selfbalance\n        /* \"contracts/exam-2021-07-12/exam-2021-07-12.sol\":5278:5331  address(this).balance >= associatesShares[msg.sender] */\n      lt\n      iszero\n        /* \"contracts/exam-2021-07-12/exam-2021-07-12.sol\":5271:5332  assert(address(this).balance >= associatesShares[msg.sender]) */\n      tag_56\n      jumpi\n      tag_57\n      tag_58\n      jump\t// in\n    tag_57:\n    tag_56:\n        /* \"contracts/exam-2021-07-12/exam-2021-07-12.sol\":5374:5379  false */\n      0x00\n        /* \"contracts/exam-2021-07-12/exam-2021-07-12.sol\":5347:5359  isAssociated */\n      dup1\n        /* \"contracts/exam-2021-07-12/exam-2021-07-12.sol\":5347:5371  isAssociated[msg.sender] */\n      0x00\n        /* \"contracts/exam-2021-07-12/exam-2021-07-12.sol\":5360:5370  msg.sender */\n      caller\n        /* \"contracts/exam-2021-07-12/exam-2021-07-12.sol\":5347:5371  isAssociated[msg.sender] */\n      0xffffffffffffffffffffffffffffffffffffffff\n      and\n      0xffffffffffffffffffffffffffffffffffffffff\n      and\n      dup2\n      mstore\n      0x20\n      add\n      swap1\n      dup2\n      mstore\n      0x20\n      add\n      0x00\n      keccak256\n      0x00\n        /* \"contracts/exam-2021-07-12/exam-2021-07-12.sol\":5347:5379  isAssociated[msg.sender] = false */\n      0x0100\n      exp\n      dup2\n      sload\n      dup2\n      0xff\n      mul\n      not\n      and\n      swap1\n      dup4\n      iszero\n      iszero\n      mul\n      or\n      swap1\n      sstore\n      pop\n        /* \"contracts/exam-2021-07-12/exam-2021-07-12.sol\":5394:5414  uint associateAmount */\n      0x00\n        /* \"contracts/exam-2021-07-12/exam-2021-07-12.sol\":5417:5433  associatesShares */\n      0x01\n        /* \"contracts/exam-2021-07-12/exam-2021-07-12.sol\":5417:5445  associatesShares[msg.sender] */\n      0x00\n        /* \"contracts/exam-2021-07-12/exam-2021-07-12.sol\":5434:5444  msg.sender */\n      caller\n        /* \"contracts/exam-2021-07-12/exam-2021-07-12.sol\":5417:5445  associatesShares[msg.sender] */\n      0xffffffffffffffffffffffffffffffffffffffff\n      and\n      0xffffffffffffffffffffffffffffffffffffffff\n      and\n      dup2\n      mstore\n      0x20\n      add\n      swap1\n      dup2\n      mstore\n      0x20\n      add\n      0x00\n      keccak256\n      sload\n        /* \"contracts/exam-2021-07-12/exam-2021-07-12.sol\":5394:5445  uint associateAmount = associatesShares[msg.sender] */\n      swap1\n      pop\n        /* \"contracts/exam-2021-07-12/exam-2021-07-12.sol\":5475:5490  associateAmount */\n      dup1\n        /* \"contracts/exam-2021-07-12/exam-2021-07-12.sol\":5460:5471  totalShares */\n      0x02\n      0x00\n        /* \"contracts/exam-2021-07-12/exam-2021-07-12.sol\":5460:5490  totalShares -= associateAmount */\n      dup3\n      dup3\n      sload\n      tag_59\n      swap2\n      swap1\n      tag_60\n      jump\t// in\n    tag_59:\n      swap3\n      pop\n      pop\n      dup2\n      swap1\n      sstore\n      pop\n        /* \"contracts/exam-2021-07-12/exam-2021-07-12.sol\":5536:5537  0 */\n      0x00\n        /* \"contracts/exam-2021-07-12/exam-2021-07-12.sol\":5505:5521  associatesShares */\n      0x01\n        /* \"contracts/exam-2021-07-12/exam-2021-07-12.sol\":5505:5533  associatesShares[msg.sender] */\n      0x00\n        /* \"contracts/exam-2021-07-12/exam-2021-07-12.sol\":5522:5532  msg.sender */\n      caller\n        /* \"contracts/exam-2021-07-12/exam-2021-07-12.sol\":5505:5533  associatesShares[msg.sender] */\n      0xffffffffffffffffffffffffffffffffffffffff\n      and\n      0xffffffffffffffffffffffffffffffffffffffff\n      and\n      dup2\n      mstore\n      0x20\n      add\n      swap1\n      dup2\n      mstore\n      0x20\n      add\n      0x00\n      keccak256\n        /* \"contracts/exam-2021-07-12/exam-2021-07-12.sol\":5505:5537  associatesShares[msg.sender] = 0 */\n      dup2\n      swap1\n      sstore\n      pop\n        /* \"contracts/exam-2021-07-12/exam-2021-07-12.sol\":5560:5570  msg.sender */\n      caller\n        /* \"contracts/exam-2021-07-12/exam-2021-07-12.sol\":5552:5580  payable(msg.sender).transfer */\n      0xffffffffffffffffffffffffffffffffffffffff\n      and\n        /* \"contracts/exam-2021-07-12/exam-2021-07-12.sol\":5552:5597  payable(msg.sender).transfer(associateAmount) */\n      0x08fc\n        /* \"contracts/exam-2021-07-12/exam-2021-07-12.sol\":5581:5596  associateAmount */\n      dup3\n        /* \"contracts/exam-2021-07-12/exam-2021-07-12.sol\":5552:5597  payable(msg.sender).transfer(associateAmount) */\n      swap1\n      dup2\n      iszero\n      mul\n      swap1\n      mload(0x40)\n      0x00\n      mload(0x40)\n      dup1\n      dup4\n      sub\n      dup2\n      dup6\n      dup9\n      dup9\n      call\n      swap4\n      pop\n      pop\n      pop\n      pop\n      iszero\n      dup1\n      iszero\n      tag_62\n      jumpi\n      returndatasize\n      0x00\n      dup1\n      returndatacopy\n      revert(0x00, returndatasize)\n    tag_62:\n      pop\n        /* \"contracts/exam-2021-07-12/exam-2021-07-12.sol\":5643:5644  0 */\n      0x00\n        /* \"contracts/exam-2021-07-12/exam-2021-07-12.sol\":5618:5639  address(this).balance */\n      selfbalance\n        /* \"contracts/exam-2021-07-12/exam-2021-07-12.sol\":5618:5644  address(this).balance == 0 */\n      sub\n        /* \"contracts/exam-2021-07-12/exam-2021-07-12.sol\":5614:5711  if (address(this).balance == 0) {... */\n      tag_63\n      jumpi\n        /* \"contracts/exam-2021-07-12/exam-2021-07-12.sol\":5686:5693  founder */\n      immutable(\"0xcc193713febc75d3d9bd2f9ce113f403ff19633f15c8cdbcf79756ae23e77f9a\")\n        /* \"contracts/exam-2021-07-12/exam-2021-07-12.sol\":5665:5695  selfdestruct(payable(founder)) */\n      0xffffffffffffffffffffffffffffffffffffffff\n      and\n      selfdestruct\n        /* \"contracts/exam-2021-07-12/exam-2021-07-12.sol\":5614:5711  if (address(this).balance == 0) {... */\n    tag_63:\n        /* \"contracts/exam-2021-07-12/exam-2021-07-12.sol\":5166:5722  {... */\n      pop\n        /* \"contracts/exam-2021-07-12/exam-2021-07-12.sol\":5137:6163  if(isAssociated[msg.sender]) {... */\n      jump(tag_64)\n    tag_52:\n        /* \"contracts/exam-2021-07-12/exam-2021-07-12.sol\":5740:5752  isCandidated */\n      0x03\n        /* \"contracts/exam-2021-07-12/exam-2021-07-12.sol\":5740:5764  isCandidated[msg.sender] */\n      0x00\n        /* \"contracts/exam-2021-07-12/exam-2021-07-12.sol\":5753:5763  msg.sender */\n      caller\n        /* \"contracts/exam-2021-07-12/exam-2021-07-12.sol\":5740:5764  isCandidated[msg.sender] */\n      0xffffffffffffffffffffffffffffffffffffffff\n      and\n      0xffffffffffffffffffffffffffffffffffffffff\n      and\n      dup2\n      mstore\n      0x20\n      add\n      swap1\n      dup2\n      mstore\n      0x20\n      add\n      0x00\n      keccak256\n      0x00\n      swap1\n      sload\n      swap1\n      0x0100\n      exp\n      swap1\n      div\n      0xff\n      and\n        /* \"contracts/exam-2021-07-12/exam-2021-07-12.sol\":5737:6163  if(isCandidated[msg.sender]) {... */\n      iszero\n      tag_65\n      jumpi\n        /* \"contracts/exam-2021-07-12/exam-2021-07-12.sol\":5813:5829  candidatesShares */\n      0x04\n        /* \"contracts/exam-2021-07-12/exam-2021-07-12.sol\":5813:5841  candidatesShares[msg.sender] */\n      0x00\n        /* \"contracts/exam-2021-07-12/exam-2021-07-12.sol\":5830:5840  msg.sender */\n      caller\n        /* \"contracts/exam-2021-07-12/exam-2021-07-12.sol\":5813:5841  candidatesShares[msg.sender] */\n      0xffffffffffffffffffffffffffffffffffffffff\n      and\n      0xffffffffffffffffffffffffffffffffffffffff\n      and\n      dup2\n      mstore\n      0x20\n      add\n      swap1\n      dup2\n      mstore\n      0x20\n      add\n      0x00\n      keccak256\n      sload\n        /* \"contracts/exam-2021-07-12/exam-2021-07-12.sol\":5788:5809  address(this).balance */\n      selfbalance\n        /* \"contracts/exam-2021-07-12/exam-2021-07-12.sol\":5788:5841  address(this).balance >= candidatesShares[msg.sender] */\n      lt\n      iszero\n        /* \"contracts/exam-2021-07-12/exam-2021-07-12.sol\":5781:5842  assert(address(this).balance >= candidatesShares[msg.sender]) */\n      tag_66\n      jumpi\n      tag_67\n      tag_58\n      jump\t// in\n    tag_67:\n    tag_66:\n        /* \"contracts/exam-2021-07-12/exam-2021-07-12.sol\":5884:5889  false */\n      0x00\n        /* \"contracts/exam-2021-07-12/exam-2021-07-12.sol\":5857:5869  isCandidated */\n      0x03\n        /* \"contracts/exam-2021-07-12/exam-2021-07-12.sol\":5857:5881  isCandidated[msg.sender] */\n      0x00\n        /* \"contracts/exam-2021-07-12/exam-2021-07-12.sol\":5870:5880  msg.sender */\n      caller\n        /* \"contracts/exam-2021-07-12/exam-2021-07-12.sol\":5857:5881  isCandidated[msg.sender] */\n      0xffffffffffffffffffffffffffffffffffffffff\n      and\n      0xffffffffffffffffffffffffffffffffffffffff\n      and\n      dup2\n      mstore\n      0x20\n      add\n      swap1\n      dup2\n      mstore\n      0x20\n      add\n      0x00\n      keccak256\n      0x00\n        /* \"contracts/exam-2021-07-12/exam-2021-07-12.sol\":5857:5889  isCandidated[msg.sender] = false */\n      0x0100\n      exp\n      dup2\n      sload\n      dup2\n      0xff\n      mul\n      not\n      and\n      swap1\n      dup4\n      iszero\n      iszero\n      mul\n      or\n      swap1\n      sstore\n      pop\n        /* \"contracts/exam-2021-07-12/exam-2021-07-12.sol\":5904:5924  uint candidateAmount */\n      0x00\n        /* \"contracts/exam-2021-07-12/exam-2021-07-12.sol\":5927:5943  candidatesShares */\n      0x04\n        /* \"contracts/exam-2021-07-12/exam-2021-07-12.sol\":5927:5955  candidatesShares[msg.sender] */\n      0x00\n        /* \"contracts/exam-2021-07-12/exam-2021-07-12.sol\":5944:5954  msg.sender */\n      caller\n        /* \"contracts/exam-2021-07-12/exam-2021-07-12.sol\":5927:5955  candidatesShares[msg.sender] */\n      0xffffffffffffffffffffffffffffffffffffffff\n      and\n      0xffffffffffffffffffffffffffffffffffffffff\n      and\n      dup2\n      mstore\n      0x20\n      add\n      swap1\n      dup2\n      mstore\n      0x20\n      add\n      0x00\n      keccak256\n      sload\n        /* \"contracts/exam-2021-07-12/exam-2021-07-12.sol\":5904:5955  uint candidateAmount = candidatesShares[msg.sender] */\n      swap1\n      pop\n        /* \"contracts/exam-2021-07-12/exam-2021-07-12.sol\":6001:6002  0 */\n      0x00\n        /* \"contracts/exam-2021-07-12/exam-2021-07-12.sol\":5970:5986  candidatesShares */\n      0x04\n        /* \"contracts/exam-2021-07-12/exam-2021-07-12.sol\":5970:5998  candidatesShares[msg.sender] */\n      0x00\n        /* \"contracts/exam-2021-07-12/exam-2021-07-12.sol\":5987:5997  msg.sender */\n      caller\n        /* \"contracts/exam-2021-07-12/exam-2021-07-12.sol\":5970:5998  candidatesShares[msg.sender] */\n      0xffffffffffffffffffffffffffffffffffffffff\n      and\n      0xffffffffffffffffffffffffffffffffffffffff\n      and\n      dup2\n      mstore\n      0x20\n      add\n      swap1\n      dup2\n      mstore\n      0x20\n      add\n      0x00\n      keccak256\n        /* \"contracts/exam-2021-07-12/exam-2021-07-12.sol\":5970:6002  candidatesShares[msg.sender] = 0 */\n      dup2\n      swap1\n      sstore\n      pop\n        /* \"contracts/exam-2021-07-12/exam-2021-07-12.sol\":6025:6035  msg.sender */\n      caller\n        /* \"contracts/exam-2021-07-12/exam-2021-07-12.sol\":6017:6045  payable(msg.sender).transfer */\n      0xffffffffffffffffffffffffffffffffffffffff\n      and\n        /* \"contracts/exam-2021-07-12/exam-2021-07-12.sol\":6017:6062  payable(msg.sender).transfer(candidateAmount) */\n      0x08fc\n        /* \"contracts/exam-2021-07-12/exam-2021-07-12.sol\":6046:6061  candidateAmount */\n      dup3\n        /* \"contracts/exam-2021-07-12/exam-2021-07-12.sol\":6017:6062  payable(msg.sender).transfer(candidateAmount) */\n      swap1\n      dup2\n      iszero\n      mul\n      swap1\n      mload(0x40)\n      0x00\n      mload(0x40)\n      dup1\n      dup4\n      sub\n      dup2\n      dup6\n      dup9\n      dup9\n      call\n      swap4\n      pop\n      pop\n      pop\n      pop\n      iszero\n      dup1\n      iszero\n      tag_69\n      jumpi\n      returndatasize\n      0x00\n      dup1\n      returndatacopy\n      revert(0x00, returndatasize)\n    tag_69:\n      pop\n        /* \"contracts/exam-2021-07-12/exam-2021-07-12.sol\":5766:6074  {... */\n      pop\n        /* \"contracts/exam-2021-07-12/exam-2021-07-12.sol\":5737:6163  if(isCandidated[msg.sender]) {... */\n      jump(tag_70)\n    tag_65:\n        /* \"contracts/exam-2021-07-12/exam-2021-07-12.sol\":6104:6151  revert(\"You are not associated nor candidated\") */\n      mload(0x40)\n      0x08c379a000000000000000000000000000000000000000000000000000000000\n      dup2\n      mstore\n      0x04\n      add\n      tag_71\n      swap1\n      tag_72\n      jump\t// in\n    tag_71:\n      mload(0x40)\n      dup1\n      swap2\n      sub\n      swap1\n      revert\n        /* \"contracts/exam-2021-07-12/exam-2021-07-12.sol\":5737:6163  if(isCandidated[msg.sender]) {... */\n    tag_70:\n        /* \"contracts/exam-2021-07-12/exam-2021-07-12.sol\":5137:6163  if(isAssociated[msg.sender]) {... */\n    tag_64:\n        /* \"contracts/exam-2021-07-12/exam-2021-07-12.sol\":5084:6170  function requestShareRefunding() external {... */\n      jump\t// out\n        /* \"contracts/exam-2021-07-12/exam-2021-07-12.sol\":3356:3830  function depositDissolutionProposal() external onlyAssociate onlyActive {... */\n    tag_17:\n        /* \"contracts/exam-2021-07-12/exam-2021-07-12.sol\":1142:1154  isAssociated */\n      0x00\n        /* \"contracts/exam-2021-07-12/exam-2021-07-12.sol\":1142:1166  isAssociated[msg.sender] */\n      dup1\n        /* \"contracts/exam-2021-07-12/exam-2021-07-12.sol\":1155:1165  msg.sender */\n      caller\n        /* \"contracts/exam-2021-07-12/exam-2021-07-12.sol\":1142:1166  isAssociated[msg.sender] */\n      0xffffffffffffffffffffffffffffffffffffffff\n      and\n      0xffffffffffffffffffffffffffffffffffffffff\n      and\n      dup2\n      mstore\n      0x20\n      add\n      swap1\n      dup2\n      mstore\n      0x20\n      add\n      0x00\n      keccak256\n      0x00\n      swap1\n      sload\n      swap1\n      0x0100\n      exp\n      swap1\n      div\n      0xff\n      and\n        /* \"contracts/exam-2021-07-12/exam-2021-07-12.sol\":1134:1217  require(isAssociated[msg.sender], \"Only associated members can call this function\") */\n      tag_74\n      jumpi\n      mload(0x40)\n      0x08c379a000000000000000000000000000000000000000000000000000000000\n      dup2\n      mstore\n      0x04\n      add\n      tag_75\n      swap1\n      tag_76\n      jump\t// in\n    tag_75:\n      mload(0x40)\n      dup1\n      swap2\n      sub\n      swap1\n      revert\n    tag_74:\n        /* \"contracts/exam-2021-07-12/exam-2021-07-12.sol\":1306:1311  false */\n      0x00\n        /* \"contracts/exam-2021-07-12/exam-2021-07-12.sol\":1290:1311  isDissoluted == false */\n      iszero\n      iszero\n        /* \"contracts/exam-2021-07-12/exam-2021-07-12.sol\":1290:1302  isDissoluted */\n      0x07\n      0x00\n      swap1\n      sload\n      swap1\n      0x0100\n      exp\n      swap1\n      div\n      0xff\n      and\n        /* \"contracts/exam-2021-07-12/exam-2021-07-12.sol\":1290:1311  isDissoluted == false */\n      iszero\n      iszero\n      eq\n        /* \"contracts/exam-2021-07-12/exam-2021-07-12.sol\":1282:1340  require(isDissoluted == false, \"Corporate is dissoluting\") */\n      tag_78\n      jumpi\n      mload(0x40)\n      0x08c379a000000000000000000000000000000000000000000000000000000000\n      dup2\n      mstore\n      0x04\n      add\n      tag_79\n      swap1\n      tag_80\n      jump\t// in\n    tag_79:\n      mload(0x40)\n      dup1\n      swap2\n      sub\n      swap1\n      revert\n    tag_78:\n        /* \"contracts/exam-2021-07-12/exam-2021-07-12.sol\":3439:3454  uint proposalId */\n      0x00\n        /* \"contracts/exam-2021-07-12/exam-2021-07-12.sol\":3457:3470  proposalCount */\n      0x06\n      0x00\n        /* \"contracts/exam-2021-07-12/exam-2021-07-12.sol\":3457:3472  proposalCount++ */\n      dup2\n      sload\n      dup1\n      swap3\n      swap2\n      swap1\n      tag_82\n      swap1\n      tag_83\n      jump\t// in\n    tag_82:\n      swap2\n      swap1\n      pop\n      sstore\n        /* \"contracts/exam-2021-07-12/exam-2021-07-12.sol\":3439:3472  uint proposalId = proposalCount++ */\n      swap1\n      pop\n        /* \"contracts/exam-2021-07-12/exam-2021-07-12.sol\":3483:3508  Proposal storage proposal */\n      0x00\n        /* \"contracts/exam-2021-07-12/exam-2021-07-12.sol\":3511:3520  proposals */\n      0x05\n        /* \"contracts/exam-2021-07-12/exam-2021-07-12.sol\":3511:3532  proposals[proposalId] */\n      0x00\n        /* \"contracts/exam-2021-07-12/exam-2021-07-12.sol\":3521:3531  proposalId */\n      dup4\n        /* \"contracts/exam-2021-07-12/exam-2021-07-12.sol\":3511:3532  proposals[proposalId] */\n      dup2\n      mstore\n      0x20\n      add\n      swap1\n      dup2\n      mstore\n      0x20\n      add\n      0x00\n      keccak256\n        /* \"contracts/exam-2021-07-12/exam-2021-07-12.sol\":3483:3532  Proposal storage proposal = proposals[proposalId] */\n      swap1\n      pop\n        /* \"contracts/exam-2021-07-12/exam-2021-07-12.sol\":3563:3587  ProposalCategory.Generic */\n      0x01\n        /* \"contracts/exam-2021-07-12/exam-2021-07-12.sol\":3543:3551  proposal */\n      dup2\n        /* \"contracts/exam-2021-07-12/exam-2021-07-12.sol\":3543:3560  proposal.category */\n      0x00\n      add\n      0x00\n        /* \"contracts/exam-2021-07-12/exam-2021-07-12.sol\":3543:3587  proposal.category = ProposalCategory.Generic */\n      0x0100\n      exp\n      dup2\n      sload\n      dup2\n      0xff\n      mul\n      not\n      and\n      swap1\n      dup4\n      0x02\n      dup2\n      gt\n      iszero\n      tag_84\n      jumpi\n      tag_85\n      tag_86\n      jump\t// in\n    tag_85:\n    tag_84:\n      mul\n      or\n      swap1\n      sstore\n      pop\n        /* \"contracts/exam-2021-07-12/exam-2021-07-12.sol\":3618:3628  msg.sender */\n      caller\n        /* \"contracts/exam-2021-07-12/exam-2021-07-12.sol\":3598:3606  proposal */\n      dup2\n        /* \"contracts/exam-2021-07-12/exam-2021-07-12.sol\":3598:3615  proposal.proposer */\n      0x02\n      add\n      0x00\n        /* \"contracts/exam-2021-07-12/exam-2021-07-12.sol\":3598:3628  proposal.proposer = msg.sender */\n      0x0100\n      exp\n      dup2\n      sload\n      dup2\n      0xffffffffffffffffffffffffffffffffffffffff\n      mul\n      not\n      and\n      swap1\n      dup4\n      0xffffffffffffffffffffffffffffffffffffffff\n      and\n      mul\n      or\n      swap1\n      sstore\n      pop\n        /* \"contracts/exam-2021-07-12/exam-2021-07-12.sol\":3669:3673  true */\n      0x01\n        /* \"contracts/exam-2021-07-12/exam-2021-07-12.sol\":3639:3647  proposal */\n      dup2\n        /* \"contracts/exam-2021-07-12/exam-2021-07-12.sol\":3639:3654  proposal.voters */\n      0x03\n      add\n        /* \"contracts/exam-2021-07-12/exam-2021-07-12.sol\":3639:3666  proposal.voters[msg.sender] */\n      0x00\n        /* \"contracts/exam-2021-07-12/exam-2021-07-12.sol\":3655:3665  msg.sender */\n      caller\n        /* \"contracts/exam-2021-07-12/exam-2021-07-12.sol\":3639:3666  proposal.voters[msg.sender] */\n      0xffffffffffffffffffffffffffffffffffffffff\n      and\n      0xffffffffffffffffffffffffffffffffffffffff\n      and\n      dup2\n      mstore\n      0x20\n      add\n      swap1\n      dup2\n      mstore\n      0x20\n      add\n      0x00\n      keccak256\n      0x00\n        /* \"contracts/exam-2021-07-12/exam-2021-07-12.sol\":3639:3673  proposal.voters[msg.sender] = true */\n      0x0100\n      exp\n      dup2\n      sload\n      dup2\n      0xff\n      mul\n      not\n      and\n      swap1\n      dup4\n      iszero\n      iszero\n      mul\n      or\n      swap1\n      sstore\n      pop\n        /* \"contracts/exam-2021-07-12/exam-2021-07-12.sol\":3708:3724  associatesShares */\n      0x01\n        /* \"contracts/exam-2021-07-12/exam-2021-07-12.sol\":3708:3736  associatesShares[msg.sender] */\n      0x00\n        /* \"contracts/exam-2021-07-12/exam-2021-07-12.sol\":3725:3735  msg.sender */\n      caller\n        /* \"contracts/exam-2021-07-12/exam-2021-07-12.sol\":3708:3736  associatesShares[msg.sender] */\n      0xffffffffffffffffffffffffffffffffffffffff\n      and\n      0xffffffffffffffffffffffffffffffffffffffff\n      and\n      dup2\n      mstore\n      0x20\n      add\n      swap1\n      dup2\n      mstore\n      0x20\n      add\n      0x00\n      keccak256\n      sload\n        /* \"contracts/exam-2021-07-12/exam-2021-07-12.sol\":3684:3692  proposal */\n      dup2\n        /* \"contracts/exam-2021-07-12/exam-2021-07-12.sol\":3684:3705  proposal.votersShares */\n      0x04\n      add\n        /* \"contracts/exam-2021-07-12/exam-2021-07-12.sol\":3684:3736  proposal.votersShares = associatesShares[msg.sender] */\n      dup2\n      swap1\n      sstore\n      pop\n        /* \"contracts/exam-2021-07-12/exam-2021-07-12.sol\":3767:3772  false */\n      0x00\n        /* \"contracts/exam-2021-07-12/exam-2021-07-12.sol\":3747:3755  proposal */\n      dup2\n        /* \"contracts/exam-2021-07-12/exam-2021-07-12.sol\":3747:3764  proposal.accepted */\n      0x05\n      add\n      0x00\n        /* \"contracts/exam-2021-07-12/exam-2021-07-12.sol\":3747:3772  proposal.accepted = false */\n      0x0100\n      exp\n      dup2\n      sload\n      dup2\n      0xff\n      mul\n      not\n      and\n      swap1\n      dup4\n      iszero\n      iszero\n      mul\n      or\n      swap1\n      sstore\n      pop\n        /* \"contracts/exam-2021-07-12/exam-2021-07-12.sol\":3788:3822  NewDissolutionProposal(proposalId) */\n      0x92fa05a3e70cc704e13b5e88e311d9119a341828433ecdd4672e38eec78e3e5d\n        /* \"contracts/exam-2021-07-12/exam-2021-07-12.sol\":3811:3821  proposalId */\n      dup3\n        /* \"contracts/exam-2021-07-12/exam-2021-07-12.sol\":3788:3822  NewDissolutionProposal(proposalId) */\n      mload(0x40)\n      tag_87\n      swap2\n      swap1\n      tag_22\n      jump\t// in\n    tag_87:\n      mload(0x40)\n      dup1\n      swap2\n      sub\n      swap1\n      log1\n        /* \"contracts/exam-2021-07-12/exam-2021-07-12.sol\":3428:3830  {... */\n      pop\n      pop\n        /* \"contracts/exam-2021-07-12/exam-2021-07-12.sol\":3356:3830  function depositDissolutionProposal() external onlyAssociate onlyActive {... */\n      jump\t// out\n        /* \"contracts/exam-2021-07-12/exam-2021-07-12.sol\":560:583  uint public totalShares */\n    tag_20:\n      sload(0x02)\n      dup2\n      jump\t// out\n        /* \"contracts/exam-2021-07-12/exam-2021-07-12.sol\":756:789  bool public override isDissoluted */\n    tag_25:\n      0x07\n      0x00\n      swap1\n      sload\n      swap1\n      0x0100\n      exp\n      swap1\n      div\n      0xff\n      and\n      dup2\n      jump\t// out\n        /* \"contracts/exam-2021-07-12/exam-2021-07-12.sol\":2797:3348  function depositGenericProposal(string calldata description) external onlyAssociate onlyActive {... */\n    tag_32:\n        /* \"contracts/exam-2021-07-12/exam-2021-07-12.sol\":1142:1154  isAssociated */\n      0x00\n        /* \"contracts/exam-2021-07-12/exam-2021-07-12.sol\":1142:1166  isAssociated[msg.sender] */\n      dup1\n        /* \"contracts/exam-2021-07-12/exam-2021-07-12.sol\":1155:1165  msg.sender */\n      caller\n        /* \"contracts/exam-2021-07-12/exam-2021-07-12.sol\":1142:1166  isAssociated[msg.sender] */\n      0xffffffffffffffffffffffffffffffffffffffff\n      and\n      0xffffffffffffffffffffffffffffffffffffffff\n      and\n      dup2\n      mstore\n      0x20\n      add\n      swap1\n      dup2\n      mstore\n      0x20\n      add\n      0x00\n      keccak256\n      0x00\n      swap1\n      sload\n      swap1\n      0x0100\n      exp\n      swap1\n      div\n      0xff\n      and\n        /* \"contracts/exam-2021-07-12/exam-2021-07-12.sol\":1134:1217  require(isAssociated[msg.sender], \"Only associated members can call this function\") */\n      tag_89\n      jumpi\n      mload(0x40)\n      0x08c379a000000000000000000000000000000000000000000000000000000000\n      dup2\n      mstore\n      0x04\n      add\n      tag_90\n      swap1\n      tag_76\n      jump\t// in\n    tag_90:\n      mload(0x40)\n      dup1\n      swap2\n      sub\n      swap1\n      revert\n    tag_89:\n        /* \"contracts/exam-2021-07-12/exam-2021-07-12.sol\":1306:1311  false */\n      0x00\n        /* \"contracts/exam-2021-07-12/exam-2021-07-12.sol\":1290:1311  isDissoluted == false */\n      iszero\n      iszero\n        /* \"contracts/exam-2021-07-12/exam-2021-07-12.sol\":1290:1302  isDissoluted */\n      0x07\n      0x00\n      swap1\n      sload\n      swap1\n      0x0100\n      exp\n      swap1\n      div\n      0xff\n      and\n        /* \"contracts/exam-2021-07-12/exam-2021-07-12.sol\":1290:1311  isDissoluted == false */\n      iszero\n      iszero\n      eq\n        /* \"contracts/exam-2021-07-12/exam-2021-07-12.sol\":1282:1340  require(isDissoluted == false, \"Corporate is dissoluting\") */\n      tag_92\n      jumpi\n      mload(0x40)\n      0x08c379a000000000000000000000000000000000000000000000000000000000\n      dup2\n      mstore\n      0x04\n      add\n      tag_93\n      swap1\n      tag_80\n      jump\t// in\n    tag_93:\n      mload(0x40)\n      dup1\n      swap2\n      sub\n      swap1\n      revert\n    tag_92:\n        /* \"contracts/exam-2021-07-12/exam-2021-07-12.sol\":2903:2918  uint proposalId */\n      0x00\n        /* \"contracts/exam-2021-07-12/exam-2021-07-12.sol\":2921:2934  proposalCount */\n      0x06\n      0x00\n        /* \"contracts/exam-2021-07-12/exam-2021-07-12.sol\":2921:2936  proposalCount++ */\n      dup2\n      sload\n      dup1\n      swap3\n      swap2\n      swap1\n      tag_95\n      swap1\n      tag_83\n      jump\t// in\n    tag_95:\n      swap2\n      swap1\n      pop\n      sstore\n        /* \"contracts/exam-2021-07-12/exam-2021-07-12.sol\":2903:2936  uint proposalId = proposalCount++ */\n      swap1\n      pop\n        /* \"contracts/exam-2021-07-12/exam-2021-07-12.sol\":2947:2972  Proposal storage proposal */\n      0x00\n        /* \"contracts/exam-2021-07-12/exam-2021-07-12.sol\":2975:2984  proposals */\n      0x05\n        /* \"contracts/exam-2021-07-12/exam-2021-07-12.sol\":2975:2996  proposals[proposalId] */\n      0x00\n        /* \"contracts/exam-2021-07-12/exam-2021-07-12.sol\":2985:2995  proposalId */\n      dup4\n        /* \"contracts/exam-2021-07-12/exam-2021-07-12.sol\":2975:2996  proposals[proposalId] */\n      dup2\n      mstore\n      0x20\n      add\n      swap1\n      dup2\n      mstore\n      0x20\n      add\n      0x00\n      keccak256\n        /* \"contracts/exam-2021-07-12/exam-2021-07-12.sol\":2947:2996  Proposal storage proposal = proposals[proposalId] */\n      swap1\n      pop\n        /* \"contracts/exam-2021-07-12/exam-2021-07-12.sol\":3027:3051  ProposalCategory.Generic */\n      0x01\n        /* \"contracts/exam-2021-07-12/exam-2021-07-12.sol\":3007:3015  proposal */\n      dup2\n        /* \"contracts/exam-2021-07-12/exam-2021-07-12.sol\":3007:3024  proposal.category */\n      0x00\n      add\n      0x00\n        /* \"contracts/exam-2021-07-12/exam-2021-07-12.sol\":3007:3051  proposal.category = ProposalCategory.Generic */\n      0x0100\n      exp\n      dup2\n      sload\n      dup2\n      0xff\n      mul\n      not\n      and\n      swap1\n      dup4\n      0x02\n      dup2\n      gt\n      iszero\n      tag_96\n      jumpi\n      tag_97\n      tag_86\n      jump\t// in\n    tag_97:\n    tag_96:\n      mul\n      or\n      swap1\n      sstore\n      pop\n        /* \"contracts/exam-2021-07-12/exam-2021-07-12.sol\":3082:3092  msg.sender */\n      caller\n        /* \"contracts/exam-2021-07-12/exam-2021-07-12.sol\":3062:3070  proposal */\n      dup2\n        /* \"contracts/exam-2021-07-12/exam-2021-07-12.sol\":3062:3079  proposal.proposer */\n      0x02\n      add\n      0x00\n        /* \"contracts/exam-2021-07-12/exam-2021-07-12.sol\":3062:3092  proposal.proposer = msg.sender */\n      0x0100\n      exp\n      dup2\n      sload\n      dup2\n      0xffffffffffffffffffffffffffffffffffffffff\n      mul\n      not\n      and\n      swap1\n      dup4\n      0xffffffffffffffffffffffffffffffffffffffff\n      and\n      mul\n      or\n      swap1\n      sstore\n      pop\n        /* \"contracts/exam-2021-07-12/exam-2021-07-12.sol\":3126:3137  description */\n      dup4\n      dup4\n        /* \"contracts/exam-2021-07-12/exam-2021-07-12.sol\":3103:3111  proposal */\n      dup3\n        /* \"contracts/exam-2021-07-12/exam-2021-07-12.sol\":3103:3123  proposal.description */\n      0x01\n      add\n        /* \"contracts/exam-2021-07-12/exam-2021-07-12.sol\":3103:3137  proposal.description = description */\n      swap2\n      dup3\n      tag_98\n      swap3\n      swap2\n      swap1\n      tag_99\n      jump\t// in\n    tag_98:\n      pop\n        /* \"contracts/exam-2021-07-12/exam-2021-07-12.sol\":3178:3182  true */\n      0x01\n        /* \"contracts/exam-2021-07-12/exam-2021-07-12.sol\":3148:3156  proposal */\n      dup2\n        /* \"contracts/exam-2021-07-12/exam-2021-07-12.sol\":3148:3163  proposal.voters */\n      0x03\n      add\n        /* \"contracts/exam-2021-07-12/exam-2021-07-12.sol\":3148:3175  proposal.voters[msg.sender] */\n      0x00\n        /* \"contracts/exam-2021-07-12/exam-2021-07-12.sol\":3164:3174  msg.sender */\n      caller\n        /* \"contracts/exam-2021-07-12/exam-2021-07-12.sol\":3148:3175  proposal.voters[msg.sender] */\n      0xffffffffffffffffffffffffffffffffffffffff\n      and\n      0xffffffffffffffffffffffffffffffffffffffff\n      and\n      dup2\n      mstore\n      0x20\n      add\n      swap1\n      dup2\n      mstore\n      0x20\n      add\n      0x00\n      keccak256\n      0x00\n        /* \"contracts/exam-2021-07-12/exam-2021-07-12.sol\":3148:3182  proposal.voters[msg.sender] = true */\n      0x0100\n      exp\n      dup2\n      sload\n      dup2\n      0xff\n      mul\n      not\n      and\n      swap1\n      dup4\n      iszero\n      iszero\n      mul\n      or\n      swap1\n      sstore\n      pop\n        /* \"contracts/exam-2021-07-12/exam-2021-07-12.sol\":3217:3233  associatesShares */\n      0x01\n        /* \"contracts/exam-2021-07-12/exam-2021-07-12.sol\":3217:3245  associatesShares[msg.sender] */\n      0x00\n        /* \"contracts/exam-2021-07-12/exam-2021-07-12.sol\":3234:3244  msg.sender */\n      caller\n        /* \"contracts/exam-2021-07-12/exam-2021-07-12.sol\":3217:3245  associatesShares[msg.sender] */\n      0xffffffffffffffffffffffffffffffffffffffff\n      and\n      0xffffffffffffffffffffffffffffffffffffffff\n      and\n      dup2\n      mstore\n      0x20\n      add\n      swap1\n      dup2\n      mstore\n      0x20\n      add\n      0x00\n      keccak256\n      sload\n        /* \"contracts/exam-2021-07-12/exam-2021-07-12.sol\":3193:3201  proposal */\n      dup2\n        /* \"contracts/exam-2021-07-12/exam-2021-07-12.sol\":3193:3214  proposal.votersShares */\n      0x04\n      add\n        /* \"contracts/exam-2021-07-12/exam-2021-07-12.sol\":3193:3245  proposal.votersShares = associatesShares[msg.sender] */\n      dup2\n      swap1\n      sstore\n      pop\n        /* \"contracts/exam-2021-07-12/exam-2021-07-12.sol\":3276:3281  false */\n      0x00\n        /* \"contracts/exam-2021-07-12/exam-2021-07-12.sol\":3256:3264  proposal */\n      dup2\n        /* \"contracts/exam-2021-07-12/exam-2021-07-12.sol\":3256:3273  proposal.accepted */\n      0x05\n      add\n      0x00\n        /* \"contracts/exam-2021-07-12/exam-2021-07-12.sol\":3256:3281  proposal.accepted = false */\n      0x0100\n      exp\n      dup2\n      sload\n      dup2\n      0xff\n      mul\n      not\n      and\n      swap1\n      dup4\n      iszero\n      iszero\n      mul\n      or\n      swap1\n      sstore\n      pop\n        /* \"contracts/exam-2021-07-12/exam-2021-07-12.sol\":3297:3340  NewGenericProposal(proposalId, description) */\n      0xd47040b3aac7e360d35cf5dbde927cd5ad8da48010490bdcdb495c5ceaeb0438\n        /* \"contracts/exam-2021-07-12/exam-2021-07-12.sol\":3316:3326  proposalId */\n      dup3\n        /* \"contracts/exam-2021-07-12/exam-2021-07-12.sol\":3328:3339  description */\n      dup6\n      dup6\n        /* \"contracts/exam-2021-07-12/exam-2021-07-12.sol\":3297:3340  NewGenericProposal(proposalId, description) */\n      mload(0x40)\n      tag_100\n      swap4\n      swap3\n      swap2\n      swap1\n      tag_101\n      jump\t// in\n    tag_100:\n      mload(0x40)\n      dup1\n      swap2\n      sub\n      swap1\n      log1\n        /* \"contracts/exam-2021-07-12/exam-2021-07-12.sol\":2892:3348  {... */\n      pop\n      pop\n        /* \"contracts/exam-2021-07-12/exam-2021-07-12.sol\":2797:3348  function depositGenericProposal(string calldata description) external onlyAssociate onlyActive {... */\n      pop\n      pop\n      jump\t// out\n        /* \"contracts/exam-2021-07-12/exam-2021-07-12.sol\":2277:2789  function voteProposal(uint proposalId) external onlyAssociate onlyActive {... */\n    tag_37:\n        /* \"contracts/exam-2021-07-12/exam-2021-07-12.sol\":1142:1154  isAssociated */\n      0x00\n        /* \"contracts/exam-2021-07-12/exam-2021-07-12.sol\":1142:1166  isAssociated[msg.sender] */\n      dup1\n        /* \"contracts/exam-2021-07-12/exam-2021-07-12.sol\":1155:1165  msg.sender */\n      caller\n        /* \"contracts/exam-2021-07-12/exam-2021-07-12.sol\":1142:1166  isAssociated[msg.sender] */\n      0xffffffffffffffffffffffffffffffffffffffff\n      and\n      0xffffffffffffffffffffffffffffffffffffffff\n      and\n      dup2\n      mstore\n      0x20\n      add\n      swap1\n      dup2\n      mstore\n      0x20\n      add\n      0x00\n      keccak256\n      0x00\n      swap1\n      sload\n      swap1\n      0x0100\n      exp\n      swap1\n      div\n      0xff\n      and\n        /* \"contracts/exam-2021-07-12/exam-2021-07-12.sol\":1134:1217  require(isAssociated[msg.sender], \"Only associated members can call this function\") */\n      tag_103\n      jumpi\n      mload(0x40)\n      0x08c379a000000000000000000000000000000000000000000000000000000000\n      dup2\n      mstore\n      0x04\n      add\n      tag_104\n      swap1\n      tag_76\n      jump\t// in\n    tag_104:\n      mload(0x40)\n      dup1\n      swap2\n      sub\n      swap1\n      revert\n    tag_103:\n        /* \"contracts/exam-2021-07-12/exam-2021-07-12.sol\":1306:1311  false */\n      0x00\n        /* \"contracts/exam-2021-07-12/exam-2021-07-12.sol\":1290:1311  isDissoluted == false */\n      iszero\n      iszero\n        /* \"contracts/exam-2021-07-12/exam-2021-07-12.sol\":1290:1302  isDissoluted */\n      0x07\n      0x00\n      swap1\n      sload\n      swap1\n      0x0100\n      exp\n      swap1\n      div\n      0xff\n      and\n        /* \"contracts/exam-2021-07-12/exam-2021-07-12.sol\":1290:1311  isDissoluted == false */\n      iszero\n      iszero\n      eq\n        /* \"contracts/exam-2021-07-12/exam-2021-07-12.sol\":1282:1340  require(isDissoluted == false, \"Corporate is dissoluting\") */\n      tag_106\n      jumpi\n      mload(0x40)\n      0x08c379a000000000000000000000000000000000000000000000000000000000\n      dup2\n      mstore\n      0x04\n      add\n      tag_107\n      swap1\n      tag_80\n      jump\t// in\n    tag_107:\n      mload(0x40)\n      dup1\n      swap2\n      sub\n      swap1\n      revert\n    tag_106:\n        /* \"contracts/exam-2021-07-12/exam-2021-07-12.sol\":2361:2386  Proposal storage proposal */\n      0x00\n        /* \"contracts/exam-2021-07-12/exam-2021-07-12.sol\":2389:2398  proposals */\n      0x05\n        /* \"contracts/exam-2021-07-12/exam-2021-07-12.sol\":2389:2410  proposals[proposalId] */\n      0x00\n        /* \"contracts/exam-2021-07-12/exam-2021-07-12.sol\":2399:2409  proposalId */\n      dup4\n        /* \"contracts/exam-2021-07-12/exam-2021-07-12.sol\":2389:2410  proposals[proposalId] */\n      dup2\n      mstore\n      0x20\n      add\n      swap1\n      dup2\n      mstore\n      0x20\n      add\n      0x00\n      keccak256\n        /* \"contracts/exam-2021-07-12/exam-2021-07-12.sol\":2361:2410  Proposal storage proposal = proposals[proposalId] */\n      swap1\n      pop\n        /* \"contracts/exam-2021-07-12/exam-2021-07-12.sol\":2450:2455  false */\n      0x00\n        /* \"contracts/exam-2021-07-12/exam-2021-07-12.sol\":2429:2455  proposal.accepted == false */\n      iszero\n      iszero\n        /* \"contracts/exam-2021-07-12/exam-2021-07-12.sol\":2429:2437  proposal */\n      dup2\n        /* \"contracts/exam-2021-07-12/exam-2021-07-12.sol\":2429:2446  proposal.accepted */\n      0x05\n      add\n      0x00\n      swap1\n      sload\n      swap1\n      0x0100\n      exp\n      swap1\n      div\n      0xff\n      and\n        /* \"contracts/exam-2021-07-12/exam-2021-07-12.sol\":2429:2455  proposal.accepted == false */\n      iszero\n      iszero\n      eq\n        /* \"contracts/exam-2021-07-12/exam-2021-07-12.sol\":2421:2494  require(proposal.accepted == false, \"Proposal has already been accepted\") */\n      tag_109\n      jumpi\n      mload(0x40)\n      0x08c379a000000000000000000000000000000000000000000000000000000000\n      dup2\n      mstore\n      0x04\n      add\n      tag_110\n      swap1\n      tag_111\n      jump\t// in\n    tag_110:\n      mload(0x40)\n      dup1\n      swap2\n      sub\n      swap1\n      revert\n    tag_109:\n        /* \"contracts/exam-2021-07-12/exam-2021-07-12.sol\":2526:2539  proposalCount */\n      sload(0x06)\n        /* \"contracts/exam-2021-07-12/exam-2021-07-12.sol\":2513:2523  proposalId */\n      dup3\n        /* \"contracts/exam-2021-07-12/exam-2021-07-12.sol\":2513:2539  proposalId < proposalCount */\n      lt\n        /* \"contracts/exam-2021-07-12/exam-2021-07-12.sol\":2505:2567  require(proposalId < proposalCount, \"Proposal doesn't exists\") */\n      tag_112\n      jumpi\n      mload(0x40)\n      0x08c379a000000000000000000000000000000000000000000000000000000000\n      dup2\n      mstore\n      0x04\n      add\n      tag_113\n      swap1\n      tag_114\n      jump\t// in\n    tag_113:\n      mload(0x40)\n      dup1\n      swap2\n      sub\n      swap1\n      revert\n    tag_112:\n        /* \"contracts/exam-2021-07-12/exam-2021-07-12.sol\":2582:2590  proposal */\n      dup1\n        /* \"contracts/exam-2021-07-12/exam-2021-07-12.sol\":2582:2597  proposal.voters */\n      0x03\n      add\n        /* \"contracts/exam-2021-07-12/exam-2021-07-12.sol\":2582:2609  proposal.voters[msg.sender] */\n      0x00\n        /* \"contracts/exam-2021-07-12/exam-2021-07-12.sol\":2598:2608  msg.sender */\n      caller\n        /* \"contracts/exam-2021-07-12/exam-2021-07-12.sol\":2582:2609  proposal.voters[msg.sender] */\n      0xffffffffffffffffffffffffffffffffffffffff\n      and\n      0xffffffffffffffffffffffffffffffffffffffff\n      and\n      dup2\n      mstore\n      0x20\n      add\n      swap1\n      dup2\n      mstore\n      0x20\n      add\n      0x00\n      keccak256\n      0x00\n      swap1\n      sload\n      swap1\n      0x0100\n      exp\n      swap1\n      div\n      0xff\n      and\n        /* \"contracts/exam-2021-07-12/exam-2021-07-12.sol\":2578:2740  if(!proposal.voters[msg.sender]) {... */\n      tag_115\n      jumpi\n        /* \"contracts/exam-2021-07-12/exam-2021-07-12.sol\":2656:2660  true */\n      0x01\n        /* \"contracts/exam-2021-07-12/exam-2021-07-12.sol\":2626:2634  proposal */\n      dup2\n        /* \"contracts/exam-2021-07-12/exam-2021-07-12.sol\":2626:2641  proposal.voters */\n      0x03\n      add\n        /* \"contracts/exam-2021-07-12/exam-2021-07-12.sol\":2626:2653  proposal.voters[msg.sender] */\n      0x00\n        /* \"contracts/exam-2021-07-12/exam-2021-07-12.sol\":2642:2652  msg.sender */\n      caller\n        /* \"contracts/exam-2021-07-12/exam-2021-07-12.sol\":2626:2653  proposal.voters[msg.sender] */\n      0xffffffffffffffffffffffffffffffffffffffff\n      and\n      0xffffffffffffffffffffffffffffffffffffffff\n      and\n      dup2\n      mstore\n      0x20\n      add\n      swap1\n      dup2\n      mstore\n      0x20\n      add\n      0x00\n      keccak256\n      0x00\n        /* \"contracts/exam-2021-07-12/exam-2021-07-12.sol\":2626:2660  proposal.voters[msg.sender] = true */\n      0x0100\n      exp\n      dup2\n      sload\n      dup2\n      0xff\n      mul\n      not\n      and\n      swap1\n      dup4\n      iszero\n      iszero\n      mul\n      or\n      swap1\n      sstore\n      pop\n        /* \"contracts/exam-2021-07-12/exam-2021-07-12.sol\":2700:2716  associatesShares */\n      0x01\n        /* \"contracts/exam-2021-07-12/exam-2021-07-12.sol\":2700:2728  associatesShares[msg.sender] */\n      0x00\n        /* \"contracts/exam-2021-07-12/exam-2021-07-12.sol\":2717:2727  msg.sender */\n      caller\n        /* \"contracts/exam-2021-07-12/exam-2021-07-12.sol\":2700:2728  associatesShares[msg.sender] */\n      0xffffffffffffffffffffffffffffffffffffffff\n      and\n      0xffffffffffffffffffffffffffffffffffffffff\n      and\n      dup2\n      mstore\n      0x20\n      add\n      swap1\n      dup2\n      mstore\n      0x20\n      add\n      0x00\n      keccak256\n      sload\n        /* \"contracts/exam-2021-07-12/exam-2021-07-12.sol\":2675:2683  proposal */\n      dup2\n        /* \"contracts/exam-2021-07-12/exam-2021-07-12.sol\":2675:2696  proposal.votersShares */\n      0x04\n      add\n      0x00\n        /* \"contracts/exam-2021-07-12/exam-2021-07-12.sol\":2675:2728  proposal.votersShares += associatesShares[msg.sender] */\n      dup3\n      dup3\n      sload\n      tag_116\n      swap2\n      swap1\n      tag_117\n      jump\t// in\n    tag_116:\n      swap3\n      pop\n      pop\n      dup2\n      swap1\n      sstore\n      pop\n        /* \"contracts/exam-2021-07-12/exam-2021-07-12.sol\":2578:2740  if(!proposal.voters[msg.sender]) {... */\n    tag_115:\n        /* \"contracts/exam-2021-07-12/exam-2021-07-12.sol\":2750:2781  checkProposalApproval(proposal) */\n      tag_118\n        /* \"contracts/exam-2021-07-12/exam-2021-07-12.sol\":2772:2780  proposal */\n      dup2\n        /* \"contracts/exam-2021-07-12/exam-2021-07-12.sol\":2750:2771  checkProposalApproval */\n      tag_119\n        /* \"contracts/exam-2021-07-12/exam-2021-07-12.sol\":2750:2781  checkProposalApproval(proposal) */\n      jump\t// in\n    tag_118:\n        /* \"contracts/exam-2021-07-12/exam-2021-07-12.sol\":2350:2789  {... */\n      pop\n        /* \"contracts/exam-2021-07-12/exam-2021-07-12.sol\":2277:2789  function voteProposal(uint proposalId) external onlyAssociate onlyActive {... */\n      pop\n      jump\t// out\n        /* \"contracts/exam-2021-07-12/exam-2021-07-12.sol\":452:505  mapping(address => bool) public override isAssociated */\n    tag_42:\n      mstore(0x20, 0x00)\n      dup1\n      0x00\n      mstore\n      keccak256(0x00, 0x40)\n      0x00\n      swap2\n      pop\n      sload\n      swap1\n      0x0100\n      exp\n      swap1\n      div\n      0xff\n      and\n      dup2\n      jump\t// out\n        /* \"contracts/exam-2021-07-12/exam-2021-07-12.sol\":1372:2269  function depositFunds() external payable onlyActive {... */\n    tag_45:\n        /* \"contracts/exam-2021-07-12/exam-2021-07-12.sol\":1306:1311  false */\n      0x00\n        /* \"contracts/exam-2021-07-12/exam-2021-07-12.sol\":1290:1311  isDissoluted == false */\n      iszero\n      iszero\n        /* \"contracts/exam-2021-07-12/exam-2021-07-12.sol\":1290:1302  isDissoluted */\n      0x07\n      0x00\n      swap1\n      sload\n      swap1\n      0x0100\n      exp\n      swap1\n      div\n      0xff\n      and\n        /* \"contracts/exam-2021-07-12/exam-2021-07-12.sol\":1290:1311  isDissoluted == false */\n      iszero\n      iszero\n      eq\n        /* \"contracts/exam-2021-07-12/exam-2021-07-12.sol\":1282:1340  require(isDissoluted == false, \"Corporate is dissoluting\") */\n      tag_121\n      jumpi\n      mload(0x40)\n      0x08c379a000000000000000000000000000000000000000000000000000000000\n      dup2\n      mstore\n      0x04\n      add\n      tag_122\n      swap1\n      tag_80\n      jump\t// in\n    tag_122:\n      mload(0x40)\n      dup1\n      swap2\n      sub\n      swap1\n      revert\n    tag_121:\n        /* \"contracts/exam-2021-07-12/exam-2021-07-12.sol\":1438:1450  isAssociated */\n      0x00\n        /* \"contracts/exam-2021-07-12/exam-2021-07-12.sol\":1438:1462  isAssociated[msg.sender] */\n      dup1\n        /* \"contracts/exam-2021-07-12/exam-2021-07-12.sol\":1451:1461  msg.sender */\n      caller\n        /* \"contracts/exam-2021-07-12/exam-2021-07-12.sol\":1438:1462  isAssociated[msg.sender] */\n      0xffffffffffffffffffffffffffffffffffffffff\n      and\n      0xffffffffffffffffffffffffffffffffffffffff\n      and\n      dup2\n      mstore\n      0x20\n      add\n      swap1\n      dup2\n      mstore\n      0x20\n      add\n      0x00\n      keccak256\n      0x00\n      swap1\n      sload\n      swap1\n      0x0100\n      exp\n      swap1\n      div\n      0xff\n      and\n        /* \"contracts/exam-2021-07-12/exam-2021-07-12.sol\":1435:2262  if(isAssociated[msg.sender]) {... */\n      iszero\n      tag_124\n      jumpi\n        /* \"contracts/exam-2021-07-12/exam-2021-07-12.sol\":1511:1520  msg.value */\n      callvalue\n        /* \"contracts/exam-2021-07-12/exam-2021-07-12.sol\":1479:1495  associatesShares */\n      0x01\n        /* \"contracts/exam-2021-07-12/exam-2021-07-12.sol\":1479:1507  associatesShares[msg.sender] */\n      0x00\n        /* \"contracts/exam-2021-07-12/exam-2021-07-12.sol\":1496:1506  msg.sender */\n      caller\n        /* \"contracts/exam-2021-07-12/exam-2021-07-12.sol\":1479:1507  associatesShares[msg.sender] */\n      0xffffffffffffffffffffffffffffffffffffffff\n      and\n      0xffffffffffffffffffffffffffffffffffffffff\n      and\n      dup2\n      mstore\n      0x20\n      add\n      swap1\n      dup2\n      mstore\n      0x20\n      add\n      0x00\n      keccak256\n      0x00\n        /* \"contracts/exam-2021-07-12/exam-2021-07-12.sol\":1479:1520  associatesShares[msg.sender] += msg.value */\n      dup3\n      dup3\n      sload\n      tag_125\n      swap2\n      swap1\n      tag_117\n      jump\t// in\n    tag_125:\n      swap3\n      pop\n      pop\n      dup2\n      swap1\n      sstore\n      pop\n        /* \"contracts/exam-2021-07-12/exam-2021-07-12.sol\":1550:1559  msg.value */\n      callvalue\n        /* \"contracts/exam-2021-07-12/exam-2021-07-12.sol\":1535:1546  totalShares */\n      0x02\n      0x00\n        /* \"contracts/exam-2021-07-12/exam-2021-07-12.sol\":1535:1559  totalShares += msg.value */\n      dup3\n      dup3\n      sload\n      tag_126\n      swap2\n      swap1\n      tag_117\n      jump\t// in\n    tag_126:\n      swap3\n      pop\n      pop\n      dup2\n      swap1\n      sstore\n      pop\n        /* \"contracts/exam-2021-07-12/exam-2021-07-12.sol\":1435:2262  if(isAssociated[msg.sender]) {... */\n      jump(tag_127)\n    tag_124:\n        /* \"contracts/exam-2021-07-12/exam-2021-07-12.sol\":1589:1601  isCandidated */\n      0x03\n        /* \"contracts/exam-2021-07-12/exam-2021-07-12.sol\":1589:1613  isCandidated[msg.sender] */\n      0x00\n        /* \"contracts/exam-2021-07-12/exam-2021-07-12.sol\":1602:1612  msg.sender */\n      caller\n        /* \"contracts/exam-2021-07-12/exam-2021-07-12.sol\":1589:1613  isCandidated[msg.sender] */\n      0xffffffffffffffffffffffffffffffffffffffff\n      and\n      0xffffffffffffffffffffffffffffffffffffffff\n      and\n      dup2\n      mstore\n      0x20\n      add\n      swap1\n      dup2\n      mstore\n      0x20\n      add\n      0x00\n      keccak256\n      0x00\n      swap1\n      sload\n      swap1\n      0x0100\n      exp\n      swap1\n      div\n      0xff\n      and\n        /* \"contracts/exam-2021-07-12/exam-2021-07-12.sol\":1586:2262  if(isCandidated[msg.sender]) {... */\n      iszero\n      tag_128\n      jumpi\n        /* \"contracts/exam-2021-07-12/exam-2021-07-12.sol\":1662:1671  msg.value */\n      callvalue\n        /* \"contracts/exam-2021-07-12/exam-2021-07-12.sol\":1630:1646  candidatesShares */\n      0x04\n        /* \"contracts/exam-2021-07-12/exam-2021-07-12.sol\":1630:1658  candidatesShares[msg.sender] */\n      0x00\n        /* \"contracts/exam-2021-07-12/exam-2021-07-12.sol\":1647:1657  msg.sender */\n      caller\n        /* \"contracts/exam-2021-07-12/exam-2021-07-12.sol\":1630:1658  candidatesShares[msg.sender] */\n      0xffffffffffffffffffffffffffffffffffffffff\n      and\n      0xffffffffffffffffffffffffffffffffffffffff\n      and\n      dup2\n      mstore\n      0x20\n      add\n      swap1\n      dup2\n      mstore\n      0x20\n      add\n      0x00\n      keccak256\n      0x00\n        /* \"contracts/exam-2021-07-12/exam-2021-07-12.sol\":1630:1671  candidatesShares[msg.sender] += msg.value */\n      dup3\n      dup3\n      sload\n      tag_129\n      swap2\n      swap1\n      tag_117\n      jump\t// in\n    tag_129:\n      swap3\n      pop\n      pop\n      dup2\n      swap1\n      sstore\n      pop\n        /* \"contracts/exam-2021-07-12/exam-2021-07-12.sol\":1586:2262  if(isCandidated[msg.sender]) {... */\n      jump(tag_130)\n    tag_128:\n        /* \"contracts/exam-2021-07-12/exam-2021-07-12.sol\":1733:1741  minShare */\n      immutable(\"0xa3bcf8af6929b66d6da7ee355c48fd1cf926fd090bc75a4dcbf7bd8e365645e3\")\n        /* \"contracts/exam-2021-07-12/exam-2021-07-12.sol\":1721:1730  msg.value */\n      callvalue\n        /* \"contracts/exam-2021-07-12/exam-2021-07-12.sol\":1721:1741  msg.value > minShare */\n      gt\n        /* \"contracts/exam-2021-07-12/exam-2021-07-12.sol\":1713:1811  require(msg.value > minShare, \"The funds of a new associate has to respect the specified minimum\") */\n      tag_131\n      jumpi\n      mload(0x40)\n      0x08c379a000000000000000000000000000000000000000000000000000000000\n      dup2\n      mstore\n      0x04\n      add\n      tag_132\n      swap1\n      tag_133\n      jump\t// in\n    tag_132:\n      mload(0x40)\n      dup1\n      swap2\n      sub\n      swap1\n      revert\n    tag_131:\n        /* \"contracts/exam-2021-07-12/exam-2021-07-12.sol\":1853:1857  true */\n      0x01\n        /* \"contracts/exam-2021-07-12/exam-2021-07-12.sol\":1826:1838  isCandidated */\n      0x03\n        /* \"contracts/exam-2021-07-12/exam-2021-07-12.sol\":1826:1850  isCandidated[msg.sender] */\n      0x00\n        /* \"contracts/exam-2021-07-12/exam-2021-07-12.sol\":1839:1849  msg.sender */\n      caller\n        /* \"contracts/exam-2021-07-12/exam-2021-07-12.sol\":1826:1850  isCandidated[msg.sender] */\n      0xffffffffffffffffffffffffffffffffffffffff\n      and\n      0xffffffffffffffffffffffffffffffffffffffff\n      and\n      dup2\n      mstore\n      0x20\n      add\n      swap1\n      dup2\n      mstore\n      0x20\n      add\n      0x00\n      keccak256\n      0x00\n        /* \"contracts/exam-2021-07-12/exam-2021-07-12.sol\":1826:1857  isCandidated[msg.sender] = true */\n      0x0100\n      exp\n      dup2\n      sload\n      dup2\n      0xff\n      mul\n      not\n      and\n      swap1\n      dup4\n      iszero\n      iszero\n      mul\n      or\n      swap1\n      sstore\n      pop\n        /* \"contracts/exam-2021-07-12/exam-2021-07-12.sol\":1903:1912  msg.value */\n      callvalue\n        /* \"contracts/exam-2021-07-12/exam-2021-07-12.sol\":1872:1888  candidatesShares */\n      0x04\n        /* \"contracts/exam-2021-07-12/exam-2021-07-12.sol\":1872:1900  candidatesShares[msg.sender] */\n      0x00\n        /* \"contracts/exam-2021-07-12/exam-2021-07-12.sol\":1889:1899  msg.sender */\n      caller\n        /* \"contracts/exam-2021-07-12/exam-2021-07-12.sol\":1872:1900  candidatesShares[msg.sender] */\n      0xffffffffffffffffffffffffffffffffffffffff\n      and\n      0xffffffffffffffffffffffffffffffffffffffff\n      and\n      dup2\n      mstore\n      0x20\n      add\n      swap1\n      dup2\n      mstore\n      0x20\n      add\n      0x00\n      keccak256\n        /* \"contracts/exam-2021-07-12/exam-2021-07-12.sol\":1872:1912  candidatesShares[msg.sender] = msg.value */\n      dup2\n      swap1\n      sstore\n      pop\n        /* \"contracts/exam-2021-07-12/exam-2021-07-12.sol\":1927:1942  uint proposalId */\n      0x00\n        /* \"contracts/exam-2021-07-12/exam-2021-07-12.sol\":1945:1958  proposalCount */\n      0x06\n      0x00\n        /* \"contracts/exam-2021-07-12/exam-2021-07-12.sol\":1945:1960  proposalCount++ */\n      dup2\n      sload\n      dup1\n      swap3\n      swap2\n      swap1\n      tag_134\n      swap1\n      tag_83\n      jump\t// in\n    tag_134:\n      swap2\n      swap1\n      pop\n      sstore\n        /* \"contracts/exam-2021-07-12/exam-2021-07-12.sol\":1927:1960  uint proposalId = proposalCount++ */\n      swap1\n      pop\n        /* \"contracts/exam-2021-07-12/exam-2021-07-12.sol\":1980:2025  NewAssociateCandidate(proposalId, msg.sender) */\n      0x6b7638e3cd8ffdd9b06cac2128a6144ee1a7e562b8ddb64a761889711a774323\n        /* \"contracts/exam-2021-07-12/exam-2021-07-12.sol\":2002:2012  proposalId */\n      dup2\n        /* \"contracts/exam-2021-07-12/exam-2021-07-12.sol\":2014:2024  msg.sender */\n      caller\n        /* \"contracts/exam-2021-07-12/exam-2021-07-12.sol\":1980:2025  NewAssociateCandidate(proposalId, msg.sender) */\n      mload(0x40)\n      tag_135\n      swap3\n      swap2\n      swap1\n      tag_136\n      jump\t// in\n    tag_135:\n      mload(0x40)\n      dup1\n      swap2\n      sub\n      swap1\n      log1\n        /* \"contracts/exam-2021-07-12/exam-2021-07-12.sol\":2040:2065  Proposal storage proposal */\n      0x00\n        /* \"contracts/exam-2021-07-12/exam-2021-07-12.sol\":2068:2077  proposals */\n      0x05\n        /* \"contracts/exam-2021-07-12/exam-2021-07-12.sol\":2068:2089  proposals[proposalId] */\n      0x00\n        /* \"contracts/exam-2021-07-12/exam-2021-07-12.sol\":2078:2088  proposalId */\n      dup4\n        /* \"contracts/exam-2021-07-12/exam-2021-07-12.sol\":2068:2089  proposals[proposalId] */\n      dup2\n      mstore\n      0x20\n      add\n      swap1\n      dup2\n      mstore\n      0x20\n      add\n      0x00\n      keccak256\n        /* \"contracts/exam-2021-07-12/exam-2021-07-12.sol\":2040:2089  Proposal storage proposal = proposals[proposalId] */\n      swap1\n      pop\n        /* \"contracts/exam-2021-07-12/exam-2021-07-12.sol\":2124:2165  ProposalCategory.NewAssociationAcceptance */\n      0x00\n        /* \"contracts/exam-2021-07-12/exam-2021-07-12.sol\":2104:2112  proposal */\n      dup2\n        /* \"contracts/exam-2021-07-12/exam-2021-07-12.sol\":2104:2121  proposal.category */\n      0x00\n      add\n      0x00\n        /* \"contracts/exam-2021-07-12/exam-2021-07-12.sol\":2104:2165  proposal.category = ProposalCategory.NewAssociationAcceptance */\n      0x0100\n      exp\n      dup2\n      sload\n      dup2\n      0xff\n      mul\n      not\n      and\n      swap1\n      dup4\n      0x02\n      dup2\n      gt\n      iszero\n      tag_137\n      jumpi\n      tag_138\n      tag_86\n      jump\t// in\n    tag_138:\n    tag_137:\n      mul\n      or\n      swap1\n      sstore\n      pop\n        /* \"contracts/exam-2021-07-12/exam-2021-07-12.sol\":2200:2210  msg.sender */\n      caller\n        /* \"contracts/exam-2021-07-12/exam-2021-07-12.sol\":2180:2188  proposal */\n      dup2\n        /* \"contracts/exam-2021-07-12/exam-2021-07-12.sol\":2180:2197  proposal.proposer */\n      0x02\n      add\n      0x00\n        /* \"contracts/exam-2021-07-12/exam-2021-07-12.sol\":2180:2210  proposal.proposer = msg.sender */\n      0x0100\n      exp\n      dup2\n      sload\n      dup2\n      0xffffffffffffffffffffffffffffffffffffffff\n      mul\n      not\n      and\n      swap1\n      dup4\n      0xffffffffffffffffffffffffffffffffffffffff\n      and\n      mul\n      or\n      swap1\n      sstore\n      pop\n        /* \"contracts/exam-2021-07-12/exam-2021-07-12.sol\":2245:2250  false */\n      0x00\n        /* \"contracts/exam-2021-07-12/exam-2021-07-12.sol\":2225:2233  proposal */\n      dup2\n        /* \"contracts/exam-2021-07-12/exam-2021-07-12.sol\":2225:2242  proposal.accepted */\n      0x05\n      add\n      0x00\n        /* \"contracts/exam-2021-07-12/exam-2021-07-12.sol\":2225:2250  proposal.accepted = false */\n      0x0100\n      exp\n      dup2\n      sload\n      dup2\n      0xff\n      mul\n      not\n      and\n      swap1\n      dup4\n      iszero\n      iszero\n      mul\n      or\n      swap1\n      sstore\n      pop\n        /* \"contracts/exam-2021-07-12/exam-2021-07-12.sol\":1698:2262  {... */\n      pop\n      pop\n        /* \"contracts/exam-2021-07-12/exam-2021-07-12.sol\":1586:2262  if(isCandidated[msg.sender]) {... */\n    tag_130:\n        /* \"contracts/exam-2021-07-12/exam-2021-07-12.sol\":1435:2262  if(isAssociated[msg.sender]) {... */\n    tag_127:\n        /* \"contracts/exam-2021-07-12/exam-2021-07-12.sol\":1372:2269  function depositFunds() external payable onlyActive {... */\n      jump\t// out\n        /* \"contracts/exam-2021-07-12/exam-2021-07-12.sol\":590:634  mapping(address => bool) public isCandidated */\n    tag_49:\n      mstore(0x20, 0x03)\n      dup1\n      0x00\n      mstore\n      keccak256(0x00, 0x40)\n      0x00\n      swap2\n      pop\n      sload\n      swap1\n      0x0100\n      exp\n      swap1\n      div\n      0xff\n      and\n      dup2\n      jump\t// out\n        /* \"contracts/exam-2021-07-12/exam-2021-07-12.sol\":3838:5076  function checkProposalApproval(Proposal storage proposal) internal {... */\n    tag_119:\n        /* \"contracts/exam-2021-07-12/exam-2021-07-12.sol\":3940:3981  ProposalCategory.NewAssociationAcceptance */\n      0x00\n        /* \"contracts/exam-2021-07-12/exam-2021-07-12.sol\":3919:3981  proposal.category == ProposalCategory.NewAssociationAcceptance */\n      0x02\n      dup2\n      gt\n      iszero\n      tag_140\n      jumpi\n      tag_141\n      tag_86\n      jump\t// in\n    tag_141:\n    tag_140:\n        /* \"contracts/exam-2021-07-12/exam-2021-07-12.sol\":3919:3927  proposal */\n      dup2\n        /* \"contracts/exam-2021-07-12/exam-2021-07-12.sol\":3919:3936  proposal.category */\n      0x00\n      add\n      0x00\n      swap1\n      sload\n      swap1\n      0x0100\n      exp\n      swap1\n      div\n      0xff\n      and\n        /* \"contracts/exam-2021-07-12/exam-2021-07-12.sol\":3919:3981  proposal.category == ProposalCategory.NewAssociationAcceptance */\n      0x02\n      dup2\n      gt\n      iszero\n      tag_142\n      jumpi\n      tag_143\n      tag_86\n      jump\t// in\n    tag_143:\n    tag_142:\n      sub\n        /* \"contracts/exam-2021-07-12/exam-2021-07-12.sol\":3916:5069  if(proposal.category == ProposalCategory.NewAssociationAcceptance) {... */\n      tag_144\n      jumpi\n        /* \"contracts/exam-2021-07-12/exam-2021-07-12.sol\":4041:4042  1 */\n      0x01\n        /* \"contracts/exam-2021-07-12/exam-2021-07-12.sol\":4038:4039  2 */\n      0x02\n        /* \"contracts/exam-2021-07-12/exam-2021-07-12.sol\":4026:4037  totalShares */\n      dup1\n      sload\n        /* \"contracts/exam-2021-07-12/exam-2021-07-12.sol\":4026:4039  totalShares/2 */\n      tag_145\n      swap2\n      swap1\n      tag_146\n      jump\t// in\n    tag_145:\n        /* \"contracts/exam-2021-07-12/exam-2021-07-12.sol\":4025:4042  (totalShares/2)+1 */\n      tag_147\n      swap2\n      swap1\n      tag_117\n      jump\t// in\n    tag_147:\n        /* \"contracts/exam-2021-07-12/exam-2021-07-12.sol\":4001:4009  proposal */\n      dup2\n        /* \"contracts/exam-2021-07-12/exam-2021-07-12.sol\":4001:4022  proposal.votersShares */\n      0x04\n      add\n      sload\n        /* \"contracts/exam-2021-07-12/exam-2021-07-12.sol\":4001:4042  proposal.votersShares > (totalShares/2)+1 */\n      gt\n        /* \"contracts/exam-2021-07-12/exam-2021-07-12.sol\":3998:4497  if(proposal.votersShares > (totalShares/2)+1) {... */\n      iszero\n      tag_148\n      jumpi\n        /* \"contracts/exam-2021-07-12/exam-2021-07-12.sol\":4083:4087  true */\n      0x01\n        /* \"contracts/exam-2021-07-12/exam-2021-07-12.sol\":4063:4071  proposal */\n      dup2\n        /* \"contracts/exam-2021-07-12/exam-2021-07-12.sol\":4063:4080  proposal.accepted */\n      0x05\n      add\n      0x00\n        /* \"contracts/exam-2021-07-12/exam-2021-07-12.sol\":4063:4087  proposal.accepted = true */\n      0x0100\n      exp\n      dup2\n      sload\n      dup2\n      0xff\n      mul\n      not\n      and\n      swap1\n      dup4\n      iszero\n      iszero\n      mul\n      or\n      swap1\n      sstore\n      pop\n        /* \"contracts/exam-2021-07-12/exam-2021-07-12.sol\":4140:4144  true */\n      0x01\n        /* \"contracts/exam-2021-07-12/exam-2021-07-12.sol\":4106:4118  isAssociated */\n      0x00\n        /* \"contracts/exam-2021-07-12/exam-2021-07-12.sol\":4106:4137  isAssociated[proposal.proposer] */\n      dup1\n        /* \"contracts/exam-2021-07-12/exam-2021-07-12.sol\":4119:4127  proposal */\n      dup4\n        /* \"contracts/exam-2021-07-12/exam-2021-07-12.sol\":4119:4136  proposal.proposer */\n      0x02\n      add\n      0x00\n      swap1\n      sload\n      swap1\n      0x0100\n      exp\n      swap1\n      div\n      0xffffffffffffffffffffffffffffffffffffffff\n      and\n        /* \"contracts/exam-2021-07-12/exam-2021-07-12.sol\":4106:4137  isAssociated[proposal.proposer] */\n      0xffffffffffffffffffffffffffffffffffffffff\n      and\n      0xffffffffffffffffffffffffffffffffffffffff\n      and\n      dup2\n      mstore\n      0x20\n      add\n      swap1\n      dup2\n      mstore\n      0x20\n      add\n      0x00\n      keccak256\n      0x00\n        /* \"contracts/exam-2021-07-12/exam-2021-07-12.sol\":4106:4144  isAssociated[proposal.proposer] = true */\n      0x0100\n      exp\n      dup2\n      sload\n      dup2\n      0xff\n      mul\n      not\n      and\n      swap1\n      dup4\n      iszero\n      iszero\n      mul\n      or\n      swap1\n      sstore\n      pop\n        /* \"contracts/exam-2021-07-12/exam-2021-07-12.sol\":4197:4202  false */\n      0x00\n        /* \"contracts/exam-2021-07-12/exam-2021-07-12.sol\":4163:4175  isCandidated */\n      0x03\n        /* \"contracts/exam-2021-07-12/exam-2021-07-12.sol\":4163:4194  isCandidated[proposal.proposer] */\n      0x00\n        /* \"contracts/exam-2021-07-12/exam-2021-07-12.sol\":4176:4184  proposal */\n      dup4\n        /* \"contracts/exam-2021-07-12/exam-2021-07-12.sol\":4176:4193  proposal.proposer */\n      0x02\n      add\n      0x00\n      swap1\n      sload\n      swap1\n      0x0100\n      exp\n      swap1\n      div\n      0xffffffffffffffffffffffffffffffffffffffff\n      and\n        /* \"contracts/exam-2021-07-12/exam-2021-07-12.sol\":4163:4194  isCandidated[proposal.proposer] */\n      0xffffffffffffffffffffffffffffffffffffffff\n      and\n      0xffffffffffffffffffffffffffffffffffffffff\n      and\n      dup2\n      mstore\n      0x20\n      add\n      swap1\n      dup2\n      mstore\n      0x20\n      add\n      0x00\n      keccak256\n      0x00\n        /* \"contracts/exam-2021-07-12/exam-2021-07-12.sol\":4163:4202  isCandidated[proposal.proposer] = false */\n      0x0100\n      exp\n      dup2\n      sload\n      dup2\n      0xff\n      mul\n      not\n      and\n      swap1\n      dup4\n      iszero\n      iszero\n      mul\n      or\n      swap1\n      sstore\n      pop\n        /* \"contracts/exam-2021-07-12/exam-2021-07-12.sol\":4259:4275  candidatesShares */\n      0x04\n        /* \"contracts/exam-2021-07-12/exam-2021-07-12.sol\":4259:4294  candidatesShares[proposal.proposer] */\n      0x00\n        /* \"contracts/exam-2021-07-12/exam-2021-07-12.sol\":4276:4284  proposal */\n      dup3\n        /* \"contracts/exam-2021-07-12/exam-2021-07-12.sol\":4276:4293  proposal.proposer */\n      0x02\n      add\n      0x00\n      swap1\n      sload\n      swap1\n      0x0100\n      exp\n      swap1\n      div\n      0xffffffffffffffffffffffffffffffffffffffff\n      and\n        /* \"contracts/exam-2021-07-12/exam-2021-07-12.sol\":4259:4294  candidatesShares[proposal.proposer] */\n      0xffffffffffffffffffffffffffffffffffffffff\n      and\n      0xffffffffffffffffffffffffffffffffffffffff\n      and\n      dup2\n      mstore\n      0x20\n      add\n      swap1\n      dup2\n      mstore\n      0x20\n      add\n      0x00\n      keccak256\n      sload\n        /* \"contracts/exam-2021-07-12/exam-2021-07-12.sol\":4221:4237  associatesShares */\n      0x01\n        /* \"contracts/exam-2021-07-12/exam-2021-07-12.sol\":4221:4256  associatesShares[proposal.proposer] */\n      0x00\n        /* \"contracts/exam-2021-07-12/exam-2021-07-12.sol\":4238:4246  proposal */\n      dup4\n        /* \"contracts/exam-2021-07-12/exam-2021-07-12.sol\":4238:4255  proposal.proposer */\n      0x02\n      add\n      0x00\n      swap1\n      sload\n      swap1\n      0x0100\n      exp\n      swap1\n      div\n      0xffffffffffffffffffffffffffffffffffffffff\n      and\n        /* \"contracts/exam-2021-07-12/exam-2021-07-12.sol\":4221:4256  associatesShares[proposal.proposer] */\n      0xffffffffffffffffffffffffffffffffffffffff\n      and\n      0xffffffffffffffffffffffffffffffffffffffff\n      and\n      dup2\n      mstore\n      0x20\n      add\n      swap1\n      dup2\n      mstore\n      0x20\n      add\n      0x00\n      keccak256\n        /* \"contracts/exam-2021-07-12/exam-2021-07-12.sol\":4221:4294  associatesShares[proposal.proposer] = candidatesShares[proposal.proposer] */\n      dup2\n      swap1\n      sstore\n      pop\n        /* \"contracts/exam-2021-07-12/exam-2021-07-12.sol\":4328:4344  candidatesShares */\n      0x04\n        /* \"contracts/exam-2021-07-12/exam-2021-07-12.sol\":4328:4363  candidatesShares[proposal.proposer] */\n      0x00\n        /* \"contracts/exam-2021-07-12/exam-2021-07-12.sol\":4345:4353  proposal */\n      dup3\n        /* \"contracts/exam-2021-07-12/exam-2021-07-12.sol\":4345:4362  proposal.proposer */\n      0x02\n      add\n      0x00\n      swap1\n      sload\n      swap1\n      0x0100\n      exp\n      swap1\n      div\n      0xffffffffffffffffffffffffffffffffffffffff\n      and\n        /* \"contracts/exam-2021-07-12/exam-2021-07-12.sol\":4328:4363  candidatesShares[proposal.proposer] */\n      0xffffffffffffffffffffffffffffffffffffffff\n      and\n      0xffffffffffffffffffffffffffffffffffffffff\n      and\n      dup2\n      mstore\n      0x20\n      add\n      swap1\n      dup2\n      mstore\n      0x20\n      add\n      0x00\n      keccak256\n      sload\n        /* \"contracts/exam-2021-07-12/exam-2021-07-12.sol\":4313:4324  totalShares */\n      0x02\n      0x00\n        /* \"contracts/exam-2021-07-12/exam-2021-07-12.sol\":4313:4363  totalShares += candidatesShares[proposal.proposer] */\n      dup3\n      dup3\n      sload\n      tag_149\n      swap2\n      swap1\n      tag_117\n      jump\t// in\n    tag_149:\n      swap3\n      pop\n      pop\n      dup2\n      swap1\n      sstore\n      pop\n        /* \"contracts/exam-2021-07-12/exam-2021-07-12.sol\":4420:4421  0 */\n      0x00\n        /* \"contracts/exam-2021-07-12/exam-2021-07-12.sol\":4382:4398  candidatesShares */\n      0x04\n        /* \"contracts/exam-2021-07-12/exam-2021-07-12.sol\":4382:4417  candidatesShares[proposal.proposer] */\n      0x00\n        /* \"contracts/exam-2021-07-12/exam-2021-07-12.sol\":4399:4407  proposal */\n      dup4\n        /* \"contracts/exam-2021-07-12/exam-2021-07-12.sol\":4399:4416  proposal.proposer */\n      0x02\n      add\n      0x00\n      swap1\n      sload\n      swap1\n      0x0100\n      exp\n      swap1\n      div\n      0xffffffffffffffffffffffffffffffffffffffff\n      and\n        /* \"contracts/exam-2021-07-12/exam-2021-07-12.sol\":4382:4417  candidatesShares[proposal.proposer] */\n      0xffffffffffffffffffffffffffffffffffffffff\n      and\n      0xffffffffffffffffffffffffffffffffffffffff\n      and\n      dup2\n      mstore\n      0x20\n      add\n      swap1\n      dup2\n      mstore\n      0x20\n      add\n      0x00\n      keccak256\n        /* \"contracts/exam-2021-07-12/exam-2021-07-12.sol\":4382:4421  candidatesShares[proposal.proposer] = 0 */\n      dup2\n      swap1\n      sstore\n      pop\n        /* \"contracts/exam-2021-07-12/exam-2021-07-12.sol\":4445:4481  AcceptedAssociate(proposal.proposer) */\n      0x78c530b4daeba31114749bbcb32edbd288ce09d5ac627483b3a087397bdd9c71\n        /* \"contracts/exam-2021-07-12/exam-2021-07-12.sol\":4463:4471  proposal */\n      dup2\n        /* \"contracts/exam-2021-07-12/exam-2021-07-12.sol\":4463:4480  proposal.proposer */\n      0x02\n      add\n      0x00\n      swap1\n      sload\n      swap1\n      0x0100\n      exp\n      swap1\n      div\n      0xffffffffffffffffffffffffffffffffffffffff\n      and\n        /* \"contracts/exam-2021-07-12/exam-2021-07-12.sol\":4445:4481  AcceptedAssociate(proposal.proposer) */\n      mload(0x40)\n      tag_150\n      swap2\n      swap1\n      tag_151\n      jump\t// in\n    tag_150:\n      mload(0x40)\n      dup1\n      swap2\n      sub\n      swap1\n      log1\n        /* \"contracts/exam-2021-07-12/exam-2021-07-12.sol\":3998:4497  if(proposal.votersShares > (totalShares/2)+1) {... */\n    tag_148:\n        /* \"contracts/exam-2021-07-12/exam-2021-07-12.sol\":3916:5069  if(proposal.category == ProposalCategory.NewAssociationAcceptance) {... */\n      jump(tag_152)\n    tag_144:\n        /* \"contracts/exam-2021-07-12/exam-2021-07-12.sol\":4547:4571  ProposalCategory.Generic */\n      0x01\n        /* \"contracts/exam-2021-07-12/exam-2021-07-12.sol\":4526:4571  proposal.category == ProposalCategory.Generic */\n      0x02\n      dup2\n      gt\n      iszero\n      tag_153\n      jumpi\n      tag_154\n      tag_86\n      jump\t// in\n    tag_154:\n    tag_153:\n        /* \"contracts/exam-2021-07-12/exam-2021-07-12.sol\":4526:4534  proposal */\n      dup2\n        /* \"contracts/exam-2021-07-12/exam-2021-07-12.sol\":4526:4543  proposal.category */\n      0x00\n      add\n      0x00\n      swap1\n      sload\n      swap1\n      0x0100\n      exp\n      swap1\n      div\n      0xff\n      and\n        /* \"contracts/exam-2021-07-12/exam-2021-07-12.sol\":4526:4571  proposal.category == ProposalCategory.Generic */\n      0x02\n      dup2\n      gt\n      iszero\n      tag_155\n      jumpi\n      tag_156\n      tag_86\n      jump\t// in\n    tag_156:\n    tag_155:\n      sub\n        /* \"contracts/exam-2021-07-12/exam-2021-07-12.sol\":4523:5069  if(proposal.category == ProposalCategory.Generic) {... */\n      tag_157\n      jumpi\n        /* \"contracts/exam-2021-07-12/exam-2021-07-12.sol\":4631:4632  1 */\n      0x01\n        /* \"contracts/exam-2021-07-12/exam-2021-07-12.sol\":4628:4629  2 */\n      0x02\n        /* \"contracts/exam-2021-07-12/exam-2021-07-12.sol\":4616:4627  totalShares */\n      dup1\n      sload\n        /* \"contracts/exam-2021-07-12/exam-2021-07-12.sol\":4616:4629  totalShares/2 */\n      tag_158\n      swap2\n      swap1\n      tag_146\n      jump\t// in\n    tag_158:\n        /* \"contracts/exam-2021-07-12/exam-2021-07-12.sol\":4615:4632  (totalShares/2)+1 */\n      tag_159\n      swap2\n      swap1\n      tag_117\n      jump\t// in\n    tag_159:\n        /* \"contracts/exam-2021-07-12/exam-2021-07-12.sol\":4591:4599  proposal */\n      dup2\n        /* \"contracts/exam-2021-07-12/exam-2021-07-12.sol\":4591:4612  proposal.votersShares */\n      0x04\n      add\n      sload\n        /* \"contracts/exam-2021-07-12/exam-2021-07-12.sol\":4591:4632  proposal.votersShares > (totalShares/2)+1 */\n      gt\n        /* \"contracts/exam-2021-07-12/exam-2021-07-12.sol\":4588:4762  if(proposal.votersShares > (totalShares/2)+1) {... */\n      iszero\n      tag_160\n      jumpi\n        /* \"contracts/exam-2021-07-12/exam-2021-07-12.sol\":4673:4677  true */\n      0x01\n        /* \"contracts/exam-2021-07-12/exam-2021-07-12.sol\":4653:4661  proposal */\n      dup2\n        /* \"contracts/exam-2021-07-12/exam-2021-07-12.sol\":4653:4670  proposal.accepted */\n      0x05\n      add\n      0x00\n        /* \"contracts/exam-2021-07-12/exam-2021-07-12.sol\":4653:4677  proposal.accepted = true */\n      0x0100\n      exp\n      dup2\n      sload\n      dup2\n      0xff\n      mul\n      not\n      and\n      swap1\n      dup4\n      iszero\n      iszero\n      mul\n      or\n      swap1\n      sstore\n      pop\n        /* \"contracts/exam-2021-07-12/exam-2021-07-12.sol\":4701:4746  AcceptedGenericProposal(proposal.description) */\n      0xe7ff7c4807b71e5705a9ddf42e7af1d9fb39e3f8b9a786533eb0482cfa46c15c\n        /* \"contracts/exam-2021-07-12/exam-2021-07-12.sol\":4725:4733  proposal */\n      dup2\n        /* \"contracts/exam-2021-07-12/exam-2021-07-12.sol\":4725:4745  proposal.description */\n      0x01\n      add\n        /* \"contracts/exam-2021-07-12/exam-2021-07-12.sol\":4701:4746  AcceptedGenericProposal(proposal.description) */\n      mload(0x40)\n      tag_161\n      swap2\n      swap1\n      tag_162\n      jump\t// in\n    tag_161:\n      mload(0x40)\n      dup1\n      swap2\n      sub\n      swap1\n      log1\n        /* \"contracts/exam-2021-07-12/exam-2021-07-12.sol\":4588:4762  if(proposal.votersShares > (totalShares/2)+1) {... */\n    tag_160:\n        /* \"contracts/exam-2021-07-12/exam-2021-07-12.sol\":4523:5069  if(proposal.category == ProposalCategory.Generic) {... */\n      jump(tag_163)\n    tag_157:\n        /* \"contracts/exam-2021-07-12/exam-2021-07-12.sol\":4812:4849  ProposalCategory.CorporateDissolution */\n      0x02\n        /* \"contracts/exam-2021-07-12/exam-2021-07-12.sol\":4791:4849  proposal.category == ProposalCategory.CorporateDissolution */\n      dup1\n      dup2\n      gt\n      iszero\n      tag_164\n      jumpi\n      tag_165\n      tag_86\n      jump\t// in\n    tag_165:\n    tag_164:\n        /* \"contracts/exam-2021-07-12/exam-2021-07-12.sol\":4791:4799  proposal */\n      dup2\n        /* \"contracts/exam-2021-07-12/exam-2021-07-12.sol\":4791:4808  proposal.category */\n      0x00\n      add\n      0x00\n      swap1\n      sload\n      swap1\n      0x0100\n      exp\n      swap1\n      div\n      0xff\n      and\n        /* \"contracts/exam-2021-07-12/exam-2021-07-12.sol\":4791:4849  proposal.category == ProposalCategory.CorporateDissolution */\n      0x02\n      dup2\n      gt\n      iszero\n      tag_166\n      jumpi\n      tag_167\n      tag_86\n      jump\t// in\n    tag_167:\n    tag_166:\n      sub\n        /* \"contracts/exam-2021-07-12/exam-2021-07-12.sol\":4788:5069  if(proposal.category == ProposalCategory.CorporateDissolution) {... */\n      tag_168\n      jumpi\n        /* \"contracts/exam-2021-07-12/exam-2021-07-12.sol\":4894:4905  totalShares */\n      sload(0x02)\n        /* \"contracts/exam-2021-07-12/exam-2021-07-12.sol\":4869:4877  proposal */\n      dup2\n        /* \"contracts/exam-2021-07-12/exam-2021-07-12.sol\":4869:4890  proposal.votersShares */\n      0x04\n      add\n      sload\n        /* \"contracts/exam-2021-07-12/exam-2021-07-12.sol\":4869:4905  proposal.votersShares >= totalShares */\n      lt\n        /* \"contracts/exam-2021-07-12/exam-2021-07-12.sol\":4866:5058  if(proposal.votersShares >= totalShares) {... */\n      tag_169\n      jumpi\n        /* \"contracts/exam-2021-07-12/exam-2021-07-12.sol\":4946:4950  true */\n      0x01\n        /* \"contracts/exam-2021-07-12/exam-2021-07-12.sol\":4926:4934  proposal */\n      dup2\n        /* \"contracts/exam-2021-07-12/exam-2021-07-12.sol\":4926:4943  proposal.accepted */\n      0x05\n      add\n      0x00\n        /* \"contracts/exam-2021-07-12/exam-2021-07-12.sol\":4926:4950  proposal.accepted = true */\n      0x0100\n      exp\n      dup2\n      sload\n      dup2\n      0xff\n      mul\n      not\n      and\n      swap1\n      dup4\n      iszero\n      iszero\n      mul\n      or\n      swap1\n      sstore\n      pop\n        /* \"contracts/exam-2021-07-12/exam-2021-07-12.sol\":4984:4988  true */\n      0x01\n        /* \"contracts/exam-2021-07-12/exam-2021-07-12.sol\":4969:4981  isDissoluted */\n      0x07\n      0x00\n        /* \"contracts/exam-2021-07-12/exam-2021-07-12.sol\":4969:4988  isDissoluted = true */\n      0x0100\n      exp\n      dup2\n      sload\n      dup2\n      0xff\n      mul\n      not\n      and\n      swap1\n      dup4\n      iszero\n      iszero\n      mul\n      or\n      swap1\n      sstore\n      pop\n        /* \"contracts/exam-2021-07-12/exam-2021-07-12.sol\":5012:5042  AcceptedCorporateDissolution() */\n      0xb080cc702b7f1f77fb6a2dd59827bb6df2fec3f60799c67c5e557513e1aa3d69\n      mload(0x40)\n      mload(0x40)\n      dup1\n      swap2\n      sub\n      swap1\n      log1\n        /* \"contracts/exam-2021-07-12/exam-2021-07-12.sol\":4866:5058  if(proposal.votersShares >= totalShares) {... */\n    tag_169:\n        /* \"contracts/exam-2021-07-12/exam-2021-07-12.sol\":4788:5069  if(proposal.category == ProposalCategory.CorporateDissolution) {... */\n    tag_168:\n        /* \"contracts/exam-2021-07-12/exam-2021-07-12.sol\":4523:5069  if(proposal.category == ProposalCategory.Generic) {... */\n    tag_163:\n        /* \"contracts/exam-2021-07-12/exam-2021-07-12.sol\":3916:5069  if(proposal.category == ProposalCategory.NewAssociationAcceptance) {... */\n    tag_152:\n        /* \"contracts/exam-2021-07-12/exam-2021-07-12.sol\":3838:5076  function checkProposalApproval(Proposal storage proposal) internal {... */\n      pop\n      jump\t// out\n        /* \"#utility.yul\":7:84   */\n    tag_170:\n        /* \"#utility.yul\":44:51   */\n      0x00\n        /* \"#utility.yul\":73:78   */\n      dup2\n        /* \"#utility.yul\":62:78   */\n      swap1\n      pop\n        /* \"#utility.yul\":7:84   */\n      swap2\n      swap1\n      pop\n      jump\t// out\n        /* \"#utility.yul\":90:208   */\n    tag_171:\n        /* \"#utility.yul\":177:201   */\n      tag_231\n        /* \"#utility.yul\":195:200   */\n      dup2\n        /* \"#utility.yul\":177:201   */\n      tag_170\n      jump\t// in\n    tag_231:\n        /* \"#utility.yul\":172:175   */\n      dup3\n        /* \"#utility.yul\":165:202   */\n      mstore\n        /* \"#utility.yul\":90:208   */\n      pop\n      pop\n      jump\t// out\n        /* \"#utility.yul\":214:436   */\n    tag_22:\n        /* \"#utility.yul\":307:311   */\n      0x00\n        /* \"#utility.yul\":345:347   */\n      0x20\n        /* \"#utility.yul\":334:343   */\n      dup3\n        /* \"#utility.yul\":330:348   */\n      add\n        /* \"#utility.yul\":322:348   */\n      swap1\n      pop\n        /* \"#utility.yul\":358:429   */\n      tag_233\n        /* \"#utility.yul\":426:427   */\n      0x00\n        /* \"#utility.yul\":415:424   */\n      dup4\n        /* \"#utility.yul\":411:428   */\n      add\n        /* \"#utility.yul\":402:408   */\n      dup5\n        /* \"#utility.yul\":358:429   */\n      tag_171\n      jump\t// in\n    tag_233:\n        /* \"#utility.yul\":214:436   */\n      swap3\n      swap2\n      pop\n      pop\n      jump\t// out\n        /* \"#utility.yul\":442:532   */\n    tag_172:\n        /* \"#utility.yul\":476:483   */\n      0x00\n        /* \"#utility.yul\":519:524   */\n      dup2\n        /* \"#utility.yul\":512:525   */\n      iszero\n        /* \"#utility.yul\":505:526   */\n      iszero\n        /* \"#utility.yul\":494:526   */\n      swap1\n      pop\n        /* \"#utility.yul\":442:532   */\n      swap2\n      swap1\n      pop\n      jump\t// out\n        /* \"#utility.yul\":538:647   */\n    tag_173:\n        /* \"#utility.yul\":619:640   */\n      tag_236\n        /* \"#utility.yul\":634:639   */\n      dup2\n        /* \"#utility.yul\":619:640   */\n      tag_172\n      jump\t// in\n    tag_236:\n        /* \"#utility.yul\":614:617   */\n      dup3\n        /* \"#utility.yul\":607:641   */\n      mstore\n        /* \"#utility.yul\":538:647   */\n      pop\n      pop\n      jump\t// out\n        /* \"#utility.yul\":653:863   */\n    tag_27:\n        /* \"#utility.yul\":740:744   */\n      0x00\n        /* \"#utility.yul\":778:780   */\n      0x20\n        /* \"#utility.yul\":767:776   */\n      dup3\n        /* \"#utility.yul\":763:781   */\n      add\n        /* \"#utility.yul\":755:781   */\n      swap1\n      pop\n        /* \"#utility.yul\":791:856   */\n      tag_238\n        /* \"#utility.yul\":853:854   */\n      0x00\n        /* \"#utility.yul\":842:851   */\n      dup4\n        /* \"#utility.yul\":838:855   */\n      add\n        /* \"#utility.yul\":829:835   */\n      dup5\n        /* \"#utility.yul\":791:856   */\n      tag_173\n      jump\t// in\n    tag_238:\n        /* \"#utility.yul\":653:863   */\n      swap3\n      swap2\n      pop\n      pop\n      jump\t// out\n        /* \"#utility.yul\":950:1067   */\n    tag_175:\n        /* \"#utility.yul\":1059:1060   */\n      0x00\n        /* \"#utility.yul\":1056:1057   */\n      dup1\n        /* \"#utility.yul\":1049:1061   */\n      revert\n        /* \"#utility.yul\":1073:1190   */\n    tag_176:\n        /* \"#utility.yul\":1182:1183   */\n      0x00\n        /* \"#utility.yul\":1179:1180   */\n      dup1\n        /* \"#utility.yul\":1172:1184   */\n      revert\n        /* \"#utility.yul\":1196:1313   */\n    tag_177:\n        /* \"#utility.yul\":1305:1306   */\n      0x00\n        /* \"#utility.yul\":1302:1303   */\n      dup1\n        /* \"#utility.yul\":1295:1307   */\n      revert\n        /* \"#utility.yul\":1319:1436   */\n    tag_178:\n        /* \"#utility.yul\":1428:1429   */\n      0x00\n        /* \"#utility.yul\":1425:1426   */\n      dup1\n        /* \"#utility.yul\":1418:1430   */\n      revert\n        /* \"#utility.yul\":1442:1559   */\n    tag_179:\n        /* \"#utility.yul\":1551:1552   */\n      0x00\n        /* \"#utility.yul\":1548:1549   */\n      dup1\n        /* \"#utility.yul\":1541:1553   */\n      revert\n        /* \"#utility.yul\":1579:2132   */\n    tag_180:\n        /* \"#utility.yul\":1637:1645   */\n      0x00\n        /* \"#utility.yul\":1647:1653   */\n      dup1\n        /* \"#utility.yul\":1697:1700   */\n      dup4\n        /* \"#utility.yul\":1690:1694   */\n      0x1f\n        /* \"#utility.yul\":1682:1688   */\n      dup5\n        /* \"#utility.yul\":1678:1695   */\n      add\n        /* \"#utility.yul\":1674:1701   */\n      slt\n        /* \"#utility.yul\":1664:1786   */\n      tag_246\n      jumpi\n        /* \"#utility.yul\":1705:1784   */\n      tag_247\n      tag_177\n      jump\t// in\n    tag_247:\n        /* \"#utility.yul\":1664:1786   */\n    tag_246:\n        /* \"#utility.yul\":1818:1824   */\n      dup3\n        /* \"#utility.yul\":1805:1825   */\n      calldataload\n        /* \"#utility.yul\":1795:1825   */\n      swap1\n      pop\n        /* \"#utility.yul\":1848:1866   */\n      0xffffffffffffffff\n        /* \"#utility.yul\":1840:1846   */\n      dup2\n        /* \"#utility.yul\":1837:1867   */\n      gt\n        /* \"#utility.yul\":1834:1951   */\n      iszero\n      tag_248\n      jumpi\n        /* \"#utility.yul\":1870:1949   */\n      tag_249\n      tag_178\n      jump\t// in\n    tag_249:\n        /* \"#utility.yul\":1834:1951   */\n    tag_248:\n        /* \"#utility.yul\":1984:1988   */\n      0x20\n        /* \"#utility.yul\":1976:1982   */\n      dup4\n        /* \"#utility.yul\":1972:1989   */\n      add\n        /* \"#utility.yul\":1960:1989   */\n      swap2\n      pop\n        /* \"#utility.yul\":2038:2041   */\n      dup4\n        /* \"#utility.yul\":2030:2034   */\n      0x01\n        /* \"#utility.yul\":2022:2028   */\n      dup3\n        /* \"#utility.yul\":2018:2035   */\n      mul\n        /* \"#utility.yul\":2008:2016   */\n      dup4\n        /* \"#utility.yul\":2004:2036   */\n      add\n        /* \"#utility.yul\":2001:2042   */\n      gt\n        /* \"#utility.yul\":1998:2126   */\n      iszero\n      tag_250\n      jumpi\n        /* \"#utility.yul\":2045:2124   */\n      tag_251\n      tag_179\n      jump\t// in\n    tag_251:\n        /* \"#utility.yul\":1998:2126   */\n    tag_250:\n        /* \"#utility.yul\":1579:2132   */\n      swap3\n      pop\n      swap3\n      swap1\n      pop\n      jump\t// out\n        /* \"#utility.yul\":2138:2667   */\n    tag_31:\n        /* \"#utility.yul\":2209:2215   */\n      0x00\n        /* \"#utility.yul\":2217:2223   */\n      dup1\n        /* \"#utility.yul\":2266:2268   */\n      0x20\n        /* \"#utility.yul\":2254:2263   */\n      dup4\n        /* \"#utility.yul\":2245:2252   */\n      dup6\n        /* \"#utility.yul\":2241:2264   */\n      sub\n        /* \"#utility.yul\":2237:2269   */\n      slt\n        /* \"#utility.yul\":2234:2353   */\n      iszero\n      tag_253\n      jumpi\n        /* \"#utility.yul\":2272:2351   */\n      tag_254\n      tag_175\n      jump\t// in\n    tag_254:\n        /* \"#utility.yul\":2234:2353   */\n    tag_253:\n        /* \"#utility.yul\":2420:2421   */\n      0x00\n        /* \"#utility.yul\":2409:2418   */\n      dup4\n        /* \"#utility.yul\":2405:2422   */\n      add\n        /* \"#utility.yul\":2392:2423   */\n      calldataload\n        /* \"#utility.yul\":2450:2468   */\n      0xffffffffffffffff\n        /* \"#utility.yul\":2442:2448   */\n      dup2\n        /* \"#utility.yul\":2439:2469   */\n      gt\n        /* \"#utility.yul\":2436:2553   */\n      iszero\n      tag_255\n      jumpi\n        /* \"#utility.yul\":2472:2551   */\n      tag_256\n      tag_176\n      jump\t// in\n    tag_256:\n        /* \"#utility.yul\":2436:2553   */\n    tag_255:\n        /* \"#utility.yul\":2585:2650   */\n      tag_257\n        /* \"#utility.yul\":2642:2649   */\n      dup6\n        /* \"#utility.yul\":2633:2639   */\n      dup3\n        /* \"#utility.yul\":2622:2631   */\n      dup7\n        /* \"#utility.yul\":2618:2640   */\n      add\n        /* \"#utility.yul\":2585:2650   */\n      tag_180\n      jump\t// in\n    tag_257:\n        /* \"#utility.yul\":2567:2650   */\n      swap3\n      pop\n      swap3\n      pop\n        /* \"#utility.yul\":2363:2660   */\n      pop\n        /* \"#utility.yul\":2138:2667   */\n      swap3\n      pop\n      swap3\n      swap1\n      pop\n      jump\t// out\n        /* \"#utility.yul\":2673:2795   */\n    tag_181:\n        /* \"#utility.yul\":2746:2770   */\n      tag_259\n        /* \"#utility.yul\":2764:2769   */\n      dup2\n        /* \"#utility.yul\":2746:2770   */\n      tag_170\n      jump\t// in\n    tag_259:\n        /* \"#utility.yul\":2739:2744   */\n      dup2\n        /* \"#utility.yul\":2736:2771   */\n      eq\n        /* \"#utility.yul\":2726:2789   */\n      tag_260\n      jumpi\n        /* \"#utility.yul\":2785:2786   */\n      0x00\n        /* \"#utility.yul\":2782:2783   */\n      dup1\n        /* \"#utility.yul\":2775:2787   */\n      revert\n        /* \"#utility.yul\":2726:2789   */\n    tag_260:\n        /* \"#utility.yul\":2673:2795   */\n      pop\n      jump\t// out\n        /* \"#utility.yul\":2801:2940   */\n    tag_182:\n        /* \"#utility.yul\":2847:2852   */\n      0x00\n        /* \"#utility.yul\":2885:2891   */\n      dup2\n        /* \"#utility.yul\":2872:2892   */\n      calldataload\n        /* \"#utility.yul\":2863:2892   */\n      swap1\n      pop\n        /* \"#utility.yul\":2901:2934   */\n      tag_262\n        /* \"#utility.yul\":2928:2933   */\n      dup2\n        /* \"#utility.yul\":2901:2934   */\n      tag_181\n      jump\t// in\n    tag_262:\n        /* \"#utility.yul\":2801:2940   */\n      swap3\n      swap2\n      pop\n      pop\n      jump\t// out\n        /* \"#utility.yul\":2946:3275   */\n    tag_36:\n        /* \"#utility.yul\":3005:3011   */\n      0x00\n        /* \"#utility.yul\":3054:3056   */\n      0x20\n        /* \"#utility.yul\":3042:3051   */\n      dup3\n        /* \"#utility.yul\":3033:3040   */\n      dup5\n        /* \"#utility.yul\":3029:3052   */\n      sub\n        /* \"#utility.yul\":3025:3057   */\n      slt\n        /* \"#utility.yul\":3022:3141   */\n      iszero\n      tag_264\n      jumpi\n        /* \"#utility.yul\":3060:3139   */\n      tag_265\n      tag_175\n      jump\t// in\n    tag_265:\n        /* \"#utility.yul\":3022:3141   */\n    tag_264:\n        /* \"#utility.yul\":3180:3181   */\n      0x00\n        /* \"#utility.yul\":3205:3258   */\n      tag_266\n        /* \"#utility.yul\":3250:3257   */\n      dup5\n        /* \"#utility.yul\":3241:3247   */\n      dup3\n        /* \"#utility.yul\":3230:3239   */\n      dup6\n        /* \"#utility.yul\":3226:3248   */\n      add\n        /* \"#utility.yul\":3205:3258   */\n      tag_182\n      jump\t// in\n    tag_266:\n        /* \"#utility.yul\":3195:3258   */\n      swap2\n      pop\n        /* \"#utility.yul\":3151:3268   */\n      pop\n        /* \"#utility.yul\":2946:3275   */\n      swap3\n      swap2\n      pop\n      pop\n      jump\t// out\n        /* \"#utility.yul\":3281:3407   */\n    tag_183:\n        /* \"#utility.yul\":3318:3325   */\n      0x00\n        /* \"#utility.yul\":3358:3400   */\n      0xffffffffffffffffffffffffffffffffffffffff\n        /* \"#utility.yul\":3351:3356   */\n      dup3\n        /* \"#utility.yul\":3347:3401   */\n      and\n        /* \"#utility.yul\":3336:3401   */\n      swap1\n      pop\n        /* \"#utility.yul\":3281:3407   */\n      swap2\n      swap1\n      pop\n      jump\t// out\n        /* \"#utility.yul\":3413:3509   */\n    tag_184:\n        /* \"#utility.yul\":3450:3457   */\n      0x00\n        /* \"#utility.yul\":3479:3503   */\n      tag_269\n        /* \"#utility.yul\":3497:3502   */\n      dup3\n        /* \"#utility.yul\":3479:3503   */\n      tag_183\n      jump\t// in\n    tag_269:\n        /* \"#utility.yul\":3468:3503   */\n      swap1\n      pop\n        /* \"#utility.yul\":3413:3509   */\n      swap2\n      swap1\n      pop\n      jump\t// out\n        /* \"#utility.yul\":3515:3637   */\n    tag_185:\n        /* \"#utility.yul\":3588:3612   */\n      tag_271\n        /* \"#utility.yul\":3606:3611   */\n      dup2\n        /* \"#utility.yul\":3588:3612   */\n      tag_184\n      jump\t// in\n    tag_271:\n        /* \"#utility.yul\":3581:3586   */\n      dup2\n        /* \"#utility.yul\":3578:3613   */\n      eq\n        /* \"#utility.yul\":3568:3631   */\n      tag_272\n      jumpi\n        /* \"#utility.yul\":3627:3628   */\n      0x00\n        /* \"#utility.yul\":3624:3625   */\n      dup1\n        /* \"#utility.yul\":3617:3629   */\n      revert\n        /* \"#utility.yul\":3568:3631   */\n    tag_272:\n        /* \"#utility.yul\":3515:3637   */\n      pop\n      jump\t// out\n        /* \"#utility.yul\":3643:3782   */\n    tag_186:\n        /* \"#utility.yul\":3689:3694   */\n      0x00\n        /* \"#utility.yul\":3727:3733   */\n      dup2\n        /* \"#utility.yul\":3714:3734   */\n      calldataload\n        /* \"#utility.yul\":3705:3734   */\n      swap1\n      pop\n        /* \"#utility.yul\":3743:3776   */\n      tag_274\n        /* \"#utility.yul\":3770:3775   */\n      dup2\n        /* \"#utility.yul\":3743:3776   */\n      tag_185\n      jump\t// in\n    tag_274:\n        /* \"#utility.yul\":3643:3782   */\n      swap3\n      swap2\n      pop\n      pop\n      jump\t// out\n        /* \"#utility.yul\":3788:4117   */\n    tag_41:\n        /* \"#utility.yul\":3847:3853   */\n      0x00\n        /* \"#utility.yul\":3896:3898   */\n      0x20\n        /* \"#utility.yul\":3884:3893   */\n      dup3\n        /* \"#utility.yul\":3875:3882   */\n      dup5\n        /* \"#utility.yul\":3871:3894   */\n      sub\n        /* \"#utility.yul\":3867:3899   */\n      slt\n        /* \"#utility.yul\":3864:3983   */\n      iszero\n      tag_276\n      jumpi\n        /* \"#utility.yul\":3902:3981   */\n      tag_277\n      tag_175\n      jump\t// in\n    tag_277:\n        /* \"#utility.yul\":3864:3983   */\n    tag_276:\n        /* \"#utility.yul\":4022:4023   */\n      0x00\n        /* \"#utility.yul\":4047:4100   */\n      tag_278\n        /* \"#utility.yul\":4092:4099   */\n      dup5\n        /* \"#utility.yul\":4083:4089   */\n      dup3\n        /* \"#utility.yul\":4072:4081   */\n      dup6\n        /* \"#utility.yul\":4068:4090   */\n      add\n        /* \"#utility.yul\":4047:4100   */\n      tag_186\n      jump\t// in\n    tag_278:\n        /* \"#utility.yul\":4037:4100   */\n      swap2\n      pop\n        /* \"#utility.yul\":3993:4110   */\n      pop\n        /* \"#utility.yul\":3788:4117   */\n      swap3\n      swap2\n      pop\n      pop\n      jump\t// out\n        /* \"#utility.yul\":4123:4292   */\n    tag_187:\n        /* \"#utility.yul\":4207:4218   */\n      0x00\n        /* \"#utility.yul\":4241:4247   */\n      dup3\n        /* \"#utility.yul\":4236:4239   */\n      dup3\n        /* \"#utility.yul\":4229:4248   */\n      mstore\n        /* \"#utility.yul\":4281:4285   */\n      0x20\n        /* \"#utility.yul\":4276:4279   */\n      dup3\n        /* \"#utility.yul\":4272:4286   */\n      add\n        /* \"#utility.yul\":4257:4286   */\n      swap1\n      pop\n        /* \"#utility.yul\":4123:4292   */\n      swap3\n      swap2\n      pop\n      pop\n      jump\t// out\n        /* \"#utility.yul\":4298:4535   */\n    tag_188:\n        /* \"#utility.yul\":4438:4472   */\n      0x436f6d70616e79206973206e6f7420646973736f6c7574696e672c20796f7520\n        /* \"#utility.yul\":4434:4435   */\n      0x00\n        /* \"#utility.yul\":4426:4432   */\n      dup3\n        /* \"#utility.yul\":4422:4436   */\n      add\n        /* \"#utility.yul\":4415:4473   */\n      mstore\n        /* \"#utility.yul\":4507:4527   */\n      0x63616e6e6f7420626520726566756e6465640000000000000000000000000000\n        /* \"#utility.yul\":4502:4504   */\n      0x20\n        /* \"#utility.yul\":4494:4500   */\n      dup3\n        /* \"#utility.yul\":4490:4505   */\n      add\n        /* \"#utility.yul\":4483:4528   */\n      mstore\n        /* \"#utility.yul\":4298:4535   */\n      pop\n      jump\t// out\n        /* \"#utility.yul\":4541:4907   */\n    tag_189:\n        /* \"#utility.yul\":4683:4686   */\n      0x00\n        /* \"#utility.yul\":4704:4771   */\n      tag_282\n        /* \"#utility.yul\":4768:4770   */\n      0x32\n        /* \"#utility.yul\":4763:4766   */\n      dup4\n        /* \"#utility.yul\":4704:4771   */\n      tag_187\n      jump\t// in\n    tag_282:\n        /* \"#utility.yul\":4697:4771   */\n      swap2\n      pop\n        /* \"#utility.yul\":4780:4873   */\n      tag_283\n        /* \"#utility.yul\":4869:4872   */\n      dup3\n        /* \"#utility.yul\":4780:4873   */\n      tag_188\n      jump\t// in\n    tag_283:\n        /* \"#utility.yul\":4898:4900   */\n      0x40\n        /* \"#utility.yul\":4893:4896   */\n      dup3\n        /* \"#utility.yul\":4889:4901   */\n      add\n        /* \"#utility.yul\":4882:4901   */\n      swap1\n      pop\n        /* \"#utility.yul\":4541:4907   */\n      swap2\n      swap1\n      pop\n      jump\t// out\n        /* \"#utility.yul\":4913:5332   */\n    tag_55:\n        /* \"#utility.yul\":5079:5083   */\n      0x00\n        /* \"#utility.yul\":5117:5119   */\n      0x20\n        /* \"#utility.yul\":5106:5115   */\n      dup3\n        /* \"#utility.yul\":5102:5120   */\n      add\n        /* \"#utility.yul\":5094:5120   */\n      swap1\n      pop\n        /* \"#utility.yul\":5166:5175   */\n      dup2\n        /* \"#utility.yul\":5160:5164   */\n      dup2\n        /* \"#utility.yul\":5156:5176   */\n      sub\n        /* \"#utility.yul\":5152:5153   */\n      0x00\n        /* \"#utility.yul\":5141:5150   */\n      dup4\n        /* \"#utility.yul\":5137:5154   */\n      add\n        /* \"#utility.yul\":5130:5177   */\n      mstore\n        /* \"#utility.yul\":5194:5325   */\n      tag_285\n        /* \"#utility.yul\":5320:5324   */\n      dup2\n        /* \"#utility.yul\":5194:5325   */\n      tag_189\n      jump\t// in\n    tag_285:\n        /* \"#utility.yul\":5186:5325   */\n      swap1\n      pop\n        /* \"#utility.yul\":4913:5332   */\n      swap2\n      swap1\n      pop\n      jump\t// out\n        /* \"#utility.yul\":5338:5518   */\n    tag_58:\n        /* \"#utility.yul\":5386:5463   */\n      0x4e487b7100000000000000000000000000000000000000000000000000000000\n        /* \"#utility.yul\":5383:5384   */\n      0x00\n        /* \"#utility.yul\":5376:5464   */\n      mstore\n        /* \"#utility.yul\":5483:5487   */\n      0x01\n        /* \"#utility.yul\":5480:5481   */\n      0x04\n        /* \"#utility.yul\":5473:5488   */\n      mstore\n        /* \"#utility.yul\":5507:5511   */\n      0x24\n        /* \"#utility.yul\":5504:5505   */\n      0x00\n        /* \"#utility.yul\":5497:5512   */\n      revert\n        /* \"#utility.yul\":5524:5704   */\n    tag_190:\n        /* \"#utility.yul\":5572:5649   */\n      0x4e487b7100000000000000000000000000000000000000000000000000000000\n        /* \"#utility.yul\":5569:5570   */\n      0x00\n        /* \"#utility.yul\":5562:5650   */\n      mstore\n        /* \"#utility.yul\":5669:5673   */\n      0x11\n        /* \"#utility.yul\":5666:5667   */\n      0x04\n        /* \"#utility.yul\":5659:5674   */\n      mstore\n        /* \"#utility.yul\":5693:5697   */\n      0x24\n        /* \"#utility.yul\":5690:5691   */\n      0x00\n        /* \"#utility.yul\":5683:5698   */\n      revert\n        /* \"#utility.yul\":5710:5904   */\n    tag_60:\n        /* \"#utility.yul\":5750:5754   */\n      0x00\n        /* \"#utility.yul\":5770:5790   */\n      tag_289\n        /* \"#utility.yul\":5788:5789   */\n      dup3\n        /* \"#utility.yul\":5770:5790   */\n      tag_170\n      jump\t// in\n    tag_289:\n        /* \"#utility.yul\":5765:5790   */\n      swap2\n      pop\n        /* \"#utility.yul\":5804:5824   */\n      tag_290\n        /* \"#utility.yul\":5822:5823   */\n      dup4\n        /* \"#utility.yul\":5804:5824   */\n      tag_170\n      jump\t// in\n    tag_290:\n        /* \"#utility.yul\":5799:5824   */\n      swap3\n      pop\n        /* \"#utility.yul\":5848:5849   */\n      dup3\n        /* \"#utility.yul\":5845:5846   */\n      dup3\n        /* \"#utility.yul\":5841:5850   */\n      sub\n        /* \"#utility.yul\":5833:5850   */\n      swap1\n      pop\n        /* \"#utility.yul\":5872:5873   */\n      dup2\n        /* \"#utility.yul\":5866:5870   */\n      dup2\n        /* \"#utility.yul\":5863:5874   */\n      gt\n        /* \"#utility.yul\":5860:5897   */\n      iszero\n      tag_291\n      jumpi\n        /* \"#utility.yul\":5877:5895   */\n      tag_292\n      tag_190\n      jump\t// in\n    tag_292:\n        /* \"#utility.yul\":5860:5897   */\n    tag_291:\n        /* \"#utility.yul\":5710:5904   */\n      swap3\n      swap2\n      pop\n      pop\n      jump\t// out\n        /* \"#utility.yul\":5910:6134   */\n    tag_191:\n        /* \"#utility.yul\":6050:6084   */\n      0x596f7520617265206e6f74206173736f636961746564206e6f722063616e6469\n        /* \"#utility.yul\":6046:6047   */\n      0x00\n        /* \"#utility.yul\":6038:6044   */\n      dup3\n        /* \"#utility.yul\":6034:6048   */\n      add\n        /* \"#utility.yul\":6027:6085   */\n      mstore\n        /* \"#utility.yul\":6119:6126   */\n      0x6461746564000000000000000000000000000000000000000000000000000000\n        /* \"#utility.yul\":6114:6116   */\n      0x20\n        /* \"#utility.yul\":6106:6112   */\n      dup3\n        /* \"#utility.yul\":6102:6117   */\n      add\n        /* \"#utility.yul\":6095:6127   */\n      mstore\n        /* \"#utility.yul\":5910:6134   */\n      pop\n      jump\t// out\n        /* \"#utility.yul\":6140:6506   */\n    tag_192:\n        /* \"#utility.yul\":6282:6285   */\n      0x00\n        /* \"#utility.yul\":6303:6370   */\n      tag_295\n        /* \"#utility.yul\":6367:6369   */\n      0x25\n        /* \"#utility.yul\":6362:6365   */\n      dup4\n        /* \"#utility.yul\":6303:6370   */\n      tag_187\n      jump\t// in\n    tag_295:\n        /* \"#utility.yul\":6296:6370   */\n      swap2\n      pop\n        /* \"#utility.yul\":6379:6472   */\n      tag_296\n        /* \"#utility.yul\":6468:6471   */\n      dup3\n        /* \"#utility.yul\":6379:6472   */\n      tag_191\n      jump\t// in\n    tag_296:\n        /* \"#utility.yul\":6497:6499   */\n      0x40\n        /* \"#utility.yul\":6492:6495   */\n      dup3\n        /* \"#utility.yul\":6488:6500   */\n      add\n        /* \"#utility.yul\":6481:6500   */\n      swap1\n      pop\n        /* \"#utility.yul\":6140:6506   */\n      swap2\n      swap1\n      pop\n      jump\t// out\n        /* \"#utility.yul\":6512:6931   */\n    tag_72:\n        /* \"#utility.yul\":6678:6682   */\n      0x00\n        /* \"#utility.yul\":6716:6718   */\n      0x20\n        /* \"#utility.yul\":6705:6714   */\n      dup3\n        /* \"#utility.yul\":6701:6719   */\n      add\n        /* \"#utility.yul\":6693:6719   */\n      swap1\n      pop\n        /* \"#utility.yul\":6765:6774   */\n      dup2\n        /* \"#utility.yul\":6759:6763   */\n      dup2\n        /* \"#utility.yul\":6755:6775   */\n      sub\n        /* \"#utility.yul\":6751:6752   */\n      0x00\n        /* \"#utility.yul\":6740:6749   */\n      dup4\n        /* \"#utility.yul\":6736:6753   */\n      add\n        /* \"#utility.yul\":6729:6776   */\n      mstore\n        /* \"#utility.yul\":6793:6924   */\n      tag_298\n        /* \"#utility.yul\":6919:6923   */\n      dup2\n        /* \"#utility.yul\":6793:6924   */\n      tag_192\n      jump\t// in\n    tag_298:\n        /* \"#utility.yul\":6785:6924   */\n      swap1\n      pop\n        /* \"#utility.yul\":6512:6931   */\n      swap2\n      swap1\n      pop\n      jump\t// out\n        /* \"#utility.yul\":6937:7170   */\n    tag_193:\n        /* \"#utility.yul\":7077:7111   */\n      0x4f6e6c79206173736f636961746564206d656d626572732063616e2063616c6c\n        /* \"#utility.yul\":7073:7074   */\n      0x00\n        /* \"#utility.yul\":7065:7071   */\n      dup3\n        /* \"#utility.yul\":7061:7075   */\n      add\n        /* \"#utility.yul\":7054:7112   */\n      mstore\n        /* \"#utility.yul\":7146:7162   */\n      0x20746869732066756e6374696f6e000000000000000000000000000000000000\n        /* \"#utility.yul\":7141:7143   */\n      0x20\n        /* \"#utility.yul\":7133:7139   */\n      dup3\n        /* \"#utility.yul\":7129:7144   */\n      add\n        /* \"#utility.yul\":7122:7163   */\n      mstore\n        /* \"#utility.yul\":6937:7170   */\n      pop\n      jump\t// out\n        /* \"#utility.yul\":7176:7542   */\n    tag_194:\n        /* \"#utility.yul\":7318:7321   */\n      0x00\n        /* \"#utility.yul\":7339:7406   */\n      tag_301\n        /* \"#utility.yul\":7403:7405   */\n      0x2e\n        /* \"#utility.yul\":7398:7401   */\n      dup4\n        /* \"#utility.yul\":7339:7406   */\n      tag_187\n      jump\t// in\n    tag_301:\n        /* \"#utility.yul\":7332:7406   */\n      swap2\n      pop\n        /* \"#utility.yul\":7415:7508   */\n      tag_302\n        /* \"#utility.yul\":7504:7507   */\n      dup3\n        /* \"#utility.yul\":7415:7508   */\n      tag_193\n      jump\t// in\n    tag_302:\n        /* \"#utility.yul\":7533:7535   */\n      0x40\n        /* \"#utility.yul\":7528:7531   */\n      dup3\n        /* \"#utility.yul\":7524:7536   */\n      add\n        /* \"#utility.yul\":7517:7536   */\n      swap1\n      pop\n        /* \"#utility.yul\":7176:7542   */\n      swap2\n      swap1\n      pop\n      jump\t// out\n        /* \"#utility.yul\":7548:7967   */\n    tag_76:\n        /* \"#utility.yul\":7714:7718   */\n      0x00\n        /* \"#utility.yul\":7752:7754   */\n      0x20\n        /* \"#utility.yul\":7741:7750   */\n      dup3\n        /* \"#utility.yul\":7737:7755   */\n      add\n        /* \"#utility.yul\":7729:7755   */\n      swap1\n      pop\n        /* \"#utility.yul\":7801:7810   */\n      dup2\n        /* \"#utility.yul\":7795:7799   */\n      dup2\n        /* \"#utility.yul\":7791:7811   */\n      sub\n        /* \"#utility.yul\":7787:7788   */\n      0x00\n        /* \"#utility.yul\":7776:7785   */\n      dup4\n        /* \"#utility.yul\":7772:7789   */\n      add\n        /* \"#utility.yul\":7765:7812   */\n      mstore\n        /* \"#utility.yul\":7829:7960   */\n      tag_304\n        /* \"#utility.yul\":7955:7959   */\n      dup2\n        /* \"#utility.yul\":7829:7960   */\n      tag_194\n      jump\t// in\n    tag_304:\n        /* \"#utility.yul\":7821:7960   */\n      swap1\n      pop\n        /* \"#utility.yul\":7548:7967   */\n      swap2\n      swap1\n      pop\n      jump\t// out\n        /* \"#utility.yul\":7973:8147   */\n    tag_195:\n        /* \"#utility.yul\":8113:8139   */\n      0x436f72706f7261746520697320646973736f6c7574696e670000000000000000\n        /* \"#utility.yul\":8109:8110   */\n      0x00\n        /* \"#utility.yul\":8101:8107   */\n      dup3\n        /* \"#utility.yul\":8097:8111   */\n      add\n        /* \"#utility.yul\":8090:8140   */\n      mstore\n        /* \"#utility.yul\":7973:8147   */\n      pop\n      jump\t// out\n        /* \"#utility.yul\":8153:8519   */\n    tag_196:\n        /* \"#utility.yul\":8295:8298   */\n      0x00\n        /* \"#utility.yul\":8316:8383   */\n      tag_307\n        /* \"#utility.yul\":8380:8382   */\n      0x18\n        /* \"#utility.yul\":8375:8378   */\n      dup4\n        /* \"#utility.yul\":8316:8383   */\n      tag_187\n      jump\t// in\n    tag_307:\n        /* \"#utility.yul\":8309:8383   */\n      swap2\n      pop\n        /* \"#utility.yul\":8392:8485   */\n      tag_308\n        /* \"#utility.yul\":8481:8484   */\n      dup3\n        /* \"#utility.yul\":8392:8485   */\n      tag_195\n      jump\t// in\n    tag_308:\n        /* \"#utility.yul\":8510:8512   */\n      0x20\n        /* \"#utility.yul\":8505:8508   */\n      dup3\n        /* \"#utility.yul\":8501:8513   */\n      add\n        /* \"#utility.yul\":8494:8513   */\n      swap1\n      pop\n        /* \"#utility.yul\":8153:8519   */\n      swap2\n      swap1\n      pop\n      jump\t// out\n        /* \"#utility.yul\":8525:8944   */\n    tag_80:\n        /* \"#utility.yul\":8691:8695   */\n      0x00\n        /* \"#utility.yul\":8729:8731   */\n      0x20\n        /* \"#utility.yul\":8718:8727   */\n      dup3\n        /* \"#utility.yul\":8714:8732   */\n      add\n        /* \"#utility.yul\":8706:8732   */\n      swap1\n      pop\n        /* \"#utility.yul\":8778:8787   */\n      dup2\n        /* \"#utility.yul\":8772:8776   */\n      dup2\n        /* \"#utility.yul\":8768:8788   */\n      sub\n        /* \"#utility.yul\":8764:8765   */\n      0x00\n        /* \"#utility.yul\":8753:8762   */\n      dup4\n        /* \"#utility.yul\":8749:8766   */\n      add\n        /* \"#utility.yul\":8742:8789   */\n      mstore\n        /* \"#utility.yul\":8806:8937   */\n      tag_310\n        /* \"#utility.yul\":8932:8936   */\n      dup2\n        /* \"#utility.yul\":8806:8937   */\n      tag_196\n      jump\t// in\n    tag_310:\n        /* \"#utility.yul\":8798:8937   */\n      swap1\n      pop\n        /* \"#utility.yul\":8525:8944   */\n      swap2\n      swap1\n      pop\n      jump\t// out\n        /* \"#utility.yul\":8950:9183   */\n    tag_83:\n        /* \"#utility.yul\":8989:8992   */\n      0x00\n        /* \"#utility.yul\":9012:9036   */\n      tag_312\n        /* \"#utility.yul\":9030:9035   */\n      dup3\n        /* \"#utility.yul\":9012:9036   */\n      tag_170\n      jump\t// in\n    tag_312:\n        /* \"#utility.yul\":9003:9036   */\n      swap2\n      pop\n        /* \"#utility.yul\":9058:9124   */\n      0xffffffffffffffffffffffffffffffffffffffffffffffffffffffffffffffff\n        /* \"#utility.yul\":9051:9056   */\n      dup3\n        /* \"#utility.yul\":9048:9125   */\n      sub\n        /* \"#utility.yul\":9045:9148   */\n      tag_313\n      jumpi\n        /* \"#utility.yul\":9128:9146   */\n      tag_314\n      tag_190\n      jump\t// in\n    tag_314:\n        /* \"#utility.yul\":9045:9148   */\n    tag_313:\n        /* \"#utility.yul\":9175:9176   */\n      0x01\n        /* \"#utility.yul\":9168:9173   */\n      dup3\n        /* \"#utility.yul\":9164:9177   */\n      add\n        /* \"#utility.yul\":9157:9177   */\n      swap1\n      pop\n        /* \"#utility.yul\":8950:9183   */\n      swap2\n      swap1\n      pop\n      jump\t// out\n        /* \"#utility.yul\":9189:9369   */\n    tag_86:\n        /* \"#utility.yul\":9237:9314   */\n      0x4e487b7100000000000000000000000000000000000000000000000000000000\n        /* \"#utility.yul\":9234:9235   */\n      0x00\n        /* \"#utility.yul\":9227:9315   */\n      mstore\n        /* \"#utility.yul\":9334:9338   */\n      0x21\n        /* \"#utility.yul\":9331:9332   */\n      0x04\n        /* \"#utility.yul\":9324:9339   */\n      mstore\n        /* \"#utility.yul\":9358:9362   */\n      0x24\n        /* \"#utility.yul\":9355:9356   */\n      0x00\n        /* \"#utility.yul\":9348:9363   */\n      revert\n        /* \"#utility.yul\":9375:9472   */\n    tag_197:\n        /* \"#utility.yul\":9434:9440   */\n      0x00\n        /* \"#utility.yul\":9462:9465   */\n      dup3\n        /* \"#utility.yul\":9452:9465   */\n      swap1\n      pop\n        /* \"#utility.yul\":9375:9472   */\n      swap3\n      swap2\n      pop\n      pop\n      jump\t// out\n        /* \"#utility.yul\":9478:9658   */\n    tag_198:\n        /* \"#utility.yul\":9526:9603   */\n      0x4e487b7100000000000000000000000000000000000000000000000000000000\n        /* \"#utility.yul\":9523:9524   */\n      0x00\n        /* \"#utility.yul\":9516:9604   */\n      mstore\n        /* \"#utility.yul\":9623:9627   */\n      0x41\n        /* \"#utility.yul\":9620:9621   */\n      0x04\n        /* \"#utility.yul\":9613:9628   */\n      mstore\n        /* \"#utility.yul\":9647:9651   */\n      0x24\n        /* \"#utility.yul\":9644:9645   */\n      0x00\n        /* \"#utility.yul\":9637:9652   */\n      revert\n        /* \"#utility.yul\":9664:9844   */\n    tag_199:\n        /* \"#utility.yul\":9712:9789   */\n      0x4e487b7100000000000000000000000000000000000000000000000000000000\n        /* \"#utility.yul\":9709:9710   */\n      0x00\n        /* \"#utility.yul\":9702:9790   */\n      mstore\n        /* \"#utility.yul\":9809:9813   */\n      0x22\n        /* \"#utility.yul\":9806:9807   */\n      0x04\n        /* \"#utility.yul\":9799:9814   */\n      mstore\n        /* \"#utility.yul\":9833:9837   */\n      0x24\n        /* \"#utility.yul\":9830:9831   */\n      0x00\n        /* \"#utility.yul\":9823:9838   */\n      revert\n        /* \"#utility.yul\":9850:10170   */\n    tag_200:\n        /* \"#utility.yul\":9894:9900   */\n      0x00\n        /* \"#utility.yul\":9931:9932   */\n      0x02\n        /* \"#utility.yul\":9925:9929   */\n      dup3\n        /* \"#utility.yul\":9921:9933   */\n      div\n        /* \"#utility.yul\":9911:9933   */\n      swap1\n      pop\n        /* \"#utility.yul\":9978:9979   */\n      0x01\n        /* \"#utility.yul\":9972:9976   */\n      dup3\n        /* \"#utility.yul\":9968:9980   */\n      and\n        /* \"#utility.yul\":9999:10017   */\n      dup1\n        /* \"#utility.yul\":9989:10070   */\n      tag_320\n      jumpi\n        /* \"#utility.yul\":10055:10059   */\n      0x7f\n        /* \"#utility.yul\":10047:10053   */\n      dup3\n        /* \"#utility.yul\":10043:10060   */\n      and\n        /* \"#utility.yul\":10033:10060   */\n      swap2\n      pop\n        /* \"#utility.yul\":9989:10070   */\n    tag_320:\n        /* \"#utility.yul\":10117:10119   */\n      0x20\n        /* \"#utility.yul\":10109:10115   */\n      dup3\n        /* \"#utility.yul\":10106:10120   */\n      lt\n        /* \"#utility.yul\":10086:10104   */\n      dup2\n        /* \"#utility.yul\":10083:10121   */\n      sub\n        /* \"#utility.yul\":10080:10164   */\n      tag_321\n      jumpi\n        /* \"#utility.yul\":10136:10154   */\n      tag_322\n      tag_199\n      jump\t// in\n    tag_322:\n        /* \"#utility.yul\":10080:10164   */\n    tag_321:\n        /* \"#utility.yul\":9901:10170   */\n      pop\n        /* \"#utility.yul\":9850:10170   */\n      swap2\n      swap1\n      pop\n      jump\t// out\n        /* \"#utility.yul\":10176:10317   */\n    tag_201:\n        /* \"#utility.yul\":10225:10229   */\n      0x00\n        /* \"#utility.yul\":10248:10251   */\n      dup2\n        /* \"#utility.yul\":10240:10251   */\n      swap1\n      pop\n        /* \"#utility.yul\":10271:10274   */\n      dup2\n        /* \"#utility.yul\":10268:10269   */\n      0x00\n        /* \"#utility.yul\":10261:10275   */\n      mstore\n        /* \"#utility.yul\":10305:10309   */\n      0x20\n        /* \"#utility.yul\":10302:10303   */\n      0x00\n        /* \"#utility.yul\":10292:10310   */\n      keccak256\n        /* \"#utility.yul\":10284:10310   */\n      swap1\n      pop\n        /* \"#utility.yul\":10176:10317   */\n      swap2\n      swap1\n      pop\n      jump\t// out\n        /* \"#utility.yul\":10323:10416   */\n    tag_202:\n        /* \"#utility.yul\":10360:10366   */\n      0x00\n        /* \"#utility.yul\":10407:10409   */\n      0x20\n        /* \"#utility.yul\":10402:10404   */\n      0x1f\n        /* \"#utility.yul\":10395:10400   */\n      dup4\n        /* \"#utility.yul\":10391:10405   */\n      add\n        /* \"#utility.yul\":10387:10410   */\n      div\n        /* \"#utility.yul\":10377:10410   */\n      swap1\n      pop\n        /* \"#utility.yul\":10323:10416   */\n      swap2\n      swap1\n      pop\n      jump\t// out\n        /* \"#utility.yul\":10422:10529   */\n    tag_203:\n        /* \"#utility.yul\":10466:10474   */\n      0x00\n        /* \"#utility.yul\":10516:10521   */\n      dup3\n        /* \"#utility.yul\":10510:10514   */\n      dup3\n        /* \"#utility.yul\":10506:10522   */\n      shl\n        /* \"#utility.yul\":10485:10522   */\n      swap1\n      pop\n        /* \"#utility.yul\":10422:10529   */\n      swap3\n      swap2\n      pop\n      pop\n      jump\t// out\n        /* \"#utility.yul\":10535:10928   */\n    tag_204:\n        /* \"#utility.yul\":10604:10610   */\n      0x00\n        /* \"#utility.yul\":10654:10655   */\n      0x08\n        /* \"#utility.yul\":10642:10652   */\n      dup4\n        /* \"#utility.yul\":10638:10656   */\n      mul\n        /* \"#utility.yul\":10677:10774   */\n      tag_327\n        /* \"#utility.yul\":10707:10773   */\n      0xffffffffffffffffffffffffffffffffffffffffffffffffffffffffffffffff\n        /* \"#utility.yul\":10696:10705   */\n      dup3\n        /* \"#utility.yul\":10677:10774   */\n      tag_203\n      jump\t// in\n    tag_327:\n        /* \"#utility.yul\":10795:10834   */\n      tag_328\n        /* \"#utility.yul\":10825:10833   */\n      dup7\n        /* \"#utility.yul\":10814:10823   */\n      dup4\n        /* \"#utility.yul\":10795:10834   */\n      tag_203\n      jump\t// in\n    tag_328:\n        /* \"#utility.yul\":10783:10834   */\n      swap6\n      pop\n        /* \"#utility.yul\":10867:10871   */\n      dup1\n        /* \"#utility.yul\":10863:10872   */\n      not\n        /* \"#utility.yul\":10856:10861   */\n      dup5\n        /* \"#utility.yul\":10852:10873   */\n      and\n        /* \"#utility.yul\":10843:10873   */\n      swap4\n      pop\n        /* \"#utility.yul\":10916:10920   */\n      dup1\n        /* \"#utility.yul\":10906:10914   */\n      dup7\n        /* \"#utility.yul\":10902:10921   */\n      and\n        /* \"#utility.yul\":10895:10900   */\n      dup5\n        /* \"#utility.yul\":10892:10922   */\n      or\n        /* \"#utility.yul\":10882:10922   */\n      swap3\n      pop\n        /* \"#utility.yul\":10611:10928   */\n      pop\n      pop\n        /* \"#utility.yul\":10535:10928   */\n      swap4\n      swap3\n      pop\n      pop\n      pop\n      jump\t// out\n        /* \"#utility.yul\":10934:10994   */\n    tag_205:\n        /* \"#utility.yul\":10962:10965   */\n      0x00\n        /* \"#utility.yul\":10983:10988   */\n      dup2\n        /* \"#utility.yul\":10976:10988   */\n      swap1\n      pop\n        /* \"#utility.yul\":10934:10994   */\n      swap2\n      swap1\n      pop\n      jump\t// out\n        /* \"#utility.yul\":11000:11142   */\n    tag_206:\n        /* \"#utility.yul\":11050:11059   */\n      0x00\n        /* \"#utility.yul\":11083:11136   */\n      tag_331\n        /* \"#utility.yul\":11101:11135   */\n      tag_332\n        /* \"#utility.yul\":11110:11134   */\n      tag_333\n        /* \"#utility.yul\":11128:11133   */\n      dup5\n        /* \"#utility.yul\":11110:11134   */\n      tag_170\n      jump\t// in\n    tag_333:\n        /* \"#utility.yul\":11101:11135   */\n      tag_205\n      jump\t// in\n    tag_332:\n        /* \"#utility.yul\":11083:11136   */\n      tag_170\n      jump\t// in\n    tag_331:\n        /* \"#utility.yul\":11070:11136   */\n      swap1\n      pop\n        /* \"#utility.yul\":11000:11142   */\n      swap2\n      swap1\n      pop\n      jump\t// out\n        /* \"#utility.yul\":11148:11223   */\n    tag_207:\n        /* \"#utility.yul\":11191:11194   */\n      0x00\n        /* \"#utility.yul\":11212:11217   */\n      dup2\n        /* \"#utility.yul\":11205:11217   */\n      swap1\n      pop\n        /* \"#utility.yul\":11148:11223   */\n      swap2\n      swap1\n      pop\n      jump\t// out\n        /* \"#utility.yul\":11229:11498   */\n    tag_208:\n        /* \"#utility.yul\":11339:11378   */\n      tag_336\n        /* \"#utility.yul\":11370:11377   */\n      dup4\n        /* \"#utility.yul\":11339:11378   */\n      tag_206\n      jump\t// in\n    tag_336:\n        /* \"#utility.yul\":11400:11491   */\n      tag_337\n        /* \"#utility.yul\":11449:11490   */\n      tag_338\n        /* \"#utility.yul\":11473:11489   */\n      dup3\n        /* \"#utility.yul\":11449:11490   */\n      tag_207\n      jump\t// in\n    tag_338:\n        /* \"#utility.yul\":11441:11447   */\n      dup5\n        /* \"#utility.yul\":11434:11438   */\n      dup5\n        /* \"#utility.yul\":11428:11439   */\n      sload\n        /* \"#utility.yul\":11400:11491   */\n      tag_204\n      jump\t// in\n    tag_337:\n        /* \"#utility.yul\":11394:11398   */\n      dup3\n        /* \"#utility.yul\":11387:11492   */\n      sstore\n        /* \"#utility.yul\":11305:11498   */\n      pop\n        /* \"#utility.yul\":11229:11498   */\n      pop\n      pop\n      pop\n      jump\t// out\n        /* \"#utility.yul\":11504:11577   */\n    tag_209:\n        /* \"#utility.yul\":11549:11552   */\n      0x00\n        /* \"#utility.yul\":11504:11577   */\n      swap1\n      jump\t// out\n        /* \"#utility.yul\":11583:11772   */\n    tag_210:\n        /* \"#utility.yul\":11660:11692   */\n      tag_341\n      tag_209\n      jump\t// in\n    tag_341:\n        /* \"#utility.yul\":11701:11766   */\n      tag_342\n        /* \"#utility.yul\":11759:11765   */\n      dup2\n        /* \"#utility.yul\":11751:11757   */\n      dup5\n        /* \"#utility.yul\":11745:11749   */\n      dup5\n        /* \"#utility.yul\":11701:11766   */\n      tag_208\n      jump\t// in\n    tag_342:\n        /* \"#utility.yul\":11636:11772   */\n      pop\n        /* \"#utility.yul\":11583:11772   */\n      pop\n      pop\n      jump\t// out\n        /* \"#utility.yul\":11778:11964   */\n    tag_211:\n        /* \"#utility.yul\":11838:11958   */\n    tag_344:\n        /* \"#utility.yul\":11855:11858   */\n      dup2\n        /* \"#utility.yul\":11848:11853   */\n      dup2\n        /* \"#utility.yul\":11845:11859   */\n      lt\n        /* \"#utility.yul\":11838:11958   */\n      iszero\n      tag_346\n      jumpi\n        /* \"#utility.yul\":11909:11948   */\n      tag_347\n        /* \"#utility.yul\":11946:11947   */\n      0x00\n        /* \"#utility.yul\":11939:11944   */\n      dup3\n        /* \"#utility.yul\":11909:11948   */\n      tag_210\n      jump\t// in\n    tag_347:\n        /* \"#utility.yul\":11882:11883   */\n      0x01\n        /* \"#utility.yul\":11875:11880   */\n      dup2\n        /* \"#utility.yul\":11871:11884   */\n      add\n        /* \"#utility.yul\":11862:11884   */\n      swap1\n      pop\n        /* \"#utility.yul\":11838:11958   */\n      jump(tag_344)\n    tag_346:\n        /* \"#utility.yul\":11778:11964   */\n      pop\n      pop\n      jump\t// out\n        /* \"#utility.yul\":11970:12513   */\n    tag_212:\n        /* \"#utility.yul\":12071:12073   */\n      0x1f\n        /* \"#utility.yul\":12066:12069   */\n      dup3\n        /* \"#utility.yul\":12063:12074   */\n      gt\n        /* \"#utility.yul\":12060:12506   */\n      iszero\n      tag_349\n      jumpi\n        /* \"#utility.yul\":12105:12143   */\n      tag_350\n        /* \"#utility.yul\":12137:12142   */\n      dup2\n        /* \"#utility.yul\":12105:12143   */\n      tag_201\n      jump\t// in\n    tag_350:\n        /* \"#utility.yul\":12189:12218   */\n      tag_351\n        /* \"#utility.yul\":12207:12217   */\n      dup5\n        /* \"#utility.yul\":12189:12218   */\n      tag_202\n      jump\t// in\n    tag_351:\n        /* \"#utility.yul\":12179:12187   */\n      dup2\n        /* \"#utility.yul\":12175:12219   */\n      add\n        /* \"#utility.yul\":12372:12374   */\n      0x20\n        /* \"#utility.yul\":12360:12370   */\n      dup6\n        /* \"#utility.yul\":12357:12375   */\n      lt\n        /* \"#utility.yul\":12354:12403   */\n      iszero\n      tag_352\n      jumpi\n        /* \"#utility.yul\":12393:12401   */\n      dup2\n        /* \"#utility.yul\":12378:12401   */\n      swap1\n      pop\n        /* \"#utility.yul\":12354:12403   */\n    tag_352:\n        /* \"#utility.yul\":12416:12496   */\n      tag_353\n        /* \"#utility.yul\":12472:12494   */\n      tag_354\n        /* \"#utility.yul\":12490:12493   */\n      dup6\n        /* \"#utility.yul\":12472:12494   */\n      tag_202\n      jump\t// in\n    tag_354:\n        /* \"#utility.yul\":12462:12470   */\n      dup4\n        /* \"#utility.yul\":12458:12495   */\n      add\n        /* \"#utility.yul\":12445:12456   */\n      dup3\n        /* \"#utility.yul\":12416:12496   */\n      tag_211\n      jump\t// in\n    tag_353:\n        /* \"#utility.yul\":12075:12506   */\n      pop\n      pop\n        /* \"#utility.yul\":12060:12506   */\n    tag_349:\n        /* \"#utility.yul\":11970:12513   */\n      pop\n      pop\n      pop\n      jump\t// out\n        /* \"#utility.yul\":12519:12636   */\n    tag_213:\n        /* \"#utility.yul\":12573:12581   */\n      0x00\n        /* \"#utility.yul\":12623:12628   */\n      dup3\n        /* \"#utility.yul\":12617:12621   */\n      dup3\n        /* \"#utility.yul\":12613:12629   */\n      shr\n        /* \"#utility.yul\":12592:12629   */\n      swap1\n      pop\n        /* \"#utility.yul\":12519:12636   */\n      swap3\n      swap2\n      pop\n      pop\n      jump\t// out\n        /* \"#utility.yul\":12642:12811   */\n    tag_214:\n        /* \"#utility.yul\":12686:12692   */\n      0x00\n        /* \"#utility.yul\":12719:12770   */\n      tag_357\n        /* \"#utility.yul\":12767:12768   */\n      0x00\n        /* \"#utility.yul\":12763:12769   */\n      not\n        /* \"#utility.yul\":12755:12760   */\n      dup5\n        /* \"#utility.yul\":12752:12753   */\n      0x08\n        /* \"#utility.yul\":12748:12761   */\n      mul\n        /* \"#utility.yul\":12719:12770   */\n      tag_213\n      jump\t// in\n    tag_357:\n        /* \"#utility.yul\":12715:12771   */\n      not\n        /* \"#utility.yul\":12800:12804   */\n      dup1\n        /* \"#utility.yul\":12794:12798   */\n      dup4\n        /* \"#utility.yul\":12790:12805   */\n      and\n        /* \"#utility.yul\":12780:12805   */\n      swap2\n      pop\n        /* \"#utility.yul\":12693:12811   */\n      pop\n        /* \"#utility.yul\":12642:12811   */\n      swap3\n      swap2\n      pop\n      pop\n      jump\t// out\n        /* \"#utility.yul\":12816:13111   */\n    tag_215:\n        /* \"#utility.yul\":12892:12896   */\n      0x00\n        /* \"#utility.yul\":13038:13067   */\n      tag_359\n        /* \"#utility.yul\":13063:13066   */\n      dup4\n        /* \"#utility.yul\":13057:13061   */\n      dup4\n        /* \"#utility.yul\":13038:13067   */\n      tag_214\n      jump\t// in\n    tag_359:\n        /* \"#utility.yul\":13030:13067   */\n      swap2\n      pop\n        /* \"#utility.yul\":13100:13103   */\n      dup3\n        /* \"#utility.yul\":13097:13098   */\n      0x02\n        /* \"#utility.yul\":13093:13104   */\n      mul\n        /* \"#utility.yul\":13087:13091   */\n      dup3\n        /* \"#utility.yul\":13084:13105   */\n      or\n        /* \"#utility.yul\":13076:13105   */\n      swap1\n      pop\n        /* \"#utility.yul\":12816:13111   */\n      swap3\n      swap2\n      pop\n      pop\n      jump\t// out\n        /* \"#utility.yul\":13116:14519   */\n    tag_99:\n        /* \"#utility.yul\":13240:13284   */\n      tag_361\n        /* \"#utility.yul\":13280:13283   */\n      dup4\n        /* \"#utility.yul\":13275:13278   */\n      dup4\n        /* \"#utility.yul\":13240:13284   */\n      tag_197\n      jump\t// in\n    tag_361:\n        /* \"#utility.yul\":13349:13367   */\n      0xffffffffffffffff\n        /* \"#utility.yul\":13341:13347   */\n      dup2\n        /* \"#utility.yul\":13338:13368   */\n      gt\n        /* \"#utility.yul\":13335:13391   */\n      iszero\n      tag_362\n      jumpi\n        /* \"#utility.yul\":13371:13389   */\n      tag_363\n      tag_198\n      jump\t// in\n    tag_363:\n        /* \"#utility.yul\":13335:13391   */\n    tag_362:\n        /* \"#utility.yul\":13415:13453   */\n      tag_364\n        /* \"#utility.yul\":13447:13451   */\n      dup3\n        /* \"#utility.yul\":13441:13452   */\n      sload\n        /* \"#utility.yul\":13415:13453   */\n      tag_200\n      jump\t// in\n    tag_364:\n        /* \"#utility.yul\":13500:13567   */\n      tag_365\n        /* \"#utility.yul\":13560:13566   */\n      dup3\n        /* \"#utility.yul\":13552:13558   */\n      dup3\n        /* \"#utility.yul\":13546:13550   */\n      dup6\n        /* \"#utility.yul\":13500:13567   */\n      tag_212\n      jump\t// in\n    tag_365:\n        /* \"#utility.yul\":13594:13595   */\n      0x00\n        /* \"#utility.yul\":13623:13625   */\n      0x1f\n        /* \"#utility.yul\":13615:13621   */\n      dup4\n        /* \"#utility.yul\":13612:13626   */\n      gt\n        /* \"#utility.yul\":13640:13641   */\n      0x01\n        /* \"#utility.yul\":13635:14267   */\n      dup2\n      eq\n      tag_367\n      jumpi\n        /* \"#utility.yul\":14311:14312   */\n      0x00\n        /* \"#utility.yul\":14328:14334   */\n      dup5\n        /* \"#utility.yul\":14325:14409   */\n      iszero\n      tag_368\n      jumpi\n        /* \"#utility.yul\":14384:14393   */\n      dup3\n        /* \"#utility.yul\":14379:14382   */\n      dup8\n        /* \"#utility.yul\":14375:14394   */\n      add\n        /* \"#utility.yul\":14362:14395   */\n      calldataload\n        /* \"#utility.yul\":14353:14395   */\n      swap1\n      pop\n        /* \"#utility.yul\":14325:14409   */\n    tag_368:\n        /* \"#utility.yul\":14435:14502   */\n      tag_369\n        /* \"#utility.yul\":14495:14501   */\n      dup6\n        /* \"#utility.yul\":14488:14493   */\n      dup3\n        /* \"#utility.yul\":14435:14502   */\n      tag_215\n      jump\t// in\n    tag_369:\n        /* \"#utility.yul\":14429:14433   */\n      dup7\n        /* \"#utility.yul\":14422:14503   */\n      sstore\n        /* \"#utility.yul\":14284:14513   */\n      pop\n        /* \"#utility.yul\":13605:14513   */\n      jump(tag_366)\n        /* \"#utility.yul\":13635:14267   */\n    tag_367:\n        /* \"#utility.yul\":13687:13691   */\n      0x1f\n        /* \"#utility.yul\":13683:13692   */\n      not\n        /* \"#utility.yul\":13675:13681   */\n      dup5\n        /* \"#utility.yul\":13671:13693   */\n      and\n        /* \"#utility.yul\":13721:13758   */\n      tag_370\n        /* \"#utility.yul\":13753:13757   */\n      dup7\n        /* \"#utility.yul\":13721:13758   */\n      tag_201\n      jump\t// in\n    tag_370:\n        /* \"#utility.yul\":13780:13781   */\n      0x00\n        /* \"#utility.yul\":13794:14009   */\n    tag_371:\n        /* \"#utility.yul\":13808:13815   */\n      dup3\n        /* \"#utility.yul\":13805:13806   */\n      dup2\n        /* \"#utility.yul\":13802:13816   */\n      lt\n        /* \"#utility.yul\":13794:14009   */\n      iszero\n      tag_373\n      jumpi\n        /* \"#utility.yul\":13894:13903   */\n      dup5\n        /* \"#utility.yul\":13889:13892   */\n      dup10\n        /* \"#utility.yul\":13885:13904   */\n      add\n        /* \"#utility.yul\":13872:13905   */\n      calldataload\n        /* \"#utility.yul\":13864:13870   */\n      dup3\n        /* \"#utility.yul\":13857:13906   */\n      sstore\n        /* \"#utility.yul\":13945:13946   */\n      0x01\n        /* \"#utility.yul\":13937:13943   */\n      dup3\n        /* \"#utility.yul\":13933:13947   */\n      add\n        /* \"#utility.yul\":13923:13947   */\n      swap2\n      pop\n        /* \"#utility.yul\":13992:13994   */\n      0x20\n        /* \"#utility.yul\":13981:13990   */\n      dup6\n        /* \"#utility.yul\":13977:13995   */\n      add\n        /* \"#utility.yul\":13964:13995   */\n      swap5\n      pop\n        /* \"#utility.yul\":13831:13835   */\n      0x20\n        /* \"#utility.yul\":13828:13829   */\n      dup2\n        /* \"#utility.yul\":13824:13836   */\n      add\n        /* \"#utility.yul\":13819:13836   */\n      swap1\n      pop\n        /* \"#utility.yul\":13794:14009   */\n      jump(tag_371)\n    tag_373:\n        /* \"#utility.yul\":14037:14043   */\n      dup7\n        /* \"#utility.yul\":14028:14035   */\n      dup4\n        /* \"#utility.yul\":14025:14044   */\n      lt\n        /* \"#utility.yul\":14022:14208   */\n      iszero\n      tag_374\n      jumpi\n        /* \"#utility.yul\":14102:14111   */\n      dup5\n        /* \"#utility.yul\":14097:14100   */\n      dup10\n        /* \"#utility.yul\":14093:14112   */\n      add\n        /* \"#utility.yul\":14080:14113   */\n      calldataload\n        /* \"#utility.yul\":14145:14193   */\n      tag_375\n        /* \"#utility.yul\":14187:14191   */\n      0x1f\n        /* \"#utility.yul\":14179:14185   */\n      dup10\n        /* \"#utility.yul\":14175:14192   */\n      and\n        /* \"#utility.yul\":14164:14173   */\n      dup3\n        /* \"#utility.yul\":14145:14193   */\n      tag_214\n      jump\t// in\n    tag_375:\n        /* \"#utility.yul\":14137:14143   */\n      dup4\n        /* \"#utility.yul\":14130:14194   */\n      sstore\n        /* \"#utility.yul\":14045:14208   */\n      pop\n        /* \"#utility.yul\":14022:14208   */\n    tag_374:\n        /* \"#utility.yul\":14254:14255   */\n      0x01\n        /* \"#utility.yul\":14250:14251   */\n      0x02\n        /* \"#utility.yul\":14242:14248   */\n      dup9\n        /* \"#utility.yul\":14238:14252   */\n      mul\n        /* \"#utility.yul\":14234:14256   */\n      add\n        /* \"#utility.yul\":14228:14232   */\n      dup9\n        /* \"#utility.yul\":14221:14257   */\n      sstore\n        /* \"#utility.yul\":13642:14267   */\n      pop\n      pop\n      pop\n        /* \"#utility.yul\":13605:14513   */\n    tag_366:\n      pop\n        /* \"#utility.yul\":13215:14519   */\n      pop\n      pop\n      pop\n        /* \"#utility.yul\":13116:14519   */\n      pop\n      pop\n      pop\n      jump\t// out\n        /* \"#utility.yul\":14525:14673   */\n    tag_216:\n        /* \"#utility.yul\":14623:14629   */\n      dup3\n        /* \"#utility.yul\":14618:14621   */\n      dup2\n        /* \"#utility.yul\":14613:14616   */\n      dup4\n        /* \"#utility.yul\":14600:14630   */\n      calldatacopy\n        /* \"#utility.yul\":14664:14665   */\n      0x00\n        /* \"#utility.yul\":14655:14661   */\n      dup4\n        /* \"#utility.yul\":14650:14653   */\n      dup4\n        /* \"#utility.yul\":14646:14662   */\n      add\n        /* \"#utility.yul\":14639:14666   */\n      mstore\n        /* \"#utility.yul\":14525:14673   */\n      pop\n      pop\n      pop\n      jump\t// out\n        /* \"#utility.yul\":14679:14781   */\n    tag_217:\n        /* \"#utility.yul\":14720:14726   */\n      0x00\n        /* \"#utility.yul\":14771:14773   */\n      0x1f\n        /* \"#utility.yul\":14767:14774   */\n      not\n        /* \"#utility.yul\":14762:14764   */\n      0x1f\n        /* \"#utility.yul\":14755:14760   */\n      dup4\n        /* \"#utility.yul\":14751:14765   */\n      add\n        /* \"#utility.yul\":14747:14775   */\n      and\n        /* \"#utility.yul\":14737:14775   */\n      swap1\n      pop\n        /* \"#utility.yul\":14679:14781   */\n      swap2\n      swap1\n      pop\n      jump\t// out\n        /* \"#utility.yul\":14811:15128   */\n    tag_218:\n        /* \"#utility.yul\":14909:14912   */\n      0x00\n        /* \"#utility.yul\":14930:15001   */\n      tag_379\n        /* \"#utility.yul\":14994:15000   */\n      dup4\n        /* \"#utility.yul\":14989:14992   */\n      dup6\n        /* \"#utility.yul\":14930:15001   */\n      tag_187\n      jump\t// in\n    tag_379:\n        /* \"#utility.yul\":14923:15001   */\n      swap4\n      pop\n        /* \"#utility.yul\":15011:15067   */\n      tag_380\n        /* \"#utility.yul\":15060:15066   */\n      dup4\n        /* \"#utility.yul\":15055:15058   */\n      dup6\n        /* \"#utility.yul\":15048:15053   */\n      dup5\n        /* \"#utility.yul\":15011:15067   */\n      tag_216\n      jump\t// in\n    tag_380:\n        /* \"#utility.yul\":15092:15121   */\n      tag_381\n        /* \"#utility.yul\":15114:15120   */\n      dup4\n        /* \"#utility.yul\":15092:15121   */\n      tag_217\n      jump\t// in\n    tag_381:\n        /* \"#utility.yul\":15087:15090   */\n      dup5\n        /* \"#utility.yul\":15083:15122   */\n      add\n        /* \"#utility.yul\":15076:15122   */\n      swap1\n      pop\n        /* \"#utility.yul\":14811:15128   */\n      swap4\n      swap3\n      pop\n      pop\n      pop\n      jump\t// out\n        /* \"#utility.yul\":15134:15577   */\n    tag_101:\n        /* \"#utility.yul\":15285:15289   */\n      0x00\n        /* \"#utility.yul\":15323:15325   */\n      0x40\n        /* \"#utility.yul\":15312:15321   */\n      dup3\n        /* \"#utility.yul\":15308:15326   */\n      add\n        /* \"#utility.yul\":15300:15326   */\n      swap1\n      pop\n        /* \"#utility.yul\":15336:15407   */\n      tag_383\n        /* \"#utility.yul\":15404:15405   */\n      0x00\n        /* \"#utility.yul\":15393:15402   */\n      dup4\n        /* \"#utility.yul\":15389:15406   */\n      add\n        /* \"#utility.yul\":15380:15386   */\n      dup7\n        /* \"#utility.yul\":15336:15407   */\n      tag_171\n      jump\t// in\n    tag_383:\n        /* \"#utility.yul\":15454:15463   */\n      dup2\n        /* \"#utility.yul\":15448:15452   */\n      dup2\n        /* \"#utility.yul\":15444:15464   */\n      sub\n        /* \"#utility.yul\":15439:15441   */\n      0x20\n        /* \"#utility.yul\":15428:15437   */\n      dup4\n        /* \"#utility.yul\":15424:15442   */\n      add\n        /* \"#utility.yul\":15417:15465   */\n      mstore\n        /* \"#utility.yul\":15482:15570   */\n      tag_384\n        /* \"#utility.yul\":15565:15569   */\n      dup2\n        /* \"#utility.yul\":15556:15562   */\n      dup5\n        /* \"#utility.yul\":15548:15554   */\n      dup7\n        /* \"#utility.yul\":15482:15570   */\n      tag_218\n      jump\t// in\n    tag_384:\n        /* \"#utility.yul\":15474:15570   */\n      swap1\n      pop\n        /* \"#utility.yul\":15134:15577   */\n      swap5\n      swap4\n      pop\n      pop\n      pop\n      pop\n      jump\t// out\n        /* \"#utility.yul\":15583:15804   */\n    tag_219:\n        /* \"#utility.yul\":15723:15757   */\n      0x50726f706f73616c2068617320616c7265616479206265656e20616363657074\n        /* \"#utility.yul\":15719:15720   */\n      0x00\n        /* \"#utility.yul\":15711:15717   */\n      dup3\n        /* \"#utility.yul\":15707:15721   */\n      add\n        /* \"#utility.yul\":15700:15758   */\n      mstore\n        /* \"#utility.yul\":15792:15796   */\n      0x6564000000000000000000000000000000000000000000000000000000000000\n        /* \"#utility.yul\":15787:15789   */\n      0x20\n        /* \"#utility.yul\":15779:15785   */\n      dup3\n        /* \"#utility.yul\":15775:15790   */\n      add\n        /* \"#utility.yul\":15768:15797   */\n      mstore\n        /* \"#utility.yul\":15583:15804   */\n      pop\n      jump\t// out\n        /* \"#utility.yul\":15810:16176   */\n    tag_220:\n        /* \"#utility.yul\":15952:15955   */\n      0x00\n        /* \"#utility.yul\":15973:16040   */\n      tag_387\n        /* \"#utility.yul\":16037:16039   */\n      0x22\n        /* \"#utility.yul\":16032:16035   */\n      dup4\n        /* \"#utility.yul\":15973:16040   */\n      tag_187\n      jump\t// in\n    tag_387:\n        /* \"#utility.yul\":15966:16040   */\n      swap2\n      pop\n        /* \"#utility.yul\":16049:16142   */\n      tag_388\n        /* \"#utility.yul\":16138:16141   */\n      dup3\n        /* \"#utility.yul\":16049:16142   */\n      tag_219\n      jump\t// in\n    tag_388:\n        /* \"#utility.yul\":16167:16169   */\n      0x40\n        /* \"#utility.yul\":16162:16165   */\n      dup3\n        /* \"#utility.yul\":16158:16170   */\n      add\n        /* \"#utility.yul\":16151:16170   */\n      swap1\n      pop\n        /* \"#utility.yul\":15810:16176   */\n      swap2\n      swap1\n      pop\n      jump\t// out\n        /* \"#utility.yul\":16182:16601   */\n    tag_111:\n        /* \"#utility.yul\":16348:16352   */\n      0x00\n        /* \"#utility.yul\":16386:16388   */\n      0x20\n        /* \"#utility.yul\":16375:16384   */\n      dup3\n        /* \"#utility.yul\":16371:16389   */\n      add\n        /* \"#utility.yul\":16363:16389   */\n      swap1\n      pop\n        /* \"#utility.yul\":16435:16444   */\n      dup2\n        /* \"#utility.yul\":16429:16433   */\n      dup2\n        /* \"#utility.yul\":16425:16445   */\n      sub\n        /* \"#utility.yul\":16421:16422   */\n      0x00\n        /* \"#utility.yul\":16410:16419   */\n      dup4\n        /* \"#utility.yul\":16406:16423   */\n      add\n        /* \"#utility.yul\":16399:16446   */\n      mstore\n        /* \"#utility.yul\":16463:16594   */\n      tag_390\n        /* \"#utility.yul\":16589:16593   */\n      dup2\n        /* \"#utility.yul\":16463:16594   */\n      tag_220\n      jump\t// in\n    tag_390:\n        /* \"#utility.yul\":16455:16594   */\n      swap1\n      pop\n        /* \"#utility.yul\":16182:16601   */\n      swap2\n      swap1\n      pop\n      jump\t// out\n        /* \"#utility.yul\":16607:16780   */\n    tag_221:\n        /* \"#utility.yul\":16747:16772   */\n      0x50726f706f73616c20646f65736e277420657869737473000000000000000000\n        /* \"#utility.yul\":16743:16744   */\n      0x00\n        /* \"#utility.yul\":16735:16741   */\n      dup3\n        /* \"#utility.yul\":16731:16745   */\n      add\n        /* \"#utility.yul\":16724:16773   */\n      mstore\n        /* \"#utility.yul\":16607:16780   */\n      pop\n      jump\t// out\n        /* \"#utility.yul\":16786:17152   */\n    tag_222:\n        /* \"#utility.yul\":16928:16931   */\n      0x00\n        /* \"#utility.yul\":16949:17016   */\n      tag_393\n        /* \"#utility.yul\":17013:17015   */\n      0x17\n        /* \"#utility.yul\":17008:17011   */\n      dup4\n        /* \"#utility.yul\":16949:17016   */\n      tag_187\n      jump\t// in\n    tag_393:\n        /* \"#utility.yul\":16942:17016   */\n      swap2\n      pop\n        /* \"#utility.yul\":17025:17118   */\n      tag_394\n        /* \"#utility.yul\":17114:17117   */\n      dup3\n        /* \"#utility.yul\":17025:17118   */\n      tag_221\n      jump\t// in\n    tag_394:\n        /* \"#utility.yul\":17143:17145   */\n      0x20\n        /* \"#utility.yul\":17138:17141   */\n      dup3\n        /* \"#utility.yul\":17134:17146   */\n      add\n        /* \"#utility.yul\":17127:17146   */\n      swap1\n      pop\n        /* \"#utility.yul\":16786:17152   */\n      swap2\n      swap1\n      pop\n      jump\t// out\n        /* \"#utility.yul\":17158:17577   */\n    tag_114:\n        /* \"#utility.yul\":17324:17328   */\n      0x00\n        /* \"#utility.yul\":17362:17364   */\n      0x20\n        /* \"#utility.yul\":17351:17360   */\n      dup3\n        /* \"#utility.yul\":17347:17365   */\n      add\n        /* \"#utility.yul\":17339:17365   */\n      swap1\n      pop\n        /* \"#utility.yul\":17411:17420   */\n      dup2\n        /* \"#utility.yul\":17405:17409   */\n      dup2\n        /* \"#utility.yul\":17401:17421   */\n      sub\n        /* \"#utility.yul\":17397:17398   */\n      0x00\n        /* \"#utility.yul\":17386:17395   */\n      dup4\n        /* \"#utility.yul\":17382:17399   */\n      add\n        /* \"#utility.yul\":17375:17422   */\n      mstore\n        /* \"#utility.yul\":17439:17570   */\n      tag_396\n        /* \"#utility.yul\":17565:17569   */\n      dup2\n        /* \"#utility.yul\":17439:17570   */\n      tag_222\n      jump\t// in\n    tag_396:\n        /* \"#utility.yul\":17431:17570   */\n      swap1\n      pop\n        /* \"#utility.yul\":17158:17577   */\n      swap2\n      swap1\n      pop\n      jump\t// out\n        /* \"#utility.yul\":17583:17774   */\n    tag_117:\n        /* \"#utility.yul\":17623:17626   */\n      0x00\n        /* \"#utility.yul\":17642:17662   */\n      tag_398\n        /* \"#utility.yul\":17660:17661   */\n      dup3\n        /* \"#utility.yul\":17642:17662   */\n      tag_170\n      jump\t// in\n    tag_398:\n        /* \"#utility.yul\":17637:17662   */\n      swap2\n      pop\n        /* \"#utility.yul\":17676:17696   */\n      tag_399\n        /* \"#utility.yul\":17694:17695   */\n      dup4\n        /* \"#utility.yul\":17676:17696   */\n      tag_170\n      jump\t// in\n    tag_399:\n        /* \"#utility.yul\":17671:17696   */\n      swap3\n      pop\n        /* \"#utility.yul\":17719:17720   */\n      dup3\n        /* \"#utility.yul\":17716:17717   */\n      dup3\n        /* \"#utility.yul\":17712:17721   */\n      add\n        /* \"#utility.yul\":17705:17721   */\n      swap1\n      pop\n        /* \"#utility.yul\":17740:17743   */\n      dup1\n        /* \"#utility.yul\":17737:17738   */\n      dup3\n        /* \"#utility.yul\":17734:17744   */\n      gt\n        /* \"#utility.yul\":17731:17767   */\n      iszero\n      tag_400\n      jumpi\n        /* \"#utility.yul\":17747:17765   */\n      tag_401\n      tag_190\n      jump\t// in\n    tag_401:\n        /* \"#utility.yul\":17731:17767   */\n    tag_400:\n        /* \"#utility.yul\":17583:17774   */\n      swap3\n      swap2\n      pop\n      pop\n      jump\t// out\n        /* \"#utility.yul\":17780:18069   */\n    tag_223:\n        /* \"#utility.yul\":17920:17954   */\n      0x5468652066756e6473206f662061206e6577206173736f636961746520686173\n        /* \"#utility.yul\":17916:17917   */\n      0x00\n        /* \"#utility.yul\":17908:17914   */\n      dup3\n        /* \"#utility.yul\":17904:17918   */\n      add\n        /* \"#utility.yul\":17897:17955   */\n      mstore\n        /* \"#utility.yul\":17989:18023   */\n      0x20746f20726573706563742074686520737065636966696564206d696e696d75\n        /* \"#utility.yul\":17984:17986   */\n      0x20\n        /* \"#utility.yul\":17976:17982   */\n      dup3\n        /* \"#utility.yul\":17972:17987   */\n      add\n        /* \"#utility.yul\":17965:18024   */\n      mstore\n        /* \"#utility.yul\":18058:18061   */\n      0x6d00000000000000000000000000000000000000000000000000000000000000\n        /* \"#utility.yul\":18053:18055   */\n      0x40\n        /* \"#utility.yul\":18045:18051   */\n      dup3\n        /* \"#utility.yul\":18041:18056   */\n      add\n        /* \"#utility.yul\":18034:18062   */\n      mstore\n        /* \"#utility.yul\":17780:18069   */\n      pop\n      jump\t// out\n        /* \"#utility.yul\":18075:18441   */\n    tag_224:\n        /* \"#utility.yul\":18217:18220   */\n      0x00\n        /* \"#utility.yul\":18238:18305   */\n      tag_404\n        /* \"#utility.yul\":18302:18304   */\n      0x41\n        /* \"#utility.yul\":18297:18300   */\n      dup4\n        /* \"#utility.yul\":18238:18305   */\n      tag_187\n      jump\t// in\n    tag_404:\n        /* \"#utility.yul\":18231:18305   */\n      swap2\n      pop\n        /* \"#utility.yul\":18314:18407   */\n      tag_405\n        /* \"#utility.yul\":18403:18406   */\n      dup3\n        /* \"#utility.yul\":18314:18407   */\n      tag_223\n      jump\t// in\n    tag_405:\n        /* \"#utility.yul\":18432:18434   */\n      0x60\n        /* \"#utility.yul\":18427:18430   */\n      dup3\n        /* \"#utility.yul\":18423:18435   */\n      add\n        /* \"#utility.yul\":18416:18435   */\n      swap1\n      pop\n        /* \"#utility.yul\":18075:18441   */\n      swap2\n      swap1\n      pop\n      jump\t// out\n        /* \"#utility.yul\":18447:18866   */\n    tag_133:\n        /* \"#utility.yul\":18613:18617   */\n      0x00\n        /* \"#utility.yul\":18651:18653   */\n      0x20\n        /* \"#utility.yul\":18640:18649   */\n      dup3\n        /* \"#utility.yul\":18636:18654   */\n      add\n        /* \"#utility.yul\":18628:18654   */\n      swap1\n      pop\n        /* \"#utility.yul\":18700:18709   */\n      dup2\n        /* \"#utility.yul\":18694:18698   */\n      dup2\n        /* \"#utility.yul\":18690:18710   */\n      sub\n        /* \"#utility.yul\":18686:18687   */\n      0x00\n        /* \"#utility.yul\":18675:18684   */\n      dup4\n        /* \"#utility.yul\":18671:18688   */\n      add\n        /* \"#utility.yul\":18664:18711   */\n      mstore\n        /* \"#utility.yul\":18728:18859   */\n      tag_407\n        /* \"#utility.yul\":18854:18858   */\n      dup2\n        /* \"#utility.yul\":18728:18859   */\n      tag_224\n      jump\t// in\n    tag_407:\n        /* \"#utility.yul\":18720:18859   */\n      swap1\n      pop\n        /* \"#utility.yul\":18447:18866   */\n      swap2\n      swap1\n      pop\n      jump\t// out\n        /* \"#utility.yul\":18872:18990   */\n    tag_225:\n        /* \"#utility.yul\":18959:18983   */\n      tag_409\n        /* \"#utility.yul\":18977:18982   */\n      dup2\n        /* \"#utility.yul\":18959:18983   */\n      tag_184\n      jump\t// in\n    tag_409:\n        /* \"#utility.yul\":18954:18957   */\n      dup3\n        /* \"#utility.yul\":18947:18984   */\n      mstore\n        /* \"#utility.yul\":18872:18990   */\n      pop\n      pop\n      jump\t// out\n        /* \"#utility.yul\":18996:19328   */\n    tag_136:\n        /* \"#utility.yul\":19117:19121   */\n      0x00\n        /* \"#utility.yul\":19155:19157   */\n      0x40\n        /* \"#utility.yul\":19144:19153   */\n      dup3\n        /* \"#utility.yul\":19140:19158   */\n      add\n        /* \"#utility.yul\":19132:19158   */\n      swap1\n      pop\n        /* \"#utility.yul\":19168:19239   */\n      tag_411\n        /* \"#utility.yul\":19236:19237   */\n      0x00\n        /* \"#utility.yul\":19225:19234   */\n      dup4\n        /* \"#utility.yul\":19221:19238   */\n      add\n        /* \"#utility.yul\":19212:19218   */\n      dup6\n        /* \"#utility.yul\":19168:19239   */\n      tag_171\n      jump\t// in\n    tag_411:\n        /* \"#utility.yul\":19249:19321   */\n      tag_412\n        /* \"#utility.yul\":19317:19319   */\n      0x20\n        /* \"#utility.yul\":19306:19315   */\n      dup4\n        /* \"#utility.yul\":19302:19320   */\n      add\n        /* \"#utility.yul\":19293:19299   */\n      dup5\n        /* \"#utility.yul\":19249:19321   */\n      tag_225\n      jump\t// in\n    tag_412:\n        /* \"#utility.yul\":18996:19328   */\n      swap4\n      swap3\n      pop\n      pop\n      pop\n      jump\t// out\n        /* \"#utility.yul\":19334:19514   */\n    tag_226:\n        /* \"#utility.yul\":19382:19459   */\n      0x4e487b7100000000000000000000000000000000000000000000000000000000\n        /* \"#utility.yul\":19379:19380   */\n      0x00\n        /* \"#utility.yul\":19372:19460   */\n      mstore\n        /* \"#utility.yul\":19479:19483   */\n      0x12\n        /* \"#utility.yul\":19476:19477   */\n      0x04\n        /* \"#utility.yul\":19469:19484   */\n      mstore\n        /* \"#utility.yul\":19503:19507   */\n      0x24\n        /* \"#utility.yul\":19500:19501   */\n      0x00\n        /* \"#utility.yul\":19493:19508   */\n      revert\n        /* \"#utility.yul\":19520:19705   */\n    tag_146:\n        /* \"#utility.yul\":19560:19561   */\n      0x00\n        /* \"#utility.yul\":19577:19597   */\n      tag_415\n        /* \"#utility.yul\":19595:19596   */\n      dup3\n        /* \"#utility.yul\":19577:19597   */\n      tag_170\n      jump\t// in\n    tag_415:\n        /* \"#utility.yul\":19572:19597   */\n      swap2\n      pop\n        /* \"#utility.yul\":19611:19631   */\n      tag_416\n        /* \"#utility.yul\":19629:19630   */\n      dup4\n        /* \"#utility.yul\":19611:19631   */\n      tag_170\n      jump\t// in\n    tag_416:\n        /* \"#utility.yul\":19606:19631   */\n      swap3\n      pop\n        /* \"#utility.yul\":19650:19651   */\n      dup3\n        /* \"#utility.yul\":19640:19675   */\n      tag_417\n      jumpi\n        /* \"#utility.yul\":19655:19673   */\n      tag_418\n      tag_226\n      jump\t// in\n    tag_418:\n        /* \"#utility.yul\":19640:19675   */\n    tag_417:\n        /* \"#utility.yul\":19697:19698   */\n      dup3\n        /* \"#utility.yul\":19694:19695   */\n      dup3\n        /* \"#utility.yul\":19690:19699   */\n      div\n        /* \"#utility.yul\":19685:19699   */\n      swap1\n      pop\n        /* \"#utility.yul\":19520:19705   */\n      swap3\n      swap2\n      pop\n      pop\n      jump\t// out\n        /* \"#utility.yul\":19711:19933   */\n    tag_151:\n        /* \"#utility.yul\":19804:19808   */\n      0x00\n        /* \"#utility.yul\":19842:19844   */\n      0x20\n        /* \"#utility.yul\":19831:19840   */\n      dup3\n        /* \"#utility.yul\":19827:19845   */\n      add\n        /* \"#utility.yul\":19819:19845   */\n      swap1\n      pop\n        /* \"#utility.yul\":19855:19926   */\n      tag_420\n        /* \"#utility.yul\":19923:19924   */\n      0x00\n        /* \"#utility.yul\":19912:19921   */\n      dup4\n        /* \"#utility.yul\":19908:19925   */\n      add\n        /* \"#utility.yul\":19899:19905   */\n      dup5\n        /* \"#utility.yul\":19855:19926   */\n      tag_225\n      jump\t// in\n    tag_420:\n        /* \"#utility.yul\":19711:19933   */\n      swap3\n      swap2\n      pop\n      pop\n      jump\t// out\n        /* \"#utility.yul\":19963:20794   */\n    tag_227:\n        /* \"#utility.yul\":20048:20051   */\n      0x00\n        /* \"#utility.yul\":20085:20090   */\n      dup2\n        /* \"#utility.yul\":20079:20091   */\n      sload\n        /* \"#utility.yul\":20114:20150   */\n      tag_422\n        /* \"#utility.yul\":20140:20149   */\n      dup2\n        /* \"#utility.yul\":20114:20150   */\n      tag_200\n      jump\t// in\n    tag_422:\n        /* \"#utility.yul\":20166:20237   */\n      tag_423\n        /* \"#utility.yul\":20230:20236   */\n      dup2\n        /* \"#utility.yul\":20225:20228   */\n      dup7\n        /* \"#utility.yul\":20166:20237   */\n      tag_187\n      jump\t// in\n    tag_423:\n        /* \"#utility.yul\":20159:20237   */\n      swap5\n      pop\n        /* \"#utility.yul\":20268:20269   */\n      0x01\n        /* \"#utility.yul\":20257:20266   */\n      dup3\n        /* \"#utility.yul\":20253:20270   */\n      and\n        /* \"#utility.yul\":20284:20285   */\n      0x00\n        /* \"#utility.yul\":20279:20443   */\n      dup2\n      eq\n      tag_425\n      jumpi\n        /* \"#utility.yul\":20457:20458   */\n      0x01\n        /* \"#utility.yul\":20452:20788   */\n      dup2\n      eq\n      tag_426\n      jumpi\n        /* \"#utility.yul\":20246:20788   */\n      jump(tag_424)\n        /* \"#utility.yul\":20279:20443   */\n    tag_425:\n        /* \"#utility.yul\":20363:20367   */\n      0xff\n        /* \"#utility.yul\":20359:20368   */\n      not\n        /* \"#utility.yul\":20348:20357   */\n      dup4\n        /* \"#utility.yul\":20344:20369   */\n      and\n        /* \"#utility.yul\":20339:20342   */\n      dup7\n        /* \"#utility.yul\":20332:20370   */\n      mstore\n        /* \"#utility.yul\":20423:20429   */\n      dup2\n        /* \"#utility.yul\":20416:20430   */\n      iszero\n        /* \"#utility.yul\":20409:20431   */\n      iszero\n        /* \"#utility.yul\":20403:20407   */\n      0x20\n        /* \"#utility.yul\":20399:20432   */\n      mul\n        /* \"#utility.yul\":20394:20397   */\n      dup7\n        /* \"#utility.yul\":20390:20433   */\n      add\n        /* \"#utility.yul\":20383:20433   */\n      swap4\n      pop\n        /* \"#utility.yul\":20279:20443   */\n      jump(tag_424)\n        /* \"#utility.yul\":20452:20788   */\n    tag_426:\n        /* \"#utility.yul\":20519:20557   */\n      tag_427\n        /* \"#utility.yul\":20551:20556   */\n      dup6\n        /* \"#utility.yul\":20519:20557   */\n      tag_201\n      jump\t// in\n    tag_427:\n        /* \"#utility.yul\":20579:20580   */\n      0x00\n        /* \"#utility.yul\":20593:20747   */\n    tag_428:\n        /* \"#utility.yul\":20607:20613   */\n      dup4\n        /* \"#utility.yul\":20604:20605   */\n      dup2\n        /* \"#utility.yul\":20601:20614   */\n      lt\n        /* \"#utility.yul\":20593:20747   */\n      iszero\n      tag_430\n      jumpi\n        /* \"#utility.yul\":20681:20688   */\n      dup2\n        /* \"#utility.yul\":20675:20689   */\n      sload\n        /* \"#utility.yul\":20671:20672   */\n      dup2\n        /* \"#utility.yul\":20666:20669   */\n      dup10\n        /* \"#utility.yul\":20662:20673   */\n      add\n        /* \"#utility.yul\":20655:20690   */\n      mstore\n        /* \"#utility.yul\":20731:20732   */\n      0x01\n        /* \"#utility.yul\":20722:20729   */\n      dup3\n        /* \"#utility.yul\":20718:20733   */\n      add\n        /* \"#utility.yul\":20707:20733   */\n      swap2\n      pop\n        /* \"#utility.yul\":20629:20633   */\n      0x20\n        /* \"#utility.yul\":20626:20627   */\n      dup2\n        /* \"#utility.yul\":20622:20634   */\n      add\n        /* \"#utility.yul\":20617:20634   */\n      swap1\n      pop\n        /* \"#utility.yul\":20593:20747   */\n      jump(tag_428)\n    tag_430:\n        /* \"#utility.yul\":20776:20777   */\n      dup1\n        /* \"#utility.yul\":20771:20774   */\n      dup9\n        /* \"#utility.yul\":20767:20778   */\n      add\n        /* \"#utility.yul\":20760:20778   */\n      swap6\n      pop\n        /* \"#utility.yul\":20459:20788   */\n      pop\n      pop\n        /* \"#utility.yul\":20246:20788   */\n    tag_424:\n      pop\n        /* \"#utility.yul\":20052:20794   */\n      pop\n      pop\n        /* \"#utility.yul\":19963:20794   */\n      swap3\n      swap2\n      pop\n      pop\n      jump\t// out\n        /* \"#utility.yul\":20800:21107   */\n    tag_162:\n        /* \"#utility.yul\":20910:20914   */\n      0x00\n        /* \"#utility.yul\":20948:20950   */\n      0x20\n        /* \"#utility.yul\":20937:20946   */\n      dup3\n        /* \"#utility.yul\":20933:20951   */\n      add\n        /* \"#utility.yul\":20925:20951   */\n      swap1\n      pop\n        /* \"#utility.yul\":20997:21006   */\n      dup2\n        /* \"#utility.yul\":20991:20995   */\n      dup2\n        /* \"#utility.yul\":20987:21007   */\n      sub\n        /* \"#utility.yul\":20983:20984   */\n      0x00\n        /* \"#utility.yul\":20972:20981   */\n      dup4\n        /* \"#utility.yul\":20968:20985   */\n      add\n        /* \"#utility.yul\":20961:21008   */\n      mstore\n        /* \"#utility.yul\":21025:21100   */\n      tag_432\n        /* \"#utility.yul\":21095:21099   */\n      dup2\n        /* \"#utility.yul\":21086:21092   */\n      dup5\n        /* \"#utility.yul\":21025:21100   */\n      tag_227\n      jump\t// in\n    tag_432:\n        /* \"#utility.yul\":21017:21100   */\n      swap1\n      pop\n        /* \"#utility.yul\":20800:21107   */\n      swap3\n      swap2\n      pop\n      pop\n      jump\t// out\n\n    auxdata: 0xa2646970667358221220180806f8df00a40eab4e09f79251fbb46c6a0de627511b86e58e75f74cd9fb6d64736f6c634300081a0033\n}\n",
				"bytecode": {
					"linkReferences": {},
					"object": "60c060405260405161241538038061241583398181016040528101906100259190610154565b3373ffffffffffffffffffffffffffffffffffffffff1660808173ffffffffffffffffffffffffffffffffffffffff16815250508060a0818152505060015f803373ffffffffffffffffffffffffffffffffffffffff1673ffffffffffffffffffffffffffffffffffffffff1681526020019081526020015f205f6101000a81548160ff0219169083151502179055503460015f3373ffffffffffffffffffffffffffffffffffffffff1673ffffffffffffffffffffffffffffffffffffffff1681526020019081526020015f2081905550346002819055505f60075f6101000a81548160ff0219169083151502179055505061017f565b5f80fd5b5f819050919050565b61013381610121565b811461013d575f80fd5b50565b5f8151905061014e8161012a565b92915050565b5f602082840312156101695761016861011d565b5b5f61017684828501610140565b91505092915050565b60805160a0516122756101a05f395f610faa01525f61040001526122755ff3fe608060405260043610610085575f3560e01c80633dc15606116100585780633dc1560614610109578063807896d514610131578063d55fe58214610159578063e2c41dbc14610195578063e3a27f0f1461019f57610085565b806307e5c998146100895780632cc842851461009f5780633a98ef39146100b55780633c2dfe99146100df575b5f80fd5b348015610094575f80fd5b5061009d6101db565b005b3480156100aa575f80fd5b506100b3610639565b005b3480156100c0575f80fd5b506100c96108a2565b6040516100d691906116a0565b60405180910390f35b3480156100ea575f80fd5b506100f36108a8565b60405161010091906116d3565b60405180910390f35b348015610114575f80fd5b5061012f600480360381019061012a9190611755565b6108ba565b005b34801561013c575f80fd5b50610157600480360381019061015291906117ca565b610b3d565b005b348015610164575f80fd5b5061017f600480360381019061017a919061184f565b610dd3565b60405161018c91906116d3565b60405180910390f35b61019d610def565b005b3480156101aa575f80fd5b506101c560048036038101906101c0919061184f565b611194565b6040516101d291906116d3565b60405180910390f35b5f803373ffffffffffffffffffffffffffffffffffffffff1673ffffffffffffffffffffffffffffffffffffffff1681526020019081526020015f205f9054906101000a900460ff161561043d5760075f9054906101000a900460ff16610277576040517f08c379a000000000000000000000000000000000000000000000000000000000815260040161026e906118fa565b60405180910390fd5b60015f3373ffffffffffffffffffffffffffffffffffffffff1673ffffffffffffffffffffffffffffffffffffffff1681526020019081526020015f20544710156102c5576102c4611918565b5b5f805f3373ffffffffffffffffffffffffffffffffffffffff1673ffffffffffffffffffffffffffffffffffffffff1681526020019081526020015f205f6101000a81548160ff0219169083151502179055505f60015f3373ffffffffffffffffffffffffffffffffffffffff1673ffffffffffffffffffffffffffffffffffffffff1681526020019081526020015f205490508060025f82825461036a9190611972565b925050819055505f60015f3373ffffffffffffffffffffffffffffffffffffffff1673ffffffffffffffffffffffffffffffffffffffff1681526020019081526020015f20819055503373ffffffffffffffffffffffffffffffffffffffff166108fc8290811502906040515f60405180830381858888f193505050501580156103f6573d5f803e3d5ffd5b505f4703610437577f000000000000000000000000000000000000000000000000000000000000000073ffffffffffffffffffffffffffffffffffffffff16ff5b50610637565b60035f3373ffffffffffffffffffffffffffffffffffffffff1673ffffffffffffffffffffffffffffffffffffffff1681526020019081526020015f205f9054906101000a900460ff16156105fb5760045f3373ffffffffffffffffffffffffffffffffffffffff1673ffffffffffffffffffffffffffffffffffffffff1681526020019081526020015f20544710156104da576104d9611918565b5b5f60035f3373ffffffffffffffffffffffffffffffffffffffff1673ffffffffffffffffffffffffffffffffffffffff1681526020019081526020015f205f6101000a81548160ff0219169083151502179055505f60045f3373ffffffffffffffffffffffffffffffffffffffff1673ffffffffffffffffffffffffffffffffffffffff1681526020019081526020015f205490505f60045f3373ffffffffffffffffffffffffffffffffffffffff1673ffffffffffffffffffffffffffffffffffffffff1681526020019081526020015f20819055503373ffffffffffffffffffffffffffffffffffffffff166108fc8290811502906040515f60405180830381858888f193505050501580156105f4573d5f803e3d5ffd5b5050610636565b6040517f08c379a000000000000000000000000000000000000000000000000000000000815260040161062d90611a15565b60405180910390fd5b5b565b5f803373ffffffffffffffffffffffffffffffffffffffff1673ffffffffffffffffffffffffffffffffffffffff1681526020019081526020015f205f9054906101000a900460ff166106c1576040517f08c379a00000000000000000000000000000000000000000000000000000000081526004016106b890611aa3565b60405180910390fd5b5f151560075f9054906101000a900460ff16151514610715576040517f08c379a000000000000000000000000000000000000000000000000000000000815260040161070c90611b0b565b60405180910390fd5b5f60065f81548092919061072890611b29565b9190505590505f60055f8381526020019081526020015f2090506001815f015f6101000a81548160ff0219169083600281111561076857610767611b70565b5b021790555033816002015f6101000a81548173ffffffffffffffffffffffffffffffffffffffff021916908373ffffffffffffffffffffffffffffffffffffffff1602179055506001816003015f3373ffffffffffffffffffffffffffffffffffffffff1673ffffffffffffffffffffffffffffffffffffffff1681526020019081526020015f205f6101000a81548160ff02191690831515021790555060015f3373ffffffffffffffffffffffffffffffffffffffff1673ffffffffffffffffffffffffffffffffffffffff1681526020019081526020015f205481600401819055505f816005015f6101000a81548160ff0219169083151502179055507f92fa05a3e70cc704e13b5e88e311d9119a341828433ecdd4672e38eec78e3e5d8260405161089691906116a0565b60405180910390a15050565b60025481565b60075f9054906101000a900460ff1681565b5f803373ffffffffffffffffffffffffffffffffffffffff1673ffffffffffffffffffffffffffffffffffffffff1681526020019081526020015f205f9054906101000a900460ff16610942576040517f08c379a000000000000000000000000000000000000000000000000000000000815260040161093990611aa3565b60405180910390fd5b5f151560075f9054906101000a900460ff16151514610996576040517f08c379a000000000000000000000000000000000000000000000000000000000815260040161098d90611b0b565b60405180910390fd5b5f60065f8154809291906109a990611b29565b9190505590505f60055f8381526020019081526020015f2090506001815f015f6101000a81548160ff021916908360028111156109e9576109e8611b70565b5b021790555033816002015f6101000a81548173ffffffffffffffffffffffffffffffffffffffff021916908373ffffffffffffffffffffffffffffffffffffffff1602179055508383826001019182610a43929190611dce565b506001816003015f3373ffffffffffffffffffffffffffffffffffffffff1673ffffffffffffffffffffffffffffffffffffffff1681526020019081526020015f205f6101000a81548160ff02191690831515021790555060015f3373ffffffffffffffffffffffffffffffffffffffff1673ffffffffffffffffffffffffffffffffffffffff1681526020019081526020015f205481600401819055505f816005015f6101000a81548160ff0219169083151502179055507fd47040b3aac7e360d35cf5dbde927cd5ad8da48010490bdcdb495c5ceaeb0438828585604051610b2f93929190611ee5565b60405180910390a150505050565b5f803373ffffffffffffffffffffffffffffffffffffffff1673ffffffffffffffffffffffffffffffffffffffff1681526020019081526020015f205f9054906101000a900460ff16610bc5576040517f08c379a0000000000000000000000000000000000000000000000000000000008152600401610bbc90611aa3565b60405180910390fd5b5f151560075f9054906101000a900460ff16151514610c19576040517f08c379a0000000000000000000000000000000000000000000000000000000008152600401610c1090611b0b565b60405180910390fd5b5f60055f8381526020019081526020015f2090505f1515816005015f9054906101000a900460ff16151514610c83576040517f08c379a0000000000000000000000000000000000000000000000000000000008152600401610c7a90611f85565b60405180910390fd5b6006548210610cc7576040517f08c379a0000000000000000000000000000000000000000000000000000000008152600401610cbe90611fed565b60405180910390fd5b806003015f3373ffffffffffffffffffffffffffffffffffffffff1673ffffffffffffffffffffffffffffffffffffffff1681526020019081526020015f205f9054906101000a900460ff16610dc6576001816003015f3373ffffffffffffffffffffffffffffffffffffffff1673ffffffffffffffffffffffffffffffffffffffff1681526020019081526020015f205f6101000a81548160ff02191690831515021790555060015f3373ffffffffffffffffffffffffffffffffffffffff1673ffffffffffffffffffffffffffffffffffffffff1681526020019081526020015f2054816004015f828254610dbe919061200b565b925050819055505b610dcf816111b1565b5050565b5f602052805f5260405f205f915054906101000a900460ff1681565b5f151560075f9054906101000a900460ff16151514610e43576040517f08c379a0000000000000000000000000000000000000000000000000000000008152600401610e3a90611b0b565b60405180910390fd5b5f803373ffffffffffffffffffffffffffffffffffffffff1673ffffffffffffffffffffffffffffffffffffffff1681526020019081526020015f205f9054906101000a900460ff1615610f01573460015f3373ffffffffffffffffffffffffffffffffffffffff1673ffffffffffffffffffffffffffffffffffffffff1681526020019081526020015f205f828254610edd919061200b565b925050819055503460025f828254610ef5919061200b565b92505081905550611192565b60035f3373ffffffffffffffffffffffffffffffffffffffff1673ffffffffffffffffffffffffffffffffffffffff1681526020019081526020015f205f9054906101000a900460ff1615610fa8573460045f3373ffffffffffffffffffffffffffffffffffffffff1673ffffffffffffffffffffffffffffffffffffffff1681526020019081526020015f205f828254610f9c919061200b565b92505081905550611191565b7f0000000000000000000000000000000000000000000000000000000000000000341161100a576040517f08c379a0000000000000000000000000000000000000000000000000000000008152600401611001906120d4565b60405180910390fd5b600160035f3373ffffffffffffffffffffffffffffffffffffffff1673ffffffffffffffffffffffffffffffffffffffff1681526020019081526020015f205f6101000a81548160ff0219169083151502179055503460045f3373ffffffffffffffffffffffffffffffffffffffff1673ffffffffffffffffffffffffffffffffffffffff1681526020019081526020015f20819055505f60065f8154809291906110b490611b29565b9190505590507f6b7638e3cd8ffdd9b06cac2128a6144ee1a7e562b8ddb64a761889711a77432381336040516110eb929190612101565b60405180910390a15f60055f8381526020019081526020015f2090505f815f015f6101000a81548160ff0219169083600281111561112c5761112b611b70565b5b021790555033816002015f6101000a81548173ffffffffffffffffffffffffffffffffffffffff021916908373ffffffffffffffffffffffffffffffffffffffff1602179055505f816005015f6101000a81548160ff02191690831515021790555050505b5b565b6003602052805f5260405f205f915054906101000a900460ff1681565b5f60028111156111c4576111c3611b70565b5b815f015f9054906101000a900460ff1660028111156111e6576111e5611b70565b5b0361151c576001600280546111fb9190612155565b611205919061200b565b81600401541115611517576001816005015f6101000a81548160ff02191690831515021790555060015f80836002015f9054906101000a900473ffffffffffffffffffffffffffffffffffffffff1673ffffffffffffffffffffffffffffffffffffffff1673ffffffffffffffffffffffffffffffffffffffff1681526020019081526020015f205f6101000a81548160ff0219169083151502179055505f60035f836002015f9054906101000a900473ffffffffffffffffffffffffffffffffffffffff1673ffffffffffffffffffffffffffffffffffffffff1673ffffffffffffffffffffffffffffffffffffffff1681526020019081526020015f205f6101000a81548160ff02191690831515021790555060045f826002015f9054906101000a900473ffffffffffffffffffffffffffffffffffffffff1673ffffffffffffffffffffffffffffffffffffffff1673ffffffffffffffffffffffffffffffffffffffff1681526020019081526020015f205460015f836002015f9054906101000a900473ffffffffffffffffffffffffffffffffffffffff1673ffffffffffffffffffffffffffffffffffffffff1673ffffffffffffffffffffffffffffffffffffffff1681526020019081526020015f208190555060045f826002015f9054906101000a900473ffffffffffffffffffffffffffffffffffffffff1673ffffffffffffffffffffffffffffffffffffffff1673ffffffffffffffffffffffffffffffffffffffff1681526020019081526020015f205460025f828254611450919061200b565b925050819055505f60045f836002015f9054906101000a900473ffffffffffffffffffffffffffffffffffffffff1673ffffffffffffffffffffffffffffffffffffffff1673ffffffffffffffffffffffffffffffffffffffff1681526020019081526020015f20819055507f78c530b4daeba31114749bbcb32edbd288ce09d5ac627483b3a087397bdd9c71816002015f9054906101000a900473ffffffffffffffffffffffffffffffffffffffff1660405161150e9190612185565b60405180910390a15b611685565b600160028111156115305761152f611b70565b5b815f015f9054906101000a900460ff16600281111561155257611551611b70565b5b036115d8576001600280546115679190612155565b611571919061200b565b816004015411156115d3576001816005015f6101000a81548160ff0219169083151502179055507fe7ff7c4807b71e5705a9ddf42e7af1d9fb39e3f8b9a786533eb0482cfa46c15c816001016040516115ca919061221f565b60405180910390a15b611684565b6002808111156115eb576115ea611b70565b5b815f015f9054906101000a900460ff16600281111561160d5761160c611b70565b5b0361168357600254816004015410611682576001816005015f6101000a81548160ff021916908315150217905550600160075f6101000a81548160ff0219169083151502179055507fb080cc702b7f1f77fb6a2dd59827bb6df2fec3f60799c67c5e557513e1aa3d6960405160405180910390a15b5b5b5b50565b5f819050919050565b61169a81611688565b82525050565b5f6020820190506116b35f830184611691565b92915050565b5f8115159050919050565b6116cd816116b9565b82525050565b5f6020820190506116e65f8301846116c4565b92915050565b5f80fd5b5f80fd5b5f80fd5b5f80fd5b5f80fd5b5f8083601f840112611715576117146116f4565b5b8235905067ffffffffffffffff811115611732576117316116f8565b5b60208301915083600182028301111561174e5761174d6116fc565b5b9250929050565b5f806020838503121561176b5761176a6116ec565b5b5f83013567ffffffffffffffff811115611788576117876116f0565b5b61179485828601611700565b92509250509250929050565b6117a981611688565b81146117b3575f80fd5b50565b5f813590506117c4816117a0565b92915050565b5f602082840312156117df576117de6116ec565b5b5f6117ec848285016117b6565b91505092915050565b5f73ffffffffffffffffffffffffffffffffffffffff82169050919050565b5f61181e826117f5565b9050919050565b61182e81611814565b8114611838575f80fd5b50565b5f8135905061184981611825565b92915050565b5f60208284031215611864576118636116ec565b5b5f6118718482850161183b565b91505092915050565b5f82825260208201905092915050565b7f436f6d70616e79206973206e6f7420646973736f6c7574696e672c20796f75205f8201527f63616e6e6f7420626520726566756e6465640000000000000000000000000000602082015250565b5f6118e460328361187a565b91506118ef8261188a565b604082019050919050565b5f6020820190508181035f830152611911816118d8565b9050919050565b7f4e487b71000000000000000000000000000000000000000000000000000000005f52600160045260245ffd5b7f4e487b71000000000000000000000000000000000000000000000000000000005f52601160045260245ffd5b5f61197c82611688565b915061198783611688565b925082820390508181111561199f5761199e611945565b5b92915050565b7f596f7520617265206e6f74206173736f636961746564206e6f722063616e64695f8201527f6461746564000000000000000000000000000000000000000000000000000000602082015250565b5f6119ff60258361187a565b9150611a0a826119a5565b604082019050919050565b5f6020820190508181035f830152611a2c816119f3565b9050919050565b7f4f6e6c79206173736f636961746564206d656d626572732063616e2063616c6c5f8201527f20746869732066756e6374696f6e000000000000000000000000000000000000602082015250565b5f611a8d602e8361187a565b9150611a9882611a33565b604082019050919050565b5f6020820190508181035f830152611aba81611a81565b9050919050565b7f436f72706f7261746520697320646973736f6c7574696e6700000000000000005f82015250565b5f611af560188361187a565b9150611b0082611ac1565b602082019050919050565b5f6020820190508181035f830152611b2281611ae9565b9050919050565b5f611b3382611688565b91507fffffffffffffffffffffffffffffffffffffffffffffffffffffffffffffffff8203611b6557611b64611945565b5b600182019050919050565b7f4e487b71000000000000000000000000000000000000000000000000000000005f52602160045260245ffd5b5f82905092915050565b7f4e487b71000000000000000000000000000000000000000000000000000000005f52604160045260245ffd5b7f4e487b71000000000000000000000000000000000000000000000000000000005f52602260045260245ffd5b5f6002820490506001821680611c1857607f821691505b602082108103611c2b57611c2a611bd4565b5b50919050565b5f819050815f5260205f209050919050565b5f6020601f8301049050919050565b5f82821b905092915050565b5f60088302611c8d7fffffffffffffffffffffffffffffffffffffffffffffffffffffffffffffffff82611c52565b611c978683611c52565b95508019841693508086168417925050509392505050565b5f819050919050565b5f611cd2611ccd611cc884611688565b611caf565b611688565b9050919050565b5f819050919050565b611ceb83611cb8565b611cff611cf782611cd9565b848454611c5e565b825550505050565b5f90565b611d13611d07565b611d1e818484611ce2565b505050565b5b81811015611d4157611d365f82611d0b565b600181019050611d24565b5050565b601f821115611d8657611d5781611c31565b611d6084611c43565b81016020851015611d6f578190505b611d83611d7b85611c43565b830182611d23565b50505b505050565b5f82821c905092915050565b5f611da65f1984600802611d8b565b1980831691505092915050565b5f611dbe8383611d97565b9150826002028217905092915050565b611dd88383611b9d565b67ffffffffffffffff811115611df157611df0611ba7565b5b611dfb8254611c01565b611e06828285611d45565b5f601f831160018114611e33575f8415611e21578287013590505b611e2b8582611db3565b865550611e92565b601f198416611e4186611c31565b5f5b82811015611e6857848901358255600182019150602085019450602081019050611e43565b86831015611e855784890135611e81601f891682611d97565b8355505b6001600288020188555050505b50505050505050565b828183375f83830152505050565b5f601f19601f8301169050919050565b5f611ec4838561187a565b9350611ed1838584611e9b565b611eda83611ea9565b840190509392505050565b5f604082019050611ef85f830186611691565b8181036020830152611f0b818486611eb9565b9050949350505050565b7f50726f706f73616c2068617320616c7265616479206265656e206163636570745f8201527f6564000000000000000000000000000000000000000000000000000000000000602082015250565b5f611f6f60228361187a565b9150611f7a82611f15565b604082019050919050565b5f6020820190508181035f830152611f9c81611f63565b9050919050565b7f50726f706f73616c20646f65736e2774206578697374730000000000000000005f82015250565b5f611fd760178361187a565b9150611fe282611fa3565b602082019050919050565b5f6020820190508181035f83015261200481611fcb565b9050919050565b5f61201582611688565b915061202083611688565b925082820190508082111561203857612037611945565b5b92915050565b7f5468652066756e6473206f662061206e6577206173736f6369617465206861735f8201527f20746f20726573706563742074686520737065636966696564206d696e696d7560208201527f6d00000000000000000000000000000000000000000000000000000000000000604082015250565b5f6120be60418361187a565b91506120c98261203e565b606082019050919050565b5f6020820190508181035f8301526120eb816120b2565b9050919050565b6120fb81611814565b82525050565b5f6040820190506121145f830185611691565b61212160208301846120f2565b9392505050565b7f4e487b71000000000000000000000000000000000000000000000000000000005f52601260045260245ffd5b5f61215f82611688565b915061216a83611688565b92508261217a57612179612128565b5b828204905092915050565b5f6020820190506121985f8301846120f2565b92915050565b5f81546121aa81611c01565b6121b4818661187a565b9450600182165f81146121ce57600181146121e457612216565b60ff198316865281151560200286019350612216565b6121ed85611c31565b5f5b8381101561220e578154818901526001820191506020810190506121ef565b808801955050505b50505092915050565b5f6020820190508181035f830152612237818461219e565b90509291505056fea2646970667358221220180806f8df00a40eab4e09f79251fbb46c6a0de627511b86e58e75f74cd9fb6d64736f6c634300081a0033",
					"opcodes": "PUSH1 0xC0 PUSH1 0x40 MSTORE PUSH1 0x40 MLOAD PUSH2 0x2415 CODESIZE SUB DUP1 PUSH2 0x2415 DUP4 CODECOPY DUP2 DUP2 ADD PUSH1 0x40 MSTORE DUP2 ADD SWAP1 PUSH2 0x25 SWAP2 SWAP1 PUSH2 0x154 JUMP JUMPDEST CALLER PUSH20 0xFFFFFFFFFFFFFFFFFFFFFFFFFFFFFFFFFFFFFFFF AND PUSH1 0x80 DUP2 PUSH20 0xFFFFFFFFFFFFFFFFFFFFFFFFFFFFFFFFFFFFFFFF AND DUP2 MSTORE POP POP DUP1 PUSH1 0xA0 DUP2 DUP2 MSTORE POP POP PUSH1 0x1 PUSH0 DUP1 CALLER PUSH20 0xFFFFFFFFFFFFFFFFFFFFFFFFFFFFFFFFFFFFFFFF AND PUSH20 0xFFFFFFFFFFFFFFFFFFFFFFFFFFFFFFFFFFFFFFFF AND DUP2 MSTORE PUSH1 0x20 ADD SWAP1 DUP2 MSTORE PUSH1 0x20 ADD PUSH0 KECCAK256 PUSH0 PUSH2 0x100 EXP DUP2 SLOAD DUP2 PUSH1 0xFF MUL NOT AND SWAP1 DUP4 ISZERO ISZERO MUL OR SWAP1 SSTORE POP CALLVALUE PUSH1 0x1 PUSH0 CALLER PUSH20 0xFFFFFFFFFFFFFFFFFFFFFFFFFFFFFFFFFFFFFFFF AND PUSH20 0xFFFFFFFFFFFFFFFFFFFFFFFFFFFFFFFFFFFFFFFF AND DUP2 MSTORE PUSH1 0x20 ADD SWAP1 DUP2 MSTORE PUSH1 0x20 ADD PUSH0 KECCAK256 DUP2 SWAP1 SSTORE POP CALLVALUE PUSH1 0x2 DUP2 SWAP1 SSTORE POP PUSH0 PUSH1 0x7 PUSH0 PUSH2 0x100 EXP DUP2 SLOAD DUP2 PUSH1 0xFF MUL NOT AND SWAP1 DUP4 ISZERO ISZERO MUL OR SWAP1 SSTORE POP POP PUSH2 0x17F JUMP JUMPDEST PUSH0 DUP1 REVERT JUMPDEST PUSH0 DUP2 SWAP1 POP SWAP2 SWAP1 POP JUMP JUMPDEST PUSH2 0x133 DUP2 PUSH2 0x121 JUMP JUMPDEST DUP2 EQ PUSH2 0x13D JUMPI PUSH0 DUP1 REVERT JUMPDEST POP JUMP JUMPDEST PUSH0 DUP2 MLOAD SWAP1 POP PUSH2 0x14E DUP2 PUSH2 0x12A JUMP JUMPDEST SWAP3 SWAP2 POP POP JUMP JUMPDEST PUSH0 PUSH1 0x20 DUP3 DUP5 SUB SLT ISZERO PUSH2 0x169 JUMPI PUSH2 0x168 PUSH2 0x11D JUMP JUMPDEST JUMPDEST PUSH0 PUSH2 0x176 DUP5 DUP3 DUP6 ADD PUSH2 0x140 JUMP JUMPDEST SWAP2 POP POP SWAP3 SWAP2 POP POP JUMP JUMPDEST PUSH1 0x80 MLOAD PUSH1 0xA0 MLOAD PUSH2 0x2275 PUSH2 0x1A0 PUSH0 CODECOPY PUSH0 PUSH2 0xFAA ADD MSTORE PUSH0 PUSH2 0x400 ADD MSTORE PUSH2 0x2275 PUSH0 RETURN INVALID PUSH1 0x80 PUSH1 0x40 MSTORE PUSH1 0x4 CALLDATASIZE LT PUSH2 0x85 JUMPI PUSH0 CALLDATALOAD PUSH1 0xE0 SHR DUP1 PUSH4 0x3DC15606 GT PUSH2 0x58 JUMPI DUP1 PUSH4 0x3DC15606 EQ PUSH2 0x109 JUMPI DUP1 PUSH4 0x807896D5 EQ PUSH2 0x131 JUMPI DUP1 PUSH4 0xD55FE582 EQ PUSH2 0x159 JUMPI DUP1 PUSH4 0xE2C41DBC EQ PUSH2 0x195 JUMPI DUP1 PUSH4 0xE3A27F0F EQ PUSH2 0x19F JUMPI PUSH2 0x85 JUMP JUMPDEST DUP1 PUSH4 0x7E5C998 EQ PUSH2 0x89 JUMPI DUP1 PUSH4 0x2CC84285 EQ PUSH2 0x9F JUMPI DUP1 PUSH4 0x3A98EF39 EQ PUSH2 0xB5 JUMPI DUP1 PUSH4 0x3C2DFE99 EQ PUSH2 0xDF JUMPI JUMPDEST PUSH0 DUP1 REVERT JUMPDEST CALLVALUE DUP1 ISZERO PUSH2 0x94 JUMPI PUSH0 DUP1 REVERT JUMPDEST POP PUSH2 0x9D PUSH2 0x1DB JUMP JUMPDEST STOP JUMPDEST CALLVALUE DUP1 ISZERO PUSH2 0xAA JUMPI PUSH0 DUP1 REVERT JUMPDEST POP PUSH2 0xB3 PUSH2 0x639 JUMP JUMPDEST STOP JUMPDEST CALLVALUE DUP1 ISZERO PUSH2 0xC0 JUMPI PUSH0 DUP1 REVERT JUMPDEST POP PUSH2 0xC9 PUSH2 0x8A2 JUMP JUMPDEST PUSH1 0x40 MLOAD PUSH2 0xD6 SWAP2 SWAP1 PUSH2 0x16A0 JUMP JUMPDEST PUSH1 0x40 MLOAD DUP1 SWAP2 SUB SWAP1 RETURN JUMPDEST CALLVALUE DUP1 ISZERO PUSH2 0xEA JUMPI PUSH0 DUP1 REVERT JUMPDEST POP PUSH2 0xF3 PUSH2 0x8A8 JUMP JUMPDEST PUSH1 0x40 MLOAD PUSH2 0x100 SWAP2 SWAP1 PUSH2 0x16D3 JUMP JUMPDEST PUSH1 0x40 MLOAD DUP1 SWAP2 SUB SWAP1 RETURN JUMPDEST CALLVALUE DUP1 ISZERO PUSH2 0x114 JUMPI PUSH0 DUP1 REVERT JUMPDEST POP PUSH2 0x12F PUSH1 0x4 DUP1 CALLDATASIZE SUB DUP2 ADD SWAP1 PUSH2 0x12A SWAP2 SWAP1 PUSH2 0x1755 JUMP JUMPDEST PUSH2 0x8BA JUMP JUMPDEST STOP JUMPDEST CALLVALUE DUP1 ISZERO PUSH2 0x13C JUMPI PUSH0 DUP1 REVERT JUMPDEST POP PUSH2 0x157 PUSH1 0x4 DUP1 CALLDATASIZE SUB DUP2 ADD SWAP1 PUSH2 0x152 SWAP2 SWAP1 PUSH2 0x17CA JUMP JUMPDEST PUSH2 0xB3D JUMP JUMPDEST STOP JUMPDEST CALLVALUE DUP1 ISZERO PUSH2 0x164 JUMPI PUSH0 DUP1 REVERT JUMPDEST POP PUSH2 0x17F PUSH1 0x4 DUP1 CALLDATASIZE SUB DUP2 ADD SWAP1 PUSH2 0x17A SWAP2 SWAP1 PUSH2 0x184F JUMP JUMPDEST PUSH2 0xDD3 JUMP JUMPDEST PUSH1 0x40 MLOAD PUSH2 0x18C SWAP2 SWAP1 PUSH2 0x16D3 JUMP JUMPDEST PUSH1 0x40 MLOAD DUP1 SWAP2 SUB SWAP1 RETURN JUMPDEST PUSH2 0x19D PUSH2 0xDEF JUMP JUMPDEST STOP JUMPDEST CALLVALUE DUP1 ISZERO PUSH2 0x1AA JUMPI PUSH0 DUP1 REVERT JUMPDEST POP PUSH2 0x1C5 PUSH1 0x4 DUP1 CALLDATASIZE SUB DUP2 ADD SWAP1 PUSH2 0x1C0 SWAP2 SWAP1 PUSH2 0x184F JUMP JUMPDEST PUSH2 0x1194 JUMP JUMPDEST PUSH1 0x40 MLOAD PUSH2 0x1D2 SWAP2 SWAP1 PUSH2 0x16D3 JUMP JUMPDEST PUSH1 0x40 MLOAD DUP1 SWAP2 SUB SWAP1 RETURN JUMPDEST PUSH0 DUP1 CALLER PUSH20 0xFFFFFFFFFFFFFFFFFFFFFFFFFFFFFFFFFFFFFFFF AND PUSH20 0xFFFFFFFFFFFFFFFFFFFFFFFFFFFFFFFFFFFFFFFF AND DUP2 MSTORE PUSH1 0x20 ADD SWAP1 DUP2 MSTORE PUSH1 0x20 ADD PUSH0 KECCAK256 PUSH0 SWAP1 SLOAD SWAP1 PUSH2 0x100 EXP SWAP1 DIV PUSH1 0xFF AND ISZERO PUSH2 0x43D JUMPI PUSH1 0x7 PUSH0 SWAP1 SLOAD SWAP1 PUSH2 0x100 EXP SWAP1 DIV PUSH1 0xFF AND PUSH2 0x277 JUMPI PUSH1 0x40 MLOAD PUSH32 0x8C379A000000000000000000000000000000000000000000000000000000000 DUP2 MSTORE PUSH1 0x4 ADD PUSH2 0x26E SWAP1 PUSH2 0x18FA JUMP JUMPDEST PUSH1 0x40 MLOAD DUP1 SWAP2 SUB SWAP1 REVERT JUMPDEST PUSH1 0x1 PUSH0 CALLER PUSH20 0xFFFFFFFFFFFFFFFFFFFFFFFFFFFFFFFFFFFFFFFF AND PUSH20 0xFFFFFFFFFFFFFFFFFFFFFFFFFFFFFFFFFFFFFFFF AND DUP2 MSTORE PUSH1 0x20 ADD SWAP1 DUP2 MSTORE PUSH1 0x20 ADD PUSH0 KECCAK256 SLOAD SELFBALANCE LT ISZERO PUSH2 0x2C5 JUMPI PUSH2 0x2C4 PUSH2 0x1918 JUMP JUMPDEST JUMPDEST PUSH0 DUP1 PUSH0 CALLER PUSH20 0xFFFFFFFFFFFFFFFFFFFFFFFFFFFFFFFFFFFFFFFF AND PUSH20 0xFFFFFFFFFFFFFFFFFFFFFFFFFFFFFFFFFFFFFFFF AND DUP2 MSTORE PUSH1 0x20 ADD SWAP1 DUP2 MSTORE PUSH1 0x20 ADD PUSH0 KECCAK256 PUSH0 PUSH2 0x100 EXP DUP2 SLOAD DUP2 PUSH1 0xFF MUL NOT AND SWAP1 DUP4 ISZERO ISZERO MUL OR SWAP1 SSTORE POP PUSH0 PUSH1 0x1 PUSH0 CALLER PUSH20 0xFFFFFFFFFFFFFFFFFFFFFFFFFFFFFFFFFFFFFFFF AND PUSH20 0xFFFFFFFFFFFFFFFFFFFFFFFFFFFFFFFFFFFFFFFF AND DUP2 MSTORE PUSH1 0x20 ADD SWAP1 DUP2 MSTORE PUSH1 0x20 ADD PUSH0 KECCAK256 SLOAD SWAP1 POP DUP1 PUSH1 0x2 PUSH0 DUP3 DUP3 SLOAD PUSH2 0x36A SWAP2 SWAP1 PUSH2 0x1972 JUMP JUMPDEST SWAP3 POP POP DUP2 SWAP1 SSTORE POP PUSH0 PUSH1 0x1 PUSH0 CALLER PUSH20 0xFFFFFFFFFFFFFFFFFFFFFFFFFFFFFFFFFFFFFFFF AND PUSH20 0xFFFFFFFFFFFFFFFFFFFFFFFFFFFFFFFFFFFFFFFF AND DUP2 MSTORE PUSH1 0x20 ADD SWAP1 DUP2 MSTORE PUSH1 0x20 ADD PUSH0 KECCAK256 DUP2 SWAP1 SSTORE POP CALLER PUSH20 0xFFFFFFFFFFFFFFFFFFFFFFFFFFFFFFFFFFFFFFFF AND PUSH2 0x8FC DUP3 SWAP1 DUP2 ISZERO MUL SWAP1 PUSH1 0x40 MLOAD PUSH0 PUSH1 0x40 MLOAD DUP1 DUP4 SUB DUP2 DUP6 DUP9 DUP9 CALL SWAP4 POP POP POP POP ISZERO DUP1 ISZERO PUSH2 0x3F6 JUMPI RETURNDATASIZE PUSH0 DUP1 RETURNDATACOPY RETURNDATASIZE PUSH0 REVERT JUMPDEST POP PUSH0 SELFBALANCE SUB PUSH2 0x437 JUMPI PUSH32 0x0 PUSH20 0xFFFFFFFFFFFFFFFFFFFFFFFFFFFFFFFFFFFFFFFF AND SELFDESTRUCT JUMPDEST POP PUSH2 0x637 JUMP JUMPDEST PUSH1 0x3 PUSH0 CALLER PUSH20 0xFFFFFFFFFFFFFFFFFFFFFFFFFFFFFFFFFFFFFFFF AND PUSH20 0xFFFFFFFFFFFFFFFFFFFFFFFFFFFFFFFFFFFFFFFF AND DUP2 MSTORE PUSH1 0x20 ADD SWAP1 DUP2 MSTORE PUSH1 0x20 ADD PUSH0 KECCAK256 PUSH0 SWAP1 SLOAD SWAP1 PUSH2 0x100 EXP SWAP1 DIV PUSH1 0xFF AND ISZERO PUSH2 0x5FB JUMPI PUSH1 0x4 PUSH0 CALLER PUSH20 0xFFFFFFFFFFFFFFFFFFFFFFFFFFFFFFFFFFFFFFFF AND PUSH20 0xFFFFFFFFFFFFFFFFFFFFFFFFFFFFFFFFFFFFFFFF AND DUP2 MSTORE PUSH1 0x20 ADD SWAP1 DUP2 MSTORE PUSH1 0x20 ADD PUSH0 KECCAK256 SLOAD SELFBALANCE LT ISZERO PUSH2 0x4DA JUMPI PUSH2 0x4D9 PUSH2 0x1918 JUMP JUMPDEST JUMPDEST PUSH0 PUSH1 0x3 PUSH0 CALLER PUSH20 0xFFFFFFFFFFFFFFFFFFFFFFFFFFFFFFFFFFFFFFFF AND PUSH20 0xFFFFFFFFFFFFFFFFFFFFFFFFFFFFFFFFFFFFFFFF AND DUP2 MSTORE PUSH1 0x20 ADD SWAP1 DUP2 MSTORE PUSH1 0x20 ADD PUSH0 KECCAK256 PUSH0 PUSH2 0x100 EXP DUP2 SLOAD DUP2 PUSH1 0xFF MUL NOT AND SWAP1 DUP4 ISZERO ISZERO MUL OR SWAP1 SSTORE POP PUSH0 PUSH1 0x4 PUSH0 CALLER PUSH20 0xFFFFFFFFFFFFFFFFFFFFFFFFFFFFFFFFFFFFFFFF AND PUSH20 0xFFFFFFFFFFFFFFFFFFFFFFFFFFFFFFFFFFFFFFFF AND DUP2 MSTORE PUSH1 0x20 ADD SWAP1 DUP2 MSTORE PUSH1 0x20 ADD PUSH0 KECCAK256 SLOAD SWAP1 POP PUSH0 PUSH1 0x4 PUSH0 CALLER PUSH20 0xFFFFFFFFFFFFFFFFFFFFFFFFFFFFFFFFFFFFFFFF AND PUSH20 0xFFFFFFFFFFFFFFFFFFFFFFFFFFFFFFFFFFFFFFFF AND DUP2 MSTORE PUSH1 0x20 ADD SWAP1 DUP2 MSTORE PUSH1 0x20 ADD PUSH0 KECCAK256 DUP2 SWAP1 SSTORE POP CALLER PUSH20 0xFFFFFFFFFFFFFFFFFFFFFFFFFFFFFFFFFFFFFFFF AND PUSH2 0x8FC DUP3 SWAP1 DUP2 ISZERO MUL SWAP1 PUSH1 0x40 MLOAD PUSH0 PUSH1 0x40 MLOAD DUP1 DUP4 SUB DUP2 DUP6 DUP9 DUP9 CALL SWAP4 POP POP POP POP ISZERO DUP1 ISZERO PUSH2 0x5F4 JUMPI RETURNDATASIZE PUSH0 DUP1 RETURNDATACOPY RETURNDATASIZE PUSH0 REVERT JUMPDEST POP POP PUSH2 0x636 JUMP JUMPDEST PUSH1 0x40 MLOAD PUSH32 0x8C379A000000000000000000000000000000000000000000000000000000000 DUP2 MSTORE PUSH1 0x4 ADD PUSH2 0x62D SWAP1 PUSH2 0x1A15 JUMP JUMPDEST PUSH1 0x40 MLOAD DUP1 SWAP2 SUB SWAP1 REVERT JUMPDEST JUMPDEST JUMP JUMPDEST PUSH0 DUP1 CALLER PUSH20 0xFFFFFFFFFFFFFFFFFFFFFFFFFFFFFFFFFFFFFFFF AND PUSH20 0xFFFFFFFFFFFFFFFFFFFFFFFFFFFFFFFFFFFFFFFF AND DUP2 MSTORE PUSH1 0x20 ADD SWAP1 DUP2 MSTORE PUSH1 0x20 ADD PUSH0 KECCAK256 PUSH0 SWAP1 SLOAD SWAP1 PUSH2 0x100 EXP SWAP1 DIV PUSH1 0xFF AND PUSH2 0x6C1 JUMPI PUSH1 0x40 MLOAD PUSH32 0x8C379A000000000000000000000000000000000000000000000000000000000 DUP2 MSTORE PUSH1 0x4 ADD PUSH2 0x6B8 SWAP1 PUSH2 0x1AA3 JUMP JUMPDEST PUSH1 0x40 MLOAD DUP1 SWAP2 SUB SWAP1 REVERT JUMPDEST PUSH0 ISZERO ISZERO PUSH1 0x7 PUSH0 SWAP1 SLOAD SWAP1 PUSH2 0x100 EXP SWAP1 DIV PUSH1 0xFF AND ISZERO ISZERO EQ PUSH2 0x715 JUMPI PUSH1 0x40 MLOAD PUSH32 0x8C379A000000000000000000000000000000000000000000000000000000000 DUP2 MSTORE PUSH1 0x4 ADD PUSH2 0x70C SWAP1 PUSH2 0x1B0B JUMP JUMPDEST PUSH1 0x40 MLOAD DUP1 SWAP2 SUB SWAP1 REVERT JUMPDEST PUSH0 PUSH1 0x6 PUSH0 DUP2 SLOAD DUP1 SWAP3 SWAP2 SWAP1 PUSH2 0x728 SWAP1 PUSH2 0x1B29 JUMP JUMPDEST SWAP2 SWAP1 POP SSTORE SWAP1 POP PUSH0 PUSH1 0x5 PUSH0 DUP4 DUP2 MSTORE PUSH1 0x20 ADD SWAP1 DUP2 MSTORE PUSH1 0x20 ADD PUSH0 KECCAK256 SWAP1 POP PUSH1 0x1 DUP2 PUSH0 ADD PUSH0 PUSH2 0x100 EXP DUP2 SLOAD DUP2 PUSH1 0xFF MUL NOT AND SWAP1 DUP4 PUSH1 0x2 DUP2 GT ISZERO PUSH2 0x768 JUMPI PUSH2 0x767 PUSH2 0x1B70 JUMP JUMPDEST JUMPDEST MUL OR SWAP1 SSTORE POP CALLER DUP2 PUSH1 0x2 ADD PUSH0 PUSH2 0x100 EXP DUP2 SLOAD DUP2 PUSH20 0xFFFFFFFFFFFFFFFFFFFFFFFFFFFFFFFFFFFFFFFF MUL NOT AND SWAP1 DUP4 PUSH20 0xFFFFFFFFFFFFFFFFFFFFFFFFFFFFFFFFFFFFFFFF AND MUL OR SWAP1 SSTORE POP PUSH1 0x1 DUP2 PUSH1 0x3 ADD PUSH0 CALLER PUSH20 0xFFFFFFFFFFFFFFFFFFFFFFFFFFFFFFFFFFFFFFFF AND PUSH20 0xFFFFFFFFFFFFFFFFFFFFFFFFFFFFFFFFFFFFFFFF AND DUP2 MSTORE PUSH1 0x20 ADD SWAP1 DUP2 MSTORE PUSH1 0x20 ADD PUSH0 KECCAK256 PUSH0 PUSH2 0x100 EXP DUP2 SLOAD DUP2 PUSH1 0xFF MUL NOT AND SWAP1 DUP4 ISZERO ISZERO MUL OR SWAP1 SSTORE POP PUSH1 0x1 PUSH0 CALLER PUSH20 0xFFFFFFFFFFFFFFFFFFFFFFFFFFFFFFFFFFFFFFFF AND PUSH20 0xFFFFFFFFFFFFFFFFFFFFFFFFFFFFFFFFFFFFFFFF AND DUP2 MSTORE PUSH1 0x20 ADD SWAP1 DUP2 MSTORE PUSH1 0x20 ADD PUSH0 KECCAK256 SLOAD DUP2 PUSH1 0x4 ADD DUP2 SWAP1 SSTORE POP PUSH0 DUP2 PUSH1 0x5 ADD PUSH0 PUSH2 0x100 EXP DUP2 SLOAD DUP2 PUSH1 0xFF MUL NOT AND SWAP1 DUP4 ISZERO ISZERO MUL OR SWAP1 SSTORE POP PUSH32 0x92FA05A3E70CC704E13B5E88E311D9119A341828433ECDD4672E38EEC78E3E5D DUP3 PUSH1 0x40 MLOAD PUSH2 0x896 SWAP2 SWAP1 PUSH2 0x16A0 JUMP JUMPDEST PUSH1 0x40 MLOAD DUP1 SWAP2 SUB SWAP1 LOG1 POP POP JUMP JUMPDEST PUSH1 0x2 SLOAD DUP2 JUMP JUMPDEST PUSH1 0x7 PUSH0 SWAP1 SLOAD SWAP1 PUSH2 0x100 EXP SWAP1 DIV PUSH1 0xFF AND DUP2 JUMP JUMPDEST PUSH0 DUP1 CALLER PUSH20 0xFFFFFFFFFFFFFFFFFFFFFFFFFFFFFFFFFFFFFFFF AND PUSH20 0xFFFFFFFFFFFFFFFFFFFFFFFFFFFFFFFFFFFFFFFF AND DUP2 MSTORE PUSH1 0x20 ADD SWAP1 DUP2 MSTORE PUSH1 0x20 ADD PUSH0 KECCAK256 PUSH0 SWAP1 SLOAD SWAP1 PUSH2 0x100 EXP SWAP1 DIV PUSH1 0xFF AND PUSH2 0x942 JUMPI PUSH1 0x40 MLOAD PUSH32 0x8C379A000000000000000000000000000000000000000000000000000000000 DUP2 MSTORE PUSH1 0x4 ADD PUSH2 0x939 SWAP1 PUSH2 0x1AA3 JUMP JUMPDEST PUSH1 0x40 MLOAD DUP1 SWAP2 SUB SWAP1 REVERT JUMPDEST PUSH0 ISZERO ISZERO PUSH1 0x7 PUSH0 SWAP1 SLOAD SWAP1 PUSH2 0x100 EXP SWAP1 DIV PUSH1 0xFF AND ISZERO ISZERO EQ PUSH2 0x996 JUMPI PUSH1 0x40 MLOAD PUSH32 0x8C379A000000000000000000000000000000000000000000000000000000000 DUP2 MSTORE PUSH1 0x4 ADD PUSH2 0x98D SWAP1 PUSH2 0x1B0B JUMP JUMPDEST PUSH1 0x40 MLOAD DUP1 SWAP2 SUB SWAP1 REVERT JUMPDEST PUSH0 PUSH1 0x6 PUSH0 DUP2 SLOAD DUP1 SWAP3 SWAP2 SWAP1 PUSH2 0x9A9 SWAP1 PUSH2 0x1B29 JUMP JUMPDEST SWAP2 SWAP1 POP SSTORE SWAP1 POP PUSH0 PUSH1 0x5 PUSH0 DUP4 DUP2 MSTORE PUSH1 0x20 ADD SWAP1 DUP2 MSTORE PUSH1 0x20 ADD PUSH0 KECCAK256 SWAP1 POP PUSH1 0x1 DUP2 PUSH0 ADD PUSH0 PUSH2 0x100 EXP DUP2 SLOAD DUP2 PUSH1 0xFF MUL NOT AND SWAP1 DUP4 PUSH1 0x2 DUP2 GT ISZERO PUSH2 0x9E9 JUMPI PUSH2 0x9E8 PUSH2 0x1B70 JUMP JUMPDEST JUMPDEST MUL OR SWAP1 SSTORE POP CALLER DUP2 PUSH1 0x2 ADD PUSH0 PUSH2 0x100 EXP DUP2 SLOAD DUP2 PUSH20 0xFFFFFFFFFFFFFFFFFFFFFFFFFFFFFFFFFFFFFFFF MUL NOT AND SWAP1 DUP4 PUSH20 0xFFFFFFFFFFFFFFFFFFFFFFFFFFFFFFFFFFFFFFFF AND MUL OR SWAP1 SSTORE POP DUP4 DUP4 DUP3 PUSH1 0x1 ADD SWAP2 DUP3 PUSH2 0xA43 SWAP3 SWAP2 SWAP1 PUSH2 0x1DCE JUMP JUMPDEST POP PUSH1 0x1 DUP2 PUSH1 0x3 ADD PUSH0 CALLER PUSH20 0xFFFFFFFFFFFFFFFFFFFFFFFFFFFFFFFFFFFFFFFF AND PUSH20 0xFFFFFFFFFFFFFFFFFFFFFFFFFFFFFFFFFFFFFFFF AND DUP2 MSTORE PUSH1 0x20 ADD SWAP1 DUP2 MSTORE PUSH1 0x20 ADD PUSH0 KECCAK256 PUSH0 PUSH2 0x100 EXP DUP2 SLOAD DUP2 PUSH1 0xFF MUL NOT AND SWAP1 DUP4 ISZERO ISZERO MUL OR SWAP1 SSTORE POP PUSH1 0x1 PUSH0 CALLER PUSH20 0xFFFFFFFFFFFFFFFFFFFFFFFFFFFFFFFFFFFFFFFF AND PUSH20 0xFFFFFFFFFFFFFFFFFFFFFFFFFFFFFFFFFFFFFFFF AND DUP2 MSTORE PUSH1 0x20 ADD SWAP1 DUP2 MSTORE PUSH1 0x20 ADD PUSH0 KECCAK256 SLOAD DUP2 PUSH1 0x4 ADD DUP2 SWAP1 SSTORE POP PUSH0 DUP2 PUSH1 0x5 ADD PUSH0 PUSH2 0x100 EXP DUP2 SLOAD DUP2 PUSH1 0xFF MUL NOT AND SWAP1 DUP4 ISZERO ISZERO MUL OR SWAP1 SSTORE POP PUSH32 0xD47040B3AAC7E360D35CF5DBDE927CD5AD8DA48010490BDCDB495C5CEAEB0438 DUP3 DUP6 DUP6 PUSH1 0x40 MLOAD PUSH2 0xB2F SWAP4 SWAP3 SWAP2 SWAP1 PUSH2 0x1EE5 JUMP JUMPDEST PUSH1 0x40 MLOAD DUP1 SWAP2 SUB SWAP1 LOG1 POP POP POP POP JUMP JUMPDEST PUSH0 DUP1 CALLER PUSH20 0xFFFFFFFFFFFFFFFFFFFFFFFFFFFFFFFFFFFFFFFF AND PUSH20 0xFFFFFFFFFFFFFFFFFFFFFFFFFFFFFFFFFFFFFFFF AND DUP2 MSTORE PUSH1 0x20 ADD SWAP1 DUP2 MSTORE PUSH1 0x20 ADD PUSH0 KECCAK256 PUSH0 SWAP1 SLOAD SWAP1 PUSH2 0x100 EXP SWAP1 DIV PUSH1 0xFF AND PUSH2 0xBC5 JUMPI PUSH1 0x40 MLOAD PUSH32 0x8C379A000000000000000000000000000000000000000000000000000000000 DUP2 MSTORE PUSH1 0x4 ADD PUSH2 0xBBC SWAP1 PUSH2 0x1AA3 JUMP JUMPDEST PUSH1 0x40 MLOAD DUP1 SWAP2 SUB SWAP1 REVERT JUMPDEST PUSH0 ISZERO ISZERO PUSH1 0x7 PUSH0 SWAP1 SLOAD SWAP1 PUSH2 0x100 EXP SWAP1 DIV PUSH1 0xFF AND ISZERO ISZERO EQ PUSH2 0xC19 JUMPI PUSH1 0x40 MLOAD PUSH32 0x8C379A000000000000000000000000000000000000000000000000000000000 DUP2 MSTORE PUSH1 0x4 ADD PUSH2 0xC10 SWAP1 PUSH2 0x1B0B JUMP JUMPDEST PUSH1 0x40 MLOAD DUP1 SWAP2 SUB SWAP1 REVERT JUMPDEST PUSH0 PUSH1 0x5 PUSH0 DUP4 DUP2 MSTORE PUSH1 0x20 ADD SWAP1 DUP2 MSTORE PUSH1 0x20 ADD PUSH0 KECCAK256 SWAP1 POP PUSH0 ISZERO ISZERO DUP2 PUSH1 0x5 ADD PUSH0 SWAP1 SLOAD SWAP1 PUSH2 0x100 EXP SWAP1 DIV PUSH1 0xFF AND ISZERO ISZERO EQ PUSH2 0xC83 JUMPI PUSH1 0x40 MLOAD PUSH32 0x8C379A000000000000000000000000000000000000000000000000000000000 DUP2 MSTORE PUSH1 0x4 ADD PUSH2 0xC7A SWAP1 PUSH2 0x1F85 JUMP JUMPDEST PUSH1 0x40 MLOAD DUP1 SWAP2 SUB SWAP1 REVERT JUMPDEST PUSH1 0x6 SLOAD DUP3 LT PUSH2 0xCC7 JUMPI PUSH1 0x40 MLOAD PUSH32 0x8C379A000000000000000000000000000000000000000000000000000000000 DUP2 MSTORE PUSH1 0x4 ADD PUSH2 0xCBE SWAP1 PUSH2 0x1FED JUMP JUMPDEST PUSH1 0x40 MLOAD DUP1 SWAP2 SUB SWAP1 REVERT JUMPDEST DUP1 PUSH1 0x3 ADD PUSH0 CALLER PUSH20 0xFFFFFFFFFFFFFFFFFFFFFFFFFFFFFFFFFFFFFFFF AND PUSH20 0xFFFFFFFFFFFFFFFFFFFFFFFFFFFFFFFFFFFFFFFF AND DUP2 MSTORE PUSH1 0x20 ADD SWAP1 DUP2 MSTORE PUSH1 0x20 ADD PUSH0 KECCAK256 PUSH0 SWAP1 SLOAD SWAP1 PUSH2 0x100 EXP SWAP1 DIV PUSH1 0xFF AND PUSH2 0xDC6 JUMPI PUSH1 0x1 DUP2 PUSH1 0x3 ADD PUSH0 CALLER PUSH20 0xFFFFFFFFFFFFFFFFFFFFFFFFFFFFFFFFFFFFFFFF AND PUSH20 0xFFFFFFFFFFFFFFFFFFFFFFFFFFFFFFFFFFFFFFFF AND DUP2 MSTORE PUSH1 0x20 ADD SWAP1 DUP2 MSTORE PUSH1 0x20 ADD PUSH0 KECCAK256 PUSH0 PUSH2 0x100 EXP DUP2 SLOAD DUP2 PUSH1 0xFF MUL NOT AND SWAP1 DUP4 ISZERO ISZERO MUL OR SWAP1 SSTORE POP PUSH1 0x1 PUSH0 CALLER PUSH20 0xFFFFFFFFFFFFFFFFFFFFFFFFFFFFFFFFFFFFFFFF AND PUSH20 0xFFFFFFFFFFFFFFFFFFFFFFFFFFFFFFFFFFFFFFFF AND DUP2 MSTORE PUSH1 0x20 ADD SWAP1 DUP2 MSTORE PUSH1 0x20 ADD PUSH0 KECCAK256 SLOAD DUP2 PUSH1 0x4 ADD PUSH0 DUP3 DUP3 SLOAD PUSH2 0xDBE SWAP2 SWAP1 PUSH2 0x200B JUMP JUMPDEST SWAP3 POP POP DUP2 SWAP1 SSTORE POP JUMPDEST PUSH2 0xDCF DUP2 PUSH2 0x11B1 JUMP JUMPDEST POP POP JUMP JUMPDEST PUSH0 PUSH1 0x20 MSTORE DUP1 PUSH0 MSTORE PUSH1 0x40 PUSH0 KECCAK256 PUSH0 SWAP2 POP SLOAD SWAP1 PUSH2 0x100 EXP SWAP1 DIV PUSH1 0xFF AND DUP2 JUMP JUMPDEST PUSH0 ISZERO ISZERO PUSH1 0x7 PUSH0 SWAP1 SLOAD SWAP1 PUSH2 0x100 EXP SWAP1 DIV PUSH1 0xFF AND ISZERO ISZERO EQ PUSH2 0xE43 JUMPI PUSH1 0x40 MLOAD PUSH32 0x8C379A000000000000000000000000000000000000000000000000000000000 DUP2 MSTORE PUSH1 0x4 ADD PUSH2 0xE3A SWAP1 PUSH2 0x1B0B JUMP JUMPDEST PUSH1 0x40 MLOAD DUP1 SWAP2 SUB SWAP1 REVERT JUMPDEST PUSH0 DUP1 CALLER PUSH20 0xFFFFFFFFFFFFFFFFFFFFFFFFFFFFFFFFFFFFFFFF AND PUSH20 0xFFFFFFFFFFFFFFFFFFFFFFFFFFFFFFFFFFFFFFFF AND DUP2 MSTORE PUSH1 0x20 ADD SWAP1 DUP2 MSTORE PUSH1 0x20 ADD PUSH0 KECCAK256 PUSH0 SWAP1 SLOAD SWAP1 PUSH2 0x100 EXP SWAP1 DIV PUSH1 0xFF AND ISZERO PUSH2 0xF01 JUMPI CALLVALUE PUSH1 0x1 PUSH0 CALLER PUSH20 0xFFFFFFFFFFFFFFFFFFFFFFFFFFFFFFFFFFFFFFFF AND PUSH20 0xFFFFFFFFFFFFFFFFFFFFFFFFFFFFFFFFFFFFFFFF AND DUP2 MSTORE PUSH1 0x20 ADD SWAP1 DUP2 MSTORE PUSH1 0x20 ADD PUSH0 KECCAK256 PUSH0 DUP3 DUP3 SLOAD PUSH2 0xEDD SWAP2 SWAP1 PUSH2 0x200B JUMP JUMPDEST SWAP3 POP POP DUP2 SWAP1 SSTORE POP CALLVALUE PUSH1 0x2 PUSH0 DUP3 DUP3 SLOAD PUSH2 0xEF5 SWAP2 SWAP1 PUSH2 0x200B JUMP JUMPDEST SWAP3 POP POP DUP2 SWAP1 SSTORE POP PUSH2 0x1192 JUMP JUMPDEST PUSH1 0x3 PUSH0 CALLER PUSH20 0xFFFFFFFFFFFFFFFFFFFFFFFFFFFFFFFFFFFFFFFF AND PUSH20 0xFFFFFFFFFFFFFFFFFFFFFFFFFFFFFFFFFFFFFFFF AND DUP2 MSTORE PUSH1 0x20 ADD SWAP1 DUP2 MSTORE PUSH1 0x20 ADD PUSH0 KECCAK256 PUSH0 SWAP1 SLOAD SWAP1 PUSH2 0x100 EXP SWAP1 DIV PUSH1 0xFF AND ISZERO PUSH2 0xFA8 JUMPI CALLVALUE PUSH1 0x4 PUSH0 CALLER PUSH20 0xFFFFFFFFFFFFFFFFFFFFFFFFFFFFFFFFFFFFFFFF AND PUSH20 0xFFFFFFFFFFFFFFFFFFFFFFFFFFFFFFFFFFFFFFFF AND DUP2 MSTORE PUSH1 0x20 ADD SWAP1 DUP2 MSTORE PUSH1 0x20 ADD PUSH0 KECCAK256 PUSH0 DUP3 DUP3 SLOAD PUSH2 0xF9C SWAP2 SWAP1 PUSH2 0x200B JUMP JUMPDEST SWAP3 POP POP DUP2 SWAP1 SSTORE POP PUSH2 0x1191 JUMP JUMPDEST PUSH32 0x0 CALLVALUE GT PUSH2 0x100A JUMPI PUSH1 0x40 MLOAD PUSH32 0x8C379A000000000000000000000000000000000000000000000000000000000 DUP2 MSTORE PUSH1 0x4 ADD PUSH2 0x1001 SWAP1 PUSH2 0x20D4 JUMP JUMPDEST PUSH1 0x40 MLOAD DUP1 SWAP2 SUB SWAP1 REVERT JUMPDEST PUSH1 0x1 PUSH1 0x3 PUSH0 CALLER PUSH20 0xFFFFFFFFFFFFFFFFFFFFFFFFFFFFFFFFFFFFFFFF AND PUSH20 0xFFFFFFFFFFFFFFFFFFFFFFFFFFFFFFFFFFFFFFFF AND DUP2 MSTORE PUSH1 0x20 ADD SWAP1 DUP2 MSTORE PUSH1 0x20 ADD PUSH0 KECCAK256 PUSH0 PUSH2 0x100 EXP DUP2 SLOAD DUP2 PUSH1 0xFF MUL NOT AND SWAP1 DUP4 ISZERO ISZERO MUL OR SWAP1 SSTORE POP CALLVALUE PUSH1 0x4 PUSH0 CALLER PUSH20 0xFFFFFFFFFFFFFFFFFFFFFFFFFFFFFFFFFFFFFFFF AND PUSH20 0xFFFFFFFFFFFFFFFFFFFFFFFFFFFFFFFFFFFFFFFF AND DUP2 MSTORE PUSH1 0x20 ADD SWAP1 DUP2 MSTORE PUSH1 0x20 ADD PUSH0 KECCAK256 DUP2 SWAP1 SSTORE POP PUSH0 PUSH1 0x6 PUSH0 DUP2 SLOAD DUP1 SWAP3 SWAP2 SWAP1 PUSH2 0x10B4 SWAP1 PUSH2 0x1B29 JUMP JUMPDEST SWAP2 SWAP1 POP SSTORE SWAP1 POP PUSH32 0x6B7638E3CD8FFDD9B06CAC2128A6144EE1A7E562B8DDB64A761889711A774323 DUP2 CALLER PUSH1 0x40 MLOAD PUSH2 0x10EB SWAP3 SWAP2 SWAP1 PUSH2 0x2101 JUMP JUMPDEST PUSH1 0x40 MLOAD DUP1 SWAP2 SUB SWAP1 LOG1 PUSH0 PUSH1 0x5 PUSH0 DUP4 DUP2 MSTORE PUSH1 0x20 ADD SWAP1 DUP2 MSTORE PUSH1 0x20 ADD PUSH0 KECCAK256 SWAP1 POP PUSH0 DUP2 PUSH0 ADD PUSH0 PUSH2 0x100 EXP DUP2 SLOAD DUP2 PUSH1 0xFF MUL NOT AND SWAP1 DUP4 PUSH1 0x2 DUP2 GT ISZERO PUSH2 0x112C JUMPI PUSH2 0x112B PUSH2 0x1B70 JUMP JUMPDEST JUMPDEST MUL OR SWAP1 SSTORE POP CALLER DUP2 PUSH1 0x2 ADD PUSH0 PUSH2 0x100 EXP DUP2 SLOAD DUP2 PUSH20 0xFFFFFFFFFFFFFFFFFFFFFFFFFFFFFFFFFFFFFFFF MUL NOT AND SWAP1 DUP4 PUSH20 0xFFFFFFFFFFFFFFFFFFFFFFFFFFFFFFFFFFFFFFFF AND MUL OR SWAP1 SSTORE POP PUSH0 DUP2 PUSH1 0x5 ADD PUSH0 PUSH2 0x100 EXP DUP2 SLOAD DUP2 PUSH1 0xFF MUL NOT AND SWAP1 DUP4 ISZERO ISZERO MUL OR SWAP1 SSTORE POP POP POP JUMPDEST JUMPDEST JUMP JUMPDEST PUSH1 0x3 PUSH1 0x20 MSTORE DUP1 PUSH0 MSTORE PUSH1 0x40 PUSH0 KECCAK256 PUSH0 SWAP2 POP SLOAD SWAP1 PUSH2 0x100 EXP SWAP1 DIV PUSH1 0xFF AND DUP2 JUMP JUMPDEST PUSH0 PUSH1 0x2 DUP2 GT ISZERO PUSH2 0x11C4 JUMPI PUSH2 0x11C3 PUSH2 0x1B70 JUMP JUMPDEST JUMPDEST DUP2 PUSH0 ADD PUSH0 SWAP1 SLOAD SWAP1 PUSH2 0x100 EXP SWAP1 DIV PUSH1 0xFF AND PUSH1 0x2 DUP2 GT ISZERO PUSH2 0x11E6 JUMPI PUSH2 0x11E5 PUSH2 0x1B70 JUMP JUMPDEST JUMPDEST SUB PUSH2 0x151C JUMPI PUSH1 0x1 PUSH1 0x2 DUP1 SLOAD PUSH2 0x11FB SWAP2 SWAP1 PUSH2 0x2155 JUMP JUMPDEST PUSH2 0x1205 SWAP2 SWAP1 PUSH2 0x200B JUMP JUMPDEST DUP2 PUSH1 0x4 ADD SLOAD GT ISZERO PUSH2 0x1517 JUMPI PUSH1 0x1 DUP2 PUSH1 0x5 ADD PUSH0 PUSH2 0x100 EXP DUP2 SLOAD DUP2 PUSH1 0xFF MUL NOT AND SWAP1 DUP4 ISZERO ISZERO MUL OR SWAP1 SSTORE POP PUSH1 0x1 PUSH0 DUP1 DUP4 PUSH1 0x2 ADD PUSH0 SWAP1 SLOAD SWAP1 PUSH2 0x100 EXP SWAP1 DIV PUSH20 0xFFFFFFFFFFFFFFFFFFFFFFFFFFFFFFFFFFFFFFFF AND PUSH20 0xFFFFFFFFFFFFFFFFFFFFFFFFFFFFFFFFFFFFFFFF AND PUSH20 0xFFFFFFFFFFFFFFFFFFFFFFFFFFFFFFFFFFFFFFFF AND DUP2 MSTORE PUSH1 0x20 ADD SWAP1 DUP2 MSTORE PUSH1 0x20 ADD PUSH0 KECCAK256 PUSH0 PUSH2 0x100 EXP DUP2 SLOAD DUP2 PUSH1 0xFF MUL NOT AND SWAP1 DUP4 ISZERO ISZERO MUL OR SWAP1 SSTORE POP PUSH0 PUSH1 0x3 PUSH0 DUP4 PUSH1 0x2 ADD PUSH0 SWAP1 SLOAD SWAP1 PUSH2 0x100 EXP SWAP1 DIV PUSH20 0xFFFFFFFFFFFFFFFFFFFFFFFFFFFFFFFFFFFFFFFF AND PUSH20 0xFFFFFFFFFFFFFFFFFFFFFFFFFFFFFFFFFFFFFFFF AND PUSH20 0xFFFFFFFFFFFFFFFFFFFFFFFFFFFFFFFFFFFFFFFF AND DUP2 MSTORE PUSH1 0x20 ADD SWAP1 DUP2 MSTORE PUSH1 0x20 ADD PUSH0 KECCAK256 PUSH0 PUSH2 0x100 EXP DUP2 SLOAD DUP2 PUSH1 0xFF MUL NOT AND SWAP1 DUP4 ISZERO ISZERO MUL OR SWAP1 SSTORE POP PUSH1 0x4 PUSH0 DUP3 PUSH1 0x2 ADD PUSH0 SWAP1 SLOAD SWAP1 PUSH2 0x100 EXP SWAP1 DIV PUSH20 0xFFFFFFFFFFFFFFFFFFFFFFFFFFFFFFFFFFFFFFFF AND PUSH20 0xFFFFFFFFFFFFFFFFFFFFFFFFFFFFFFFFFFFFFFFF AND PUSH20 0xFFFFFFFFFFFFFFFFFFFFFFFFFFFFFFFFFFFFFFFF AND DUP2 MSTORE PUSH1 0x20 ADD SWAP1 DUP2 MSTORE PUSH1 0x20 ADD PUSH0 KECCAK256 SLOAD PUSH1 0x1 PUSH0 DUP4 PUSH1 0x2 ADD PUSH0 SWAP1 SLOAD SWAP1 PUSH2 0x100 EXP SWAP1 DIV PUSH20 0xFFFFFFFFFFFFFFFFFFFFFFFFFFFFFFFFFFFFFFFF AND PUSH20 0xFFFFFFFFFFFFFFFFFFFFFFFFFFFFFFFFFFFFFFFF AND PUSH20 0xFFFFFFFFFFFFFFFFFFFFFFFFFFFFFFFFFFFFFFFF AND DUP2 MSTORE PUSH1 0x20 ADD SWAP1 DUP2 MSTORE PUSH1 0x20 ADD PUSH0 KECCAK256 DUP2 SWAP1 SSTORE POP PUSH1 0x4 PUSH0 DUP3 PUSH1 0x2 ADD PUSH0 SWAP1 SLOAD SWAP1 PUSH2 0x100 EXP SWAP1 DIV PUSH20 0xFFFFFFFFFFFFFFFFFFFFFFFFFFFFFFFFFFFFFFFF AND PUSH20 0xFFFFFFFFFFFFFFFFFFFFFFFFFFFFFFFFFFFFFFFF AND PUSH20 0xFFFFFFFFFFFFFFFFFFFFFFFFFFFFFFFFFFFFFFFF AND DUP2 MSTORE PUSH1 0x20 ADD SWAP1 DUP2 MSTORE PUSH1 0x20 ADD PUSH0 KECCAK256 SLOAD PUSH1 0x2 PUSH0 DUP3 DUP3 SLOAD PUSH2 0x1450 SWAP2 SWAP1 PUSH2 0x200B JUMP JUMPDEST SWAP3 POP POP DUP2 SWAP1 SSTORE POP PUSH0 PUSH1 0x4 PUSH0 DUP4 PUSH1 0x2 ADD PUSH0 SWAP1 SLOAD SWAP1 PUSH2 0x100 EXP SWAP1 DIV PUSH20 0xFFFFFFFFFFFFFFFFFFFFFFFFFFFFFFFFFFFFFFFF AND PUSH20 0xFFFFFFFFFFFFFFFFFFFFFFFFFFFFFFFFFFFFFFFF AND PUSH20 0xFFFFFFFFFFFFFFFFFFFFFFFFFFFFFFFFFFFFFFFF AND DUP2 MSTORE PUSH1 0x20 ADD SWAP1 DUP2 MSTORE PUSH1 0x20 ADD PUSH0 KECCAK256 DUP2 SWAP1 SSTORE POP PUSH32 0x78C530B4DAEBA31114749BBCB32EDBD288CE09D5AC627483B3A087397BDD9C71 DUP2 PUSH1 0x2 ADD PUSH0 SWAP1 SLOAD SWAP1 PUSH2 0x100 EXP SWAP1 DIV PUSH20 0xFFFFFFFFFFFFFFFFFFFFFFFFFFFFFFFFFFFFFFFF AND PUSH1 0x40 MLOAD PUSH2 0x150E SWAP2 SWAP1 PUSH2 0x2185 JUMP JUMPDEST PUSH1 0x40 MLOAD DUP1 SWAP2 SUB SWAP1 LOG1 JUMPDEST PUSH2 0x1685 JUMP JUMPDEST PUSH1 0x1 PUSH1 0x2 DUP2 GT ISZERO PUSH2 0x1530 JUMPI PUSH2 0x152F PUSH2 0x1B70 JUMP JUMPDEST JUMPDEST DUP2 PUSH0 ADD PUSH0 SWAP1 SLOAD SWAP1 PUSH2 0x100 EXP SWAP1 DIV PUSH1 0xFF AND PUSH1 0x2 DUP2 GT ISZERO PUSH2 0x1552 JUMPI PUSH2 0x1551 PUSH2 0x1B70 JUMP JUMPDEST JUMPDEST SUB PUSH2 0x15D8 JUMPI PUSH1 0x1 PUSH1 0x2 DUP1 SLOAD PUSH2 0x1567 SWAP2 SWAP1 PUSH2 0x2155 JUMP JUMPDEST PUSH2 0x1571 SWAP2 SWAP1 PUSH2 0x200B JUMP JUMPDEST DUP2 PUSH1 0x4 ADD SLOAD GT ISZERO PUSH2 0x15D3 JUMPI PUSH1 0x1 DUP2 PUSH1 0x5 ADD PUSH0 PUSH2 0x100 EXP DUP2 SLOAD DUP2 PUSH1 0xFF MUL NOT AND SWAP1 DUP4 ISZERO ISZERO MUL OR SWAP1 SSTORE POP PUSH32 0xE7FF7C4807B71E5705A9DDF42E7AF1D9FB39E3F8B9A786533EB0482CFA46C15C DUP2 PUSH1 0x1 ADD PUSH1 0x40 MLOAD PUSH2 0x15CA SWAP2 SWAP1 PUSH2 0x221F JUMP JUMPDEST PUSH1 0x40 MLOAD DUP1 SWAP2 SUB SWAP1 LOG1 JUMPDEST PUSH2 0x1684 JUMP JUMPDEST PUSH1 0x2 DUP1 DUP2 GT ISZERO PUSH2 0x15EB JUMPI PUSH2 0x15EA PUSH2 0x1B70 JUMP JUMPDEST JUMPDEST DUP2 PUSH0 ADD PUSH0 SWAP1 SLOAD SWAP1 PUSH2 0x100 EXP SWAP1 DIV PUSH1 0xFF AND PUSH1 0x2 DUP2 GT ISZERO PUSH2 0x160D JUMPI PUSH2 0x160C PUSH2 0x1B70 JUMP JUMPDEST JUMPDEST SUB PUSH2 0x1683 JUMPI PUSH1 0x2 SLOAD DUP2 PUSH1 0x4 ADD SLOAD LT PUSH2 0x1682 JUMPI PUSH1 0x1 DUP2 PUSH1 0x5 ADD PUSH0 PUSH2 0x100 EXP DUP2 SLOAD DUP2 PUSH1 0xFF MUL NOT AND SWAP1 DUP4 ISZERO ISZERO MUL OR SWAP1 SSTORE POP PUSH1 0x1 PUSH1 0x7 PUSH0 PUSH2 0x100 EXP DUP2 SLOAD DUP2 PUSH1 0xFF MUL NOT AND SWAP1 DUP4 ISZERO ISZERO MUL OR SWAP1 SSTORE POP PUSH32 0xB080CC702B7F1F77FB6A2DD59827BB6DF2FEC3F60799C67C5E557513E1AA3D69 PUSH1 0x40 MLOAD PUSH1 0x40 MLOAD DUP1 SWAP2 SUB SWAP1 LOG1 JUMPDEST JUMPDEST JUMPDEST JUMPDEST POP JUMP JUMPDEST PUSH0 DUP2 SWAP1 POP SWAP2 SWAP1 POP JUMP JUMPDEST PUSH2 0x169A DUP2 PUSH2 0x1688 JUMP JUMPDEST DUP3 MSTORE POP POP JUMP JUMPDEST PUSH0 PUSH1 0x20 DUP3 ADD SWAP1 POP PUSH2 0x16B3 PUSH0 DUP4 ADD DUP5 PUSH2 0x1691 JUMP JUMPDEST SWAP3 SWAP2 POP POP JUMP JUMPDEST PUSH0 DUP2 ISZERO ISZERO SWAP1 POP SWAP2 SWAP1 POP JUMP JUMPDEST PUSH2 0x16CD DUP2 PUSH2 0x16B9 JUMP JUMPDEST DUP3 MSTORE POP POP JUMP JUMPDEST PUSH0 PUSH1 0x20 DUP3 ADD SWAP1 POP PUSH2 0x16E6 PUSH0 DUP4 ADD DUP5 PUSH2 0x16C4 JUMP JUMPDEST SWAP3 SWAP2 POP POP JUMP JUMPDEST PUSH0 DUP1 REVERT JUMPDEST PUSH0 DUP1 REVERT JUMPDEST PUSH0 DUP1 REVERT JUMPDEST PUSH0 DUP1 REVERT JUMPDEST PUSH0 DUP1 REVERT JUMPDEST PUSH0 DUP1 DUP4 PUSH1 0x1F DUP5 ADD SLT PUSH2 0x1715 JUMPI PUSH2 0x1714 PUSH2 0x16F4 JUMP JUMPDEST JUMPDEST DUP3 CALLDATALOAD SWAP1 POP PUSH8 0xFFFFFFFFFFFFFFFF DUP2 GT ISZERO PUSH2 0x1732 JUMPI PUSH2 0x1731 PUSH2 0x16F8 JUMP JUMPDEST JUMPDEST PUSH1 0x20 DUP4 ADD SWAP2 POP DUP4 PUSH1 0x1 DUP3 MUL DUP4 ADD GT ISZERO PUSH2 0x174E JUMPI PUSH2 0x174D PUSH2 0x16FC JUMP JUMPDEST JUMPDEST SWAP3 POP SWAP3 SWAP1 POP JUMP JUMPDEST PUSH0 DUP1 PUSH1 0x20 DUP4 DUP6 SUB SLT ISZERO PUSH2 0x176B JUMPI PUSH2 0x176A PUSH2 0x16EC JUMP JUMPDEST JUMPDEST PUSH0 DUP4 ADD CALLDATALOAD PUSH8 0xFFFFFFFFFFFFFFFF DUP2 GT ISZERO PUSH2 0x1788 JUMPI PUSH2 0x1787 PUSH2 0x16F0 JUMP JUMPDEST JUMPDEST PUSH2 0x1794 DUP6 DUP3 DUP7 ADD PUSH2 0x1700 JUMP JUMPDEST SWAP3 POP SWAP3 POP POP SWAP3 POP SWAP3 SWAP1 POP JUMP JUMPDEST PUSH2 0x17A9 DUP2 PUSH2 0x1688 JUMP JUMPDEST DUP2 EQ PUSH2 0x17B3 JUMPI PUSH0 DUP1 REVERT JUMPDEST POP JUMP JUMPDEST PUSH0 DUP2 CALLDATALOAD SWAP1 POP PUSH2 0x17C4 DUP2 PUSH2 0x17A0 JUMP JUMPDEST SWAP3 SWAP2 POP POP JUMP JUMPDEST PUSH0 PUSH1 0x20 DUP3 DUP5 SUB SLT ISZERO PUSH2 0x17DF JUMPI PUSH2 0x17DE PUSH2 0x16EC JUMP JUMPDEST JUMPDEST PUSH0 PUSH2 0x17EC DUP5 DUP3 DUP6 ADD PUSH2 0x17B6 JUMP JUMPDEST SWAP2 POP POP SWAP3 SWAP2 POP POP JUMP JUMPDEST PUSH0 PUSH20 0xFFFFFFFFFFFFFFFFFFFFFFFFFFFFFFFFFFFFFFFF DUP3 AND SWAP1 POP SWAP2 SWAP1 POP JUMP JUMPDEST PUSH0 PUSH2 0x181E DUP3 PUSH2 0x17F5 JUMP JUMPDEST SWAP1 POP SWAP2 SWAP1 POP JUMP JUMPDEST PUSH2 0x182E DUP2 PUSH2 0x1814 JUMP JUMPDEST DUP2 EQ PUSH2 0x1838 JUMPI PUSH0 DUP1 REVERT JUMPDEST POP JUMP JUMPDEST PUSH0 DUP2 CALLDATALOAD SWAP1 POP PUSH2 0x1849 DUP2 PUSH2 0x1825 JUMP JUMPDEST SWAP3 SWAP2 POP POP JUMP JUMPDEST PUSH0 PUSH1 0x20 DUP3 DUP5 SUB SLT ISZERO PUSH2 0x1864 JUMPI PUSH2 0x1863 PUSH2 0x16EC JUMP JUMPDEST JUMPDEST PUSH0 PUSH2 0x1871 DUP5 DUP3 DUP6 ADD PUSH2 0x183B JUMP JUMPDEST SWAP2 POP POP SWAP3 SWAP2 POP POP JUMP JUMPDEST PUSH0 DUP3 DUP3 MSTORE PUSH1 0x20 DUP3 ADD SWAP1 POP SWAP3 SWAP2 POP POP JUMP JUMPDEST PUSH32 0x436F6D70616E79206973206E6F7420646973736F6C7574696E672C20796F7520 PUSH0 DUP3 ADD MSTORE PUSH32 0x63616E6E6F7420626520726566756E6465640000000000000000000000000000 PUSH1 0x20 DUP3 ADD MSTORE POP JUMP JUMPDEST PUSH0 PUSH2 0x18E4 PUSH1 0x32 DUP4 PUSH2 0x187A JUMP JUMPDEST SWAP2 POP PUSH2 0x18EF DUP3 PUSH2 0x188A JUMP JUMPDEST PUSH1 0x40 DUP3 ADD SWAP1 POP SWAP2 SWAP1 POP JUMP JUMPDEST PUSH0 PUSH1 0x20 DUP3 ADD SWAP1 POP DUP2 DUP2 SUB PUSH0 DUP4 ADD MSTORE PUSH2 0x1911 DUP2 PUSH2 0x18D8 JUMP JUMPDEST SWAP1 POP SWAP2 SWAP1 POP JUMP JUMPDEST PUSH32 0x4E487B7100000000000000000000000000000000000000000000000000000000 PUSH0 MSTORE PUSH1 0x1 PUSH1 0x4 MSTORE PUSH1 0x24 PUSH0 REVERT JUMPDEST PUSH32 0x4E487B7100000000000000000000000000000000000000000000000000000000 PUSH0 MSTORE PUSH1 0x11 PUSH1 0x4 MSTORE PUSH1 0x24 PUSH0 REVERT JUMPDEST PUSH0 PUSH2 0x197C DUP3 PUSH2 0x1688 JUMP JUMPDEST SWAP2 POP PUSH2 0x1987 DUP4 PUSH2 0x1688 JUMP JUMPDEST SWAP3 POP DUP3 DUP3 SUB SWAP1 POP DUP2 DUP2 GT ISZERO PUSH2 0x199F JUMPI PUSH2 0x199E PUSH2 0x1945 JUMP JUMPDEST JUMPDEST SWAP3 SWAP2 POP POP JUMP JUMPDEST PUSH32 0x596F7520617265206E6F74206173736F636961746564206E6F722063616E6469 PUSH0 DUP3 ADD MSTORE PUSH32 0x6461746564000000000000000000000000000000000000000000000000000000 PUSH1 0x20 DUP3 ADD MSTORE POP JUMP JUMPDEST PUSH0 PUSH2 0x19FF PUSH1 0x25 DUP4 PUSH2 0x187A JUMP JUMPDEST SWAP2 POP PUSH2 0x1A0A DUP3 PUSH2 0x19A5 JUMP JUMPDEST PUSH1 0x40 DUP3 ADD SWAP1 POP SWAP2 SWAP1 POP JUMP JUMPDEST PUSH0 PUSH1 0x20 DUP3 ADD SWAP1 POP DUP2 DUP2 SUB PUSH0 DUP4 ADD MSTORE PUSH2 0x1A2C DUP2 PUSH2 0x19F3 JUMP JUMPDEST SWAP1 POP SWAP2 SWAP1 POP JUMP JUMPDEST PUSH32 0x4F6E6C79206173736F636961746564206D656D626572732063616E2063616C6C PUSH0 DUP3 ADD MSTORE PUSH32 0x20746869732066756E6374696F6E000000000000000000000000000000000000 PUSH1 0x20 DUP3 ADD MSTORE POP JUMP JUMPDEST PUSH0 PUSH2 0x1A8D PUSH1 0x2E DUP4 PUSH2 0x187A JUMP JUMPDEST SWAP2 POP PUSH2 0x1A98 DUP3 PUSH2 0x1A33 JUMP JUMPDEST PUSH1 0x40 DUP3 ADD SWAP1 POP SWAP2 SWAP1 POP JUMP JUMPDEST PUSH0 PUSH1 0x20 DUP3 ADD SWAP1 POP DUP2 DUP2 SUB PUSH0 DUP4 ADD MSTORE PUSH2 0x1ABA DUP2 PUSH2 0x1A81 JUMP JUMPDEST SWAP1 POP SWAP2 SWAP1 POP JUMP JUMPDEST PUSH32 0x436F72706F7261746520697320646973736F6C7574696E670000000000000000 PUSH0 DUP3 ADD MSTORE POP JUMP JUMPDEST PUSH0 PUSH2 0x1AF5 PUSH1 0x18 DUP4 PUSH2 0x187A JUMP JUMPDEST SWAP2 POP PUSH2 0x1B00 DUP3 PUSH2 0x1AC1 JUMP JUMPDEST PUSH1 0x20 DUP3 ADD SWAP1 POP SWAP2 SWAP1 POP JUMP JUMPDEST PUSH0 PUSH1 0x20 DUP3 ADD SWAP1 POP DUP2 DUP2 SUB PUSH0 DUP4 ADD MSTORE PUSH2 0x1B22 DUP2 PUSH2 0x1AE9 JUMP JUMPDEST SWAP1 POP SWAP2 SWAP1 POP JUMP JUMPDEST PUSH0 PUSH2 0x1B33 DUP3 PUSH2 0x1688 JUMP JUMPDEST SWAP2 POP PUSH32 0xFFFFFFFFFFFFFFFFFFFFFFFFFFFFFFFFFFFFFFFFFFFFFFFFFFFFFFFFFFFFFFFF DUP3 SUB PUSH2 0x1B65 JUMPI PUSH2 0x1B64 PUSH2 0x1945 JUMP JUMPDEST JUMPDEST PUSH1 0x1 DUP3 ADD SWAP1 POP SWAP2 SWAP1 POP JUMP JUMPDEST PUSH32 0x4E487B7100000000000000000000000000000000000000000000000000000000 PUSH0 MSTORE PUSH1 0x21 PUSH1 0x4 MSTORE PUSH1 0x24 PUSH0 REVERT JUMPDEST PUSH0 DUP3 SWAP1 POP SWAP3 SWAP2 POP POP JUMP JUMPDEST PUSH32 0x4E487B7100000000000000000000000000000000000000000000000000000000 PUSH0 MSTORE PUSH1 0x41 PUSH1 0x4 MSTORE PUSH1 0x24 PUSH0 REVERT JUMPDEST PUSH32 0x4E487B7100000000000000000000000000000000000000000000000000000000 PUSH0 MSTORE PUSH1 0x22 PUSH1 0x4 MSTORE PUSH1 0x24 PUSH0 REVERT JUMPDEST PUSH0 PUSH1 0x2 DUP3 DIV SWAP1 POP PUSH1 0x1 DUP3 AND DUP1 PUSH2 0x1C18 JUMPI PUSH1 0x7F DUP3 AND SWAP2 POP JUMPDEST PUSH1 0x20 DUP3 LT DUP2 SUB PUSH2 0x1C2B JUMPI PUSH2 0x1C2A PUSH2 0x1BD4 JUMP JUMPDEST JUMPDEST POP SWAP2 SWAP1 POP JUMP JUMPDEST PUSH0 DUP2 SWAP1 POP DUP2 PUSH0 MSTORE PUSH1 0x20 PUSH0 KECCAK256 SWAP1 POP SWAP2 SWAP1 POP JUMP JUMPDEST PUSH0 PUSH1 0x20 PUSH1 0x1F DUP4 ADD DIV SWAP1 POP SWAP2 SWAP1 POP JUMP JUMPDEST PUSH0 DUP3 DUP3 SHL SWAP1 POP SWAP3 SWAP2 POP POP JUMP JUMPDEST PUSH0 PUSH1 0x8 DUP4 MUL PUSH2 0x1C8D PUSH32 0xFFFFFFFFFFFFFFFFFFFFFFFFFFFFFFFFFFFFFFFFFFFFFFFFFFFFFFFFFFFFFFFF DUP3 PUSH2 0x1C52 JUMP JUMPDEST PUSH2 0x1C97 DUP7 DUP4 PUSH2 0x1C52 JUMP JUMPDEST SWAP6 POP DUP1 NOT DUP5 AND SWAP4 POP DUP1 DUP7 AND DUP5 OR SWAP3 POP POP POP SWAP4 SWAP3 POP POP POP JUMP JUMPDEST PUSH0 DUP2 SWAP1 POP SWAP2 SWAP1 POP JUMP JUMPDEST PUSH0 PUSH2 0x1CD2 PUSH2 0x1CCD PUSH2 0x1CC8 DUP5 PUSH2 0x1688 JUMP JUMPDEST PUSH2 0x1CAF JUMP JUMPDEST PUSH2 0x1688 JUMP JUMPDEST SWAP1 POP SWAP2 SWAP1 POP JUMP JUMPDEST PUSH0 DUP2 SWAP1 POP SWAP2 SWAP1 POP JUMP JUMPDEST PUSH2 0x1CEB DUP4 PUSH2 0x1CB8 JUMP JUMPDEST PUSH2 0x1CFF PUSH2 0x1CF7 DUP3 PUSH2 0x1CD9 JUMP JUMPDEST DUP5 DUP5 SLOAD PUSH2 0x1C5E JUMP JUMPDEST DUP3 SSTORE POP POP POP POP JUMP JUMPDEST PUSH0 SWAP1 JUMP JUMPDEST PUSH2 0x1D13 PUSH2 0x1D07 JUMP JUMPDEST PUSH2 0x1D1E DUP2 DUP5 DUP5 PUSH2 0x1CE2 JUMP JUMPDEST POP POP POP JUMP JUMPDEST JUMPDEST DUP2 DUP2 LT ISZERO PUSH2 0x1D41 JUMPI PUSH2 0x1D36 PUSH0 DUP3 PUSH2 0x1D0B JUMP JUMPDEST PUSH1 0x1 DUP2 ADD SWAP1 POP PUSH2 0x1D24 JUMP JUMPDEST POP POP JUMP JUMPDEST PUSH1 0x1F DUP3 GT ISZERO PUSH2 0x1D86 JUMPI PUSH2 0x1D57 DUP2 PUSH2 0x1C31 JUMP JUMPDEST PUSH2 0x1D60 DUP5 PUSH2 0x1C43 JUMP JUMPDEST DUP2 ADD PUSH1 0x20 DUP6 LT ISZERO PUSH2 0x1D6F JUMPI DUP2 SWAP1 POP JUMPDEST PUSH2 0x1D83 PUSH2 0x1D7B DUP6 PUSH2 0x1C43 JUMP JUMPDEST DUP4 ADD DUP3 PUSH2 0x1D23 JUMP JUMPDEST POP POP JUMPDEST POP POP POP JUMP JUMPDEST PUSH0 DUP3 DUP3 SHR SWAP1 POP SWAP3 SWAP2 POP POP JUMP JUMPDEST PUSH0 PUSH2 0x1DA6 PUSH0 NOT DUP5 PUSH1 0x8 MUL PUSH2 0x1D8B JUMP JUMPDEST NOT DUP1 DUP4 AND SWAP2 POP POP SWAP3 SWAP2 POP POP JUMP JUMPDEST PUSH0 PUSH2 0x1DBE DUP4 DUP4 PUSH2 0x1D97 JUMP JUMPDEST SWAP2 POP DUP3 PUSH1 0x2 MUL DUP3 OR SWAP1 POP SWAP3 SWAP2 POP POP JUMP JUMPDEST PUSH2 0x1DD8 DUP4 DUP4 PUSH2 0x1B9D JUMP JUMPDEST PUSH8 0xFFFFFFFFFFFFFFFF DUP2 GT ISZERO PUSH2 0x1DF1 JUMPI PUSH2 0x1DF0 PUSH2 0x1BA7 JUMP JUMPDEST JUMPDEST PUSH2 0x1DFB DUP3 SLOAD PUSH2 0x1C01 JUMP JUMPDEST PUSH2 0x1E06 DUP3 DUP3 DUP6 PUSH2 0x1D45 JUMP JUMPDEST PUSH0 PUSH1 0x1F DUP4 GT PUSH1 0x1 DUP2 EQ PUSH2 0x1E33 JUMPI PUSH0 DUP5 ISZERO PUSH2 0x1E21 JUMPI DUP3 DUP8 ADD CALLDATALOAD SWAP1 POP JUMPDEST PUSH2 0x1E2B DUP6 DUP3 PUSH2 0x1DB3 JUMP JUMPDEST DUP7 SSTORE POP PUSH2 0x1E92 JUMP JUMPDEST PUSH1 0x1F NOT DUP5 AND PUSH2 0x1E41 DUP7 PUSH2 0x1C31 JUMP JUMPDEST PUSH0 JUMPDEST DUP3 DUP2 LT ISZERO PUSH2 0x1E68 JUMPI DUP5 DUP10 ADD CALLDATALOAD DUP3 SSTORE PUSH1 0x1 DUP3 ADD SWAP2 POP PUSH1 0x20 DUP6 ADD SWAP5 POP PUSH1 0x20 DUP2 ADD SWAP1 POP PUSH2 0x1E43 JUMP JUMPDEST DUP7 DUP4 LT ISZERO PUSH2 0x1E85 JUMPI DUP5 DUP10 ADD CALLDATALOAD PUSH2 0x1E81 PUSH1 0x1F DUP10 AND DUP3 PUSH2 0x1D97 JUMP JUMPDEST DUP4 SSTORE POP JUMPDEST PUSH1 0x1 PUSH1 0x2 DUP9 MUL ADD DUP9 SSTORE POP POP POP JUMPDEST POP POP POP POP POP POP POP JUMP JUMPDEST DUP3 DUP2 DUP4 CALLDATACOPY PUSH0 DUP4 DUP4 ADD MSTORE POP POP POP JUMP JUMPDEST PUSH0 PUSH1 0x1F NOT PUSH1 0x1F DUP4 ADD AND SWAP1 POP SWAP2 SWAP1 POP JUMP JUMPDEST PUSH0 PUSH2 0x1EC4 DUP4 DUP6 PUSH2 0x187A JUMP JUMPDEST SWAP4 POP PUSH2 0x1ED1 DUP4 DUP6 DUP5 PUSH2 0x1E9B JUMP JUMPDEST PUSH2 0x1EDA DUP4 PUSH2 0x1EA9 JUMP JUMPDEST DUP5 ADD SWAP1 POP SWAP4 SWAP3 POP POP POP JUMP JUMPDEST PUSH0 PUSH1 0x40 DUP3 ADD SWAP1 POP PUSH2 0x1EF8 PUSH0 DUP4 ADD DUP7 PUSH2 0x1691 JUMP JUMPDEST DUP2 DUP2 SUB PUSH1 0x20 DUP4 ADD MSTORE PUSH2 0x1F0B DUP2 DUP5 DUP7 PUSH2 0x1EB9 JUMP JUMPDEST SWAP1 POP SWAP5 SWAP4 POP POP POP POP JUMP JUMPDEST PUSH32 0x50726F706F73616C2068617320616C7265616479206265656E20616363657074 PUSH0 DUP3 ADD MSTORE PUSH32 0x6564000000000000000000000000000000000000000000000000000000000000 PUSH1 0x20 DUP3 ADD MSTORE POP JUMP JUMPDEST PUSH0 PUSH2 0x1F6F PUSH1 0x22 DUP4 PUSH2 0x187A JUMP JUMPDEST SWAP2 POP PUSH2 0x1F7A DUP3 PUSH2 0x1F15 JUMP JUMPDEST PUSH1 0x40 DUP3 ADD SWAP1 POP SWAP2 SWAP1 POP JUMP JUMPDEST PUSH0 PUSH1 0x20 DUP3 ADD SWAP1 POP DUP2 DUP2 SUB PUSH0 DUP4 ADD MSTORE PUSH2 0x1F9C DUP2 PUSH2 0x1F63 JUMP JUMPDEST SWAP1 POP SWAP2 SWAP1 POP JUMP JUMPDEST PUSH32 0x50726F706F73616C20646F65736E277420657869737473000000000000000000 PUSH0 DUP3 ADD MSTORE POP JUMP JUMPDEST PUSH0 PUSH2 0x1FD7 PUSH1 0x17 DUP4 PUSH2 0x187A JUMP JUMPDEST SWAP2 POP PUSH2 0x1FE2 DUP3 PUSH2 0x1FA3 JUMP JUMPDEST PUSH1 0x20 DUP3 ADD SWAP1 POP SWAP2 SWAP1 POP JUMP JUMPDEST PUSH0 PUSH1 0x20 DUP3 ADD SWAP1 POP DUP2 DUP2 SUB PUSH0 DUP4 ADD MSTORE PUSH2 0x2004 DUP2 PUSH2 0x1FCB JUMP JUMPDEST SWAP1 POP SWAP2 SWAP1 POP JUMP JUMPDEST PUSH0 PUSH2 0x2015 DUP3 PUSH2 0x1688 JUMP JUMPDEST SWAP2 POP PUSH2 0x2020 DUP4 PUSH2 0x1688 JUMP JUMPDEST SWAP3 POP DUP3 DUP3 ADD SWAP1 POP DUP1 DUP3 GT ISZERO PUSH2 0x2038 JUMPI PUSH2 0x2037 PUSH2 0x1945 JUMP JUMPDEST JUMPDEST SWAP3 SWAP2 POP POP JUMP JUMPDEST PUSH32 0x5468652066756E6473206F662061206E6577206173736F636961746520686173 PUSH0 DUP3 ADD MSTORE PUSH32 0x20746F20726573706563742074686520737065636966696564206D696E696D75 PUSH1 0x20 DUP3 ADD MSTORE PUSH32 0x6D00000000000000000000000000000000000000000000000000000000000000 PUSH1 0x40 DUP3 ADD MSTORE POP JUMP JUMPDEST PUSH0 PUSH2 0x20BE PUSH1 0x41 DUP4 PUSH2 0x187A JUMP JUMPDEST SWAP2 POP PUSH2 0x20C9 DUP3 PUSH2 0x203E JUMP JUMPDEST PUSH1 0x60 DUP3 ADD SWAP1 POP SWAP2 SWAP1 POP JUMP JUMPDEST PUSH0 PUSH1 0x20 DUP3 ADD SWAP1 POP DUP2 DUP2 SUB PUSH0 DUP4 ADD MSTORE PUSH2 0x20EB DUP2 PUSH2 0x20B2 JUMP JUMPDEST SWAP1 POP SWAP2 SWAP1 POP JUMP JUMPDEST PUSH2 0x20FB DUP2 PUSH2 0x1814 JUMP JUMPDEST DUP3 MSTORE POP POP JUMP JUMPDEST PUSH0 PUSH1 0x40 DUP3 ADD SWAP1 POP PUSH2 0x2114 PUSH0 DUP4 ADD DUP6 PUSH2 0x1691 JUMP JUMPDEST PUSH2 0x2121 PUSH1 0x20 DUP4 ADD DUP5 PUSH2 0x20F2 JUMP JUMPDEST SWAP4 SWAP3 POP POP POP JUMP JUMPDEST PUSH32 0x4E487B7100000000000000000000000000000000000000000000000000000000 PUSH0 MSTORE PUSH1 0x12 PUSH1 0x4 MSTORE PUSH1 0x24 PUSH0 REVERT JUMPDEST PUSH0 PUSH2 0x215F DUP3 PUSH2 0x1688 JUMP JUMPDEST SWAP2 POP PUSH2 0x216A DUP4 PUSH2 0x1688 JUMP JUMPDEST SWAP3 POP DUP3 PUSH2 0x217A JUMPI PUSH2 0x2179 PUSH2 0x2128 JUMP JUMPDEST JUMPDEST DUP3 DUP3 DIV SWAP1 POP SWAP3 SWAP2 POP POP JUMP JUMPDEST PUSH0 PUSH1 0x20 DUP3 ADD SWAP1 POP PUSH2 0x2198 PUSH0 DUP4 ADD DUP5 PUSH2 0x20F2 JUMP JUMPDEST SWAP3 SWAP2 POP POP JUMP JUMPDEST PUSH0 DUP2 SLOAD PUSH2 0x21AA DUP2 PUSH2 0x1C01 JUMP JUMPDEST PUSH2 0x21B4 DUP2 DUP7 PUSH2 0x187A JUMP JUMPDEST SWAP5 POP PUSH1 0x1 DUP3 AND PUSH0 DUP2 EQ PUSH2 0x21CE JUMPI PUSH1 0x1 DUP2 EQ PUSH2 0x21E4 JUMPI PUSH2 0x2216 JUMP JUMPDEST PUSH1 0xFF NOT DUP4 AND DUP7 MSTORE DUP2 ISZERO ISZERO PUSH1 0x20 MUL DUP7 ADD SWAP4 POP PUSH2 0x2216 JUMP JUMPDEST PUSH2 0x21ED DUP6 PUSH2 0x1C31 JUMP JUMPDEST PUSH0 JUMPDEST DUP4 DUP2 LT ISZERO PUSH2 0x220E JUMPI DUP2 SLOAD DUP2 DUP10 ADD MSTORE PUSH1 0x1 DUP3 ADD SWAP2 POP PUSH1 0x20 DUP2 ADD SWAP1 POP PUSH2 0x21EF JUMP JUMPDEST DUP1 DUP9 ADD SWAP6 POP POP POP JUMPDEST POP POP POP SWAP3 SWAP2 POP POP JUMP JUMPDEST PUSH0 PUSH1 0x20 DUP3 ADD SWAP1 POP DUP2 DUP2 SUB PUSH0 DUP4 ADD MSTORE PUSH2 0x2237 DUP2 DUP5 PUSH2 0x219E JUMP JUMPDEST SWAP1 POP SWAP3 SWAP2 POP POP JUMP INVALID LOG2 PUSH5 0x6970667358 0x22 SLT KECCAK256 XOR ADDMOD MOD 0xF8 0xDF STOP LOG4 0xE 0xAB 0x4E MULMOD 0xF7 SWAP3 MLOAD 0xFB 0xB4 PUSH13 0x6A0DE627511B86E58E75F74CD9 0xFB PUSH14 0x64736F6C634300081A0033000000 "
				},
				"gasEstimates": {
					"creation": {
						"codeDepositCost": "1764200",
						"executionCost": "infinite",
						"totalCost": "infinite"
					},
					"external": {
						"depositDissolutionProposal()": "infinite",
						"depositFunds()": "infinite",
						"depositGenericProposal(string)": "infinite",
						"isAssociated(address)": "2876",
						"isCandidated(address)": "2921",
						"isDissoluted()": "2533",
						"requestShareRefunding()": "infinite",
						"totalShares()": "2470",
						"voteProposal(uint256)": "infinite"
					},
					"internal": {
						"checkProposalApproval(struct CorporateManagement.Proposal storage pointer)": "infinite"
					}
				},
				"methodIdentifiers": {
					"depositDissolutionProposal()": "2cc84285",
					"depositFunds()": "e2c41dbc",
					"depositGenericProposal(string)": "3dc15606",
					"isAssociated(address)": "d55fe582",
					"isCandidated(address)": "e3a27f0f",
					"isDissoluted()": "3c2dfe99",
					"requestShareRefunding()": "07e5c998",
					"totalShares()": "3a98ef39",
					"voteProposal(uint256)": "807896d5"
				}
			},
			"storageLayout": {
				"storage": [
					{
						"astId": 93,
						"contract": "contracts/exam-2021-07-12/exam-2021-07-12.sol:CorporateManagement",
						"label": "isAssociated",
						"offset": 0,
						"slot": "0",
						"type": "t_mapping(t_address,t_bool)"
					},
					{
						"astId": 97,
						"contract": "contracts/exam-2021-07-12/exam-2021-07-12.sol:CorporateManagement",
						"label": "associatesShares",
						"offset": 0,
						"slot": "1",
						"type": "t_mapping(t_address,t_uint256)"
					},
					{
						"astId": 99,
						"contract": "contracts/exam-2021-07-12/exam-2021-07-12.sol:CorporateManagement",
						"label": "totalShares",
						"offset": 0,
						"slot": "2",
						"type": "t_uint256"
					},
					{
						"astId": 103,
						"contract": "contracts/exam-2021-07-12/exam-2021-07-12.sol:CorporateManagement",
						"label": "isCandidated",
						"offset": 0,
						"slot": "3",
						"type": "t_mapping(t_address,t_bool)"
					},
					{
						"astId": 107,
						"contract": "contracts/exam-2021-07-12/exam-2021-07-12.sol:CorporateManagement",
						"label": "candidatesShares",
						"offset": 0,
						"slot": "4",
						"type": "t_mapping(t_address,t_uint256)"
					},
					{
						"astId": 112,
						"contract": "contracts/exam-2021-07-12/exam-2021-07-12.sol:CorporateManagement",
						"label": "proposals",
						"offset": 0,
						"slot": "5",
						"type": "t_mapping(t_uint256,t_struct(Proposal)84_storage)"
					},
					{
						"astId": 114,
						"contract": "contracts/exam-2021-07-12/exam-2021-07-12.sol:CorporateManagement",
						"label": "proposalCount",
						"offset": 0,
						"slot": "6",
						"type": "t_uint256"
					},
					{
						"astId": 117,
						"contract": "contracts/exam-2021-07-12/exam-2021-07-12.sol:CorporateManagement",
						"label": "isDissoluted",
						"offset": 0,
						"slot": "7",
						"type": "t_bool"
					}
				],
				"types": {
					"t_address": {
						"encoding": "inplace",
						"label": "address",
						"numberOfBytes": "20"
					},
					"t_bool": {
						"encoding": "inplace",
						"label": "bool",
						"numberOfBytes": "1"
					},
					"t_enum(ProposalCategory)5": {
						"encoding": "inplace",
						"label": "enum CorporateManagementSpecs.ProposalCategory",
						"numberOfBytes": "1"
					},
					"t_mapping(t_address,t_bool)": {
						"encoding": "mapping",
						"key": "t_address",
						"label": "mapping(address => bool)",
						"numberOfBytes": "32",
						"value": "t_bool"
					},
					"t_mapping(t_address,t_uint256)": {
						"encoding": "mapping",
						"key": "t_address",
						"label": "mapping(address => uint256)",
						"numberOfBytes": "32",
						"value": "t_uint256"
					},
					"t_mapping(t_uint256,t_struct(Proposal)84_storage)": {
						"encoding": "mapping",
						"key": "t_uint256",
						"label": "mapping(uint256 => struct CorporateManagement.Proposal)",
						"numberOfBytes": "32",
						"value": "t_struct(Proposal)84_storage"
					},
					"t_string_storage": {
						"encoding": "bytes",
						"label": "string",
						"numberOfBytes": "32"
					},
					"t_struct(Proposal)84_storage": {
						"encoding": "inplace",
						"label": "struct CorporateManagement.Proposal",
						"members": [
							{
								"astId": 71,
								"contract": "contracts/exam-2021-07-12/exam-2021-07-12.sol:CorporateManagement",
								"label": "category",
								"offset": 0,
								"slot": "0",
								"type": "t_enum(ProposalCategory)5"
							},
							{
								"astId": 73,
								"contract": "contracts/exam-2021-07-12/exam-2021-07-12.sol:CorporateManagement",
								"label": "description",
								"offset": 0,
								"slot": "1",
								"type": "t_string_storage"
							},
							{
								"astId": 75,
								"contract": "contracts/exam-2021-07-12/exam-2021-07-12.sol:CorporateManagement",
								"label": "proposer",
								"offset": 0,
								"slot": "2",
								"type": "t_address"
							},
							{
								"astId": 79,
								"contract": "contracts/exam-2021-07-12/exam-2021-07-12.sol:CorporateManagement",
								"label": "voters",
								"offset": 0,
								"slot": "3",
								"type": "t_mapping(t_address,t_bool)"
							},
							{
								"astId": 81,
								"contract": "contracts/exam-2021-07-12/exam-2021-07-12.sol:CorporateManagement",
								"label": "votersShares",
								"offset": 0,
								"slot": "4",
								"type": "t_uint256"
							},
							{
								"astId": 83,
								"contract": "contracts/exam-2021-07-12/exam-2021-07-12.sol:CorporateManagement",
								"label": "accepted",
								"offset": 0,
								"slot": "5",
								"type": "t_bool"
							}
						],
						"numberOfBytes": "192"
					},
					"t_uint256": {
						"encoding": "inplace",
						"label": "uint256",
						"numberOfBytes": "32"
					}
				}
			},
			"userdoc": {
				"kind": "user",
				"methods": {},
				"version": 1
			}
		}
	}
}