{
	"contracts/exam-2022-09-02/exam-2022-09-02.sol": {
		"UnblindElection": {
			"abi": [
				{
					"inputs": [
						{
							"internalType": "uint256",
							"name": "candidationDays",
							"type": "uint256"
						},
						{
							"internalType": "uint256",
							"name": "votingDays",
							"type": "uint256"
						},
						{
							"internalType": "uint8",
							"name": "quorumPercent",
							"type": "uint8"
						}
					],
					"stateMutability": "nonpayable",
					"type": "constructor"
				},
				{
					"inputs": [],
					"name": "CandidateHasToBeAVoter",
					"type": "error"
				},
				{
					"inputs": [],
					"name": "CandidationPhaseAlreadyClosed",
					"type": "error"
				},
				{
					"inputs": [],
					"name": "ElectionClosedWithAnInvalidResult",
					"type": "error"
				},
				{
					"inputs": [],
					"name": "ElectionClosedWithoutQuorum",
					"type": "error"
				},
				{
					"inputs": [],
					"name": "ItIsNotACandidate",
					"type": "error"
				},
				{
					"inputs": [],
					"name": "OnlyAcceptedCandidatesCanBeVoted",
					"type": "error"
				},
				{
					"inputs": [],
					"name": "OnlyKnownVotersCanVote",
					"type": "error"
				},
				{
					"inputs": [],
					"name": "OnlyOneVotePerVoter",
					"type": "error"
				},
				{
					"inputs": [],
					"name": "PresidentReservedAction",
					"type": "error"
				},
				{
					"inputs": [],
					"name": "VotingPhaseAlreadyClosed",
					"type": "error"
				},
				{
					"inputs": [],
					"name": "VotingPhaseNotYetClosed",
					"type": "error"
				},
				{
					"inputs": [],
					"name": "VotingPhaseNotYetOpen",
					"type": "error"
				},
				{
					"anonymous": false,
					"inputs": [
						{
							"indexed": false,
							"internalType": "address",
							"name": "candidate",
							"type": "address"
						}
					],
					"name": "AcceptedCandidation",
					"type": "event"
				},
				{
					"anonymous": false,
					"inputs": [
						{
							"indexed": false,
							"internalType": "address",
							"name": "winner",
							"type": "address"
						}
					],
					"name": "ElectionRegularlyClosed",
					"type": "event"
				},
				{
					"inputs": [
						{
							"internalType": "address",
							"name": "candidate",
							"type": "address"
						}
					],
					"name": "acceptCandidation",
					"outputs": [],
					"stateMutability": "nonpayable",
					"type": "function"
				},
				{
					"inputs": [
						{
							"internalType": "address[]",
							"name": "candidatesInput",
							"type": "address[]"
						}
					],
					"name": "acceptCandidations",
					"outputs": [],
					"stateMutability": "nonpayable",
					"type": "function"
				},
				{
					"inputs": [
						{
							"internalType": "address",
							"name": "voter",
							"type": "address"
						}
					],
					"name": "addVoter",
					"outputs": [],
					"stateMutability": "nonpayable",
					"type": "function"
				},
				{
					"inputs": [
						{
							"internalType": "address[]",
							"name": "votersInput",
							"type": "address[]"
						}
					],
					"name": "addVoters",
					"outputs": [],
					"stateMutability": "nonpayable",
					"type": "function"
				},
				{
					"inputs": [],
					"name": "candidateMySelf",
					"outputs": [],
					"stateMutability": "nonpayable",
					"type": "function"
				},
				{
					"inputs": [
						{
							"internalType": "address",
							"name": "candidate",
							"type": "address"
						}
					],
					"name": "candidateSomeoneElse",
					"outputs": [],
					"stateMutability": "nonpayable",
					"type": "function"
				},
				{
					"inputs": [],
					"name": "closeElection",
					"outputs": [
						{
							"internalType": "bool",
							"name": "valid",
							"type": "bool"
						}
					],
					"stateMutability": "nonpayable",
					"type": "function"
				},
				{
					"inputs": [],
					"name": "getAcceptedCandidates",
					"outputs": [
						{
							"internalType": "address[]",
							"name": "candidatesInput",
							"type": "address[]"
						}
					],
					"stateMutability": "view",
					"type": "function"
				},
				{
					"inputs": [
						{
							"internalType": "address",
							"name": "candidate",
							"type": "address"
						}
					],
					"name": "vote",
					"outputs": [],
					"stateMutability": "nonpayable",
					"type": "function"
				}
			],
			"devdoc": {
				"kind": "dev",
				"methods": {},
				"version": 1
			},
			"evm": {
				"assembly": "    /* \"contracts/exam-2022-09-02/exam-2022-09-02.sol\":64:4559  contract UnblindElection is UnblindElectionSpecs {... */\n  mstore(0x40, 0x0100)\n    /* \"contracts/exam-2022-09-02/exam-2022-09-02.sol\":598:599  0 */\n  0x00\n    /* \"contracts/exam-2022-09-02/exam-2022-09-02.sol\":577:599  uint256 validVotes = 0 */\n  0x08\n  sstore\n    /* \"contracts/exam-2022-09-02/exam-2022-09-02.sol\":606:983  constructor(... */\n  callvalue\n  dup1\n  iszero\n  tag_1\n  jumpi\n  0x00\n  dup1\n  revert\ntag_1:\n  pop\n  mload(0x40)\n  sub(codesize, bytecodeSize)\n  dup1\n  bytecodeSize\n  dup4\n  codecopy\n  dup2\n  dup2\n  add\n  0x40\n  mstore\n  dup2\n  add\n  swap1\n  tag_2\n  swap2\n  swap1\n  tag_3\n  jump\t// in\ntag_2:\n    /* \"contracts/exam-2022-09-02/exam-2022-09-02.sol\":736:746  msg.sender */\n  caller\n    /* \"contracts/exam-2022-09-02/exam-2022-09-02.sol\":724:746  president = msg.sender */\n  0xffffffffffffffffffffffffffffffffffffffff\n  and\n  0x80\n  dup2\n  0xffffffffffffffffffffffffffffffffffffffff\n  and\n  dup2\n  mstore\n  pop\n  pop\n    /* \"contracts/exam-2022-09-02/exam-2022-09-02.sol\":775:788  quorumPercent */\n  dup1\n    /* \"contracts/exam-2022-09-02/exam-2022-09-02.sol\":756:788  quorumPercentual = quorumPercent */\n  0xff\n  and\n  0xa0\n  dup2\n  0xff\n  and\n  dup2\n  mstore\n  pop\n  pop\n    /* \"contracts/exam-2022-09-02/exam-2022-09-02.sol\":893:895  60 */\n  0x3c\n    /* \"contracts/exam-2022-09-02/exam-2022-09-02.sol\":888:890  60 */\n  dup1\n    /* \"contracts/exam-2022-09-02/exam-2022-09-02.sol\":883:885  24 */\n  0x18\n    /* \"contracts/exam-2022-09-02/exam-2022-09-02.sol\":865:880  candidationDays */\n  dup6\n    /* \"contracts/exam-2022-09-02/exam-2022-09-02.sol\":865:885  candidationDays * 24 */\n  tag_6\n  swap2\n  swap1\n  tag_7\n  jump\t// in\ntag_6:\n    /* \"contracts/exam-2022-09-02/exam-2022-09-02.sol\":865:890  candidationDays * 24 * 60 */\n  tag_8\n  swap2\n  swap1\n  tag_7\n  jump\t// in\ntag_8:\n    /* \"contracts/exam-2022-09-02/exam-2022-09-02.sol\":865:895  candidationDays * 24 * 60 * 60 */\n  tag_9\n  swap2\n  swap1\n  tag_7\n  jump\t// in\ntag_9:\n    /* \"contracts/exam-2022-09-02/exam-2022-09-02.sol\":834:849  block.timestamp */\n  timestamp\n    /* \"contracts/exam-2022-09-02/exam-2022-09-02.sol\":834:896  block.timestamp +... */\n  tag_10\n  swap2\n  swap1\n  tag_11\n  jump\t// in\ntag_10:\n    /* \"contracts/exam-2022-09-02/exam-2022-09-02.sol\":798:896  candidationExpiration =... */\n  0xe0\n  dup2\n  dup2\n  mstore\n  pop\n  pop\n    /* \"contracts/exam-2022-09-02/exam-2022-09-02.sol\":973:975  60 */\n  0x3c\n    /* \"contracts/exam-2022-09-02/exam-2022-09-02.sol\":968:970  60 */\n  dup1\n    /* \"contracts/exam-2022-09-02/exam-2022-09-02.sol\":963:965  24 */\n  0x18\n    /* \"contracts/exam-2022-09-02/exam-2022-09-02.sol\":950:960  votingDays */\n  dup5\n    /* \"contracts/exam-2022-09-02/exam-2022-09-02.sol\":950:965  votingDays * 24 */\n  tag_12\n  swap2\n  swap1\n  tag_7\n  jump\t// in\ntag_12:\n    /* \"contracts/exam-2022-09-02/exam-2022-09-02.sol\":950:970  votingDays * 24 * 60 */\n  tag_13\n  swap2\n  swap1\n  tag_7\n  jump\t// in\ntag_13:\n    /* \"contracts/exam-2022-09-02/exam-2022-09-02.sol\":950:975  votingDays * 24 * 60 * 60 */\n  tag_14\n  swap2\n  swap1\n  tag_7\n  jump\t// in\ntag_14:\n    /* \"contracts/exam-2022-09-02/exam-2022-09-02.sol\":925:946  candidationExpiration */\n  mload(0xe0)\n    /* \"contracts/exam-2022-09-02/exam-2022-09-02.sol\":925:976  candidationExpiration + (votingDays * 24 * 60 * 60) */\n  tag_15\n  swap2\n  swap1\n  tag_11\n  jump\t// in\ntag_15:\n    /* \"contracts/exam-2022-09-02/exam-2022-09-02.sol\":906:976  votingExpiration = candidationExpiration + (votingDays * 24 * 60 * 60) */\n  0xc0\n  dup2\n  dup2\n  mstore\n  pop\n  pop\n    /* \"contracts/exam-2022-09-02/exam-2022-09-02.sol\":606:983  constructor(... */\n  pop\n  pop\n  pop\n    /* \"contracts/exam-2022-09-02/exam-2022-09-02.sol\":64:4559  contract UnblindElection is UnblindElectionSpecs {... */\n  jump(tag_16)\n    /* \"#utility.yul\":88:205   */\ntag_18:\n    /* \"#utility.yul\":197:198   */\n  0x00\n    /* \"#utility.yul\":194:195   */\n  dup1\n    /* \"#utility.yul\":187:199   */\n  revert\n    /* \"#utility.yul\":334:411   */\ntag_20:\n    /* \"#utility.yul\":371:378   */\n  0x00\n    /* \"#utility.yul\":400:405   */\n  dup2\n    /* \"#utility.yul\":389:405   */\n  swap1\n  pop\n    /* \"#utility.yul\":334:411   */\n  swap2\n  swap1\n  pop\n  jump\t// out\n    /* \"#utility.yul\":417:539   */\ntag_21:\n    /* \"#utility.yul\":490:514   */\n  tag_33\n    /* \"#utility.yul\":508:513   */\n  dup2\n    /* \"#utility.yul\":490:514   */\n  tag_20\n  jump\t// in\ntag_33:\n    /* \"#utility.yul\":483:488   */\n  dup2\n    /* \"#utility.yul\":480:515   */\n  eq\n    /* \"#utility.yul\":470:533   */\n  tag_34\n  jumpi\n    /* \"#utility.yul\":529:530   */\n  0x00\n    /* \"#utility.yul\":526:527   */\n  dup1\n    /* \"#utility.yul\":519:531   */\n  revert\n    /* \"#utility.yul\":470:533   */\ntag_34:\n    /* \"#utility.yul\":417:539   */\n  pop\n  jump\t// out\n    /* \"#utility.yul\":545:688   */\ntag_22:\n    /* \"#utility.yul\":602:607   */\n  0x00\n    /* \"#utility.yul\":633:639   */\n  dup2\n    /* \"#utility.yul\":627:640   */\n  mload\n    /* \"#utility.yul\":618:640   */\n  swap1\n  pop\n    /* \"#utility.yul\":649:682   */\n  tag_36\n    /* \"#utility.yul\":676:681   */\n  dup2\n    /* \"#utility.yul\":649:682   */\n  tag_21\n  jump\t// in\ntag_36:\n    /* \"#utility.yul\":545:688   */\n  swap3\n  swap2\n  pop\n  pop\n  jump\t// out\n    /* \"#utility.yul\":694:780   */\ntag_23:\n    /* \"#utility.yul\":729:736   */\n  0x00\n    /* \"#utility.yul\":769:773   */\n  0xff\n    /* \"#utility.yul\":762:767   */\n  dup3\n    /* \"#utility.yul\":758:774   */\n  and\n    /* \"#utility.yul\":747:774   */\n  swap1\n  pop\n    /* \"#utility.yul\":694:780   */\n  swap2\n  swap1\n  pop\n  jump\t// out\n    /* \"#utility.yul\":786:904   */\ntag_24:\n    /* \"#utility.yul\":857:879   */\n  tag_39\n    /* \"#utility.yul\":873:878   */\n  dup2\n    /* \"#utility.yul\":857:879   */\n  tag_23\n  jump\t// in\ntag_39:\n    /* \"#utility.yul\":850:855   */\n  dup2\n    /* \"#utility.yul\":847:880   */\n  eq\n    /* \"#utility.yul\":837:898   */\n  tag_40\n  jumpi\n    /* \"#utility.yul\":894:895   */\n  0x00\n    /* \"#utility.yul\":891:892   */\n  dup1\n    /* \"#utility.yul\":884:896   */\n  revert\n    /* \"#utility.yul\":837:898   */\ntag_40:\n    /* \"#utility.yul\":786:904   */\n  pop\n  jump\t// out\n    /* \"#utility.yul\":910:1049   */\ntag_25:\n    /* \"#utility.yul\":965:970   */\n  0x00\n    /* \"#utility.yul\":996:1002   */\n  dup2\n    /* \"#utility.yul\":990:1003   */\n  mload\n    /* \"#utility.yul\":981:1003   */\n  swap1\n  pop\n    /* \"#utility.yul\":1012:1043   */\n  tag_42\n    /* \"#utility.yul\":1037:1042   */\n  dup2\n    /* \"#utility.yul\":1012:1043   */\n  tag_24\n  jump\t// in\ntag_42:\n    /* \"#utility.yul\":910:1049   */\n  swap3\n  swap2\n  pop\n  pop\n  jump\t// out\n    /* \"#utility.yul\":1055:1714   */\ntag_3:\n    /* \"#utility.yul\":1141:1147   */\n  0x00\n    /* \"#utility.yul\":1149:1155   */\n  dup1\n    /* \"#utility.yul\":1157:1163   */\n  0x00\n    /* \"#utility.yul\":1206:1208   */\n  0x60\n    /* \"#utility.yul\":1194:1203   */\n  dup5\n    /* \"#utility.yul\":1185:1192   */\n  dup7\n    /* \"#utility.yul\":1181:1204   */\n  sub\n    /* \"#utility.yul\":1177:1209   */\n  slt\n    /* \"#utility.yul\":1174:1293   */\n  iszero\n  tag_44\n  jumpi\n    /* \"#utility.yul\":1212:1291   */\n  tag_45\n  tag_18\n  jump\t// in\ntag_45:\n    /* \"#utility.yul\":1174:1293   */\ntag_44:\n    /* \"#utility.yul\":1332:1333   */\n  0x00\n    /* \"#utility.yul\":1357:1421   */\n  tag_46\n    /* \"#utility.yul\":1413:1420   */\n  dup7\n    /* \"#utility.yul\":1404:1410   */\n  dup3\n    /* \"#utility.yul\":1393:1402   */\n  dup8\n    /* \"#utility.yul\":1389:1411   */\n  add\n    /* \"#utility.yul\":1357:1421   */\n  tag_22\n  jump\t// in\ntag_46:\n    /* \"#utility.yul\":1347:1421   */\n  swap4\n  pop\n    /* \"#utility.yul\":1303:1431   */\n  pop\n    /* \"#utility.yul\":1470:1472   */\n  0x20\n    /* \"#utility.yul\":1496:1560   */\n  tag_47\n    /* \"#utility.yul\":1552:1559   */\n  dup7\n    /* \"#utility.yul\":1543:1549   */\n  dup3\n    /* \"#utility.yul\":1532:1541   */\n  dup8\n    /* \"#utility.yul\":1528:1550   */\n  add\n    /* \"#utility.yul\":1496:1560   */\n  tag_22\n  jump\t// in\ntag_47:\n    /* \"#utility.yul\":1486:1560   */\n  swap3\n  pop\n    /* \"#utility.yul\":1441:1570   */\n  pop\n    /* \"#utility.yul\":1609:1611   */\n  0x40\n    /* \"#utility.yul\":1635:1697   */\n  tag_48\n    /* \"#utility.yul\":1689:1696   */\n  dup7\n    /* \"#utility.yul\":1680:1686   */\n  dup3\n    /* \"#utility.yul\":1669:1678   */\n  dup8\n    /* \"#utility.yul\":1665:1687   */\n  add\n    /* \"#utility.yul\":1635:1697   */\n  tag_25\n  jump\t// in\ntag_48:\n    /* \"#utility.yul\":1625:1697   */\n  swap2\n  pop\n    /* \"#utility.yul\":1580:1707   */\n  pop\n    /* \"#utility.yul\":1055:1714   */\n  swap3\n  pop\n  swap3\n  pop\n  swap3\n  jump\t// out\n    /* \"#utility.yul\":1720:1900   */\ntag_26:\n    /* \"#utility.yul\":1768:1845   */\n  0x4e487b7100000000000000000000000000000000000000000000000000000000\n    /* \"#utility.yul\":1765:1766   */\n  0x00\n    /* \"#utility.yul\":1758:1846   */\n  mstore\n    /* \"#utility.yul\":1865:1869   */\n  0x11\n    /* \"#utility.yul\":1862:1863   */\n  0x04\n    /* \"#utility.yul\":1855:1870   */\n  mstore\n    /* \"#utility.yul\":1889:1893   */\n  0x24\n    /* \"#utility.yul\":1886:1887   */\n  0x00\n    /* \"#utility.yul\":1879:1894   */\n  revert\n    /* \"#utility.yul\":1906:2316   */\ntag_7:\n    /* \"#utility.yul\":1946:1953   */\n  0x00\n    /* \"#utility.yul\":1969:1989   */\n  tag_51\n    /* \"#utility.yul\":1987:1988   */\n  dup3\n    /* \"#utility.yul\":1969:1989   */\n  tag_20\n  jump\t// in\ntag_51:\n    /* \"#utility.yul\":1964:1989   */\n  swap2\n  pop\n    /* \"#utility.yul\":2003:2023   */\n  tag_52\n    /* \"#utility.yul\":2021:2022   */\n  dup4\n    /* \"#utility.yul\":2003:2023   */\n  tag_20\n  jump\t// in\ntag_52:\n    /* \"#utility.yul\":1998:2023   */\n  swap3\n  pop\n    /* \"#utility.yul\":2058:2059   */\n  dup3\n    /* \"#utility.yul\":2055:2056   */\n  dup3\n    /* \"#utility.yul\":2051:2060   */\n  mul\n    /* \"#utility.yul\":2080:2110   */\n  tag_53\n    /* \"#utility.yul\":2098:2109   */\n  dup2\n    /* \"#utility.yul\":2080:2110   */\n  tag_20\n  jump\t// in\ntag_53:\n    /* \"#utility.yul\":2069:2110   */\n  swap2\n  pop\n    /* \"#utility.yul\":2259:2260   */\n  dup3\n    /* \"#utility.yul\":2250:2257   */\n  dup3\n    /* \"#utility.yul\":2246:2261   */\n  div\n    /* \"#utility.yul\":2243:2244   */\n  dup5\n    /* \"#utility.yul\":2240:2262   */\n  eq\n    /* \"#utility.yul\":2220:2221   */\n  dup4\n    /* \"#utility.yul\":2213:2222   */\n  iszero\n    /* \"#utility.yul\":2193:2276   */\n  or\n    /* \"#utility.yul\":2170:2309   */\n  tag_54\n  jumpi\n    /* \"#utility.yul\":2289:2307   */\n  tag_55\n  tag_26\n  jump\t// in\ntag_55:\n    /* \"#utility.yul\":2170:2309   */\ntag_54:\n    /* \"#utility.yul\":1954:2316   */\n  pop\n    /* \"#utility.yul\":1906:2316   */\n  swap3\n  swap2\n  pop\n  pop\n  jump\t// out\n    /* \"#utility.yul\":2322:2513   */\ntag_11:\n    /* \"#utility.yul\":2362:2365   */\n  0x00\n    /* \"#utility.yul\":2381:2401   */\n  tag_57\n    /* \"#utility.yul\":2399:2400   */\n  dup3\n    /* \"#utility.yul\":2381:2401   */\n  tag_20\n  jump\t// in\ntag_57:\n    /* \"#utility.yul\":2376:2401   */\n  swap2\n  pop\n    /* \"#utility.yul\":2415:2435   */\n  tag_58\n    /* \"#utility.yul\":2433:2434   */\n  dup4\n    /* \"#utility.yul\":2415:2435   */\n  tag_20\n  jump\t// in\ntag_58:\n    /* \"#utility.yul\":2410:2435   */\n  swap3\n  pop\n    /* \"#utility.yul\":2458:2459   */\n  dup3\n    /* \"#utility.yul\":2455:2456   */\n  dup3\n    /* \"#utility.yul\":2451:2460   */\n  add\n    /* \"#utility.yul\":2444:2460   */\n  swap1\n  pop\n    /* \"#utility.yul\":2479:2482   */\n  dup1\n    /* \"#utility.yul\":2476:2477   */\n  dup3\n    /* \"#utility.yul\":2473:2483   */\n  gt\n    /* \"#utility.yul\":2470:2506   */\n  iszero\n  tag_59\n  jumpi\n    /* \"#utility.yul\":2486:2504   */\n  tag_60\n  tag_26\n  jump\t// in\ntag_60:\n    /* \"#utility.yul\":2470:2506   */\ntag_59:\n    /* \"#utility.yul\":2322:2513   */\n  swap3\n  swap2\n  pop\n  pop\n  jump\t// out\n    /* \"contracts/exam-2022-09-02/exam-2022-09-02.sol\":64:4559  contract UnblindElection is UnblindElectionSpecs {... */\ntag_16:\n  mload(0x80)\n  mload(0xa0)\n  mload(0xc0)\n  mload(0xe0)\n  codecopy(0x00, dataOffset(sub_0), dataSize(sub_0))\n  0x00\n  assignImmutable(\"0x881472a5783e16aed4d4ff91eeebe17d420d379d078fc85dddb0a3a55a9abffe\")\n  0x00\n  assignImmutable(\"0x4393e7114eb674248a1480712950c28cb06e118e040859a2eafa3ca8a6dfbd69\")\n  0x00\n  assignImmutable(\"0x5ad0f966e4dd8863f27c0e6ee7d684c0c8f4319efed210fe15662a0d29bcd615\")\n  0x00\n  assignImmutable(\"0x845e9c18ca148a712f01bf14c91c3e2fe352eabe86c44817e3f33b63f585a343\")\n  return(0x00, dataSize(sub_0))\nstop\n\nsub_0: assembly {\n        /* \"contracts/exam-2022-09-02/exam-2022-09-02.sol\":64:4559  contract UnblindElection is UnblindElectionSpecs {... */\n      mstore(0x40, 0x80)\n      callvalue\n      dup1\n      iszero\n      tag_1\n      jumpi\n      0x00\n      dup1\n      revert\n    tag_1:\n      pop\n      jumpi(tag_2, lt(calldatasize, 0x04))\n      shr(0xe0, calldataload(0x00))\n      dup1\n      0x7c82a849\n      gt\n      tag_12\n      jumpi\n      dup1\n      0x7c82a849\n      eq\n      tag_7\n      jumpi\n      dup1\n      0x8203373a\n      eq\n      tag_8\n      jumpi\n      dup1\n      0xc7ccceeb\n      eq\n      tag_9\n      jumpi\n      dup1\n      0xe277645c\n      eq\n      tag_10\n      jumpi\n      dup1\n      0xf4ab9adf\n      eq\n      tag_11\n      jumpi\n      jump(tag_2)\n    tag_12:\n      dup1\n      0x453ff520\n      eq\n      tag_3\n      jumpi\n      dup1\n      0x5e8edf11\n      eq\n      tag_4\n      jumpi\n      dup1\n      0x6c6c32d0\n      eq\n      tag_5\n      jumpi\n      dup1\n      0x6dd7d8ea\n      eq\n      tag_6\n      jumpi\n    tag_2:\n      0x00\n      dup1\n      revert\n        /* \"contracts/exam-2022-09-02/exam-2022-09-02.sol\":1929:2118  function candidateSomeoneElse(address candidate)... */\n    tag_3:\n      tag_13\n      0x04\n      dup1\n      calldatasize\n      sub\n      dup2\n      add\n      swap1\n      tag_14\n      swap2\n      swap1\n      tag_15\n      jump\t// in\n    tag_14:\n      tag_16\n      jump\t// in\n    tag_13:\n      stop\n        /* \"contracts/exam-2022-09-02/exam-2022-09-02.sol\":2424:2662  function acceptCandidations(address[] calldata candidatesInput)... */\n    tag_4:\n      tag_17\n      0x04\n      dup1\n      calldatasize\n      sub\n      dup2\n      add\n      swap1\n      tag_18\n      swap2\n      swap1\n      tag_19\n      jump\t// in\n    tag_18:\n      tag_20\n      jump\t// in\n    tag_17:\n      stop\n        /* \"contracts/exam-2022-09-02/exam-2022-09-02.sol\":3493:4557  function closeElection() external presidentOnly returns (bool valid) {... */\n    tag_5:\n      tag_21\n      tag_22\n      jump\t// in\n    tag_21:\n      mload(0x40)\n      tag_23\n      swap2\n      swap1\n      tag_24\n      jump\t// in\n    tag_23:\n      mload(0x40)\n      dup1\n      swap2\n      sub\n      swap1\n      return\n        /* \"contracts/exam-2022-09-02/exam-2022-09-02.sol\":2834:3487  function vote(address candidate) external {... */\n    tag_6:\n      tag_25\n      0x04\n      dup1\n      calldatasize\n      sub\n      dup2\n      add\n      swap1\n      tag_26\n      swap2\n      swap1\n      tag_15\n      jump\t// in\n    tag_26:\n      tag_27\n      jump\t// in\n    tag_25:\n      stop\n        /* \"contracts/exam-2022-09-02/exam-2022-09-02.sol\":1774:1923  function candidateMySelf() external checkCandidation(msg.sender) {... */\n    tag_7:\n      tag_28\n      tag_29\n      jump\t// in\n    tag_28:\n      stop\n        /* \"contracts/exam-2022-09-02/exam-2022-09-02.sol\":1580:1768  function addVoters(address[] calldata votersInput) external presidentOnly {... */\n    tag_8:\n      tag_30\n      0x04\n      dup1\n      calldatasize\n      sub\n      dup2\n      add\n      swap1\n      tag_31\n      swap2\n      swap1\n      tag_19\n      jump\t// in\n    tag_31:\n      tag_32\n      jump\t// in\n    tag_30:\n      stop\n        /* \"contracts/exam-2022-09-02/exam-2022-09-02.sol\":2124:2418  function acceptCandidation(address candidate) public presidentOnly {... */\n    tag_9:\n      tag_33\n      0x04\n      dup1\n      calldatasize\n      sub\n      dup2\n      add\n      swap1\n      tag_34\n      swap2\n      swap1\n      tag_15\n      jump\t// in\n    tag_34:\n      tag_35\n      jump\t// in\n    tag_33:\n      stop\n        /* \"contracts/exam-2022-09-02/exam-2022-09-02.sol\":2668:2828  function getAcceptedCandidates()... */\n    tag_10:\n      tag_36\n      tag_37\n      jump\t// in\n    tag_36:\n      mload(0x40)\n      tag_38\n      swap2\n      swap1\n      tag_39\n      jump\t// in\n    tag_38:\n      mload(0x40)\n      dup1\n      swap2\n      sub\n      swap1\n      return\n        /* \"contracts/exam-2022-09-02/exam-2022-09-02.sol\":1401:1574  function addVoter(address voter) public presidentOnly {... */\n    tag_11:\n      tag_40\n      0x04\n      dup1\n      calldatasize\n      sub\n      dup2\n      add\n      swap1\n      tag_41\n      swap2\n      swap1\n      tag_15\n      jump\t// in\n    tag_41:\n      tag_42\n      jump\t// in\n    tag_40:\n      stop\n        /* \"contracts/exam-2022-09-02/exam-2022-09-02.sol\":1929:2118  function candidateSomeoneElse(address candidate)... */\n    tag_16:\n        /* \"contracts/exam-2022-09-02/exam-2022-09-02.sol\":2020:2029  candidate */\n      dup1\n        /* \"contracts/exam-2022-09-02/exam-2022-09-02.sol\":1189:1196  isVoter */\n      0x01\n        /* \"contracts/exam-2022-09-02/exam-2022-09-02.sol\":1189:1203  isVoter[voter] */\n      0x00\n        /* \"contracts/exam-2022-09-02/exam-2022-09-02.sol\":1197:1202  voter */\n      dup3\n        /* \"contracts/exam-2022-09-02/exam-2022-09-02.sol\":1189:1203  isVoter[voter] */\n      0xffffffffffffffffffffffffffffffffffffffff\n      and\n      0xffffffffffffffffffffffffffffffffffffffff\n      and\n      dup2\n      mstore\n      0x20\n      add\n      swap1\n      dup2\n      mstore\n      0x20\n      add\n      0x00\n      keccak256\n      0x00\n      swap1\n      sload\n      swap1\n      0x0100\n      exp\n      swap1\n      div\n      0xff\n      and\n        /* \"contracts/exam-2022-09-02/exam-2022-09-02.sol\":1184:1261  if (!isVoter[voter]) {... */\n      tag_44\n      jumpi\n        /* \"contracts/exam-2022-09-02/exam-2022-09-02.sol\":1226:1250  CandidateHasToBeAVoter() */\n      mload(0x40)\n      0x8813ffba00000000000000000000000000000000000000000000000000000000\n      dup2\n      mstore\n      0x04\n      add\n      mload(0x40)\n      dup1\n      swap2\n      sub\n      swap1\n      revert\n        /* \"contracts/exam-2022-09-02/exam-2022-09-02.sol\":1184:1261  if (!isVoter[voter]) {... */\n    tag_44:\n        /* \"contracts/exam-2022-09-02/exam-2022-09-02.sol\":1292:1313  candidationExpiration */\n      immutable(\"0x881472a5783e16aed4d4ff91eeebe17d420d379d078fc85dddb0a3a55a9abffe\")\n        /* \"contracts/exam-2022-09-02/exam-2022-09-02.sol\":1274:1289  block.timestamp */\n      timestamp\n        /* \"contracts/exam-2022-09-02/exam-2022-09-02.sol\":1274:1313  block.timestamp > candidationExpiration */\n      gt\n        /* \"contracts/exam-2022-09-02/exam-2022-09-02.sol\":1270:1378  if (block.timestamp > candidationExpiration) {... */\n      iszero\n      tag_45\n      jumpi\n        /* \"contracts/exam-2022-09-02/exam-2022-09-02.sol\":1336:1367  CandidationPhaseAlreadyClosed() */\n      mload(0x40)\n      0xa8a029ae00000000000000000000000000000000000000000000000000000000\n      dup2\n      mstore\n      0x04\n      add\n      mload(0x40)\n      dup1\n      swap2\n      sub\n      swap1\n      revert\n        /* \"contracts/exam-2022-09-02/exam-2022-09-02.sol\":1270:1378  if (block.timestamp > candidationExpiration) {... */\n    tag_45:\n        /* \"contracts/exam-2022-09-02/exam-2022-09-02.sol\":2045:2055  candidates */\n      0x02\n        /* \"contracts/exam-2022-09-02/exam-2022-09-02.sol\":2061:2070  candidate */\n      dup3\n        /* \"contracts/exam-2022-09-02/exam-2022-09-02.sol\":2045:2071  candidates.push(candidate) */\n      swap1\n      dup1\n      0x01\n      dup2\n      sload\n      add\n      dup1\n      dup3\n      sstore\n      dup1\n      swap2\n      pop\n      pop\n      0x01\n      swap1\n      sub\n      swap1\n      0x00\n      mstore\n      keccak256(0x00, 0x20)\n      add\n      0x00\n      swap1\n      swap2\n      swap1\n      swap2\n      swap1\n      swap2\n      0x0100\n      exp\n      dup2\n      sload\n      dup2\n      0xffffffffffffffffffffffffffffffffffffffff\n      mul\n      not\n      and\n      swap1\n      dup4\n      0xffffffffffffffffffffffffffffffffffffffff\n      and\n      mul\n      or\n      swap1\n      sstore\n      pop\n        /* \"contracts/exam-2022-09-02/exam-2022-09-02.sol\":2107:2111  true */\n      0x01\n        /* \"contracts/exam-2022-09-02/exam-2022-09-02.sol\":2081:2092  isCandidate */\n      0x03\n        /* \"contracts/exam-2022-09-02/exam-2022-09-02.sol\":2081:2104  isCandidate[msg.sender] */\n      0x00\n        /* \"contracts/exam-2022-09-02/exam-2022-09-02.sol\":2093:2103  msg.sender */\n      caller\n        /* \"contracts/exam-2022-09-02/exam-2022-09-02.sol\":2081:2104  isCandidate[msg.sender] */\n      0xffffffffffffffffffffffffffffffffffffffff\n      and\n      0xffffffffffffffffffffffffffffffffffffffff\n      and\n      dup2\n      mstore\n      0x20\n      add\n      swap1\n      dup2\n      mstore\n      0x20\n      add\n      0x00\n      keccak256\n      0x00\n        /* \"contracts/exam-2022-09-02/exam-2022-09-02.sol\":2081:2111  isCandidate[msg.sender] = true */\n      0x0100\n      exp\n      dup2\n      sload\n      dup2\n      0xff\n      mul\n      not\n      and\n      swap1\n      dup4\n      iszero\n      iszero\n      mul\n      or\n      swap1\n      sstore\n      pop\n        /* \"contracts/exam-2022-09-02/exam-2022-09-02.sol\":1929:2118  function candidateSomeoneElse(address candidate)... */\n      pop\n      pop\n      jump\t// out\n        /* \"contracts/exam-2022-09-02/exam-2022-09-02.sol\":2424:2662  function acceptCandidations(address[] calldata candidatesInput)... */\n    tag_20:\n        /* \"contracts/exam-2022-09-02/exam-2022-09-02.sol\":1042:1051  president */\n      immutable(\"0x845e9c18ca148a712f01bf14c91c3e2fe352eabe86c44817e3f33b63f585a343\")\n        /* \"contracts/exam-2022-09-02/exam-2022-09-02.sol\":1028:1051  msg.sender != president */\n      0xffffffffffffffffffffffffffffffffffffffff\n      and\n        /* \"contracts/exam-2022-09-02/exam-2022-09-02.sol\":1028:1038  msg.sender */\n      caller\n        /* \"contracts/exam-2022-09-02/exam-2022-09-02.sol\":1028:1051  msg.sender != president */\n      0xffffffffffffffffffffffffffffffffffffffff\n      and\n      eq\n        /* \"contracts/exam-2022-09-02/exam-2022-09-02.sol\":1024:1110  if (msg.sender != president) {... */\n      tag_49\n      jumpi\n        /* \"contracts/exam-2022-09-02/exam-2022-09-02.sol\":1074:1099  PresidentReservedAction() */\n      mload(0x40)\n      0x076fcefa00000000000000000000000000000000000000000000000000000000\n      dup2\n      mstore\n      0x04\n      add\n      mload(0x40)\n      dup1\n      swap2\n      sub\n      swap1\n      revert\n        /* \"contracts/exam-2022-09-02/exam-2022-09-02.sol\":1024:1110  if (msg.sender != president) {... */\n    tag_49:\n        /* \"contracts/exam-2022-09-02/exam-2022-09-02.sol\":2546:2555  uint256 i */\n      0x00\n        /* \"contracts/exam-2022-09-02/exam-2022-09-02.sol\":2541:2656  for (uint256 i = 0; i < candidatesInput.length; i++) {... */\n    tag_51:\n        /* \"contracts/exam-2022-09-02/exam-2022-09-02.sol\":2565:2580  candidatesInput */\n      dup3\n      dup3\n        /* \"contracts/exam-2022-09-02/exam-2022-09-02.sol\":2565:2587  candidatesInput.length */\n      swap1\n      pop\n        /* \"contracts/exam-2022-09-02/exam-2022-09-02.sol\":2561:2562  i */\n      dup2\n        /* \"contracts/exam-2022-09-02/exam-2022-09-02.sol\":2561:2587  i < candidatesInput.length */\n      lt\n        /* \"contracts/exam-2022-09-02/exam-2022-09-02.sol\":2541:2656  for (uint256 i = 0; i < candidatesInput.length; i++) {... */\n      iszero\n      tag_52\n      jumpi\n        /* \"contracts/exam-2022-09-02/exam-2022-09-02.sol\":2608:2645  acceptCandidation(candidatesInput[i]) */\n      tag_54\n        /* \"contracts/exam-2022-09-02/exam-2022-09-02.sol\":2626:2641  candidatesInput */\n      dup4\n      dup4\n        /* \"contracts/exam-2022-09-02/exam-2022-09-02.sol\":2642:2643  i */\n      dup4\n        /* \"contracts/exam-2022-09-02/exam-2022-09-02.sol\":2626:2644  candidatesInput[i] */\n      dup2\n      dup2\n      lt\n      tag_55\n      jumpi\n      tag_56\n      tag_57\n      jump\t// in\n    tag_56:\n    tag_55:\n      swap1\n      pop\n      0x20\n      mul\n      add\n      0x20\n      dup2\n      add\n      swap1\n      tag_58\n      swap2\n      swap1\n      tag_15\n      jump\t// in\n    tag_58:\n        /* \"contracts/exam-2022-09-02/exam-2022-09-02.sol\":2608:2625  acceptCandidation */\n      tag_35\n        /* \"contracts/exam-2022-09-02/exam-2022-09-02.sol\":2608:2645  acceptCandidation(candidatesInput[i]) */\n      jump\t// in\n    tag_54:\n        /* \"contracts/exam-2022-09-02/exam-2022-09-02.sol\":2589:2592  i++ */\n      dup1\n      dup1\n      0x01\n      add\n      swap2\n      pop\n      pop\n        /* \"contracts/exam-2022-09-02/exam-2022-09-02.sol\":2541:2656  for (uint256 i = 0; i < candidatesInput.length; i++) {... */\n      jump(tag_51)\n    tag_52:\n      pop\n        /* \"contracts/exam-2022-09-02/exam-2022-09-02.sol\":2424:2662  function acceptCandidations(address[] calldata candidatesInput)... */\n      pop\n      pop\n      jump\t// out\n        /* \"contracts/exam-2022-09-02/exam-2022-09-02.sol\":3493:4557  function closeElection() external presidentOnly returns (bool valid) {... */\n    tag_22:\n        /* \"contracts/exam-2022-09-02/exam-2022-09-02.sol\":3550:3560  bool valid */\n      0x00\n        /* \"contracts/exam-2022-09-02/exam-2022-09-02.sol\":1042:1051  president */\n      immutable(\"0x845e9c18ca148a712f01bf14c91c3e2fe352eabe86c44817e3f33b63f585a343\")\n        /* \"contracts/exam-2022-09-02/exam-2022-09-02.sol\":1028:1051  msg.sender != president */\n      0xffffffffffffffffffffffffffffffffffffffff\n      and\n        /* \"contracts/exam-2022-09-02/exam-2022-09-02.sol\":1028:1038  msg.sender */\n      caller\n        /* \"contracts/exam-2022-09-02/exam-2022-09-02.sol\":1028:1051  msg.sender != president */\n      0xffffffffffffffffffffffffffffffffffffffff\n      and\n      eq\n        /* \"contracts/exam-2022-09-02/exam-2022-09-02.sol\":1024:1110  if (msg.sender != president) {... */\n      tag_60\n      jumpi\n        /* \"contracts/exam-2022-09-02/exam-2022-09-02.sol\":1074:1099  PresidentReservedAction() */\n      mload(0x40)\n      0x076fcefa00000000000000000000000000000000000000000000000000000000\n      dup2\n      mstore\n      0x04\n      add\n      mload(0x40)\n      dup1\n      swap2\n      sub\n      swap1\n      revert\n        /* \"contracts/exam-2022-09-02/exam-2022-09-02.sol\":1024:1110  if (msg.sender != president) {... */\n    tag_60:\n        /* \"contracts/exam-2022-09-02/exam-2022-09-02.sol\":3606:3607  0 */\n      0x00\n        /* \"contracts/exam-2022-09-02/exam-2022-09-02.sol\":3589:3595  voters */\n      dup1\n        /* \"contracts/exam-2022-09-02/exam-2022-09-02.sol\":3589:3602  voters.length */\n      dup1\n      sload\n      swap1\n      pop\n        /* \"contracts/exam-2022-09-02/exam-2022-09-02.sol\":3589:3607  voters.length == 0 */\n      eq\n        /* \"contracts/exam-2022-09-02/exam-2022-09-02.sol\":3589:3653  voters.length == 0 ||... */\n      dup1\n      tag_62\n      jumpi\n      pop\n        /* \"contracts/exam-2022-09-02/exam-2022-09-02.sol\":3652:3653  0 */\n      0x00\n        /* \"contracts/exam-2022-09-02/exam-2022-09-02.sol\":3623:3641  acceptedCandidates */\n      0x04\n        /* \"contracts/exam-2022-09-02/exam-2022-09-02.sol\":3623:3648  acceptedCandidates.length */\n      dup1\n      sload\n      swap1\n      pop\n        /* \"contracts/exam-2022-09-02/exam-2022-09-02.sol\":3623:3653  acceptedCandidates.length == 0 */\n      eq\n        /* \"contracts/exam-2022-09-02/exam-2022-09-02.sol\":3589:3653  voters.length == 0 ||... */\n    tag_62:\n        /* \"contracts/exam-2022-09-02/exam-2022-09-02.sol\":3589:3684  voters.length == 0 ||... */\n      dup1\n      tag_63\n      jumpi\n      pop\n        /* \"contracts/exam-2022-09-02/exam-2022-09-02.sol\":3683:3684  0 */\n      0x00\n        /* \"contracts/exam-2022-09-02/exam-2022-09-02.sol\":3669:3679  validVotes */\n      sload(0x08)\n        /* \"contracts/exam-2022-09-02/exam-2022-09-02.sol\":3669:3684  validVotes == 0 */\n      eq\n        /* \"contracts/exam-2022-09-02/exam-2022-09-02.sol\":3589:3684  voters.length == 0 ||... */\n    tag_63:\n        /* \"contracts/exam-2022-09-02/exam-2022-09-02.sol\":3572:3762  if (... */\n      iszero\n      tag_64\n      jumpi\n        /* \"contracts/exam-2022-09-02/exam-2022-09-02.sol\":3716:3751  ElectionClosedWithAnInvalidResult() */\n      mload(0x40)\n      0x59a744ef00000000000000000000000000000000000000000000000000000000\n      dup2\n      mstore\n      0x04\n      add\n      mload(0x40)\n      dup1\n      swap2\n      sub\n      swap1\n      revert\n        /* \"contracts/exam-2022-09-02/exam-2022-09-02.sol\":3572:3762  if (... */\n    tag_64:\n        /* \"contracts/exam-2022-09-02/exam-2022-09-02.sol\":3814:3830  quorumPercentual */\n      immutable(\"0x5ad0f966e4dd8863f27c0e6ee7d684c0c8f4319efed210fe15662a0d29bcd615\")\n        /* \"contracts/exam-2022-09-02/exam-2022-09-02.sol\":3775:3830  ((validVotes * 100) / voters.length) < quorumPercentual */\n      0xff\n      and\n        /* \"contracts/exam-2022-09-02/exam-2022-09-02.sol\":3797:3803  voters */\n      0x00\n        /* \"contracts/exam-2022-09-02/exam-2022-09-02.sol\":3797:3810  voters.length */\n      dup1\n      sload\n      swap1\n      pop\n        /* \"contracts/exam-2022-09-02/exam-2022-09-02.sol\":3790:3793  100 */\n      0x64\n        /* \"contracts/exam-2022-09-02/exam-2022-09-02.sol\":3777:3787  validVotes */\n      sload(0x08)\n        /* \"contracts/exam-2022-09-02/exam-2022-09-02.sol\":3777:3793  validVotes * 100 */\n      tag_65\n      swap2\n      swap1\n      tag_66\n      jump\t// in\n    tag_65:\n        /* \"contracts/exam-2022-09-02/exam-2022-09-02.sol\":3776:3810  (validVotes * 100) / voters.length */\n      tag_67\n      swap2\n      swap1\n      tag_68\n      jump\t// in\n    tag_67:\n        /* \"contracts/exam-2022-09-02/exam-2022-09-02.sol\":3775:3830  ((validVotes * 100) / voters.length) < quorumPercentual */\n      lt\n        /* \"contracts/exam-2022-09-02/exam-2022-09-02.sol\":3771:3893  if (((validVotes * 100) / voters.length) < quorumPercentual) {... */\n      iszero\n      tag_69\n      jumpi\n        /* \"contracts/exam-2022-09-02/exam-2022-09-02.sol\":3853:3882  ElectionClosedWithoutQuorum() */\n      mload(0x40)\n      0xf2ddef9d00000000000000000000000000000000000000000000000000000000\n      dup2\n      mstore\n      0x04\n      add\n      mload(0x40)\n      dup1\n      swap2\n      sub\n      swap1\n      revert\n        /* \"contracts/exam-2022-09-02/exam-2022-09-02.sol\":3771:3893  if (((validVotes * 100) / voters.length) < quorumPercentual) {... */\n    tag_69:\n        /* \"contracts/exam-2022-09-02/exam-2022-09-02.sol\":3903:3917  address winner */\n      0x00\n        /* \"contracts/exam-2022-09-02/exam-2022-09-02.sol\":3927:3945  uint256 firstVotes */\n      dup1\n        /* \"contracts/exam-2022-09-02/exam-2022-09-02.sol\":3955:3974  uint256 secondVotes */\n      0x00\n        /* \"contracts/exam-2022-09-02/exam-2022-09-02.sol\":3989:3998  uint256 i */\n      dup1\n        /* \"contracts/exam-2022-09-02/exam-2022-09-02.sol\":4001:4002  0 */\n      0x00\n        /* \"contracts/exam-2022-09-02/exam-2022-09-02.sol\":3989:4002  uint256 i = 0 */\n      swap1\n      pop\n        /* \"contracts/exam-2022-09-02/exam-2022-09-02.sol\":3984:4404  for (uint256 i = 0; i < acceptedCandidates.length; i++) {... */\n    tag_70:\n        /* \"contracts/exam-2022-09-02/exam-2022-09-02.sol\":4008:4026  acceptedCandidates */\n      0x04\n        /* \"contracts/exam-2022-09-02/exam-2022-09-02.sol\":4008:4033  acceptedCandidates.length */\n      dup1\n      sload\n      swap1\n      pop\n        /* \"contracts/exam-2022-09-02/exam-2022-09-02.sol\":4004:4005  i */\n      dup2\n        /* \"contracts/exam-2022-09-02/exam-2022-09-02.sol\":4004:4033  i < acceptedCandidates.length */\n      lt\n        /* \"contracts/exam-2022-09-02/exam-2022-09-02.sol\":3984:4404  for (uint256 i = 0; i < acceptedCandidates.length; i++) {... */\n      iszero\n      tag_71\n      jumpi\n        /* \"contracts/exam-2022-09-02/exam-2022-09-02.sol\":4054:4071  address candidate */\n      0x00\n        /* \"contracts/exam-2022-09-02/exam-2022-09-02.sol\":4074:4092  acceptedCandidates */\n      0x04\n        /* \"contracts/exam-2022-09-02/exam-2022-09-02.sol\":4093:4094  i */\n      dup3\n        /* \"contracts/exam-2022-09-02/exam-2022-09-02.sol\":4074:4095  acceptedCandidates[i] */\n      dup2\n      sload\n      dup2\n      lt\n      tag_73\n      jumpi\n      tag_74\n      tag_57\n      jump\t// in\n    tag_74:\n    tag_73:\n      swap1\n      0x00\n      mstore\n      keccak256(0x00, 0x20)\n      add\n      0x00\n      swap1\n      sload\n      swap1\n      0x0100\n      exp\n      swap1\n      div\n      0xffffffffffffffffffffffffffffffffffffffff\n      and\n        /* \"contracts/exam-2022-09-02/exam-2022-09-02.sol\":4054:4095  address candidate = acceptedCandidates[i] */\n      swap1\n      pop\n        /* \"contracts/exam-2022-09-02/exam-2022-09-02.sol\":4142:4152  firstVotes */\n      dup4\n        /* \"contracts/exam-2022-09-02/exam-2022-09-02.sol\":4113:4128  candidatesVotes */\n      0x07\n        /* \"contracts/exam-2022-09-02/exam-2022-09-02.sol\":4113:4139  candidatesVotes[candidate] */\n      0x00\n        /* \"contracts/exam-2022-09-02/exam-2022-09-02.sol\":4129:4138  candidate */\n      dup4\n        /* \"contracts/exam-2022-09-02/exam-2022-09-02.sol\":4113:4139  candidatesVotes[candidate] */\n      0xffffffffffffffffffffffffffffffffffffffff\n      and\n      0xffffffffffffffffffffffffffffffffffffffff\n      and\n      dup2\n      mstore\n      0x20\n      add\n      swap1\n      dup2\n      mstore\n      0x20\n      add\n      0x00\n      keccak256\n      sload\n        /* \"contracts/exam-2022-09-02/exam-2022-09-02.sol\":4113:4152  candidatesVotes[candidate] > firstVotes */\n      gt\n        /* \"contracts/exam-2022-09-02/exam-2022-09-02.sol\":4109:4262  if (candidatesVotes[candidate] > firstVotes) {... */\n      iszero\n      tag_76\n      jumpi\n        /* \"contracts/exam-2022-09-02/exam-2022-09-02.sol\":4181:4190  candidate */\n      dup1\n        /* \"contracts/exam-2022-09-02/exam-2022-09-02.sol\":4172:4190  winner = candidate */\n      swap5\n      pop\n        /* \"contracts/exam-2022-09-02/exam-2022-09-02.sol\":4221:4236  candidatesVotes */\n      0x07\n        /* \"contracts/exam-2022-09-02/exam-2022-09-02.sol\":4221:4247  candidatesVotes[candidate] */\n      0x00\n        /* \"contracts/exam-2022-09-02/exam-2022-09-02.sol\":4237:4246  candidate */\n      dup3\n        /* \"contracts/exam-2022-09-02/exam-2022-09-02.sol\":4221:4247  candidatesVotes[candidate] */\n      0xffffffffffffffffffffffffffffffffffffffff\n      and\n      0xffffffffffffffffffffffffffffffffffffffff\n      and\n      dup2\n      mstore\n      0x20\n      add\n      swap1\n      dup2\n      mstore\n      0x20\n      add\n      0x00\n      keccak256\n      sload\n        /* \"contracts/exam-2022-09-02/exam-2022-09-02.sol\":4208:4247  firstVotes = candidatesVotes[candidate] */\n      swap4\n      pop\n        /* \"contracts/exam-2022-09-02/exam-2022-09-02.sol\":4109:4262  if (candidatesVotes[candidate] > firstVotes) {... */\n    tag_76:\n        /* \"contracts/exam-2022-09-02/exam-2022-09-02.sol\":4308:4319  secondVotes */\n      dup3\n        /* \"contracts/exam-2022-09-02/exam-2022-09-02.sol\":4279:4294  candidatesVotes */\n      0x07\n        /* \"contracts/exam-2022-09-02/exam-2022-09-02.sol\":4279:4305  candidatesVotes[candidate] */\n      0x00\n        /* \"contracts/exam-2022-09-02/exam-2022-09-02.sol\":4295:4304  candidate */\n      dup4\n        /* \"contracts/exam-2022-09-02/exam-2022-09-02.sol\":4279:4305  candidatesVotes[candidate] */\n      0xffffffffffffffffffffffffffffffffffffffff\n      and\n      0xffffffffffffffffffffffffffffffffffffffff\n      and\n      dup2\n      mstore\n      0x20\n      add\n      swap1\n      dup2\n      mstore\n      0x20\n      add\n      0x00\n      keccak256\n      sload\n        /* \"contracts/exam-2022-09-02/exam-2022-09-02.sol\":4279:4319  candidatesVotes[candidate] > secondVotes */\n      gt\n        /* \"contracts/exam-2022-09-02/exam-2022-09-02.sol\":4275:4394  if (candidatesVotes[candidate] > secondVotes) {... */\n      iszero\n      tag_77\n      jumpi\n        /* \"contracts/exam-2022-09-02/exam-2022-09-02.sol\":4353:4368  candidatesVotes */\n      0x07\n        /* \"contracts/exam-2022-09-02/exam-2022-09-02.sol\":4353:4379  candidatesVotes[candidate] */\n      0x00\n        /* \"contracts/exam-2022-09-02/exam-2022-09-02.sol\":4369:4378  candidate */\n      dup3\n        /* \"contracts/exam-2022-09-02/exam-2022-09-02.sol\":4353:4379  candidatesVotes[candidate] */\n      0xffffffffffffffffffffffffffffffffffffffff\n      and\n      0xffffffffffffffffffffffffffffffffffffffff\n      and\n      dup2\n      mstore\n      0x20\n      add\n      swap1\n      dup2\n      mstore\n      0x20\n      add\n      0x00\n      keccak256\n      sload\n        /* \"contracts/exam-2022-09-02/exam-2022-09-02.sol\":4339:4379  secondVotes = candidatesVotes[candidate] */\n      swap3\n      pop\n        /* \"contracts/exam-2022-09-02/exam-2022-09-02.sol\":4275:4394  if (candidatesVotes[candidate] > secondVotes) {... */\n    tag_77:\n        /* \"contracts/exam-2022-09-02/exam-2022-09-02.sol\":4040:4404  {... */\n      pop\n        /* \"contracts/exam-2022-09-02/exam-2022-09-02.sol\":4035:4038  i++ */\n      dup1\n      dup1\n      0x01\n      add\n      swap2\n      pop\n      pop\n        /* \"contracts/exam-2022-09-02/exam-2022-09-02.sol\":3984:4404  for (uint256 i = 0; i < acceptedCandidates.length; i++) {... */\n      jump(tag_70)\n    tag_71:\n      pop\n        /* \"contracts/exam-2022-09-02/exam-2022-09-02.sol\":4430:4441  secondVotes */\n      dup1\n        /* \"contracts/exam-2022-09-02/exam-2022-09-02.sol\":4417:4427  firstVotes */\n      dup3\n        /* \"contracts/exam-2022-09-02/exam-2022-09-02.sol\":4417:4441  firstVotes > secondVotes */\n      gt\n        /* \"contracts/exam-2022-09-02/exam-2022-09-02.sol\":4413:4529  if (firstVotes > secondVotes) {... */\n      iszero\n      tag_78\n      jumpi\n        /* \"contracts/exam-2022-09-02/exam-2022-09-02.sol\":4462:4493  ElectionRegularlyClosed(winner) */\n      0xc733e153ecad752139800174c65ae74f5a234b458af047ad52011fd1510f42a9\n        /* \"contracts/exam-2022-09-02/exam-2022-09-02.sol\":4486:4492  winner */\n      dup4\n        /* \"contracts/exam-2022-09-02/exam-2022-09-02.sol\":4462:4493  ElectionRegularlyClosed(winner) */\n      mload(0x40)\n      tag_79\n      swap2\n      swap1\n      tag_80\n      jump\t// in\n    tag_79:\n      mload(0x40)\n      dup1\n      swap2\n      sub\n      swap1\n      log1\n        /* \"contracts/exam-2022-09-02/exam-2022-09-02.sol\":4514:4518  true */\n      0x01\n        /* \"contracts/exam-2022-09-02/exam-2022-09-02.sol\":4507:4518  return true */\n      swap4\n      pop\n      pop\n      pop\n      pop\n      jump(tag_61)\n        /* \"contracts/exam-2022-09-02/exam-2022-09-02.sol\":4413:4529  if (firstVotes > secondVotes) {... */\n    tag_78:\n        /* \"contracts/exam-2022-09-02/exam-2022-09-02.sol\":4545:4550  false */\n      0x00\n        /* \"contracts/exam-2022-09-02/exam-2022-09-02.sol\":4538:4550  return false */\n      swap4\n      pop\n      pop\n      pop\n      pop\n        /* \"contracts/exam-2022-09-02/exam-2022-09-02.sol\":1119:1120  _ */\n    tag_61:\n        /* \"contracts/exam-2022-09-02/exam-2022-09-02.sol\":3493:4557  function closeElection() external presidentOnly returns (bool valid) {... */\n      swap1\n      jump\t// out\n        /* \"contracts/exam-2022-09-02/exam-2022-09-02.sol\":2834:3487  function vote(address candidate) external {... */\n    tag_27:\n        /* \"contracts/exam-2022-09-02/exam-2022-09-02.sol\":2908:2929  candidationExpiration */\n      immutable(\"0x881472a5783e16aed4d4ff91eeebe17d420d379d078fc85dddb0a3a55a9abffe\")\n        /* \"contracts/exam-2022-09-02/exam-2022-09-02.sol\":2890:2905  block.timestamp */\n      timestamp\n        /* \"contracts/exam-2022-09-02/exam-2022-09-02.sol\":2890:2929  block.timestamp < candidationExpiration */\n      lt\n        /* \"contracts/exam-2022-09-02/exam-2022-09-02.sol\":2886:2986  if (block.timestamp < candidationExpiration) {... */\n      iszero\n      tag_82\n      jumpi\n        /* \"contracts/exam-2022-09-02/exam-2022-09-02.sol\":2952:2975  VotingPhaseNotYetOpen() */\n      mload(0x40)\n      0x0cc69ad900000000000000000000000000000000000000000000000000000000\n      dup2\n      mstore\n      0x04\n      add\n      mload(0x40)\n      dup1\n      swap2\n      sub\n      swap1\n      revert\n        /* \"contracts/exam-2022-09-02/exam-2022-09-02.sol\":2886:2986  if (block.timestamp < candidationExpiration) {... */\n    tag_82:\n        /* \"contracts/exam-2022-09-02/exam-2022-09-02.sol\":3017:3033  votingExpiration */\n      immutable(\"0x4393e7114eb674248a1480712950c28cb06e118e040859a2eafa3ca8a6dfbd69\")\n        /* \"contracts/exam-2022-09-02/exam-2022-09-02.sol\":2999:3014  block.timestamp */\n      timestamp\n        /* \"contracts/exam-2022-09-02/exam-2022-09-02.sol\":2999:3033  block.timestamp > votingExpiration */\n      gt\n        /* \"contracts/exam-2022-09-02/exam-2022-09-02.sol\":2995:3093  if (block.timestamp > votingExpiration) {... */\n      iszero\n      tag_83\n      jumpi\n        /* \"contracts/exam-2022-09-02/exam-2022-09-02.sol\":3056:3082  VotingPhaseAlreadyClosed() */\n      mload(0x40)\n      0x2030f18e00000000000000000000000000000000000000000000000000000000\n      dup2\n      mstore\n      0x04\n      add\n      mload(0x40)\n      dup1\n      swap2\n      sub\n      swap1\n      revert\n        /* \"contracts/exam-2022-09-02/exam-2022-09-02.sol\":2995:3093  if (block.timestamp > votingExpiration) {... */\n    tag_83:\n        /* \"contracts/exam-2022-09-02/exam-2022-09-02.sol\":3107:3114  isVoter */\n      0x01\n        /* \"contracts/exam-2022-09-02/exam-2022-09-02.sol\":3107:3126  isVoter[msg.sender] */\n      0x00\n        /* \"contracts/exam-2022-09-02/exam-2022-09-02.sol\":3115:3125  msg.sender */\n      caller\n        /* \"contracts/exam-2022-09-02/exam-2022-09-02.sol\":3107:3126  isVoter[msg.sender] */\n      0xffffffffffffffffffffffffffffffffffffffff\n      and\n      0xffffffffffffffffffffffffffffffffffffffff\n      and\n      dup2\n      mstore\n      0x20\n      add\n      swap1\n      dup2\n      mstore\n      0x20\n      add\n      0x00\n      keccak256\n      0x00\n      swap1\n      sload\n      swap1\n      0x0100\n      exp\n      swap1\n      div\n      0xff\n      and\n        /* \"contracts/exam-2022-09-02/exam-2022-09-02.sol\":3102:3184  if (!isVoter[msg.sender]) {... */\n      tag_84\n      jumpi\n        /* \"contracts/exam-2022-09-02/exam-2022-09-02.sol\":3149:3173  OnlyKnownVotersCanVote() */\n      mload(0x40)\n      0xcdab012e00000000000000000000000000000000000000000000000000000000\n      dup2\n      mstore\n      0x04\n      add\n      mload(0x40)\n      dup1\n      swap2\n      sub\n      swap1\n      revert\n        /* \"contracts/exam-2022-09-02/exam-2022-09-02.sol\":3102:3184  if (!isVoter[msg.sender]) {... */\n    tag_84:\n        /* \"contracts/exam-2022-09-02/exam-2022-09-02.sol\":3198:3217  isAcceptedCandidate */\n      0x05\n        /* \"contracts/exam-2022-09-02/exam-2022-09-02.sol\":3198:3228  isAcceptedCandidate[candidate] */\n      0x00\n        /* \"contracts/exam-2022-09-02/exam-2022-09-02.sol\":3218:3227  candidate */\n      dup3\n        /* \"contracts/exam-2022-09-02/exam-2022-09-02.sol\":3198:3228  isAcceptedCandidate[candidate] */\n      0xffffffffffffffffffffffffffffffffffffffff\n      and\n      0xffffffffffffffffffffffffffffffffffffffff\n      and\n      dup2\n      mstore\n      0x20\n      add\n      swap1\n      dup2\n      mstore\n      0x20\n      add\n      0x00\n      keccak256\n      0x00\n      swap1\n      sload\n      swap1\n      0x0100\n      exp\n      swap1\n      div\n      0xff\n      and\n        /* \"contracts/exam-2022-09-02/exam-2022-09-02.sol\":3193:3296  if (!isAcceptedCandidate[candidate]) {... */\n      tag_85\n      jumpi\n        /* \"contracts/exam-2022-09-02/exam-2022-09-02.sol\":3251:3285  OnlyAcceptedCandidatesCanBeVoted() */\n      mload(0x40)\n      0x7a41a3eb00000000000000000000000000000000000000000000000000000000\n      dup2\n      mstore\n      0x04\n      add\n      mload(0x40)\n      dup1\n      swap2\n      sub\n      swap1\n      revert\n        /* \"contracts/exam-2022-09-02/exam-2022-09-02.sol\":3193:3296  if (!isAcceptedCandidate[candidate]) {... */\n    tag_85:\n        /* \"contracts/exam-2022-09-02/exam-2022-09-02.sol\":3309:3317  hasVoted */\n      0x06\n        /* \"contracts/exam-2022-09-02/exam-2022-09-02.sol\":3309:3329  hasVoted[msg.sender] */\n      0x00\n        /* \"contracts/exam-2022-09-02/exam-2022-09-02.sol\":3318:3328  msg.sender */\n      caller\n        /* \"contracts/exam-2022-09-02/exam-2022-09-02.sol\":3309:3329  hasVoted[msg.sender] */\n      0xffffffffffffffffffffffffffffffffffffffff\n      and\n      0xffffffffffffffffffffffffffffffffffffffff\n      and\n      dup2\n      mstore\n      0x20\n      add\n      swap1\n      dup2\n      mstore\n      0x20\n      add\n      0x00\n      keccak256\n      0x00\n      swap1\n      sload\n      swap1\n      0x0100\n      exp\n      swap1\n      div\n      0xff\n      and\n        /* \"contracts/exam-2022-09-02/exam-2022-09-02.sol\":3305:3384  if (hasVoted[msg.sender]) {... */\n      iszero\n      tag_86\n      jumpi\n        /* \"contracts/exam-2022-09-02/exam-2022-09-02.sol\":3352:3373  OnlyOneVotePerVoter() */\n      mload(0x40)\n      0x1afb803800000000000000000000000000000000000000000000000000000000\n      dup2\n      mstore\n      0x04\n      add\n      mload(0x40)\n      dup1\n      swap2\n      sub\n      swap1\n      revert\n        /* \"contracts/exam-2022-09-02/exam-2022-09-02.sol\":3305:3384  if (hasVoted[msg.sender]) {... */\n    tag_86:\n        /* \"contracts/exam-2022-09-02/exam-2022-09-02.sol\":3416:3420  true */\n      0x01\n        /* \"contracts/exam-2022-09-02/exam-2022-09-02.sol\":3393:3401  hasVoted */\n      0x06\n        /* \"contracts/exam-2022-09-02/exam-2022-09-02.sol\":3393:3413  hasVoted[msg.sender] */\n      0x00\n        /* \"contracts/exam-2022-09-02/exam-2022-09-02.sol\":3402:3412  msg.sender */\n      caller\n        /* \"contracts/exam-2022-09-02/exam-2022-09-02.sol\":3393:3413  hasVoted[msg.sender] */\n      0xffffffffffffffffffffffffffffffffffffffff\n      and\n      0xffffffffffffffffffffffffffffffffffffffff\n      and\n      dup2\n      mstore\n      0x20\n      add\n      swap1\n      dup2\n      mstore\n      0x20\n      add\n      0x00\n      keccak256\n      0x00\n        /* \"contracts/exam-2022-09-02/exam-2022-09-02.sol\":3393:3420  hasVoted[msg.sender] = true */\n      0x0100\n      exp\n      dup2\n      sload\n      dup2\n      0xff\n      mul\n      not\n      and\n      swap1\n      dup4\n      iszero\n      iszero\n      mul\n      or\n      swap1\n      sstore\n      pop\n        /* \"contracts/exam-2022-09-02/exam-2022-09-02.sol\":3430:3445  candidatesVotes */\n      0x07\n        /* \"contracts/exam-2022-09-02/exam-2022-09-02.sol\":3430:3456  candidatesVotes[candidate] */\n      0x00\n        /* \"contracts/exam-2022-09-02/exam-2022-09-02.sol\":3446:3455  candidate */\n      dup3\n        /* \"contracts/exam-2022-09-02/exam-2022-09-02.sol\":3430:3456  candidatesVotes[candidate] */\n      0xffffffffffffffffffffffffffffffffffffffff\n      and\n      0xffffffffffffffffffffffffffffffffffffffff\n      and\n      dup2\n      mstore\n      0x20\n      add\n      swap1\n      dup2\n      mstore\n      0x20\n      add\n      0x00\n      keccak256\n      0x00\n        /* \"contracts/exam-2022-09-02/exam-2022-09-02.sol\":3430:3458  candidatesVotes[candidate]++ */\n      dup2\n      sload\n      dup1\n      swap3\n      swap2\n      swap1\n      tag_87\n      swap1\n      tag_88\n      jump\t// in\n    tag_87:\n      swap2\n      swap1\n      pop\n      sstore\n      pop\n        /* \"contracts/exam-2022-09-02/exam-2022-09-02.sol\":3468:3478  validVotes */\n      0x08\n      0x00\n        /* \"contracts/exam-2022-09-02/exam-2022-09-02.sol\":3468:3480  validVotes++ */\n      dup2\n      sload\n      dup1\n      swap3\n      swap2\n      swap1\n      tag_89\n      swap1\n      tag_88\n      jump\t// in\n    tag_89:\n      swap2\n      swap1\n      pop\n      sstore\n      pop\n        /* \"contracts/exam-2022-09-02/exam-2022-09-02.sol\":2834:3487  function vote(address candidate) external {... */\n      pop\n      jump\t// out\n        /* \"contracts/exam-2022-09-02/exam-2022-09-02.sol\":1774:1923  function candidateMySelf() external checkCandidation(msg.sender) {... */\n    tag_29:\n        /* \"contracts/exam-2022-09-02/exam-2022-09-02.sol\":1827:1837  msg.sender */\n      caller\n        /* \"contracts/exam-2022-09-02/exam-2022-09-02.sol\":1189:1196  isVoter */\n      0x01\n        /* \"contracts/exam-2022-09-02/exam-2022-09-02.sol\":1189:1203  isVoter[voter] */\n      0x00\n        /* \"contracts/exam-2022-09-02/exam-2022-09-02.sol\":1197:1202  voter */\n      dup3\n        /* \"contracts/exam-2022-09-02/exam-2022-09-02.sol\":1189:1203  isVoter[voter] */\n      0xffffffffffffffffffffffffffffffffffffffff\n      and\n      0xffffffffffffffffffffffffffffffffffffffff\n      and\n      dup2\n      mstore\n      0x20\n      add\n      swap1\n      dup2\n      mstore\n      0x20\n      add\n      0x00\n      keccak256\n      0x00\n      swap1\n      sload\n      swap1\n      0x0100\n      exp\n      swap1\n      div\n      0xff\n      and\n        /* \"contracts/exam-2022-09-02/exam-2022-09-02.sol\":1184:1261  if (!isVoter[voter]) {... */\n      tag_91\n      jumpi\n        /* \"contracts/exam-2022-09-02/exam-2022-09-02.sol\":1226:1250  CandidateHasToBeAVoter() */\n      mload(0x40)\n      0x8813ffba00000000000000000000000000000000000000000000000000000000\n      dup2\n      mstore\n      0x04\n      add\n      mload(0x40)\n      dup1\n      swap2\n      sub\n      swap1\n      revert\n        /* \"contracts/exam-2022-09-02/exam-2022-09-02.sol\":1184:1261  if (!isVoter[voter]) {... */\n    tag_91:\n        /* \"contracts/exam-2022-09-02/exam-2022-09-02.sol\":1292:1313  candidationExpiration */\n      immutable(\"0x881472a5783e16aed4d4ff91eeebe17d420d379d078fc85dddb0a3a55a9abffe\")\n        /* \"contracts/exam-2022-09-02/exam-2022-09-02.sol\":1274:1289  block.timestamp */\n      timestamp\n        /* \"contracts/exam-2022-09-02/exam-2022-09-02.sol\":1274:1313  block.timestamp > candidationExpiration */\n      gt\n        /* \"contracts/exam-2022-09-02/exam-2022-09-02.sol\":1270:1378  if (block.timestamp > candidationExpiration) {... */\n      iszero\n      tag_92\n      jumpi\n        /* \"contracts/exam-2022-09-02/exam-2022-09-02.sol\":1336:1367  CandidationPhaseAlreadyClosed() */\n      mload(0x40)\n      0xa8a029ae00000000000000000000000000000000000000000000000000000000\n      dup2\n      mstore\n      0x04\n      add\n      mload(0x40)\n      dup1\n      swap2\n      sub\n      swap1\n      revert\n        /* \"contracts/exam-2022-09-02/exam-2022-09-02.sol\":1270:1378  if (block.timestamp > candidationExpiration) {... */\n    tag_92:\n        /* \"contracts/exam-2022-09-02/exam-2022-09-02.sol\":1849:1859  candidates */\n      0x02\n        /* \"contracts/exam-2022-09-02/exam-2022-09-02.sol\":1865:1875  msg.sender */\n      caller\n        /* \"contracts/exam-2022-09-02/exam-2022-09-02.sol\":1849:1876  candidates.push(msg.sender) */\n      swap1\n      dup1\n      0x01\n      dup2\n      sload\n      add\n      dup1\n      dup3\n      sstore\n      dup1\n      swap2\n      pop\n      pop\n      0x01\n      swap1\n      sub\n      swap1\n      0x00\n      mstore\n      keccak256(0x00, 0x20)\n      add\n      0x00\n      swap1\n      swap2\n      swap1\n      swap2\n      swap1\n      swap2\n      0x0100\n      exp\n      dup2\n      sload\n      dup2\n      0xffffffffffffffffffffffffffffffffffffffff\n      mul\n      not\n      and\n      swap1\n      dup4\n      0xffffffffffffffffffffffffffffffffffffffff\n      and\n      mul\n      or\n      swap1\n      sstore\n      pop\n        /* \"contracts/exam-2022-09-02/exam-2022-09-02.sol\":1912:1916  true */\n      0x01\n        /* \"contracts/exam-2022-09-02/exam-2022-09-02.sol\":1886:1897  isCandidate */\n      0x03\n        /* \"contracts/exam-2022-09-02/exam-2022-09-02.sol\":1886:1909  isCandidate[msg.sender] */\n      0x00\n        /* \"contracts/exam-2022-09-02/exam-2022-09-02.sol\":1898:1908  msg.sender */\n      caller\n        /* \"contracts/exam-2022-09-02/exam-2022-09-02.sol\":1886:1909  isCandidate[msg.sender] */\n      0xffffffffffffffffffffffffffffffffffffffff\n      and\n      0xffffffffffffffffffffffffffffffffffffffff\n      and\n      dup2\n      mstore\n      0x20\n      add\n      swap1\n      dup2\n      mstore\n      0x20\n      add\n      0x00\n      keccak256\n      0x00\n        /* \"contracts/exam-2022-09-02/exam-2022-09-02.sol\":1886:1916  isCandidate[msg.sender] = true */\n      0x0100\n      exp\n      dup2\n      sload\n      dup2\n      0xff\n      mul\n      not\n      and\n      swap1\n      dup4\n      iszero\n      iszero\n      mul\n      or\n      swap1\n      sstore\n      pop\n        /* \"contracts/exam-2022-09-02/exam-2022-09-02.sol\":1774:1923  function candidateMySelf() external checkCandidation(msg.sender) {... */\n      pop\n      jump\t// out\n        /* \"contracts/exam-2022-09-02/exam-2022-09-02.sol\":1580:1768  function addVoters(address[] calldata votersInput) external presidentOnly {... */\n    tag_32:\n        /* \"contracts/exam-2022-09-02/exam-2022-09-02.sol\":1042:1051  president */\n      immutable(\"0x845e9c18ca148a712f01bf14c91c3e2fe352eabe86c44817e3f33b63f585a343\")\n        /* \"contracts/exam-2022-09-02/exam-2022-09-02.sol\":1028:1051  msg.sender != president */\n      0xffffffffffffffffffffffffffffffffffffffff\n      and\n        /* \"contracts/exam-2022-09-02/exam-2022-09-02.sol\":1028:1038  msg.sender */\n      caller\n        /* \"contracts/exam-2022-09-02/exam-2022-09-02.sol\":1028:1051  msg.sender != president */\n      0xffffffffffffffffffffffffffffffffffffffff\n      and\n      eq\n        /* \"contracts/exam-2022-09-02/exam-2022-09-02.sol\":1024:1110  if (msg.sender != president) {... */\n      tag_96\n      jumpi\n        /* \"contracts/exam-2022-09-02/exam-2022-09-02.sol\":1074:1099  PresidentReservedAction() */\n      mload(0x40)\n      0x076fcefa00000000000000000000000000000000000000000000000000000000\n      dup2\n      mstore\n      0x04\n      add\n      mload(0x40)\n      dup1\n      swap2\n      sub\n      swap1\n      revert\n        /* \"contracts/exam-2022-09-02/exam-2022-09-02.sol\":1024:1110  if (msg.sender != president) {... */\n    tag_96:\n        /* \"contracts/exam-2022-09-02/exam-2022-09-02.sol\":1669:1678  uint256 i */\n      0x00\n        /* \"contracts/exam-2022-09-02/exam-2022-09-02.sol\":1664:1762  for (uint256 i = 0; i < votersInput.length; i++) {... */\n    tag_98:\n        /* \"contracts/exam-2022-09-02/exam-2022-09-02.sol\":1688:1699  votersInput */\n      dup3\n      dup3\n        /* \"contracts/exam-2022-09-02/exam-2022-09-02.sol\":1688:1706  votersInput.length */\n      swap1\n      pop\n        /* \"contracts/exam-2022-09-02/exam-2022-09-02.sol\":1684:1685  i */\n      dup2\n        /* \"contracts/exam-2022-09-02/exam-2022-09-02.sol\":1684:1706  i < votersInput.length */\n      lt\n        /* \"contracts/exam-2022-09-02/exam-2022-09-02.sol\":1664:1762  for (uint256 i = 0; i < votersInput.length; i++) {... */\n      iszero\n      tag_99\n      jumpi\n        /* \"contracts/exam-2022-09-02/exam-2022-09-02.sol\":1727:1751  addVoter(votersInput[i]) */\n      tag_101\n        /* \"contracts/exam-2022-09-02/exam-2022-09-02.sol\":1736:1747  votersInput */\n      dup4\n      dup4\n        /* \"contracts/exam-2022-09-02/exam-2022-09-02.sol\":1748:1749  i */\n      dup4\n        /* \"contracts/exam-2022-09-02/exam-2022-09-02.sol\":1736:1750  votersInput[i] */\n      dup2\n      dup2\n      lt\n      tag_102\n      jumpi\n      tag_103\n      tag_57\n      jump\t// in\n    tag_103:\n    tag_102:\n      swap1\n      pop\n      0x20\n      mul\n      add\n      0x20\n      dup2\n      add\n      swap1\n      tag_104\n      swap2\n      swap1\n      tag_15\n      jump\t// in\n    tag_104:\n        /* \"contracts/exam-2022-09-02/exam-2022-09-02.sol\":1727:1735  addVoter */\n      tag_42\n        /* \"contracts/exam-2022-09-02/exam-2022-09-02.sol\":1727:1751  addVoter(votersInput[i]) */\n      jump\t// in\n    tag_101:\n        /* \"contracts/exam-2022-09-02/exam-2022-09-02.sol\":1708:1711  i++ */\n      dup1\n      dup1\n      0x01\n      add\n      swap2\n      pop\n      pop\n        /* \"contracts/exam-2022-09-02/exam-2022-09-02.sol\":1664:1762  for (uint256 i = 0; i < votersInput.length; i++) {... */\n      jump(tag_98)\n    tag_99:\n      pop\n        /* \"contracts/exam-2022-09-02/exam-2022-09-02.sol\":1580:1768  function addVoters(address[] calldata votersInput) external presidentOnly {... */\n      pop\n      pop\n      jump\t// out\n        /* \"contracts/exam-2022-09-02/exam-2022-09-02.sol\":2124:2418  function acceptCandidation(address candidate) public presidentOnly {... */\n    tag_35:\n        /* \"contracts/exam-2022-09-02/exam-2022-09-02.sol\":1042:1051  president */\n      immutable(\"0x845e9c18ca148a712f01bf14c91c3e2fe352eabe86c44817e3f33b63f585a343\")\n        /* \"contracts/exam-2022-09-02/exam-2022-09-02.sol\":1028:1051  msg.sender != president */\n      0xffffffffffffffffffffffffffffffffffffffff\n      and\n        /* \"contracts/exam-2022-09-02/exam-2022-09-02.sol\":1028:1038  msg.sender */\n      caller\n        /* \"contracts/exam-2022-09-02/exam-2022-09-02.sol\":1028:1051  msg.sender != president */\n      0xffffffffffffffffffffffffffffffffffffffff\n      and\n      eq\n        /* \"contracts/exam-2022-09-02/exam-2022-09-02.sol\":1024:1110  if (msg.sender != president) {... */\n      tag_106\n      jumpi\n        /* \"contracts/exam-2022-09-02/exam-2022-09-02.sol\":1074:1099  PresidentReservedAction() */\n      mload(0x40)\n      0x076fcefa00000000000000000000000000000000000000000000000000000000\n      dup2\n      mstore\n      0x04\n      add\n      mload(0x40)\n      dup1\n      swap2\n      sub\n      swap1\n      revert\n        /* \"contracts/exam-2022-09-02/exam-2022-09-02.sol\":1024:1110  if (msg.sender != president) {... */\n    tag_106:\n        /* \"contracts/exam-2022-09-02/exam-2022-09-02.sol\":2206:2217  isCandidate */\n      0x03\n        /* \"contracts/exam-2022-09-02/exam-2022-09-02.sol\":2206:2228  isCandidate[candidate] */\n      0x00\n        /* \"contracts/exam-2022-09-02/exam-2022-09-02.sol\":2218:2227  candidate */\n      dup3\n        /* \"contracts/exam-2022-09-02/exam-2022-09-02.sol\":2206:2228  isCandidate[candidate] */\n      0xffffffffffffffffffffffffffffffffffffffff\n      and\n      0xffffffffffffffffffffffffffffffffffffffff\n      and\n      dup2\n      mstore\n      0x20\n      add\n      swap1\n      dup2\n      mstore\n      0x20\n      add\n      0x00\n      keccak256\n      0x00\n      swap1\n      sload\n      swap1\n      0x0100\n      exp\n      swap1\n      div\n      0xff\n      and\n        /* \"contracts/exam-2022-09-02/exam-2022-09-02.sol\":2201:2281  if (!isCandidate[candidate]) {... */\n      tag_108\n      jumpi\n        /* \"contracts/exam-2022-09-02/exam-2022-09-02.sol\":2251:2270  ItIsNotACandidate() */\n      mload(0x40)\n      0xaa735f5c00000000000000000000000000000000000000000000000000000000\n      dup2\n      mstore\n      0x04\n      add\n      mload(0x40)\n      dup1\n      swap2\n      sub\n      swap1\n      revert\n        /* \"contracts/exam-2022-09-02/exam-2022-09-02.sol\":2201:2281  if (!isCandidate[candidate]) {... */\n    tag_108:\n        /* \"contracts/exam-2022-09-02/exam-2022-09-02.sol\":2297:2308  isCandidate */\n      0x03\n        /* \"contracts/exam-2022-09-02/exam-2022-09-02.sol\":2297:2319  isCandidate[candidate] */\n      0x00\n        /* \"contracts/exam-2022-09-02/exam-2022-09-02.sol\":2309:2318  candidate */\n      dup3\n        /* \"contracts/exam-2022-09-02/exam-2022-09-02.sol\":2297:2319  isCandidate[candidate] */\n      0xffffffffffffffffffffffffffffffffffffffff\n      and\n      0xffffffffffffffffffffffffffffffffffffffff\n      and\n      dup2\n      mstore\n      0x20\n      add\n      swap1\n      dup2\n      mstore\n      0x20\n      add\n      0x00\n      keccak256\n      0x00\n        /* \"contracts/exam-2022-09-02/exam-2022-09-02.sol\":2290:2319  delete isCandidate[candidate] */\n      0x0100\n      exp\n      dup2\n      sload\n      swap1\n      0xff\n      mul\n      not\n      and\n      swap1\n      sstore\n        /* \"contracts/exam-2022-09-02/exam-2022-09-02.sol\":2362:2366  true */\n      0x01\n        /* \"contracts/exam-2022-09-02/exam-2022-09-02.sol\":2329:2348  isAcceptedCandidate */\n      0x05\n        /* \"contracts/exam-2022-09-02/exam-2022-09-02.sol\":2329:2359  isAcceptedCandidate[candidate] */\n      0x00\n        /* \"contracts/exam-2022-09-02/exam-2022-09-02.sol\":2349:2358  candidate */\n      dup4\n        /* \"contracts/exam-2022-09-02/exam-2022-09-02.sol\":2329:2359  isAcceptedCandidate[candidate] */\n      0xffffffffffffffffffffffffffffffffffffffff\n      and\n      0xffffffffffffffffffffffffffffffffffffffff\n      and\n      dup2\n      mstore\n      0x20\n      add\n      swap1\n      dup2\n      mstore\n      0x20\n      add\n      0x00\n      keccak256\n      0x00\n        /* \"contracts/exam-2022-09-02/exam-2022-09-02.sol\":2329:2366  isAcceptedCandidate[candidate] = true */\n      0x0100\n      exp\n      dup2\n      sload\n      dup2\n      0xff\n      mul\n      not\n      and\n      swap1\n      dup4\n      iszero\n      iszero\n      mul\n      or\n      swap1\n      sstore\n      pop\n        /* \"contracts/exam-2022-09-02/exam-2022-09-02.sol\":2381:2411  AcceptedCandidation(candidate) */\n      0x1242c4f53262a739ec550bf53a18f09fccbef7dc6b2b599456519c5a9518bfe3\n        /* \"contracts/exam-2022-09-02/exam-2022-09-02.sol\":2401:2410  candidate */\n      dup2\n        /* \"contracts/exam-2022-09-02/exam-2022-09-02.sol\":2381:2411  AcceptedCandidation(candidate) */\n      mload(0x40)\n      tag_109\n      swap2\n      swap1\n      tag_80\n      jump\t// in\n    tag_109:\n      mload(0x40)\n      dup1\n      swap2\n      sub\n      swap1\n      log1\n        /* \"contracts/exam-2022-09-02/exam-2022-09-02.sol\":2124:2418  function acceptCandidation(address candidate) public presidentOnly {... */\n      pop\n      jump\t// out\n        /* \"contracts/exam-2022-09-02/exam-2022-09-02.sol\":2668:2828  function getAcceptedCandidates()... */\n    tag_37:\n        /* \"contracts/exam-2022-09-02/exam-2022-09-02.sol\":2748:2780  address[] memory candidatesInput */\n      0x60\n        /* \"contracts/exam-2022-09-02/exam-2022-09-02.sol\":2803:2821  acceptedCandidates */\n      0x04\n        /* \"contracts/exam-2022-09-02/exam-2022-09-02.sol\":2796:2821  return acceptedCandidates */\n      dup1\n      sload\n      dup1\n      0x20\n      mul\n      0x20\n      add\n      mload(0x40)\n      swap1\n      dup2\n      add\n      0x40\n      mstore\n      dup1\n      swap3\n      swap2\n      swap1\n      dup2\n      dup2\n      mstore\n      0x20\n      add\n      dup3\n      dup1\n      sload\n      dup1\n      iszero\n      tag_111\n      jumpi\n      0x20\n      mul\n      dup3\n      add\n      swap2\n      swap1\n      0x00\n      mstore\n      keccak256(0x00, 0x20)\n      swap1\n    tag_112:\n      dup2\n      0x00\n      swap1\n      sload\n      swap1\n      0x0100\n      exp\n      swap1\n      div\n      0xffffffffffffffffffffffffffffffffffffffff\n      and\n      0xffffffffffffffffffffffffffffffffffffffff\n      and\n      dup2\n      mstore\n      0x20\n      add\n      swap1\n      0x01\n      add\n      swap1\n      dup1\n      dup4\n      gt\n      tag_112\n      jumpi\n    tag_111:\n      pop\n      pop\n      pop\n      pop\n      pop\n      swap1\n      pop\n        /* \"contracts/exam-2022-09-02/exam-2022-09-02.sol\":2668:2828  function getAcceptedCandidates()... */\n      swap1\n      jump\t// out\n        /* \"contracts/exam-2022-09-02/exam-2022-09-02.sol\":1401:1574  function addVoter(address voter) public presidentOnly {... */\n    tag_42:\n        /* \"contracts/exam-2022-09-02/exam-2022-09-02.sol\":1042:1051  president */\n      immutable(\"0x845e9c18ca148a712f01bf14c91c3e2fe352eabe86c44817e3f33b63f585a343\")\n        /* \"contracts/exam-2022-09-02/exam-2022-09-02.sol\":1028:1051  msg.sender != president */\n      0xffffffffffffffffffffffffffffffffffffffff\n      and\n        /* \"contracts/exam-2022-09-02/exam-2022-09-02.sol\":1028:1038  msg.sender */\n      caller\n        /* \"contracts/exam-2022-09-02/exam-2022-09-02.sol\":1028:1051  msg.sender != president */\n      0xffffffffffffffffffffffffffffffffffffffff\n      and\n      eq\n        /* \"contracts/exam-2022-09-02/exam-2022-09-02.sol\":1024:1110  if (msg.sender != president) {... */\n      tag_114\n      jumpi\n        /* \"contracts/exam-2022-09-02/exam-2022-09-02.sol\":1074:1099  PresidentReservedAction() */\n      mload(0x40)\n      0x076fcefa00000000000000000000000000000000000000000000000000000000\n      dup2\n      mstore\n      0x04\n      add\n      mload(0x40)\n      dup1\n      swap2\n      sub\n      swap1\n      revert\n        /* \"contracts/exam-2022-09-02/exam-2022-09-02.sol\":1024:1110  if (msg.sender != president) {... */\n    tag_114:\n        /* \"contracts/exam-2022-09-02/exam-2022-09-02.sol\":1474:1481  isVoter */\n      0x01\n        /* \"contracts/exam-2022-09-02/exam-2022-09-02.sol\":1474:1488  isVoter[voter] */\n      0x00\n        /* \"contracts/exam-2022-09-02/exam-2022-09-02.sol\":1482:1487  voter */\n      dup3\n        /* \"contracts/exam-2022-09-02/exam-2022-09-02.sol\":1474:1488  isVoter[voter] */\n      0xffffffffffffffffffffffffffffffffffffffff\n      and\n      0xffffffffffffffffffffffffffffffffffffffff\n      and\n      dup2\n      mstore\n      0x20\n      add\n      swap1\n      dup2\n      mstore\n      0x20\n      add\n      0x00\n      keccak256\n      0x00\n      swap1\n      sload\n      swap1\n      0x0100\n      exp\n      swap1\n      div\n      0xff\n      and\n        /* \"contracts/exam-2022-09-02/exam-2022-09-02.sol\":1473:1488  !isVoter[voter] */\n      iszero\n        /* \"contracts/exam-2022-09-02/exam-2022-09-02.sol\":1465:1508  require(!isVoter[voter], \"already a voter\") */\n      tag_116\n      jumpi\n      mload(0x40)\n      0x08c379a000000000000000000000000000000000000000000000000000000000\n      dup2\n      mstore\n      0x04\n      add\n      tag_117\n      swap1\n      tag_118\n      jump\t// in\n    tag_117:\n      mload(0x40)\n      dup1\n      swap2\n      sub\n      swap1\n      revert\n    tag_116:\n        /* \"contracts/exam-2022-09-02/exam-2022-09-02.sol\":1518:1524  voters */\n      0x00\n        /* \"contracts/exam-2022-09-02/exam-2022-09-02.sol\":1530:1535  voter */\n      dup2\n        /* \"contracts/exam-2022-09-02/exam-2022-09-02.sol\":1518:1536  voters.push(voter) */\n      swap1\n      dup1\n      0x01\n      dup2\n      sload\n      add\n      dup1\n      dup3\n      sstore\n      dup1\n      swap2\n      pop\n      pop\n      0x01\n      swap1\n      sub\n      swap1\n      0x00\n      mstore\n      keccak256(0x00, 0x20)\n      add\n      0x00\n      swap1\n      swap2\n      swap1\n      swap2\n      swap1\n      swap2\n      0x0100\n      exp\n      dup2\n      sload\n      dup2\n      0xffffffffffffffffffffffffffffffffffffffff\n      mul\n      not\n      and\n      swap1\n      dup4\n      0xffffffffffffffffffffffffffffffffffffffff\n      and\n      mul\n      or\n      swap1\n      sstore\n      pop\n        /* \"contracts/exam-2022-09-02/exam-2022-09-02.sol\":1563:1567  true */\n      0x01\n        /* \"contracts/exam-2022-09-02/exam-2022-09-02.sol\":1546:1553  isVoter */\n      dup1\n        /* \"contracts/exam-2022-09-02/exam-2022-09-02.sol\":1546:1560  isVoter[voter] */\n      0x00\n        /* \"contracts/exam-2022-09-02/exam-2022-09-02.sol\":1554:1559  voter */\n      dup4\n        /* \"contracts/exam-2022-09-02/exam-2022-09-02.sol\":1546:1560  isVoter[voter] */\n      0xffffffffffffffffffffffffffffffffffffffff\n      and\n      0xffffffffffffffffffffffffffffffffffffffff\n      and\n      dup2\n      mstore\n      0x20\n      add\n      swap1\n      dup2\n      mstore\n      0x20\n      add\n      0x00\n      keccak256\n      0x00\n        /* \"contracts/exam-2022-09-02/exam-2022-09-02.sol\":1546:1567  isVoter[voter] = true */\n      0x0100\n      exp\n      dup2\n      sload\n      dup2\n      0xff\n      mul\n      not\n      and\n      swap1\n      dup4\n      iszero\n      iszero\n      mul\n      or\n      swap1\n      sstore\n      pop\n        /* \"contracts/exam-2022-09-02/exam-2022-09-02.sol\":1401:1574  function addVoter(address voter) public presidentOnly {... */\n      pop\n      jump\t// out\n        /* \"#utility.yul\":88:205   */\n    tag_121:\n        /* \"#utility.yul\":197:198   */\n      0x00\n        /* \"#utility.yul\":194:195   */\n      dup1\n        /* \"#utility.yul\":187:199   */\n      revert\n        /* \"#utility.yul\":211:328   */\n    tag_122:\n        /* \"#utility.yul\":320:321   */\n      0x00\n        /* \"#utility.yul\":317:318   */\n      dup1\n        /* \"#utility.yul\":310:322   */\n      revert\n        /* \"#utility.yul\":334:460   */\n    tag_123:\n        /* \"#utility.yul\":371:378   */\n      0x00\n        /* \"#utility.yul\":411:453   */\n      0xffffffffffffffffffffffffffffffffffffffff\n        /* \"#utility.yul\":404:409   */\n      dup3\n        /* \"#utility.yul\":400:454   */\n      and\n        /* \"#utility.yul\":389:454   */\n      swap1\n      pop\n        /* \"#utility.yul\":334:460   */\n      swap2\n      swap1\n      pop\n      jump\t// out\n        /* \"#utility.yul\":466:562   */\n    tag_124:\n        /* \"#utility.yul\":503:510   */\n      0x00\n        /* \"#utility.yul\":532:556   */\n      tag_153\n        /* \"#utility.yul\":550:555   */\n      dup3\n        /* \"#utility.yul\":532:556   */\n      tag_123\n      jump\t// in\n    tag_153:\n        /* \"#utility.yul\":521:556   */\n      swap1\n      pop\n        /* \"#utility.yul\":466:562   */\n      swap2\n      swap1\n      pop\n      jump\t// out\n        /* \"#utility.yul\":568:690   */\n    tag_125:\n        /* \"#utility.yul\":641:665   */\n      tag_155\n        /* \"#utility.yul\":659:664   */\n      dup2\n        /* \"#utility.yul\":641:665   */\n      tag_124\n      jump\t// in\n    tag_155:\n        /* \"#utility.yul\":634:639   */\n      dup2\n        /* \"#utility.yul\":631:666   */\n      eq\n        /* \"#utility.yul\":621:684   */\n      tag_156\n      jumpi\n        /* \"#utility.yul\":680:681   */\n      0x00\n        /* \"#utility.yul\":677:678   */\n      dup1\n        /* \"#utility.yul\":670:682   */\n      revert\n        /* \"#utility.yul\":621:684   */\n    tag_156:\n        /* \"#utility.yul\":568:690   */\n      pop\n      jump\t// out\n        /* \"#utility.yul\":696:835   */\n    tag_126:\n        /* \"#utility.yul\":742:747   */\n      0x00\n        /* \"#utility.yul\":780:786   */\n      dup2\n        /* \"#utility.yul\":767:787   */\n      calldataload\n        /* \"#utility.yul\":758:787   */\n      swap1\n      pop\n        /* \"#utility.yul\":796:829   */\n      tag_158\n        /* \"#utility.yul\":823:828   */\n      dup2\n        /* \"#utility.yul\":796:829   */\n      tag_125\n      jump\t// in\n    tag_158:\n        /* \"#utility.yul\":696:835   */\n      swap3\n      swap2\n      pop\n      pop\n      jump\t// out\n        /* \"#utility.yul\":841:1170   */\n    tag_15:\n        /* \"#utility.yul\":900:906   */\n      0x00\n        /* \"#utility.yul\":949:951   */\n      0x20\n        /* \"#utility.yul\":937:946   */\n      dup3\n        /* \"#utility.yul\":928:935   */\n      dup5\n        /* \"#utility.yul\":924:947   */\n      sub\n        /* \"#utility.yul\":920:952   */\n      slt\n        /* \"#utility.yul\":917:1036   */\n      iszero\n      tag_160\n      jumpi\n        /* \"#utility.yul\":955:1034   */\n      tag_161\n      tag_121\n      jump\t// in\n    tag_161:\n        /* \"#utility.yul\":917:1036   */\n    tag_160:\n        /* \"#utility.yul\":1075:1076   */\n      0x00\n        /* \"#utility.yul\":1100:1153   */\n      tag_162\n        /* \"#utility.yul\":1145:1152   */\n      dup5\n        /* \"#utility.yul\":1136:1142   */\n      dup3\n        /* \"#utility.yul\":1125:1134   */\n      dup6\n        /* \"#utility.yul\":1121:1143   */\n      add\n        /* \"#utility.yul\":1100:1153   */\n      tag_126\n      jump\t// in\n    tag_162:\n        /* \"#utility.yul\":1090:1153   */\n      swap2\n      pop\n        /* \"#utility.yul\":1046:1163   */\n      pop\n        /* \"#utility.yul\":841:1170   */\n      swap3\n      swap2\n      pop\n      pop\n      jump\t// out\n        /* \"#utility.yul\":1176:1293   */\n    tag_127:\n        /* \"#utility.yul\":1285:1286   */\n      0x00\n        /* \"#utility.yul\":1282:1283   */\n      dup1\n        /* \"#utility.yul\":1275:1287   */\n      revert\n        /* \"#utility.yul\":1299:1416   */\n    tag_128:\n        /* \"#utility.yul\":1408:1409   */\n      0x00\n        /* \"#utility.yul\":1405:1406   */\n      dup1\n        /* \"#utility.yul\":1398:1410   */\n      revert\n        /* \"#utility.yul\":1422:1539   */\n    tag_129:\n        /* \"#utility.yul\":1531:1532   */\n      0x00\n        /* \"#utility.yul\":1528:1529   */\n      dup1\n        /* \"#utility.yul\":1521:1533   */\n      revert\n        /* \"#utility.yul\":1562:2130   */\n    tag_130:\n        /* \"#utility.yul\":1635:1643   */\n      0x00\n        /* \"#utility.yul\":1645:1651   */\n      dup1\n        /* \"#utility.yul\":1695:1698   */\n      dup4\n        /* \"#utility.yul\":1688:1692   */\n      0x1f\n        /* \"#utility.yul\":1680:1686   */\n      dup5\n        /* \"#utility.yul\":1676:1693   */\n      add\n        /* \"#utility.yul\":1672:1699   */\n      slt\n        /* \"#utility.yul\":1662:1784   */\n      tag_167\n      jumpi\n        /* \"#utility.yul\":1703:1782   */\n      tag_168\n      tag_127\n      jump\t// in\n    tag_168:\n        /* \"#utility.yul\":1662:1784   */\n    tag_167:\n        /* \"#utility.yul\":1816:1822   */\n      dup3\n        /* \"#utility.yul\":1803:1823   */\n      calldataload\n        /* \"#utility.yul\":1793:1823   */\n      swap1\n      pop\n        /* \"#utility.yul\":1846:1864   */\n      0xffffffffffffffff\n        /* \"#utility.yul\":1838:1844   */\n      dup2\n        /* \"#utility.yul\":1835:1865   */\n      gt\n        /* \"#utility.yul\":1832:1949   */\n      iszero\n      tag_169\n      jumpi\n        /* \"#utility.yul\":1868:1947   */\n      tag_170\n      tag_128\n      jump\t// in\n    tag_170:\n        /* \"#utility.yul\":1832:1949   */\n    tag_169:\n        /* \"#utility.yul\":1982:1986   */\n      0x20\n        /* \"#utility.yul\":1974:1980   */\n      dup4\n        /* \"#utility.yul\":1970:1987   */\n      add\n        /* \"#utility.yul\":1958:1987   */\n      swap2\n      pop\n        /* \"#utility.yul\":2036:2039   */\n      dup4\n        /* \"#utility.yul\":2028:2032   */\n      0x20\n        /* \"#utility.yul\":2020:2026   */\n      dup3\n        /* \"#utility.yul\":2016:2033   */\n      mul\n        /* \"#utility.yul\":2006:2014   */\n      dup4\n        /* \"#utility.yul\":2002:2034   */\n      add\n        /* \"#utility.yul\":1999:2040   */\n      gt\n        /* \"#utility.yul\":1996:2124   */\n      iszero\n      tag_171\n      jumpi\n        /* \"#utility.yul\":2043:2122   */\n      tag_172\n      tag_129\n      jump\t// in\n    tag_172:\n        /* \"#utility.yul\":1996:2124   */\n    tag_171:\n        /* \"#utility.yul\":1562:2130   */\n      swap3\n      pop\n      swap3\n      swap1\n      pop\n      jump\t// out\n        /* \"#utility.yul\":2136:2695   */\n    tag_19:\n        /* \"#utility.yul\":2222:2228   */\n      0x00\n        /* \"#utility.yul\":2230:2236   */\n      dup1\n        /* \"#utility.yul\":2279:2281   */\n      0x20\n        /* \"#utility.yul\":2267:2276   */\n      dup4\n        /* \"#utility.yul\":2258:2265   */\n      dup6\n        /* \"#utility.yul\":2254:2277   */\n      sub\n        /* \"#utility.yul\":2250:2282   */\n      slt\n        /* \"#utility.yul\":2247:2366   */\n      iszero\n      tag_174\n      jumpi\n        /* \"#utility.yul\":2285:2364   */\n      tag_175\n      tag_121\n      jump\t// in\n    tag_175:\n        /* \"#utility.yul\":2247:2366   */\n    tag_174:\n        /* \"#utility.yul\":2433:2434   */\n      0x00\n        /* \"#utility.yul\":2422:2431   */\n      dup4\n        /* \"#utility.yul\":2418:2435   */\n      add\n        /* \"#utility.yul\":2405:2436   */\n      calldataload\n        /* \"#utility.yul\":2463:2481   */\n      0xffffffffffffffff\n        /* \"#utility.yul\":2455:2461   */\n      dup2\n        /* \"#utility.yul\":2452:2482   */\n      gt\n        /* \"#utility.yul\":2449:2566   */\n      iszero\n      tag_176\n      jumpi\n        /* \"#utility.yul\":2485:2564   */\n      tag_177\n      tag_122\n      jump\t// in\n    tag_177:\n        /* \"#utility.yul\":2449:2566   */\n    tag_176:\n        /* \"#utility.yul\":2598:2678   */\n      tag_178\n        /* \"#utility.yul\":2670:2677   */\n      dup6\n        /* \"#utility.yul\":2661:2667   */\n      dup3\n        /* \"#utility.yul\":2650:2659   */\n      dup7\n        /* \"#utility.yul\":2646:2668   */\n      add\n        /* \"#utility.yul\":2598:2678   */\n      tag_130\n      jump\t// in\n    tag_178:\n        /* \"#utility.yul\":2580:2678   */\n      swap3\n      pop\n      swap3\n      pop\n        /* \"#utility.yul\":2376:2688   */\n      pop\n        /* \"#utility.yul\":2136:2695   */\n      swap3\n      pop\n      swap3\n      swap1\n      pop\n      jump\t// out\n        /* \"#utility.yul\":2701:2791   */\n    tag_131:\n        /* \"#utility.yul\":2735:2742   */\n      0x00\n        /* \"#utility.yul\":2778:2783   */\n      dup2\n        /* \"#utility.yul\":2771:2784   */\n      iszero\n        /* \"#utility.yul\":2764:2785   */\n      iszero\n        /* \"#utility.yul\":2753:2785   */\n      swap1\n      pop\n        /* \"#utility.yul\":2701:2791   */\n      swap2\n      swap1\n      pop\n      jump\t// out\n        /* \"#utility.yul\":2797:2906   */\n    tag_132:\n        /* \"#utility.yul\":2878:2899   */\n      tag_181\n        /* \"#utility.yul\":2893:2898   */\n      dup2\n        /* \"#utility.yul\":2878:2899   */\n      tag_131\n      jump\t// in\n    tag_181:\n        /* \"#utility.yul\":2873:2876   */\n      dup3\n        /* \"#utility.yul\":2866:2900   */\n      mstore\n        /* \"#utility.yul\":2797:2906   */\n      pop\n      pop\n      jump\t// out\n        /* \"#utility.yul\":2912:3122   */\n    tag_24:\n        /* \"#utility.yul\":2999:3003   */\n      0x00\n        /* \"#utility.yul\":3037:3039   */\n      0x20\n        /* \"#utility.yul\":3026:3035   */\n      dup3\n        /* \"#utility.yul\":3022:3040   */\n      add\n        /* \"#utility.yul\":3014:3040   */\n      swap1\n      pop\n        /* \"#utility.yul\":3050:3115   */\n      tag_183\n        /* \"#utility.yul\":3112:3113   */\n      0x00\n        /* \"#utility.yul\":3101:3110   */\n      dup4\n        /* \"#utility.yul\":3097:3114   */\n      add\n        /* \"#utility.yul\":3088:3094   */\n      dup5\n        /* \"#utility.yul\":3050:3115   */\n      tag_132\n      jump\t// in\n    tag_183:\n        /* \"#utility.yul\":2912:3122   */\n      swap3\n      swap2\n      pop\n      pop\n      jump\t// out\n        /* \"#utility.yul\":3128:3242   */\n    tag_133:\n        /* \"#utility.yul\":3195:3201   */\n      0x00\n        /* \"#utility.yul\":3229:3234   */\n      dup2\n        /* \"#utility.yul\":3223:3235   */\n      mload\n        /* \"#utility.yul\":3213:3235   */\n      swap1\n      pop\n        /* \"#utility.yul\":3128:3242   */\n      swap2\n      swap1\n      pop\n      jump\t// out\n        /* \"#utility.yul\":3248:3432   */\n    tag_134:\n        /* \"#utility.yul\":3347:3358   */\n      0x00\n        /* \"#utility.yul\":3381:3387   */\n      dup3\n        /* \"#utility.yul\":3376:3379   */\n      dup3\n        /* \"#utility.yul\":3369:3388   */\n      mstore\n        /* \"#utility.yul\":3421:3425   */\n      0x20\n        /* \"#utility.yul\":3416:3419   */\n      dup3\n        /* \"#utility.yul\":3412:3426   */\n      add\n        /* \"#utility.yul\":3397:3426   */\n      swap1\n      pop\n        /* \"#utility.yul\":3248:3432   */\n      swap3\n      swap2\n      pop\n      pop\n      jump\t// out\n        /* \"#utility.yul\":3438:3570   */\n    tag_135:\n        /* \"#utility.yul\":3505:3509   */\n      0x00\n        /* \"#utility.yul\":3528:3531   */\n      dup2\n        /* \"#utility.yul\":3520:3531   */\n      swap1\n      pop\n        /* \"#utility.yul\":3558:3562   */\n      0x20\n        /* \"#utility.yul\":3553:3556   */\n      dup3\n        /* \"#utility.yul\":3549:3563   */\n      add\n        /* \"#utility.yul\":3541:3563   */\n      swap1\n      pop\n        /* \"#utility.yul\":3438:3570   */\n      swap2\n      swap1\n      pop\n      jump\t// out\n        /* \"#utility.yul\":3576:3684   */\n    tag_136:\n        /* \"#utility.yul\":3653:3677   */\n      tag_188\n        /* \"#utility.yul\":3671:3676   */\n      dup2\n        /* \"#utility.yul\":3653:3677   */\n      tag_124\n      jump\t// in\n    tag_188:\n        /* \"#utility.yul\":3648:3651   */\n      dup3\n        /* \"#utility.yul\":3641:3678   */\n      mstore\n        /* \"#utility.yul\":3576:3684   */\n      pop\n      pop\n      jump\t// out\n        /* \"#utility.yul\":3690:3869   */\n    tag_137:\n        /* \"#utility.yul\":3759:3769   */\n      0x00\n        /* \"#utility.yul\":3780:3826   */\n      tag_190\n        /* \"#utility.yul\":3822:3825   */\n      dup4\n        /* \"#utility.yul\":3814:3820   */\n      dup4\n        /* \"#utility.yul\":3780:3826   */\n      tag_136\n      jump\t// in\n    tag_190:\n        /* \"#utility.yul\":3858:3862   */\n      0x20\n        /* \"#utility.yul\":3853:3856   */\n      dup4\n        /* \"#utility.yul\":3849:3863   */\n      add\n        /* \"#utility.yul\":3835:3863   */\n      swap1\n      pop\n        /* \"#utility.yul\":3690:3869   */\n      swap3\n      swap2\n      pop\n      pop\n      jump\t// out\n        /* \"#utility.yul\":3875:3988   */\n    tag_138:\n        /* \"#utility.yul\":3945:3949   */\n      0x00\n        /* \"#utility.yul\":3977:3981   */\n      0x20\n        /* \"#utility.yul\":3972:3975   */\n      dup3\n        /* \"#utility.yul\":3968:3982   */\n      add\n        /* \"#utility.yul\":3960:3982   */\n      swap1\n      pop\n        /* \"#utility.yul\":3875:3988   */\n      swap2\n      swap1\n      pop\n      jump\t// out\n        /* \"#utility.yul\":4024:4756   */\n    tag_139:\n        /* \"#utility.yul\":4143:4146   */\n      0x00\n        /* \"#utility.yul\":4172:4226   */\n      tag_193\n        /* \"#utility.yul\":4220:4225   */\n      dup3\n        /* \"#utility.yul\":4172:4226   */\n      tag_133\n      jump\t// in\n    tag_193:\n        /* \"#utility.yul\":4242:4328   */\n      tag_194\n        /* \"#utility.yul\":4321:4327   */\n      dup2\n        /* \"#utility.yul\":4316:4319   */\n      dup6\n        /* \"#utility.yul\":4242:4328   */\n      tag_134\n      jump\t// in\n    tag_194:\n        /* \"#utility.yul\":4235:4328   */\n      swap4\n      pop\n        /* \"#utility.yul\":4352:4408   */\n      tag_195\n        /* \"#utility.yul\":4402:4407   */\n      dup4\n        /* \"#utility.yul\":4352:4408   */\n      tag_135\n      jump\t// in\n    tag_195:\n        /* \"#utility.yul\":4431:4438   */\n      dup1\n        /* \"#utility.yul\":4462:4463   */\n      0x00\n        /* \"#utility.yul\":4447:4731   */\n    tag_196:\n        /* \"#utility.yul\":4472:4478   */\n      dup4\n        /* \"#utility.yul\":4469:4470   */\n      dup2\n        /* \"#utility.yul\":4466:4479   */\n      lt\n        /* \"#utility.yul\":4447:4731   */\n      iszero\n      tag_198\n      jumpi\n        /* \"#utility.yul\":4548:4554   */\n      dup2\n        /* \"#utility.yul\":4542:4555   */\n      mload\n        /* \"#utility.yul\":4575:4638   */\n      tag_199\n        /* \"#utility.yul\":4634:4637   */\n      dup9\n        /* \"#utility.yul\":4619:4632   */\n      dup3\n        /* \"#utility.yul\":4575:4638   */\n      tag_137\n      jump\t// in\n    tag_199:\n        /* \"#utility.yul\":4568:4638   */\n      swap8\n      pop\n        /* \"#utility.yul\":4661:4721   */\n      tag_200\n        /* \"#utility.yul\":4714:4720   */\n      dup4\n        /* \"#utility.yul\":4661:4721   */\n      tag_138\n      jump\t// in\n    tag_200:\n        /* \"#utility.yul\":4651:4721   */\n      swap3\n      pop\n        /* \"#utility.yul\":4507:4731   */\n      pop\n        /* \"#utility.yul\":4494:4495   */\n      0x01\n        /* \"#utility.yul\":4491:4492   */\n      dup2\n        /* \"#utility.yul\":4487:4496   */\n      add\n        /* \"#utility.yul\":4482:4496   */\n      swap1\n      pop\n        /* \"#utility.yul\":4447:4731   */\n      jump(tag_196)\n    tag_198:\n        /* \"#utility.yul\":4451:4465   */\n      pop\n        /* \"#utility.yul\":4747:4750   */\n      dup6\n        /* \"#utility.yul\":4740:4750   */\n      swap4\n      pop\n        /* \"#utility.yul\":4148:4756   */\n      pop\n      pop\n      pop\n        /* \"#utility.yul\":4024:4756   */\n      swap3\n      swap2\n      pop\n      pop\n      jump\t// out\n        /* \"#utility.yul\":4762:5135   */\n    tag_39:\n        /* \"#utility.yul\":4905:4909   */\n      0x00\n        /* \"#utility.yul\":4943:4945   */\n      0x20\n        /* \"#utility.yul\":4932:4941   */\n      dup3\n        /* \"#utility.yul\":4928:4946   */\n      add\n        /* \"#utility.yul\":4920:4946   */\n      swap1\n      pop\n        /* \"#utility.yul\":4992:5001   */\n      dup2\n        /* \"#utility.yul\":4986:4990   */\n      dup2\n        /* \"#utility.yul\":4982:5002   */\n      sub\n        /* \"#utility.yul\":4978:4979   */\n      0x00\n        /* \"#utility.yul\":4967:4976   */\n      dup4\n        /* \"#utility.yul\":4963:4980   */\n      add\n        /* \"#utility.yul\":4956:5003   */\n      mstore\n        /* \"#utility.yul\":5020:5128   */\n      tag_202\n        /* \"#utility.yul\":5123:5127   */\n      dup2\n        /* \"#utility.yul\":5114:5120   */\n      dup5\n        /* \"#utility.yul\":5020:5128   */\n      tag_139\n      jump\t// in\n    tag_202:\n        /* \"#utility.yul\":5012:5128   */\n      swap1\n      pop\n        /* \"#utility.yul\":4762:5135   */\n      swap3\n      swap2\n      pop\n      pop\n      jump\t// out\n        /* \"#utility.yul\":5141:5321   */\n    tag_57:\n        /* \"#utility.yul\":5189:5266   */\n      0x4e487b7100000000000000000000000000000000000000000000000000000000\n        /* \"#utility.yul\":5186:5187   */\n      0x00\n        /* \"#utility.yul\":5179:5267   */\n      mstore\n        /* \"#utility.yul\":5286:5290   */\n      0x32\n        /* \"#utility.yul\":5283:5284   */\n      0x04\n        /* \"#utility.yul\":5276:5291   */\n      mstore\n        /* \"#utility.yul\":5310:5314   */\n      0x24\n        /* \"#utility.yul\":5307:5308   */\n      0x00\n        /* \"#utility.yul\":5300:5315   */\n      revert\n        /* \"#utility.yul\":5327:5404   */\n    tag_140:\n        /* \"#utility.yul\":5364:5371   */\n      0x00\n        /* \"#utility.yul\":5393:5398   */\n      dup2\n        /* \"#utility.yul\":5382:5398   */\n      swap1\n      pop\n        /* \"#utility.yul\":5327:5404   */\n      swap2\n      swap1\n      pop\n      jump\t// out\n        /* \"#utility.yul\":5410:5590   */\n    tag_141:\n        /* \"#utility.yul\":5458:5535   */\n      0x4e487b7100000000000000000000000000000000000000000000000000000000\n        /* \"#utility.yul\":5455:5456   */\n      0x00\n        /* \"#utility.yul\":5448:5536   */\n      mstore\n        /* \"#utility.yul\":5555:5559   */\n      0x11\n        /* \"#utility.yul\":5552:5553   */\n      0x04\n        /* \"#utility.yul\":5545:5560   */\n      mstore\n        /* \"#utility.yul\":5579:5583   */\n      0x24\n        /* \"#utility.yul\":5576:5577   */\n      0x00\n        /* \"#utility.yul\":5569:5584   */\n      revert\n        /* \"#utility.yul\":5596:6006   */\n    tag_66:\n        /* \"#utility.yul\":5636:5643   */\n      0x00\n        /* \"#utility.yul\":5659:5679   */\n      tag_207\n        /* \"#utility.yul\":5677:5678   */\n      dup3\n        /* \"#utility.yul\":5659:5679   */\n      tag_140\n      jump\t// in\n    tag_207:\n        /* \"#utility.yul\":5654:5679   */\n      swap2\n      pop\n        /* \"#utility.yul\":5693:5713   */\n      tag_208\n        /* \"#utility.yul\":5711:5712   */\n      dup4\n        /* \"#utility.yul\":5693:5713   */\n      tag_140\n      jump\t// in\n    tag_208:\n        /* \"#utility.yul\":5688:5713   */\n      swap3\n      pop\n        /* \"#utility.yul\":5748:5749   */\n      dup3\n        /* \"#utility.yul\":5745:5746   */\n      dup3\n        /* \"#utility.yul\":5741:5750   */\n      mul\n        /* \"#utility.yul\":5770:5800   */\n      tag_209\n        /* \"#utility.yul\":5788:5799   */\n      dup2\n        /* \"#utility.yul\":5770:5800   */\n      tag_140\n      jump\t// in\n    tag_209:\n        /* \"#utility.yul\":5759:5800   */\n      swap2\n      pop\n        /* \"#utility.yul\":5949:5950   */\n      dup3\n        /* \"#utility.yul\":5940:5947   */\n      dup3\n        /* \"#utility.yul\":5936:5951   */\n      div\n        /* \"#utility.yul\":5933:5934   */\n      dup5\n        /* \"#utility.yul\":5930:5952   */\n      eq\n        /* \"#utility.yul\":5910:5911   */\n      dup4\n        /* \"#utility.yul\":5903:5912   */\n      iszero\n        /* \"#utility.yul\":5883:5966   */\n      or\n        /* \"#utility.yul\":5860:5999   */\n      tag_210\n      jumpi\n        /* \"#utility.yul\":5979:5997   */\n      tag_211\n      tag_141\n      jump\t// in\n    tag_211:\n        /* \"#utility.yul\":5860:5999   */\n    tag_210:\n        /* \"#utility.yul\":5644:6006   */\n      pop\n        /* \"#utility.yul\":5596:6006   */\n      swap3\n      swap2\n      pop\n      pop\n      jump\t// out\n        /* \"#utility.yul\":6012:6192   */\n    tag_142:\n        /* \"#utility.yul\":6060:6137   */\n      0x4e487b7100000000000000000000000000000000000000000000000000000000\n        /* \"#utility.yul\":6057:6058   */\n      0x00\n        /* \"#utility.yul\":6050:6138   */\n      mstore\n        /* \"#utility.yul\":6157:6161   */\n      0x12\n        /* \"#utility.yul\":6154:6155   */\n      0x04\n        /* \"#utility.yul\":6147:6162   */\n      mstore\n        /* \"#utility.yul\":6181:6185   */\n      0x24\n        /* \"#utility.yul\":6178:6179   */\n      0x00\n        /* \"#utility.yul\":6171:6186   */\n      revert\n        /* \"#utility.yul\":6198:6383   */\n    tag_68:\n        /* \"#utility.yul\":6238:6239   */\n      0x00\n        /* \"#utility.yul\":6255:6275   */\n      tag_214\n        /* \"#utility.yul\":6273:6274   */\n      dup3\n        /* \"#utility.yul\":6255:6275   */\n      tag_140\n      jump\t// in\n    tag_214:\n        /* \"#utility.yul\":6250:6275   */\n      swap2\n      pop\n        /* \"#utility.yul\":6289:6309   */\n      tag_215\n        /* \"#utility.yul\":6307:6308   */\n      dup4\n        /* \"#utility.yul\":6289:6309   */\n      tag_140\n      jump\t// in\n    tag_215:\n        /* \"#utility.yul\":6284:6309   */\n      swap3\n      pop\n        /* \"#utility.yul\":6328:6329   */\n      dup3\n        /* \"#utility.yul\":6318:6353   */\n      tag_216\n      jumpi\n        /* \"#utility.yul\":6333:6351   */\n      tag_217\n      tag_142\n      jump\t// in\n    tag_217:\n        /* \"#utility.yul\":6318:6353   */\n    tag_216:\n        /* \"#utility.yul\":6375:6376   */\n      dup3\n        /* \"#utility.yul\":6372:6373   */\n      dup3\n        /* \"#utility.yul\":6368:6377   */\n      div\n        /* \"#utility.yul\":6363:6377   */\n      swap1\n      pop\n        /* \"#utility.yul\":6198:6383   */\n      swap3\n      swap2\n      pop\n      pop\n      jump\t// out\n        /* \"#utility.yul\":6389:6507   */\n    tag_143:\n        /* \"#utility.yul\":6476:6500   */\n      tag_219\n        /* \"#utility.yul\":6494:6499   */\n      dup2\n        /* \"#utility.yul\":6476:6500   */\n      tag_124\n      jump\t// in\n    tag_219:\n        /* \"#utility.yul\":6471:6474   */\n      dup3\n        /* \"#utility.yul\":6464:6501   */\n      mstore\n        /* \"#utility.yul\":6389:6507   */\n      pop\n      pop\n      jump\t// out\n        /* \"#utility.yul\":6513:6735   */\n    tag_80:\n        /* \"#utility.yul\":6606:6610   */\n      0x00\n        /* \"#utility.yul\":6644:6646   */\n      0x20\n        /* \"#utility.yul\":6633:6642   */\n      dup3\n        /* \"#utility.yul\":6629:6647   */\n      add\n        /* \"#utility.yul\":6621:6647   */\n      swap1\n      pop\n        /* \"#utility.yul\":6657:6728   */\n      tag_221\n        /* \"#utility.yul\":6725:6726   */\n      0x00\n        /* \"#utility.yul\":6714:6723   */\n      dup4\n        /* \"#utility.yul\":6710:6727   */\n      add\n        /* \"#utility.yul\":6701:6707   */\n      dup5\n        /* \"#utility.yul\":6657:6728   */\n      tag_143\n      jump\t// in\n    tag_221:\n        /* \"#utility.yul\":6513:6735   */\n      swap3\n      swap2\n      pop\n      pop\n      jump\t// out\n        /* \"#utility.yul\":6741:6974   */\n    tag_88:\n        /* \"#utility.yul\":6780:6783   */\n      0x00\n        /* \"#utility.yul\":6803:6827   */\n      tag_223\n        /* \"#utility.yul\":6821:6826   */\n      dup3\n        /* \"#utility.yul\":6803:6827   */\n      tag_140\n      jump\t// in\n    tag_223:\n        /* \"#utility.yul\":6794:6827   */\n      swap2\n      pop\n        /* \"#utility.yul\":6849:6915   */\n      0xffffffffffffffffffffffffffffffffffffffffffffffffffffffffffffffff\n        /* \"#utility.yul\":6842:6847   */\n      dup3\n        /* \"#utility.yul\":6839:6916   */\n      sub\n        /* \"#utility.yul\":6836:6939   */\n      tag_224\n      jumpi\n        /* \"#utility.yul\":6919:6937   */\n      tag_225\n      tag_141\n      jump\t// in\n    tag_225:\n        /* \"#utility.yul\":6836:6939   */\n    tag_224:\n        /* \"#utility.yul\":6966:6967   */\n      0x01\n        /* \"#utility.yul\":6959:6964   */\n      dup3\n        /* \"#utility.yul\":6955:6968   */\n      add\n        /* \"#utility.yul\":6948:6968   */\n      swap1\n      pop\n        /* \"#utility.yul\":6741:6974   */\n      swap2\n      swap1\n      pop\n      jump\t// out\n        /* \"#utility.yul\":6980:7149   */\n    tag_144:\n        /* \"#utility.yul\":7064:7075   */\n      0x00\n        /* \"#utility.yul\":7098:7104   */\n      dup3\n        /* \"#utility.yul\":7093:7096   */\n      dup3\n        /* \"#utility.yul\":7086:7105   */\n      mstore\n        /* \"#utility.yul\":7138:7142   */\n      0x20\n        /* \"#utility.yul\":7133:7136   */\n      dup3\n        /* \"#utility.yul\":7129:7143   */\n      add\n        /* \"#utility.yul\":7114:7143   */\n      swap1\n      pop\n        /* \"#utility.yul\":6980:7149   */\n      swap3\n      swap2\n      pop\n      pop\n      jump\t// out\n        /* \"#utility.yul\":7155:7320   */\n    tag_145:\n        /* \"#utility.yul\":7295:7312   */\n      0x616c7265616479206120766f7465720000000000000000000000000000000000\n        /* \"#utility.yul\":7291:7292   */\n      0x00\n        /* \"#utility.yul\":7283:7289   */\n      dup3\n        /* \"#utility.yul\":7279:7293   */\n      add\n        /* \"#utility.yul\":7272:7313   */\n      mstore\n        /* \"#utility.yul\":7155:7320   */\n      pop\n      jump\t// out\n        /* \"#utility.yul\":7326:7692   */\n    tag_146:\n        /* \"#utility.yul\":7468:7471   */\n      0x00\n        /* \"#utility.yul\":7489:7556   */\n      tag_229\n        /* \"#utility.yul\":7553:7555   */\n      0x0f\n        /* \"#utility.yul\":7548:7551   */\n      dup4\n        /* \"#utility.yul\":7489:7556   */\n      tag_144\n      jump\t// in\n    tag_229:\n        /* \"#utility.yul\":7482:7556   */\n      swap2\n      pop\n        /* \"#utility.yul\":7565:7658   */\n      tag_230\n        /* \"#utility.yul\":7654:7657   */\n      dup3\n        /* \"#utility.yul\":7565:7658   */\n      tag_145\n      jump\t// in\n    tag_230:\n        /* \"#utility.yul\":7683:7685   */\n      0x20\n        /* \"#utility.yul\":7678:7681   */\n      dup3\n        /* \"#utility.yul\":7674:7686   */\n      add\n        /* \"#utility.yul\":7667:7686   */\n      swap1\n      pop\n        /* \"#utility.yul\":7326:7692   */\n      swap2\n      swap1\n      pop\n      jump\t// out\n        /* \"#utility.yul\":7698:8117   */\n    tag_118:\n        /* \"#utility.yul\":7864:7868   */\n      0x00\n        /* \"#utility.yul\":7902:7904   */\n      0x20\n        /* \"#utility.yul\":7891:7900   */\n      dup3\n        /* \"#utility.yul\":7887:7905   */\n      add\n        /* \"#utility.yul\":7879:7905   */\n      swap1\n      pop\n        /* \"#utility.yul\":7951:7960   */\n      dup2\n        /* \"#utility.yul\":7945:7949   */\n      dup2\n        /* \"#utility.yul\":7941:7961   */\n      sub\n        /* \"#utility.yul\":7937:7938   */\n      0x00\n        /* \"#utility.yul\":7926:7935   */\n      dup4\n        /* \"#utility.yul\":7922:7939   */\n      add\n        /* \"#utility.yul\":7915:7962   */\n      mstore\n        /* \"#utility.yul\":7979:8110   */\n      tag_232\n        /* \"#utility.yul\":8105:8109   */\n      dup2\n        /* \"#utility.yul\":7979:8110   */\n      tag_146\n      jump\t// in\n    tag_232:\n        /* \"#utility.yul\":7971:8110   */\n      swap1\n      pop\n        /* \"#utility.yul\":7698:8117   */\n      swap2\n      swap1\n      pop\n      jump\t// out\n\n    auxdata: 0xa26469706673582212204a299147130a8a689a0934d4c786e09807155b6b3bd79c9647cc9f838049c5f664736f6c634300081a0033\n}\n",
				"bytecode": {
					"linkReferences": {},
					"object": "6101006040525f600855348015610014575f80fd5b506040516117a23803806117a28339818101604052810190610036919061015b565b3373ffffffffffffffffffffffffffffffffffffffff1660808173ffffffffffffffffffffffffffffffffffffffff16815250508060ff1660a08160ff1681525050603c8060188561008891906101d8565b61009291906101d8565b61009c91906101d8565b426100a79190610219565b60e08181525050603c806018846100be91906101d8565b6100c891906101d8565b6100d291906101d8565b60e0516100df9190610219565b60c0818152505050505061024c565b5f80fd5b5f819050919050565b610104816100f2565b811461010e575f80fd5b50565b5f8151905061011f816100fb565b92915050565b5f60ff82169050919050565b61013a81610125565b8114610144575f80fd5b50565b5f8151905061015581610131565b92915050565b5f805f60608486031215610172576101716100ee565b5b5f61017f86828701610111565b935050602061019086828701610111565b92505060406101a186828701610147565b9150509250925092565b7f4e487b71000000000000000000000000000000000000000000000000000000005f52601160045260245ffd5b5f6101e2826100f2565b91506101ed836100f2565b92508282026101fb816100f2565b91508282048414831517610212576102116101ab565b5b5092915050565b5f610223826100f2565b915061022e836100f2565b9250828201905080821115610246576102456101ab565b5b92915050565b60805160a05160c05160e0516114f96102a95f395f81816102060152818161070d0152610a8401525f61076701525f6104cc01525f8181610319015281816103ee01528181610b9601528181610c6a0152610ed501526114f95ff3fe608060405234801561000f575f80fd5b5060043610610091575f3560e01c80637c82a849116100645780637c82a849146101075780638203373a14610111578063c7ccceeb1461012d578063e277645c14610149578063f4ab9adf1461016757610091565b8063453ff520146100955780635e8edf11146100b15780636c6c32d0146100cd5780636dd7d8ea146100eb575b5f80fd5b6100af60048036038101906100aa91906110fa565b610183565b005b6100cb60048036038101906100c69190611186565b610317565b005b6100d56103eb565b6040516100e291906111eb565b60405180910390f35b610105600480360381019061010091906110fa565b61070b565b005b61010f610a01565b005b61012b60048036038101906101269190611186565b610b94565b005b610147600480360381019061014291906110fa565b610c68565b005b610151610e48565b60405161015e91906112bb565b60405180910390f35b610181600480360381019061017c91906110fa565b610ed3565b005b8060015f8273ffffffffffffffffffffffffffffffffffffffff1673ffffffffffffffffffffffffffffffffffffffff1681526020019081526020015f205f9054906101000a900460ff16610204576040517f8813ffba00000000000000000000000000000000000000000000000000000000815260040160405180910390fd5b7f000000000000000000000000000000000000000000000000000000000000000042111561025e576040517fa8a029ae00000000000000000000000000000000000000000000000000000000815260040160405180910390fd5b600282908060018154018082558091505060019003905f5260205f20015f9091909190916101000a81548173ffffffffffffffffffffffffffffffffffffffff021916908373ffffffffffffffffffffffffffffffffffffffff160217905550600160035f3373ffffffffffffffffffffffffffffffffffffffff1673ffffffffffffffffffffffffffffffffffffffff1681526020019081526020015f205f6101000a81548160ff0219169083151502179055505050565b7f000000000000000000000000000000000000000000000000000000000000000073ffffffffffffffffffffffffffffffffffffffff163373ffffffffffffffffffffffffffffffffffffffff161461039c576040517f076fcefa00000000000000000000000000000000000000000000000000000000815260040160405180910390fd5b5f5b828290508110156103e6576103d98383838181106103bf576103be6112db565b5b90506020020160208101906103d491906110fa565b610c68565b808060010191505061039e565b505050565b5f7f000000000000000000000000000000000000000000000000000000000000000073ffffffffffffffffffffffffffffffffffffffff163373ffffffffffffffffffffffffffffffffffffffff1614610471576040517f076fcefa00000000000000000000000000000000000000000000000000000000815260040160405180910390fd5b5f8080549050148061048757505f600480549050145b8061049357505f600854145b156104ca576040517f59a744ef00000000000000000000000000000000000000000000000000000000815260040160405180910390fd5b7f000000000000000000000000000000000000000000000000000000000000000060ff165f805490506064600854610502919061133e565b61050c91906113ac565b1015610544576040517ff2ddef9d00000000000000000000000000000000000000000000000000000000815260040160405180910390fd5b5f805f805f90505b6004805490508110156106b5575f6004828154811061056e5761056d6112db565b5b905f5260205f20015f9054906101000a900473ffffffffffffffffffffffffffffffffffffffff1690508360075f8373ffffffffffffffffffffffffffffffffffffffff1673ffffffffffffffffffffffffffffffffffffffff1681526020019081526020015f205411156106215780945060075f8273ffffffffffffffffffffffffffffffffffffffff1673ffffffffffffffffffffffffffffffffffffffff1681526020019081526020015f205493505b8260075f8373ffffffffffffffffffffffffffffffffffffffff1673ffffffffffffffffffffffffffffffffffffffff1681526020019081526020015f205411156106a75760075f8273ffffffffffffffffffffffffffffffffffffffff1673ffffffffffffffffffffffffffffffffffffffff1681526020019081526020015f205492505b50808060010191505061054c565b5080821115610701577fc733e153ecad752139800174c65ae74f5a234b458af047ad52011fd1510f42a9836040516106ed91906113eb565b60405180910390a160019350505050610708565b5f93505050505b90565b7f0000000000000000000000000000000000000000000000000000000000000000421015610765576040517f0cc69ad900000000000000000000000000000000000000000000000000000000815260040160405180910390fd5b7f00000000000000000000000000000000000000000000000000000000000000004211156107bf576040517f2030f18e00000000000000000000000000000000000000000000000000000000815260040160405180910390fd5b60015f3373ffffffffffffffffffffffffffffffffffffffff1673ffffffffffffffffffffffffffffffffffffffff1681526020019081526020015f205f9054906101000a900460ff1661083f576040517fcdab012e00000000000000000000000000000000000000000000000000000000815260040160405180910390fd5b60055f8273ffffffffffffffffffffffffffffffffffffffff1673ffffffffffffffffffffffffffffffffffffffff1681526020019081526020015f205f9054906101000a900460ff166108bf576040517f7a41a3eb00000000000000000000000000000000000000000000000000000000815260040160405180910390fd5b60065f3373ffffffffffffffffffffffffffffffffffffffff1673ffffffffffffffffffffffffffffffffffffffff1681526020019081526020015f205f9054906101000a900460ff1615610940576040517f1afb803800000000000000000000000000000000000000000000000000000000815260040160405180910390fd5b600160065f3373ffffffffffffffffffffffffffffffffffffffff1673ffffffffffffffffffffffffffffffffffffffff1681526020019081526020015f205f6101000a81548160ff02191690831515021790555060075f8273ffffffffffffffffffffffffffffffffffffffff1673ffffffffffffffffffffffffffffffffffffffff1681526020019081526020015f205f8154809291906109e290611404565b919050555060085f8154809291906109f990611404565b919050555050565b3360015f8273ffffffffffffffffffffffffffffffffffffffff1673ffffffffffffffffffffffffffffffffffffffff1681526020019081526020015f205f9054906101000a900460ff16610a82576040517f8813ffba00000000000000000000000000000000000000000000000000000000815260040160405180910390fd5b7f0000000000000000000000000000000000000000000000000000000000000000421115610adc576040517fa8a029ae00000000000000000000000000000000000000000000000000000000815260040160405180910390fd5b600233908060018154018082558091505060019003905f5260205f20015f9091909190916101000a81548173ffffffffffffffffffffffffffffffffffffffff021916908373ffffffffffffffffffffffffffffffffffffffff160217905550600160035f3373ffffffffffffffffffffffffffffffffffffffff1673ffffffffffffffffffffffffffffffffffffffff1681526020019081526020015f205f6101000a81548160ff02191690831515021790555050565b7f000000000000000000000000000000000000000000000000000000000000000073ffffffffffffffffffffffffffffffffffffffff163373ffffffffffffffffffffffffffffffffffffffff1614610c19576040517f076fcefa00000000000000000000000000000000000000000000000000000000815260040160405180910390fd5b5f5b82829050811015610c6357610c56838383818110610c3c57610c3b6112db565b5b9050602002016020810190610c5191906110fa565b610ed3565b8080600101915050610c1b565b505050565b7f000000000000000000000000000000000000000000000000000000000000000073ffffffffffffffffffffffffffffffffffffffff163373ffffffffffffffffffffffffffffffffffffffff1614610ced576040517f076fcefa00000000000000000000000000000000000000000000000000000000815260040160405180910390fd5b60035f8273ffffffffffffffffffffffffffffffffffffffff1673ffffffffffffffffffffffffffffffffffffffff1681526020019081526020015f205f9054906101000a900460ff16610d6d576040517faa735f5c00000000000000000000000000000000000000000000000000000000815260040160405180910390fd5b60035f8273ffffffffffffffffffffffffffffffffffffffff1673ffffffffffffffffffffffffffffffffffffffff1681526020019081526020015f205f6101000a81549060ff0219169055600160055f8373ffffffffffffffffffffffffffffffffffffffff1673ffffffffffffffffffffffffffffffffffffffff1681526020019081526020015f205f6101000a81548160ff0219169083151502179055507f1242c4f53262a739ec550bf53a18f09fccbef7dc6b2b599456519c5a9518bfe381604051610e3d91906113eb565b60405180910390a150565b60606004805480602002602001604051908101604052809291908181526020018280548015610ec957602002820191905f5260205f20905b815f9054906101000a900473ffffffffffffffffffffffffffffffffffffffff1673ffffffffffffffffffffffffffffffffffffffff1681526020019060010190808311610e80575b5050505050905090565b7f000000000000000000000000000000000000000000000000000000000000000073ffffffffffffffffffffffffffffffffffffffff163373ffffffffffffffffffffffffffffffffffffffff1614610f58576040517f076fcefa00000000000000000000000000000000000000000000000000000000815260040160405180910390fd5b60015f8273ffffffffffffffffffffffffffffffffffffffff1673ffffffffffffffffffffffffffffffffffffffff1681526020019081526020015f205f9054906101000a900460ff1615610fe2576040517f08c379a0000000000000000000000000000000000000000000000000000000008152600401610fd9906114a5565b60405180910390fd5b5f81908060018154018082558091505060019003905f5260205f20015f9091909190916101000a81548173ffffffffffffffffffffffffffffffffffffffff021916908373ffffffffffffffffffffffffffffffffffffffff1602179055506001805f8373ffffffffffffffffffffffffffffffffffffffff1673ffffffffffffffffffffffffffffffffffffffff1681526020019081526020015f205f6101000a81548160ff02191690831515021790555050565b5f80fd5b5f80fd5b5f73ffffffffffffffffffffffffffffffffffffffff82169050919050565b5f6110c9826110a0565b9050919050565b6110d9816110bf565b81146110e3575f80fd5b50565b5f813590506110f4816110d0565b92915050565b5f6020828403121561110f5761110e611098565b5b5f61111c848285016110e6565b91505092915050565b5f80fd5b5f80fd5b5f80fd5b5f8083601f84011261114657611145611125565b5b8235905067ffffffffffffffff81111561116357611162611129565b5b60208301915083602082028301111561117f5761117e61112d565b5b9250929050565b5f806020838503121561119c5761119b611098565b5b5f83013567ffffffffffffffff8111156111b9576111b861109c565b5b6111c585828601611131565b92509250509250929050565b5f8115159050919050565b6111e5816111d1565b82525050565b5f6020820190506111fe5f8301846111dc565b92915050565b5f81519050919050565b5f82825260208201905092915050565b5f819050602082019050919050565b611236816110bf565b82525050565b5f611247838361122d565b60208301905092915050565b5f602082019050919050565b5f61126982611204565b611273818561120e565b935061127e8361121e565b805f5b838110156112ae578151611295888261123c565b97506112a083611253565b925050600181019050611281565b5085935050505092915050565b5f6020820190508181035f8301526112d3818461125f565b905092915050565b7f4e487b71000000000000000000000000000000000000000000000000000000005f52603260045260245ffd5b5f819050919050565b7f4e487b71000000000000000000000000000000000000000000000000000000005f52601160045260245ffd5b5f61134882611308565b915061135383611308565b925082820261136181611308565b9150828204841483151761137857611377611311565b5b5092915050565b7f4e487b71000000000000000000000000000000000000000000000000000000005f52601260045260245ffd5b5f6113b682611308565b91506113c183611308565b9250826113d1576113d061137f565b5b828204905092915050565b6113e5816110bf565b82525050565b5f6020820190506113fe5f8301846113dc565b92915050565b5f61140e82611308565b91507fffffffffffffffffffffffffffffffffffffffffffffffffffffffffffffffff82036114405761143f611311565b5b600182019050919050565b5f82825260208201905092915050565b7f616c7265616479206120766f74657200000000000000000000000000000000005f82015250565b5f61148f600f8361144b565b915061149a8261145b565b602082019050919050565b5f6020820190508181035f8301526114bc81611483565b905091905056fea26469706673582212204a299147130a8a689a0934d4c786e09807155b6b3bd79c9647cc9f838049c5f664736f6c634300081a0033",
					"opcodes": "PUSH2 0x100 PUSH1 0x40 MSTORE PUSH0 PUSH1 0x8 SSTORE CALLVALUE DUP1 ISZERO PUSH2 0x14 JUMPI PUSH0 DUP1 REVERT JUMPDEST POP PUSH1 0x40 MLOAD PUSH2 0x17A2 CODESIZE SUB DUP1 PUSH2 0x17A2 DUP4 CODECOPY DUP2 DUP2 ADD PUSH1 0x40 MSTORE DUP2 ADD SWAP1 PUSH2 0x36 SWAP2 SWAP1 PUSH2 0x15B JUMP JUMPDEST CALLER PUSH20 0xFFFFFFFFFFFFFFFFFFFFFFFFFFFFFFFFFFFFFFFF AND PUSH1 0x80 DUP2 PUSH20 0xFFFFFFFFFFFFFFFFFFFFFFFFFFFFFFFFFFFFFFFF AND DUP2 MSTORE POP POP DUP1 PUSH1 0xFF AND PUSH1 0xA0 DUP2 PUSH1 0xFF AND DUP2 MSTORE POP POP PUSH1 0x3C DUP1 PUSH1 0x18 DUP6 PUSH2 0x88 SWAP2 SWAP1 PUSH2 0x1D8 JUMP JUMPDEST PUSH2 0x92 SWAP2 SWAP1 PUSH2 0x1D8 JUMP JUMPDEST PUSH2 0x9C SWAP2 SWAP1 PUSH2 0x1D8 JUMP JUMPDEST TIMESTAMP PUSH2 0xA7 SWAP2 SWAP1 PUSH2 0x219 JUMP JUMPDEST PUSH1 0xE0 DUP2 DUP2 MSTORE POP POP PUSH1 0x3C DUP1 PUSH1 0x18 DUP5 PUSH2 0xBE SWAP2 SWAP1 PUSH2 0x1D8 JUMP JUMPDEST PUSH2 0xC8 SWAP2 SWAP1 PUSH2 0x1D8 JUMP JUMPDEST PUSH2 0xD2 SWAP2 SWAP1 PUSH2 0x1D8 JUMP JUMPDEST PUSH1 0xE0 MLOAD PUSH2 0xDF SWAP2 SWAP1 PUSH2 0x219 JUMP JUMPDEST PUSH1 0xC0 DUP2 DUP2 MSTORE POP POP POP POP POP PUSH2 0x24C JUMP JUMPDEST PUSH0 DUP1 REVERT JUMPDEST PUSH0 DUP2 SWAP1 POP SWAP2 SWAP1 POP JUMP JUMPDEST PUSH2 0x104 DUP2 PUSH2 0xF2 JUMP JUMPDEST DUP2 EQ PUSH2 0x10E JUMPI PUSH0 DUP1 REVERT JUMPDEST POP JUMP JUMPDEST PUSH0 DUP2 MLOAD SWAP1 POP PUSH2 0x11F DUP2 PUSH2 0xFB JUMP JUMPDEST SWAP3 SWAP2 POP POP JUMP JUMPDEST PUSH0 PUSH1 0xFF DUP3 AND SWAP1 POP SWAP2 SWAP1 POP JUMP JUMPDEST PUSH2 0x13A DUP2 PUSH2 0x125 JUMP JUMPDEST DUP2 EQ PUSH2 0x144 JUMPI PUSH0 DUP1 REVERT JUMPDEST POP JUMP JUMPDEST PUSH0 DUP2 MLOAD SWAP1 POP PUSH2 0x155 DUP2 PUSH2 0x131 JUMP JUMPDEST SWAP3 SWAP2 POP POP JUMP JUMPDEST PUSH0 DUP1 PUSH0 PUSH1 0x60 DUP5 DUP7 SUB SLT ISZERO PUSH2 0x172 JUMPI PUSH2 0x171 PUSH2 0xEE JUMP JUMPDEST JUMPDEST PUSH0 PUSH2 0x17F DUP7 DUP3 DUP8 ADD PUSH2 0x111 JUMP JUMPDEST SWAP4 POP POP PUSH1 0x20 PUSH2 0x190 DUP7 DUP3 DUP8 ADD PUSH2 0x111 JUMP JUMPDEST SWAP3 POP POP PUSH1 0x40 PUSH2 0x1A1 DUP7 DUP3 DUP8 ADD PUSH2 0x147 JUMP JUMPDEST SWAP2 POP POP SWAP3 POP SWAP3 POP SWAP3 JUMP JUMPDEST PUSH32 0x4E487B7100000000000000000000000000000000000000000000000000000000 PUSH0 MSTORE PUSH1 0x11 PUSH1 0x4 MSTORE PUSH1 0x24 PUSH0 REVERT JUMPDEST PUSH0 PUSH2 0x1E2 DUP3 PUSH2 0xF2 JUMP JUMPDEST SWAP2 POP PUSH2 0x1ED DUP4 PUSH2 0xF2 JUMP JUMPDEST SWAP3 POP DUP3 DUP3 MUL PUSH2 0x1FB DUP2 PUSH2 0xF2 JUMP JUMPDEST SWAP2 POP DUP3 DUP3 DIV DUP5 EQ DUP4 ISZERO OR PUSH2 0x212 JUMPI PUSH2 0x211 PUSH2 0x1AB JUMP JUMPDEST JUMPDEST POP SWAP3 SWAP2 POP POP JUMP JUMPDEST PUSH0 PUSH2 0x223 DUP3 PUSH2 0xF2 JUMP JUMPDEST SWAP2 POP PUSH2 0x22E DUP4 PUSH2 0xF2 JUMP JUMPDEST SWAP3 POP DUP3 DUP3 ADD SWAP1 POP DUP1 DUP3 GT ISZERO PUSH2 0x246 JUMPI PUSH2 0x245 PUSH2 0x1AB JUMP JUMPDEST JUMPDEST SWAP3 SWAP2 POP POP JUMP JUMPDEST PUSH1 0x80 MLOAD PUSH1 0xA0 MLOAD PUSH1 0xC0 MLOAD PUSH1 0xE0 MLOAD PUSH2 0x14F9 PUSH2 0x2A9 PUSH0 CODECOPY PUSH0 DUP2 DUP2 PUSH2 0x206 ADD MSTORE DUP2 DUP2 PUSH2 0x70D ADD MSTORE PUSH2 0xA84 ADD MSTORE PUSH0 PUSH2 0x767 ADD MSTORE PUSH0 PUSH2 0x4CC ADD MSTORE PUSH0 DUP2 DUP2 PUSH2 0x319 ADD MSTORE DUP2 DUP2 PUSH2 0x3EE ADD MSTORE DUP2 DUP2 PUSH2 0xB96 ADD MSTORE DUP2 DUP2 PUSH2 0xC6A ADD MSTORE PUSH2 0xED5 ADD MSTORE PUSH2 0x14F9 PUSH0 RETURN INVALID PUSH1 0x80 PUSH1 0x40 MSTORE CALLVALUE DUP1 ISZERO PUSH2 0xF JUMPI PUSH0 DUP1 REVERT JUMPDEST POP PUSH1 0x4 CALLDATASIZE LT PUSH2 0x91 JUMPI PUSH0 CALLDATALOAD PUSH1 0xE0 SHR DUP1 PUSH4 0x7C82A849 GT PUSH2 0x64 JUMPI DUP1 PUSH4 0x7C82A849 EQ PUSH2 0x107 JUMPI DUP1 PUSH4 0x8203373A EQ PUSH2 0x111 JUMPI DUP1 PUSH4 0xC7CCCEEB EQ PUSH2 0x12D JUMPI DUP1 PUSH4 0xE277645C EQ PUSH2 0x149 JUMPI DUP1 PUSH4 0xF4AB9ADF EQ PUSH2 0x167 JUMPI PUSH2 0x91 JUMP JUMPDEST DUP1 PUSH4 0x453FF520 EQ PUSH2 0x95 JUMPI DUP1 PUSH4 0x5E8EDF11 EQ PUSH2 0xB1 JUMPI DUP1 PUSH4 0x6C6C32D0 EQ PUSH2 0xCD JUMPI DUP1 PUSH4 0x6DD7D8EA EQ PUSH2 0xEB JUMPI JUMPDEST PUSH0 DUP1 REVERT JUMPDEST PUSH2 0xAF PUSH1 0x4 DUP1 CALLDATASIZE SUB DUP2 ADD SWAP1 PUSH2 0xAA SWAP2 SWAP1 PUSH2 0x10FA JUMP JUMPDEST PUSH2 0x183 JUMP JUMPDEST STOP JUMPDEST PUSH2 0xCB PUSH1 0x4 DUP1 CALLDATASIZE SUB DUP2 ADD SWAP1 PUSH2 0xC6 SWAP2 SWAP1 PUSH2 0x1186 JUMP JUMPDEST PUSH2 0x317 JUMP JUMPDEST STOP JUMPDEST PUSH2 0xD5 PUSH2 0x3EB JUMP JUMPDEST PUSH1 0x40 MLOAD PUSH2 0xE2 SWAP2 SWAP1 PUSH2 0x11EB JUMP JUMPDEST PUSH1 0x40 MLOAD DUP1 SWAP2 SUB SWAP1 RETURN JUMPDEST PUSH2 0x105 PUSH1 0x4 DUP1 CALLDATASIZE SUB DUP2 ADD SWAP1 PUSH2 0x100 SWAP2 SWAP1 PUSH2 0x10FA JUMP JUMPDEST PUSH2 0x70B JUMP JUMPDEST STOP JUMPDEST PUSH2 0x10F PUSH2 0xA01 JUMP JUMPDEST STOP JUMPDEST PUSH2 0x12B PUSH1 0x4 DUP1 CALLDATASIZE SUB DUP2 ADD SWAP1 PUSH2 0x126 SWAP2 SWAP1 PUSH2 0x1186 JUMP JUMPDEST PUSH2 0xB94 JUMP JUMPDEST STOP JUMPDEST PUSH2 0x147 PUSH1 0x4 DUP1 CALLDATASIZE SUB DUP2 ADD SWAP1 PUSH2 0x142 SWAP2 SWAP1 PUSH2 0x10FA JUMP JUMPDEST PUSH2 0xC68 JUMP JUMPDEST STOP JUMPDEST PUSH2 0x151 PUSH2 0xE48 JUMP JUMPDEST PUSH1 0x40 MLOAD PUSH2 0x15E SWAP2 SWAP1 PUSH2 0x12BB JUMP JUMPDEST PUSH1 0x40 MLOAD DUP1 SWAP2 SUB SWAP1 RETURN JUMPDEST PUSH2 0x181 PUSH1 0x4 DUP1 CALLDATASIZE SUB DUP2 ADD SWAP1 PUSH2 0x17C SWAP2 SWAP1 PUSH2 0x10FA JUMP JUMPDEST PUSH2 0xED3 JUMP JUMPDEST STOP JUMPDEST DUP1 PUSH1 0x1 PUSH0 DUP3 PUSH20 0xFFFFFFFFFFFFFFFFFFFFFFFFFFFFFFFFFFFFFFFF AND PUSH20 0xFFFFFFFFFFFFFFFFFFFFFFFFFFFFFFFFFFFFFFFF AND DUP2 MSTORE PUSH1 0x20 ADD SWAP1 DUP2 MSTORE PUSH1 0x20 ADD PUSH0 KECCAK256 PUSH0 SWAP1 SLOAD SWAP1 PUSH2 0x100 EXP SWAP1 DIV PUSH1 0xFF AND PUSH2 0x204 JUMPI PUSH1 0x40 MLOAD PUSH32 0x8813FFBA00000000000000000000000000000000000000000000000000000000 DUP2 MSTORE PUSH1 0x4 ADD PUSH1 0x40 MLOAD DUP1 SWAP2 SUB SWAP1 REVERT JUMPDEST PUSH32 0x0 TIMESTAMP GT ISZERO PUSH2 0x25E JUMPI PUSH1 0x40 MLOAD PUSH32 0xA8A029AE00000000000000000000000000000000000000000000000000000000 DUP2 MSTORE PUSH1 0x4 ADD PUSH1 0x40 MLOAD DUP1 SWAP2 SUB SWAP1 REVERT JUMPDEST PUSH1 0x2 DUP3 SWAP1 DUP1 PUSH1 0x1 DUP2 SLOAD ADD DUP1 DUP3 SSTORE DUP1 SWAP2 POP POP PUSH1 0x1 SWAP1 SUB SWAP1 PUSH0 MSTORE PUSH1 0x20 PUSH0 KECCAK256 ADD PUSH0 SWAP1 SWAP2 SWAP1 SWAP2 SWAP1 SWAP2 PUSH2 0x100 EXP DUP2 SLOAD DUP2 PUSH20 0xFFFFFFFFFFFFFFFFFFFFFFFFFFFFFFFFFFFFFFFF MUL NOT AND SWAP1 DUP4 PUSH20 0xFFFFFFFFFFFFFFFFFFFFFFFFFFFFFFFFFFFFFFFF AND MUL OR SWAP1 SSTORE POP PUSH1 0x1 PUSH1 0x3 PUSH0 CALLER PUSH20 0xFFFFFFFFFFFFFFFFFFFFFFFFFFFFFFFFFFFFFFFF AND PUSH20 0xFFFFFFFFFFFFFFFFFFFFFFFFFFFFFFFFFFFFFFFF AND DUP2 MSTORE PUSH1 0x20 ADD SWAP1 DUP2 MSTORE PUSH1 0x20 ADD PUSH0 KECCAK256 PUSH0 PUSH2 0x100 EXP DUP2 SLOAD DUP2 PUSH1 0xFF MUL NOT AND SWAP1 DUP4 ISZERO ISZERO MUL OR SWAP1 SSTORE POP POP POP JUMP JUMPDEST PUSH32 0x0 PUSH20 0xFFFFFFFFFFFFFFFFFFFFFFFFFFFFFFFFFFFFFFFF AND CALLER PUSH20 0xFFFFFFFFFFFFFFFFFFFFFFFFFFFFFFFFFFFFFFFF AND EQ PUSH2 0x39C JUMPI PUSH1 0x40 MLOAD PUSH32 0x76FCEFA00000000000000000000000000000000000000000000000000000000 DUP2 MSTORE PUSH1 0x4 ADD PUSH1 0x40 MLOAD DUP1 SWAP2 SUB SWAP1 REVERT JUMPDEST PUSH0 JUMPDEST DUP3 DUP3 SWAP1 POP DUP2 LT ISZERO PUSH2 0x3E6 JUMPI PUSH2 0x3D9 DUP4 DUP4 DUP4 DUP2 DUP2 LT PUSH2 0x3BF JUMPI PUSH2 0x3BE PUSH2 0x12DB JUMP JUMPDEST JUMPDEST SWAP1 POP PUSH1 0x20 MUL ADD PUSH1 0x20 DUP2 ADD SWAP1 PUSH2 0x3D4 SWAP2 SWAP1 PUSH2 0x10FA JUMP JUMPDEST PUSH2 0xC68 JUMP JUMPDEST DUP1 DUP1 PUSH1 0x1 ADD SWAP2 POP POP PUSH2 0x39E JUMP JUMPDEST POP POP POP JUMP JUMPDEST PUSH0 PUSH32 0x0 PUSH20 0xFFFFFFFFFFFFFFFFFFFFFFFFFFFFFFFFFFFFFFFF AND CALLER PUSH20 0xFFFFFFFFFFFFFFFFFFFFFFFFFFFFFFFFFFFFFFFF AND EQ PUSH2 0x471 JUMPI PUSH1 0x40 MLOAD PUSH32 0x76FCEFA00000000000000000000000000000000000000000000000000000000 DUP2 MSTORE PUSH1 0x4 ADD PUSH1 0x40 MLOAD DUP1 SWAP2 SUB SWAP1 REVERT JUMPDEST PUSH0 DUP1 DUP1 SLOAD SWAP1 POP EQ DUP1 PUSH2 0x487 JUMPI POP PUSH0 PUSH1 0x4 DUP1 SLOAD SWAP1 POP EQ JUMPDEST DUP1 PUSH2 0x493 JUMPI POP PUSH0 PUSH1 0x8 SLOAD EQ JUMPDEST ISZERO PUSH2 0x4CA JUMPI PUSH1 0x40 MLOAD PUSH32 0x59A744EF00000000000000000000000000000000000000000000000000000000 DUP2 MSTORE PUSH1 0x4 ADD PUSH1 0x40 MLOAD DUP1 SWAP2 SUB SWAP1 REVERT JUMPDEST PUSH32 0x0 PUSH1 0xFF AND PUSH0 DUP1 SLOAD SWAP1 POP PUSH1 0x64 PUSH1 0x8 SLOAD PUSH2 0x502 SWAP2 SWAP1 PUSH2 0x133E JUMP JUMPDEST PUSH2 0x50C SWAP2 SWAP1 PUSH2 0x13AC JUMP JUMPDEST LT ISZERO PUSH2 0x544 JUMPI PUSH1 0x40 MLOAD PUSH32 0xF2DDEF9D00000000000000000000000000000000000000000000000000000000 DUP2 MSTORE PUSH1 0x4 ADD PUSH1 0x40 MLOAD DUP1 SWAP2 SUB SWAP1 REVERT JUMPDEST PUSH0 DUP1 PUSH0 DUP1 PUSH0 SWAP1 POP JUMPDEST PUSH1 0x4 DUP1 SLOAD SWAP1 POP DUP2 LT ISZERO PUSH2 0x6B5 JUMPI PUSH0 PUSH1 0x4 DUP3 DUP2 SLOAD DUP2 LT PUSH2 0x56E JUMPI PUSH2 0x56D PUSH2 0x12DB JUMP JUMPDEST JUMPDEST SWAP1 PUSH0 MSTORE PUSH1 0x20 PUSH0 KECCAK256 ADD PUSH0 SWAP1 SLOAD SWAP1 PUSH2 0x100 EXP SWAP1 DIV PUSH20 0xFFFFFFFFFFFFFFFFFFFFFFFFFFFFFFFFFFFFFFFF AND SWAP1 POP DUP4 PUSH1 0x7 PUSH0 DUP4 PUSH20 0xFFFFFFFFFFFFFFFFFFFFFFFFFFFFFFFFFFFFFFFF AND PUSH20 0xFFFFFFFFFFFFFFFFFFFFFFFFFFFFFFFFFFFFFFFF AND DUP2 MSTORE PUSH1 0x20 ADD SWAP1 DUP2 MSTORE PUSH1 0x20 ADD PUSH0 KECCAK256 SLOAD GT ISZERO PUSH2 0x621 JUMPI DUP1 SWAP5 POP PUSH1 0x7 PUSH0 DUP3 PUSH20 0xFFFFFFFFFFFFFFFFFFFFFFFFFFFFFFFFFFFFFFFF AND PUSH20 0xFFFFFFFFFFFFFFFFFFFFFFFFFFFFFFFFFFFFFFFF AND DUP2 MSTORE PUSH1 0x20 ADD SWAP1 DUP2 MSTORE PUSH1 0x20 ADD PUSH0 KECCAK256 SLOAD SWAP4 POP JUMPDEST DUP3 PUSH1 0x7 PUSH0 DUP4 PUSH20 0xFFFFFFFFFFFFFFFFFFFFFFFFFFFFFFFFFFFFFFFF AND PUSH20 0xFFFFFFFFFFFFFFFFFFFFFFFFFFFFFFFFFFFFFFFF AND DUP2 MSTORE PUSH1 0x20 ADD SWAP1 DUP2 MSTORE PUSH1 0x20 ADD PUSH0 KECCAK256 SLOAD GT ISZERO PUSH2 0x6A7 JUMPI PUSH1 0x7 PUSH0 DUP3 PUSH20 0xFFFFFFFFFFFFFFFFFFFFFFFFFFFFFFFFFFFFFFFF AND PUSH20 0xFFFFFFFFFFFFFFFFFFFFFFFFFFFFFFFFFFFFFFFF AND DUP2 MSTORE PUSH1 0x20 ADD SWAP1 DUP2 MSTORE PUSH1 0x20 ADD PUSH0 KECCAK256 SLOAD SWAP3 POP JUMPDEST POP DUP1 DUP1 PUSH1 0x1 ADD SWAP2 POP POP PUSH2 0x54C JUMP JUMPDEST POP DUP1 DUP3 GT ISZERO PUSH2 0x701 JUMPI PUSH32 0xC733E153ECAD752139800174C65AE74F5A234B458AF047AD52011FD1510F42A9 DUP4 PUSH1 0x40 MLOAD PUSH2 0x6ED SWAP2 SWAP1 PUSH2 0x13EB JUMP JUMPDEST PUSH1 0x40 MLOAD DUP1 SWAP2 SUB SWAP1 LOG1 PUSH1 0x1 SWAP4 POP POP POP POP PUSH2 0x708 JUMP JUMPDEST PUSH0 SWAP4 POP POP POP POP JUMPDEST SWAP1 JUMP JUMPDEST PUSH32 0x0 TIMESTAMP LT ISZERO PUSH2 0x765 JUMPI PUSH1 0x40 MLOAD PUSH32 0xCC69AD900000000000000000000000000000000000000000000000000000000 DUP2 MSTORE PUSH1 0x4 ADD PUSH1 0x40 MLOAD DUP1 SWAP2 SUB SWAP1 REVERT JUMPDEST PUSH32 0x0 TIMESTAMP GT ISZERO PUSH2 0x7BF JUMPI PUSH1 0x40 MLOAD PUSH32 0x2030F18E00000000000000000000000000000000000000000000000000000000 DUP2 MSTORE PUSH1 0x4 ADD PUSH1 0x40 MLOAD DUP1 SWAP2 SUB SWAP1 REVERT JUMPDEST PUSH1 0x1 PUSH0 CALLER PUSH20 0xFFFFFFFFFFFFFFFFFFFFFFFFFFFFFFFFFFFFFFFF AND PUSH20 0xFFFFFFFFFFFFFFFFFFFFFFFFFFFFFFFFFFFFFFFF AND DUP2 MSTORE PUSH1 0x20 ADD SWAP1 DUP2 MSTORE PUSH1 0x20 ADD PUSH0 KECCAK256 PUSH0 SWAP1 SLOAD SWAP1 PUSH2 0x100 EXP SWAP1 DIV PUSH1 0xFF AND PUSH2 0x83F JUMPI PUSH1 0x40 MLOAD PUSH32 0xCDAB012E00000000000000000000000000000000000000000000000000000000 DUP2 MSTORE PUSH1 0x4 ADD PUSH1 0x40 MLOAD DUP1 SWAP2 SUB SWAP1 REVERT JUMPDEST PUSH1 0x5 PUSH0 DUP3 PUSH20 0xFFFFFFFFFFFFFFFFFFFFFFFFFFFFFFFFFFFFFFFF AND PUSH20 0xFFFFFFFFFFFFFFFFFFFFFFFFFFFFFFFFFFFFFFFF AND DUP2 MSTORE PUSH1 0x20 ADD SWAP1 DUP2 MSTORE PUSH1 0x20 ADD PUSH0 KECCAK256 PUSH0 SWAP1 SLOAD SWAP1 PUSH2 0x100 EXP SWAP1 DIV PUSH1 0xFF AND PUSH2 0x8BF JUMPI PUSH1 0x40 MLOAD PUSH32 0x7A41A3EB00000000000000000000000000000000000000000000000000000000 DUP2 MSTORE PUSH1 0x4 ADD PUSH1 0x40 MLOAD DUP1 SWAP2 SUB SWAP1 REVERT JUMPDEST PUSH1 0x6 PUSH0 CALLER PUSH20 0xFFFFFFFFFFFFFFFFFFFFFFFFFFFFFFFFFFFFFFFF AND PUSH20 0xFFFFFFFFFFFFFFFFFFFFFFFFFFFFFFFFFFFFFFFF AND DUP2 MSTORE PUSH1 0x20 ADD SWAP1 DUP2 MSTORE PUSH1 0x20 ADD PUSH0 KECCAK256 PUSH0 SWAP1 SLOAD SWAP1 PUSH2 0x100 EXP SWAP1 DIV PUSH1 0xFF AND ISZERO PUSH2 0x940 JUMPI PUSH1 0x40 MLOAD PUSH32 0x1AFB803800000000000000000000000000000000000000000000000000000000 DUP2 MSTORE PUSH1 0x4 ADD PUSH1 0x40 MLOAD DUP1 SWAP2 SUB SWAP1 REVERT JUMPDEST PUSH1 0x1 PUSH1 0x6 PUSH0 CALLER PUSH20 0xFFFFFFFFFFFFFFFFFFFFFFFFFFFFFFFFFFFFFFFF AND PUSH20 0xFFFFFFFFFFFFFFFFFFFFFFFFFFFFFFFFFFFFFFFF AND DUP2 MSTORE PUSH1 0x20 ADD SWAP1 DUP2 MSTORE PUSH1 0x20 ADD PUSH0 KECCAK256 PUSH0 PUSH2 0x100 EXP DUP2 SLOAD DUP2 PUSH1 0xFF MUL NOT AND SWAP1 DUP4 ISZERO ISZERO MUL OR SWAP1 SSTORE POP PUSH1 0x7 PUSH0 DUP3 PUSH20 0xFFFFFFFFFFFFFFFFFFFFFFFFFFFFFFFFFFFFFFFF AND PUSH20 0xFFFFFFFFFFFFFFFFFFFFFFFFFFFFFFFFFFFFFFFF AND DUP2 MSTORE PUSH1 0x20 ADD SWAP1 DUP2 MSTORE PUSH1 0x20 ADD PUSH0 KECCAK256 PUSH0 DUP2 SLOAD DUP1 SWAP3 SWAP2 SWAP1 PUSH2 0x9E2 SWAP1 PUSH2 0x1404 JUMP JUMPDEST SWAP2 SWAP1 POP SSTORE POP PUSH1 0x8 PUSH0 DUP2 SLOAD DUP1 SWAP3 SWAP2 SWAP1 PUSH2 0x9F9 SWAP1 PUSH2 0x1404 JUMP JUMPDEST SWAP2 SWAP1 POP SSTORE POP POP JUMP JUMPDEST CALLER PUSH1 0x1 PUSH0 DUP3 PUSH20 0xFFFFFFFFFFFFFFFFFFFFFFFFFFFFFFFFFFFFFFFF AND PUSH20 0xFFFFFFFFFFFFFFFFFFFFFFFFFFFFFFFFFFFFFFFF AND DUP2 MSTORE PUSH1 0x20 ADD SWAP1 DUP2 MSTORE PUSH1 0x20 ADD PUSH0 KECCAK256 PUSH0 SWAP1 SLOAD SWAP1 PUSH2 0x100 EXP SWAP1 DIV PUSH1 0xFF AND PUSH2 0xA82 JUMPI PUSH1 0x40 MLOAD PUSH32 0x8813FFBA00000000000000000000000000000000000000000000000000000000 DUP2 MSTORE PUSH1 0x4 ADD PUSH1 0x40 MLOAD DUP1 SWAP2 SUB SWAP1 REVERT JUMPDEST PUSH32 0x0 TIMESTAMP GT ISZERO PUSH2 0xADC JUMPI PUSH1 0x40 MLOAD PUSH32 0xA8A029AE00000000000000000000000000000000000000000000000000000000 DUP2 MSTORE PUSH1 0x4 ADD PUSH1 0x40 MLOAD DUP1 SWAP2 SUB SWAP1 REVERT JUMPDEST PUSH1 0x2 CALLER SWAP1 DUP1 PUSH1 0x1 DUP2 SLOAD ADD DUP1 DUP3 SSTORE DUP1 SWAP2 POP POP PUSH1 0x1 SWAP1 SUB SWAP1 PUSH0 MSTORE PUSH1 0x20 PUSH0 KECCAK256 ADD PUSH0 SWAP1 SWAP2 SWAP1 SWAP2 SWAP1 SWAP2 PUSH2 0x100 EXP DUP2 SLOAD DUP2 PUSH20 0xFFFFFFFFFFFFFFFFFFFFFFFFFFFFFFFFFFFFFFFF MUL NOT AND SWAP1 DUP4 PUSH20 0xFFFFFFFFFFFFFFFFFFFFFFFFFFFFFFFFFFFFFFFF AND MUL OR SWAP1 SSTORE POP PUSH1 0x1 PUSH1 0x3 PUSH0 CALLER PUSH20 0xFFFFFFFFFFFFFFFFFFFFFFFFFFFFFFFFFFFFFFFF AND PUSH20 0xFFFFFFFFFFFFFFFFFFFFFFFFFFFFFFFFFFFFFFFF AND DUP2 MSTORE PUSH1 0x20 ADD SWAP1 DUP2 MSTORE PUSH1 0x20 ADD PUSH0 KECCAK256 PUSH0 PUSH2 0x100 EXP DUP2 SLOAD DUP2 PUSH1 0xFF MUL NOT AND SWAP1 DUP4 ISZERO ISZERO MUL OR SWAP1 SSTORE POP POP JUMP JUMPDEST PUSH32 0x0 PUSH20 0xFFFFFFFFFFFFFFFFFFFFFFFFFFFFFFFFFFFFFFFF AND CALLER PUSH20 0xFFFFFFFFFFFFFFFFFFFFFFFFFFFFFFFFFFFFFFFF AND EQ PUSH2 0xC19 JUMPI PUSH1 0x40 MLOAD PUSH32 0x76FCEFA00000000000000000000000000000000000000000000000000000000 DUP2 MSTORE PUSH1 0x4 ADD PUSH1 0x40 MLOAD DUP1 SWAP2 SUB SWAP1 REVERT JUMPDEST PUSH0 JUMPDEST DUP3 DUP3 SWAP1 POP DUP2 LT ISZERO PUSH2 0xC63 JUMPI PUSH2 0xC56 DUP4 DUP4 DUP4 DUP2 DUP2 LT PUSH2 0xC3C JUMPI PUSH2 0xC3B PUSH2 0x12DB JUMP JUMPDEST JUMPDEST SWAP1 POP PUSH1 0x20 MUL ADD PUSH1 0x20 DUP2 ADD SWAP1 PUSH2 0xC51 SWAP2 SWAP1 PUSH2 0x10FA JUMP JUMPDEST PUSH2 0xED3 JUMP JUMPDEST DUP1 DUP1 PUSH1 0x1 ADD SWAP2 POP POP PUSH2 0xC1B JUMP JUMPDEST POP POP POP JUMP JUMPDEST PUSH32 0x0 PUSH20 0xFFFFFFFFFFFFFFFFFFFFFFFFFFFFFFFFFFFFFFFF AND CALLER PUSH20 0xFFFFFFFFFFFFFFFFFFFFFFFFFFFFFFFFFFFFFFFF AND EQ PUSH2 0xCED JUMPI PUSH1 0x40 MLOAD PUSH32 0x76FCEFA00000000000000000000000000000000000000000000000000000000 DUP2 MSTORE PUSH1 0x4 ADD PUSH1 0x40 MLOAD DUP1 SWAP2 SUB SWAP1 REVERT JUMPDEST PUSH1 0x3 PUSH0 DUP3 PUSH20 0xFFFFFFFFFFFFFFFFFFFFFFFFFFFFFFFFFFFFFFFF AND PUSH20 0xFFFFFFFFFFFFFFFFFFFFFFFFFFFFFFFFFFFFFFFF AND DUP2 MSTORE PUSH1 0x20 ADD SWAP1 DUP2 MSTORE PUSH1 0x20 ADD PUSH0 KECCAK256 PUSH0 SWAP1 SLOAD SWAP1 PUSH2 0x100 EXP SWAP1 DIV PUSH1 0xFF AND PUSH2 0xD6D JUMPI PUSH1 0x40 MLOAD PUSH32 0xAA735F5C00000000000000000000000000000000000000000000000000000000 DUP2 MSTORE PUSH1 0x4 ADD PUSH1 0x40 MLOAD DUP1 SWAP2 SUB SWAP1 REVERT JUMPDEST PUSH1 0x3 PUSH0 DUP3 PUSH20 0xFFFFFFFFFFFFFFFFFFFFFFFFFFFFFFFFFFFFFFFF AND PUSH20 0xFFFFFFFFFFFFFFFFFFFFFFFFFFFFFFFFFFFFFFFF AND DUP2 MSTORE PUSH1 0x20 ADD SWAP1 DUP2 MSTORE PUSH1 0x20 ADD PUSH0 KECCAK256 PUSH0 PUSH2 0x100 EXP DUP2 SLOAD SWAP1 PUSH1 0xFF MUL NOT AND SWAP1 SSTORE PUSH1 0x1 PUSH1 0x5 PUSH0 DUP4 PUSH20 0xFFFFFFFFFFFFFFFFFFFFFFFFFFFFFFFFFFFFFFFF AND PUSH20 0xFFFFFFFFFFFFFFFFFFFFFFFFFFFFFFFFFFFFFFFF AND DUP2 MSTORE PUSH1 0x20 ADD SWAP1 DUP2 MSTORE PUSH1 0x20 ADD PUSH0 KECCAK256 PUSH0 PUSH2 0x100 EXP DUP2 SLOAD DUP2 PUSH1 0xFF MUL NOT AND SWAP1 DUP4 ISZERO ISZERO MUL OR SWAP1 SSTORE POP PUSH32 0x1242C4F53262A739EC550BF53A18F09FCCBEF7DC6B2B599456519C5A9518BFE3 DUP2 PUSH1 0x40 MLOAD PUSH2 0xE3D SWAP2 SWAP1 PUSH2 0x13EB JUMP JUMPDEST PUSH1 0x40 MLOAD DUP1 SWAP2 SUB SWAP1 LOG1 POP JUMP JUMPDEST PUSH1 0x60 PUSH1 0x4 DUP1 SLOAD DUP1 PUSH1 0x20 MUL PUSH1 0x20 ADD PUSH1 0x40 MLOAD SWAP1 DUP2 ADD PUSH1 0x40 MSTORE DUP1 SWAP3 SWAP2 SWAP1 DUP2 DUP2 MSTORE PUSH1 0x20 ADD DUP3 DUP1 SLOAD DUP1 ISZERO PUSH2 0xEC9 JUMPI PUSH1 0x20 MUL DUP3 ADD SWAP2 SWAP1 PUSH0 MSTORE PUSH1 0x20 PUSH0 KECCAK256 SWAP1 JUMPDEST DUP2 PUSH0 SWAP1 SLOAD SWAP1 PUSH2 0x100 EXP SWAP1 DIV PUSH20 0xFFFFFFFFFFFFFFFFFFFFFFFFFFFFFFFFFFFFFFFF AND PUSH20 0xFFFFFFFFFFFFFFFFFFFFFFFFFFFFFFFFFFFFFFFF AND DUP2 MSTORE PUSH1 0x20 ADD SWAP1 PUSH1 0x1 ADD SWAP1 DUP1 DUP4 GT PUSH2 0xE80 JUMPI JUMPDEST POP POP POP POP POP SWAP1 POP SWAP1 JUMP JUMPDEST PUSH32 0x0 PUSH20 0xFFFFFFFFFFFFFFFFFFFFFFFFFFFFFFFFFFFFFFFF AND CALLER PUSH20 0xFFFFFFFFFFFFFFFFFFFFFFFFFFFFFFFFFFFFFFFF AND EQ PUSH2 0xF58 JUMPI PUSH1 0x40 MLOAD PUSH32 0x76FCEFA00000000000000000000000000000000000000000000000000000000 DUP2 MSTORE PUSH1 0x4 ADD PUSH1 0x40 MLOAD DUP1 SWAP2 SUB SWAP1 REVERT JUMPDEST PUSH1 0x1 PUSH0 DUP3 PUSH20 0xFFFFFFFFFFFFFFFFFFFFFFFFFFFFFFFFFFFFFFFF AND PUSH20 0xFFFFFFFFFFFFFFFFFFFFFFFFFFFFFFFFFFFFFFFF AND DUP2 MSTORE PUSH1 0x20 ADD SWAP1 DUP2 MSTORE PUSH1 0x20 ADD PUSH0 KECCAK256 PUSH0 SWAP1 SLOAD SWAP1 PUSH2 0x100 EXP SWAP1 DIV PUSH1 0xFF AND ISZERO PUSH2 0xFE2 JUMPI PUSH1 0x40 MLOAD PUSH32 0x8C379A000000000000000000000000000000000000000000000000000000000 DUP2 MSTORE PUSH1 0x4 ADD PUSH2 0xFD9 SWAP1 PUSH2 0x14A5 JUMP JUMPDEST PUSH1 0x40 MLOAD DUP1 SWAP2 SUB SWAP1 REVERT JUMPDEST PUSH0 DUP2 SWAP1 DUP1 PUSH1 0x1 DUP2 SLOAD ADD DUP1 DUP3 SSTORE DUP1 SWAP2 POP POP PUSH1 0x1 SWAP1 SUB SWAP1 PUSH0 MSTORE PUSH1 0x20 PUSH0 KECCAK256 ADD PUSH0 SWAP1 SWAP2 SWAP1 SWAP2 SWAP1 SWAP2 PUSH2 0x100 EXP DUP2 SLOAD DUP2 PUSH20 0xFFFFFFFFFFFFFFFFFFFFFFFFFFFFFFFFFFFFFFFF MUL NOT AND SWAP1 DUP4 PUSH20 0xFFFFFFFFFFFFFFFFFFFFFFFFFFFFFFFFFFFFFFFF AND MUL OR SWAP1 SSTORE POP PUSH1 0x1 DUP1 PUSH0 DUP4 PUSH20 0xFFFFFFFFFFFFFFFFFFFFFFFFFFFFFFFFFFFFFFFF AND PUSH20 0xFFFFFFFFFFFFFFFFFFFFFFFFFFFFFFFFFFFFFFFF AND DUP2 MSTORE PUSH1 0x20 ADD SWAP1 DUP2 MSTORE PUSH1 0x20 ADD PUSH0 KECCAK256 PUSH0 PUSH2 0x100 EXP DUP2 SLOAD DUP2 PUSH1 0xFF MUL NOT AND SWAP1 DUP4 ISZERO ISZERO MUL OR SWAP1 SSTORE POP POP JUMP JUMPDEST PUSH0 DUP1 REVERT JUMPDEST PUSH0 DUP1 REVERT JUMPDEST PUSH0 PUSH20 0xFFFFFFFFFFFFFFFFFFFFFFFFFFFFFFFFFFFFFFFF DUP3 AND SWAP1 POP SWAP2 SWAP1 POP JUMP JUMPDEST PUSH0 PUSH2 0x10C9 DUP3 PUSH2 0x10A0 JUMP JUMPDEST SWAP1 POP SWAP2 SWAP1 POP JUMP JUMPDEST PUSH2 0x10D9 DUP2 PUSH2 0x10BF JUMP JUMPDEST DUP2 EQ PUSH2 0x10E3 JUMPI PUSH0 DUP1 REVERT JUMPDEST POP JUMP JUMPDEST PUSH0 DUP2 CALLDATALOAD SWAP1 POP PUSH2 0x10F4 DUP2 PUSH2 0x10D0 JUMP JUMPDEST SWAP3 SWAP2 POP POP JUMP JUMPDEST PUSH0 PUSH1 0x20 DUP3 DUP5 SUB SLT ISZERO PUSH2 0x110F JUMPI PUSH2 0x110E PUSH2 0x1098 JUMP JUMPDEST JUMPDEST PUSH0 PUSH2 0x111C DUP5 DUP3 DUP6 ADD PUSH2 0x10E6 JUMP JUMPDEST SWAP2 POP POP SWAP3 SWAP2 POP POP JUMP JUMPDEST PUSH0 DUP1 REVERT JUMPDEST PUSH0 DUP1 REVERT JUMPDEST PUSH0 DUP1 REVERT JUMPDEST PUSH0 DUP1 DUP4 PUSH1 0x1F DUP5 ADD SLT PUSH2 0x1146 JUMPI PUSH2 0x1145 PUSH2 0x1125 JUMP JUMPDEST JUMPDEST DUP3 CALLDATALOAD SWAP1 POP PUSH8 0xFFFFFFFFFFFFFFFF DUP2 GT ISZERO PUSH2 0x1163 JUMPI PUSH2 0x1162 PUSH2 0x1129 JUMP JUMPDEST JUMPDEST PUSH1 0x20 DUP4 ADD SWAP2 POP DUP4 PUSH1 0x20 DUP3 MUL DUP4 ADD GT ISZERO PUSH2 0x117F JUMPI PUSH2 0x117E PUSH2 0x112D JUMP JUMPDEST JUMPDEST SWAP3 POP SWAP3 SWAP1 POP JUMP JUMPDEST PUSH0 DUP1 PUSH1 0x20 DUP4 DUP6 SUB SLT ISZERO PUSH2 0x119C JUMPI PUSH2 0x119B PUSH2 0x1098 JUMP JUMPDEST JUMPDEST PUSH0 DUP4 ADD CALLDATALOAD PUSH8 0xFFFFFFFFFFFFFFFF DUP2 GT ISZERO PUSH2 0x11B9 JUMPI PUSH2 0x11B8 PUSH2 0x109C JUMP JUMPDEST JUMPDEST PUSH2 0x11C5 DUP6 DUP3 DUP7 ADD PUSH2 0x1131 JUMP JUMPDEST SWAP3 POP SWAP3 POP POP SWAP3 POP SWAP3 SWAP1 POP JUMP JUMPDEST PUSH0 DUP2 ISZERO ISZERO SWAP1 POP SWAP2 SWAP1 POP JUMP JUMPDEST PUSH2 0x11E5 DUP2 PUSH2 0x11D1 JUMP JUMPDEST DUP3 MSTORE POP POP JUMP JUMPDEST PUSH0 PUSH1 0x20 DUP3 ADD SWAP1 POP PUSH2 0x11FE PUSH0 DUP4 ADD DUP5 PUSH2 0x11DC JUMP JUMPDEST SWAP3 SWAP2 POP POP JUMP JUMPDEST PUSH0 DUP2 MLOAD SWAP1 POP SWAP2 SWAP1 POP JUMP JUMPDEST PUSH0 DUP3 DUP3 MSTORE PUSH1 0x20 DUP3 ADD SWAP1 POP SWAP3 SWAP2 POP POP JUMP JUMPDEST PUSH0 DUP2 SWAP1 POP PUSH1 0x20 DUP3 ADD SWAP1 POP SWAP2 SWAP1 POP JUMP JUMPDEST PUSH2 0x1236 DUP2 PUSH2 0x10BF JUMP JUMPDEST DUP3 MSTORE POP POP JUMP JUMPDEST PUSH0 PUSH2 0x1247 DUP4 DUP4 PUSH2 0x122D JUMP JUMPDEST PUSH1 0x20 DUP4 ADD SWAP1 POP SWAP3 SWAP2 POP POP JUMP JUMPDEST PUSH0 PUSH1 0x20 DUP3 ADD SWAP1 POP SWAP2 SWAP1 POP JUMP JUMPDEST PUSH0 PUSH2 0x1269 DUP3 PUSH2 0x1204 JUMP JUMPDEST PUSH2 0x1273 DUP2 DUP6 PUSH2 0x120E JUMP JUMPDEST SWAP4 POP PUSH2 0x127E DUP4 PUSH2 0x121E JUMP JUMPDEST DUP1 PUSH0 JUMPDEST DUP4 DUP2 LT ISZERO PUSH2 0x12AE JUMPI DUP2 MLOAD PUSH2 0x1295 DUP9 DUP3 PUSH2 0x123C JUMP JUMPDEST SWAP8 POP PUSH2 0x12A0 DUP4 PUSH2 0x1253 JUMP JUMPDEST SWAP3 POP POP PUSH1 0x1 DUP2 ADD SWAP1 POP PUSH2 0x1281 JUMP JUMPDEST POP DUP6 SWAP4 POP POP POP POP SWAP3 SWAP2 POP POP JUMP JUMPDEST PUSH0 PUSH1 0x20 DUP3 ADD SWAP1 POP DUP2 DUP2 SUB PUSH0 DUP4 ADD MSTORE PUSH2 0x12D3 DUP2 DUP5 PUSH2 0x125F JUMP JUMPDEST SWAP1 POP SWAP3 SWAP2 POP POP JUMP JUMPDEST PUSH32 0x4E487B7100000000000000000000000000000000000000000000000000000000 PUSH0 MSTORE PUSH1 0x32 PUSH1 0x4 MSTORE PUSH1 0x24 PUSH0 REVERT JUMPDEST PUSH0 DUP2 SWAP1 POP SWAP2 SWAP1 POP JUMP JUMPDEST PUSH32 0x4E487B7100000000000000000000000000000000000000000000000000000000 PUSH0 MSTORE PUSH1 0x11 PUSH1 0x4 MSTORE PUSH1 0x24 PUSH0 REVERT JUMPDEST PUSH0 PUSH2 0x1348 DUP3 PUSH2 0x1308 JUMP JUMPDEST SWAP2 POP PUSH2 0x1353 DUP4 PUSH2 0x1308 JUMP JUMPDEST SWAP3 POP DUP3 DUP3 MUL PUSH2 0x1361 DUP2 PUSH2 0x1308 JUMP JUMPDEST SWAP2 POP DUP3 DUP3 DIV DUP5 EQ DUP4 ISZERO OR PUSH2 0x1378 JUMPI PUSH2 0x1377 PUSH2 0x1311 JUMP JUMPDEST JUMPDEST POP SWAP3 SWAP2 POP POP JUMP JUMPDEST PUSH32 0x4E487B7100000000000000000000000000000000000000000000000000000000 PUSH0 MSTORE PUSH1 0x12 PUSH1 0x4 MSTORE PUSH1 0x24 PUSH0 REVERT JUMPDEST PUSH0 PUSH2 0x13B6 DUP3 PUSH2 0x1308 JUMP JUMPDEST SWAP2 POP PUSH2 0x13C1 DUP4 PUSH2 0x1308 JUMP JUMPDEST SWAP3 POP DUP3 PUSH2 0x13D1 JUMPI PUSH2 0x13D0 PUSH2 0x137F JUMP JUMPDEST JUMPDEST DUP3 DUP3 DIV SWAP1 POP SWAP3 SWAP2 POP POP JUMP JUMPDEST PUSH2 0x13E5 DUP2 PUSH2 0x10BF JUMP JUMPDEST DUP3 MSTORE POP POP JUMP JUMPDEST PUSH0 PUSH1 0x20 DUP3 ADD SWAP1 POP PUSH2 0x13FE PUSH0 DUP4 ADD DUP5 PUSH2 0x13DC JUMP JUMPDEST SWAP3 SWAP2 POP POP JUMP JUMPDEST PUSH0 PUSH2 0x140E DUP3 PUSH2 0x1308 JUMP JUMPDEST SWAP2 POP PUSH32 0xFFFFFFFFFFFFFFFFFFFFFFFFFFFFFFFFFFFFFFFFFFFFFFFFFFFFFFFFFFFFFFFF DUP3 SUB PUSH2 0x1440 JUMPI PUSH2 0x143F PUSH2 0x1311 JUMP JUMPDEST JUMPDEST PUSH1 0x1 DUP3 ADD SWAP1 POP SWAP2 SWAP1 POP JUMP JUMPDEST PUSH0 DUP3 DUP3 MSTORE PUSH1 0x20 DUP3 ADD SWAP1 POP SWAP3 SWAP2 POP POP JUMP JUMPDEST PUSH32 0x616C7265616479206120766F7465720000000000000000000000000000000000 PUSH0 DUP3 ADD MSTORE POP JUMP JUMPDEST PUSH0 PUSH2 0x148F PUSH1 0xF DUP4 PUSH2 0x144B JUMP JUMPDEST SWAP2 POP PUSH2 0x149A DUP3 PUSH2 0x145B JUMP JUMPDEST PUSH1 0x20 DUP3 ADD SWAP1 POP SWAP2 SWAP1 POP JUMP JUMPDEST PUSH0 PUSH1 0x20 DUP3 ADD SWAP1 POP DUP2 DUP2 SUB PUSH0 DUP4 ADD MSTORE PUSH2 0x14BC DUP2 PUSH2 0x1483 JUMP JUMPDEST SWAP1 POP SWAP2 SWAP1 POP JUMP INVALID LOG2 PUSH5 0x6970667358 0x22 SLT KECCAK256 BLOBBASEFEE 0x29 SWAP2 SELFBALANCE SGT EXP DUP11 PUSH9 0x9A0934D4C786E09807 ISZERO JUMPDEST PUSH12 0x3BD79C9647CC9F838049C5F6 PUSH5 0x736F6C6343 STOP ADDMOD BYTE STOP CALLER "
				},
				"gasEstimates": {
					"creation": {
						"codeDepositCost": "1073800",
						"executionCost": "infinite",
						"totalCost": "infinite"
					},
					"external": {
						"acceptCandidation(address)": "infinite",
						"acceptCandidations(address[])": "infinite",
						"addVoter(address)": "infinite",
						"addVoters(address[])": "infinite",
						"candidateMySelf()": "infinite",
						"candidateSomeoneElse(address)": "infinite",
						"closeElection()": "infinite",
						"getAcceptedCandidates()": "infinite",
						"vote(address)": "infinite"
					}
				},
				"methodIdentifiers": {
					"acceptCandidation(address)": "c7ccceeb",
					"acceptCandidations(address[])": "5e8edf11",
					"addVoter(address)": "f4ab9adf",
					"addVoters(address[])": "8203373a",
					"candidateMySelf()": "7c82a849",
					"candidateSomeoneElse(address)": "453ff520",
					"closeElection()": "6c6c32d0",
					"getAcceptedCandidates()": "e277645c",
					"vote(address)": "6dd7d8ea"
				}
			},
			"storageLayout": {
				"storage": [
					{
						"astId": 96,
						"contract": "contracts/exam-2022-09-02/exam-2022-09-02.sol:UnblindElection",
						"label": "voters",
						"offset": 0,
						"slot": "0",
						"type": "t_array(t_address)dyn_storage"
					},
					{
						"astId": 100,
						"contract": "contracts/exam-2022-09-02/exam-2022-09-02.sol:UnblindElection",
						"label": "isVoter",
						"offset": 0,
						"slot": "1",
						"type": "t_mapping(t_address,t_bool)"
					},
					{
						"astId": 103,
						"contract": "contracts/exam-2022-09-02/exam-2022-09-02.sol:UnblindElection",
						"label": "candidates",
						"offset": 0,
						"slot": "2",
						"type": "t_array(t_address)dyn_storage"
					},
					{
						"astId": 107,
						"contract": "contracts/exam-2022-09-02/exam-2022-09-02.sol:UnblindElection",
						"label": "isCandidate",
						"offset": 0,
						"slot": "3",
						"type": "t_mapping(t_address,t_bool)"
					},
					{
						"astId": 110,
						"contract": "contracts/exam-2022-09-02/exam-2022-09-02.sol:UnblindElection",
						"label": "acceptedCandidates",
						"offset": 0,
						"slot": "4",
						"type": "t_array(t_address)dyn_storage"
					},
					{
						"astId": 114,
						"contract": "contracts/exam-2022-09-02/exam-2022-09-02.sol:UnblindElection",
						"label": "isAcceptedCandidate",
						"offset": 0,
						"slot": "5",
						"type": "t_mapping(t_address,t_bool)"
					},
					{
						"astId": 118,
						"contract": "contracts/exam-2022-09-02/exam-2022-09-02.sol:UnblindElection",
						"label": "hasVoted",
						"offset": 0,
						"slot": "6",
						"type": "t_mapping(t_address,t_bool)"
					},
					{
						"astId": 122,
						"contract": "contracts/exam-2022-09-02/exam-2022-09-02.sol:UnblindElection",
						"label": "candidatesVotes",
						"offset": 0,
						"slot": "7",
						"type": "t_mapping(t_address,t_uint256)"
					},
					{
						"astId": 125,
						"contract": "contracts/exam-2022-09-02/exam-2022-09-02.sol:UnblindElection",
						"label": "validVotes",
						"offset": 0,
						"slot": "8",
						"type": "t_uint256"
					}
				],
				"types": {
					"t_address": {
						"encoding": "inplace",
						"label": "address",
						"numberOfBytes": "20"
					},
					"t_array(t_address)dyn_storage": {
						"base": "t_address",
						"encoding": "dynamic_array",
						"label": "address[]",
						"numberOfBytes": "32"
					},
					"t_bool": {
						"encoding": "inplace",
						"label": "bool",
						"numberOfBytes": "1"
					},
					"t_mapping(t_address,t_bool)": {
						"encoding": "mapping",
						"key": "t_address",
						"label": "mapping(address => bool)",
						"numberOfBytes": "32",
						"value": "t_bool"
					},
					"t_mapping(t_address,t_uint256)": {
						"encoding": "mapping",
						"key": "t_address",
						"label": "mapping(address => uint256)",
						"numberOfBytes": "32",
						"value": "t_uint256"
					},
					"t_uint256": {
						"encoding": "inplace",
						"label": "uint256",
						"numberOfBytes": "32"
					}
				}
			},
			"userdoc": {
				"kind": "user",
				"methods": {},
				"version": 1
			}
		}
	}
}