{
	"contracts/exam-2023-06-30/exam-2023-06-30.sol": {
		"BingoGame": {
			"abi": [
				{
					"inputs": [
						{
							"internalType": "uint256",
							"name": "bookingPeriodInHours",
							"type": "uint256"
						},
						{
							"internalType": "uint256",
							"name": "cardUnitCost",
							"type": "uint256"
						}
					],
					"stateMutability": "nonpayable",
					"type": "constructor"
				},
				{
					"inputs": [],
					"name": "BookingPeriodAlreadyExpired",
					"type": "error"
				},
				{
					"inputs": [],
					"name": "EnquirerIsNotAGamer",
					"type": "error"
				},
				{
					"inputs": [
						{
							"internalType": "uint256",
							"name": "secondsToGo",
							"type": "uint256"
						}
					],
					"name": "ExtractionPhaseNotYetStarted",
					"type": "error"
				},
				{
					"inputs": [],
					"name": "GameAlreadyEnded",
					"type": "error"
				},
				{
					"inputs": [
						{
							"internalType": "uint256",
							"name": "providedFunds",
							"type": "uint256"
						},
						{
							"internalType": "uint256",
							"name": "cardCost",
							"type": "uint256"
						}
					],
					"name": "InsufficientFundsToBuyEvenACard",
					"type": "error"
				},
				{
					"anonymous": false,
					"inputs": [
						{
							"indexed": false,
							"internalType": "uint256",
							"name": "prizeAmount",
							"type": "uint256"
						},
						{
							"indexed": false,
							"internalType": "uint256",
							"name": "numberOfWinners",
							"type": "uint256"
						}
					],
					"name": "BingoHasBeenWon",
					"type": "event"
				},
				{
					"anonymous": false,
					"inputs": [
						{
							"indexed": false,
							"internalType": "uint256",
							"name": "prizeAmount",
							"type": "uint256"
						},
						{
							"indexed": false,
							"internalType": "uint256",
							"name": "numberOfWinners",
							"type": "uint256"
						}
					],
					"name": "FiveInARowHasBeenWon",
					"type": "event"
				},
				{
					"anonymous": false,
					"inputs": [
						{
							"indexed": false,
							"internalType": "uint8",
							"name": "number",
							"type": "uint8"
						},
						{
							"indexed": false,
							"internalType": "uint256",
							"name": "matchingCards",
							"type": "uint256"
						}
					],
					"name": "NumberExtraction",
					"type": "event"
				},
				{
					"anonymous": false,
					"inputs": [
						{
							"indexed": false,
							"internalType": "uint256",
							"name": "prizeAmount",
							"type": "uint256"
						},
						{
							"indexed": false,
							"internalType": "address",
							"name": "winner",
							"type": "address"
						}
					],
					"name": "PrizePayed",
					"type": "event"
				},
				{
					"anonymous": false,
					"inputs": [
						{
							"indexed": false,
							"internalType": "address",
							"name": "buyer",
							"type": "address"
						},
						{
							"indexed": false,
							"internalType": "uint256",
							"name": "numberOfCards",
							"type": "uint256"
						}
					],
					"name": "PurchaseOfCards",
					"type": "event"
				},
				{
					"inputs": [],
					"name": "buyCards",
					"outputs": [],
					"stateMutability": "payable",
					"type": "function"
				},
				{
					"inputs": [],
					"name": "extractNextNumber",
					"outputs": [
						{
							"internalType": "uint8",
							"name": "number",
							"type": "uint8"
						}
					],
					"stateMutability": "nonpayable",
					"type": "function"
				},
				{
					"inputs": [],
					"name": "getCardCost",
					"outputs": [
						{
							"internalType": "uint256",
							"name": "cost",
							"type": "uint256"
						}
					],
					"stateMutability": "view",
					"type": "function"
				},
				{
					"inputs": [],
					"name": "getGameState",
					"outputs": [
						{
							"internalType": "enum BingoGameSpecs.GameState",
							"name": "state",
							"type": "uint8"
						}
					],
					"stateMutability": "view",
					"type": "function"
				},
				{
					"inputs": [],
					"name": "getMyCards",
					"outputs": [
						{
							"components": [
								{
									"internalType": "uint8[5][3]",
									"name": "cells",
									"type": "uint8[5][3]"
								}
							],
							"internalType": "struct BingoGameSpecs.Card[]",
							"name": "myCards",
							"type": "tuple[]"
						}
					],
					"stateMutability": "view",
					"type": "function"
				},
				{
					"inputs": [],
					"name": "getNumberOfCards",
					"outputs": [
						{
							"internalType": "uint256",
							"name": "cardsNumber",
							"type": "uint256"
						}
					],
					"stateMutability": "view",
					"type": "function"
				},
				{
					"inputs": [],
					"name": "getNumberOfPlayers",
					"outputs": [
						{
							"internalType": "uint256",
							"name": "playersNumber",
							"type": "uint256"
						}
					],
					"stateMutability": "view",
					"type": "function"
				},
				{
					"inputs": [
						{
							"internalType": "uint8",
							"name": "number",
							"type": "uint8"
						}
					],
					"name": "isItExtracted",
					"outputs": [
						{
							"internalType": "bool",
							"name": "",
							"type": "bool"
						}
					],
					"stateMutability": "view",
					"type": "function"
				}
			],
			"devdoc": {
				"kind": "dev",
				"methods": {},
				"version": 1
			},
			"evm": {
				"assembly": "    /* \"contracts/exam-2023-06-30/exam-2023-06-30.sol\":98:6093  contract BingoGame is BingoGameSpecs {... */\n  mstore(0x40, 0xc0)\n    /* \"contracts/exam-2023-06-30/exam-2023-06-30.sol\":330:331  0 */\n  0x00\n    /* \"contracts/exam-2023-06-30/exam-2023-06-30.sol\":307:331  uint numberOfPlayers = 0 */\n  0x03\n  sstore\n    /* \"contracts/exam-2023-06-30/exam-2023-06-30.sol\":358:359  0 */\n  0x00\n    /* \"contracts/exam-2023-06-30/exam-2023-06-30.sol\":337:359  uint numberOfCards = 0 */\n  0x04\n  sstore\n    /* \"contracts/exam-2023-06-30/exam-2023-06-30.sol\":425:430  false */\n  0x00\n    /* \"contracts/exam-2023-06-30/exam-2023-06-30.sol\":404:430  bool fiveInARowWon = false */\n  0x06\n  exp(0x0100, 0x00)\n  dup2\n  sload\n  dup2\n  0xff\n  mul\n  not\n  and\n  swap1\n  dup4\n  iszero\n  iszero\n  mul\n  or\n  swap1\n  sstore\n  pop\n    /* \"contracts/exam-2023-06-30/exam-2023-06-30.sol\":485:490  false */\n  0x00\n    /* \"contracts/exam-2023-06-30/exam-2023-06-30.sol\":469:490  bool bingoWon = false */\n  0x08\n  exp(0x0100, 0x00)\n  dup2\n  sload\n  dup2\n  0xff\n  mul\n  not\n  and\n  swap1\n  dup4\n  iszero\n  iszero\n  mul\n  or\n  swap1\n  sstore\n  pop\n    /* \"contracts/exam-2023-06-30/exam-2023-06-30.sol\":525:754  constructor(uint256 bookingPeriodInHours, uint256 cardUnitCost) {... */\n  callvalue\n  dup1\n  iszero\n  tag_1\n  jumpi\n  0x00\n  dup1\n  revert\ntag_1:\n  pop\n  mload(0x40)\n  sub(codesize, bytecodeSize)\n  dup1\n  bytecodeSize\n  dup4\n  codecopy\n  dup2\n  dup2\n  add\n  0x40\n  mstore\n  dup2\n  add\n  swap1\n  tag_2\n  swap2\n  swap1\n  tag_3\n  jump\t// in\ntag_2:\n    /* \"contracts/exam-2023-06-30/exam-2023-06-30.sol\":611:628  GameState.Booking */\n  0x00\n    /* \"contracts/exam-2023-06-30/exam-2023-06-30.sol\":599:608  gameState */\n  dup1\n  0x00\n    /* \"contracts/exam-2023-06-30/exam-2023-06-30.sol\":599:628  gameState = GameState.Booking */\n  0x0100\n  exp\n  dup2\n  sload\n  dup2\n  0xff\n  mul\n  not\n  and\n  swap1\n  dup4\n  0x02\n  dup2\n  gt\n  iszero\n  tag_6\n  jumpi\n  tag_7\n  tag_8\n  jump\t// in\ntag_7:\ntag_6:\n  mul\n  or\n  swap1\n  sstore\n  pop\n    /* \"contracts/exam-2023-06-30/exam-2023-06-30.sol\":649:661  cardUnitCost */\n  dup1\n    /* \"contracts/exam-2023-06-30/exam-2023-06-30.sol\":638:661  cardCost = cardUnitCost */\n  0x80\n  dup2\n  dup2\n  mstore\n  pop\n  pop\n    /* \"contracts/exam-2023-06-30/exam-2023-06-30.sol\":744:746  60 */\n  0x3c\n    /* \"contracts/exam-2023-06-30/exam-2023-06-30.sol\":739:741  60 */\n  dup1\n    /* \"contracts/exam-2023-06-30/exam-2023-06-30.sol\":716:736  bookingPeriodInHours */\n  dup4\n    /* \"contracts/exam-2023-06-30/exam-2023-06-30.sol\":716:741  bookingPeriodInHours * 60 */\n  tag_9\n  swap2\n  swap1\n  tag_10\n  jump\t// in\ntag_9:\n    /* \"contracts/exam-2023-06-30/exam-2023-06-30.sol\":716:746  bookingPeriodInHours * 60 * 60 */\n  tag_11\n  swap2\n  swap1\n  tag_10\n  jump\t// in\ntag_11:\n    /* \"contracts/exam-2023-06-30/exam-2023-06-30.sol\":697:712  block.timestamp */\n  timestamp\n    /* \"contracts/exam-2023-06-30/exam-2023-06-30.sol\":697:747  block.timestamp + (bookingPeriodInHours * 60 * 60) */\n  tag_12\n  swap2\n  swap1\n  tag_13\n  jump\t// in\ntag_12:\n    /* \"contracts/exam-2023-06-30/exam-2023-06-30.sol\":671:747  bookingPeriodExpiration = block.timestamp + (bookingPeriodInHours * 60 * 60) */\n  0xa0\n  dup2\n  dup2\n  mstore\n  pop\n  pop\n    /* \"contracts/exam-2023-06-30/exam-2023-06-30.sol\":525:754  constructor(uint256 bookingPeriodInHours, uint256 cardUnitCost) {... */\n  pop\n  pop\n    /* \"contracts/exam-2023-06-30/exam-2023-06-30.sol\":98:6093  contract BingoGame is BingoGameSpecs {... */\n  jump(tag_14)\n    /* \"#utility.yul\":88:205   */\ntag_16:\n    /* \"#utility.yul\":197:198   */\n  0x00\n    /* \"#utility.yul\":194:195   */\n  dup1\n    /* \"#utility.yul\":187:199   */\n  revert\n    /* \"#utility.yul\":334:411   */\ntag_18:\n    /* \"#utility.yul\":371:378   */\n  0x00\n    /* \"#utility.yul\":400:405   */\n  dup2\n    /* \"#utility.yul\":389:405   */\n  swap1\n  pop\n    /* \"#utility.yul\":334:411   */\n  swap2\n  swap1\n  pop\n  jump\t// out\n    /* \"#utility.yul\":417:539   */\ntag_19:\n    /* \"#utility.yul\":490:514   */\n  tag_28\n    /* \"#utility.yul\":508:513   */\n  dup2\n    /* \"#utility.yul\":490:514   */\n  tag_18\n  jump\t// in\ntag_28:\n    /* \"#utility.yul\":483:488   */\n  dup2\n    /* \"#utility.yul\":480:515   */\n  eq\n    /* \"#utility.yul\":470:533   */\n  tag_29\n  jumpi\n    /* \"#utility.yul\":529:530   */\n  0x00\n    /* \"#utility.yul\":526:527   */\n  dup1\n    /* \"#utility.yul\":519:531   */\n  revert\n    /* \"#utility.yul\":470:533   */\ntag_29:\n    /* \"#utility.yul\":417:539   */\n  pop\n  jump\t// out\n    /* \"#utility.yul\":545:688   */\ntag_20:\n    /* \"#utility.yul\":602:607   */\n  0x00\n    /* \"#utility.yul\":633:639   */\n  dup2\n    /* \"#utility.yul\":627:640   */\n  mload\n    /* \"#utility.yul\":618:640   */\n  swap1\n  pop\n    /* \"#utility.yul\":649:682   */\n  tag_31\n    /* \"#utility.yul\":676:681   */\n  dup2\n    /* \"#utility.yul\":649:682   */\n  tag_19\n  jump\t// in\ntag_31:\n    /* \"#utility.yul\":545:688   */\n  swap3\n  swap2\n  pop\n  pop\n  jump\t// out\n    /* \"#utility.yul\":694:1201   */\ntag_3:\n    /* \"#utility.yul\":773:779   */\n  0x00\n    /* \"#utility.yul\":781:787   */\n  dup1\n    /* \"#utility.yul\":830:832   */\n  0x40\n    /* \"#utility.yul\":818:827   */\n  dup4\n    /* \"#utility.yul\":809:816   */\n  dup6\n    /* \"#utility.yul\":805:828   */\n  sub\n    /* \"#utility.yul\":801:833   */\n  slt\n    /* \"#utility.yul\":798:917   */\n  iszero\n  tag_33\n  jumpi\n    /* \"#utility.yul\":836:915   */\n  tag_34\n  tag_16\n  jump\t// in\ntag_34:\n    /* \"#utility.yul\":798:917   */\ntag_33:\n    /* \"#utility.yul\":956:957   */\n  0x00\n    /* \"#utility.yul\":981:1045   */\n  tag_35\n    /* \"#utility.yul\":1037:1044   */\n  dup6\n    /* \"#utility.yul\":1028:1034   */\n  dup3\n    /* \"#utility.yul\":1017:1026   */\n  dup7\n    /* \"#utility.yul\":1013:1035   */\n  add\n    /* \"#utility.yul\":981:1045   */\n  tag_20\n  jump\t// in\ntag_35:\n    /* \"#utility.yul\":971:1045   */\n  swap3\n  pop\n    /* \"#utility.yul\":927:1055   */\n  pop\n    /* \"#utility.yul\":1094:1096   */\n  0x20\n    /* \"#utility.yul\":1120:1184   */\n  tag_36\n    /* \"#utility.yul\":1176:1183   */\n  dup6\n    /* \"#utility.yul\":1167:1173   */\n  dup3\n    /* \"#utility.yul\":1156:1165   */\n  dup7\n    /* \"#utility.yul\":1152:1174   */\n  add\n    /* \"#utility.yul\":1120:1184   */\n  tag_20\n  jump\t// in\ntag_36:\n    /* \"#utility.yul\":1110:1184   */\n  swap2\n  pop\n    /* \"#utility.yul\":1065:1194   */\n  pop\n    /* \"#utility.yul\":694:1201   */\n  swap3\n  pop\n  swap3\n  swap1\n  pop\n  jump\t// out\n    /* \"#utility.yul\":1207:1387   */\ntag_8:\n    /* \"#utility.yul\":1255:1332   */\n  0x4e487b7100000000000000000000000000000000000000000000000000000000\n    /* \"#utility.yul\":1252:1253   */\n  0x00\n    /* \"#utility.yul\":1245:1333   */\n  mstore\n    /* \"#utility.yul\":1352:1356   */\n  0x21\n    /* \"#utility.yul\":1349:1350   */\n  0x04\n    /* \"#utility.yul\":1342:1357   */\n  mstore\n    /* \"#utility.yul\":1376:1380   */\n  0x24\n    /* \"#utility.yul\":1373:1374   */\n  0x00\n    /* \"#utility.yul\":1366:1381   */\n  revert\n    /* \"#utility.yul\":1393:1573   */\ntag_21:\n    /* \"#utility.yul\":1441:1518   */\n  0x4e487b7100000000000000000000000000000000000000000000000000000000\n    /* \"#utility.yul\":1438:1439   */\n  0x00\n    /* \"#utility.yul\":1431:1519   */\n  mstore\n    /* \"#utility.yul\":1538:1542   */\n  0x11\n    /* \"#utility.yul\":1535:1536   */\n  0x04\n    /* \"#utility.yul\":1528:1543   */\n  mstore\n    /* \"#utility.yul\":1562:1566   */\n  0x24\n    /* \"#utility.yul\":1559:1560   */\n  0x00\n    /* \"#utility.yul\":1552:1567   */\n  revert\n    /* \"#utility.yul\":1579:1989   */\ntag_10:\n    /* \"#utility.yul\":1619:1626   */\n  0x00\n    /* \"#utility.yul\":1642:1662   */\n  tag_40\n    /* \"#utility.yul\":1660:1661   */\n  dup3\n    /* \"#utility.yul\":1642:1662   */\n  tag_18\n  jump\t// in\ntag_40:\n    /* \"#utility.yul\":1637:1662   */\n  swap2\n  pop\n    /* \"#utility.yul\":1676:1696   */\n  tag_41\n    /* \"#utility.yul\":1694:1695   */\n  dup4\n    /* \"#utility.yul\":1676:1696   */\n  tag_18\n  jump\t// in\ntag_41:\n    /* \"#utility.yul\":1671:1696   */\n  swap3\n  pop\n    /* \"#utility.yul\":1731:1732   */\n  dup3\n    /* \"#utility.yul\":1728:1729   */\n  dup3\n    /* \"#utility.yul\":1724:1733   */\n  mul\n    /* \"#utility.yul\":1753:1783   */\n  tag_42\n    /* \"#utility.yul\":1771:1782   */\n  dup2\n    /* \"#utility.yul\":1753:1783   */\n  tag_18\n  jump\t// in\ntag_42:\n    /* \"#utility.yul\":1742:1783   */\n  swap2\n  pop\n    /* \"#utility.yul\":1932:1933   */\n  dup3\n    /* \"#utility.yul\":1923:1930   */\n  dup3\n    /* \"#utility.yul\":1919:1934   */\n  div\n    /* \"#utility.yul\":1916:1917   */\n  dup5\n    /* \"#utility.yul\":1913:1935   */\n  eq\n    /* \"#utility.yul\":1893:1894   */\n  dup4\n    /* \"#utility.yul\":1886:1895   */\n  iszero\n    /* \"#utility.yul\":1866:1949   */\n  or\n    /* \"#utility.yul\":1843:1982   */\n  tag_43\n  jumpi\n    /* \"#utility.yul\":1962:1980   */\n  tag_44\n  tag_21\n  jump\t// in\ntag_44:\n    /* \"#utility.yul\":1843:1982   */\ntag_43:\n    /* \"#utility.yul\":1627:1989   */\n  pop\n    /* \"#utility.yul\":1579:1989   */\n  swap3\n  swap2\n  pop\n  pop\n  jump\t// out\n    /* \"#utility.yul\":1995:2186   */\ntag_13:\n    /* \"#utility.yul\":2035:2038   */\n  0x00\n    /* \"#utility.yul\":2054:2074   */\n  tag_46\n    /* \"#utility.yul\":2072:2073   */\n  dup3\n    /* \"#utility.yul\":2054:2074   */\n  tag_18\n  jump\t// in\ntag_46:\n    /* \"#utility.yul\":2049:2074   */\n  swap2\n  pop\n    /* \"#utility.yul\":2088:2108   */\n  tag_47\n    /* \"#utility.yul\":2106:2107   */\n  dup4\n    /* \"#utility.yul\":2088:2108   */\n  tag_18\n  jump\t// in\ntag_47:\n    /* \"#utility.yul\":2083:2108   */\n  swap3\n  pop\n    /* \"#utility.yul\":2131:2132   */\n  dup3\n    /* \"#utility.yul\":2128:2129   */\n  dup3\n    /* \"#utility.yul\":2124:2133   */\n  add\n    /* \"#utility.yul\":2117:2133   */\n  swap1\n  pop\n    /* \"#utility.yul\":2152:2155   */\n  dup1\n    /* \"#utility.yul\":2149:2150   */\n  dup3\n    /* \"#utility.yul\":2146:2156   */\n  gt\n    /* \"#utility.yul\":2143:2179   */\n  iszero\n  tag_48\n  jumpi\n    /* \"#utility.yul\":2159:2177   */\n  tag_49\n  tag_21\n  jump\t// in\ntag_49:\n    /* \"#utility.yul\":2143:2179   */\ntag_48:\n    /* \"#utility.yul\":1995:2186   */\n  swap3\n  swap2\n  pop\n  pop\n  jump\t// out\n    /* \"contracts/exam-2023-06-30/exam-2023-06-30.sol\":98:6093  contract BingoGame is BingoGameSpecs {... */\ntag_14:\n  mload(0x80)\n  mload(0xa0)\n  codecopy(0x00, dataOffset(sub_0), dataSize(sub_0))\n  0x00\n  assignImmutable(\"0x64e604787cbf194841e7b68d7cd28786f6c9a0a3ab9f8b0a0e87cb4387ab0107\")\n  0x00\n  assignImmutable(\"0xb9aa4ff60d3edb7fbc3b53bd780c9274ed80a5ba1a237d38b011edab2b031b4a\")\n  return(0x00, dataSize(sub_0))\nstop\n\nsub_0: assembly {\n        /* \"contracts/exam-2023-06-30/exam-2023-06-30.sol\":98:6093  contract BingoGame is BingoGameSpecs {... */\n      mstore(0x40, 0x80)\n      jumpi(tag_1, lt(calldatasize, 0x04))\n      shr(0xe0, calldataload(0x00))\n      dup1\n      0xc487282c\n      gt\n      tag_10\n      jumpi\n      dup1\n      0xc487282c\n      eq\n      tag_6\n      jumpi\n      dup1\n      0xd66a0ffc\n      eq\n      tag_7\n      jumpi\n      dup1\n      0xed92c4bb\n      eq\n      tag_8\n      jumpi\n      dup1\n      0xfd6673f5\n      eq\n      tag_9\n      jumpi\n      jump(tag_1)\n    tag_10:\n      dup1\n      0x10978262\n      eq\n      tag_2\n      jumpi\n      dup1\n      0x21870eec\n      eq\n      tag_3\n      jumpi\n      dup1\n      0x873b604e\n      eq\n      tag_4\n      jumpi\n      dup1\n      0xb7d0628b\n      eq\n      tag_5\n      jumpi\n    tag_1:\n      0x00\n      dup1\n      revert\n        /* \"contracts/exam-2023-06-30/exam-2023-06-30.sol\":2380:5182  function extractNextNumber() external onlyActiveGame returns (uint8 number) {... */\n    tag_2:\n      callvalue\n      dup1\n      iszero\n      tag_11\n      jumpi\n      0x00\n      dup1\n      revert\n    tag_11:\n      pop\n      tag_12\n      tag_13\n      jump\t// in\n    tag_12:\n      mload(0x40)\n      tag_14\n      swap2\n      swap1\n      tag_15\n      jump\t// in\n    tag_14:\n      mload(0x40)\n      dup1\n      swap2\n      sub\n      swap1\n      return\n        /* \"contracts/exam-2023-06-30/exam-2023-06-30.sol\":900:2374  function buyCards() external payable onlyActiveGame {... */\n    tag_3:\n      tag_16\n      tag_17\n      jump\t// in\n    tag_16:\n      stop\n        /* \"contracts/exam-2023-06-30/exam-2023-06-30.sol\":5836:6090  function isItExtracted(uint8 number) external view returns (bool) {... */\n    tag_4:\n      callvalue\n      dup1\n      iszero\n      tag_18\n      jumpi\n      0x00\n      dup1\n      revert\n    tag_18:\n      pop\n      tag_19\n      0x04\n      dup1\n      calldatasize\n      sub\n      dup2\n      add\n      swap1\n      tag_20\n      swap2\n      swap1\n      tag_21\n      jump\t// in\n    tag_20:\n      tag_22\n      jump\t// in\n    tag_19:\n      mload(0x40)\n      tag_23\n      swap2\n      swap1\n      tag_24\n      jump\t// in\n    tag_23:\n      mload(0x40)\n      dup1\n      swap2\n      sub\n      swap1\n      return\n        /* \"contracts/exam-2023-06-30/exam-2023-06-30.sol\":5286:5383  function getGameState() external view returns (GameState state) {... */\n    tag_5:\n      callvalue\n      dup1\n      iszero\n      tag_25\n      jumpi\n      0x00\n      dup1\n      revert\n    tag_25:\n      pop\n      tag_26\n      tag_27\n      jump\t// in\n    tag_26:\n      mload(0x40)\n      tag_28\n      swap2\n      swap1\n      tag_29\n      jump\t// in\n    tag_28:\n      mload(0x40)\n      dup1\n      swap2\n      sub\n      swap1\n      return\n        /* \"contracts/exam-2023-06-30/exam-2023-06-30.sol\":5510:5619  function getNumberOfCards() external view returns (uint256 cardsNumber) {... */\n    tag_6:\n      callvalue\n      dup1\n      iszero\n      tag_30\n      jumpi\n      0x00\n      dup1\n      revert\n    tag_30:\n      pop\n      tag_31\n      tag_32\n      jump\t// in\n    tag_31:\n      mload(0x40)\n      tag_33\n      swap2\n      swap1\n      tag_34\n      jump\t// in\n    tag_33:\n      mload(0x40)\n      dup1\n      swap2\n      sub\n      swap1\n      return\n        /* \"contracts/exam-2023-06-30/exam-2023-06-30.sol\":5188:5280  function getCardCost() external view returns (uint256 cost) {... */\n    tag_7:\n      callvalue\n      dup1\n      iszero\n      tag_35\n      jumpi\n      0x00\n      dup1\n      revert\n    tag_35:\n      pop\n      tag_36\n      tag_37\n      jump\t// in\n    tag_36:\n      mload(0x40)\n      tag_38\n      swap2\n      swap1\n      tag_34\n      jump\t// in\n    tag_38:\n      mload(0x40)\n      dup1\n      swap2\n      sub\n      swap1\n      return\n        /* \"contracts/exam-2023-06-30/exam-2023-06-30.sol\":5625:5830  function getMyCards() external view returns (Card[] memory myCards) {... */\n    tag_8:\n      callvalue\n      dup1\n      iszero\n      tag_39\n      jumpi\n      0x00\n      dup1\n      revert\n    tag_39:\n      pop\n      tag_40\n      tag_41\n      jump\t// in\n    tag_40:\n      mload(0x40)\n      tag_42\n      swap2\n      swap1\n      tag_43\n      jump\t// in\n    tag_42:\n      mload(0x40)\n      dup1\n      swap2\n      sub\n      swap1\n      return\n        /* \"contracts/exam-2023-06-30/exam-2023-06-30.sol\":5389:5504  function getNumberOfPlayers() external view returns (uint256 playersNumber) {... */\n    tag_9:\n      callvalue\n      dup1\n      iszero\n      tag_44\n      jumpi\n      0x00\n      dup1\n      revert\n    tag_44:\n      pop\n      tag_45\n      tag_46\n      jump\t// in\n    tag_45:\n      mload(0x40)\n      tag_47\n      swap2\n      swap1\n      tag_34\n      jump\t// in\n    tag_47:\n      mload(0x40)\n      dup1\n      swap2\n      sub\n      swap1\n      return\n        /* \"contracts/exam-2023-06-30/exam-2023-06-30.sol\":2380:5182  function extractNextNumber() external onlyActiveGame returns (uint8 number) {... */\n    tag_13:\n        /* \"contracts/exam-2023-06-30/exam-2023-06-30.sol\":2442:2454  uint8 number */\n      0x00\n        /* \"contracts/exam-2023-06-30/exam-2023-06-30.sol\":810:825  GameState.Ended */\n      0x02\n        /* \"contracts/exam-2023-06-30/exam-2023-06-30.sol\":797:825  gameState == GameState.Ended */\n      dup1\n      dup2\n      gt\n      iszero\n      tag_49\n      jumpi\n      tag_50\n      tag_51\n      jump\t// in\n    tag_50:\n    tag_49:\n        /* \"contracts/exam-2023-06-30/exam-2023-06-30.sol\":797:806  gameState */\n      0x00\n      dup1\n      sload\n      swap1\n      0x0100\n      exp\n      swap1\n      div\n      0xff\n      and\n        /* \"contracts/exam-2023-06-30/exam-2023-06-30.sol\":797:825  gameState == GameState.Ended */\n      0x02\n      dup2\n      gt\n      iszero\n      tag_52\n      jumpi\n      tag_53\n      tag_51\n      jump\t// in\n    tag_53:\n    tag_52:\n      sub\n        /* \"contracts/exam-2023-06-30/exam-2023-06-30.sol\":794:877  if(gameState == GameState.Ended) {... */\n      tag_54\n      jumpi\n        /* \"contracts/exam-2023-06-30/exam-2023-06-30.sol\":848:866  GameAlreadyEnded() */\n      mload(0x40)\n      0x919142bc00000000000000000000000000000000000000000000000000000000\n      dup2\n      mstore\n      0x04\n      add\n      mload(0x40)\n      dup1\n      swap2\n      sub\n      swap1\n      revert\n        /* \"contracts/exam-2023-06-30/exam-2023-06-30.sol\":794:877  if(gameState == GameState.Ended) {... */\n    tag_54:\n        /* \"contracts/exam-2023-06-30/exam-2023-06-30.sol\":2487:2507  GameState.Extraction */\n      0x01\n        /* \"contracts/exam-2023-06-30/exam-2023-06-30.sol\":2474:2507  gameState == GameState.Extraction */\n      0x02\n      dup2\n      gt\n      iszero\n      tag_56\n      jumpi\n      tag_57\n      tag_51\n      jump\t// in\n    tag_57:\n    tag_56:\n        /* \"contracts/exam-2023-06-30/exam-2023-06-30.sol\":2474:2483  gameState */\n      0x00\n      dup1\n      sload\n      swap1\n      0x0100\n      exp\n      swap1\n      div\n      0xff\n      and\n        /* \"contracts/exam-2023-06-30/exam-2023-06-30.sol\":2474:2507  gameState == GameState.Extraction */\n      0x02\n      dup2\n      gt\n      iszero\n      tag_58\n      jumpi\n      tag_59\n      tag_51\n      jump\t// in\n    tag_59:\n    tag_58:\n      eq\n        /* \"contracts/exam-2023-06-30/exam-2023-06-30.sol\":2466:2532  require(gameState == GameState.Extraction, \"Not extraction phase\") */\n      tag_60\n      jumpi\n      mload(0x40)\n      0x08c379a000000000000000000000000000000000000000000000000000000000\n      dup2\n      mstore\n      0x04\n      add\n      tag_61\n      swap1\n      tag_62\n      jump\t// in\n    tag_61:\n      mload(0x40)\n      dup1\n      swap2\n      sub\n      swap1\n      revert\n    tag_60:\n        /* \"contracts/exam-2023-06-30/exam-2023-06-30.sol\":2542:2555  bool isUnique */\n      0x00\n        /* \"contracts/exam-2023-06-30/exam-2023-06-30.sol\":2558:2562  true */\n      0x01\n        /* \"contracts/exam-2023-06-30/exam-2023-06-30.sol\":2542:2562  bool isUnique = true */\n      swap1\n      pop\n        /* \"contracts/exam-2023-06-30/exam-2023-06-30.sol\":2572:2578  uint i */\n      0x00\n        /* \"contracts/exam-2023-06-30/exam-2023-06-30.sol\":2592:2899  do {... */\n    tag_63:\n        /* \"contracts/exam-2023-06-30/exam-2023-06-30.sol\":2703:2705  75 */\n      0x4b\n        /* \"contracts/exam-2023-06-30/exam-2023-06-30.sol\":2659:2674  block.timestamp */\n      timestamp\n        /* \"contracts/exam-2023-06-30/exam-2023-06-30.sol\":2676:2692  block.difficulty */\n      prevrandao\n        /* \"contracts/exam-2023-06-30/exam-2023-06-30.sol\":2694:2697  i++ */\n      dup4\n      dup1\n      tag_66\n      swap1\n      tag_67\n      jump\t// in\n    tag_66:\n      swap5\n      pop\n        /* \"contracts/exam-2023-06-30/exam-2023-06-30.sol\":2642:2698  abi.encodePacked(block.timestamp, block.difficulty, i++) */\n      add(0x20, mload(0x40))\n      tag_68\n      swap4\n      swap3\n      swap2\n      swap1\n      tag_69\n      jump\t// in\n    tag_68:\n      mload(0x40)\n      0x20\n      dup2\n      dup4\n      sub\n      sub\n      dup2\n      mstore\n      swap1\n      0x40\n      mstore\n        /* \"contracts/exam-2023-06-30/exam-2023-06-30.sol\":2632:2699  keccak256(abi.encodePacked(block.timestamp, block.difficulty, i++)) */\n      dup1\n      mload\n      swap1\n      0x20\n      add\n      keccak256\n        /* \"contracts/exam-2023-06-30/exam-2023-06-30.sol\":2624:2700  uint256(keccak256(abi.encodePacked(block.timestamp, block.difficulty, i++))) */\n      0x00\n      shr\n        /* \"contracts/exam-2023-06-30/exam-2023-06-30.sol\":2624:2705  uint256(keccak256(abi.encodePacked(block.timestamp, block.difficulty, i++))) % 75 */\n      tag_70\n      swap2\n      swap1\n      tag_71\n      jump\t// in\n    tag_70:\n        /* \"contracts/exam-2023-06-30/exam-2023-06-30.sol\":2609:2706  number = uint8(uint256(keccak256(abi.encodePacked(block.timestamp, block.difficulty, i++))) % 75) */\n      swap3\n      pop\n        /* \"contracts/exam-2023-06-30/exam-2023-06-30.sol\":2724:2730  uint k */\n      0x00\n        /* \"contracts/exam-2023-06-30/exam-2023-06-30.sol\":2720:2855  for(uint k=0; k<i; k++) {... */\n    tag_72:\n        /* \"contracts/exam-2023-06-30/exam-2023-06-30.sol\":2736:2737  i */\n      dup2\n        /* \"contracts/exam-2023-06-30/exam-2023-06-30.sol\":2734:2735  k */\n      dup2\n        /* \"contracts/exam-2023-06-30/exam-2023-06-30.sol\":2734:2737  k<i */\n      lt\n        /* \"contracts/exam-2023-06-30/exam-2023-06-30.sol\":2720:2855  for(uint k=0; k<i; k++) {... */\n      iszero\n      tag_73\n      jumpi\n        /* \"contracts/exam-2023-06-30/exam-2023-06-30.sol\":2765:2774  extracted */\n      0x05\n        /* \"contracts/exam-2023-06-30/exam-2023-06-30.sol\":2765:2782  extracted[number] */\n      0x00\n        /* \"contracts/exam-2023-06-30/exam-2023-06-30.sol\":2775:2781  number */\n      dup6\n        /* \"contracts/exam-2023-06-30/exam-2023-06-30.sol\":2765:2782  extracted[number] */\n      0xff\n      and\n      0xff\n      and\n      dup2\n      mstore\n      0x20\n      add\n      swap1\n      dup2\n      mstore\n      0x20\n      add\n      0x00\n      keccak256\n      0x00\n      swap1\n      sload\n      swap1\n      0x0100\n      exp\n      swap1\n      div\n      0xff\n      and\n        /* \"contracts/exam-2023-06-30/exam-2023-06-30.sol\":2762:2841  if(extracted[number]) {... */\n      iszero\n      tag_75\n      jumpi\n        /* \"contracts/exam-2023-06-30/exam-2023-06-30.sol\":2817:2822  false */\n      0x00\n        /* \"contracts/exam-2023-06-30/exam-2023-06-30.sol\":2806:2822  isUnique = false */\n      swap3\n      pop\n        /* \"contracts/exam-2023-06-30/exam-2023-06-30.sol\":2762:2841  if(extracted[number]) {... */\n    tag_75:\n        /* \"contracts/exam-2023-06-30/exam-2023-06-30.sol\":2739:2742  k++ */\n      dup1\n      dup1\n      0x01\n      add\n      swap2\n      pop\n      pop\n        /* \"contracts/exam-2023-06-30/exam-2023-06-30.sol\":2720:2855  for(uint k=0; k<i; k++) {... */\n      jump(tag_72)\n    tag_73:\n      pop\n        /* \"contracts/exam-2023-06-30/exam-2023-06-30.sol\":2889:2897  isUnique */\n      dup2\n        /* \"contracts/exam-2023-06-30/exam-2023-06-30.sol\":2888:2897  !isUnique */\n      iszero\n        /* \"contracts/exam-2023-06-30/exam-2023-06-30.sol\":2592:2899  do {... */\n      tag_63\n      jumpi\n        /* \"contracts/exam-2023-06-30/exam-2023-06-30.sol\":2928:2932  true */\n      0x01\n        /* \"contracts/exam-2023-06-30/exam-2023-06-30.sol\":2908:2917  extracted */\n      0x05\n        /* \"contracts/exam-2023-06-30/exam-2023-06-30.sol\":2908:2925  extracted[number] */\n      0x00\n        /* \"contracts/exam-2023-06-30/exam-2023-06-30.sol\":2918:2924  number */\n      dup6\n        /* \"contracts/exam-2023-06-30/exam-2023-06-30.sol\":2908:2925  extracted[number] */\n      0xff\n      and\n      0xff\n      and\n      dup2\n      mstore\n      0x20\n      add\n      swap1\n      dup2\n      mstore\n      0x20\n      add\n      0x00\n      keccak256\n      0x00\n        /* \"contracts/exam-2023-06-30/exam-2023-06-30.sol\":2908:2932  extracted[number] = true */\n      0x0100\n      exp\n      dup2\n      sload\n      dup2\n      0xff\n      mul\n      not\n      and\n      swap1\n      dup4\n      iszero\n      iszero\n      mul\n      or\n      swap1\n      sstore\n      pop\n        /* \"contracts/exam-2023-06-30/exam-2023-06-30.sol\":2943:2961  uint matchingCards */\n      0x00\n        /* \"contracts/exam-2023-06-30/exam-2023-06-30.sol\":2985:2986  0 */\n      dup1\n        /* \"contracts/exam-2023-06-30/exam-2023-06-30.sol\":2981:2986  i = 0 */\n      swap2\n      pop\n        /* \"contracts/exam-2023-06-30/exam-2023-06-30.sol\":2976:4072  for (i = 0; i<players.length; i++) {... */\n    tag_76:\n        /* \"contracts/exam-2023-06-30/exam-2023-06-30.sol\":2990:2997  players */\n      0x01\n        /* \"contracts/exam-2023-06-30/exam-2023-06-30.sol\":2990:3004  players.length */\n      dup1\n      sload\n      swap1\n      pop\n        /* \"contracts/exam-2023-06-30/exam-2023-06-30.sol\":2988:2989  i */\n      dup3\n        /* \"contracts/exam-2023-06-30/exam-2023-06-30.sol\":2988:3004  i<players.length */\n      lt\n        /* \"contracts/exam-2023-06-30/exam-2023-06-30.sol\":2976:4072  for (i = 0; i<players.length; i++) {... */\n      iszero\n      tag_77\n      jumpi\n        /* \"contracts/exam-2023-06-30/exam-2023-06-30.sol\":3025:3039  address player */\n      0x00\n        /* \"contracts/exam-2023-06-30/exam-2023-06-30.sol\":3042:3049  players */\n      0x01\n        /* \"contracts/exam-2023-06-30/exam-2023-06-30.sol\":3050:3051  i */\n      dup4\n        /* \"contracts/exam-2023-06-30/exam-2023-06-30.sol\":3042:3052  players[i] */\n      dup2\n      sload\n      dup2\n      lt\n      tag_79\n      jumpi\n      tag_80\n      tag_81\n      jump\t// in\n    tag_80:\n    tag_79:\n      swap1\n      0x00\n      mstore\n      keccak256(0x00, 0x20)\n      add\n      0x00\n      swap1\n      sload\n      swap1\n      0x0100\n      exp\n      swap1\n      div\n      0xffffffffffffffffffffffffffffffffffffffff\n      and\n        /* \"contracts/exam-2023-06-30/exam-2023-06-30.sol\":3025:3052  address player = players[i] */\n      swap1\n      pop\n        /* \"contracts/exam-2023-06-30/exam-2023-06-30.sol\":3070:3076  uint j */\n      0x00\n        /* \"contracts/exam-2023-06-30/exam-2023-06-30.sol\":3066:4062  for(uint j = 0; j<cards[player].length; j++) {... */\n    tag_83:\n        /* \"contracts/exam-2023-06-30/exam-2023-06-30.sol\":3084:3089  cards */\n      0x02\n        /* \"contracts/exam-2023-06-30/exam-2023-06-30.sol\":3084:3097  cards[player] */\n      0x00\n        /* \"contracts/exam-2023-06-30/exam-2023-06-30.sol\":3090:3096  player */\n      dup4\n        /* \"contracts/exam-2023-06-30/exam-2023-06-30.sol\":3084:3097  cards[player] */\n      0xffffffffffffffffffffffffffffffffffffffff\n      and\n      0xffffffffffffffffffffffffffffffffffffffff\n      and\n      dup2\n      mstore\n      0x20\n      add\n      swap1\n      dup2\n      mstore\n      0x20\n      add\n      0x00\n      keccak256\n        /* \"contracts/exam-2023-06-30/exam-2023-06-30.sol\":3084:3104  cards[player].length */\n      dup1\n      sload\n      swap1\n      pop\n        /* \"contracts/exam-2023-06-30/exam-2023-06-30.sol\":3082:3083  j */\n      dup2\n        /* \"contracts/exam-2023-06-30/exam-2023-06-30.sol\":3082:3104  j<cards[player].length */\n      lt\n        /* \"contracts/exam-2023-06-30/exam-2023-06-30.sol\":3066:4062  for(uint j = 0; j<cards[player].length; j++) {... */\n      iszero\n      tag_84\n      jumpi\n        /* \"contracts/exam-2023-06-30/exam-2023-06-30.sol\":3129:3146  Card storage card */\n      0x00\n        /* \"contracts/exam-2023-06-30/exam-2023-06-30.sol\":3149:3154  cards */\n      0x02\n        /* \"contracts/exam-2023-06-30/exam-2023-06-30.sol\":3149:3162  cards[player] */\n      0x00\n        /* \"contracts/exam-2023-06-30/exam-2023-06-30.sol\":3155:3161  player */\n      dup5\n        /* \"contracts/exam-2023-06-30/exam-2023-06-30.sol\":3149:3162  cards[player] */\n      0xffffffffffffffffffffffffffffffffffffffff\n      and\n      0xffffffffffffffffffffffffffffffffffffffff\n      and\n      dup2\n      mstore\n      0x20\n      add\n      swap1\n      dup2\n      mstore\n      0x20\n      add\n      0x00\n      keccak256\n        /* \"contracts/exam-2023-06-30/exam-2023-06-30.sol\":3163:3164  j */\n      dup3\n        /* \"contracts/exam-2023-06-30/exam-2023-06-30.sol\":3149:3165  cards[player][j] */\n      dup2\n      sload\n      dup2\n      lt\n      tag_86\n      jumpi\n      tag_87\n      tag_81\n      jump\t// in\n    tag_87:\n    tag_86:\n      swap1\n      0x00\n      mstore\n      keccak256(0x00, 0x20)\n      swap1\n      0x03\n      mul\n      add\n        /* \"contracts/exam-2023-06-30/exam-2023-06-30.sol\":3129:3165  Card storage card = cards[player][j] */\n      swap1\n      pop\n        /* \"contracts/exam-2023-06-30/exam-2023-06-30.sol\":3183:3218  uint8[] memory extractedForEachLine */\n      0x00\n        /* \"contracts/exam-2023-06-30/exam-2023-06-30.sol\":3233:3234  3 */\n      0x03\n        /* \"contracts/exam-2023-06-30/exam-2023-06-30.sol\":3221:3235  new uint8[](3) */\n      0xffffffffffffffff\n      dup2\n      gt\n      iszero\n      tag_89\n      jumpi\n      tag_90\n      tag_91\n      jump\t// in\n    tag_90:\n    tag_89:\n      mload(0x40)\n      swap1\n      dup1\n      dup3\n      mstore\n      dup1\n      0x20\n      mul\n      0x20\n      add\n      dup3\n      add\n      0x40\n      mstore\n      dup1\n      iszero\n      tag_92\n      jumpi\n      dup2\n      0x20\n      add\n      0x20\n      dup3\n      mul\n      dup1\n      calldatasize\n      dup4\n      calldatacopy\n      dup1\n      dup3\n      add\n      swap2\n      pop\n      pop\n      swap1\n      pop\n    tag_92:\n      pop\n        /* \"contracts/exam-2023-06-30/exam-2023-06-30.sol\":3183:3235  uint8[] memory extractedForEachLine = new uint8[](3) */\n      swap1\n      pop\n        /* \"contracts/exam-2023-06-30/exam-2023-06-30.sol\":3258:3264  uint l */\n      0x00\n        /* \"contracts/exam-2023-06-30/exam-2023-06-30.sol\":3254:3650  for(uint l = 0; l < 3; l++) {... */\n    tag_93:\n        /* \"contracts/exam-2023-06-30/exam-2023-06-30.sol\":3274:3275  3 */\n      0x03\n        /* \"contracts/exam-2023-06-30/exam-2023-06-30.sol\":3270:3271  l */\n      dup2\n        /* \"contracts/exam-2023-06-30/exam-2023-06-30.sol\":3270:3275  l < 3 */\n      lt\n        /* \"contracts/exam-2023-06-30/exam-2023-06-30.sol\":3254:3650  for(uint l = 0; l < 3; l++) {... */\n      iszero\n      tag_94\n      jumpi\n        /* \"contracts/exam-2023-06-30/exam-2023-06-30.sol\":3308:3314  uint k */\n      0x00\n        /* \"contracts/exam-2023-06-30/exam-2023-06-30.sol\":3304:3632  for(uint k = 0; k<5; k++) {... */\n    tag_96:\n        /* \"contracts/exam-2023-06-30/exam-2023-06-30.sol\":3322:3323  5 */\n      0x05\n        /* \"contracts/exam-2023-06-30/exam-2023-06-30.sol\":3320:3321  k */\n      dup2\n        /* \"contracts/exam-2023-06-30/exam-2023-06-30.sol\":3320:3323  k<5 */\n      lt\n        /* \"contracts/exam-2023-06-30/exam-2023-06-30.sol\":3304:3632  for(uint k = 0; k<5; k++) {... */\n      iszero\n      tag_97\n      jumpi\n        /* \"contracts/exam-2023-06-30/exam-2023-06-30.sol\":3359:3368  extracted */\n      0x05\n        /* \"contracts/exam-2023-06-30/exam-2023-06-30.sol\":3359:3386  extracted[card.cells[l][k]] */\n      0x00\n        /* \"contracts/exam-2023-06-30/exam-2023-06-30.sol\":3369:3373  card */\n      dup6\n        /* \"contracts/exam-2023-06-30/exam-2023-06-30.sol\":3369:3379  card.cells */\n      0x00\n      add\n        /* \"contracts/exam-2023-06-30/exam-2023-06-30.sol\":3380:3381  l */\n      dup5\n        /* \"contracts/exam-2023-06-30/exam-2023-06-30.sol\":3369:3382  card.cells[l] */\n      0x03\n      dup2\n      lt\n      tag_99\n      jumpi\n      tag_100\n      tag_81\n      jump\t// in\n    tag_100:\n    tag_99:\n      add\n        /* \"contracts/exam-2023-06-30/exam-2023-06-30.sol\":3383:3384  k */\n      dup4\n        /* \"contracts/exam-2023-06-30/exam-2023-06-30.sol\":3369:3385  card.cells[l][k] */\n      0x05\n      dup2\n      lt\n      tag_102\n      jumpi\n      tag_103\n      tag_81\n      jump\t// in\n    tag_103:\n    tag_102:\n      0x20\n      swap2\n      dup3\n      dup3\n      div\n      add\n      swap2\n      swap1\n      mod\n      swap1\n      sload\n      swap1\n      0x0100\n      exp\n      swap1\n      div\n      0xff\n      and\n        /* \"contracts/exam-2023-06-30/exam-2023-06-30.sol\":3359:3386  extracted[card.cells[l][k]] */\n      0xff\n      and\n      0xff\n      and\n      dup2\n      mstore\n      0x20\n      add\n      swap1\n      dup2\n      mstore\n      0x20\n      add\n      0x00\n      keccak256\n      0x00\n      swap1\n      sload\n      swap1\n      0x0100\n      exp\n      swap1\n      div\n      0xff\n      and\n        /* \"contracts/exam-2023-06-30/exam-2023-06-30.sol\":3356:3610  if(extracted[card.cells[l][k]]) {... */\n      iszero\n      tag_105\n      jumpi\n        /* \"contracts/exam-2023-06-30/exam-2023-06-30.sol\":3418:3438  extractedForEachLine */\n      dup3\n        /* \"contracts/exam-2023-06-30/exam-2023-06-30.sol\":3439:3440  l */\n      dup3\n        /* \"contracts/exam-2023-06-30/exam-2023-06-30.sol\":3418:3441  extractedForEachLine[l] */\n      dup2\n      mload\n      dup2\n      lt\n      tag_106\n      jumpi\n      tag_107\n      tag_81\n      jump\t// in\n    tag_107:\n    tag_106:\n      0x20\n      mul\n      0x20\n      add\n      add\n        /* \"contracts/exam-2023-06-30/exam-2023-06-30.sol\":3418:3443  extractedForEachLine[l]++ */\n      dup1\n      mload\n      dup1\n      swap2\n      swap1\n      tag_108\n      swap1\n      tag_109\n      jump\t// in\n    tag_108:\n      0xff\n      and\n      0xff\n      and\n      dup2\n      mstore\n      pop\n      pop\n        /* \"contracts/exam-2023-06-30/exam-2023-06-30.sol\":3496:3502  number */\n      dup10\n        /* \"contracts/exam-2023-06-30/exam-2023-06-30.sol\":3476:3502  card.cells[l][k] == number */\n      0xff\n      and\n        /* \"contracts/exam-2023-06-30/exam-2023-06-30.sol\":3476:3480  card */\n      dup5\n        /* \"contracts/exam-2023-06-30/exam-2023-06-30.sol\":3476:3486  card.cells */\n      0x00\n      add\n        /* \"contracts/exam-2023-06-30/exam-2023-06-30.sol\":3487:3488  l */\n      dup4\n        /* \"contracts/exam-2023-06-30/exam-2023-06-30.sol\":3476:3489  card.cells[l] */\n      0x03\n      dup2\n      lt\n      tag_110\n      jumpi\n      tag_111\n      tag_81\n      jump\t// in\n    tag_111:\n    tag_110:\n      add\n        /* \"contracts/exam-2023-06-30/exam-2023-06-30.sol\":3490:3491  k */\n      dup3\n        /* \"contracts/exam-2023-06-30/exam-2023-06-30.sol\":3476:3492  card.cells[l][k] */\n      0x05\n      dup2\n      lt\n      tag_113\n      jumpi\n      tag_114\n      tag_81\n      jump\t// in\n    tag_114:\n    tag_113:\n      0x20\n      swap2\n      dup3\n      dup3\n      div\n      add\n      swap2\n      swap1\n      mod\n      swap1\n      sload\n      swap1\n      0x0100\n      exp\n      swap1\n      div\n      0xff\n      and\n        /* \"contracts/exam-2023-06-30/exam-2023-06-30.sol\":3476:3502  card.cells[l][k] == number */\n      0xff\n      and\n      sub\n        /* \"contracts/exam-2023-06-30/exam-2023-06-30.sol\":3473:3584  if(card.cells[l][k] == number) {... */\n      tag_116\n      jumpi\n        /* \"contracts/exam-2023-06-30/exam-2023-06-30.sol\":3538:3553  matchingCards++ */\n      dup7\n      dup1\n      tag_117\n      swap1\n      tag_67\n      jump\t// in\n    tag_117:\n      swap8\n      pop\n      pop\n        /* \"contracts/exam-2023-06-30/exam-2023-06-30.sol\":3473:3584  if(card.cells[l][k] == number) {... */\n    tag_116:\n        /* \"contracts/exam-2023-06-30/exam-2023-06-30.sol\":3356:3610  if(extracted[card.cells[l][k]]) {... */\n    tag_105:\n        /* \"contracts/exam-2023-06-30/exam-2023-06-30.sol\":3325:3328  k++ */\n      dup1\n      dup1\n      0x01\n      add\n      swap2\n      pop\n      pop\n        /* \"contracts/exam-2023-06-30/exam-2023-06-30.sol\":3304:3632  for(uint k = 0; k<5; k++) {... */\n      jump(tag_96)\n    tag_97:\n      pop\n        /* \"contracts/exam-2023-06-30/exam-2023-06-30.sol\":3277:3280  l++ */\n      dup1\n      dup1\n      0x01\n      add\n      swap2\n      pop\n      pop\n        /* \"contracts/exam-2023-06-30/exam-2023-06-30.sol\":3254:3650  for(uint l = 0; l < 3; l++) {... */\n      jump(tag_93)\n    tag_94:\n      pop\n        /* \"contracts/exam-2023-06-30/exam-2023-06-30.sol\":3671:3684  fiveInARowWon */\n      0x06\n      0x00\n      swap1\n      sload\n      swap1\n      0x0100\n      exp\n      swap1\n      div\n      0xff\n      and\n        /* \"contracts/exam-2023-06-30/exam-2023-06-30.sol\":3670:3684  !fiveInARowWon */\n      iszero\n        /* \"contracts/exam-2023-06-30/exam-2023-06-30.sol\":3670:3782  !fiveInARowWon && (extractedForEachLine[0] == 5 || extractedForEachLine[1] == 5 || extractedForEachLine[2] == 5) */\n      dup1\n      iszero\n      tag_118\n      jumpi\n      pop\n        /* \"contracts/exam-2023-06-30/exam-2023-06-30.sol\":3716:3717  5 */\n      0x05\n        /* \"contracts/exam-2023-06-30/exam-2023-06-30.sol\":3689:3709  extractedForEachLine */\n      dup2\n        /* \"contracts/exam-2023-06-30/exam-2023-06-30.sol\":3710:3711  0 */\n      0x00\n        /* \"contracts/exam-2023-06-30/exam-2023-06-30.sol\":3689:3712  extractedForEachLine[0] */\n      dup2\n      mload\n      dup2\n      lt\n      tag_119\n      jumpi\n      tag_120\n      tag_81\n      jump\t// in\n    tag_120:\n    tag_119:\n      0x20\n      mul\n      0x20\n      add\n      add\n      mload\n        /* \"contracts/exam-2023-06-30/exam-2023-06-30.sol\":3689:3717  extractedForEachLine[0] == 5 */\n      0xff\n      and\n      eq\n        /* \"contracts/exam-2023-06-30/exam-2023-06-30.sol\":3689:3749  extractedForEachLine[0] == 5 || extractedForEachLine[1] == 5 */\n      dup1\n      tag_121\n      jumpi\n      pop\n        /* \"contracts/exam-2023-06-30/exam-2023-06-30.sol\":3748:3749  5 */\n      0x05\n        /* \"contracts/exam-2023-06-30/exam-2023-06-30.sol\":3721:3741  extractedForEachLine */\n      dup2\n        /* \"contracts/exam-2023-06-30/exam-2023-06-30.sol\":3742:3743  1 */\n      0x01\n        /* \"contracts/exam-2023-06-30/exam-2023-06-30.sol\":3721:3744  extractedForEachLine[1] */\n      dup2\n      mload\n      dup2\n      lt\n      tag_122\n      jumpi\n      tag_123\n      tag_81\n      jump\t// in\n    tag_123:\n    tag_122:\n      0x20\n      mul\n      0x20\n      add\n      add\n      mload\n        /* \"contracts/exam-2023-06-30/exam-2023-06-30.sol\":3721:3749  extractedForEachLine[1] == 5 */\n      0xff\n      and\n      eq\n        /* \"contracts/exam-2023-06-30/exam-2023-06-30.sol\":3689:3749  extractedForEachLine[0] == 5 || extractedForEachLine[1] == 5 */\n    tag_121:\n        /* \"contracts/exam-2023-06-30/exam-2023-06-30.sol\":3689:3781  extractedForEachLine[0] == 5 || extractedForEachLine[1] == 5 || extractedForEachLine[2] == 5 */\n      dup1\n      tag_124\n      jumpi\n      pop\n        /* \"contracts/exam-2023-06-30/exam-2023-06-30.sol\":3780:3781  5 */\n      0x05\n        /* \"contracts/exam-2023-06-30/exam-2023-06-30.sol\":3753:3773  extractedForEachLine */\n      dup2\n        /* \"contracts/exam-2023-06-30/exam-2023-06-30.sol\":3774:3775  2 */\n      0x02\n        /* \"contracts/exam-2023-06-30/exam-2023-06-30.sol\":3753:3776  extractedForEachLine[2] */\n      dup2\n      mload\n      dup2\n      lt\n      tag_125\n      jumpi\n      tag_126\n      tag_81\n      jump\t// in\n    tag_126:\n    tag_125:\n      0x20\n      mul\n      0x20\n      add\n      add\n      mload\n        /* \"contracts/exam-2023-06-30/exam-2023-06-30.sol\":3753:3781  extractedForEachLine[2] == 5 */\n      0xff\n      and\n      eq\n        /* \"contracts/exam-2023-06-30/exam-2023-06-30.sol\":3689:3781  extractedForEachLine[0] == 5 || extractedForEachLine[1] == 5 || extractedForEachLine[2] == 5 */\n    tag_124:\n        /* \"contracts/exam-2023-06-30/exam-2023-06-30.sol\":3670:3782  !fiveInARowWon && (extractedForEachLine[0] == 5 || extractedForEachLine[1] == 5 || extractedForEachLine[2] == 5) */\n    tag_118:\n        /* \"contracts/exam-2023-06-30/exam-2023-06-30.sol\":3667:3855  if(!fiveInARowWon && (extractedForEachLine[0] == 5 || extractedForEachLine[1] == 5 || extractedForEachLine[2] == 5)) {... */\n      iszero\n      tag_127\n      jumpi\n        /* \"contracts/exam-2023-06-30/exam-2023-06-30.sol\":3806:3823  fiveInARowWinners */\n      0x07\n        /* \"contracts/exam-2023-06-30/exam-2023-06-30.sol\":3829:3835  player */\n      dup5\n        /* \"contracts/exam-2023-06-30/exam-2023-06-30.sol\":3806:3836  fiveInARowWinners.push(player) */\n      swap1\n      dup1\n      0x01\n      dup2\n      sload\n      add\n      dup1\n      dup3\n      sstore\n      dup1\n      swap2\n      pop\n      pop\n      0x01\n      swap1\n      sub\n      swap1\n      0x00\n      mstore\n      keccak256(0x00, 0x20)\n      add\n      0x00\n      swap1\n      swap2\n      swap1\n      swap2\n      swap1\n      swap2\n      0x0100\n      exp\n      dup2\n      sload\n      dup2\n      0xffffffffffffffffffffffffffffffffffffffff\n      mul\n      not\n      and\n      swap1\n      dup4\n      0xffffffffffffffffffffffffffffffffffffffff\n      and\n      mul\n      or\n      swap1\n      sstore\n      pop\n        /* \"contracts/exam-2023-06-30/exam-2023-06-30.sol\":3667:3855  if(!fiveInARowWon && (extractedForEachLine[0] == 5 || extractedForEachLine[1] == 5 || extractedForEachLine[2] == 5)) {... */\n    tag_127:\n        /* \"contracts/exam-2023-06-30/exam-2023-06-30.sol\":3876:3884  bingoWon */\n      0x08\n      0x00\n      swap1\n      sload\n      swap1\n      0x0100\n      exp\n      swap1\n      div\n      0xff\n      and\n        /* \"contracts/exam-2023-06-30/exam-2023-06-30.sol\":3875:3884  !bingoWon */\n      iszero\n        /* \"contracts/exam-2023-06-30/exam-2023-06-30.sol\":3875:3916  !bingoWon && extractedForEachLine[0] == 5 */\n      dup1\n      iszero\n      tag_129\n      jumpi\n      pop\n        /* \"contracts/exam-2023-06-30/exam-2023-06-30.sol\":3915:3916  5 */\n      0x05\n        /* \"contracts/exam-2023-06-30/exam-2023-06-30.sol\":3888:3908  extractedForEachLine */\n      dup2\n        /* \"contracts/exam-2023-06-30/exam-2023-06-30.sol\":3909:3910  0 */\n      0x00\n        /* \"contracts/exam-2023-06-30/exam-2023-06-30.sol\":3888:3911  extractedForEachLine[0] */\n      dup2\n      mload\n      dup2\n      lt\n      tag_130\n      jumpi\n      tag_131\n      tag_81\n      jump\t// in\n    tag_131:\n    tag_130:\n      0x20\n      mul\n      0x20\n      add\n      add\n      mload\n        /* \"contracts/exam-2023-06-30/exam-2023-06-30.sol\":3888:3916  extractedForEachLine[0] == 5 */\n      0xff\n      and\n      eq\n        /* \"contracts/exam-2023-06-30/exam-2023-06-30.sol\":3875:3916  !bingoWon && extractedForEachLine[0] == 5 */\n    tag_129:\n        /* \"contracts/exam-2023-06-30/exam-2023-06-30.sol\":3875:3948  !bingoWon && extractedForEachLine[0] == 5 && extractedForEachLine[1] == 5 */\n      dup1\n      iszero\n      tag_132\n      jumpi\n      pop\n        /* \"contracts/exam-2023-06-30/exam-2023-06-30.sol\":3947:3948  5 */\n      0x05\n        /* \"contracts/exam-2023-06-30/exam-2023-06-30.sol\":3920:3940  extractedForEachLine */\n      dup2\n        /* \"contracts/exam-2023-06-30/exam-2023-06-30.sol\":3941:3942  1 */\n      0x01\n        /* \"contracts/exam-2023-06-30/exam-2023-06-30.sol\":3920:3943  extractedForEachLine[1] */\n      dup2\n      mload\n      dup2\n      lt\n      tag_133\n      jumpi\n      tag_134\n      tag_81\n      jump\t// in\n    tag_134:\n    tag_133:\n      0x20\n      mul\n      0x20\n      add\n      add\n      mload\n        /* \"contracts/exam-2023-06-30/exam-2023-06-30.sol\":3920:3948  extractedForEachLine[1] == 5 */\n      0xff\n      and\n      eq\n        /* \"contracts/exam-2023-06-30/exam-2023-06-30.sol\":3875:3948  !bingoWon && extractedForEachLine[0] == 5 && extractedForEachLine[1] == 5 */\n    tag_132:\n        /* \"contracts/exam-2023-06-30/exam-2023-06-30.sol\":3875:3980  !bingoWon && extractedForEachLine[0] == 5 && extractedForEachLine[1] == 5 && extractedForEachLine[2] == 5 */\n      dup1\n      iszero\n      tag_135\n      jumpi\n      pop\n        /* \"contracts/exam-2023-06-30/exam-2023-06-30.sol\":3979:3980  5 */\n      0x05\n        /* \"contracts/exam-2023-06-30/exam-2023-06-30.sol\":3952:3972  extractedForEachLine */\n      dup2\n        /* \"contracts/exam-2023-06-30/exam-2023-06-30.sol\":3973:3974  2 */\n      0x02\n        /* \"contracts/exam-2023-06-30/exam-2023-06-30.sol\":3952:3975  extractedForEachLine[2] */\n      dup2\n      mload\n      dup2\n      lt\n      tag_136\n      jumpi\n      tag_137\n      tag_81\n      jump\t// in\n    tag_137:\n    tag_136:\n      0x20\n      mul\n      0x20\n      add\n      add\n      mload\n        /* \"contracts/exam-2023-06-30/exam-2023-06-30.sol\":3952:3980  extractedForEachLine[2] == 5 */\n      0xff\n      and\n      eq\n        /* \"contracts/exam-2023-06-30/exam-2023-06-30.sol\":3875:3980  !bingoWon && extractedForEachLine[0] == 5 && extractedForEachLine[1] == 5 && extractedForEachLine[2] == 5 */\n    tag_135:\n        /* \"contracts/exam-2023-06-30/exam-2023-06-30.sol\":3872:4048  if(!bingoWon && extractedForEachLine[0] == 5 && extractedForEachLine[1] == 5 && extractedForEachLine[2] == 5) {... */\n      iszero\n      tag_138\n      jumpi\n        /* \"contracts/exam-2023-06-30/exam-2023-06-30.sol\":4004:4016  bingoWinners */\n      0x09\n        /* \"contracts/exam-2023-06-30/exam-2023-06-30.sol\":4022:4028  player */\n      dup5\n        /* \"contracts/exam-2023-06-30/exam-2023-06-30.sol\":4004:4029  bingoWinners.push(player) */\n      swap1\n      dup1\n      0x01\n      dup2\n      sload\n      add\n      dup1\n      dup3\n      sstore\n      dup1\n      swap2\n      pop\n      pop\n      0x01\n      swap1\n      sub\n      swap1\n      0x00\n      mstore\n      keccak256(0x00, 0x20)\n      add\n      0x00\n      swap1\n      swap2\n      swap1\n      swap2\n      swap1\n      swap2\n      0x0100\n      exp\n      dup2\n      sload\n      dup2\n      0xffffffffffffffffffffffffffffffffffffffff\n      mul\n      not\n      and\n      swap1\n      dup4\n      0xffffffffffffffffffffffffffffffffffffffff\n      and\n      mul\n      or\n      swap1\n      sstore\n      pop\n        /* \"contracts/exam-2023-06-30/exam-2023-06-30.sol\":3872:4048  if(!bingoWon && extractedForEachLine[0] == 5 && extractedForEachLine[1] == 5 && extractedForEachLine[2] == 5) {... */\n    tag_138:\n        /* \"contracts/exam-2023-06-30/exam-2023-06-30.sol\":3111:4062  {... */\n      pop\n      pop\n        /* \"contracts/exam-2023-06-30/exam-2023-06-30.sol\":3106:3109  j++ */\n      dup1\n      dup1\n      0x01\n      add\n      swap2\n      pop\n      pop\n        /* \"contracts/exam-2023-06-30/exam-2023-06-30.sol\":3066:4062  for(uint j = 0; j<cards[player].length; j++) {... */\n      jump(tag_83)\n    tag_84:\n      pop\n        /* \"contracts/exam-2023-06-30/exam-2023-06-30.sol\":3011:4072  {... */\n      pop\n        /* \"contracts/exam-2023-06-30/exam-2023-06-30.sol\":3006:3009  i++ */\n      dup2\n      dup1\n      0x01\n      add\n      swap3\n      pop\n      pop\n        /* \"contracts/exam-2023-06-30/exam-2023-06-30.sol\":2976:4072  for (i = 0; i<players.length; i++) {... */\n      jump(tag_76)\n    tag_77:\n        /* \"contracts/exam-2023-06-30/exam-2023-06-30.sol\":4086:4125  NumberExtraction(number, matchingCards) */\n      0xfa83873dffe3ed5544b8e883cd74a5a292aa4d936df89b0d7bba55cb7804ba18\n        /* \"contracts/exam-2023-06-30/exam-2023-06-30.sol\":4103:4109  number */\n      dup5\n        /* \"contracts/exam-2023-06-30/exam-2023-06-30.sol\":4111:4124  matchingCards */\n      dup3\n        /* \"contracts/exam-2023-06-30/exam-2023-06-30.sol\":4086:4125  NumberExtraction(number, matchingCards) */\n      mload(0x40)\n      tag_140\n      swap3\n      swap2\n      swap1\n      tag_141\n      jump\t// in\n    tag_140:\n      mload(0x40)\n      dup1\n      swap2\n      sub\n      swap1\n      log1\n        /* \"contracts/exam-2023-06-30/exam-2023-06-30.sol\":4148:4161  fiveInARowWon */\n      0x06\n      0x00\n      swap1\n      sload\n      swap1\n      0x0100\n      exp\n      swap1\n      div\n      0xff\n      and\n        /* \"contracts/exam-2023-06-30/exam-2023-06-30.sol\":4147:4161  !fiveInARowWon */\n      iszero\n        /* \"contracts/exam-2023-06-30/exam-2023-06-30.sol\":4147:4193  !fiveInARowWon && fiveInARowWinners.length > 0 */\n      dup1\n      iszero\n      tag_142\n      jumpi\n      pop\n        /* \"contracts/exam-2023-06-30/exam-2023-06-30.sol\":4192:4193  0 */\n      0x00\n        /* \"contracts/exam-2023-06-30/exam-2023-06-30.sol\":4165:4182  fiveInARowWinners */\n      0x07\n        /* \"contracts/exam-2023-06-30/exam-2023-06-30.sol\":4165:4189  fiveInARowWinners.length */\n      dup1\n      sload\n      swap1\n      pop\n        /* \"contracts/exam-2023-06-30/exam-2023-06-30.sol\":4165:4193  fiveInARowWinners.length > 0 */\n      gt\n        /* \"contracts/exam-2023-06-30/exam-2023-06-30.sol\":4147:4193  !fiveInARowWon && fiveInARowWinners.length > 0 */\n    tag_142:\n        /* \"contracts/exam-2023-06-30/exam-2023-06-30.sol\":4144:4668  if(!fiveInARowWon && fiveInARowWinners.length > 0) {... */\n      iszero\n      tag_143\n      jumpi\n        /* \"contracts/exam-2023-06-30/exam-2023-06-30.sol\":4209:4225  uint totalAmount */\n      0x00\n        /* \"contracts/exam-2023-06-30/exam-2023-06-30.sol\":4258:4260  30 */\n      0x1e\n        /* \"contracts/exam-2023-06-30/exam-2023-06-30.sol\":4252:4255  100 */\n      0x64\n        /* \"contracts/exam-2023-06-30/exam-2023-06-30.sol\":4228:4249  address(this).balance */\n      selfbalance\n        /* \"contracts/exam-2023-06-30/exam-2023-06-30.sol\":4228:4255  address(this).balance / 100 */\n      tag_144\n      swap2\n      swap1\n      tag_145\n      jump\t// in\n    tag_144:\n        /* \"contracts/exam-2023-06-30/exam-2023-06-30.sol\":4228:4260  address(this).balance / 100 * 30 */\n      tag_146\n      swap2\n      swap1\n      tag_147\n      jump\t// in\n    tag_146:\n        /* \"contracts/exam-2023-06-30/exam-2023-06-30.sol\":4209:4260  uint totalAmount = address(this).balance / 100 * 30 */\n      swap1\n      pop\n        /* \"contracts/exam-2023-06-30/exam-2023-06-30.sol\":4279:4338  FiveInARowHasBeenWon(totalAmount, fiveInARowWinners.length) */\n      0x33ef1e817bb5116dfdc8c1eeca292bec270599a13a70a131c2f045675b033a08\n        /* \"contracts/exam-2023-06-30/exam-2023-06-30.sol\":4300:4311  totalAmount */\n      dup2\n        /* \"contracts/exam-2023-06-30/exam-2023-06-30.sol\":4313:4330  fiveInARowWinners */\n      0x07\n        /* \"contracts/exam-2023-06-30/exam-2023-06-30.sol\":4313:4337  fiveInARowWinners.length */\n      dup1\n      sload\n      swap1\n      pop\n        /* \"contracts/exam-2023-06-30/exam-2023-06-30.sol\":4279:4338  FiveInARowHasBeenWon(totalAmount, fiveInARowWinners.length) */\n      mload(0x40)\n      tag_148\n      swap3\n      swap2\n      swap1\n      tag_149\n      jump\t// in\n    tag_148:\n      mload(0x40)\n      dup1\n      swap2\n      sub\n      swap1\n      log1\n        /* \"contracts/exam-2023-06-30/exam-2023-06-30.sol\":4352:4372  uint amountPerPlayer */\n      0x00\n        /* \"contracts/exam-2023-06-30/exam-2023-06-30.sol\":4389:4406  fiveInARowWinners */\n      0x07\n        /* \"contracts/exam-2023-06-30/exam-2023-06-30.sol\":4389:4413  fiveInARowWinners.length */\n      dup1\n      sload\n      swap1\n      pop\n        /* \"contracts/exam-2023-06-30/exam-2023-06-30.sol\":4375:4386  totalAmount */\n      dup3\n        /* \"contracts/exam-2023-06-30/exam-2023-06-30.sol\":4375:4413  totalAmount / fiveInARowWinners.length */\n      tag_150\n      swap2\n      swap1\n      tag_145\n      jump\t// in\n    tag_150:\n        /* \"contracts/exam-2023-06-30/exam-2023-06-30.sol\":4352:4413  uint amountPerPlayer = totalAmount / fiveInARowWinners.length */\n      swap1\n      pop\n        /* \"contracts/exam-2023-06-30/exam-2023-06-30.sol\":4435:4436  0 */\n      0x00\n        /* \"contracts/exam-2023-06-30/exam-2023-06-30.sol\":4431:4436  i = 0 */\n      swap4\n      pop\n        /* \"contracts/exam-2023-06-30/exam-2023-06-30.sol\":4427:4658  for(i = 0; i<fiveInARowWinners.length; i++) {... */\n    tag_151:\n        /* \"contracts/exam-2023-06-30/exam-2023-06-30.sol\":4440:4457  fiveInARowWinners */\n      0x07\n        /* \"contracts/exam-2023-06-30/exam-2023-06-30.sol\":4440:4464  fiveInARowWinners.length */\n      dup1\n      sload\n      swap1\n      pop\n        /* \"contracts/exam-2023-06-30/exam-2023-06-30.sol\":4438:4439  i */\n      dup5\n        /* \"contracts/exam-2023-06-30/exam-2023-06-30.sol\":4438:4464  i<fiveInARowWinners.length */\n      lt\n        /* \"contracts/exam-2023-06-30/exam-2023-06-30.sol\":4427:4658  for(i = 0; i<fiveInARowWinners.length; i++) {... */\n      iszero\n      tag_152\n      jumpi\n        /* \"contracts/exam-2023-06-30/exam-2023-06-30.sol\":4489:4503  address winner */\n      0x00\n        /* \"contracts/exam-2023-06-30/exam-2023-06-30.sol\":4506:4523  fiveInARowWinners */\n      0x07\n        /* \"contracts/exam-2023-06-30/exam-2023-06-30.sol\":4524:4525  i */\n      dup6\n        /* \"contracts/exam-2023-06-30/exam-2023-06-30.sol\":4506:4526  fiveInARowWinners[i] */\n      dup2\n      sload\n      dup2\n      lt\n      tag_154\n      jumpi\n      tag_155\n      tag_81\n      jump\t// in\n    tag_155:\n    tag_154:\n      swap1\n      0x00\n      mstore\n      keccak256(0x00, 0x20)\n      add\n      0x00\n      swap1\n      sload\n      swap1\n      0x0100\n      exp\n      swap1\n      div\n      0xffffffffffffffffffffffffffffffffffffffff\n      and\n        /* \"contracts/exam-2023-06-30/exam-2023-06-30.sol\":4489:4526  address winner = fiveInARowWinners[i] */\n      swap1\n      pop\n        /* \"contracts/exam-2023-06-30/exam-2023-06-30.sol\":4552:4558  winner */\n      dup1\n        /* \"contracts/exam-2023-06-30/exam-2023-06-30.sol\":4544:4568  payable(winner).transfer */\n      0xffffffffffffffffffffffffffffffffffffffff\n      and\n        /* \"contracts/exam-2023-06-30/exam-2023-06-30.sol\":4544:4585  payable(winner).transfer(amountPerPlayer) */\n      0x08fc\n        /* \"contracts/exam-2023-06-30/exam-2023-06-30.sol\":4569:4584  amountPerPlayer */\n      dup4\n        /* \"contracts/exam-2023-06-30/exam-2023-06-30.sol\":4544:4585  payable(winner).transfer(amountPerPlayer) */\n      swap1\n      dup2\n      iszero\n      mul\n      swap1\n      mload(0x40)\n      0x00\n      mload(0x40)\n      dup1\n      dup4\n      sub\n      dup2\n      dup6\n      dup9\n      dup9\n      call\n      swap4\n      pop\n      pop\n      pop\n      pop\n      iszero\n      dup1\n      iszero\n      tag_158\n      jumpi\n      returndatasize\n      0x00\n      dup1\n      returndatacopy\n      revert(0x00, returndatasize)\n    tag_158:\n      pop\n        /* \"contracts/exam-2023-06-30/exam-2023-06-30.sol\":4608:4643  PrizePayed(amountPerPlayer, winner) */\n      0x9a551b3764bd83fafa1cc7dc9a25869f3c4f2bdd9cc209ce7de6169ac5fa2037\n        /* \"contracts/exam-2023-06-30/exam-2023-06-30.sol\":4619:4634  amountPerPlayer */\n      dup3\n        /* \"contracts/exam-2023-06-30/exam-2023-06-30.sol\":4636:4642  winner */\n      dup3\n        /* \"contracts/exam-2023-06-30/exam-2023-06-30.sol\":4608:4643  PrizePayed(amountPerPlayer, winner) */\n      mload(0x40)\n      tag_159\n      swap3\n      swap2\n      swap1\n      tag_160\n      jump\t// in\n    tag_159:\n      mload(0x40)\n      dup1\n      swap2\n      sub\n      swap1\n      log1\n        /* \"contracts/exam-2023-06-30/exam-2023-06-30.sol\":4471:4658  {... */\n      pop\n        /* \"contracts/exam-2023-06-30/exam-2023-06-30.sol\":4466:4469  i++ */\n      dup4\n      dup1\n      0x01\n      add\n      swap5\n      pop\n      pop\n        /* \"contracts/exam-2023-06-30/exam-2023-06-30.sol\":4427:4658  for(i = 0; i<fiveInARowWinners.length; i++) {... */\n      jump(tag_151)\n    tag_152:\n        /* \"contracts/exam-2023-06-30/exam-2023-06-30.sol\":4195:4668  {... */\n      pop\n      pop\n        /* \"contracts/exam-2023-06-30/exam-2023-06-30.sol\":4144:4668  if(!fiveInARowWon && fiveInARowWinners.length > 0) {... */\n    tag_143:\n        /* \"contracts/exam-2023-06-30/exam-2023-06-30.sol\":4681:4689  bingoWon */\n      0x08\n      0x00\n      swap1\n      sload\n      swap1\n      0x0100\n      exp\n      swap1\n      div\n      0xff\n      and\n        /* \"contracts/exam-2023-06-30/exam-2023-06-30.sol\":4680:4689  !bingoWon */\n      iszero\n        /* \"contracts/exam-2023-06-30/exam-2023-06-30.sol\":4680:4716  !bingoWon && bingoWinners.length > 0 */\n      dup1\n      iszero\n      tag_161\n      jumpi\n      pop\n        /* \"contracts/exam-2023-06-30/exam-2023-06-30.sol\":4715:4716  0 */\n      0x00\n        /* \"contracts/exam-2023-06-30/exam-2023-06-30.sol\":4693:4705  bingoWinners */\n      0x09\n        /* \"contracts/exam-2023-06-30/exam-2023-06-30.sol\":4693:4712  bingoWinners.length */\n      dup1\n      sload\n      swap1\n      pop\n        /* \"contracts/exam-2023-06-30/exam-2023-06-30.sol\":4693:4716  bingoWinners.length > 0 */\n      gt\n        /* \"contracts/exam-2023-06-30/exam-2023-06-30.sol\":4680:4716  !bingoWon && bingoWinners.length > 0 */\n    tag_161:\n        /* \"contracts/exam-2023-06-30/exam-2023-06-30.sol\":4677:5175  if(!bingoWon && bingoWinners.length > 0) {... */\n      iszero\n      tag_162\n      jumpi\n        /* \"contracts/exam-2023-06-30/exam-2023-06-30.sol\":4732:4748  uint totalAmount */\n      0x00\n        /* \"contracts/exam-2023-06-30/exam-2023-06-30.sol\":4751:4772  address(this).balance */\n      selfbalance\n        /* \"contracts/exam-2023-06-30/exam-2023-06-30.sol\":4732:4772  uint totalAmount = address(this).balance */\n      swap1\n      pop\n        /* \"contracts/exam-2023-06-30/exam-2023-06-30.sol\":4791:4845  BingoHasBeenWon(totalAmount, fiveInARowWinners.length) */\n      0xa781572f44007e9124da6fa9d747f1c30cc7d7e37bb6d137ca50fb7c6ebb4fe3\n        /* \"contracts/exam-2023-06-30/exam-2023-06-30.sol\":4807:4818  totalAmount */\n      dup2\n        /* \"contracts/exam-2023-06-30/exam-2023-06-30.sol\":4820:4837  fiveInARowWinners */\n      0x07\n        /* \"contracts/exam-2023-06-30/exam-2023-06-30.sol\":4820:4844  fiveInARowWinners.length */\n      dup1\n      sload\n      swap1\n      pop\n        /* \"contracts/exam-2023-06-30/exam-2023-06-30.sol\":4791:4845  BingoHasBeenWon(totalAmount, fiveInARowWinners.length) */\n      mload(0x40)\n      tag_163\n      swap3\n      swap2\n      swap1\n      tag_149\n      jump\t// in\n    tag_163:\n      mload(0x40)\n      dup1\n      swap2\n      sub\n      swap1\n      log1\n        /* \"contracts/exam-2023-06-30/exam-2023-06-30.sol\":4859:4879  uint amountPerPlayer */\n      0x00\n        /* \"contracts/exam-2023-06-30/exam-2023-06-30.sol\":4896:4913  fiveInARowWinners */\n      0x07\n        /* \"contracts/exam-2023-06-30/exam-2023-06-30.sol\":4896:4920  fiveInARowWinners.length */\n      dup1\n      sload\n      swap1\n      pop\n        /* \"contracts/exam-2023-06-30/exam-2023-06-30.sol\":4882:4893  totalAmount */\n      dup3\n        /* \"contracts/exam-2023-06-30/exam-2023-06-30.sol\":4882:4920  totalAmount / fiveInARowWinners.length */\n      tag_164\n      swap2\n      swap1\n      tag_145\n      jump\t// in\n    tag_164:\n        /* \"contracts/exam-2023-06-30/exam-2023-06-30.sol\":4859:4920  uint amountPerPlayer = totalAmount / fiveInARowWinners.length */\n      swap1\n      pop\n        /* \"contracts/exam-2023-06-30/exam-2023-06-30.sol\":4942:4943  0 */\n      0x00\n        /* \"contracts/exam-2023-06-30/exam-2023-06-30.sol\":4938:4943  i = 0 */\n      swap4\n      pop\n        /* \"contracts/exam-2023-06-30/exam-2023-06-30.sol\":4934:5165  for(i = 0; i<fiveInARowWinners.length; i++) {... */\n    tag_165:\n        /* \"contracts/exam-2023-06-30/exam-2023-06-30.sol\":4947:4964  fiveInARowWinners */\n      0x07\n        /* \"contracts/exam-2023-06-30/exam-2023-06-30.sol\":4947:4971  fiveInARowWinners.length */\n      dup1\n      sload\n      swap1\n      pop\n        /* \"contracts/exam-2023-06-30/exam-2023-06-30.sol\":4945:4946  i */\n      dup5\n        /* \"contracts/exam-2023-06-30/exam-2023-06-30.sol\":4945:4971  i<fiveInARowWinners.length */\n      lt\n        /* \"contracts/exam-2023-06-30/exam-2023-06-30.sol\":4934:5165  for(i = 0; i<fiveInARowWinners.length; i++) {... */\n      iszero\n      tag_166\n      jumpi\n        /* \"contracts/exam-2023-06-30/exam-2023-06-30.sol\":4996:5010  address winner */\n      0x00\n        /* \"contracts/exam-2023-06-30/exam-2023-06-30.sol\":5013:5030  fiveInARowWinners */\n      0x07\n        /* \"contracts/exam-2023-06-30/exam-2023-06-30.sol\":5031:5032  i */\n      dup6\n        /* \"contracts/exam-2023-06-30/exam-2023-06-30.sol\":5013:5033  fiveInARowWinners[i] */\n      dup2\n      sload\n      dup2\n      lt\n      tag_168\n      jumpi\n      tag_169\n      tag_81\n      jump\t// in\n    tag_169:\n    tag_168:\n      swap1\n      0x00\n      mstore\n      keccak256(0x00, 0x20)\n      add\n      0x00\n      swap1\n      sload\n      swap1\n      0x0100\n      exp\n      swap1\n      div\n      0xffffffffffffffffffffffffffffffffffffffff\n      and\n        /* \"contracts/exam-2023-06-30/exam-2023-06-30.sol\":4996:5033  address winner = fiveInARowWinners[i] */\n      swap1\n      pop\n        /* \"contracts/exam-2023-06-30/exam-2023-06-30.sol\":5059:5065  winner */\n      dup1\n        /* \"contracts/exam-2023-06-30/exam-2023-06-30.sol\":5051:5075  payable(winner).transfer */\n      0xffffffffffffffffffffffffffffffffffffffff\n      and\n        /* \"contracts/exam-2023-06-30/exam-2023-06-30.sol\":5051:5092  payable(winner).transfer(amountPerPlayer) */\n      0x08fc\n        /* \"contracts/exam-2023-06-30/exam-2023-06-30.sol\":5076:5091  amountPerPlayer */\n      dup4\n        /* \"contracts/exam-2023-06-30/exam-2023-06-30.sol\":5051:5092  payable(winner).transfer(amountPerPlayer) */\n      swap1\n      dup2\n      iszero\n      mul\n      swap1\n      mload(0x40)\n      0x00\n      mload(0x40)\n      dup1\n      dup4\n      sub\n      dup2\n      dup6\n      dup9\n      dup9\n      call\n      swap4\n      pop\n      pop\n      pop\n      pop\n      iszero\n      dup1\n      iszero\n      tag_172\n      jumpi\n      returndatasize\n      0x00\n      dup1\n      returndatacopy\n      revert(0x00, returndatasize)\n    tag_172:\n      pop\n        /* \"contracts/exam-2023-06-30/exam-2023-06-30.sol\":5115:5150  PrizePayed(amountPerPlayer, winner) */\n      0x9a551b3764bd83fafa1cc7dc9a25869f3c4f2bdd9cc209ce7de6169ac5fa2037\n        /* \"contracts/exam-2023-06-30/exam-2023-06-30.sol\":5126:5141  amountPerPlayer */\n      dup3\n        /* \"contracts/exam-2023-06-30/exam-2023-06-30.sol\":5143:5149  winner */\n      dup3\n        /* \"contracts/exam-2023-06-30/exam-2023-06-30.sol\":5115:5150  PrizePayed(amountPerPlayer, winner) */\n      mload(0x40)\n      tag_173\n      swap3\n      swap2\n      swap1\n      tag_160\n      jump\t// in\n    tag_173:\n      mload(0x40)\n      dup1\n      swap2\n      sub\n      swap1\n      log1\n        /* \"contracts/exam-2023-06-30/exam-2023-06-30.sol\":4978:5165  {... */\n      pop\n        /* \"contracts/exam-2023-06-30/exam-2023-06-30.sol\":4973:4976  i++ */\n      dup4\n      dup1\n      0x01\n      add\n      swap5\n      pop\n      pop\n        /* \"contracts/exam-2023-06-30/exam-2023-06-30.sol\":4934:5165  for(i = 0; i<fiveInARowWinners.length; i++) {... */\n      jump(tag_165)\n    tag_166:\n        /* \"contracts/exam-2023-06-30/exam-2023-06-30.sol\":4718:5175  {... */\n      pop\n      pop\n        /* \"contracts/exam-2023-06-30/exam-2023-06-30.sol\":4677:5175  if(!bingoWon && bingoWinners.length > 0) {... */\n    tag_162:\n        /* \"contracts/exam-2023-06-30/exam-2023-06-30.sol\":2456:5182  {... */\n      pop\n      pop\n      pop\n        /* \"contracts/exam-2023-06-30/exam-2023-06-30.sol\":2380:5182  function extractNextNumber() external onlyActiveGame returns (uint8 number) {... */\n      swap1\n      jump\t// out\n        /* \"contracts/exam-2023-06-30/exam-2023-06-30.sol\":900:2374  function buyCards() external payable onlyActiveGame {... */\n    tag_17:\n        /* \"contracts/exam-2023-06-30/exam-2023-06-30.sol\":810:825  GameState.Ended */\n      0x02\n        /* \"contracts/exam-2023-06-30/exam-2023-06-30.sol\":797:825  gameState == GameState.Ended */\n      dup1\n      dup2\n      gt\n      iszero\n      tag_175\n      jumpi\n      tag_176\n      tag_51\n      jump\t// in\n    tag_176:\n    tag_175:\n        /* \"contracts/exam-2023-06-30/exam-2023-06-30.sol\":797:806  gameState */\n      0x00\n      dup1\n      sload\n      swap1\n      0x0100\n      exp\n      swap1\n      div\n      0xff\n      and\n        /* \"contracts/exam-2023-06-30/exam-2023-06-30.sol\":797:825  gameState == GameState.Ended */\n      0x02\n      dup2\n      gt\n      iszero\n      tag_177\n      jumpi\n      tag_178\n      tag_51\n      jump\t// in\n    tag_178:\n    tag_177:\n      sub\n        /* \"contracts/exam-2023-06-30/exam-2023-06-30.sol\":794:877  if(gameState == GameState.Ended) {... */\n      tag_179\n      jumpi\n        /* \"contracts/exam-2023-06-30/exam-2023-06-30.sol\":848:866  GameAlreadyEnded() */\n      mload(0x40)\n      0x919142bc00000000000000000000000000000000000000000000000000000000\n      dup2\n      mstore\n      0x04\n      add\n      mload(0x40)\n      dup1\n      swap2\n      sub\n      swap1\n      revert\n        /* \"contracts/exam-2023-06-30/exam-2023-06-30.sol\":794:877  if(gameState == GameState.Ended) {... */\n    tag_179:\n        /* \"contracts/exam-2023-06-30/exam-2023-06-30.sol\":978:995  GameState.Booking */\n      0x00\n        /* \"contracts/exam-2023-06-30/exam-2023-06-30.sol\":965:995  gameState != GameState.Booking */\n      0x02\n      dup2\n      gt\n      iszero\n      tag_181\n      jumpi\n      tag_182\n      tag_51\n      jump\t// in\n    tag_182:\n    tag_181:\n        /* \"contracts/exam-2023-06-30/exam-2023-06-30.sol\":965:974  gameState */\n      0x00\n      dup1\n      sload\n      swap1\n      0x0100\n      exp\n      swap1\n      div\n      0xff\n      and\n        /* \"contracts/exam-2023-06-30/exam-2023-06-30.sol\":965:995  gameState != GameState.Booking */\n      0x02\n      dup2\n      gt\n      iszero\n      tag_183\n      jumpi\n      tag_184\n      tag_51\n      jump\t// in\n    tag_184:\n    tag_183:\n      eq\n        /* \"contracts/exam-2023-06-30/exam-2023-06-30.sol\":962:1058  if(gameState != GameState.Booking) {... */\n      tag_185\n      jumpi\n        /* \"contracts/exam-2023-06-30/exam-2023-06-30.sol\":1018:1047  BookingPeriodAlreadyExpired() */\n      mload(0x40)\n      0xfb875c1900000000000000000000000000000000000000000000000000000000\n      dup2\n      mstore\n      0x04\n      add\n      mload(0x40)\n      dup1\n      swap2\n      sub\n      swap1\n      revert\n        /* \"contracts/exam-2023-06-30/exam-2023-06-30.sol\":962:1058  if(gameState != GameState.Booking) {... */\n    tag_185:\n        /* \"contracts/exam-2023-06-30/exam-2023-06-30.sol\":1082:1090  cardCost */\n      immutable(\"0xb9aa4ff60d3edb7fbc3b53bd780c9274ed80a5ba1a237d38b011edab2b031b4a\")\n        /* \"contracts/exam-2023-06-30/exam-2023-06-30.sol\":1070:1079  msg.value */\n      callvalue\n        /* \"contracts/exam-2023-06-30/exam-2023-06-30.sol\":1070:1090  msg.value < cardCost */\n      lt\n        /* \"contracts/exam-2023-06-30/exam-2023-06-30.sol\":1067:1176  if(msg.value < cardCost) {... */\n      iszero\n      tag_186\n      jumpi\n        /* \"contracts/exam-2023-06-30/exam-2023-06-30.sol\":1145:1154  msg.value */\n      callvalue\n        /* \"contracts/exam-2023-06-30/exam-2023-06-30.sol\":1156:1164  cardCost */\n      immutable(\"0xb9aa4ff60d3edb7fbc3b53bd780c9274ed80a5ba1a237d38b011edab2b031b4a\")\n        /* \"contracts/exam-2023-06-30/exam-2023-06-30.sol\":1113:1165  InsufficientFundsToBuyEvenACard(msg.value, cardCost) */\n      mload(0x40)\n      0x9423c2f400000000000000000000000000000000000000000000000000000000\n      dup2\n      mstore\n      0x04\n      add\n      tag_187\n      swap3\n      swap2\n      swap1\n      tag_149\n      jump\t// in\n    tag_187:\n      mload(0x40)\n      dup1\n      swap2\n      sub\n      swap1\n      revert\n        /* \"contracts/exam-2023-06-30/exam-2023-06-30.sol\":1067:1176  if(msg.value < cardCost) {... */\n    tag_186:\n        /* \"contracts/exam-2023-06-30/exam-2023-06-30.sol\":1186:1201  uint cardsToBuy */\n      0x00\n        /* \"contracts/exam-2023-06-30/exam-2023-06-30.sol\":1216:1224  cardCost */\n      immutable(\"0xb9aa4ff60d3edb7fbc3b53bd780c9274ed80a5ba1a237d38b011edab2b031b4a\")\n        /* \"contracts/exam-2023-06-30/exam-2023-06-30.sol\":1204:1213  msg.value */\n      callvalue\n        /* \"contracts/exam-2023-06-30/exam-2023-06-30.sol\":1204:1224  msg.value / cardCost */\n      tag_188\n      swap2\n      swap1\n      tag_145\n      jump\t// in\n    tag_188:\n        /* \"contracts/exam-2023-06-30/exam-2023-06-30.sol\":1186:1224  uint cardsToBuy = msg.value / cardCost */\n      swap1\n      pop\n        /* \"contracts/exam-2023-06-30/exam-2023-06-30.sol\":1265:1266  0 */\n      0x00\n        /* \"contracts/exam-2023-06-30/exam-2023-06-30.sol\":1237:1242  cards */\n      0x02\n        /* \"contracts/exam-2023-06-30/exam-2023-06-30.sol\":1237:1254  cards[msg.sender] */\n      0x00\n        /* \"contracts/exam-2023-06-30/exam-2023-06-30.sol\":1243:1253  msg.sender */\n      caller\n        /* \"contracts/exam-2023-06-30/exam-2023-06-30.sol\":1237:1254  cards[msg.sender] */\n      0xffffffffffffffffffffffffffffffffffffffff\n      and\n      0xffffffffffffffffffffffffffffffffffffffff\n      and\n      dup2\n      mstore\n      0x20\n      add\n      swap1\n      dup2\n      mstore\n      0x20\n      add\n      0x00\n      keccak256\n        /* \"contracts/exam-2023-06-30/exam-2023-06-30.sol\":1237:1261  cards[msg.sender].length */\n      dup1\n      sload\n      swap1\n      pop\n        /* \"contracts/exam-2023-06-30/exam-2023-06-30.sol\":1237:1266  cards[msg.sender].length == 0 */\n      sub\n        /* \"contracts/exam-2023-06-30/exam-2023-06-30.sol\":1234:1348  if(cards[msg.sender].length == 0) {... */\n      tag_189\n      jumpi\n        /* \"contracts/exam-2023-06-30/exam-2023-06-30.sol\":1282:1289  players */\n      0x01\n        /* \"contracts/exam-2023-06-30/exam-2023-06-30.sol\":1295:1305  msg.sender */\n      caller\n        /* \"contracts/exam-2023-06-30/exam-2023-06-30.sol\":1282:1306  players.push(msg.sender) */\n      swap1\n      dup1\n      0x01\n      dup2\n      sload\n      add\n      dup1\n      dup3\n      sstore\n      dup1\n      swap2\n      pop\n      pop\n      0x01\n      swap1\n      sub\n      swap1\n      0x00\n      mstore\n      keccak256(0x00, 0x20)\n      add\n      0x00\n      swap1\n      swap2\n      swap1\n      swap2\n      swap1\n      swap2\n      0x0100\n      exp\n      dup2\n      sload\n      dup2\n      0xffffffffffffffffffffffffffffffffffffffff\n      mul\n      not\n      and\n      swap1\n      dup4\n      0xffffffffffffffffffffffffffffffffffffffff\n      and\n      mul\n      or\n      swap1\n      sstore\n      pop\n        /* \"contracts/exam-2023-06-30/exam-2023-06-30.sol\":1320:1335  numberOfPlayers */\n      0x03\n      0x00\n        /* \"contracts/exam-2023-06-30/exam-2023-06-30.sol\":1320:1337  numberOfPlayers++ */\n      dup2\n      sload\n      dup1\n      swap3\n      swap2\n      swap1\n      tag_191\n      swap1\n      tag_67\n      jump\t// in\n    tag_191:\n      swap2\n      swap1\n      pop\n      sstore\n      pop\n        /* \"contracts/exam-2023-06-30/exam-2023-06-30.sol\":1234:1348  if(cards[msg.sender].length == 0) {... */\n    tag_189:\n        /* \"contracts/exam-2023-06-30/exam-2023-06-30.sol\":1372:1382  cardsToBuy */\n      dup1\n        /* \"contracts/exam-2023-06-30/exam-2023-06-30.sol\":1357:1370  numberOfCards */\n      0x04\n      0x00\n        /* \"contracts/exam-2023-06-30/exam-2023-06-30.sol\":1357:1382  numberOfCards+=cardsToBuy */\n      dup3\n      dup3\n      sload\n      tag_192\n      swap2\n      swap1\n      tag_193\n      jump\t// in\n    tag_192:\n      swap3\n      pop\n      pop\n      dup2\n      swap1\n      sstore\n      pop\n        /* \"contracts/exam-2023-06-30/exam-2023-06-30.sol\":1393:1420  uint8[] memory cardsNumbers */\n      0x60\n        /* \"contracts/exam-2023-06-30/exam-2023-06-30.sol\":1434:1440  uint i */\n      0x00\n        /* \"contracts/exam-2023-06-30/exam-2023-06-30.sol\":1430:2314  for(uint i = 0; i<cardsToBuy; i++) {... */\n    tag_194:\n        /* \"contracts/exam-2023-06-30/exam-2023-06-30.sol\":1448:1458  cardsToBuy */\n      dup3\n        /* \"contracts/exam-2023-06-30/exam-2023-06-30.sol\":1446:1447  i */\n      dup2\n        /* \"contracts/exam-2023-06-30/exam-2023-06-30.sol\":1446:1458  i<cardsToBuy */\n      lt\n        /* \"contracts/exam-2023-06-30/exam-2023-06-30.sol\":1430:2314  for(uint i = 0; i<cardsToBuy; i++) {... */\n      iszero\n      tag_195\n      jumpi\n        /* \"contracts/exam-2023-06-30/exam-2023-06-30.sol\":1506:1508  15 */\n      0x0f\n        /* \"contracts/exam-2023-06-30/exam-2023-06-30.sol\":1494:1509  new uint8[](15) */\n      0xffffffffffffffff\n      dup2\n      gt\n      iszero\n      tag_197\n      jumpi\n      tag_198\n      tag_91\n      jump\t// in\n    tag_198:\n    tag_197:\n      mload(0x40)\n      swap1\n      dup1\n      dup3\n      mstore\n      dup1\n      0x20\n      mul\n      0x20\n      add\n      dup3\n      add\n      0x40\n      mstore\n      dup1\n      iszero\n      tag_199\n      jumpi\n      dup2\n      0x20\n      add\n      0x20\n      dup3\n      mul\n      dup1\n      calldatasize\n      dup4\n      calldatacopy\n      dup1\n      dup3\n      add\n      swap2\n      pop\n      pop\n      swap1\n      pop\n    tag_199:\n      pop\n        /* \"contracts/exam-2023-06-30/exam-2023-06-30.sol\":1479:1509  cardsNumbers = new uint8[](15) */\n      swap2\n      pop\n        /* \"contracts/exam-2023-06-30/exam-2023-06-30.sol\":1527:1533  uint j */\n      0x00\n        /* \"contracts/exam-2023-06-30/exam-2023-06-30.sol\":1523:2064  for(uint j = 0; j<15; j++) {... */\n    tag_200:\n        /* \"contracts/exam-2023-06-30/exam-2023-06-30.sol\":1541:1543  15 */\n      0x0f\n        /* \"contracts/exam-2023-06-30/exam-2023-06-30.sol\":1539:1540  j */\n      dup2\n        /* \"contracts/exam-2023-06-30/exam-2023-06-30.sol\":1539:1543  j<15 */\n      lt\n        /* \"contracts/exam-2023-06-30/exam-2023-06-30.sol\":1523:2064  for(uint j = 0; j<15; j++) {... */\n      iszero\n      tag_201\n      jumpi\n        /* \"contracts/exam-2023-06-30/exam-2023-06-30.sol\":1568:1581  bool isUnique */\n      0x00\n        /* \"contracts/exam-2023-06-30/exam-2023-06-30.sol\":1584:1588  true */\n      0x01\n        /* \"contracts/exam-2023-06-30/exam-2023-06-30.sol\":1568:1588  bool isUnique = true */\n      swap1\n      pop\n        /* \"contracts/exam-2023-06-30/exam-2023-06-30.sol\":1606:1618  uint8 number */\n      0x00\n        /* \"contracts/exam-2023-06-30/exam-2023-06-30.sol\":1636:2008  do {... */\n    tag_203:\n        /* \"contracts/exam-2023-06-30/exam-2023-06-30.sol\":1756:1758  75 */\n      0x4b\n        /* \"contracts/exam-2023-06-30/exam-2023-06-30.sol\":1711:1726  block.timestamp */\n      timestamp\n        /* \"contracts/exam-2023-06-30/exam-2023-06-30.sol\":1728:1744  block.difficulty */\n      prevrandao\n        /* \"contracts/exam-2023-06-30/exam-2023-06-30.sol\":1746:1747  j */\n      dup6\n        /* \"contracts/exam-2023-06-30/exam-2023-06-30.sol\":1749:1750  i */\n      dup8\n        /* \"contracts/exam-2023-06-30/exam-2023-06-30.sol\":1694:1751  abi.encodePacked(block.timestamp, block.difficulty, j, i) */\n      add(0x20, mload(0x40))\n      tag_206\n      swap5\n      swap4\n      swap3\n      swap2\n      swap1\n      tag_207\n      jump\t// in\n    tag_206:\n      mload(0x40)\n      0x20\n      dup2\n      dup4\n      sub\n      sub\n      dup2\n      mstore\n      swap1\n      0x40\n      mstore\n        /* \"contracts/exam-2023-06-30/exam-2023-06-30.sol\":1684:1752  keccak256(abi.encodePacked(block.timestamp, block.difficulty, j, i)) */\n      dup1\n      mload\n      swap1\n      0x20\n      add\n      keccak256\n        /* \"contracts/exam-2023-06-30/exam-2023-06-30.sol\":1676:1753  uint256(keccak256(abi.encodePacked(block.timestamp, block.difficulty, j, i))) */\n      0x00\n      shr\n        /* \"contracts/exam-2023-06-30/exam-2023-06-30.sol\":1676:1758  uint256(keccak256(abi.encodePacked(block.timestamp, block.difficulty, j, i))) % 75 */\n      tag_208\n      swap2\n      swap1\n      tag_71\n      jump\t// in\n    tag_208:\n        /* \"contracts/exam-2023-06-30/exam-2023-06-30.sol\":1661:1759  number = uint8(uint256(keccak256(abi.encodePacked(block.timestamp, block.difficulty, j, i))) % 75) */\n      swap1\n      pop\n        /* \"contracts/exam-2023-06-30/exam-2023-06-30.sol\":1785:1791  uint k */\n      0x00\n        /* \"contracts/exam-2023-06-30/exam-2023-06-30.sol\":1781:1956  for(uint k=0; k<j; k++) {... */\n    tag_209:\n        /* \"contracts/exam-2023-06-30/exam-2023-06-30.sol\":1797:1798  j */\n      dup4\n        /* \"contracts/exam-2023-06-30/exam-2023-06-30.sol\":1795:1796  k */\n      dup2\n        /* \"contracts/exam-2023-06-30/exam-2023-06-30.sol\":1795:1798  k<j */\n      lt\n        /* \"contracts/exam-2023-06-30/exam-2023-06-30.sol\":1781:1956  for(uint k=0; k<j; k++) {... */\n      iszero\n      tag_210\n      jumpi\n        /* \"contracts/exam-2023-06-30/exam-2023-06-30.sol\":1853:1859  number */\n      dup2\n        /* \"contracts/exam-2023-06-30/exam-2023-06-30.sol\":1834:1859  cardsNumbers[k] == number */\n      0xff\n      and\n        /* \"contracts/exam-2023-06-30/exam-2023-06-30.sol\":1834:1846  cardsNumbers */\n      dup7\n        /* \"contracts/exam-2023-06-30/exam-2023-06-30.sol\":1847:1848  k */\n      dup3\n        /* \"contracts/exam-2023-06-30/exam-2023-06-30.sol\":1834:1849  cardsNumbers[k] */\n      dup2\n      mload\n      dup2\n      lt\n      tag_212\n      jumpi\n      tag_213\n      tag_81\n      jump\t// in\n    tag_213:\n    tag_212:\n      0x20\n      mul\n      0x20\n      add\n      add\n      mload\n        /* \"contracts/exam-2023-06-30/exam-2023-06-30.sol\":1834:1859  cardsNumbers[k] == number */\n      0xff\n      and\n      sub\n        /* \"contracts/exam-2023-06-30/exam-2023-06-30.sol\":1831:1934  if(cardsNumbers[k] == number) {... */\n      tag_214\n      jumpi\n        /* \"contracts/exam-2023-06-30/exam-2023-06-30.sol\":1902:1907  false */\n      0x00\n        /* \"contracts/exam-2023-06-30/exam-2023-06-30.sol\":1891:1907  isUnique = false */\n      swap3\n      pop\n        /* \"contracts/exam-2023-06-30/exam-2023-06-30.sol\":1831:1934  if(cardsNumbers[k] == number) {... */\n    tag_214:\n        /* \"contracts/exam-2023-06-30/exam-2023-06-30.sol\":1800:1803  k++ */\n      dup1\n      dup1\n      0x01\n      add\n      swap2\n      pop\n      pop\n        /* \"contracts/exam-2023-06-30/exam-2023-06-30.sol\":1781:1956  for(uint k=0; k<j; k++) {... */\n      jump(tag_209)\n    tag_210:\n      pop\n        /* \"contracts/exam-2023-06-30/exam-2023-06-30.sol\":1998:2006  isUnique */\n      dup2\n        /* \"contracts/exam-2023-06-30/exam-2023-06-30.sol\":1997:2006  !isUnique */\n      iszero\n        /* \"contracts/exam-2023-06-30/exam-2023-06-30.sol\":1636:2008  do {... */\n      tag_203\n      jumpi\n        /* \"contracts/exam-2023-06-30/exam-2023-06-30.sol\":2043:2049  number */\n      dup1\n        /* \"contracts/exam-2023-06-30/exam-2023-06-30.sol\":2025:2037  cardsNumbers */\n      dup6\n        /* \"contracts/exam-2023-06-30/exam-2023-06-30.sol\":2038:2039  j */\n      dup5\n        /* \"contracts/exam-2023-06-30/exam-2023-06-30.sol\":2025:2040  cardsNumbers[j] */\n      dup2\n      mload\n      dup2\n      lt\n      tag_215\n      jumpi\n      tag_216\n      tag_81\n      jump\t// in\n    tag_216:\n    tag_215:\n      0x20\n      mul\n      0x20\n      add\n      add\n        /* \"contracts/exam-2023-06-30/exam-2023-06-30.sol\":2025:2049  cardsNumbers[j] = number */\n      swap1\n      0xff\n      and\n      swap1\n      dup2\n      0xff\n      and\n      dup2\n      mstore\n      pop\n      pop\n        /* \"contracts/exam-2023-06-30/exam-2023-06-30.sol\":1550:2064  {... */\n      pop\n      pop\n        /* \"contracts/exam-2023-06-30/exam-2023-06-30.sol\":1545:1548  j++ */\n      dup1\n      dup1\n      0x01\n      add\n      swap2\n      pop\n      pop\n        /* \"contracts/exam-2023-06-30/exam-2023-06-30.sol\":1523:2064  for(uint j = 0; j<15; j++) {... */\n      jump(tag_200)\n    tag_201:\n      pop\n        /* \"contracts/exam-2023-06-30/exam-2023-06-30.sol\":2077:2094  Card storage card */\n      0x00\n        /* \"contracts/exam-2023-06-30/exam-2023-06-30.sol\":2097:2102  cards */\n      0x02\n        /* \"contracts/exam-2023-06-30/exam-2023-06-30.sol\":2097:2114  cards[msg.sender] */\n      0x00\n        /* \"contracts/exam-2023-06-30/exam-2023-06-30.sol\":2103:2113  msg.sender */\n      caller\n        /* \"contracts/exam-2023-06-30/exam-2023-06-30.sol\":2097:2114  cards[msg.sender] */\n      0xffffffffffffffffffffffffffffffffffffffff\n      and\n      0xffffffffffffffffffffffffffffffffffffffff\n      and\n      dup2\n      mstore\n      0x20\n      add\n      swap1\n      dup2\n      mstore\n      0x20\n      add\n      0x00\n      keccak256\n        /* \"contracts/exam-2023-06-30/exam-2023-06-30.sol\":2097:2121  cards[msg.sender].push() */\n      0x01\n      dup2\n      0x01\n      dup2\n      sload\n      add\n      dup1\n      dup3\n      sstore\n      dup1\n      swap2\n      pop\n      pop\n      sub\n      swap1\n      0x00\n      mstore\n      keccak256(0x00, 0x20)\n      swap1\n      0x03\n      mul\n      add\n        /* \"contracts/exam-2023-06-30/exam-2023-06-30.sol\":2077:2121  Card storage card = cards[msg.sender].push() */\n      swap1\n      pop\n        /* \"contracts/exam-2023-06-30/exam-2023-06-30.sol\":2140:2146  uint l */\n      0x00\n        /* \"contracts/exam-2023-06-30/exam-2023-06-30.sol\":2135:2304  for (uint l = 0; l < 15; l++) {... */\n    tag_218:\n        /* \"contracts/exam-2023-06-30/exam-2023-06-30.sol\":2156:2158  15 */\n      0x0f\n        /* \"contracts/exam-2023-06-30/exam-2023-06-30.sol\":2152:2153  l */\n      dup2\n        /* \"contracts/exam-2023-06-30/exam-2023-06-30.sol\":2152:2158  l < 15 */\n      lt\n        /* \"contracts/exam-2023-06-30/exam-2023-06-30.sol\":2135:2304  for (uint l = 0; l < 15; l++) {... */\n      iszero\n      tag_219\n      jumpi\n        /* \"contracts/exam-2023-06-30/exam-2023-06-30.sol\":2183:2191  uint row */\n      0x00\n        /* \"contracts/exam-2023-06-30/exam-2023-06-30.sol\":2198:2199  3 */\n      0x03\n        /* \"contracts/exam-2023-06-30/exam-2023-06-30.sol\":2194:2195  l */\n      dup3\n        /* \"contracts/exam-2023-06-30/exam-2023-06-30.sol\":2194:2199  l % 3 */\n      tag_221\n      swap2\n      swap1\n      tag_71\n      jump\t// in\n    tag_221:\n        /* \"contracts/exam-2023-06-30/exam-2023-06-30.sol\":2183:2199  uint row = l % 3 */\n      swap1\n      pop\n        /* \"contracts/exam-2023-06-30/exam-2023-06-30.sol\":2217:2225  uint col */\n      0x00\n        /* \"contracts/exam-2023-06-30/exam-2023-06-30.sol\":2232:2233  3 */\n      0x03\n        /* \"contracts/exam-2023-06-30/exam-2023-06-30.sol\":2228:2229  l */\n      dup4\n        /* \"contracts/exam-2023-06-30/exam-2023-06-30.sol\":2228:2233  l / 3 */\n      tag_222\n      swap2\n      swap1\n      tag_145\n      jump\t// in\n    tag_222:\n        /* \"contracts/exam-2023-06-30/exam-2023-06-30.sol\":2217:2233  uint col = l / 3 */\n      swap1\n      pop\n        /* \"contracts/exam-2023-06-30/exam-2023-06-30.sol\":2274:2286  cardsNumbers */\n      dup6\n        /* \"contracts/exam-2023-06-30/exam-2023-06-30.sol\":2287:2288  l */\n      dup4\n        /* \"contracts/exam-2023-06-30/exam-2023-06-30.sol\":2274:2289  cardsNumbers[l] */\n      dup2\n      mload\n      dup2\n      lt\n      tag_223\n      jumpi\n      tag_224\n      tag_81\n      jump\t// in\n    tag_224:\n    tag_223:\n      0x20\n      mul\n      0x20\n      add\n      add\n      mload\n        /* \"contracts/exam-2023-06-30/exam-2023-06-30.sol\":2251:2255  card */\n      dup5\n        /* \"contracts/exam-2023-06-30/exam-2023-06-30.sol\":2251:2261  card.cells */\n      0x00\n      add\n        /* \"contracts/exam-2023-06-30/exam-2023-06-30.sol\":2262:2265  row */\n      dup4\n        /* \"contracts/exam-2023-06-30/exam-2023-06-30.sol\":2251:2266  card.cells[row] */\n      0x03\n      dup2\n      lt\n      tag_225\n      jumpi\n      tag_226\n      tag_81\n      jump\t// in\n    tag_226:\n    tag_225:\n      add\n        /* \"contracts/exam-2023-06-30/exam-2023-06-30.sol\":2267:2270  col */\n      dup3\n        /* \"contracts/exam-2023-06-30/exam-2023-06-30.sol\":2251:2271  card.cells[row][col] */\n      0x05\n      dup2\n      lt\n      tag_228\n      jumpi\n      tag_229\n      tag_81\n      jump\t// in\n    tag_229:\n    tag_228:\n      0x20\n      swap2\n      dup3\n      dup3\n      div\n      add\n      swap2\n      swap1\n      mod\n        /* \"contracts/exam-2023-06-30/exam-2023-06-30.sol\":2251:2289  card.cells[row][col] = cardsNumbers[l] */\n      0x0100\n      exp\n      dup2\n      sload\n      dup2\n      0xff\n      mul\n      not\n      and\n      swap1\n      dup4\n      0xff\n      and\n      mul\n      or\n      swap1\n      sstore\n      pop\n        /* \"contracts/exam-2023-06-30/exam-2023-06-30.sol\":2165:2304  {... */\n      pop\n      pop\n        /* \"contracts/exam-2023-06-30/exam-2023-06-30.sol\":2160:2163  l++ */\n      dup1\n      dup1\n      0x01\n      add\n      swap2\n      pop\n      pop\n        /* \"contracts/exam-2023-06-30/exam-2023-06-30.sol\":2135:2304  for (uint l = 0; l < 15; l++) {... */\n      jump(tag_218)\n    tag_219:\n      pop\n        /* \"contracts/exam-2023-06-30/exam-2023-06-30.sol\":1465:2314  {... */\n      pop\n        /* \"contracts/exam-2023-06-30/exam-2023-06-30.sol\":1460:1463  i++ */\n      dup1\n      dup1\n      0x01\n      add\n      swap2\n      pop\n      pop\n        /* \"contracts/exam-2023-06-30/exam-2023-06-30.sol\":1430:2314  for(uint i = 0; i<cardsToBuy; i++) {... */\n      jump(tag_194)\n    tag_195:\n      pop\n        /* \"contracts/exam-2023-06-30/exam-2023-06-30.sol\":2328:2367  PurchaseOfCards(msg.sender, cardsToBuy) */\n      0x4a4f8803a153cb465c54a6622248067ab9c67841d3001704c4c5f675c017b521\n        /* \"contracts/exam-2023-06-30/exam-2023-06-30.sol\":2344:2354  msg.sender */\n      caller\n        /* \"contracts/exam-2023-06-30/exam-2023-06-30.sol\":2356:2366  cardsToBuy */\n      dup4\n        /* \"contracts/exam-2023-06-30/exam-2023-06-30.sol\":2328:2367  PurchaseOfCards(msg.sender, cardsToBuy) */\n      mload(0x40)\n      tag_231\n      swap3\n      swap2\n      swap1\n      tag_232\n      jump\t// in\n    tag_231:\n      mload(0x40)\n      dup1\n      swap2\n      sub\n      swap1\n      log1\n        /* \"contracts/exam-2023-06-30/exam-2023-06-30.sol\":952:2374  {... */\n      pop\n      pop\n        /* \"contracts/exam-2023-06-30/exam-2023-06-30.sol\":900:2374  function buyCards() external payable onlyActiveGame {... */\n      jump\t// out\n        /* \"contracts/exam-2023-06-30/exam-2023-06-30.sol\":5836:6090  function isItExtracted(uint8 number) external view returns (bool) {... */\n    tag_22:\n        /* \"contracts/exam-2023-06-30/exam-2023-06-30.sol\":5896:5900  bool */\n      0x00\n        /* \"contracts/exam-2023-06-30/exam-2023-06-30.sol\":5928:5945  GameState.Booking */\n      dup1\n        /* \"contracts/exam-2023-06-30/exam-2023-06-30.sol\":5915:5945  gameState == GameState.Booking */\n      0x02\n      dup2\n      gt\n      iszero\n      tag_234\n      jumpi\n      tag_235\n      tag_51\n      jump\t// in\n    tag_235:\n    tag_234:\n        /* \"contracts/exam-2023-06-30/exam-2023-06-30.sol\":5915:5924  gameState */\n      0x00\n      dup1\n      sload\n      swap1\n      0x0100\n      exp\n      swap1\n      div\n      0xff\n      and\n        /* \"contracts/exam-2023-06-30/exam-2023-06-30.sol\":5915:5945  gameState == GameState.Booking */\n      0x02\n      dup2\n      gt\n      iszero\n      tag_236\n      jumpi\n      tag_237\n      tag_51\n      jump\t// in\n    tag_237:\n    tag_236:\n      sub\n        /* \"contracts/exam-2023-06-30/exam-2023-06-30.sol\":5912:6050  if(gameState == GameState.Booking) {... */\n      tag_238\n      jumpi\n        /* \"contracts/exam-2023-06-30/exam-2023-06-30.sol\":6023:6038  block.timestamp */\n      timestamp\n        /* \"contracts/exam-2023-06-30/exam-2023-06-30.sol\":5997:6020  bookingPeriodExpiration */\n      immutable(\"0x64e604787cbf194841e7b68d7cd28786f6c9a0a3ab9f8b0a0e87cb4387ab0107\")\n        /* \"contracts/exam-2023-06-30/exam-2023-06-30.sol\":5997:6038  bookingPeriodExpiration - block.timestamp */\n      tag_239\n      swap2\n      swap1\n      tag_240\n      jump\t// in\n    tag_239:\n        /* \"contracts/exam-2023-06-30/exam-2023-06-30.sol\":5968:6039  ExtractionPhaseNotYetStarted(bookingPeriodExpiration - block.timestamp) */\n      mload(0x40)\n      0x2d166fa500000000000000000000000000000000000000000000000000000000\n      dup2\n      mstore\n      0x04\n      add\n      tag_241\n      swap2\n      swap1\n      tag_34\n      jump\t// in\n    tag_241:\n      mload(0x40)\n      dup1\n      swap2\n      sub\n      swap1\n      revert\n        /* \"contracts/exam-2023-06-30/exam-2023-06-30.sol\":5912:6050  if(gameState == GameState.Booking) {... */\n    tag_238:\n        /* \"contracts/exam-2023-06-30/exam-2023-06-30.sol\":6066:6075  extracted */\n      0x05\n        /* \"contracts/exam-2023-06-30/exam-2023-06-30.sol\":6066:6083  extracted[number] */\n      0x00\n        /* \"contracts/exam-2023-06-30/exam-2023-06-30.sol\":6076:6082  number */\n      dup4\n        /* \"contracts/exam-2023-06-30/exam-2023-06-30.sol\":6066:6083  extracted[number] */\n      0xff\n      and\n      0xff\n      and\n      dup2\n      mstore\n      0x20\n      add\n      swap1\n      dup2\n      mstore\n      0x20\n      add\n      0x00\n      keccak256\n      0x00\n      swap1\n      sload\n      swap1\n      0x0100\n      exp\n      swap1\n      div\n      0xff\n      and\n        /* \"contracts/exam-2023-06-30/exam-2023-06-30.sol\":6059:6083  return extracted[number] */\n      swap1\n      pop\n        /* \"contracts/exam-2023-06-30/exam-2023-06-30.sol\":5836:6090  function isItExtracted(uint8 number) external view returns (bool) {... */\n      swap2\n      swap1\n      pop\n      jump\t// out\n        /* \"contracts/exam-2023-06-30/exam-2023-06-30.sol\":5286:5383  function getGameState() external view returns (GameState state) {... */\n    tag_27:\n        /* \"contracts/exam-2023-06-30/exam-2023-06-30.sol\":5333:5348  GameState state */\n      0x00\n        /* \"contracts/exam-2023-06-30/exam-2023-06-30.sol\":5367:5376  gameState */\n      dup1\n      0x00\n      swap1\n      sload\n      swap1\n      0x0100\n      exp\n      swap1\n      div\n      0xff\n      and\n        /* \"contracts/exam-2023-06-30/exam-2023-06-30.sol\":5360:5376  return gameState */\n      swap1\n      pop\n        /* \"contracts/exam-2023-06-30/exam-2023-06-30.sol\":5286:5383  function getGameState() external view returns (GameState state) {... */\n      swap1\n      jump\t// out\n        /* \"contracts/exam-2023-06-30/exam-2023-06-30.sol\":5510:5619  function getNumberOfCards() external view returns (uint256 cardsNumber) {... */\n    tag_32:\n        /* \"contracts/exam-2023-06-30/exam-2023-06-30.sol\":5561:5580  uint256 cardsNumber */\n      0x00\n        /* \"contracts/exam-2023-06-30/exam-2023-06-30.sol\":5599:5612  numberOfCards */\n      sload(0x04)\n        /* \"contracts/exam-2023-06-30/exam-2023-06-30.sol\":5592:5612  return numberOfCards */\n      swap1\n      pop\n        /* \"contracts/exam-2023-06-30/exam-2023-06-30.sol\":5510:5619  function getNumberOfCards() external view returns (uint256 cardsNumber) {... */\n      swap1\n      jump\t// out\n        /* \"contracts/exam-2023-06-30/exam-2023-06-30.sol\":5188:5280  function getCardCost() external view returns (uint256 cost) {... */\n    tag_37:\n        /* \"contracts/exam-2023-06-30/exam-2023-06-30.sol\":5234:5246  uint256 cost */\n      0x00\n        /* \"contracts/exam-2023-06-30/exam-2023-06-30.sol\":5265:5273  cardCost */\n      immutable(\"0xb9aa4ff60d3edb7fbc3b53bd780c9274ed80a5ba1a237d38b011edab2b031b4a\")\n        /* \"contracts/exam-2023-06-30/exam-2023-06-30.sol\":5258:5273  return cardCost */\n      swap1\n      pop\n        /* \"contracts/exam-2023-06-30/exam-2023-06-30.sol\":5188:5280  function getCardCost() external view returns (uint256 cost) {... */\n      swap1\n      jump\t// out\n        /* \"contracts/exam-2023-06-30/exam-2023-06-30.sol\":5625:5830  function getMyCards() external view returns (Card[] memory myCards) {... */\n    tag_41:\n        /* \"contracts/exam-2023-06-30/exam-2023-06-30.sol\":5670:5691  Card[] memory myCards */\n      0x60\n        /* \"contracts/exam-2023-06-30/exam-2023-06-30.sol\":5734:5735  0 */\n      0x00\n        /* \"contracts/exam-2023-06-30/exam-2023-06-30.sol\":5706:5711  cards */\n      0x02\n        /* \"contracts/exam-2023-06-30/exam-2023-06-30.sol\":5706:5723  cards[msg.sender] */\n      0x00\n        /* \"contracts/exam-2023-06-30/exam-2023-06-30.sol\":5712:5722  msg.sender */\n      caller\n        /* \"contracts/exam-2023-06-30/exam-2023-06-30.sol\":5706:5723  cards[msg.sender] */\n      0xffffffffffffffffffffffffffffffffffffffff\n      and\n      0xffffffffffffffffffffffffffffffffffffffff\n      and\n      dup2\n      mstore\n      0x20\n      add\n      swap1\n      dup2\n      mstore\n      0x20\n      add\n      0x00\n      keccak256\n        /* \"contracts/exam-2023-06-30/exam-2023-06-30.sol\":5706:5730  cards[msg.sender].length */\n      dup1\n      sload\n      swap1\n      pop\n        /* \"contracts/exam-2023-06-30/exam-2023-06-30.sol\":5706:5735  cards[msg.sender].length == 0 */\n      sub\n        /* \"contracts/exam-2023-06-30/exam-2023-06-30.sol\":5703:5790  if(cards[msg.sender].length == 0) {... */\n      tag_246\n      jumpi\n        /* \"contracts/exam-2023-06-30/exam-2023-06-30.sol\":5758:5779  EnquirerIsNotAGamer() */\n      mload(0x40)\n      0xc298787700000000000000000000000000000000000000000000000000000000\n      dup2\n      mstore\n      0x04\n      add\n      mload(0x40)\n      dup1\n      swap2\n      sub\n      swap1\n      revert\n        /* \"contracts/exam-2023-06-30/exam-2023-06-30.sol\":5703:5790  if(cards[msg.sender].length == 0) {... */\n    tag_246:\n        /* \"contracts/exam-2023-06-30/exam-2023-06-30.sol\":5806:5811  cards */\n      0x02\n        /* \"contracts/exam-2023-06-30/exam-2023-06-30.sol\":5806:5823  cards[msg.sender] */\n      0x00\n        /* \"contracts/exam-2023-06-30/exam-2023-06-30.sol\":5812:5822  msg.sender */\n      caller\n        /* \"contracts/exam-2023-06-30/exam-2023-06-30.sol\":5806:5823  cards[msg.sender] */\n      0xffffffffffffffffffffffffffffffffffffffff\n      and\n      0xffffffffffffffffffffffffffffffffffffffff\n      and\n      dup2\n      mstore\n      0x20\n      add\n      swap1\n      dup2\n      mstore\n      0x20\n      add\n      0x00\n      keccak256\n        /* \"contracts/exam-2023-06-30/exam-2023-06-30.sol\":5799:5823  return cards[msg.sender] */\n      dup1\n      sload\n      dup1\n      0x20\n      mul\n      0x20\n      add\n      mload(0x40)\n      swap1\n      dup2\n      add\n      0x40\n      mstore\n      dup1\n      swap3\n      swap2\n      swap1\n      dup2\n      dup2\n      mstore\n      0x20\n      add\n      0x00\n      swap1\n    tag_247:\n      dup3\n      dup3\n      lt\n      iszero\n      tag_248\n      jumpi\n      dup4\n      dup3\n      swap1\n      0x00\n      mstore\n      keccak256(0x00, 0x20)\n      swap1\n      0x03\n      mul\n      add\n      mload(0x40)\n      dup1\n      0x20\n      add\n      0x40\n      mstore\n      swap1\n      dup2\n      0x00\n      dup3\n      add\n      0x03\n      dup1\n      0x20\n      mul\n      mload(0x40)\n      swap1\n      dup2\n      add\n      0x40\n      mstore\n      dup1\n      swap3\n      swap2\n      swap1\n      0x00\n      swap1\n    tag_250:\n      dup3\n      dup3\n      lt\n      iszero\n      tag_251\n      jumpi\n      dup4\n      dup3\n      add\n      0x05\n      dup1\n      0x20\n      mul\n      mload(0x40)\n      swap1\n      dup2\n      add\n      0x40\n      mstore\n      dup1\n      swap3\n      swap2\n      swap1\n      dup3\n      0x05\n      dup1\n      iszero\n      tag_253\n      jumpi\n      0x20\n      mul\n      dup3\n      add\n      swap2\n      0x00\n      swap1\n    tag_254:\n      dup3\n      dup3\n      swap1\n      sload\n      swap1\n      0x0100\n      exp\n      swap1\n      div\n      0xff\n      and\n      0xff\n      and\n      dup2\n      mstore\n      0x20\n      add\n      swap1\n      0x01\n      add\n      swap1\n      0x20\n      dup3\n      0x00\n      add\n      div\n      swap3\n      dup4\n      add\n      swap3\n      0x01\n      sub\n      dup3\n      mul\n      swap2\n      pop\n      dup1\n      dup5\n      gt\n      tag_254\n      jumpi\n      swap1\n      pop\n    tag_253:\n      pop\n      pop\n      pop\n      pop\n      pop\n      dup2\n      mstore\n      0x20\n      add\n      swap1\n      0x01\n      add\n      swap1\n      jump(tag_250)\n    tag_251:\n      pop\n      pop\n      pop\n      pop\n      dup2\n      mstore\n      pop\n      pop\n      dup2\n      mstore\n      0x20\n      add\n      swap1\n      0x01\n      add\n      swap1\n      jump(tag_247)\n    tag_248:\n      pop\n      pop\n      pop\n      pop\n      swap1\n      pop\n        /* \"contracts/exam-2023-06-30/exam-2023-06-30.sol\":5625:5830  function getMyCards() external view returns (Card[] memory myCards) {... */\n      swap1\n      jump\t// out\n        /* \"contracts/exam-2023-06-30/exam-2023-06-30.sol\":5389:5504  function getNumberOfPlayers() external view returns (uint256 playersNumber) {... */\n    tag_46:\n        /* \"contracts/exam-2023-06-30/exam-2023-06-30.sol\":5442:5463  uint256 playersNumber */\n      0x00\n        /* \"contracts/exam-2023-06-30/exam-2023-06-30.sol\":5482:5497  numberOfPlayers */\n      sload(0x03)\n        /* \"contracts/exam-2023-06-30/exam-2023-06-30.sol\":5475:5497  return numberOfPlayers */\n      swap1\n      pop\n        /* \"contracts/exam-2023-06-30/exam-2023-06-30.sol\":5389:5504  function getNumberOfPlayers() external view returns (uint256 playersNumber) {... */\n      swap1\n      jump\t// out\n        /* \"#utility.yul\":7:93   */\n    tag_256:\n        /* \"#utility.yul\":42:49   */\n      0x00\n        /* \"#utility.yul\":82:86   */\n      0xff\n        /* \"#utility.yul\":75:80   */\n      dup3\n        /* \"#utility.yul\":71:87   */\n      and\n        /* \"#utility.yul\":60:87   */\n      swap1\n      pop\n        /* \"#utility.yul\":7:93   */\n      swap2\n      swap1\n      pop\n      jump\t// out\n        /* \"#utility.yul\":99:211   */\n    tag_257:\n        /* \"#utility.yul\":182:204   */\n      tag_304\n        /* \"#utility.yul\":198:203   */\n      dup2\n        /* \"#utility.yul\":182:204   */\n      tag_256\n      jump\t// in\n    tag_304:\n        /* \"#utility.yul\":177:180   */\n      dup3\n        /* \"#utility.yul\":170:205   */\n      mstore\n        /* \"#utility.yul\":99:211   */\n      pop\n      pop\n      jump\t// out\n        /* \"#utility.yul\":217:431   */\n    tag_15:\n        /* \"#utility.yul\":306:310   */\n      0x00\n        /* \"#utility.yul\":344:346   */\n      0x20\n        /* \"#utility.yul\":333:342   */\n      dup3\n        /* \"#utility.yul\":329:347   */\n      add\n        /* \"#utility.yul\":321:347   */\n      swap1\n      pop\n        /* \"#utility.yul\":357:424   */\n      tag_306\n        /* \"#utility.yul\":421:422   */\n      0x00\n        /* \"#utility.yul\":410:419   */\n      dup4\n        /* \"#utility.yul\":406:423   */\n      add\n        /* \"#utility.yul\":397:403   */\n      dup5\n        /* \"#utility.yul\":357:424   */\n      tag_257\n      jump\t// in\n    tag_306:\n        /* \"#utility.yul\":217:431   */\n      swap3\n      swap2\n      pop\n      pop\n      jump\t// out\n        /* \"#utility.yul\":518:635   */\n    tag_259:\n        /* \"#utility.yul\":627:628   */\n      0x00\n        /* \"#utility.yul\":624:625   */\n      dup1\n        /* \"#utility.yul\":617:629   */\n      revert\n        /* \"#utility.yul\":764:882   */\n    tag_261:\n        /* \"#utility.yul\":835:857   */\n      tag_311\n        /* \"#utility.yul\":851:856   */\n      dup2\n        /* \"#utility.yul\":835:857   */\n      tag_256\n      jump\t// in\n    tag_311:\n        /* \"#utility.yul\":828:833   */\n      dup2\n        /* \"#utility.yul\":825:858   */\n      eq\n        /* \"#utility.yul\":815:876   */\n      tag_312\n      jumpi\n        /* \"#utility.yul\":872:873   */\n      0x00\n        /* \"#utility.yul\":869:870   */\n      dup1\n        /* \"#utility.yul\":862:874   */\n      revert\n        /* \"#utility.yul\":815:876   */\n    tag_312:\n        /* \"#utility.yul\":764:882   */\n      pop\n      jump\t// out\n        /* \"#utility.yul\":888:1023   */\n    tag_262:\n        /* \"#utility.yul\":932:937   */\n      0x00\n        /* \"#utility.yul\":970:976   */\n      dup2\n        /* \"#utility.yul\":957:977   */\n      calldataload\n        /* \"#utility.yul\":948:977   */\n      swap1\n      pop\n        /* \"#utility.yul\":986:1017   */\n      tag_314\n        /* \"#utility.yul\":1011:1016   */\n      dup2\n        /* \"#utility.yul\":986:1017   */\n      tag_261\n      jump\t// in\n    tag_314:\n        /* \"#utility.yul\":888:1023   */\n      swap3\n      swap2\n      pop\n      pop\n      jump\t// out\n        /* \"#utility.yul\":1029:1354   */\n    tag_21:\n        /* \"#utility.yul\":1086:1092   */\n      0x00\n        /* \"#utility.yul\":1135:1137   */\n      0x20\n        /* \"#utility.yul\":1123:1132   */\n      dup3\n        /* \"#utility.yul\":1114:1121   */\n      dup5\n        /* \"#utility.yul\":1110:1133   */\n      sub\n        /* \"#utility.yul\":1106:1138   */\n      slt\n        /* \"#utility.yul\":1103:1222   */\n      iszero\n      tag_316\n      jumpi\n        /* \"#utility.yul\":1141:1220   */\n      tag_317\n      tag_259\n      jump\t// in\n    tag_317:\n        /* \"#utility.yul\":1103:1222   */\n    tag_316:\n        /* \"#utility.yul\":1261:1262   */\n      0x00\n        /* \"#utility.yul\":1286:1337   */\n      tag_318\n        /* \"#utility.yul\":1329:1336   */\n      dup5\n        /* \"#utility.yul\":1320:1326   */\n      dup3\n        /* \"#utility.yul\":1309:1318   */\n      dup6\n        /* \"#utility.yul\":1305:1327   */\n      add\n        /* \"#utility.yul\":1286:1337   */\n      tag_262\n      jump\t// in\n    tag_318:\n        /* \"#utility.yul\":1276:1337   */\n      swap2\n      pop\n        /* \"#utility.yul\":1232:1347   */\n      pop\n        /* \"#utility.yul\":1029:1354   */\n      swap3\n      swap2\n      pop\n      pop\n      jump\t// out\n        /* \"#utility.yul\":1360:1450   */\n    tag_263:\n        /* \"#utility.yul\":1394:1401   */\n      0x00\n        /* \"#utility.yul\":1437:1442   */\n      dup2\n        /* \"#utility.yul\":1430:1443   */\n      iszero\n        /* \"#utility.yul\":1423:1444   */\n      iszero\n        /* \"#utility.yul\":1412:1444   */\n      swap1\n      pop\n        /* \"#utility.yul\":1360:1450   */\n      swap2\n      swap1\n      pop\n      jump\t// out\n        /* \"#utility.yul\":1456:1565   */\n    tag_264:\n        /* \"#utility.yul\":1537:1558   */\n      tag_321\n        /* \"#utility.yul\":1552:1557   */\n      dup2\n        /* \"#utility.yul\":1537:1558   */\n      tag_263\n      jump\t// in\n    tag_321:\n        /* \"#utility.yul\":1532:1535   */\n      dup3\n        /* \"#utility.yul\":1525:1559   */\n      mstore\n        /* \"#utility.yul\":1456:1565   */\n      pop\n      pop\n      jump\t// out\n        /* \"#utility.yul\":1571:1781   */\n    tag_24:\n        /* \"#utility.yul\":1658:1662   */\n      0x00\n        /* \"#utility.yul\":1696:1698   */\n      0x20\n        /* \"#utility.yul\":1685:1694   */\n      dup3\n        /* \"#utility.yul\":1681:1699   */\n      add\n        /* \"#utility.yul\":1673:1699   */\n      swap1\n      pop\n        /* \"#utility.yul\":1709:1774   */\n      tag_323\n        /* \"#utility.yul\":1771:1772   */\n      0x00\n        /* \"#utility.yul\":1760:1769   */\n      dup4\n        /* \"#utility.yul\":1756:1773   */\n      add\n        /* \"#utility.yul\":1747:1753   */\n      dup5\n        /* \"#utility.yul\":1709:1774   */\n      tag_264\n      jump\t// in\n    tag_323:\n        /* \"#utility.yul\":1571:1781   */\n      swap3\n      swap2\n      pop\n      pop\n      jump\t// out\n        /* \"#utility.yul\":1787:1967   */\n    tag_51:\n        /* \"#utility.yul\":1835:1912   */\n      0x4e487b7100000000000000000000000000000000000000000000000000000000\n        /* \"#utility.yul\":1832:1833   */\n      0x00\n        /* \"#utility.yul\":1825:1913   */\n      mstore\n        /* \"#utility.yul\":1932:1936   */\n      0x21\n        /* \"#utility.yul\":1929:1930   */\n      0x04\n        /* \"#utility.yul\":1922:1937   */\n      mstore\n        /* \"#utility.yul\":1956:1960   */\n      0x24\n        /* \"#utility.yul\":1953:1954   */\n      0x00\n        /* \"#utility.yul\":1946:1961   */\n      revert\n        /* \"#utility.yul\":1973:2090   */\n    tag_265:\n        /* \"#utility.yul\":2058:2059   */\n      0x03\n        /* \"#utility.yul\":2051:2056   */\n      dup2\n        /* \"#utility.yul\":2048:2060   */\n      lt\n        /* \"#utility.yul\":2038:2084   */\n      tag_326\n      jumpi\n        /* \"#utility.yul\":2064:2082   */\n      tag_327\n      tag_51\n      jump\t// in\n    tag_327:\n        /* \"#utility.yul\":2038:2084   */\n    tag_326:\n        /* \"#utility.yul\":1973:2090   */\n      pop\n      jump\t// out\n        /* \"#utility.yul\":2096:2231   */\n    tag_266:\n        /* \"#utility.yul\":2145:2152   */\n      0x00\n        /* \"#utility.yul\":2174:2179   */\n      dup2\n        /* \"#utility.yul\":2163:2179   */\n      swap1\n      pop\n        /* \"#utility.yul\":2180:2225   */\n      tag_329\n        /* \"#utility.yul\":2219:2224   */\n      dup3\n        /* \"#utility.yul\":2180:2225   */\n      tag_265\n      jump\t// in\n    tag_329:\n        /* \"#utility.yul\":2096:2231   */\n      swap2\n      swap1\n      pop\n      jump\t// out\n        /* \"#utility.yul\":2237:2372   */\n    tag_267:\n        /* \"#utility.yul\":2297:2306   */\n      0x00\n        /* \"#utility.yul\":2330:2366   */\n      tag_331\n        /* \"#utility.yul\":2360:2365   */\n      dup3\n        /* \"#utility.yul\":2330:2366   */\n      tag_266\n      jump\t// in\n    tag_331:\n        /* \"#utility.yul\":2317:2366   */\n      swap1\n      pop\n        /* \"#utility.yul\":2237:2372   */\n      swap2\n      swap1\n      pop\n      jump\t// out\n        /* \"#utility.yul\":2378:2529   */\n    tag_268:\n        /* \"#utility.yul\":2475:2522   */\n      tag_333\n        /* \"#utility.yul\":2516:2521   */\n      dup2\n        /* \"#utility.yul\":2475:2522   */\n      tag_267\n      jump\t// in\n    tag_333:\n        /* \"#utility.yul\":2470:2473   */\n      dup3\n        /* \"#utility.yul\":2463:2523   */\n      mstore\n        /* \"#utility.yul\":2378:2529   */\n      pop\n      pop\n      jump\t// out\n        /* \"#utility.yul\":2535:2777   */\n    tag_29:\n        /* \"#utility.yul\":2638:2642   */\n      0x00\n        /* \"#utility.yul\":2676:2678   */\n      0x20\n        /* \"#utility.yul\":2665:2674   */\n      dup3\n        /* \"#utility.yul\":2661:2679   */\n      add\n        /* \"#utility.yul\":2653:2679   */\n      swap1\n      pop\n        /* \"#utility.yul\":2689:2770   */\n      tag_335\n        /* \"#utility.yul\":2767:2768   */\n      0x00\n        /* \"#utility.yul\":2756:2765   */\n      dup4\n        /* \"#utility.yul\":2752:2769   */\n      add\n        /* \"#utility.yul\":2743:2749   */\n      dup5\n        /* \"#utility.yul\":2689:2770   */\n      tag_268\n      jump\t// in\n    tag_335:\n        /* \"#utility.yul\":2535:2777   */\n      swap3\n      swap2\n      pop\n      pop\n      jump\t// out\n        /* \"#utility.yul\":2783:2860   */\n    tag_269:\n        /* \"#utility.yul\":2820:2827   */\n      0x00\n        /* \"#utility.yul\":2849:2854   */\n      dup2\n        /* \"#utility.yul\":2838:2854   */\n      swap1\n      pop\n        /* \"#utility.yul\":2783:2860   */\n      swap2\n      swap1\n      pop\n      jump\t// out\n        /* \"#utility.yul\":2866:2984   */\n    tag_270:\n        /* \"#utility.yul\":2953:2977   */\n      tag_338\n        /* \"#utility.yul\":2971:2976   */\n      dup2\n        /* \"#utility.yul\":2953:2977   */\n      tag_269\n      jump\t// in\n    tag_338:\n        /* \"#utility.yul\":2948:2951   */\n      dup3\n        /* \"#utility.yul\":2941:2978   */\n      mstore\n        /* \"#utility.yul\":2866:2984   */\n      pop\n      pop\n      jump\t// out\n        /* \"#utility.yul\":2990:3212   */\n    tag_34:\n        /* \"#utility.yul\":3083:3087   */\n      0x00\n        /* \"#utility.yul\":3121:3123   */\n      0x20\n        /* \"#utility.yul\":3110:3119   */\n      dup3\n        /* \"#utility.yul\":3106:3124   */\n      add\n        /* \"#utility.yul\":3098:3124   */\n      swap1\n      pop\n        /* \"#utility.yul\":3134:3205   */\n      tag_340\n        /* \"#utility.yul\":3202:3203   */\n      0x00\n        /* \"#utility.yul\":3191:3200   */\n      dup4\n        /* \"#utility.yul\":3187:3204   */\n      add\n        /* \"#utility.yul\":3178:3184   */\n      dup5\n        /* \"#utility.yul\":3134:3205   */\n      tag_270\n      jump\t// in\n    tag_340:\n        /* \"#utility.yul\":2990:3212   */\n      swap3\n      swap2\n      pop\n      pop\n      jump\t// out\n        /* \"#utility.yul\":3218:3351   */\n    tag_271:\n        /* \"#utility.yul\":3304:3310   */\n      0x00\n        /* \"#utility.yul\":3338:3343   */\n      dup2\n        /* \"#utility.yul\":3332:3344   */\n      mload\n        /* \"#utility.yul\":3322:3344   */\n      swap1\n      pop\n        /* \"#utility.yul\":3218:3351   */\n      swap2\n      swap1\n      pop\n      jump\t// out\n        /* \"#utility.yul\":3357:3560   */\n    tag_272:\n        /* \"#utility.yul\":3475:3486   */\n      0x00\n        /* \"#utility.yul\":3509:3515   */\n      dup3\n        /* \"#utility.yul\":3504:3507   */\n      dup3\n        /* \"#utility.yul\":3497:3516   */\n      mstore\n        /* \"#utility.yul\":3549:3553   */\n      0x20\n        /* \"#utility.yul\":3544:3547   */\n      dup3\n        /* \"#utility.yul\":3540:3554   */\n      add\n        /* \"#utility.yul\":3525:3554   */\n      swap1\n      pop\n        /* \"#utility.yul\":3357:3560   */\n      swap3\n      swap2\n      pop\n      pop\n      jump\t// out\n        /* \"#utility.yul\":3566:3717   */\n    tag_273:\n        /* \"#utility.yul\":3652:3656   */\n      0x00\n        /* \"#utility.yul\":3675:3678   */\n      dup2\n        /* \"#utility.yul\":3667:3678   */\n      swap1\n      pop\n        /* \"#utility.yul\":3705:3709   */\n      0x20\n        /* \"#utility.yul\":3700:3703   */\n      dup3\n        /* \"#utility.yul\":3696:3710   */\n      add\n        /* \"#utility.yul\":3688:3710   */\n      swap1\n      pop\n        /* \"#utility.yul\":3566:3717   */\n      swap2\n      swap1\n      pop\n      jump\t// out\n        /* \"#utility.yul\":3723:3848   */\n    tag_274:\n        /* \"#utility.yul\":3809:3815   */\n      0x00\n        /* \"#utility.yul\":3837:3841   */\n      0x03\n        /* \"#utility.yul\":3827:3841   */\n      swap1\n      pop\n        /* \"#utility.yul\":3723:3848   */\n      swap2\n      swap1\n      pop\n      jump\t// out\n        /* \"#utility.yul\":3854:4008   */\n    tag_275:\n        /* \"#utility.yul\":3962:3973   */\n      0x00\n        /* \"#utility.yul\":3999:4002   */\n      dup2\n        /* \"#utility.yul\":3984:4002   */\n      swap1\n      pop\n        /* \"#utility.yul\":3854:4008   */\n      swap3\n      swap2\n      pop\n      pop\n      jump\t// out\n        /* \"#utility.yul\":4014:4133   */\n    tag_276:\n        /* \"#utility.yul\":4100:4104   */\n      0x00\n        /* \"#utility.yul\":4123:4126   */\n      dup2\n        /* \"#utility.yul\":4115:4126   */\n      swap1\n      pop\n        /* \"#utility.yul\":4014:4133   */\n      swap2\n      swap1\n      pop\n      jump\t// out\n        /* \"#utility.yul\":4139:4241   */\n    tag_277:\n        /* \"#utility.yul\":4202:4208   */\n      0x00\n        /* \"#utility.yul\":4230:4234   */\n      0x05\n        /* \"#utility.yul\":4220:4234   */\n      swap1\n      pop\n        /* \"#utility.yul\":4139:4241   */\n      swap2\n      swap1\n      pop\n      jump\t// out\n        /* \"#utility.yul\":4247:4378   */\n    tag_278:\n        /* \"#utility.yul\":4332:4343   */\n      0x00\n        /* \"#utility.yul\":4369:4372   */\n      dup2\n        /* \"#utility.yul\":4354:4372   */\n      swap1\n      pop\n        /* \"#utility.yul\":4247:4378   */\n      swap3\n      swap2\n      pop\n      pop\n      jump\t// out\n        /* \"#utility.yul\":4384:4480   */\n    tag_279:\n        /* \"#utility.yul\":4447:4451   */\n      0x00\n        /* \"#utility.yul\":4470:4473   */\n      dup2\n        /* \"#utility.yul\":4462:4473   */\n      swap1\n      pop\n        /* \"#utility.yul\":4384:4480   */\n      swap2\n      swap1\n      pop\n      jump\t// out\n        /* \"#utility.yul\":4486:4588   */\n    tag_280:\n        /* \"#utility.yul\":4559:4581   */\n      tag_351\n        /* \"#utility.yul\":4575:4580   */\n      dup2\n        /* \"#utility.yul\":4559:4581   */\n      tag_256\n      jump\t// in\n    tag_351:\n        /* \"#utility.yul\":4554:4557   */\n      dup3\n        /* \"#utility.yul\":4547:4582   */\n      mstore\n        /* \"#utility.yul\":4486:4588   */\n      pop\n      pop\n      jump\t// out\n        /* \"#utility.yul\":4594:4765   */\n    tag_281:\n        /* \"#utility.yul\":4659:4669   */\n      0x00\n        /* \"#utility.yul\":4680:4722   */\n      tag_353\n        /* \"#utility.yul\":4718:4721   */\n      dup4\n        /* \"#utility.yul\":4710:4716   */\n      dup4\n        /* \"#utility.yul\":4680:4722   */\n      tag_280\n      jump\t// in\n    tag_353:\n        /* \"#utility.yul\":4754:4758   */\n      0x20\n        /* \"#utility.yul\":4749:4752   */\n      dup4\n        /* \"#utility.yul\":4745:4759   */\n      add\n        /* \"#utility.yul\":4731:4759   */\n      swap1\n      pop\n        /* \"#utility.yul\":4594:4765   */\n      swap3\n      swap2\n      pop\n      pop\n      jump\t// out\n        /* \"#utility.yul\":4771:4880   */\n    tag_282:\n        /* \"#utility.yul\":4837:4841   */\n      0x00\n        /* \"#utility.yul\":4869:4873   */\n      0x20\n        /* \"#utility.yul\":4864:4867   */\n      dup3\n        /* \"#utility.yul\":4860:4874   */\n      add\n        /* \"#utility.yul\":4852:4874   */\n      swap1\n      pop\n        /* \"#utility.yul\":4771:4880   */\n      swap2\n      swap1\n      pop\n      jump\t// out\n        /* \"#utility.yul\":4914:5572   */\n    tag_283:\n        /* \"#utility.yul\":5036:5086   */\n      tag_356\n        /* \"#utility.yul\":5080:5085   */\n      dup2\n        /* \"#utility.yul\":5036:5086   */\n      tag_277\n      jump\t// in\n    tag_356:\n        /* \"#utility.yul\":5102:5174   */\n      tag_357\n        /* \"#utility.yul\":5167:5173   */\n      dup2\n        /* \"#utility.yul\":5162:5165   */\n      dup5\n        /* \"#utility.yul\":5102:5174   */\n      tag_278\n      jump\t// in\n    tag_357:\n        /* \"#utility.yul\":5095:5174   */\n      swap3\n      pop\n        /* \"#utility.yul\":5198:5250   */\n      tag_358\n        /* \"#utility.yul\":5244:5249   */\n      dup3\n        /* \"#utility.yul\":5198:5250   */\n      tag_279\n      jump\t// in\n    tag_358:\n        /* \"#utility.yul\":5273:5280   */\n      dup1\n        /* \"#utility.yul\":5304:5305   */\n      0x00\n        /* \"#utility.yul\":5289:5565   */\n    tag_359:\n        /* \"#utility.yul\":5314:5320   */\n      dup4\n        /* \"#utility.yul\":5311:5312   */\n      dup2\n        /* \"#utility.yul\":5308:5321   */\n      lt\n        /* \"#utility.yul\":5289:5565   */\n      iszero\n      tag_361\n      jumpi\n        /* \"#utility.yul\":5390:5396   */\n      dup2\n        /* \"#utility.yul\":5384:5397   */\n      mload\n        /* \"#utility.yul\":5417:5476   */\n      tag_362\n        /* \"#utility.yul\":5472:5475   */\n      dup8\n        /* \"#utility.yul\":5457:5470   */\n      dup3\n        /* \"#utility.yul\":5417:5476   */\n      tag_281\n      jump\t// in\n    tag_362:\n        /* \"#utility.yul\":5410:5476   */\n      swap7\n      pop\n        /* \"#utility.yul\":5499:5555   */\n      tag_363\n        /* \"#utility.yul\":5548:5554   */\n      dup4\n        /* \"#utility.yul\":5499:5555   */\n      tag_282\n      jump\t// in\n    tag_363:\n        /* \"#utility.yul\":5489:5555   */\n      swap3\n      pop\n        /* \"#utility.yul\":5349:5565   */\n      pop\n        /* \"#utility.yul\":5336:5337   */\n      0x01\n        /* \"#utility.yul\":5333:5334   */\n      dup2\n        /* \"#utility.yul\":5329:5338   */\n      add\n        /* \"#utility.yul\":5324:5338   */\n      swap1\n      pop\n        /* \"#utility.yul\":5289:5565   */\n      jump(tag_359)\n    tag_361:\n        /* \"#utility.yul\":5293:5307   */\n      pop\n        /* \"#utility.yul\":5012:5572   */\n      pop\n      pop\n      pop\n        /* \"#utility.yul\":4914:5572   */\n      pop\n      pop\n      jump\t// out\n        /* \"#utility.yul\":5578:5841   */\n    tag_284:\n        /* \"#utility.yul\":5689:5699   */\n      0x00\n        /* \"#utility.yul\":5710:5798   */\n      tag_365\n        /* \"#utility.yul\":5794:5797   */\n      dup4\n        /* \"#utility.yul\":5786:5792   */\n      dup4\n        /* \"#utility.yul\":5710:5798   */\n      tag_283\n      jump\t// in\n    tag_365:\n        /* \"#utility.yul\":5830:5834   */\n      0xa0\n        /* \"#utility.yul\":5825:5828   */\n      dup4\n        /* \"#utility.yul\":5821:5835   */\n      add\n        /* \"#utility.yul\":5807:5835   */\n      swap1\n      pop\n        /* \"#utility.yul\":5578:5841   */\n      swap3\n      swap2\n      pop\n      pop\n      jump\t// out\n        /* \"#utility.yul\":5847:5979   */\n    tag_285:\n        /* \"#utility.yul\":5936:5940   */\n      0x00\n        /* \"#utility.yul\":5968:5972   */\n      0x20\n        /* \"#utility.yul\":5963:5966   */\n      dup3\n        /* \"#utility.yul\":5959:5973   */\n      add\n        /* \"#utility.yul\":5951:5973   */\n      swap1\n      pop\n        /* \"#utility.yul\":5847:5979   */\n      swap2\n      swap1\n      pop\n      jump\t// out\n        /* \"#utility.yul\":6019:6861   */\n    tag_286:\n        /* \"#utility.yul\":6187:6260   */\n      tag_368\n        /* \"#utility.yul\":6254:6259   */\n      dup2\n        /* \"#utility.yul\":6187:6260   */\n      tag_274\n      jump\t// in\n    tag_368:\n        /* \"#utility.yul\":6276:6371   */\n      tag_369\n        /* \"#utility.yul\":6364:6370   */\n      dup2\n        /* \"#utility.yul\":6359:6362   */\n      dup5\n        /* \"#utility.yul\":6276:6371   */\n      tag_275\n      jump\t// in\n    tag_369:\n        /* \"#utility.yul\":6269:6371   */\n      swap3\n      pop\n        /* \"#utility.yul\":6395:6470   */\n      tag_370\n        /* \"#utility.yul\":6464:6469   */\n      dup3\n        /* \"#utility.yul\":6395:6470   */\n      tag_276\n      jump\t// in\n    tag_370:\n        /* \"#utility.yul\":6493:6500   */\n      dup1\n        /* \"#utility.yul\":6524:6525   */\n      0x00\n        /* \"#utility.yul\":6509:6854   */\n    tag_371:\n        /* \"#utility.yul\":6534:6540   */\n      dup4\n        /* \"#utility.yul\":6531:6532   */\n      dup2\n        /* \"#utility.yul\":6528:6541   */\n      lt\n        /* \"#utility.yul\":6509:6854   */\n      iszero\n      tag_373\n      jumpi\n        /* \"#utility.yul\":6610:6616   */\n      dup2\n        /* \"#utility.yul\":6604:6617   */\n      mload\n        /* \"#utility.yul\":6637:6742   */\n      tag_374\n        /* \"#utility.yul\":6738:6741   */\n      dup8\n        /* \"#utility.yul\":6723:6736   */\n      dup3\n        /* \"#utility.yul\":6637:6742   */\n      tag_284\n      jump\t// in\n    tag_374:\n        /* \"#utility.yul\":6630:6742   */\n      swap7\n      pop\n        /* \"#utility.yul\":6765:6844   */\n      tag_375\n        /* \"#utility.yul\":6837:6843   */\n      dup4\n        /* \"#utility.yul\":6765:6844   */\n      tag_285\n      jump\t// in\n    tag_375:\n        /* \"#utility.yul\":6755:6844   */\n      swap3\n      pop\n        /* \"#utility.yul\":6569:6854   */\n      pop\n        /* \"#utility.yul\":6556:6557   */\n      0x01\n        /* \"#utility.yul\":6553:6554   */\n      dup2\n        /* \"#utility.yul\":6549:6558   */\n      add\n        /* \"#utility.yul\":6544:6558   */\n      swap1\n      pop\n        /* \"#utility.yul\":6509:6854   */\n      jump(tag_371)\n    tag_373:\n        /* \"#utility.yul\":6513:6527   */\n      pop\n        /* \"#utility.yul\":6163:6861   */\n      pop\n      pop\n      pop\n        /* \"#utility.yul\":6019:6861   */\n      pop\n      pop\n      jump\t// out\n        /* \"#utility.yul\":6931:7333   */\n    tag_287:\n        /* \"#utility.yul\":7056:7062   */\n      0x01e0\n        /* \"#utility.yul\":7051:7054   */\n      dup3\n        /* \"#utility.yul\":7047:7063   */\n      add\n        /* \"#utility.yul\":7146:7150   */\n      0x00\n        /* \"#utility.yul\":7139:7144   */\n      dup3\n        /* \"#utility.yul\":7135:7151   */\n      add\n        /* \"#utility.yul\":7129:7152   */\n      mload\n        /* \"#utility.yul\":7165:7316   */\n      tag_377\n        /* \"#utility.yul\":7310:7314   */\n      0x00\n        /* \"#utility.yul\":7305:7308   */\n      dup6\n        /* \"#utility.yul\":7301:7315   */\n      add\n        /* \"#utility.yul\":7287:7299   */\n      dup3\n        /* \"#utility.yul\":7165:7316   */\n      tag_286\n      jump\t// in\n    tag_377:\n        /* \"#utility.yul\":7073:7326   */\n      pop\n        /* \"#utility.yul\":7025:7333   */\n      pop\n        /* \"#utility.yul\":6931:7333   */\n      pop\n      pop\n      jump\t// out\n        /* \"#utility.yul\":7339:7596   */\n    tag_288:\n        /* \"#utility.yul\":7446:7456   */\n      0x00\n        /* \"#utility.yul\":7467:7551   */\n      tag_379\n        /* \"#utility.yul\":7547:7550   */\n      dup4\n        /* \"#utility.yul\":7539:7545   */\n      dup4\n        /* \"#utility.yul\":7467:7551   */\n      tag_287\n      jump\t// in\n    tag_379:\n        /* \"#utility.yul\":7583:7589   */\n      0x01e0\n        /* \"#utility.yul\":7578:7581   */\n      dup4\n        /* \"#utility.yul\":7574:7590   */\n      add\n        /* \"#utility.yul\":7560:7590   */\n      swap1\n      pop\n        /* \"#utility.yul\":7339:7596   */\n      swap3\n      swap2\n      pop\n      pop\n      jump\t// out\n        /* \"#utility.yul\":7602:7734   */\n    tag_289:\n        /* \"#utility.yul\":7691:7695   */\n      0x00\n        /* \"#utility.yul\":7723:7727   */\n      0x20\n        /* \"#utility.yul\":7718:7721   */\n      dup3\n        /* \"#utility.yul\":7714:7728   */\n      add\n        /* \"#utility.yul\":7706:7728   */\n      swap1\n      pop\n        /* \"#utility.yul\":7602:7734   */\n      swap2\n      swap1\n      pop\n      jump\t// out\n        /* \"#utility.yul\":7808:8692   */\n    tag_290:\n        /* \"#utility.yul\":7965:7968   */\n      0x00\n        /* \"#utility.yul\":7994:8067   */\n      tag_382\n        /* \"#utility.yul\":8061:8066   */\n      dup3\n        /* \"#utility.yul\":7994:8067   */\n      tag_271\n      jump\t// in\n    tag_382:\n        /* \"#utility.yul\":8083:8188   */\n      tag_383\n        /* \"#utility.yul\":8181:8187   */\n      dup2\n        /* \"#utility.yul\":8176:8179   */\n      dup6\n        /* \"#utility.yul\":8083:8188   */\n      tag_272\n      jump\t// in\n    tag_383:\n        /* \"#utility.yul\":8076:8188   */\n      swap4\n      pop\n        /* \"#utility.yul\":8212:8287   */\n      tag_384\n        /* \"#utility.yul\":8281:8286   */\n      dup4\n        /* \"#utility.yul\":8212:8287   */\n      tag_273\n      jump\t// in\n    tag_384:\n        /* \"#utility.yul\":8310:8317   */\n      dup1\n        /* \"#utility.yul\":8341:8342   */\n      0x00\n        /* \"#utility.yul\":8326:8667   */\n    tag_385:\n        /* \"#utility.yul\":8351:8357   */\n      dup4\n        /* \"#utility.yul\":8348:8349   */\n      dup2\n        /* \"#utility.yul\":8345:8358   */\n      lt\n        /* \"#utility.yul\":8326:8667   */\n      iszero\n      tag_387\n      jumpi\n        /* \"#utility.yul\":8427:8433   */\n      dup2\n        /* \"#utility.yul\":8421:8434   */\n      mload\n        /* \"#utility.yul\":8454:8555   */\n      tag_388\n        /* \"#utility.yul\":8551:8554   */\n      dup9\n        /* \"#utility.yul\":8536:8549   */\n      dup3\n        /* \"#utility.yul\":8454:8555   */\n      tag_288\n      jump\t// in\n    tag_388:\n        /* \"#utility.yul\":8447:8555   */\n      swap8\n      pop\n        /* \"#utility.yul\":8578:8657   */\n      tag_389\n        /* \"#utility.yul\":8650:8656   */\n      dup4\n        /* \"#utility.yul\":8578:8657   */\n      tag_289\n      jump\t// in\n    tag_389:\n        /* \"#utility.yul\":8568:8657   */\n      swap3\n      pop\n        /* \"#utility.yul\":8386:8667   */\n      pop\n        /* \"#utility.yul\":8373:8374   */\n      0x01\n        /* \"#utility.yul\":8370:8371   */\n      dup2\n        /* \"#utility.yul\":8366:8375   */\n      add\n        /* \"#utility.yul\":8361:8375   */\n      swap1\n      pop\n        /* \"#utility.yul\":8326:8667   */\n      jump(tag_385)\n    tag_387:\n        /* \"#utility.yul\":8330:8344   */\n      pop\n        /* \"#utility.yul\":8683:8686   */\n      dup6\n        /* \"#utility.yul\":8676:8686   */\n      swap4\n      pop\n        /* \"#utility.yul\":7970:8692   */\n      pop\n      pop\n      pop\n        /* \"#utility.yul\":7808:8692   */\n      swap3\n      swap2\n      pop\n      pop\n      jump\t// out\n        /* \"#utility.yul\":8698:9147   */\n    tag_43:\n        /* \"#utility.yul\":8879:8883   */\n      0x00\n        /* \"#utility.yul\":8917:8919   */\n      0x20\n        /* \"#utility.yul\":8906:8915   */\n      dup3\n        /* \"#utility.yul\":8902:8920   */\n      add\n        /* \"#utility.yul\":8894:8920   */\n      swap1\n      pop\n        /* \"#utility.yul\":8966:8975   */\n      dup2\n        /* \"#utility.yul\":8960:8964   */\n      dup2\n        /* \"#utility.yul\":8956:8976   */\n      sub\n        /* \"#utility.yul\":8952:8953   */\n      0x00\n        /* \"#utility.yul\":8941:8950   */\n      dup4\n        /* \"#utility.yul\":8937:8954   */\n      add\n        /* \"#utility.yul\":8930:8977   */\n      mstore\n        /* \"#utility.yul\":8994:9140   */\n      tag_391\n        /* \"#utility.yul\":9135:9139   */\n      dup2\n        /* \"#utility.yul\":9126:9132   */\n      dup5\n        /* \"#utility.yul\":8994:9140   */\n      tag_290\n      jump\t// in\n    tag_391:\n        /* \"#utility.yul\":8986:9140   */\n      swap1\n      pop\n        /* \"#utility.yul\":8698:9147   */\n      swap3\n      swap2\n      pop\n      pop\n      jump\t// out\n        /* \"#utility.yul\":9153:9322   */\n    tag_291:\n        /* \"#utility.yul\":9237:9248   */\n      0x00\n        /* \"#utility.yul\":9271:9277   */\n      dup3\n        /* \"#utility.yul\":9266:9269   */\n      dup3\n        /* \"#utility.yul\":9259:9278   */\n      mstore\n        /* \"#utility.yul\":9311:9315   */\n      0x20\n        /* \"#utility.yul\":9306:9309   */\n      dup3\n        /* \"#utility.yul\":9302:9316   */\n      add\n        /* \"#utility.yul\":9287:9316   */\n      swap1\n      pop\n        /* \"#utility.yul\":9153:9322   */\n      swap3\n      swap2\n      pop\n      pop\n      jump\t// out\n        /* \"#utility.yul\":9328:9498   */\n    tag_292:\n        /* \"#utility.yul\":9468:9490   */\n      0x4e6f742065787472616374696f6e207068617365000000000000000000000000\n        /* \"#utility.yul\":9464:9465   */\n      0x00\n        /* \"#utility.yul\":9456:9462   */\n      dup3\n        /* \"#utility.yul\":9452:9466   */\n      add\n        /* \"#utility.yul\":9445:9491   */\n      mstore\n        /* \"#utility.yul\":9328:9498   */\n      pop\n      jump\t// out\n        /* \"#utility.yul\":9504:9870   */\n    tag_293:\n        /* \"#utility.yul\":9646:9649   */\n      0x00\n        /* \"#utility.yul\":9667:9734   */\n      tag_395\n        /* \"#utility.yul\":9731:9733   */\n      0x14\n        /* \"#utility.yul\":9726:9729   */\n      dup4\n        /* \"#utility.yul\":9667:9734   */\n      tag_291\n      jump\t// in\n    tag_395:\n        /* \"#utility.yul\":9660:9734   */\n      swap2\n      pop\n        /* \"#utility.yul\":9743:9836   */\n      tag_396\n        /* \"#utility.yul\":9832:9835   */\n      dup3\n        /* \"#utility.yul\":9743:9836   */\n      tag_292\n      jump\t// in\n    tag_396:\n        /* \"#utility.yul\":9861:9863   */\n      0x20\n        /* \"#utility.yul\":9856:9859   */\n      dup3\n        /* \"#utility.yul\":9852:9864   */\n      add\n        /* \"#utility.yul\":9845:9864   */\n      swap1\n      pop\n        /* \"#utility.yul\":9504:9870   */\n      swap2\n      swap1\n      pop\n      jump\t// out\n        /* \"#utility.yul\":9876:10295   */\n    tag_62:\n        /* \"#utility.yul\":10042:10046   */\n      0x00\n        /* \"#utility.yul\":10080:10082   */\n      0x20\n        /* \"#utility.yul\":10069:10078   */\n      dup3\n        /* \"#utility.yul\":10065:10083   */\n      add\n        /* \"#utility.yul\":10057:10083   */\n      swap1\n      pop\n        /* \"#utility.yul\":10129:10138   */\n      dup2\n        /* \"#utility.yul\":10123:10127   */\n      dup2\n        /* \"#utility.yul\":10119:10139   */\n      sub\n        /* \"#utility.yul\":10115:10116   */\n      0x00\n        /* \"#utility.yul\":10104:10113   */\n      dup4\n        /* \"#utility.yul\":10100:10117   */\n      add\n        /* \"#utility.yul\":10093:10140   */\n      mstore\n        /* \"#utility.yul\":10157:10288   */\n      tag_398\n        /* \"#utility.yul\":10283:10287   */\n      dup2\n        /* \"#utility.yul\":10157:10288   */\n      tag_293\n      jump\t// in\n    tag_398:\n        /* \"#utility.yul\":10149:10288   */\n      swap1\n      pop\n        /* \"#utility.yul\":9876:10295   */\n      swap2\n      swap1\n      pop\n      jump\t// out\n        /* \"#utility.yul\":10301:10481   */\n    tag_294:\n        /* \"#utility.yul\":10349:10426   */\n      0x4e487b7100000000000000000000000000000000000000000000000000000000\n        /* \"#utility.yul\":10346:10347   */\n      0x00\n        /* \"#utility.yul\":10339:10427   */\n      mstore\n        /* \"#utility.yul\":10446:10450   */\n      0x11\n        /* \"#utility.yul\":10443:10444   */\n      0x04\n        /* \"#utility.yul\":10436:10451   */\n      mstore\n        /* \"#utility.yul\":10470:10474   */\n      0x24\n        /* \"#utility.yul\":10467:10468   */\n      0x00\n        /* \"#utility.yul\":10460:10475   */\n      revert\n        /* \"#utility.yul\":10487:10720   */\n    tag_67:\n        /* \"#utility.yul\":10526:10529   */\n      0x00\n        /* \"#utility.yul\":10549:10573   */\n      tag_401\n        /* \"#utility.yul\":10567:10572   */\n      dup3\n        /* \"#utility.yul\":10549:10573   */\n      tag_269\n      jump\t// in\n    tag_401:\n        /* \"#utility.yul\":10540:10573   */\n      swap2\n      pop\n        /* \"#utility.yul\":10595:10661   */\n      0xffffffffffffffffffffffffffffffffffffffffffffffffffffffffffffffff\n        /* \"#utility.yul\":10588:10593   */\n      dup3\n        /* \"#utility.yul\":10585:10662   */\n      sub\n        /* \"#utility.yul\":10582:10685   */\n      tag_402\n      jumpi\n        /* \"#utility.yul\":10665:10683   */\n      tag_403\n      tag_294\n      jump\t// in\n    tag_403:\n        /* \"#utility.yul\":10582:10685   */\n    tag_402:\n        /* \"#utility.yul\":10712:10713   */\n      0x01\n        /* \"#utility.yul\":10705:10710   */\n      dup3\n        /* \"#utility.yul\":10701:10714   */\n      add\n        /* \"#utility.yul\":10694:10714   */\n      swap1\n      pop\n        /* \"#utility.yul\":10487:10720   */\n      swap2\n      swap1\n      pop\n      jump\t// out\n        /* \"#utility.yul\":10726:10805   */\n    tag_295:\n        /* \"#utility.yul\":10765:10772   */\n      0x00\n        /* \"#utility.yul\":10794:10799   */\n      dup2\n        /* \"#utility.yul\":10783:10799   */\n      swap1\n      pop\n        /* \"#utility.yul\":10726:10805   */\n      swap2\n      swap1\n      pop\n      jump\t// out\n        /* \"#utility.yul\":10811:10968   */\n    tag_296:\n        /* \"#utility.yul\":10916:10961   */\n      tag_406\n        /* \"#utility.yul\":10936:10960   */\n      tag_407\n        /* \"#utility.yul\":10954:10959   */\n      dup3\n        /* \"#utility.yul\":10936:10960   */\n      tag_269\n      jump\t// in\n    tag_407:\n        /* \"#utility.yul\":10916:10961   */\n      tag_295\n      jump\t// in\n    tag_406:\n        /* \"#utility.yul\":10911:10914   */\n      dup3\n        /* \"#utility.yul\":10904:10962   */\n      mstore\n        /* \"#utility.yul\":10811:10968   */\n      pop\n      pop\n      jump\t// out\n        /* \"#utility.yul\":10974:11512   */\n    tag_69:\n        /* \"#utility.yul\":11142:11145   */\n      0x00\n        /* \"#utility.yul\":11157:11232   */\n      tag_409\n        /* \"#utility.yul\":11228:11231   */\n      dup3\n        /* \"#utility.yul\":11219:11225   */\n      dup7\n        /* \"#utility.yul\":11157:11232   */\n      tag_296\n      jump\t// in\n    tag_409:\n        /* \"#utility.yul\":11257:11259   */\n      0x20\n        /* \"#utility.yul\":11252:11255   */\n      dup3\n        /* \"#utility.yul\":11248:11260   */\n      add\n        /* \"#utility.yul\":11241:11260   */\n      swap2\n      pop\n        /* \"#utility.yul\":11270:11345   */\n      tag_410\n        /* \"#utility.yul\":11341:11344   */\n      dup3\n        /* \"#utility.yul\":11332:11338   */\n      dup6\n        /* \"#utility.yul\":11270:11345   */\n      tag_296\n      jump\t// in\n    tag_410:\n        /* \"#utility.yul\":11370:11372   */\n      0x20\n        /* \"#utility.yul\":11365:11368   */\n      dup3\n        /* \"#utility.yul\":11361:11373   */\n      add\n        /* \"#utility.yul\":11354:11373   */\n      swap2\n      pop\n        /* \"#utility.yul\":11383:11458   */\n      tag_411\n        /* \"#utility.yul\":11454:11457   */\n      dup3\n        /* \"#utility.yul\":11445:11451   */\n      dup5\n        /* \"#utility.yul\":11383:11458   */\n      tag_296\n      jump\t// in\n    tag_411:\n        /* \"#utility.yul\":11483:11485   */\n      0x20\n        /* \"#utility.yul\":11478:11481   */\n      dup3\n        /* \"#utility.yul\":11474:11486   */\n      add\n        /* \"#utility.yul\":11467:11486   */\n      swap2\n      pop\n        /* \"#utility.yul\":11503:11506   */\n      dup2\n        /* \"#utility.yul\":11496:11506   */\n      swap1\n      pop\n        /* \"#utility.yul\":10974:11512   */\n      swap5\n      swap4\n      pop\n      pop\n      pop\n      pop\n      jump\t// out\n        /* \"#utility.yul\":11518:11698   */\n    tag_297:\n        /* \"#utility.yul\":11566:11643   */\n      0x4e487b7100000000000000000000000000000000000000000000000000000000\n        /* \"#utility.yul\":11563:11564   */\n      0x00\n        /* \"#utility.yul\":11556:11644   */\n      mstore\n        /* \"#utility.yul\":11663:11667   */\n      0x12\n        /* \"#utility.yul\":11660:11661   */\n      0x04\n        /* \"#utility.yul\":11653:11668   */\n      mstore\n        /* \"#utility.yul\":11687:11691   */\n      0x24\n        /* \"#utility.yul\":11684:11685   */\n      0x00\n        /* \"#utility.yul\":11677:11692   */\n      revert\n        /* \"#utility.yul\":11704:11880   */\n    tag_71:\n        /* \"#utility.yul\":11736:11737   */\n      0x00\n        /* \"#utility.yul\":11753:11773   */\n      tag_414\n        /* \"#utility.yul\":11771:11772   */\n      dup3\n        /* \"#utility.yul\":11753:11773   */\n      tag_269\n      jump\t// in\n    tag_414:\n        /* \"#utility.yul\":11748:11773   */\n      swap2\n      pop\n        /* \"#utility.yul\":11787:11807   */\n      tag_415\n        /* \"#utility.yul\":11805:11806   */\n      dup4\n        /* \"#utility.yul\":11787:11807   */\n      tag_269\n      jump\t// in\n    tag_415:\n        /* \"#utility.yul\":11782:11807   */\n      swap3\n      pop\n        /* \"#utility.yul\":11826:11827   */\n      dup3\n        /* \"#utility.yul\":11816:11851   */\n      tag_416\n      jumpi\n        /* \"#utility.yul\":11831:11849   */\n      tag_417\n      tag_297\n      jump\t// in\n    tag_417:\n        /* \"#utility.yul\":11816:11851   */\n    tag_416:\n        /* \"#utility.yul\":11872:11873   */\n      dup3\n        /* \"#utility.yul\":11869:11870   */\n      dup3\n        /* \"#utility.yul\":11865:11874   */\n      mod\n        /* \"#utility.yul\":11860:11874   */\n      swap1\n      pop\n        /* \"#utility.yul\":11704:11880   */\n      swap3\n      swap2\n      pop\n      pop\n      jump\t// out\n        /* \"#utility.yul\":11886:12066   */\n    tag_81:\n        /* \"#utility.yul\":11934:12011   */\n      0x4e487b7100000000000000000000000000000000000000000000000000000000\n        /* \"#utility.yul\":11931:11932   */\n      0x00\n        /* \"#utility.yul\":11924:12012   */\n      mstore\n        /* \"#utility.yul\":12031:12035   */\n      0x32\n        /* \"#utility.yul\":12028:12029   */\n      0x04\n        /* \"#utility.yul\":12021:12036   */\n      mstore\n        /* \"#utility.yul\":12055:12059   */\n      0x24\n        /* \"#utility.yul\":12052:12053   */\n      0x00\n        /* \"#utility.yul\":12045:12060   */\n      revert\n        /* \"#utility.yul\":12072:12252   */\n    tag_91:\n        /* \"#utility.yul\":12120:12197   */\n      0x4e487b7100000000000000000000000000000000000000000000000000000000\n        /* \"#utility.yul\":12117:12118   */\n      0x00\n        /* \"#utility.yul\":12110:12198   */\n      mstore\n        /* \"#utility.yul\":12217:12221   */\n      0x41\n        /* \"#utility.yul\":12214:12215   */\n      0x04\n        /* \"#utility.yul\":12207:12222   */\n      mstore\n        /* \"#utility.yul\":12241:12245   */\n      0x24\n        /* \"#utility.yul\":12238:12239   */\n      0x00\n        /* \"#utility.yul\":12231:12246   */\n      revert\n        /* \"#utility.yul\":12258:12425   */\n    tag_109:\n        /* \"#utility.yul\":12295:12298   */\n      0x00\n        /* \"#utility.yul\":12318:12340   */\n      tag_421\n        /* \"#utility.yul\":12334:12339   */\n      dup3\n        /* \"#utility.yul\":12318:12340   */\n      tag_256\n      jump\t// in\n    tag_421:\n        /* \"#utility.yul\":12309:12340   */\n      swap2\n      pop\n        /* \"#utility.yul\":12362:12366   */\n      0xff\n        /* \"#utility.yul\":12355:12360   */\n      dup3\n        /* \"#utility.yul\":12352:12367   */\n      sub\n        /* \"#utility.yul\":12349:12390   */\n      tag_422\n      jumpi\n        /* \"#utility.yul\":12370:12388   */\n      tag_423\n      tag_294\n      jump\t// in\n    tag_423:\n        /* \"#utility.yul\":12349:12390   */\n    tag_422:\n        /* \"#utility.yul\":12417:12418   */\n      0x01\n        /* \"#utility.yul\":12410:12415   */\n      dup3\n        /* \"#utility.yul\":12406:12419   */\n      add\n        /* \"#utility.yul\":12399:12419   */\n      swap1\n      pop\n        /* \"#utility.yul\":12258:12425   */\n      swap2\n      swap1\n      pop\n      jump\t// out\n        /* \"#utility.yul\":12431:12755   */\n    tag_141:\n        /* \"#utility.yul\":12548:12552   */\n      0x00\n        /* \"#utility.yul\":12586:12588   */\n      0x40\n        /* \"#utility.yul\":12575:12584   */\n      dup3\n        /* \"#utility.yul\":12571:12589   */\n      add\n        /* \"#utility.yul\":12563:12589   */\n      swap1\n      pop\n        /* \"#utility.yul\":12599:12666   */\n      tag_425\n        /* \"#utility.yul\":12663:12664   */\n      0x00\n        /* \"#utility.yul\":12652:12661   */\n      dup4\n        /* \"#utility.yul\":12648:12665   */\n      add\n        /* \"#utility.yul\":12639:12645   */\n      dup6\n        /* \"#utility.yul\":12599:12666   */\n      tag_257\n      jump\t// in\n    tag_425:\n        /* \"#utility.yul\":12676:12748   */\n      tag_426\n        /* \"#utility.yul\":12744:12746   */\n      0x20\n        /* \"#utility.yul\":12733:12742   */\n      dup4\n        /* \"#utility.yul\":12729:12747   */\n      add\n        /* \"#utility.yul\":12720:12726   */\n      dup5\n        /* \"#utility.yul\":12676:12748   */\n      tag_270\n      jump\t// in\n    tag_426:\n        /* \"#utility.yul\":12431:12755   */\n      swap4\n      swap3\n      pop\n      pop\n      pop\n      jump\t// out\n        /* \"#utility.yul\":12761:12946   */\n    tag_145:\n        /* \"#utility.yul\":12801:12802   */\n      0x00\n        /* \"#utility.yul\":12818:12838   */\n      tag_428\n        /* \"#utility.yul\":12836:12837   */\n      dup3\n        /* \"#utility.yul\":12818:12838   */\n      tag_269\n      jump\t// in\n    tag_428:\n        /* \"#utility.yul\":12813:12838   */\n      swap2\n      pop\n        /* \"#utility.yul\":12852:12872   */\n      tag_429\n        /* \"#utility.yul\":12870:12871   */\n      dup4\n        /* \"#utility.yul\":12852:12872   */\n      tag_269\n      jump\t// in\n    tag_429:\n        /* \"#utility.yul\":12847:12872   */\n      swap3\n      pop\n        /* \"#utility.yul\":12891:12892   */\n      dup3\n        /* \"#utility.yul\":12881:12916   */\n      tag_430\n      jumpi\n        /* \"#utility.yul\":12896:12914   */\n      tag_431\n      tag_297\n      jump\t// in\n    tag_431:\n        /* \"#utility.yul\":12881:12916   */\n    tag_430:\n        /* \"#utility.yul\":12938:12939   */\n      dup3\n        /* \"#utility.yul\":12935:12936   */\n      dup3\n        /* \"#utility.yul\":12931:12940   */\n      div\n        /* \"#utility.yul\":12926:12940   */\n      swap1\n      pop\n        /* \"#utility.yul\":12761:12946   */\n      swap3\n      swap2\n      pop\n      pop\n      jump\t// out\n        /* \"#utility.yul\":12952:13362   */\n    tag_147:\n        /* \"#utility.yul\":12992:12999   */\n      0x00\n        /* \"#utility.yul\":13015:13035   */\n      tag_433\n        /* \"#utility.yul\":13033:13034   */\n      dup3\n        /* \"#utility.yul\":13015:13035   */\n      tag_269\n      jump\t// in\n    tag_433:\n        /* \"#utility.yul\":13010:13035   */\n      swap2\n      pop\n        /* \"#utility.yul\":13049:13069   */\n      tag_434\n        /* \"#utility.yul\":13067:13068   */\n      dup4\n        /* \"#utility.yul\":13049:13069   */\n      tag_269\n      jump\t// in\n    tag_434:\n        /* \"#utility.yul\":13044:13069   */\n      swap3\n      pop\n        /* \"#utility.yul\":13104:13105   */\n      dup3\n        /* \"#utility.yul\":13101:13102   */\n      dup3\n        /* \"#utility.yul\":13097:13106   */\n      mul\n        /* \"#utility.yul\":13126:13156   */\n      tag_435\n        /* \"#utility.yul\":13144:13155   */\n      dup2\n        /* \"#utility.yul\":13126:13156   */\n      tag_269\n      jump\t// in\n    tag_435:\n        /* \"#utility.yul\":13115:13156   */\n      swap2\n      pop\n        /* \"#utility.yul\":13305:13306   */\n      dup3\n        /* \"#utility.yul\":13296:13303   */\n      dup3\n        /* \"#utility.yul\":13292:13307   */\n      div\n        /* \"#utility.yul\":13289:13290   */\n      dup5\n        /* \"#utility.yul\":13286:13308   */\n      eq\n        /* \"#utility.yul\":13266:13267   */\n      dup4\n        /* \"#utility.yul\":13259:13268   */\n      iszero\n        /* \"#utility.yul\":13239:13322   */\n      or\n        /* \"#utility.yul\":13216:13355   */\n      tag_436\n      jumpi\n        /* \"#utility.yul\":13335:13353   */\n      tag_437\n      tag_294\n      jump\t// in\n    tag_437:\n        /* \"#utility.yul\":13216:13355   */\n    tag_436:\n        /* \"#utility.yul\":13000:13362   */\n      pop\n        /* \"#utility.yul\":12952:13362   */\n      swap3\n      swap2\n      pop\n      pop\n      jump\t// out\n        /* \"#utility.yul\":13368:13700   */\n    tag_149:\n        /* \"#utility.yul\":13489:13493   */\n      0x00\n        /* \"#utility.yul\":13527:13529   */\n      0x40\n        /* \"#utility.yul\":13516:13525   */\n      dup3\n        /* \"#utility.yul\":13512:13530   */\n      add\n        /* \"#utility.yul\":13504:13530   */\n      swap1\n      pop\n        /* \"#utility.yul\":13540:13611   */\n      tag_439\n        /* \"#utility.yul\":13608:13609   */\n      0x00\n        /* \"#utility.yul\":13597:13606   */\n      dup4\n        /* \"#utility.yul\":13593:13610   */\n      add\n        /* \"#utility.yul\":13584:13590   */\n      dup6\n        /* \"#utility.yul\":13540:13611   */\n      tag_270\n      jump\t// in\n    tag_439:\n        /* \"#utility.yul\":13621:13693   */\n      tag_440\n        /* \"#utility.yul\":13689:13691   */\n      0x20\n        /* \"#utility.yul\":13678:13687   */\n      dup4\n        /* \"#utility.yul\":13674:13692   */\n      add\n        /* \"#utility.yul\":13665:13671   */\n      dup5\n        /* \"#utility.yul\":13621:13693   */\n      tag_270\n      jump\t// in\n    tag_440:\n        /* \"#utility.yul\":13368:13700   */\n      swap4\n      swap3\n      pop\n      pop\n      pop\n      jump\t// out\n        /* \"#utility.yul\":13706:13832   */\n    tag_298:\n        /* \"#utility.yul\":13743:13750   */\n      0x00\n        /* \"#utility.yul\":13783:13825   */\n      0xffffffffffffffffffffffffffffffffffffffff\n        /* \"#utility.yul\":13776:13781   */\n      dup3\n        /* \"#utility.yul\":13772:13826   */\n      and\n        /* \"#utility.yul\":13761:13826   */\n      swap1\n      pop\n        /* \"#utility.yul\":13706:13832   */\n      swap2\n      swap1\n      pop\n      jump\t// out\n        /* \"#utility.yul\":13838:13934   */\n    tag_299:\n        /* \"#utility.yul\":13875:13882   */\n      0x00\n        /* \"#utility.yul\":13904:13928   */\n      tag_443\n        /* \"#utility.yul\":13922:13927   */\n      dup3\n        /* \"#utility.yul\":13904:13928   */\n      tag_298\n      jump\t// in\n    tag_443:\n        /* \"#utility.yul\":13893:13928   */\n      swap1\n      pop\n        /* \"#utility.yul\":13838:13934   */\n      swap2\n      swap1\n      pop\n      jump\t// out\n        /* \"#utility.yul\":13940:14058   */\n    tag_300:\n        /* \"#utility.yul\":14027:14051   */\n      tag_445\n        /* \"#utility.yul\":14045:14050   */\n      dup2\n        /* \"#utility.yul\":14027:14051   */\n      tag_299\n      jump\t// in\n    tag_445:\n        /* \"#utility.yul\":14022:14025   */\n      dup3\n        /* \"#utility.yul\":14015:14052   */\n      mstore\n        /* \"#utility.yul\":13940:14058   */\n      pop\n      pop\n      jump\t// out\n        /* \"#utility.yul\":14064:14396   */\n    tag_160:\n        /* \"#utility.yul\":14185:14189   */\n      0x00\n        /* \"#utility.yul\":14223:14225   */\n      0x40\n        /* \"#utility.yul\":14212:14221   */\n      dup3\n        /* \"#utility.yul\":14208:14226   */\n      add\n        /* \"#utility.yul\":14200:14226   */\n      swap1\n      pop\n        /* \"#utility.yul\":14236:14307   */\n      tag_447\n        /* \"#utility.yul\":14304:14305   */\n      0x00\n        /* \"#utility.yul\":14293:14302   */\n      dup4\n        /* \"#utility.yul\":14289:14306   */\n      add\n        /* \"#utility.yul\":14280:14286   */\n      dup6\n        /* \"#utility.yul\":14236:14307   */\n      tag_270\n      jump\t// in\n    tag_447:\n        /* \"#utility.yul\":14317:14389   */\n      tag_448\n        /* \"#utility.yul\":14385:14387   */\n      0x20\n        /* \"#utility.yul\":14374:14383   */\n      dup4\n        /* \"#utility.yul\":14370:14388   */\n      add\n        /* \"#utility.yul\":14361:14367   */\n      dup5\n        /* \"#utility.yul\":14317:14389   */\n      tag_300\n      jump\t// in\n    tag_448:\n        /* \"#utility.yul\":14064:14396   */\n      swap4\n      swap3\n      pop\n      pop\n      pop\n      jump\t// out\n        /* \"#utility.yul\":14402:14593   */\n    tag_193:\n        /* \"#utility.yul\":14442:14445   */\n      0x00\n        /* \"#utility.yul\":14461:14481   */\n      tag_450\n        /* \"#utility.yul\":14479:14480   */\n      dup3\n        /* \"#utility.yul\":14461:14481   */\n      tag_269\n      jump\t// in\n    tag_450:\n        /* \"#utility.yul\":14456:14481   */\n      swap2\n      pop\n        /* \"#utility.yul\":14495:14515   */\n      tag_451\n        /* \"#utility.yul\":14513:14514   */\n      dup4\n        /* \"#utility.yul\":14495:14515   */\n      tag_269\n      jump\t// in\n    tag_451:\n        /* \"#utility.yul\":14490:14515   */\n      swap3\n      pop\n        /* \"#utility.yul\":14538:14539   */\n      dup3\n        /* \"#utility.yul\":14535:14536   */\n      dup3\n        /* \"#utility.yul\":14531:14540   */\n      add\n        /* \"#utility.yul\":14524:14540   */\n      swap1\n      pop\n        /* \"#utility.yul\":14559:14562   */\n      dup1\n        /* \"#utility.yul\":14556:14557   */\n      dup3\n        /* \"#utility.yul\":14553:14563   */\n      gt\n        /* \"#utility.yul\":14550:14586   */\n      iszero\n      tag_452\n      jumpi\n        /* \"#utility.yul\":14566:14584   */\n      tag_453\n      tag_294\n      jump\t// in\n    tag_453:\n        /* \"#utility.yul\":14550:14586   */\n    tag_452:\n        /* \"#utility.yul\":14402:14593   */\n      swap3\n      swap2\n      pop\n      pop\n      jump\t// out\n        /* \"#utility.yul\":14599:15278   */\n    tag_207:\n        /* \"#utility.yul\":14795:14798   */\n      0x00\n        /* \"#utility.yul\":14810:14885   */\n      tag_455\n        /* \"#utility.yul\":14881:14884   */\n      dup3\n        /* \"#utility.yul\":14872:14878   */\n      dup8\n        /* \"#utility.yul\":14810:14885   */\n      tag_296\n      jump\t// in\n    tag_455:\n        /* \"#utility.yul\":14910:14912   */\n      0x20\n        /* \"#utility.yul\":14905:14908   */\n      dup3\n        /* \"#utility.yul\":14901:14913   */\n      add\n        /* \"#utility.yul\":14894:14913   */\n      swap2\n      pop\n        /* \"#utility.yul\":14923:14998   */\n      tag_456\n        /* \"#utility.yul\":14994:14997   */\n      dup3\n        /* \"#utility.yul\":14985:14991   */\n      dup7\n        /* \"#utility.yul\":14923:14998   */\n      tag_296\n      jump\t// in\n    tag_456:\n        /* \"#utility.yul\":15023:15025   */\n      0x20\n        /* \"#utility.yul\":15018:15021   */\n      dup3\n        /* \"#utility.yul\":15014:15026   */\n      add\n        /* \"#utility.yul\":15007:15026   */\n      swap2\n      pop\n        /* \"#utility.yul\":15036:15111   */\n      tag_457\n        /* \"#utility.yul\":15107:15110   */\n      dup3\n        /* \"#utility.yul\":15098:15104   */\n      dup6\n        /* \"#utility.yul\":15036:15111   */\n      tag_296\n      jump\t// in\n    tag_457:\n        /* \"#utility.yul\":15136:15138   */\n      0x20\n        /* \"#utility.yul\":15131:15134   */\n      dup3\n        /* \"#utility.yul\":15127:15139   */\n      add\n        /* \"#utility.yul\":15120:15139   */\n      swap2\n      pop\n        /* \"#utility.yul\":15149:15224   */\n      tag_458\n        /* \"#utility.yul\":15220:15223   */\n      dup3\n        /* \"#utility.yul\":15211:15217   */\n      dup5\n        /* \"#utility.yul\":15149:15224   */\n      tag_296\n      jump\t// in\n    tag_458:\n        /* \"#utility.yul\":15249:15251   */\n      0x20\n        /* \"#utility.yul\":15244:15247   */\n      dup3\n        /* \"#utility.yul\":15240:15252   */\n      add\n        /* \"#utility.yul\":15233:15252   */\n      swap2\n      pop\n        /* \"#utility.yul\":15269:15272   */\n      dup2\n        /* \"#utility.yul\":15262:15272   */\n      swap1\n      pop\n        /* \"#utility.yul\":14599:15278   */\n      swap6\n      swap5\n      pop\n      pop\n      pop\n      pop\n      pop\n      jump\t// out\n        /* \"#utility.yul\":15284:15616   */\n    tag_232:\n        /* \"#utility.yul\":15405:15409   */\n      0x00\n        /* \"#utility.yul\":15443:15445   */\n      0x40\n        /* \"#utility.yul\":15432:15441   */\n      dup3\n        /* \"#utility.yul\":15428:15446   */\n      add\n        /* \"#utility.yul\":15420:15446   */\n      swap1\n      pop\n        /* \"#utility.yul\":15456:15527   */\n      tag_460\n        /* \"#utility.yul\":15524:15525   */\n      0x00\n        /* \"#utility.yul\":15513:15522   */\n      dup4\n        /* \"#utility.yul\":15509:15526   */\n      add\n        /* \"#utility.yul\":15500:15506   */\n      dup6\n        /* \"#utility.yul\":15456:15527   */\n      tag_300\n      jump\t// in\n    tag_460:\n        /* \"#utility.yul\":15537:15609   */\n      tag_461\n        /* \"#utility.yul\":15605:15607   */\n      0x20\n        /* \"#utility.yul\":15594:15603   */\n      dup4\n        /* \"#utility.yul\":15590:15608   */\n      add\n        /* \"#utility.yul\":15581:15587   */\n      dup5\n        /* \"#utility.yul\":15537:15609   */\n      tag_270\n      jump\t// in\n    tag_461:\n        /* \"#utility.yul\":15284:15616   */\n      swap4\n      swap3\n      pop\n      pop\n      pop\n      jump\t// out\n        /* \"#utility.yul\":15622:15816   */\n    tag_240:\n        /* \"#utility.yul\":15662:15666   */\n      0x00\n        /* \"#utility.yul\":15682:15702   */\n      tag_463\n        /* \"#utility.yul\":15700:15701   */\n      dup3\n        /* \"#utility.yul\":15682:15702   */\n      tag_269\n      jump\t// in\n    tag_463:\n        /* \"#utility.yul\":15677:15702   */\n      swap2\n      pop\n        /* \"#utility.yul\":15716:15736   */\n      tag_464\n        /* \"#utility.yul\":15734:15735   */\n      dup4\n        /* \"#utility.yul\":15716:15736   */\n      tag_269\n      jump\t// in\n    tag_464:\n        /* \"#utility.yul\":15711:15736   */\n      swap3\n      pop\n        /* \"#utility.yul\":15760:15761   */\n      dup3\n        /* \"#utility.yul\":15757:15758   */\n      dup3\n        /* \"#utility.yul\":15753:15762   */\n      sub\n        /* \"#utility.yul\":15745:15762   */\n      swap1\n      pop\n        /* \"#utility.yul\":15784:15785   */\n      dup2\n        /* \"#utility.yul\":15778:15782   */\n      dup2\n        /* \"#utility.yul\":15775:15786   */\n      gt\n        /* \"#utility.yul\":15772:15809   */\n      iszero\n      tag_465\n      jumpi\n        /* \"#utility.yul\":15789:15807   */\n      tag_466\n      tag_294\n      jump\t// in\n    tag_466:\n        /* \"#utility.yul\":15772:15809   */\n    tag_465:\n        /* \"#utility.yul\":15622:15816   */\n      swap3\n      swap2\n      pop\n      pop\n      jump\t// out\n\n    auxdata: 0xa2646970667358221220322c76035c62a8f802a9f7c4049a009feaa89e35d49092dc324d276fcd68671764736f6c634300081a0033\n}\n",
				"bytecode": {
					"linkReferences": {},
					"object": "60c06040525f6003555f6004555f60065f6101000a81548160ff0219169083151502179055505f60085f6101000a81548160ff021916908315150217905550348015610049575f80fd5b50604051611ca8380380611ca8833981810160405281019061006b9190610103565b5f805f6101000a81548160ff0219169083600281111561008e5761008d610141565b5b02179055508060808181525050603c80836100a9919061019b565b6100b3919061019b565b426100be91906101dc565b60a08181525050505061020f565b5f80fd5b5f819050919050565b6100e2816100d0565b81146100ec575f80fd5b50565b5f815190506100fd816100d9565b92915050565b5f8060408385031215610119576101186100cc565b5b5f610126858286016100ef565b9250506020610137858286016100ef565b9150509250929050565b7f4e487b71000000000000000000000000000000000000000000000000000000005f52602160045260245ffd5b7f4e487b71000000000000000000000000000000000000000000000000000000005f52601160045260245ffd5b5f6101a5826100d0565b91506101b0836100d0565b92508282026101be816100d0565b915082820484148315176101d5576101d461016e565b5b5092915050565b5f6101e6826100d0565b91506101f1836100d0565b92508282019050808211156102095761020861016e565b5b92915050565b60805160a051611a636102455f395f610fe201525f8181610bae01528181610bd701528181610c3601526110920152611a635ff3fe60806040526004361061007a575f3560e01c8063c487282c1161004d578063c487282c14610118578063d66a0ffc14610142578063ed92c4bb1461016c578063fd6673f5146101965761007a565b8063109782621461007e57806321870eec146100a8578063873b604e146100b2578063b7d0628b146100ee575b5f80fd5b348015610089575f80fd5b506100926101c0565b60405161009f9190611286565b60405180910390f35b6100b0610ada565b005b3480156100bd575f80fd5b506100d860048036038101906100d391906112cd565b610fa7565b6040516100e59190611312565b60405180910390f35b3480156100f9575f80fd5b50610102611072565b60405161010f919061139e565b60405180910390f35b348015610123575f80fd5b5061012c611086565b60405161013991906113cf565b60405180910390f35b34801561014d575f80fd5b5061015661108f565b60405161016391906113cf565b60405180910390f35b348015610177575f80fd5b506101806110b6565b60405161018d91906115e7565b60405180910390f35b3480156101a1575f80fd5b506101aa611262565b6040516101b791906113cf565b60405180910390f35b5f6002808111156101d4576101d361132b565b5b5f8054906101000a900460ff1660028111156101f3576101f261132b565b5b0361022a576040517f919142bc00000000000000000000000000000000000000000000000000000000815260040160405180910390fd5b6001600281111561023e5761023d61132b565b5b5f8054906101000a900460ff16600281111561025d5761025c61132b565b5b1461029d576040517f08c379a000000000000000000000000000000000000000000000000000000000815260040161029490611661565b60405180910390fd5b5f600190505f5b604b424483806102b3906116ac565b94506040516020016102c793929190611713565b604051602081830303815290604052805190602001205f1c6102e9919061177c565b92505f5b8181101561032f5760055f8560ff1660ff1681526020019081526020015f205f9054906101000a900460ff1615610322575f92505b80806001019150506102ed565b5081156102a457600160055f8560ff1660ff1681526020019081526020015f205f6101000a81548160ff0219169083151502179055505f8091505b6001805490508210156107d1575f6001838154811061038c5761038b6117ac565b5b905f5260205f20015f9054906101000a900473ffffffffffffffffffffffffffffffffffffffff1690505f5b60025f8373ffffffffffffffffffffffffffffffffffffffff1673ffffffffffffffffffffffffffffffffffffffff1681526020019081526020015f20805490508110156107c2575f60025f8473ffffffffffffffffffffffffffffffffffffffff1673ffffffffffffffffffffffffffffffffffffffff1681526020019081526020015f2082815481106104505761044f6117ac565b5b905f5260205f20906003020190505f600367ffffffffffffffff81111561047a576104796117d9565b5b6040519080825280602002602001820160405280156104a85781602001602082028036833780820191505090505b5090505f5b60038110156105ce575f5b60058110156105c05760055f855f0184600381106104d9576104d86117ac565b5b0183600581106104ec576104eb6117ac565b5b602091828204019190069054906101000a900460ff1660ff1660ff1681526020019081526020015f205f9054906101000a900460ff16156105b35782828151811061053a576105396117ac565b5b60200260200101805180919061054f90611806565b60ff1660ff16815250508960ff16845f018360038110610572576105716117ac565b5b018260058110610585576105846117ac565b5b602091828204019190069054906101000a900460ff1660ff16036105b25786806105ae906116ac565b9750505b5b80806001019150506104b8565b5080806001019150506104ad565b5060065f9054906101000a900460ff1615801561065a57506005815f815181106105fb576105fa6117ac565b5b602002602001015160ff1614806106305750600581600181518110610623576106226117ac565b5b602002602001015160ff16145b80610659575060058160028151811061064c5761064b6117ac565b5b602002602001015160ff16145b5b156106c057600784908060018154018082558091505060019003905f5260205f20015f9091909190916101000a81548173ffffffffffffffffffffffffffffffffffffffff021916908373ffffffffffffffffffffffffffffffffffffffff1602179055505b60085f9054906101000a900460ff161580156106f957506005815f815181106106ec576106eb6117ac565b5b602002602001015160ff16145b80156107235750600581600181518110610716576107156117ac565b5b602002602001015160ff16145b801561074d57506005816002815181106107405761073f6117ac565b5b602002602001015160ff16145b156107b357600984908060018154018082558091505060019003905f5260205f20015f9091909190916101000a81548173ffffffffffffffffffffffffffffffffffffffff021916908373ffffffffffffffffffffffffffffffffffffffff1602179055505b505080806001019150506103b8565b5050818060010192505061036a565b7ffa83873dffe3ed5544b8e883cd74a5a292aa4d936df89b0d7bba55cb7804ba18848260405161080292919061182e565b60405180910390a160065f9054906101000a900460ff1615801561082a57505f600780549050115b1561097b575f601e60644761083f9190611855565b6108499190611885565b90507f33ef1e817bb5116dfdc8c1eeca292bec270599a13a70a131c2f045675b033a08816007805490506040516108819291906118c6565b60405180910390a15f6007805490508261089b9190611855565b90505f93505b600780549050841015610978575f600785815481106108c3576108c26117ac565b5b905f5260205f20015f9054906101000a900473ffffffffffffffffffffffffffffffffffffffff1690508073ffffffffffffffffffffffffffffffffffffffff166108fc8390811502906040515f60405180830381858888f19350505050158015610930573d5f803e3d5ffd5b507f9a551b3764bd83fafa1cc7dc9a25869f3c4f2bdd9cc209ce7de6169ac5fa2037828260405161096292919061192c565b60405180910390a15083806001019450506108a1565b50505b60085f9054906101000a900460ff1615801561099b57505f600980549050115b15610ad4575f4790507fa781572f44007e9124da6fa9d747f1c30cc7d7e37bb6d137ca50fb7c6ebb4fe3816007805490506040516109da9291906118c6565b60405180910390a15f600780549050826109f49190611855565b90505f93505b600780549050841015610ad1575f60078581548110610a1c57610a1b6117ac565b5b905f5260205f20015f9054906101000a900473ffffffffffffffffffffffffffffffffffffffff1690508073ffffffffffffffffffffffffffffffffffffffff166108fc8390811502906040515f60405180830381858888f19350505050158015610a89573d5f803e3d5ffd5b507f9a551b3764bd83fafa1cc7dc9a25869f3c4f2bdd9cc209ce7de6169ac5fa20378282604051610abb92919061192c565b60405180910390a15083806001019450506109fa565b50505b50505090565b600280811115610aed57610aec61132b565b5b5f8054906101000a900460ff166002811115610b0c57610b0b61132b565b5b03610b43576040517f919142bc00000000000000000000000000000000000000000000000000000000815260040160405180910390fd5b5f6002811115610b5657610b5561132b565b5b5f8054906101000a900460ff166002811115610b7557610b7461132b565b5b14610bac576040517ffb875c1900000000000000000000000000000000000000000000000000000000815260040160405180910390fd5b7f0000000000000000000000000000000000000000000000000000000000000000341015610c3357347f00000000000000000000000000000000000000000000000000000000000000006040517f9423c2f4000000000000000000000000000000000000000000000000000000008152600401610c2a9291906118c6565b60405180910390fd5b5f7f000000000000000000000000000000000000000000000000000000000000000034610c609190611855565b90505f60025f3373ffffffffffffffffffffffffffffffffffffffff1673ffffffffffffffffffffffffffffffffffffffff1681526020019081526020015f208054905003610d2157600133908060018154018082558091505060019003905f5260205f20015f9091909190916101000a81548173ffffffffffffffffffffffffffffffffffffffff021916908373ffffffffffffffffffffffffffffffffffffffff16021790555060035f815480929190610d1b906116ac565b91905055505b8060045f828254610d329190611953565b9250508190555060605f5b82811015610f6957600f67ffffffffffffffff811115610d6057610d5f6117d9565b5b604051908082528060200260200182016040528015610d8e5781602001602082028036833780820191505090505b5091505f5b600f811015610e60575f600190505f5b604b42448587604051602001610dbc9493929190611986565b604051602081830303815290604052805190602001205f1c610dde919061177c565b90505f5b83811015610e22578160ff16868281518110610e0157610e006117ac565b5b602002602001015160ff1603610e15575f92505b8080600101915050610de2565b508115610da35780858481518110610e3d57610e3c6117ac565b5b602002602001019060ff16908160ff168152505050508080600101915050610d93565b505f60025f3373ffffffffffffffffffffffffffffffffffffffff1673ffffffffffffffffffffffffffffffffffffffff1681526020019081526020015f2060018160018154018082558091505003905f5260205f20906003020190505f5b600f811015610f5a575f600382610ed6919061177c565b90505f600383610ee69190611855565b9050858381518110610efb57610efa6117ac565b5b6020026020010151845f018360038110610f1857610f176117ac565b5b018260058110610f2b57610f2a6117ac565b5b602091828204019190066101000a81548160ff021916908360ff16021790555050508080600101915050610ebf565b50508080600101915050610d3d565b507f4a4f8803a153cb465c54a6622248067ab9c67841d3001704c4c5f675c017b5213383604051610f9b9291906119d3565b60405180910390a15050565b5f806002811115610fbb57610fba61132b565b5b5f8054906101000a900460ff166002811115610fda57610fd961132b565b5b0361104757427f000000000000000000000000000000000000000000000000000000000000000061100b91906119fa565b6040517f2d166fa500000000000000000000000000000000000000000000000000000000815260040161103e91906113cf565b60405180910390fd5b60055f8360ff1660ff1681526020019081526020015f205f9054906101000a900460ff169050919050565b5f805f9054906101000a900460ff16905090565b5f600454905090565b5f7f0000000000000000000000000000000000000000000000000000000000000000905090565b60605f60025f3373ffffffffffffffffffffffffffffffffffffffff1673ffffffffffffffffffffffffffffffffffffffff1681526020019081526020015f208054905003611131576040517fc298787700000000000000000000000000000000000000000000000000000000815260040160405180910390fd5b60025f3373ffffffffffffffffffffffffffffffffffffffff1673ffffffffffffffffffffffffffffffffffffffff1681526020019081526020015f20805480602002602001604051908101604052809291908181526020015f905b82821015611259578382905f5260205f2090600302016040518060200160405290815f8201600380602002604051908101604052809291905f905b828210156112425783820160058060200260405190810160405280929190826005801561122e576020028201915f905b82829054906101000a900460ff1660ff16815260200190600101906020825f010492830192600103820291508084116111f85790505b5050505050815260200190600101906111c8565b50505050815250508152602001906001019061118d565b50505050905090565b5f600354905090565b5f60ff82169050919050565b6112808161126b565b82525050565b5f6020820190506112995f830184611277565b92915050565b5f80fd5b6112ac8161126b565b81146112b6575f80fd5b50565b5f813590506112c7816112a3565b92915050565b5f602082840312156112e2576112e161129f565b5b5f6112ef848285016112b9565b91505092915050565b5f8115159050919050565b61130c816112f8565b82525050565b5f6020820190506113255f830184611303565b92915050565b7f4e487b71000000000000000000000000000000000000000000000000000000005f52602160045260245ffd5b600381106113695761136861132b565b5b50565b5f81905061137982611358565b919050565b5f6113888261136c565b9050919050565b6113988161137e565b82525050565b5f6020820190506113b15f83018461138f565b92915050565b5f819050919050565b6113c9816113b7565b82525050565b5f6020820190506113e25f8301846113c0565b92915050565b5f81519050919050565b5f82825260208201905092915050565b5f819050602082019050919050565b5f60039050919050565b5f81905092915050565b5f819050919050565b5f60059050919050565b5f81905092915050565b5f819050919050565b6114548161126b565b82525050565b5f611465838361144b565b60208301905092915050565b5f602082019050919050565b6114868161142e565b6114908184611438565b925061149b82611442565b805f5b838110156114cb5781516114b2878261145a565b96506114bd83611471565b92505060018101905061149e565b505050505050565b5f6114de838361147d565b60a08301905092915050565b5f602082019050919050565b6114ff81611411565b611509818461141b565b925061151482611425565b805f5b8381101561154457815161152b87826114d3565b9650611536836114ea565b925050600181019050611517565b505050505050565b6101e082015f8201516115615f8501826114f6565b50505050565b5f611572838361154c565b6101e08301905092915050565b5f602082019050919050565b5f611595826113e8565b61159f81856113f2565b93506115aa83611402565b805f5b838110156115da5781516115c18882611567565b97506115cc8361157f565b9250506001810190506115ad565b5085935050505092915050565b5f6020820190508181035f8301526115ff818461158b565b905092915050565b5f82825260208201905092915050565b7f4e6f742065787472616374696f6e2070686173650000000000000000000000005f82015250565b5f61164b601483611607565b915061165682611617565b602082019050919050565b5f6020820190508181035f8301526116788161163f565b9050919050565b7f4e487b71000000000000000000000000000000000000000000000000000000005f52601160045260245ffd5b5f6116b6826113b7565b91507fffffffffffffffffffffffffffffffffffffffffffffffffffffffffffffffff82036116e8576116e761167f565b5b600182019050919050565b5f819050919050565b61170d611708826113b7565b6116f3565b82525050565b5f61171e82866116fc565b60208201915061172e82856116fc565b60208201915061173e82846116fc565b602082019150819050949350505050565b7f4e487b71000000000000000000000000000000000000000000000000000000005f52601260045260245ffd5b5f611786826113b7565b9150611791836113b7565b9250826117a1576117a061174f565b5b828206905092915050565b7f4e487b71000000000000000000000000000000000000000000000000000000005f52603260045260245ffd5b7f4e487b71000000000000000000000000000000000000000000000000000000005f52604160045260245ffd5b5f6118108261126b565b915060ff82036118235761182261167f565b5b600182019050919050565b5f6040820190506118415f830185611277565b61184e60208301846113c0565b9392505050565b5f61185f826113b7565b915061186a836113b7565b92508261187a5761187961174f565b5b828204905092915050565b5f61188f826113b7565b915061189a836113b7565b92508282026118a8816113b7565b915082820484148315176118bf576118be61167f565b5b5092915050565b5f6040820190506118d95f8301856113c0565b6118e660208301846113c0565b9392505050565b5f73ffffffffffffffffffffffffffffffffffffffff82169050919050565b5f611916826118ed565b9050919050565b6119268161190c565b82525050565b5f60408201905061193f5f8301856113c0565b61194c602083018461191d565b9392505050565b5f61195d826113b7565b9150611968836113b7565b92508282019050808211156119805761197f61167f565b5b92915050565b5f61199182876116fc565b6020820191506119a182866116fc565b6020820191506119b182856116fc565b6020820191506119c182846116fc565b60208201915081905095945050505050565b5f6040820190506119e65f83018561191d565b6119f360208301846113c0565b9392505050565b5f611a04826113b7565b9150611a0f836113b7565b9250828203905081811115611a2757611a2661167f565b5b9291505056fea2646970667358221220322c76035c62a8f802a9f7c4049a009feaa89e35d49092dc324d276fcd68671764736f6c634300081a0033",
					"opcodes": "PUSH1 0xC0 PUSH1 0x40 MSTORE PUSH0 PUSH1 0x3 SSTORE PUSH0 PUSH1 0x4 SSTORE PUSH0 PUSH1 0x6 PUSH0 PUSH2 0x100 EXP DUP2 SLOAD DUP2 PUSH1 0xFF MUL NOT AND SWAP1 DUP4 ISZERO ISZERO MUL OR SWAP1 SSTORE POP PUSH0 PUSH1 0x8 PUSH0 PUSH2 0x100 EXP DUP2 SLOAD DUP2 PUSH1 0xFF MUL NOT AND SWAP1 DUP4 ISZERO ISZERO MUL OR SWAP1 SSTORE POP CALLVALUE DUP1 ISZERO PUSH2 0x49 JUMPI PUSH0 DUP1 REVERT JUMPDEST POP PUSH1 0x40 MLOAD PUSH2 0x1CA8 CODESIZE SUB DUP1 PUSH2 0x1CA8 DUP4 CODECOPY DUP2 DUP2 ADD PUSH1 0x40 MSTORE DUP2 ADD SWAP1 PUSH2 0x6B SWAP2 SWAP1 PUSH2 0x103 JUMP JUMPDEST PUSH0 DUP1 PUSH0 PUSH2 0x100 EXP DUP2 SLOAD DUP2 PUSH1 0xFF MUL NOT AND SWAP1 DUP4 PUSH1 0x2 DUP2 GT ISZERO PUSH2 0x8E JUMPI PUSH2 0x8D PUSH2 0x141 JUMP JUMPDEST JUMPDEST MUL OR SWAP1 SSTORE POP DUP1 PUSH1 0x80 DUP2 DUP2 MSTORE POP POP PUSH1 0x3C DUP1 DUP4 PUSH2 0xA9 SWAP2 SWAP1 PUSH2 0x19B JUMP JUMPDEST PUSH2 0xB3 SWAP2 SWAP1 PUSH2 0x19B JUMP JUMPDEST TIMESTAMP PUSH2 0xBE SWAP2 SWAP1 PUSH2 0x1DC JUMP JUMPDEST PUSH1 0xA0 DUP2 DUP2 MSTORE POP POP POP POP PUSH2 0x20F JUMP JUMPDEST PUSH0 DUP1 REVERT JUMPDEST PUSH0 DUP2 SWAP1 POP SWAP2 SWAP1 POP JUMP JUMPDEST PUSH2 0xE2 DUP2 PUSH2 0xD0 JUMP JUMPDEST DUP2 EQ PUSH2 0xEC JUMPI PUSH0 DUP1 REVERT JUMPDEST POP JUMP JUMPDEST PUSH0 DUP2 MLOAD SWAP1 POP PUSH2 0xFD DUP2 PUSH2 0xD9 JUMP JUMPDEST SWAP3 SWAP2 POP POP JUMP JUMPDEST PUSH0 DUP1 PUSH1 0x40 DUP4 DUP6 SUB SLT ISZERO PUSH2 0x119 JUMPI PUSH2 0x118 PUSH2 0xCC JUMP JUMPDEST JUMPDEST PUSH0 PUSH2 0x126 DUP6 DUP3 DUP7 ADD PUSH2 0xEF JUMP JUMPDEST SWAP3 POP POP PUSH1 0x20 PUSH2 0x137 DUP6 DUP3 DUP7 ADD PUSH2 0xEF JUMP JUMPDEST SWAP2 POP POP SWAP3 POP SWAP3 SWAP1 POP JUMP JUMPDEST PUSH32 0x4E487B7100000000000000000000000000000000000000000000000000000000 PUSH0 MSTORE PUSH1 0x21 PUSH1 0x4 MSTORE PUSH1 0x24 PUSH0 REVERT JUMPDEST PUSH32 0x4E487B7100000000000000000000000000000000000000000000000000000000 PUSH0 MSTORE PUSH1 0x11 PUSH1 0x4 MSTORE PUSH1 0x24 PUSH0 REVERT JUMPDEST PUSH0 PUSH2 0x1A5 DUP3 PUSH2 0xD0 JUMP JUMPDEST SWAP2 POP PUSH2 0x1B0 DUP4 PUSH2 0xD0 JUMP JUMPDEST SWAP3 POP DUP3 DUP3 MUL PUSH2 0x1BE DUP2 PUSH2 0xD0 JUMP JUMPDEST SWAP2 POP DUP3 DUP3 DIV DUP5 EQ DUP4 ISZERO OR PUSH2 0x1D5 JUMPI PUSH2 0x1D4 PUSH2 0x16E JUMP JUMPDEST JUMPDEST POP SWAP3 SWAP2 POP POP JUMP JUMPDEST PUSH0 PUSH2 0x1E6 DUP3 PUSH2 0xD0 JUMP JUMPDEST SWAP2 POP PUSH2 0x1F1 DUP4 PUSH2 0xD0 JUMP JUMPDEST SWAP3 POP DUP3 DUP3 ADD SWAP1 POP DUP1 DUP3 GT ISZERO PUSH2 0x209 JUMPI PUSH2 0x208 PUSH2 0x16E JUMP JUMPDEST JUMPDEST SWAP3 SWAP2 POP POP JUMP JUMPDEST PUSH1 0x80 MLOAD PUSH1 0xA0 MLOAD PUSH2 0x1A63 PUSH2 0x245 PUSH0 CODECOPY PUSH0 PUSH2 0xFE2 ADD MSTORE PUSH0 DUP2 DUP2 PUSH2 0xBAE ADD MSTORE DUP2 DUP2 PUSH2 0xBD7 ADD MSTORE DUP2 DUP2 PUSH2 0xC36 ADD MSTORE PUSH2 0x1092 ADD MSTORE PUSH2 0x1A63 PUSH0 RETURN INVALID PUSH1 0x80 PUSH1 0x40 MSTORE PUSH1 0x4 CALLDATASIZE LT PUSH2 0x7A JUMPI PUSH0 CALLDATALOAD PUSH1 0xE0 SHR DUP1 PUSH4 0xC487282C GT PUSH2 0x4D JUMPI DUP1 PUSH4 0xC487282C EQ PUSH2 0x118 JUMPI DUP1 PUSH4 0xD66A0FFC EQ PUSH2 0x142 JUMPI DUP1 PUSH4 0xED92C4BB EQ PUSH2 0x16C JUMPI DUP1 PUSH4 0xFD6673F5 EQ PUSH2 0x196 JUMPI PUSH2 0x7A JUMP JUMPDEST DUP1 PUSH4 0x10978262 EQ PUSH2 0x7E JUMPI DUP1 PUSH4 0x21870EEC EQ PUSH2 0xA8 JUMPI DUP1 PUSH4 0x873B604E EQ PUSH2 0xB2 JUMPI DUP1 PUSH4 0xB7D0628B EQ PUSH2 0xEE JUMPI JUMPDEST PUSH0 DUP1 REVERT JUMPDEST CALLVALUE DUP1 ISZERO PUSH2 0x89 JUMPI PUSH0 DUP1 REVERT JUMPDEST POP PUSH2 0x92 PUSH2 0x1C0 JUMP JUMPDEST PUSH1 0x40 MLOAD PUSH2 0x9F SWAP2 SWAP1 PUSH2 0x1286 JUMP JUMPDEST PUSH1 0x40 MLOAD DUP1 SWAP2 SUB SWAP1 RETURN JUMPDEST PUSH2 0xB0 PUSH2 0xADA JUMP JUMPDEST STOP JUMPDEST CALLVALUE DUP1 ISZERO PUSH2 0xBD JUMPI PUSH0 DUP1 REVERT JUMPDEST POP PUSH2 0xD8 PUSH1 0x4 DUP1 CALLDATASIZE SUB DUP2 ADD SWAP1 PUSH2 0xD3 SWAP2 SWAP1 PUSH2 0x12CD JUMP JUMPDEST PUSH2 0xFA7 JUMP JUMPDEST PUSH1 0x40 MLOAD PUSH2 0xE5 SWAP2 SWAP1 PUSH2 0x1312 JUMP JUMPDEST PUSH1 0x40 MLOAD DUP1 SWAP2 SUB SWAP1 RETURN JUMPDEST CALLVALUE DUP1 ISZERO PUSH2 0xF9 JUMPI PUSH0 DUP1 REVERT JUMPDEST POP PUSH2 0x102 PUSH2 0x1072 JUMP JUMPDEST PUSH1 0x40 MLOAD PUSH2 0x10F SWAP2 SWAP1 PUSH2 0x139E JUMP JUMPDEST PUSH1 0x40 MLOAD DUP1 SWAP2 SUB SWAP1 RETURN JUMPDEST CALLVALUE DUP1 ISZERO PUSH2 0x123 JUMPI PUSH0 DUP1 REVERT JUMPDEST POP PUSH2 0x12C PUSH2 0x1086 JUMP JUMPDEST PUSH1 0x40 MLOAD PUSH2 0x139 SWAP2 SWAP1 PUSH2 0x13CF JUMP JUMPDEST PUSH1 0x40 MLOAD DUP1 SWAP2 SUB SWAP1 RETURN JUMPDEST CALLVALUE DUP1 ISZERO PUSH2 0x14D JUMPI PUSH0 DUP1 REVERT JUMPDEST POP PUSH2 0x156 PUSH2 0x108F JUMP JUMPDEST PUSH1 0x40 MLOAD PUSH2 0x163 SWAP2 SWAP1 PUSH2 0x13CF JUMP JUMPDEST PUSH1 0x40 MLOAD DUP1 SWAP2 SUB SWAP1 RETURN JUMPDEST CALLVALUE DUP1 ISZERO PUSH2 0x177 JUMPI PUSH0 DUP1 REVERT JUMPDEST POP PUSH2 0x180 PUSH2 0x10B6 JUMP JUMPDEST PUSH1 0x40 MLOAD PUSH2 0x18D SWAP2 SWAP1 PUSH2 0x15E7 JUMP JUMPDEST PUSH1 0x40 MLOAD DUP1 SWAP2 SUB SWAP1 RETURN JUMPDEST CALLVALUE DUP1 ISZERO PUSH2 0x1A1 JUMPI PUSH0 DUP1 REVERT JUMPDEST POP PUSH2 0x1AA PUSH2 0x1262 JUMP JUMPDEST PUSH1 0x40 MLOAD PUSH2 0x1B7 SWAP2 SWAP1 PUSH2 0x13CF JUMP JUMPDEST PUSH1 0x40 MLOAD DUP1 SWAP2 SUB SWAP1 RETURN JUMPDEST PUSH0 PUSH1 0x2 DUP1 DUP2 GT ISZERO PUSH2 0x1D4 JUMPI PUSH2 0x1D3 PUSH2 0x132B JUMP JUMPDEST JUMPDEST PUSH0 DUP1 SLOAD SWAP1 PUSH2 0x100 EXP SWAP1 DIV PUSH1 0xFF AND PUSH1 0x2 DUP2 GT ISZERO PUSH2 0x1F3 JUMPI PUSH2 0x1F2 PUSH2 0x132B JUMP JUMPDEST JUMPDEST SUB PUSH2 0x22A JUMPI PUSH1 0x40 MLOAD PUSH32 0x919142BC00000000000000000000000000000000000000000000000000000000 DUP2 MSTORE PUSH1 0x4 ADD PUSH1 0x40 MLOAD DUP1 SWAP2 SUB SWAP1 REVERT JUMPDEST PUSH1 0x1 PUSH1 0x2 DUP2 GT ISZERO PUSH2 0x23E JUMPI PUSH2 0x23D PUSH2 0x132B JUMP JUMPDEST JUMPDEST PUSH0 DUP1 SLOAD SWAP1 PUSH2 0x100 EXP SWAP1 DIV PUSH1 0xFF AND PUSH1 0x2 DUP2 GT ISZERO PUSH2 0x25D JUMPI PUSH2 0x25C PUSH2 0x132B JUMP JUMPDEST JUMPDEST EQ PUSH2 0x29D JUMPI PUSH1 0x40 MLOAD PUSH32 0x8C379A000000000000000000000000000000000000000000000000000000000 DUP2 MSTORE PUSH1 0x4 ADD PUSH2 0x294 SWAP1 PUSH2 0x1661 JUMP JUMPDEST PUSH1 0x40 MLOAD DUP1 SWAP2 SUB SWAP1 REVERT JUMPDEST PUSH0 PUSH1 0x1 SWAP1 POP PUSH0 JUMPDEST PUSH1 0x4B TIMESTAMP PREVRANDAO DUP4 DUP1 PUSH2 0x2B3 SWAP1 PUSH2 0x16AC JUMP JUMPDEST SWAP5 POP PUSH1 0x40 MLOAD PUSH1 0x20 ADD PUSH2 0x2C7 SWAP4 SWAP3 SWAP2 SWAP1 PUSH2 0x1713 JUMP JUMPDEST PUSH1 0x40 MLOAD PUSH1 0x20 DUP2 DUP4 SUB SUB DUP2 MSTORE SWAP1 PUSH1 0x40 MSTORE DUP1 MLOAD SWAP1 PUSH1 0x20 ADD KECCAK256 PUSH0 SHR PUSH2 0x2E9 SWAP2 SWAP1 PUSH2 0x177C JUMP JUMPDEST SWAP3 POP PUSH0 JUMPDEST DUP2 DUP2 LT ISZERO PUSH2 0x32F JUMPI PUSH1 0x5 PUSH0 DUP6 PUSH1 0xFF AND PUSH1 0xFF AND DUP2 MSTORE PUSH1 0x20 ADD SWAP1 DUP2 MSTORE PUSH1 0x20 ADD PUSH0 KECCAK256 PUSH0 SWAP1 SLOAD SWAP1 PUSH2 0x100 EXP SWAP1 DIV PUSH1 0xFF AND ISZERO PUSH2 0x322 JUMPI PUSH0 SWAP3 POP JUMPDEST DUP1 DUP1 PUSH1 0x1 ADD SWAP2 POP POP PUSH2 0x2ED JUMP JUMPDEST POP DUP2 ISZERO PUSH2 0x2A4 JUMPI PUSH1 0x1 PUSH1 0x5 PUSH0 DUP6 PUSH1 0xFF AND PUSH1 0xFF AND DUP2 MSTORE PUSH1 0x20 ADD SWAP1 DUP2 MSTORE PUSH1 0x20 ADD PUSH0 KECCAK256 PUSH0 PUSH2 0x100 EXP DUP2 SLOAD DUP2 PUSH1 0xFF MUL NOT AND SWAP1 DUP4 ISZERO ISZERO MUL OR SWAP1 SSTORE POP PUSH0 DUP1 SWAP2 POP JUMPDEST PUSH1 0x1 DUP1 SLOAD SWAP1 POP DUP3 LT ISZERO PUSH2 0x7D1 JUMPI PUSH0 PUSH1 0x1 DUP4 DUP2 SLOAD DUP2 LT PUSH2 0x38C JUMPI PUSH2 0x38B PUSH2 0x17AC JUMP JUMPDEST JUMPDEST SWAP1 PUSH0 MSTORE PUSH1 0x20 PUSH0 KECCAK256 ADD PUSH0 SWAP1 SLOAD SWAP1 PUSH2 0x100 EXP SWAP1 DIV PUSH20 0xFFFFFFFFFFFFFFFFFFFFFFFFFFFFFFFFFFFFFFFF AND SWAP1 POP PUSH0 JUMPDEST PUSH1 0x2 PUSH0 DUP4 PUSH20 0xFFFFFFFFFFFFFFFFFFFFFFFFFFFFFFFFFFFFFFFF AND PUSH20 0xFFFFFFFFFFFFFFFFFFFFFFFFFFFFFFFFFFFFFFFF AND DUP2 MSTORE PUSH1 0x20 ADD SWAP1 DUP2 MSTORE PUSH1 0x20 ADD PUSH0 KECCAK256 DUP1 SLOAD SWAP1 POP DUP2 LT ISZERO PUSH2 0x7C2 JUMPI PUSH0 PUSH1 0x2 PUSH0 DUP5 PUSH20 0xFFFFFFFFFFFFFFFFFFFFFFFFFFFFFFFFFFFFFFFF AND PUSH20 0xFFFFFFFFFFFFFFFFFFFFFFFFFFFFFFFFFFFFFFFF AND DUP2 MSTORE PUSH1 0x20 ADD SWAP1 DUP2 MSTORE PUSH1 0x20 ADD PUSH0 KECCAK256 DUP3 DUP2 SLOAD DUP2 LT PUSH2 0x450 JUMPI PUSH2 0x44F PUSH2 0x17AC JUMP JUMPDEST JUMPDEST SWAP1 PUSH0 MSTORE PUSH1 0x20 PUSH0 KECCAK256 SWAP1 PUSH1 0x3 MUL ADD SWAP1 POP PUSH0 PUSH1 0x3 PUSH8 0xFFFFFFFFFFFFFFFF DUP2 GT ISZERO PUSH2 0x47A JUMPI PUSH2 0x479 PUSH2 0x17D9 JUMP JUMPDEST JUMPDEST PUSH1 0x40 MLOAD SWAP1 DUP1 DUP3 MSTORE DUP1 PUSH1 0x20 MUL PUSH1 0x20 ADD DUP3 ADD PUSH1 0x40 MSTORE DUP1 ISZERO PUSH2 0x4A8 JUMPI DUP2 PUSH1 0x20 ADD PUSH1 0x20 DUP3 MUL DUP1 CALLDATASIZE DUP4 CALLDATACOPY DUP1 DUP3 ADD SWAP2 POP POP SWAP1 POP JUMPDEST POP SWAP1 POP PUSH0 JUMPDEST PUSH1 0x3 DUP2 LT ISZERO PUSH2 0x5CE JUMPI PUSH0 JUMPDEST PUSH1 0x5 DUP2 LT ISZERO PUSH2 0x5C0 JUMPI PUSH1 0x5 PUSH0 DUP6 PUSH0 ADD DUP5 PUSH1 0x3 DUP2 LT PUSH2 0x4D9 JUMPI PUSH2 0x4D8 PUSH2 0x17AC JUMP JUMPDEST JUMPDEST ADD DUP4 PUSH1 0x5 DUP2 LT PUSH2 0x4EC JUMPI PUSH2 0x4EB PUSH2 0x17AC JUMP JUMPDEST JUMPDEST PUSH1 0x20 SWAP2 DUP3 DUP3 DIV ADD SWAP2 SWAP1 MOD SWAP1 SLOAD SWAP1 PUSH2 0x100 EXP SWAP1 DIV PUSH1 0xFF AND PUSH1 0xFF AND PUSH1 0xFF AND DUP2 MSTORE PUSH1 0x20 ADD SWAP1 DUP2 MSTORE PUSH1 0x20 ADD PUSH0 KECCAK256 PUSH0 SWAP1 SLOAD SWAP1 PUSH2 0x100 EXP SWAP1 DIV PUSH1 0xFF AND ISZERO PUSH2 0x5B3 JUMPI DUP3 DUP3 DUP2 MLOAD DUP2 LT PUSH2 0x53A JUMPI PUSH2 0x539 PUSH2 0x17AC JUMP JUMPDEST JUMPDEST PUSH1 0x20 MUL PUSH1 0x20 ADD ADD DUP1 MLOAD DUP1 SWAP2 SWAP1 PUSH2 0x54F SWAP1 PUSH2 0x1806 JUMP JUMPDEST PUSH1 0xFF AND PUSH1 0xFF AND DUP2 MSTORE POP POP DUP10 PUSH1 0xFF AND DUP5 PUSH0 ADD DUP4 PUSH1 0x3 DUP2 LT PUSH2 0x572 JUMPI PUSH2 0x571 PUSH2 0x17AC JUMP JUMPDEST JUMPDEST ADD DUP3 PUSH1 0x5 DUP2 LT PUSH2 0x585 JUMPI PUSH2 0x584 PUSH2 0x17AC JUMP JUMPDEST JUMPDEST PUSH1 0x20 SWAP2 DUP3 DUP3 DIV ADD SWAP2 SWAP1 MOD SWAP1 SLOAD SWAP1 PUSH2 0x100 EXP SWAP1 DIV PUSH1 0xFF AND PUSH1 0xFF AND SUB PUSH2 0x5B2 JUMPI DUP7 DUP1 PUSH2 0x5AE SWAP1 PUSH2 0x16AC JUMP JUMPDEST SWAP8 POP POP JUMPDEST JUMPDEST DUP1 DUP1 PUSH1 0x1 ADD SWAP2 POP POP PUSH2 0x4B8 JUMP JUMPDEST POP DUP1 DUP1 PUSH1 0x1 ADD SWAP2 POP POP PUSH2 0x4AD JUMP JUMPDEST POP PUSH1 0x6 PUSH0 SWAP1 SLOAD SWAP1 PUSH2 0x100 EXP SWAP1 DIV PUSH1 0xFF AND ISZERO DUP1 ISZERO PUSH2 0x65A JUMPI POP PUSH1 0x5 DUP2 PUSH0 DUP2 MLOAD DUP2 LT PUSH2 0x5FB JUMPI PUSH2 0x5FA PUSH2 0x17AC JUMP JUMPDEST JUMPDEST PUSH1 0x20 MUL PUSH1 0x20 ADD ADD MLOAD PUSH1 0xFF AND EQ DUP1 PUSH2 0x630 JUMPI POP PUSH1 0x5 DUP2 PUSH1 0x1 DUP2 MLOAD DUP2 LT PUSH2 0x623 JUMPI PUSH2 0x622 PUSH2 0x17AC JUMP JUMPDEST JUMPDEST PUSH1 0x20 MUL PUSH1 0x20 ADD ADD MLOAD PUSH1 0xFF AND EQ JUMPDEST DUP1 PUSH2 0x659 JUMPI POP PUSH1 0x5 DUP2 PUSH1 0x2 DUP2 MLOAD DUP2 LT PUSH2 0x64C JUMPI PUSH2 0x64B PUSH2 0x17AC JUMP JUMPDEST JUMPDEST PUSH1 0x20 MUL PUSH1 0x20 ADD ADD MLOAD PUSH1 0xFF AND EQ JUMPDEST JUMPDEST ISZERO PUSH2 0x6C0 JUMPI PUSH1 0x7 DUP5 SWAP1 DUP1 PUSH1 0x1 DUP2 SLOAD ADD DUP1 DUP3 SSTORE DUP1 SWAP2 POP POP PUSH1 0x1 SWAP1 SUB SWAP1 PUSH0 MSTORE PUSH1 0x20 PUSH0 KECCAK256 ADD PUSH0 SWAP1 SWAP2 SWAP1 SWAP2 SWAP1 SWAP2 PUSH2 0x100 EXP DUP2 SLOAD DUP2 PUSH20 0xFFFFFFFFFFFFFFFFFFFFFFFFFFFFFFFFFFFFFFFF MUL NOT AND SWAP1 DUP4 PUSH20 0xFFFFFFFFFFFFFFFFFFFFFFFFFFFFFFFFFFFFFFFF AND MUL OR SWAP1 SSTORE POP JUMPDEST PUSH1 0x8 PUSH0 SWAP1 SLOAD SWAP1 PUSH2 0x100 EXP SWAP1 DIV PUSH1 0xFF AND ISZERO DUP1 ISZERO PUSH2 0x6F9 JUMPI POP PUSH1 0x5 DUP2 PUSH0 DUP2 MLOAD DUP2 LT PUSH2 0x6EC JUMPI PUSH2 0x6EB PUSH2 0x17AC JUMP JUMPDEST JUMPDEST PUSH1 0x20 MUL PUSH1 0x20 ADD ADD MLOAD PUSH1 0xFF AND EQ JUMPDEST DUP1 ISZERO PUSH2 0x723 JUMPI POP PUSH1 0x5 DUP2 PUSH1 0x1 DUP2 MLOAD DUP2 LT PUSH2 0x716 JUMPI PUSH2 0x715 PUSH2 0x17AC JUMP JUMPDEST JUMPDEST PUSH1 0x20 MUL PUSH1 0x20 ADD ADD MLOAD PUSH1 0xFF AND EQ JUMPDEST DUP1 ISZERO PUSH2 0x74D JUMPI POP PUSH1 0x5 DUP2 PUSH1 0x2 DUP2 MLOAD DUP2 LT PUSH2 0x740 JUMPI PUSH2 0x73F PUSH2 0x17AC JUMP JUMPDEST JUMPDEST PUSH1 0x20 MUL PUSH1 0x20 ADD ADD MLOAD PUSH1 0xFF AND EQ JUMPDEST ISZERO PUSH2 0x7B3 JUMPI PUSH1 0x9 DUP5 SWAP1 DUP1 PUSH1 0x1 DUP2 SLOAD ADD DUP1 DUP3 SSTORE DUP1 SWAP2 POP POP PUSH1 0x1 SWAP1 SUB SWAP1 PUSH0 MSTORE PUSH1 0x20 PUSH0 KECCAK256 ADD PUSH0 SWAP1 SWAP2 SWAP1 SWAP2 SWAP1 SWAP2 PUSH2 0x100 EXP DUP2 SLOAD DUP2 PUSH20 0xFFFFFFFFFFFFFFFFFFFFFFFFFFFFFFFFFFFFFFFF MUL NOT AND SWAP1 DUP4 PUSH20 0xFFFFFFFFFFFFFFFFFFFFFFFFFFFFFFFFFFFFFFFF AND MUL OR SWAP1 SSTORE POP JUMPDEST POP POP DUP1 DUP1 PUSH1 0x1 ADD SWAP2 POP POP PUSH2 0x3B8 JUMP JUMPDEST POP POP DUP2 DUP1 PUSH1 0x1 ADD SWAP3 POP POP PUSH2 0x36A JUMP JUMPDEST PUSH32 0xFA83873DFFE3ED5544B8E883CD74A5A292AA4D936DF89B0D7BBA55CB7804BA18 DUP5 DUP3 PUSH1 0x40 MLOAD PUSH2 0x802 SWAP3 SWAP2 SWAP1 PUSH2 0x182E JUMP JUMPDEST PUSH1 0x40 MLOAD DUP1 SWAP2 SUB SWAP1 LOG1 PUSH1 0x6 PUSH0 SWAP1 SLOAD SWAP1 PUSH2 0x100 EXP SWAP1 DIV PUSH1 0xFF AND ISZERO DUP1 ISZERO PUSH2 0x82A JUMPI POP PUSH0 PUSH1 0x7 DUP1 SLOAD SWAP1 POP GT JUMPDEST ISZERO PUSH2 0x97B JUMPI PUSH0 PUSH1 0x1E PUSH1 0x64 SELFBALANCE PUSH2 0x83F SWAP2 SWAP1 PUSH2 0x1855 JUMP JUMPDEST PUSH2 0x849 SWAP2 SWAP1 PUSH2 0x1885 JUMP JUMPDEST SWAP1 POP PUSH32 0x33EF1E817BB5116DFDC8C1EECA292BEC270599A13A70A131C2F045675B033A08 DUP2 PUSH1 0x7 DUP1 SLOAD SWAP1 POP PUSH1 0x40 MLOAD PUSH2 0x881 SWAP3 SWAP2 SWAP1 PUSH2 0x18C6 JUMP JUMPDEST PUSH1 0x40 MLOAD DUP1 SWAP2 SUB SWAP1 LOG1 PUSH0 PUSH1 0x7 DUP1 SLOAD SWAP1 POP DUP3 PUSH2 0x89B SWAP2 SWAP1 PUSH2 0x1855 JUMP JUMPDEST SWAP1 POP PUSH0 SWAP4 POP JUMPDEST PUSH1 0x7 DUP1 SLOAD SWAP1 POP DUP5 LT ISZERO PUSH2 0x978 JUMPI PUSH0 PUSH1 0x7 DUP6 DUP2 SLOAD DUP2 LT PUSH2 0x8C3 JUMPI PUSH2 0x8C2 PUSH2 0x17AC JUMP JUMPDEST JUMPDEST SWAP1 PUSH0 MSTORE PUSH1 0x20 PUSH0 KECCAK256 ADD PUSH0 SWAP1 SLOAD SWAP1 PUSH2 0x100 EXP SWAP1 DIV PUSH20 0xFFFFFFFFFFFFFFFFFFFFFFFFFFFFFFFFFFFFFFFF AND SWAP1 POP DUP1 PUSH20 0xFFFFFFFFFFFFFFFFFFFFFFFFFFFFFFFFFFFFFFFF AND PUSH2 0x8FC DUP4 SWAP1 DUP2 ISZERO MUL SWAP1 PUSH1 0x40 MLOAD PUSH0 PUSH1 0x40 MLOAD DUP1 DUP4 SUB DUP2 DUP6 DUP9 DUP9 CALL SWAP4 POP POP POP POP ISZERO DUP1 ISZERO PUSH2 0x930 JUMPI RETURNDATASIZE PUSH0 DUP1 RETURNDATACOPY RETURNDATASIZE PUSH0 REVERT JUMPDEST POP PUSH32 0x9A551B3764BD83FAFA1CC7DC9A25869F3C4F2BDD9CC209CE7DE6169AC5FA2037 DUP3 DUP3 PUSH1 0x40 MLOAD PUSH2 0x962 SWAP3 SWAP2 SWAP1 PUSH2 0x192C JUMP JUMPDEST PUSH1 0x40 MLOAD DUP1 SWAP2 SUB SWAP1 LOG1 POP DUP4 DUP1 PUSH1 0x1 ADD SWAP5 POP POP PUSH2 0x8A1 JUMP JUMPDEST POP POP JUMPDEST PUSH1 0x8 PUSH0 SWAP1 SLOAD SWAP1 PUSH2 0x100 EXP SWAP1 DIV PUSH1 0xFF AND ISZERO DUP1 ISZERO PUSH2 0x99B JUMPI POP PUSH0 PUSH1 0x9 DUP1 SLOAD SWAP1 POP GT JUMPDEST ISZERO PUSH2 0xAD4 JUMPI PUSH0 SELFBALANCE SWAP1 POP PUSH32 0xA781572F44007E9124DA6FA9D747F1C30CC7D7E37BB6D137CA50FB7C6EBB4FE3 DUP2 PUSH1 0x7 DUP1 SLOAD SWAP1 POP PUSH1 0x40 MLOAD PUSH2 0x9DA SWAP3 SWAP2 SWAP1 PUSH2 0x18C6 JUMP JUMPDEST PUSH1 0x40 MLOAD DUP1 SWAP2 SUB SWAP1 LOG1 PUSH0 PUSH1 0x7 DUP1 SLOAD SWAP1 POP DUP3 PUSH2 0x9F4 SWAP2 SWAP1 PUSH2 0x1855 JUMP JUMPDEST SWAP1 POP PUSH0 SWAP4 POP JUMPDEST PUSH1 0x7 DUP1 SLOAD SWAP1 POP DUP5 LT ISZERO PUSH2 0xAD1 JUMPI PUSH0 PUSH1 0x7 DUP6 DUP2 SLOAD DUP2 LT PUSH2 0xA1C JUMPI PUSH2 0xA1B PUSH2 0x17AC JUMP JUMPDEST JUMPDEST SWAP1 PUSH0 MSTORE PUSH1 0x20 PUSH0 KECCAK256 ADD PUSH0 SWAP1 SLOAD SWAP1 PUSH2 0x100 EXP SWAP1 DIV PUSH20 0xFFFFFFFFFFFFFFFFFFFFFFFFFFFFFFFFFFFFFFFF AND SWAP1 POP DUP1 PUSH20 0xFFFFFFFFFFFFFFFFFFFFFFFFFFFFFFFFFFFFFFFF AND PUSH2 0x8FC DUP4 SWAP1 DUP2 ISZERO MUL SWAP1 PUSH1 0x40 MLOAD PUSH0 PUSH1 0x40 MLOAD DUP1 DUP4 SUB DUP2 DUP6 DUP9 DUP9 CALL SWAP4 POP POP POP POP ISZERO DUP1 ISZERO PUSH2 0xA89 JUMPI RETURNDATASIZE PUSH0 DUP1 RETURNDATACOPY RETURNDATASIZE PUSH0 REVERT JUMPDEST POP PUSH32 0x9A551B3764BD83FAFA1CC7DC9A25869F3C4F2BDD9CC209CE7DE6169AC5FA2037 DUP3 DUP3 PUSH1 0x40 MLOAD PUSH2 0xABB SWAP3 SWAP2 SWAP1 PUSH2 0x192C JUMP JUMPDEST PUSH1 0x40 MLOAD DUP1 SWAP2 SUB SWAP1 LOG1 POP DUP4 DUP1 PUSH1 0x1 ADD SWAP5 POP POP PUSH2 0x9FA JUMP JUMPDEST POP POP JUMPDEST POP POP POP SWAP1 JUMP JUMPDEST PUSH1 0x2 DUP1 DUP2 GT ISZERO PUSH2 0xAED JUMPI PUSH2 0xAEC PUSH2 0x132B JUMP JUMPDEST JUMPDEST PUSH0 DUP1 SLOAD SWAP1 PUSH2 0x100 EXP SWAP1 DIV PUSH1 0xFF AND PUSH1 0x2 DUP2 GT ISZERO PUSH2 0xB0C JUMPI PUSH2 0xB0B PUSH2 0x132B JUMP JUMPDEST JUMPDEST SUB PUSH2 0xB43 JUMPI PUSH1 0x40 MLOAD PUSH32 0x919142BC00000000000000000000000000000000000000000000000000000000 DUP2 MSTORE PUSH1 0x4 ADD PUSH1 0x40 MLOAD DUP1 SWAP2 SUB SWAP1 REVERT JUMPDEST PUSH0 PUSH1 0x2 DUP2 GT ISZERO PUSH2 0xB56 JUMPI PUSH2 0xB55 PUSH2 0x132B JUMP JUMPDEST JUMPDEST PUSH0 DUP1 SLOAD SWAP1 PUSH2 0x100 EXP SWAP1 DIV PUSH1 0xFF AND PUSH1 0x2 DUP2 GT ISZERO PUSH2 0xB75 JUMPI PUSH2 0xB74 PUSH2 0x132B JUMP JUMPDEST JUMPDEST EQ PUSH2 0xBAC JUMPI PUSH1 0x40 MLOAD PUSH32 0xFB875C1900000000000000000000000000000000000000000000000000000000 DUP2 MSTORE PUSH1 0x4 ADD PUSH1 0x40 MLOAD DUP1 SWAP2 SUB SWAP1 REVERT JUMPDEST PUSH32 0x0 CALLVALUE LT ISZERO PUSH2 0xC33 JUMPI CALLVALUE PUSH32 0x0 PUSH1 0x40 MLOAD PUSH32 0x9423C2F400000000000000000000000000000000000000000000000000000000 DUP2 MSTORE PUSH1 0x4 ADD PUSH2 0xC2A SWAP3 SWAP2 SWAP1 PUSH2 0x18C6 JUMP JUMPDEST PUSH1 0x40 MLOAD DUP1 SWAP2 SUB SWAP1 REVERT JUMPDEST PUSH0 PUSH32 0x0 CALLVALUE PUSH2 0xC60 SWAP2 SWAP1 PUSH2 0x1855 JUMP JUMPDEST SWAP1 POP PUSH0 PUSH1 0x2 PUSH0 CALLER PUSH20 0xFFFFFFFFFFFFFFFFFFFFFFFFFFFFFFFFFFFFFFFF AND PUSH20 0xFFFFFFFFFFFFFFFFFFFFFFFFFFFFFFFFFFFFFFFF AND DUP2 MSTORE PUSH1 0x20 ADD SWAP1 DUP2 MSTORE PUSH1 0x20 ADD PUSH0 KECCAK256 DUP1 SLOAD SWAP1 POP SUB PUSH2 0xD21 JUMPI PUSH1 0x1 CALLER SWAP1 DUP1 PUSH1 0x1 DUP2 SLOAD ADD DUP1 DUP3 SSTORE DUP1 SWAP2 POP POP PUSH1 0x1 SWAP1 SUB SWAP1 PUSH0 MSTORE PUSH1 0x20 PUSH0 KECCAK256 ADD PUSH0 SWAP1 SWAP2 SWAP1 SWAP2 SWAP1 SWAP2 PUSH2 0x100 EXP DUP2 SLOAD DUP2 PUSH20 0xFFFFFFFFFFFFFFFFFFFFFFFFFFFFFFFFFFFFFFFF MUL NOT AND SWAP1 DUP4 PUSH20 0xFFFFFFFFFFFFFFFFFFFFFFFFFFFFFFFFFFFFFFFF AND MUL OR SWAP1 SSTORE POP PUSH1 0x3 PUSH0 DUP2 SLOAD DUP1 SWAP3 SWAP2 SWAP1 PUSH2 0xD1B SWAP1 PUSH2 0x16AC JUMP JUMPDEST SWAP2 SWAP1 POP SSTORE POP JUMPDEST DUP1 PUSH1 0x4 PUSH0 DUP3 DUP3 SLOAD PUSH2 0xD32 SWAP2 SWAP1 PUSH2 0x1953 JUMP JUMPDEST SWAP3 POP POP DUP2 SWAP1 SSTORE POP PUSH1 0x60 PUSH0 JUMPDEST DUP3 DUP2 LT ISZERO PUSH2 0xF69 JUMPI PUSH1 0xF PUSH8 0xFFFFFFFFFFFFFFFF DUP2 GT ISZERO PUSH2 0xD60 JUMPI PUSH2 0xD5F PUSH2 0x17D9 JUMP JUMPDEST JUMPDEST PUSH1 0x40 MLOAD SWAP1 DUP1 DUP3 MSTORE DUP1 PUSH1 0x20 MUL PUSH1 0x20 ADD DUP3 ADD PUSH1 0x40 MSTORE DUP1 ISZERO PUSH2 0xD8E JUMPI DUP2 PUSH1 0x20 ADD PUSH1 0x20 DUP3 MUL DUP1 CALLDATASIZE DUP4 CALLDATACOPY DUP1 DUP3 ADD SWAP2 POP POP SWAP1 POP JUMPDEST POP SWAP2 POP PUSH0 JUMPDEST PUSH1 0xF DUP2 LT ISZERO PUSH2 0xE60 JUMPI PUSH0 PUSH1 0x1 SWAP1 POP PUSH0 JUMPDEST PUSH1 0x4B TIMESTAMP PREVRANDAO DUP6 DUP8 PUSH1 0x40 MLOAD PUSH1 0x20 ADD PUSH2 0xDBC SWAP5 SWAP4 SWAP3 SWAP2 SWAP1 PUSH2 0x1986 JUMP JUMPDEST PUSH1 0x40 MLOAD PUSH1 0x20 DUP2 DUP4 SUB SUB DUP2 MSTORE SWAP1 PUSH1 0x40 MSTORE DUP1 MLOAD SWAP1 PUSH1 0x20 ADD KECCAK256 PUSH0 SHR PUSH2 0xDDE SWAP2 SWAP1 PUSH2 0x177C JUMP JUMPDEST SWAP1 POP PUSH0 JUMPDEST DUP4 DUP2 LT ISZERO PUSH2 0xE22 JUMPI DUP2 PUSH1 0xFF AND DUP7 DUP3 DUP2 MLOAD DUP2 LT PUSH2 0xE01 JUMPI PUSH2 0xE00 PUSH2 0x17AC JUMP JUMPDEST JUMPDEST PUSH1 0x20 MUL PUSH1 0x20 ADD ADD MLOAD PUSH1 0xFF AND SUB PUSH2 0xE15 JUMPI PUSH0 SWAP3 POP JUMPDEST DUP1 DUP1 PUSH1 0x1 ADD SWAP2 POP POP PUSH2 0xDE2 JUMP JUMPDEST POP DUP2 ISZERO PUSH2 0xDA3 JUMPI DUP1 DUP6 DUP5 DUP2 MLOAD DUP2 LT PUSH2 0xE3D JUMPI PUSH2 0xE3C PUSH2 0x17AC JUMP JUMPDEST JUMPDEST PUSH1 0x20 MUL PUSH1 0x20 ADD ADD SWAP1 PUSH1 0xFF AND SWAP1 DUP2 PUSH1 0xFF AND DUP2 MSTORE POP POP POP POP DUP1 DUP1 PUSH1 0x1 ADD SWAP2 POP POP PUSH2 0xD93 JUMP JUMPDEST POP PUSH0 PUSH1 0x2 PUSH0 CALLER PUSH20 0xFFFFFFFFFFFFFFFFFFFFFFFFFFFFFFFFFFFFFFFF AND PUSH20 0xFFFFFFFFFFFFFFFFFFFFFFFFFFFFFFFFFFFFFFFF AND DUP2 MSTORE PUSH1 0x20 ADD SWAP1 DUP2 MSTORE PUSH1 0x20 ADD PUSH0 KECCAK256 PUSH1 0x1 DUP2 PUSH1 0x1 DUP2 SLOAD ADD DUP1 DUP3 SSTORE DUP1 SWAP2 POP POP SUB SWAP1 PUSH0 MSTORE PUSH1 0x20 PUSH0 KECCAK256 SWAP1 PUSH1 0x3 MUL ADD SWAP1 POP PUSH0 JUMPDEST PUSH1 0xF DUP2 LT ISZERO PUSH2 0xF5A JUMPI PUSH0 PUSH1 0x3 DUP3 PUSH2 0xED6 SWAP2 SWAP1 PUSH2 0x177C JUMP JUMPDEST SWAP1 POP PUSH0 PUSH1 0x3 DUP4 PUSH2 0xEE6 SWAP2 SWAP1 PUSH2 0x1855 JUMP JUMPDEST SWAP1 POP DUP6 DUP4 DUP2 MLOAD DUP2 LT PUSH2 0xEFB JUMPI PUSH2 0xEFA PUSH2 0x17AC JUMP JUMPDEST JUMPDEST PUSH1 0x20 MUL PUSH1 0x20 ADD ADD MLOAD DUP5 PUSH0 ADD DUP4 PUSH1 0x3 DUP2 LT PUSH2 0xF18 JUMPI PUSH2 0xF17 PUSH2 0x17AC JUMP JUMPDEST JUMPDEST ADD DUP3 PUSH1 0x5 DUP2 LT PUSH2 0xF2B JUMPI PUSH2 0xF2A PUSH2 0x17AC JUMP JUMPDEST JUMPDEST PUSH1 0x20 SWAP2 DUP3 DUP3 DIV ADD SWAP2 SWAP1 MOD PUSH2 0x100 EXP DUP2 SLOAD DUP2 PUSH1 0xFF MUL NOT AND SWAP1 DUP4 PUSH1 0xFF AND MUL OR SWAP1 SSTORE POP POP POP DUP1 DUP1 PUSH1 0x1 ADD SWAP2 POP POP PUSH2 0xEBF JUMP JUMPDEST POP POP DUP1 DUP1 PUSH1 0x1 ADD SWAP2 POP POP PUSH2 0xD3D JUMP JUMPDEST POP PUSH32 0x4A4F8803A153CB465C54A6622248067AB9C67841D3001704C4C5F675C017B521 CALLER DUP4 PUSH1 0x40 MLOAD PUSH2 0xF9B SWAP3 SWAP2 SWAP1 PUSH2 0x19D3 JUMP JUMPDEST PUSH1 0x40 MLOAD DUP1 SWAP2 SUB SWAP1 LOG1 POP POP JUMP JUMPDEST PUSH0 DUP1 PUSH1 0x2 DUP2 GT ISZERO PUSH2 0xFBB JUMPI PUSH2 0xFBA PUSH2 0x132B JUMP JUMPDEST JUMPDEST PUSH0 DUP1 SLOAD SWAP1 PUSH2 0x100 EXP SWAP1 DIV PUSH1 0xFF AND PUSH1 0x2 DUP2 GT ISZERO PUSH2 0xFDA JUMPI PUSH2 0xFD9 PUSH2 0x132B JUMP JUMPDEST JUMPDEST SUB PUSH2 0x1047 JUMPI TIMESTAMP PUSH32 0x0 PUSH2 0x100B SWAP2 SWAP1 PUSH2 0x19FA JUMP JUMPDEST PUSH1 0x40 MLOAD PUSH32 0x2D166FA500000000000000000000000000000000000000000000000000000000 DUP2 MSTORE PUSH1 0x4 ADD PUSH2 0x103E SWAP2 SWAP1 PUSH2 0x13CF JUMP JUMPDEST PUSH1 0x40 MLOAD DUP1 SWAP2 SUB SWAP1 REVERT JUMPDEST PUSH1 0x5 PUSH0 DUP4 PUSH1 0xFF AND PUSH1 0xFF AND DUP2 MSTORE PUSH1 0x20 ADD SWAP1 DUP2 MSTORE PUSH1 0x20 ADD PUSH0 KECCAK256 PUSH0 SWAP1 SLOAD SWAP1 PUSH2 0x100 EXP SWAP1 DIV PUSH1 0xFF AND SWAP1 POP SWAP2 SWAP1 POP JUMP JUMPDEST PUSH0 DUP1 PUSH0 SWAP1 SLOAD SWAP1 PUSH2 0x100 EXP SWAP1 DIV PUSH1 0xFF AND SWAP1 POP SWAP1 JUMP JUMPDEST PUSH0 PUSH1 0x4 SLOAD SWAP1 POP SWAP1 JUMP JUMPDEST PUSH0 PUSH32 0x0 SWAP1 POP SWAP1 JUMP JUMPDEST PUSH1 0x60 PUSH0 PUSH1 0x2 PUSH0 CALLER PUSH20 0xFFFFFFFFFFFFFFFFFFFFFFFFFFFFFFFFFFFFFFFF AND PUSH20 0xFFFFFFFFFFFFFFFFFFFFFFFFFFFFFFFFFFFFFFFF AND DUP2 MSTORE PUSH1 0x20 ADD SWAP1 DUP2 MSTORE PUSH1 0x20 ADD PUSH0 KECCAK256 DUP1 SLOAD SWAP1 POP SUB PUSH2 0x1131 JUMPI PUSH1 0x40 MLOAD PUSH32 0xC298787700000000000000000000000000000000000000000000000000000000 DUP2 MSTORE PUSH1 0x4 ADD PUSH1 0x40 MLOAD DUP1 SWAP2 SUB SWAP1 REVERT JUMPDEST PUSH1 0x2 PUSH0 CALLER PUSH20 0xFFFFFFFFFFFFFFFFFFFFFFFFFFFFFFFFFFFFFFFF AND PUSH20 0xFFFFFFFFFFFFFFFFFFFFFFFFFFFFFFFFFFFFFFFF AND DUP2 MSTORE PUSH1 0x20 ADD SWAP1 DUP2 MSTORE PUSH1 0x20 ADD PUSH0 KECCAK256 DUP1 SLOAD DUP1 PUSH1 0x20 MUL PUSH1 0x20 ADD PUSH1 0x40 MLOAD SWAP1 DUP2 ADD PUSH1 0x40 MSTORE DUP1 SWAP3 SWAP2 SWAP1 DUP2 DUP2 MSTORE PUSH1 0x20 ADD PUSH0 SWAP1 JUMPDEST DUP3 DUP3 LT ISZERO PUSH2 0x1259 JUMPI DUP4 DUP3 SWAP1 PUSH0 MSTORE PUSH1 0x20 PUSH0 KECCAK256 SWAP1 PUSH1 0x3 MUL ADD PUSH1 0x40 MLOAD DUP1 PUSH1 0x20 ADD PUSH1 0x40 MSTORE SWAP1 DUP2 PUSH0 DUP3 ADD PUSH1 0x3 DUP1 PUSH1 0x20 MUL PUSH1 0x40 MLOAD SWAP1 DUP2 ADD PUSH1 0x40 MSTORE DUP1 SWAP3 SWAP2 SWAP1 PUSH0 SWAP1 JUMPDEST DUP3 DUP3 LT ISZERO PUSH2 0x1242 JUMPI DUP4 DUP3 ADD PUSH1 0x5 DUP1 PUSH1 0x20 MUL PUSH1 0x40 MLOAD SWAP1 DUP2 ADD PUSH1 0x40 MSTORE DUP1 SWAP3 SWAP2 SWAP1 DUP3 PUSH1 0x5 DUP1 ISZERO PUSH2 0x122E JUMPI PUSH1 0x20 MUL DUP3 ADD SWAP2 PUSH0 SWAP1 JUMPDEST DUP3 DUP3 SWAP1 SLOAD SWAP1 PUSH2 0x100 EXP SWAP1 DIV PUSH1 0xFF AND PUSH1 0xFF AND DUP2 MSTORE PUSH1 0x20 ADD SWAP1 PUSH1 0x1 ADD SWAP1 PUSH1 0x20 DUP3 PUSH0 ADD DIV SWAP3 DUP4 ADD SWAP3 PUSH1 0x1 SUB DUP3 MUL SWAP2 POP DUP1 DUP5 GT PUSH2 0x11F8 JUMPI SWAP1 POP JUMPDEST POP POP POP POP POP DUP2 MSTORE PUSH1 0x20 ADD SWAP1 PUSH1 0x1 ADD SWAP1 PUSH2 0x11C8 JUMP JUMPDEST POP POP POP POP DUP2 MSTORE POP POP DUP2 MSTORE PUSH1 0x20 ADD SWAP1 PUSH1 0x1 ADD SWAP1 PUSH2 0x118D JUMP JUMPDEST POP POP POP POP SWAP1 POP SWAP1 JUMP JUMPDEST PUSH0 PUSH1 0x3 SLOAD SWAP1 POP SWAP1 JUMP JUMPDEST PUSH0 PUSH1 0xFF DUP3 AND SWAP1 POP SWAP2 SWAP1 POP JUMP JUMPDEST PUSH2 0x1280 DUP2 PUSH2 0x126B JUMP JUMPDEST DUP3 MSTORE POP POP JUMP JUMPDEST PUSH0 PUSH1 0x20 DUP3 ADD SWAP1 POP PUSH2 0x1299 PUSH0 DUP4 ADD DUP5 PUSH2 0x1277 JUMP JUMPDEST SWAP3 SWAP2 POP POP JUMP JUMPDEST PUSH0 DUP1 REVERT JUMPDEST PUSH2 0x12AC DUP2 PUSH2 0x126B JUMP JUMPDEST DUP2 EQ PUSH2 0x12B6 JUMPI PUSH0 DUP1 REVERT JUMPDEST POP JUMP JUMPDEST PUSH0 DUP2 CALLDATALOAD SWAP1 POP PUSH2 0x12C7 DUP2 PUSH2 0x12A3 JUMP JUMPDEST SWAP3 SWAP2 POP POP JUMP JUMPDEST PUSH0 PUSH1 0x20 DUP3 DUP5 SUB SLT ISZERO PUSH2 0x12E2 JUMPI PUSH2 0x12E1 PUSH2 0x129F JUMP JUMPDEST JUMPDEST PUSH0 PUSH2 0x12EF DUP5 DUP3 DUP6 ADD PUSH2 0x12B9 JUMP JUMPDEST SWAP2 POP POP SWAP3 SWAP2 POP POP JUMP JUMPDEST PUSH0 DUP2 ISZERO ISZERO SWAP1 POP SWAP2 SWAP1 POP JUMP JUMPDEST PUSH2 0x130C DUP2 PUSH2 0x12F8 JUMP JUMPDEST DUP3 MSTORE POP POP JUMP JUMPDEST PUSH0 PUSH1 0x20 DUP3 ADD SWAP1 POP PUSH2 0x1325 PUSH0 DUP4 ADD DUP5 PUSH2 0x1303 JUMP JUMPDEST SWAP3 SWAP2 POP POP JUMP JUMPDEST PUSH32 0x4E487B7100000000000000000000000000000000000000000000000000000000 PUSH0 MSTORE PUSH1 0x21 PUSH1 0x4 MSTORE PUSH1 0x24 PUSH0 REVERT JUMPDEST PUSH1 0x3 DUP2 LT PUSH2 0x1369 JUMPI PUSH2 0x1368 PUSH2 0x132B JUMP JUMPDEST JUMPDEST POP JUMP JUMPDEST PUSH0 DUP2 SWAP1 POP PUSH2 0x1379 DUP3 PUSH2 0x1358 JUMP JUMPDEST SWAP2 SWAP1 POP JUMP JUMPDEST PUSH0 PUSH2 0x1388 DUP3 PUSH2 0x136C JUMP JUMPDEST SWAP1 POP SWAP2 SWAP1 POP JUMP JUMPDEST PUSH2 0x1398 DUP2 PUSH2 0x137E JUMP JUMPDEST DUP3 MSTORE POP POP JUMP JUMPDEST PUSH0 PUSH1 0x20 DUP3 ADD SWAP1 POP PUSH2 0x13B1 PUSH0 DUP4 ADD DUP5 PUSH2 0x138F JUMP JUMPDEST SWAP3 SWAP2 POP POP JUMP JUMPDEST PUSH0 DUP2 SWAP1 POP SWAP2 SWAP1 POP JUMP JUMPDEST PUSH2 0x13C9 DUP2 PUSH2 0x13B7 JUMP JUMPDEST DUP3 MSTORE POP POP JUMP JUMPDEST PUSH0 PUSH1 0x20 DUP3 ADD SWAP1 POP PUSH2 0x13E2 PUSH0 DUP4 ADD DUP5 PUSH2 0x13C0 JUMP JUMPDEST SWAP3 SWAP2 POP POP JUMP JUMPDEST PUSH0 DUP2 MLOAD SWAP1 POP SWAP2 SWAP1 POP JUMP JUMPDEST PUSH0 DUP3 DUP3 MSTORE PUSH1 0x20 DUP3 ADD SWAP1 POP SWAP3 SWAP2 POP POP JUMP JUMPDEST PUSH0 DUP2 SWAP1 POP PUSH1 0x20 DUP3 ADD SWAP1 POP SWAP2 SWAP1 POP JUMP JUMPDEST PUSH0 PUSH1 0x3 SWAP1 POP SWAP2 SWAP1 POP JUMP JUMPDEST PUSH0 DUP2 SWAP1 POP SWAP3 SWAP2 POP POP JUMP JUMPDEST PUSH0 DUP2 SWAP1 POP SWAP2 SWAP1 POP JUMP JUMPDEST PUSH0 PUSH1 0x5 SWAP1 POP SWAP2 SWAP1 POP JUMP JUMPDEST PUSH0 DUP2 SWAP1 POP SWAP3 SWAP2 POP POP JUMP JUMPDEST PUSH0 DUP2 SWAP1 POP SWAP2 SWAP1 POP JUMP JUMPDEST PUSH2 0x1454 DUP2 PUSH2 0x126B JUMP JUMPDEST DUP3 MSTORE POP POP JUMP JUMPDEST PUSH0 PUSH2 0x1465 DUP4 DUP4 PUSH2 0x144B JUMP JUMPDEST PUSH1 0x20 DUP4 ADD SWAP1 POP SWAP3 SWAP2 POP POP JUMP JUMPDEST PUSH0 PUSH1 0x20 DUP3 ADD SWAP1 POP SWAP2 SWAP1 POP JUMP JUMPDEST PUSH2 0x1486 DUP2 PUSH2 0x142E JUMP JUMPDEST PUSH2 0x1490 DUP2 DUP5 PUSH2 0x1438 JUMP JUMPDEST SWAP3 POP PUSH2 0x149B DUP3 PUSH2 0x1442 JUMP JUMPDEST DUP1 PUSH0 JUMPDEST DUP4 DUP2 LT ISZERO PUSH2 0x14CB JUMPI DUP2 MLOAD PUSH2 0x14B2 DUP8 DUP3 PUSH2 0x145A JUMP JUMPDEST SWAP7 POP PUSH2 0x14BD DUP4 PUSH2 0x1471 JUMP JUMPDEST SWAP3 POP POP PUSH1 0x1 DUP2 ADD SWAP1 POP PUSH2 0x149E JUMP JUMPDEST POP POP POP POP POP POP JUMP JUMPDEST PUSH0 PUSH2 0x14DE DUP4 DUP4 PUSH2 0x147D JUMP JUMPDEST PUSH1 0xA0 DUP4 ADD SWAP1 POP SWAP3 SWAP2 POP POP JUMP JUMPDEST PUSH0 PUSH1 0x20 DUP3 ADD SWAP1 POP SWAP2 SWAP1 POP JUMP JUMPDEST PUSH2 0x14FF DUP2 PUSH2 0x1411 JUMP JUMPDEST PUSH2 0x1509 DUP2 DUP5 PUSH2 0x141B JUMP JUMPDEST SWAP3 POP PUSH2 0x1514 DUP3 PUSH2 0x1425 JUMP JUMPDEST DUP1 PUSH0 JUMPDEST DUP4 DUP2 LT ISZERO PUSH2 0x1544 JUMPI DUP2 MLOAD PUSH2 0x152B DUP8 DUP3 PUSH2 0x14D3 JUMP JUMPDEST SWAP7 POP PUSH2 0x1536 DUP4 PUSH2 0x14EA JUMP JUMPDEST SWAP3 POP POP PUSH1 0x1 DUP2 ADD SWAP1 POP PUSH2 0x1517 JUMP JUMPDEST POP POP POP POP POP POP JUMP JUMPDEST PUSH2 0x1E0 DUP3 ADD PUSH0 DUP3 ADD MLOAD PUSH2 0x1561 PUSH0 DUP6 ADD DUP3 PUSH2 0x14F6 JUMP JUMPDEST POP POP POP POP JUMP JUMPDEST PUSH0 PUSH2 0x1572 DUP4 DUP4 PUSH2 0x154C JUMP JUMPDEST PUSH2 0x1E0 DUP4 ADD SWAP1 POP SWAP3 SWAP2 POP POP JUMP JUMPDEST PUSH0 PUSH1 0x20 DUP3 ADD SWAP1 POP SWAP2 SWAP1 POP JUMP JUMPDEST PUSH0 PUSH2 0x1595 DUP3 PUSH2 0x13E8 JUMP JUMPDEST PUSH2 0x159F DUP2 DUP6 PUSH2 0x13F2 JUMP JUMPDEST SWAP4 POP PUSH2 0x15AA DUP4 PUSH2 0x1402 JUMP JUMPDEST DUP1 PUSH0 JUMPDEST DUP4 DUP2 LT ISZERO PUSH2 0x15DA JUMPI DUP2 MLOAD PUSH2 0x15C1 DUP9 DUP3 PUSH2 0x1567 JUMP JUMPDEST SWAP8 POP PUSH2 0x15CC DUP4 PUSH2 0x157F JUMP JUMPDEST SWAP3 POP POP PUSH1 0x1 DUP2 ADD SWAP1 POP PUSH2 0x15AD JUMP JUMPDEST POP DUP6 SWAP4 POP POP POP POP SWAP3 SWAP2 POP POP JUMP JUMPDEST PUSH0 PUSH1 0x20 DUP3 ADD SWAP1 POP DUP2 DUP2 SUB PUSH0 DUP4 ADD MSTORE PUSH2 0x15FF DUP2 DUP5 PUSH2 0x158B JUMP JUMPDEST SWAP1 POP SWAP3 SWAP2 POP POP JUMP JUMPDEST PUSH0 DUP3 DUP3 MSTORE PUSH1 0x20 DUP3 ADD SWAP1 POP SWAP3 SWAP2 POP POP JUMP JUMPDEST PUSH32 0x4E6F742065787472616374696F6E207068617365000000000000000000000000 PUSH0 DUP3 ADD MSTORE POP JUMP JUMPDEST PUSH0 PUSH2 0x164B PUSH1 0x14 DUP4 PUSH2 0x1607 JUMP JUMPDEST SWAP2 POP PUSH2 0x1656 DUP3 PUSH2 0x1617 JUMP JUMPDEST PUSH1 0x20 DUP3 ADD SWAP1 POP SWAP2 SWAP1 POP JUMP JUMPDEST PUSH0 PUSH1 0x20 DUP3 ADD SWAP1 POP DUP2 DUP2 SUB PUSH0 DUP4 ADD MSTORE PUSH2 0x1678 DUP2 PUSH2 0x163F JUMP JUMPDEST SWAP1 POP SWAP2 SWAP1 POP JUMP JUMPDEST PUSH32 0x4E487B7100000000000000000000000000000000000000000000000000000000 PUSH0 MSTORE PUSH1 0x11 PUSH1 0x4 MSTORE PUSH1 0x24 PUSH0 REVERT JUMPDEST PUSH0 PUSH2 0x16B6 DUP3 PUSH2 0x13B7 JUMP JUMPDEST SWAP2 POP PUSH32 0xFFFFFFFFFFFFFFFFFFFFFFFFFFFFFFFFFFFFFFFFFFFFFFFFFFFFFFFFFFFFFFFF DUP3 SUB PUSH2 0x16E8 JUMPI PUSH2 0x16E7 PUSH2 0x167F JUMP JUMPDEST JUMPDEST PUSH1 0x1 DUP3 ADD SWAP1 POP SWAP2 SWAP1 POP JUMP JUMPDEST PUSH0 DUP2 SWAP1 POP SWAP2 SWAP1 POP JUMP JUMPDEST PUSH2 0x170D PUSH2 0x1708 DUP3 PUSH2 0x13B7 JUMP JUMPDEST PUSH2 0x16F3 JUMP JUMPDEST DUP3 MSTORE POP POP JUMP JUMPDEST PUSH0 PUSH2 0x171E DUP3 DUP7 PUSH2 0x16FC JUMP JUMPDEST PUSH1 0x20 DUP3 ADD SWAP2 POP PUSH2 0x172E DUP3 DUP6 PUSH2 0x16FC JUMP JUMPDEST PUSH1 0x20 DUP3 ADD SWAP2 POP PUSH2 0x173E DUP3 DUP5 PUSH2 0x16FC JUMP JUMPDEST PUSH1 0x20 DUP3 ADD SWAP2 POP DUP2 SWAP1 POP SWAP5 SWAP4 POP POP POP POP JUMP JUMPDEST PUSH32 0x4E487B7100000000000000000000000000000000000000000000000000000000 PUSH0 MSTORE PUSH1 0x12 PUSH1 0x4 MSTORE PUSH1 0x24 PUSH0 REVERT JUMPDEST PUSH0 PUSH2 0x1786 DUP3 PUSH2 0x13B7 JUMP JUMPDEST SWAP2 POP PUSH2 0x1791 DUP4 PUSH2 0x13B7 JUMP JUMPDEST SWAP3 POP DUP3 PUSH2 0x17A1 JUMPI PUSH2 0x17A0 PUSH2 0x174F JUMP JUMPDEST JUMPDEST DUP3 DUP3 MOD SWAP1 POP SWAP3 SWAP2 POP POP JUMP JUMPDEST PUSH32 0x4E487B7100000000000000000000000000000000000000000000000000000000 PUSH0 MSTORE PUSH1 0x32 PUSH1 0x4 MSTORE PUSH1 0x24 PUSH0 REVERT JUMPDEST PUSH32 0x4E487B7100000000000000000000000000000000000000000000000000000000 PUSH0 MSTORE PUSH1 0x41 PUSH1 0x4 MSTORE PUSH1 0x24 PUSH0 REVERT JUMPDEST PUSH0 PUSH2 0x1810 DUP3 PUSH2 0x126B JUMP JUMPDEST SWAP2 POP PUSH1 0xFF DUP3 SUB PUSH2 0x1823 JUMPI PUSH2 0x1822 PUSH2 0x167F JUMP JUMPDEST JUMPDEST PUSH1 0x1 DUP3 ADD SWAP1 POP SWAP2 SWAP1 POP JUMP JUMPDEST PUSH0 PUSH1 0x40 DUP3 ADD SWAP1 POP PUSH2 0x1841 PUSH0 DUP4 ADD DUP6 PUSH2 0x1277 JUMP JUMPDEST PUSH2 0x184E PUSH1 0x20 DUP4 ADD DUP5 PUSH2 0x13C0 JUMP JUMPDEST SWAP4 SWAP3 POP POP POP JUMP JUMPDEST PUSH0 PUSH2 0x185F DUP3 PUSH2 0x13B7 JUMP JUMPDEST SWAP2 POP PUSH2 0x186A DUP4 PUSH2 0x13B7 JUMP JUMPDEST SWAP3 POP DUP3 PUSH2 0x187A JUMPI PUSH2 0x1879 PUSH2 0x174F JUMP JUMPDEST JUMPDEST DUP3 DUP3 DIV SWAP1 POP SWAP3 SWAP2 POP POP JUMP JUMPDEST PUSH0 PUSH2 0x188F DUP3 PUSH2 0x13B7 JUMP JUMPDEST SWAP2 POP PUSH2 0x189A DUP4 PUSH2 0x13B7 JUMP JUMPDEST SWAP3 POP DUP3 DUP3 MUL PUSH2 0x18A8 DUP2 PUSH2 0x13B7 JUMP JUMPDEST SWAP2 POP DUP3 DUP3 DIV DUP5 EQ DUP4 ISZERO OR PUSH2 0x18BF JUMPI PUSH2 0x18BE PUSH2 0x167F JUMP JUMPDEST JUMPDEST POP SWAP3 SWAP2 POP POP JUMP JUMPDEST PUSH0 PUSH1 0x40 DUP3 ADD SWAP1 POP PUSH2 0x18D9 PUSH0 DUP4 ADD DUP6 PUSH2 0x13C0 JUMP JUMPDEST PUSH2 0x18E6 PUSH1 0x20 DUP4 ADD DUP5 PUSH2 0x13C0 JUMP JUMPDEST SWAP4 SWAP3 POP POP POP JUMP JUMPDEST PUSH0 PUSH20 0xFFFFFFFFFFFFFFFFFFFFFFFFFFFFFFFFFFFFFFFF DUP3 AND SWAP1 POP SWAP2 SWAP1 POP JUMP JUMPDEST PUSH0 PUSH2 0x1916 DUP3 PUSH2 0x18ED JUMP JUMPDEST SWAP1 POP SWAP2 SWAP1 POP JUMP JUMPDEST PUSH2 0x1926 DUP2 PUSH2 0x190C JUMP JUMPDEST DUP3 MSTORE POP POP JUMP JUMPDEST PUSH0 PUSH1 0x40 DUP3 ADD SWAP1 POP PUSH2 0x193F PUSH0 DUP4 ADD DUP6 PUSH2 0x13C0 JUMP JUMPDEST PUSH2 0x194C PUSH1 0x20 DUP4 ADD DUP5 PUSH2 0x191D JUMP JUMPDEST SWAP4 SWAP3 POP POP POP JUMP JUMPDEST PUSH0 PUSH2 0x195D DUP3 PUSH2 0x13B7 JUMP JUMPDEST SWAP2 POP PUSH2 0x1968 DUP4 PUSH2 0x13B7 JUMP JUMPDEST SWAP3 POP DUP3 DUP3 ADD SWAP1 POP DUP1 DUP3 GT ISZERO PUSH2 0x1980 JUMPI PUSH2 0x197F PUSH2 0x167F JUMP JUMPDEST JUMPDEST SWAP3 SWAP2 POP POP JUMP JUMPDEST PUSH0 PUSH2 0x1991 DUP3 DUP8 PUSH2 0x16FC JUMP JUMPDEST PUSH1 0x20 DUP3 ADD SWAP2 POP PUSH2 0x19A1 DUP3 DUP7 PUSH2 0x16FC JUMP JUMPDEST PUSH1 0x20 DUP3 ADD SWAP2 POP PUSH2 0x19B1 DUP3 DUP6 PUSH2 0x16FC JUMP JUMPDEST PUSH1 0x20 DUP3 ADD SWAP2 POP PUSH2 0x19C1 DUP3 DUP5 PUSH2 0x16FC JUMP JUMPDEST PUSH1 0x20 DUP3 ADD SWAP2 POP DUP2 SWAP1 POP SWAP6 SWAP5 POP POP POP POP POP JUMP JUMPDEST PUSH0 PUSH1 0x40 DUP3 ADD SWAP1 POP PUSH2 0x19E6 PUSH0 DUP4 ADD DUP6 PUSH2 0x191D JUMP JUMPDEST PUSH2 0x19F3 PUSH1 0x20 DUP4 ADD DUP5 PUSH2 0x13C0 JUMP JUMPDEST SWAP4 SWAP3 POP POP POP JUMP JUMPDEST PUSH0 PUSH2 0x1A04 DUP3 PUSH2 0x13B7 JUMP JUMPDEST SWAP2 POP PUSH2 0x1A0F DUP4 PUSH2 0x13B7 JUMP JUMPDEST SWAP3 POP DUP3 DUP3 SUB SWAP1 POP DUP2 DUP2 GT ISZERO PUSH2 0x1A27 JUMPI PUSH2 0x1A26 PUSH2 0x167F JUMP JUMPDEST JUMPDEST SWAP3 SWAP2 POP POP JUMP INVALID LOG2 PUSH5 0x6970667358 0x22 SLT KECCAK256 ORIGIN 0x2C PUSH23 0x35C62A8F802A9F7C4049A009FEAA89E35D49092DC324D 0x27 PUSH16 0xCD68671764736F6C634300081A003300 "
				},
				"gasEstimates": {
					"creation": {
						"codeDepositCost": "1351000",
						"executionCost": "infinite",
						"totalCost": "infinite"
					},
					"external": {
						"buyCards()": "infinite",
						"extractNextNumber()": "infinite",
						"getCardCost()": "infinite",
						"getGameState()": "2628",
						"getMyCards()": "infinite",
						"getNumberOfCards()": "2432",
						"getNumberOfPlayers()": "2498",
						"isItExtracted(uint8)": "infinite"
					}
				},
				"methodIdentifiers": {
					"buyCards()": "21870eec",
					"extractNextNumber()": "10978262",
					"getCardCost()": "d66a0ffc",
					"getGameState()": "b7d0628b",
					"getMyCards()": "ed92c4bb",
					"getNumberOfCards()": "c487282c",
					"getNumberOfPlayers()": "fd6673f5",
					"isItExtracted(uint8)": "873b604e"
				}
			},
			"storageLayout": {
				"storage": [
					{
						"astId": 110,
						"contract": "contracts/exam-2023-06-30/exam-2023-06-30.sol:BingoGame",
						"label": "gameState",
						"offset": 0,
						"slot": "0",
						"type": "t_enum(GameState)12"
					},
					{
						"astId": 113,
						"contract": "contracts/exam-2023-06-30/exam-2023-06-30.sol:BingoGame",
						"label": "players",
						"offset": 0,
						"slot": "1",
						"type": "t_array(t_address)dyn_storage"
					},
					{
						"astId": 119,
						"contract": "contracts/exam-2023-06-30/exam-2023-06-30.sol:BingoGame",
						"label": "cards",
						"offset": 0,
						"slot": "2",
						"type": "t_mapping(t_address,t_array(t_struct(Card)8_storage)dyn_storage)"
					},
					{
						"astId": 126,
						"contract": "contracts/exam-2023-06-30/exam-2023-06-30.sol:BingoGame",
						"label": "numberOfPlayers",
						"offset": 0,
						"slot": "3",
						"type": "t_uint256"
					},
					{
						"astId": 129,
						"contract": "contracts/exam-2023-06-30/exam-2023-06-30.sol:BingoGame",
						"label": "numberOfCards",
						"offset": 0,
						"slot": "4",
						"type": "t_uint256"
					},
					{
						"astId": 133,
						"contract": "contracts/exam-2023-06-30/exam-2023-06-30.sol:BingoGame",
						"label": "extracted",
						"offset": 0,
						"slot": "5",
						"type": "t_mapping(t_uint8,t_bool)"
					},
					{
						"astId": 136,
						"contract": "contracts/exam-2023-06-30/exam-2023-06-30.sol:BingoGame",
						"label": "fiveInARowWon",
						"offset": 0,
						"slot": "6",
						"type": "t_bool"
					},
					{
						"astId": 139,
						"contract": "contracts/exam-2023-06-30/exam-2023-06-30.sol:BingoGame",
						"label": "fiveInARowWinners",
						"offset": 0,
						"slot": "7",
						"type": "t_array(t_address)dyn_storage"
					},
					{
						"astId": 142,
						"contract": "contracts/exam-2023-06-30/exam-2023-06-30.sol:BingoGame",
						"label": "bingoWon",
						"offset": 0,
						"slot": "8",
						"type": "t_bool"
					},
					{
						"astId": 145,
						"contract": "contracts/exam-2023-06-30/exam-2023-06-30.sol:BingoGame",
						"label": "bingoWinners",
						"offset": 0,
						"slot": "9",
						"type": "t_array(t_address)dyn_storage"
					}
				],
				"types": {
					"t_address": {
						"encoding": "inplace",
						"label": "address",
						"numberOfBytes": "20"
					},
					"t_array(t_address)dyn_storage": {
						"base": "t_address",
						"encoding": "dynamic_array",
						"label": "address[]",
						"numberOfBytes": "32"
					},
					"t_array(t_array(t_uint8)5_storage)3_storage": {
						"base": "t_array(t_uint8)5_storage",
						"encoding": "inplace",
						"label": "uint8[5][3]",
						"numberOfBytes": "96"
					},
					"t_array(t_struct(Card)8_storage)dyn_storage": {
						"base": "t_struct(Card)8_storage",
						"encoding": "dynamic_array",
						"label": "struct BingoGameSpecs.Card[]",
						"numberOfBytes": "32"
					},
					"t_array(t_uint8)5_storage": {
						"base": "t_uint8",
						"encoding": "inplace",
						"label": "uint8[5]",
						"numberOfBytes": "32"
					},
					"t_bool": {
						"encoding": "inplace",
						"label": "bool",
						"numberOfBytes": "1"
					},
					"t_enum(GameState)12": {
						"encoding": "inplace",
						"label": "enum BingoGameSpecs.GameState",
						"numberOfBytes": "1"
					},
					"t_mapping(t_address,t_array(t_struct(Card)8_storage)dyn_storage)": {
						"encoding": "mapping",
						"key": "t_address",
						"label": "mapping(address => struct BingoGameSpecs.Card[])",
						"numberOfBytes": "32",
						"value": "t_array(t_struct(Card)8_storage)dyn_storage"
					},
					"t_mapping(t_uint8,t_bool)": {
						"encoding": "mapping",
						"key": "t_uint8",
						"label": "mapping(uint8 => bool)",
						"numberOfBytes": "32",
						"value": "t_bool"
					},
					"t_struct(Card)8_storage": {
						"encoding": "inplace",
						"label": "struct BingoGameSpecs.Card",
						"members": [
							{
								"astId": 7,
								"contract": "contracts/exam-2023-06-30/exam-2023-06-30.sol:BingoGame",
								"label": "cells",
								"offset": 0,
								"slot": "0",
								"type": "t_array(t_array(t_uint8)5_storage)3_storage"
							}
						],
						"numberOfBytes": "96"
					},
					"t_uint256": {
						"encoding": "inplace",
						"label": "uint256",
						"numberOfBytes": "32"
					},
					"t_uint8": {
						"encoding": "inplace",
						"label": "uint8",
						"numberOfBytes": "1"
					}
				}
			},
			"userdoc": {
				"kind": "user",
				"methods": {},
				"version": 1
			}
		}
	}
}