{
	"contracts/exam-2022-07-14/exam-2022-07-14.sol": {
		"AuctionManager": {
			"abi": [
				{
					"inputs": [
						{
							"internalType": "enum AuctionManagerSpecs.AuctionState",
							"name": "state",
							"type": "uint8"
						}
					],
					"name": "AuctionAlreadyEnded",
					"type": "error"
				},
				{
					"inputs": [],
					"name": "AuctionNotExisting",
					"type": "error"
				},
				{
					"inputs": [],
					"name": "AuctionToFinalizeAlreadyFinalized",
					"type": "error"
				},
				{
					"inputs": [
						{
							"internalType": "uint256",
							"name": "expiration",
							"type": "uint256"
						}
					],
					"name": "AuctionToFinalizeNotYetEnded",
					"type": "error"
				},
				{
					"inputs": [
						{
							"internalType": "uint256",
							"name": "minimumBid",
							"type": "uint256"
						}
					],
					"name": "BidNotAboveMinimum",
					"type": "error"
				},
				{
					"anonymous": false,
					"inputs": [
						{
							"indexed": false,
							"internalType": "uint256",
							"name": "auctionId",
							"type": "uint256"
						},
						{
							"indexed": false,
							"internalType": "address",
							"name": "winner",
							"type": "address"
						},
						{
							"indexed": false,
							"internalType": "uint256",
							"name": "amount",
							"type": "uint256"
						}
					],
					"name": "AuctionEndedWithWinner",
					"type": "event"
				},
				{
					"anonymous": false,
					"inputs": [
						{
							"indexed": false,
							"internalType": "uint256",
							"name": "auctionId",
							"type": "uint256"
						}
					],
					"name": "AuctionExpiredWithoutWinner",
					"type": "event"
				},
				{
					"anonymous": false,
					"inputs": [
						{
							"indexed": false,
							"internalType": "string",
							"name": "description",
							"type": "string"
						},
						{
							"indexed": false,
							"internalType": "uint256",
							"name": "minimumBid",
							"type": "uint256"
						},
						{
							"indexed": false,
							"internalType": "uint256",
							"name": "expiration",
							"type": "uint256"
						}
					],
					"name": "NewAuction",
					"type": "event"
				},
				{
					"anonymous": false,
					"inputs": [
						{
							"indexed": false,
							"internalType": "uint256",
							"name": "auctionId",
							"type": "uint256"
						},
						{
							"indexed": false,
							"internalType": "address",
							"name": "bidder",
							"type": "address"
						},
						{
							"indexed": false,
							"internalType": "uint256",
							"name": "amount",
							"type": "uint256"
						}
					],
					"name": "NewHighestBid",
					"type": "event"
				},
				{
					"inputs": [
						{
							"internalType": "uint256",
							"name": "id",
							"type": "uint256"
						}
					],
					"name": "auctionBeneficiary",
					"outputs": [
						{
							"internalType": "address",
							"name": "beneficiary",
							"type": "address"
						}
					],
					"stateMutability": "view",
					"type": "function"
				},
				{
					"inputs": [
						{
							"internalType": "uint256",
							"name": "id",
							"type": "uint256"
						}
					],
					"name": "auctionDescription",
					"outputs": [
						{
							"internalType": "string",
							"name": "",
							"type": "string"
						}
					],
					"stateMutability": "view",
					"type": "function"
				},
				{
					"inputs": [
						{
							"internalType": "uint256",
							"name": "id",
							"type": "uint256"
						}
					],
					"name": "auctionExpiration",
					"outputs": [
						{
							"internalType": "uint256",
							"name": "timestamp",
							"type": "uint256"
						}
					],
					"stateMutability": "view",
					"type": "function"
				},
				{
					"inputs": [
						{
							"internalType": "uint256",
							"name": "id",
							"type": "uint256"
						}
					],
					"name": "auctionHighestBid",
					"outputs": [
						{
							"internalType": "uint256",
							"name": "amount",
							"type": "uint256"
						}
					],
					"stateMutability": "view",
					"type": "function"
				},
				{
					"inputs": [
						{
							"internalType": "uint256",
							"name": "id",
							"type": "uint256"
						}
					],
					"name": "auctionHighestBidder",
					"outputs": [
						{
							"internalType": "address",
							"name": "bidder",
							"type": "address"
						}
					],
					"stateMutability": "view",
					"type": "function"
				},
				{
					"inputs": [
						{
							"internalType": "uint256",
							"name": "id",
							"type": "uint256"
						}
					],
					"name": "auctionMinimumBid",
					"outputs": [
						{
							"internalType": "uint256",
							"name": "amount",
							"type": "uint256"
						}
					],
					"stateMutability": "view",
					"type": "function"
				},
				{
					"inputs": [
						{
							"internalType": "uint256",
							"name": "id",
							"type": "uint256"
						}
					],
					"name": "auctionState",
					"outputs": [
						{
							"internalType": "enum AuctionManagerSpecs.AuctionState",
							"name": "",
							"type": "uint8"
						}
					],
					"stateMutability": "view",
					"type": "function"
				},
				{
					"inputs": [
						{
							"internalType": "uint256",
							"name": "id",
							"type": "uint256"
						}
					],
					"name": "bidOnAuction",
					"outputs": [
						{
							"internalType": "bool",
							"name": "isHighest",
							"type": "bool"
						}
					],
					"stateMutability": "payable",
					"type": "function"
				},
				{
					"inputs": [
						{
							"internalType": "uint256",
							"name": "id",
							"type": "uint256"
						}
					],
					"name": "cancelAuction",
					"outputs": [],
					"stateMutability": "nonpayable",
					"type": "function"
				},
				{
					"inputs": [
						{
							"internalType": "string",
							"name": "description",
							"type": "string"
						},
						{
							"internalType": "uint256",
							"name": "minimumBid",
							"type": "uint256"
						},
						{
							"internalType": "uint256",
							"name": "expirationInHours",
							"type": "uint256"
						}
					],
					"name": "createNewAuction",
					"outputs": [
						{
							"internalType": "uint256",
							"name": "id",
							"type": "uint256"
						}
					],
					"stateMutability": "nonpayable",
					"type": "function"
				},
				{
					"inputs": [
						{
							"internalType": "uint256",
							"name": "id",
							"type": "uint256"
						}
					],
					"name": "finalizeAuction",
					"outputs": [],
					"stateMutability": "nonpayable",
					"type": "function"
				},
				{
					"inputs": [],
					"name": "idsOfOngoingAuctions",
					"outputs": [
						{
							"internalType": "uint256[]",
							"name": "ids",
							"type": "uint256[]"
						}
					],
					"stateMutability": "view",
					"type": "function"
				}
			],
			"devdoc": {
				"kind": "dev",
				"methods": {},
				"version": 1
			},
			"evm": {
				"assembly": "    /* \"contracts/exam-2022-07-14/exam-2022-07-14.sol\":64:6402  contract AuctionManager is AuctionManagerSpecs {... */\n  mstore(0x40, 0x80)\n    /* \"contracts/exam-2022-07-14/exam-2022-07-14.sol\":472:473  0 */\n  0x00\n    /* \"contracts/exam-2022-07-14/exam-2022-07-14.sol\":446:473  uint256 auctionsCounter = 0 */\n  0x01\n  sstore\n    /* \"contracts/exam-2022-07-14/exam-2022-07-14.sol\":512:513  0 */\n  0x00\n    /* \"contracts/exam-2022-07-14/exam-2022-07-14.sol\":479:513  uint256 ongoingAuctionsCounter = 0 */\n  0x02\n  sstore\n    /* \"contracts/exam-2022-07-14/exam-2022-07-14.sol\":64:6402  contract AuctionManager is AuctionManagerSpecs {... */\n  callvalue\n  dup1\n  iszero\n  tag_1\n  jumpi\n  0x00\n  dup1\n  revert\ntag_1:\n  pop\n  dataSize(sub_0)\n  dup1\n  dataOffset(sub_0)\n  0x00\n  codecopy\n  0x00\n  return\nstop\n\nsub_0: assembly {\n        /* \"contracts/exam-2022-07-14/exam-2022-07-14.sol\":64:6402  contract AuctionManager is AuctionManagerSpecs {... */\n      mstore(0x40, 0x80)\n      jumpi(tag_1, lt(calldatasize, 0x04))\n      shr(0xe0, calldataload(0x00))\n      dup1\n      0xa43b87a2\n      gt\n      tag_14\n      jumpi\n      dup1\n      0xa43b87a2\n      eq\n      tag_8\n      jumpi\n      dup1\n      0xbdaaf194\n      eq\n      tag_9\n      jumpi\n      dup1\n      0xbfe21ada\n      eq\n      tag_10\n      jumpi\n      dup1\n      0xd4bf3138\n      eq\n      tag_11\n      jumpi\n      dup1\n      0xe33a33b3\n      eq\n      tag_12\n      jumpi\n      dup1\n      0xe8083863\n      eq\n      tag_13\n      jumpi\n      jump(tag_1)\n    tag_14:\n      dup1\n      0x26b7aeea\n      eq\n      tag_2\n      jumpi\n      dup1\n      0x2c4261bb\n      eq\n      tag_3\n      jumpi\n      dup1\n      0x71e21df0\n      eq\n      tag_4\n      jumpi\n      dup1\n      0x7383841a\n      eq\n      tag_5\n      jumpi\n      dup1\n      0x84861e93\n      eq\n      tag_6\n      jumpi\n      dup1\n      0x96b5a755\n      eq\n      tag_7\n      jumpi\n    tag_1:\n      0x00\n      dup1\n      revert\n        /* \"contracts/exam-2022-07-14/exam-2022-07-14.sol\":1715:2582  function bidOnAuction(uint256 id)... */\n    tag_2:\n      tag_15\n      0x04\n      dup1\n      calldatasize\n      sub\n      dup2\n      add\n      swap1\n      tag_16\n      swap2\n      swap1\n      tag_17\n      jump\t// in\n    tag_16:\n      tag_18\n      jump\t// in\n    tag_15:\n      mload(0x40)\n      tag_19\n      swap2\n      swap1\n      tag_20\n      jump\t// in\n    tag_19:\n      mload(0x40)\n      dup1\n      swap2\n      sub\n      swap1\n      return\n        /* \"contracts/exam-2022-07-14/exam-2022-07-14.sol\":2588:2979  function idsOfOngoingAuctions()... */\n    tag_3:\n      callvalue\n      dup1\n      iszero\n      tag_21\n      jumpi\n      0x00\n      dup1\n      revert\n    tag_21:\n      pop\n      tag_22\n      tag_23\n      jump\t// in\n    tag_22:\n      mload(0x40)\n      tag_24\n      swap2\n      swap1\n      tag_25\n      jump\t// in\n    tag_24:\n      mload(0x40)\n      dup1\n      swap2\n      sub\n      swap1\n      return\n        /* \"contracts/exam-2022-07-14/exam-2022-07-14.sol\":3673:3902  function auctionBeneficiary(uint256 id)... */\n    tag_4:\n      callvalue\n      dup1\n      iszero\n      tag_26\n      jumpi\n      0x00\n      dup1\n      revert\n    tag_26:\n      pop\n      tag_27\n      0x04\n      dup1\n      calldatasize\n      sub\n      dup2\n      add\n      swap1\n      tag_28\n      swap2\n      swap1\n      tag_17\n      jump\t// in\n    tag_28:\n      tag_29\n      jump\t// in\n    tag_27:\n      mload(0x40)\n      tag_30\n      swap2\n      swap1\n      tag_31\n      jump\t// in\n    tag_30:\n      mload(0x40)\n      dup1\n      swap2\n      sub\n      swap1\n      return\n        /* \"contracts/exam-2022-07-14/exam-2022-07-14.sol\":2985:3208  function auctionDescription(uint256 id)... */\n    tag_5:\n      callvalue\n      dup1\n      iszero\n      tag_32\n      jumpi\n      0x00\n      dup1\n      revert\n    tag_32:\n      pop\n      tag_33\n      0x04\n      dup1\n      calldatasize\n      sub\n      dup2\n      add\n      swap1\n      tag_34\n      swap2\n      swap1\n      tag_17\n      jump\t// in\n    tag_34:\n      tag_35\n      jump\t// in\n    tag_33:\n      mload(0x40)\n      tag_36\n      swap2\n      swap1\n      tag_37\n      jump\t// in\n    tag_36:\n      mload(0x40)\n      dup1\n      swap2\n      sub\n      swap1\n      return\n        /* \"contracts/exam-2022-07-14/exam-2022-07-14.sol\":3908:4118  function auctionState(uint256 id)... */\n    tag_6:\n      callvalue\n      dup1\n      iszero\n      tag_38\n      jumpi\n      0x00\n      dup1\n      revert\n    tag_38:\n      pop\n      tag_39\n      0x04\n      dup1\n      calldatasize\n      sub\n      dup2\n      add\n      swap1\n      tag_40\n      swap2\n      swap1\n      tag_17\n      jump\t// in\n    tag_40:\n      tag_41\n      jump\t// in\n    tag_39:\n      mload(0x40)\n      tag_42\n      swap2\n      swap1\n      tag_43\n      jump\t// in\n    tag_42:\n      mload(0x40)\n      dup1\n      swap2\n      sub\n      swap1\n      return\n        /* \"contracts/exam-2022-07-14/exam-2022-07-14.sol\":5672:6400  function cancelAuction(uint256 id) external auctionExists(id) {... */\n    tag_7:\n      callvalue\n      dup1\n      iszero\n      tag_44\n      jumpi\n      0x00\n      dup1\n      revert\n    tag_44:\n      pop\n      tag_45\n      0x04\n      dup1\n      calldatasize\n      sub\n      dup2\n      add\n      swap1\n      tag_46\n      swap2\n      swap1\n      tag_17\n      jump\t// in\n    tag_46:\n      tag_47\n      jump\t// in\n    tag_45:\n      stop\n        /* \"contracts/exam-2022-07-14/exam-2022-07-14.sol\":4352:4580  function auctionHighestBidder(uint256 id)... */\n    tag_8:\n      callvalue\n      dup1\n      iszero\n      tag_48\n      jumpi\n      0x00\n      dup1\n      revert\n    tag_48:\n      pop\n      tag_49\n      0x04\n      dup1\n      calldatasize\n      sub\n      dup2\n      add\n      swap1\n      tag_50\n      swap2\n      swap1\n      tag_17\n      jump\t// in\n    tag_50:\n      tag_51\n      jump\t// in\n    tag_49:\n      mload(0x40)\n      tag_52\n      swap2\n      swap1\n      tag_31\n      jump\t// in\n    tag_52:\n      mload(0x40)\n      dup1\n      swap2\n      sub\n      swap1\n      return\n        /* \"contracts/exam-2022-07-14/exam-2022-07-14.sol\":4124:4346  function auctionHighestBid(uint256 id)... */\n    tag_9:\n      callvalue\n      dup1\n      iszero\n      tag_53\n      jumpi\n      0x00\n      dup1\n      revert\n    tag_53:\n      pop\n      tag_54\n      0x04\n      dup1\n      calldatasize\n      sub\n      dup2\n      add\n      swap1\n      tag_55\n      swap2\n      swap1\n      tag_17\n      jump\t// in\n    tag_55:\n      tag_56\n      jump\t// in\n    tag_54:\n      mload(0x40)\n      tag_57\n      swap2\n      swap1\n      tag_58\n      jump\t// in\n    tag_57:\n      mload(0x40)\n      dup1\n      swap2\n      sub\n      swap1\n      return\n        /* \"contracts/exam-2022-07-14/exam-2022-07-14.sol\":3442:3667  function auctionExpiration(uint256 id)... */\n    tag_10:\n      callvalue\n      dup1\n      iszero\n      tag_59\n      jumpi\n      0x00\n      dup1\n      revert\n    tag_59:\n      pop\n      tag_60\n      0x04\n      dup1\n      calldatasize\n      sub\n      dup2\n      add\n      swap1\n      tag_61\n      swap2\n      swap1\n      tag_17\n      jump\t// in\n    tag_61:\n      tag_62\n      jump\t// in\n    tag_60:\n      mload(0x40)\n      tag_63\n      swap2\n      swap1\n      tag_58\n      jump\t// in\n    tag_63:\n      mload(0x40)\n      dup1\n      swap2\n      sub\n      swap1\n      return\n        /* \"contracts/exam-2022-07-14/exam-2022-07-14.sol\":3214:3436  function auctionMinimumBid(uint256 id)... */\n    tag_11:\n      callvalue\n      dup1\n      iszero\n      tag_64\n      jumpi\n      0x00\n      dup1\n      revert\n    tag_64:\n      pop\n      tag_65\n      0x04\n      dup1\n      calldatasize\n      sub\n      dup2\n      add\n      swap1\n      tag_66\n      swap2\n      swap1\n      tag_17\n      jump\t// in\n    tag_66:\n      tag_67\n      jump\t// in\n    tag_65:\n      mload(0x40)\n      tag_68\n      swap2\n      swap1\n      tag_58\n      jump\t// in\n    tag_68:\n      mload(0x40)\n      dup1\n      swap2\n      sub\n      swap1\n      return\n        /* \"contracts/exam-2022-07-14/exam-2022-07-14.sol\":666:1709  function createNewAuction(... */\n    tag_12:\n      callvalue\n      dup1\n      iszero\n      tag_69\n      jumpi\n      0x00\n      dup1\n      revert\n    tag_69:\n      pop\n      tag_70\n      0x04\n      dup1\n      calldatasize\n      sub\n      dup2\n      add\n      swap1\n      tag_71\n      swap2\n      swap1\n      tag_72\n      jump\t// in\n    tag_71:\n      tag_73\n      jump\t// in\n    tag_70:\n      mload(0x40)\n      tag_74\n      swap2\n      swap1\n      tag_58\n      jump\t// in\n    tag_74:\n      mload(0x40)\n      dup1\n      swap2\n      sub\n      swap1\n      return\n        /* \"contracts/exam-2022-07-14/exam-2022-07-14.sol\":4586:5666  function finalizeAuction(uint256 id) external auctionExists(id) {... */\n    tag_13:\n      callvalue\n      dup1\n      iszero\n      tag_75\n      jumpi\n      0x00\n      dup1\n      revert\n    tag_75:\n      pop\n      tag_76\n      0x04\n      dup1\n      calldatasize\n      sub\n      dup2\n      add\n      swap1\n      tag_77\n      swap2\n      swap1\n      tag_17\n      jump\t// in\n    tag_77:\n      tag_78\n      jump\t// in\n    tag_76:\n      stop\n        /* \"contracts/exam-2022-07-14/exam-2022-07-14.sol\":1715:2582  function bidOnAuction(uint256 id)... */\n    tag_18:\n        /* \"contracts/exam-2022-07-14/exam-2022-07-14.sol\":1825:1839  bool isHighest */\n      0x00\n        /* \"contracts/exam-2022-07-14/exam-2022-07-14.sol\":1804:1806  id */\n      dup2\n        /* \"contracts/exam-2022-07-14/exam-2022-07-14.sol\":574:589  auctionsCounter */\n      sload(0x01)\n        /* \"contracts/exam-2022-07-14/exam-2022-07-14.sol\":568:570  id */\n      dup2\n        /* \"contracts/exam-2022-07-14/exam-2022-07-14.sol\":568:589  id >= auctionsCounter */\n      lt\n        /* \"contracts/exam-2022-07-14/exam-2022-07-14.sol\":565:643  if(id >= auctionsCounter) {... */\n      tag_80\n      jumpi\n        /* \"contracts/exam-2022-07-14/exam-2022-07-14.sol\":612:632  AuctionNotExisting() */\n      mload(0x40)\n      0x94c1121f00000000000000000000000000000000000000000000000000000000\n      dup2\n      mstore\n      0x04\n      add\n      mload(0x40)\n      dup1\n      swap2\n      sub\n      swap1\n      revert\n        /* \"contracts/exam-2022-07-14/exam-2022-07-14.sol\":565:643  if(id >= auctionsCounter) {... */\n    tag_80:\n        /* \"contracts/exam-2022-07-14/exam-2022-07-14.sol\":1855:1878  Auction storage auction */\n      0x00\n        /* \"contracts/exam-2022-07-14/exam-2022-07-14.sol\":1881:1889  auctions */\n      dup1\n        /* \"contracts/exam-2022-07-14/exam-2022-07-14.sol\":1890:1892  id */\n      dup5\n        /* \"contracts/exam-2022-07-14/exam-2022-07-14.sol\":1881:1893  auctions[id] */\n      dup2\n      sload\n      dup2\n      lt\n      tag_82\n      jumpi\n      tag_83\n      tag_84\n      jump\t// in\n    tag_83:\n    tag_82:\n      swap1\n      0x00\n      mstore\n      keccak256(0x00, 0x20)\n      swap1\n      0x09\n      mul\n      add\n        /* \"contracts/exam-2022-07-14/exam-2022-07-14.sol\":1855:1893  Auction storage auction = auctions[id] */\n      swap1\n      pop\n        /* \"contracts/exam-2022-07-14/exam-2022-07-14.sol\":1923:1943  AuctionState.Ongoing */\n      0x00\n        /* \"contracts/exam-2022-07-14/exam-2022-07-14.sol\":1906:1943  auction.state != AuctionState.Ongoing */\n      0x03\n      dup2\n      gt\n      iszero\n      tag_86\n      jumpi\n      tag_87\n      tag_88\n      jump\t// in\n    tag_87:\n    tag_86:\n        /* \"contracts/exam-2022-07-14/exam-2022-07-14.sol\":1906:1913  auction */\n      dup2\n        /* \"contracts/exam-2022-07-14/exam-2022-07-14.sol\":1906:1919  auction.state */\n      0x04\n      add\n      0x00\n      swap1\n      sload\n      swap1\n      0x0100\n      exp\n      swap1\n      div\n      0xff\n      and\n        /* \"contracts/exam-2022-07-14/exam-2022-07-14.sol\":1906:1943  auction.state != AuctionState.Ongoing */\n      0x03\n      dup2\n      gt\n      iszero\n      tag_89\n      jumpi\n      tag_90\n      tag_88\n      jump\t// in\n    tag_90:\n    tag_89:\n      eq\n        /* \"contracts/exam-2022-07-14/exam-2022-07-14.sol\":1903:2011  if(auction.state != AuctionState.Ongoing) {... */\n      tag_91\n      jumpi\n        /* \"contracts/exam-2022-07-14/exam-2022-07-14.sol\":1986:1993  auction */\n      dup1\n        /* \"contracts/exam-2022-07-14/exam-2022-07-14.sol\":1986:1999  auction.state */\n      0x04\n      add\n      0x00\n      swap1\n      sload\n      swap1\n      0x0100\n      exp\n      swap1\n      div\n      0xff\n      and\n        /* \"contracts/exam-2022-07-14/exam-2022-07-14.sol\":1966:2000  AuctionAlreadyEnded(auction.state) */\n      mload(0x40)\n      0x012991dc00000000000000000000000000000000000000000000000000000000\n      dup2\n      mstore\n      0x04\n      add\n      tag_92\n      swap2\n      swap1\n      tag_43\n      jump\t// in\n    tag_92:\n      mload(0x40)\n      dup1\n      swap2\n      sub\n      swap1\n      revert\n        /* \"contracts/exam-2022-07-14/exam-2022-07-14.sol\":1903:2011  if(auction.state != AuctionState.Ongoing) {... */\n    tag_91:\n        /* \"contracts/exam-2022-07-14/exam-2022-07-14.sol\":2035:2042  auction */\n      dup1\n        /* \"contracts/exam-2022-07-14/exam-2022-07-14.sol\":2035:2053  auction.minimumBid */\n      0x02\n      add\n      sload\n        /* \"contracts/exam-2022-07-14/exam-2022-07-14.sol\":2023:2032  msg.value */\n      callvalue\n        /* \"contracts/exam-2022-07-14/exam-2022-07-14.sol\":2023:2053  msg.value < auction.minimumBid */\n      lt\n        /* \"contracts/exam-2022-07-14/exam-2022-07-14.sol\":2020:2125  if(msg.value < auction.minimumBid) {... */\n      iszero\n      tag_93\n      jumpi\n        /* \"contracts/exam-2022-07-14/exam-2022-07-14.sol\":2095:2102  auction */\n      dup1\n        /* \"contracts/exam-2022-07-14/exam-2022-07-14.sol\":2095:2113  auction.minimumBid */\n      0x02\n      add\n      sload\n        /* \"contracts/exam-2022-07-14/exam-2022-07-14.sol\":2076:2114  BidNotAboveMinimum(auction.minimumBid) */\n      mload(0x40)\n      0x01dea4d400000000000000000000000000000000000000000000000000000000\n      dup2\n      mstore\n      0x04\n      add\n      tag_94\n      swap2\n      swap1\n      tag_58\n      jump\t// in\n    tag_94:\n      mload(0x40)\n      dup1\n      swap2\n      sub\n      swap1\n      revert\n        /* \"contracts/exam-2022-07-14/exam-2022-07-14.sol\":2020:2125  if(msg.value < auction.minimumBid) {... */\n    tag_93:\n        /* \"contracts/exam-2022-07-14/exam-2022-07-14.sol\":2165:2166  0 */\n      0x00\n        /* \"contracts/exam-2022-07-14/exam-2022-07-14.sol\":2137:2144  auction */\n      dup2\n        /* \"contracts/exam-2022-07-14/exam-2022-07-14.sol\":2137:2149  auction.bids */\n      0x06\n      add\n        /* \"contracts/exam-2022-07-14/exam-2022-07-14.sol\":2137:2161  auction.bids[msg.sender] */\n      0x00\n        /* \"contracts/exam-2022-07-14/exam-2022-07-14.sol\":2150:2160  msg.sender */\n      caller\n        /* \"contracts/exam-2022-07-14/exam-2022-07-14.sol\":2137:2161  auction.bids[msg.sender] */\n      0xffffffffffffffffffffffffffffffffffffffff\n      and\n      0xffffffffffffffffffffffffffffffffffffffff\n      and\n      dup2\n      mstore\n      0x20\n      add\n      swap1\n      dup2\n      mstore\n      0x20\n      add\n      0x00\n      keccak256\n      sload\n        /* \"contracts/exam-2022-07-14/exam-2022-07-14.sol\":2137:2166  auction.bids[msg.sender] == 0 */\n      sub\n        /* \"contracts/exam-2022-07-14/exam-2022-07-14.sol\":2134:2225  if(auction.bids[msg.sender] == 0) {... */\n      tag_95\n      jumpi\n        /* \"contracts/exam-2022-07-14/exam-2022-07-14.sol\":2182:2189  auction */\n      dup1\n        /* \"contracts/exam-2022-07-14/exam-2022-07-14.sol\":2182:2197  auction.bidders */\n      0x05\n      add\n        /* \"contracts/exam-2022-07-14/exam-2022-07-14.sol\":2203:2213  msg.sender */\n      caller\n        /* \"contracts/exam-2022-07-14/exam-2022-07-14.sol\":2182:2214  auction.bidders.push(msg.sender) */\n      swap1\n      dup1\n      0x01\n      dup2\n      sload\n      add\n      dup1\n      dup3\n      sstore\n      dup1\n      swap2\n      pop\n      pop\n      0x01\n      swap1\n      sub\n      swap1\n      0x00\n      mstore\n      keccak256(0x00, 0x20)\n      add\n      0x00\n      swap1\n      swap2\n      swap1\n      swap2\n      swap1\n      swap2\n      0x0100\n      exp\n      dup2\n      sload\n      dup2\n      0xffffffffffffffffffffffffffffffffffffffff\n      mul\n      not\n      and\n      swap1\n      dup4\n      0xffffffffffffffffffffffffffffffffffffffff\n      and\n      mul\n      or\n      swap1\n      sstore\n      pop\n        /* \"contracts/exam-2022-07-14/exam-2022-07-14.sol\":2134:2225  if(auction.bids[msg.sender] == 0) {... */\n    tag_95:\n        /* \"contracts/exam-2022-07-14/exam-2022-07-14.sol\":2262:2271  msg.value */\n      callvalue\n        /* \"contracts/exam-2022-07-14/exam-2022-07-14.sol\":2234:2241  auction */\n      dup2\n        /* \"contracts/exam-2022-07-14/exam-2022-07-14.sol\":2234:2246  auction.bids */\n      0x06\n      add\n        /* \"contracts/exam-2022-07-14/exam-2022-07-14.sol\":2234:2258  auction.bids[msg.sender] */\n      0x00\n        /* \"contracts/exam-2022-07-14/exam-2022-07-14.sol\":2247:2257  msg.sender */\n      caller\n        /* \"contracts/exam-2022-07-14/exam-2022-07-14.sol\":2234:2258  auction.bids[msg.sender] */\n      0xffffffffffffffffffffffffffffffffffffffff\n      and\n      0xffffffffffffffffffffffffffffffffffffffff\n      and\n      dup2\n      mstore\n      0x20\n      add\n      swap1\n      dup2\n      mstore\n      0x20\n      add\n      0x00\n      keccak256\n      0x00\n        /* \"contracts/exam-2022-07-14/exam-2022-07-14.sol\":2234:2271  auction.bids[msg.sender] += msg.value */\n      dup3\n      dup3\n      sload\n      tag_97\n      swap2\n      swap1\n      tag_98\n      jump\t// in\n    tag_97:\n      swap3\n      pop\n      pop\n      dup2\n      swap1\n      sstore\n      pop\n        /* \"contracts/exam-2022-07-14/exam-2022-07-14.sol\":2312:2319  auction */\n      dup1\n        /* \"contracts/exam-2022-07-14/exam-2022-07-14.sol\":2312:2330  auction.highestBid */\n      0x07\n      add\n      sload\n        /* \"contracts/exam-2022-07-14/exam-2022-07-14.sol\":2285:2292  auction */\n      dup2\n        /* \"contracts/exam-2022-07-14/exam-2022-07-14.sol\":2285:2297  auction.bids */\n      0x06\n      add\n        /* \"contracts/exam-2022-07-14/exam-2022-07-14.sol\":2285:2309  auction.bids[msg.sender] */\n      0x00\n        /* \"contracts/exam-2022-07-14/exam-2022-07-14.sol\":2298:2308  msg.sender */\n      caller\n        /* \"contracts/exam-2022-07-14/exam-2022-07-14.sol\":2285:2309  auction.bids[msg.sender] */\n      0xffffffffffffffffffffffffffffffffffffffff\n      and\n      0xffffffffffffffffffffffffffffffffffffffff\n      and\n      dup2\n      mstore\n      0x20\n      add\n      swap1\n      dup2\n      mstore\n      0x20\n      add\n      0x00\n      keccak256\n      sload\n        /* \"contracts/exam-2022-07-14/exam-2022-07-14.sol\":2285:2330  auction.bids[msg.sender] > auction.highestBid */\n      gt\n        /* \"contracts/exam-2022-07-14/exam-2022-07-14.sol\":2281:2554  if (auction.bids[msg.sender] > auction.highestBid) {... */\n      iszero\n      tag_99\n      jumpi\n        /* \"contracts/exam-2022-07-14/exam-2022-07-14.sol\":2367:2374  auction */\n      dup1\n        /* \"contracts/exam-2022-07-14/exam-2022-07-14.sol\":2367:2379  auction.bids */\n      0x06\n      add\n        /* \"contracts/exam-2022-07-14/exam-2022-07-14.sol\":2367:2391  auction.bids[msg.sender] */\n      0x00\n        /* \"contracts/exam-2022-07-14/exam-2022-07-14.sol\":2380:2390  msg.sender */\n      caller\n        /* \"contracts/exam-2022-07-14/exam-2022-07-14.sol\":2367:2391  auction.bids[msg.sender] */\n      0xffffffffffffffffffffffffffffffffffffffff\n      and\n      0xffffffffffffffffffffffffffffffffffffffff\n      and\n      dup2\n      mstore\n      0x20\n      add\n      swap1\n      dup2\n      mstore\n      0x20\n      add\n      0x00\n      keccak256\n      sload\n        /* \"contracts/exam-2022-07-14/exam-2022-07-14.sol\":2346:2353  auction */\n      dup2\n        /* \"contracts/exam-2022-07-14/exam-2022-07-14.sol\":2346:2364  auction.highestBid */\n      0x07\n      add\n        /* \"contracts/exam-2022-07-14/exam-2022-07-14.sol\":2346:2391  auction.highestBid = auction.bids[msg.sender] */\n      dup2\n      swap1\n      sstore\n      pop\n        /* \"contracts/exam-2022-07-14/exam-2022-07-14.sol\":2429:2439  msg.sender */\n      caller\n        /* \"contracts/exam-2022-07-14/exam-2022-07-14.sol\":2405:2412  auction */\n      dup2\n        /* \"contracts/exam-2022-07-14/exam-2022-07-14.sol\":2405:2426  auction.highestBidder */\n      0x08\n      add\n      0x00\n        /* \"contracts/exam-2022-07-14/exam-2022-07-14.sol\":2405:2439  auction.highestBidder = msg.sender */\n      0x0100\n      exp\n      dup2\n      sload\n      dup2\n      0xffffffffffffffffffffffffffffffffffffffff\n      mul\n      not\n      and\n      swap1\n      dup4\n      0xffffffffffffffffffffffffffffffffffffffff\n      and\n      mul\n      or\n      swap1\n      sstore\n      pop\n        /* \"contracts/exam-2022-07-14/exam-2022-07-14.sol\":2458:2518  NewHighestBid(id, auction.highestBidder, auction.highestBid) */\n      0xf13cb67d4c8841d2c893b242b7d61382d8e3bb53c5c58a8584106e74e8c4721b\n        /* \"contracts/exam-2022-07-14/exam-2022-07-14.sol\":2472:2474  id */\n      dup5\n        /* \"contracts/exam-2022-07-14/exam-2022-07-14.sol\":2476:2483  auction */\n      dup3\n        /* \"contracts/exam-2022-07-14/exam-2022-07-14.sol\":2476:2497  auction.highestBidder */\n      0x08\n      add\n      0x00\n      swap1\n      sload\n      swap1\n      0x0100\n      exp\n      swap1\n      div\n      0xffffffffffffffffffffffffffffffffffffffff\n      and\n        /* \"contracts/exam-2022-07-14/exam-2022-07-14.sol\":2499:2506  auction */\n      dup4\n        /* \"contracts/exam-2022-07-14/exam-2022-07-14.sol\":2499:2517  auction.highestBid */\n      0x07\n      add\n      sload\n        /* \"contracts/exam-2022-07-14/exam-2022-07-14.sol\":2458:2518  NewHighestBid(id, auction.highestBidder, auction.highestBid) */\n      mload(0x40)\n      tag_100\n      swap4\n      swap3\n      swap2\n      swap1\n      tag_101\n      jump\t// in\n    tag_100:\n      mload(0x40)\n      dup1\n      swap2\n      sub\n      swap1\n      log1\n        /* \"contracts/exam-2022-07-14/exam-2022-07-14.sol\":2539:2543  true */\n      0x01\n        /* \"contracts/exam-2022-07-14/exam-2022-07-14.sol\":2532:2543  return true */\n      swap3\n      pop\n      pop\n      jump(tag_81)\n        /* \"contracts/exam-2022-07-14/exam-2022-07-14.sol\":2281:2554  if (auction.bids[msg.sender] > auction.highestBid) {... */\n    tag_99:\n        /* \"contracts/exam-2022-07-14/exam-2022-07-14.sol\":2570:2575  false */\n      0x00\n        /* \"contracts/exam-2022-07-14/exam-2022-07-14.sol\":2563:2575  return false */\n      swap3\n      pop\n      pop\n        /* \"contracts/exam-2022-07-14/exam-2022-07-14.sol\":652:653  _ */\n    tag_81:\n        /* \"contracts/exam-2022-07-14/exam-2022-07-14.sol\":1715:2582  function bidOnAuction(uint256 id)... */\n      pop\n      swap2\n      swap1\n      pop\n      jump\t// out\n        /* \"contracts/exam-2022-07-14/exam-2022-07-14.sol\":2588:2979  function idsOfOngoingAuctions()... */\n    tag_23:\n        /* \"contracts/exam-2022-07-14/exam-2022-07-14.sol\":2667:2687  uint256[] memory ids */\n      0x60\n        /* \"contracts/exam-2022-07-14/exam-2022-07-14.sol\":2723:2745  ongoingAuctionsCounter */\n      sload(0x02)\n        /* \"contracts/exam-2022-07-14/exam-2022-07-14.sol\":2709:2746  new uint256[](ongoingAuctionsCounter) */\n      0xffffffffffffffff\n      dup2\n      gt\n      iszero\n      tag_103\n      jumpi\n      tag_104\n      tag_105\n      jump\t// in\n    tag_104:\n    tag_103:\n      mload(0x40)\n      swap1\n      dup1\n      dup3\n      mstore\n      dup1\n      0x20\n      mul\n      0x20\n      add\n      dup3\n      add\n      0x40\n      mstore\n      dup1\n      iszero\n      tag_106\n      jumpi\n      dup2\n      0x20\n      add\n      0x20\n      dup3\n      mul\n      dup1\n      calldatasize\n      dup4\n      calldatacopy\n      dup1\n      dup3\n      add\n      swap2\n      pop\n      pop\n      swap1\n      pop\n    tag_106:\n      pop\n        /* \"contracts/exam-2022-07-14/exam-2022-07-14.sol\":2703:2746  ids = new uint256[](ongoingAuctionsCounter) */\n      swap1\n      pop\n        /* \"contracts/exam-2022-07-14/exam-2022-07-14.sol\":2757:2770  uint256 index */\n      0x00\n        /* \"contracts/exam-2022-07-14/exam-2022-07-14.sol\":2789:2798  uint256 i */\n      dup1\n        /* \"contracts/exam-2022-07-14/exam-2022-07-14.sol\":2784:2973  for (uint256 i = 0; i < auctions.length; i++) {... */\n    tag_107:\n        /* \"contracts/exam-2022-07-14/exam-2022-07-14.sol\":2808:2816  auctions */\n      0x00\n        /* \"contracts/exam-2022-07-14/exam-2022-07-14.sol\":2808:2823  auctions.length */\n      dup1\n      sload\n      swap1\n      pop\n        /* \"contracts/exam-2022-07-14/exam-2022-07-14.sol\":2804:2805  i */\n      dup2\n        /* \"contracts/exam-2022-07-14/exam-2022-07-14.sol\":2804:2823  i < auctions.length */\n      lt\n        /* \"contracts/exam-2022-07-14/exam-2022-07-14.sol\":2784:2973  for (uint256 i = 0; i < auctions.length; i++) {... */\n      iszero\n      tag_108\n      jumpi\n        /* \"contracts/exam-2022-07-14/exam-2022-07-14.sol\":2869:2889  AuctionState.Ongoing */\n      0x00\n        /* \"contracts/exam-2022-07-14/exam-2022-07-14.sol\":2848:2889  auctions[i].state == AuctionState.Ongoing */\n      0x03\n      dup2\n      gt\n      iszero\n      tag_110\n      jumpi\n      tag_111\n      tag_88\n      jump\t// in\n    tag_111:\n    tag_110:\n        /* \"contracts/exam-2022-07-14/exam-2022-07-14.sol\":2848:2856  auctions */\n      0x00\n        /* \"contracts/exam-2022-07-14/exam-2022-07-14.sol\":2857:2858  i */\n      dup3\n        /* \"contracts/exam-2022-07-14/exam-2022-07-14.sol\":2848:2859  auctions[i] */\n      dup2\n      sload\n      dup2\n      lt\n      tag_112\n      jumpi\n      tag_113\n      tag_84\n      jump\t// in\n    tag_113:\n    tag_112:\n      swap1\n      0x00\n      mstore\n      keccak256(0x00, 0x20)\n      swap1\n      0x09\n      mul\n      add\n        /* \"contracts/exam-2022-07-14/exam-2022-07-14.sol\":2848:2865  auctions[i].state */\n      0x04\n      add\n      0x00\n      swap1\n      sload\n      swap1\n      0x0100\n      exp\n      swap1\n      div\n      0xff\n      and\n        /* \"contracts/exam-2022-07-14/exam-2022-07-14.sol\":2848:2889  auctions[i].state == AuctionState.Ongoing */\n      0x03\n      dup2\n      gt\n      iszero\n      tag_115\n      jumpi\n      tag_116\n      tag_88\n      jump\t// in\n    tag_116:\n    tag_115:\n      sub\n        /* \"contracts/exam-2022-07-14/exam-2022-07-14.sol\":2844:2963  if (auctions[i].state == AuctionState.Ongoing) {... */\n      tag_117\n      jumpi\n        /* \"contracts/exam-2022-07-14/exam-2022-07-14.sol\":2922:2923  i */\n      dup1\n        /* \"contracts/exam-2022-07-14/exam-2022-07-14.sol\":2909:2912  ids */\n      dup4\n        /* \"contracts/exam-2022-07-14/exam-2022-07-14.sol\":2913:2918  index */\n      dup4\n        /* \"contracts/exam-2022-07-14/exam-2022-07-14.sol\":2909:2919  ids[index] */\n      dup2\n      mload\n      dup2\n      lt\n      tag_118\n      jumpi\n      tag_119\n      tag_84\n      jump\t// in\n    tag_119:\n    tag_118:\n      0x20\n      mul\n      0x20\n      add\n      add\n        /* \"contracts/exam-2022-07-14/exam-2022-07-14.sol\":2909:2923  ids[index] = i */\n      dup2\n      dup2\n      mstore\n      pop\n      pop\n        /* \"contracts/exam-2022-07-14/exam-2022-07-14.sol\":2941:2948  index++ */\n      dup2\n      dup1\n      tag_120\n      swap1\n      tag_121\n      jump\t// in\n    tag_120:\n      swap3\n      pop\n      pop\n        /* \"contracts/exam-2022-07-14/exam-2022-07-14.sol\":2844:2963  if (auctions[i].state == AuctionState.Ongoing) {... */\n    tag_117:\n        /* \"contracts/exam-2022-07-14/exam-2022-07-14.sol\":2825:2828  i++ */\n      dup1\n      dup1\n      0x01\n      add\n      swap2\n      pop\n      pop\n        /* \"contracts/exam-2022-07-14/exam-2022-07-14.sol\":2784:2973  for (uint256 i = 0; i < auctions.length; i++) {... */\n      jump(tag_107)\n    tag_108:\n      pop\n        /* \"contracts/exam-2022-07-14/exam-2022-07-14.sol\":2693:2979  {... */\n      pop\n        /* \"contracts/exam-2022-07-14/exam-2022-07-14.sol\":2588:2979  function idsOfOngoingAuctions()... */\n      swap1\n      jump\t// out\n        /* \"contracts/exam-2022-07-14/exam-2022-07-14.sol\":3673:3902  function auctionBeneficiary(uint256 id)... */\n    tag_29:\n        /* \"contracts/exam-2022-07-14/exam-2022-07-14.sol\":3786:3805  address beneficiary */\n      0x00\n        /* \"contracts/exam-2022-07-14/exam-2022-07-14.sol\":3765:3767  id */\n      dup2\n        /* \"contracts/exam-2022-07-14/exam-2022-07-14.sol\":574:589  auctionsCounter */\n      sload(0x01)\n        /* \"contracts/exam-2022-07-14/exam-2022-07-14.sol\":568:570  id */\n      dup2\n        /* \"contracts/exam-2022-07-14/exam-2022-07-14.sol\":568:589  id >= auctionsCounter */\n      lt\n        /* \"contracts/exam-2022-07-14/exam-2022-07-14.sol\":565:643  if(id >= auctionsCounter) {... */\n      tag_123\n      jumpi\n        /* \"contracts/exam-2022-07-14/exam-2022-07-14.sol\":612:632  AuctionNotExisting() */\n      mload(0x40)\n      0x94c1121f00000000000000000000000000000000000000000000000000000000\n      dup2\n      mstore\n      0x04\n      add\n      mload(0x40)\n      dup1\n      swap2\n      sub\n      swap1\n      revert\n        /* \"contracts/exam-2022-07-14/exam-2022-07-14.sol\":565:643  if(id >= auctionsCounter) {... */\n    tag_123:\n        /* \"contracts/exam-2022-07-14/exam-2022-07-14.sol\":3821:3844  Auction storage auction */\n      0x00\n        /* \"contracts/exam-2022-07-14/exam-2022-07-14.sol\":3847:3855  auctions */\n      dup1\n        /* \"contracts/exam-2022-07-14/exam-2022-07-14.sol\":3856:3858  id */\n      dup5\n        /* \"contracts/exam-2022-07-14/exam-2022-07-14.sol\":3847:3859  auctions[id] */\n      dup2\n      sload\n      dup2\n      lt\n      tag_125\n      jumpi\n      tag_126\n      tag_84\n      jump\t// in\n    tag_126:\n    tag_125:\n      swap1\n      0x00\n      mstore\n      keccak256(0x00, 0x20)\n      swap1\n      0x09\n      mul\n      add\n        /* \"contracts/exam-2022-07-14/exam-2022-07-14.sol\":3821:3859  Auction storage auction = auctions[id] */\n      swap1\n      pop\n        /* \"contracts/exam-2022-07-14/exam-2022-07-14.sol\":3876:3883  auction */\n      dup1\n        /* \"contracts/exam-2022-07-14/exam-2022-07-14.sol\":3876:3895  auction.beneficiary */\n      0x00\n      add\n      0x00\n      swap1\n      sload\n      swap1\n      0x0100\n      exp\n      swap1\n      div\n      0xffffffffffffffffffffffffffffffffffffffff\n      and\n        /* \"contracts/exam-2022-07-14/exam-2022-07-14.sol\":3869:3895  return auction.beneficiary */\n      swap3\n      pop\n      pop\n        /* \"contracts/exam-2022-07-14/exam-2022-07-14.sol\":3673:3902  function auctionBeneficiary(uint256 id)... */\n      pop\n      swap2\n      swap1\n      pop\n      jump\t// out\n        /* \"contracts/exam-2022-07-14/exam-2022-07-14.sol\":2985:3208  function auctionDescription(uint256 id)... */\n    tag_35:\n        /* \"contracts/exam-2022-07-14/exam-2022-07-14.sol\":3098:3111  string memory */\n      0x60\n        /* \"contracts/exam-2022-07-14/exam-2022-07-14.sol\":3077:3079  id */\n      dup2\n        /* \"contracts/exam-2022-07-14/exam-2022-07-14.sol\":574:589  auctionsCounter */\n      sload(0x01)\n        /* \"contracts/exam-2022-07-14/exam-2022-07-14.sol\":568:570  id */\n      dup2\n        /* \"contracts/exam-2022-07-14/exam-2022-07-14.sol\":568:589  id >= auctionsCounter */\n      lt\n        /* \"contracts/exam-2022-07-14/exam-2022-07-14.sol\":565:643  if(id >= auctionsCounter) {... */\n      tag_129\n      jumpi\n        /* \"contracts/exam-2022-07-14/exam-2022-07-14.sol\":612:632  AuctionNotExisting() */\n      mload(0x40)\n      0x94c1121f00000000000000000000000000000000000000000000000000000000\n      dup2\n      mstore\n      0x04\n      add\n      mload(0x40)\n      dup1\n      swap2\n      sub\n      swap1\n      revert\n        /* \"contracts/exam-2022-07-14/exam-2022-07-14.sol\":565:643  if(id >= auctionsCounter) {... */\n    tag_129:\n        /* \"contracts/exam-2022-07-14/exam-2022-07-14.sol\":3127:3150  Auction storage auction */\n      0x00\n        /* \"contracts/exam-2022-07-14/exam-2022-07-14.sol\":3153:3161  auctions */\n      dup1\n        /* \"contracts/exam-2022-07-14/exam-2022-07-14.sol\":3162:3164  id */\n      dup5\n        /* \"contracts/exam-2022-07-14/exam-2022-07-14.sol\":3153:3165  auctions[id] */\n      dup2\n      sload\n      dup2\n      lt\n      tag_131\n      jumpi\n      tag_132\n      tag_84\n      jump\t// in\n    tag_132:\n    tag_131:\n      swap1\n      0x00\n      mstore\n      keccak256(0x00, 0x20)\n      swap1\n      0x09\n      mul\n      add\n        /* \"contracts/exam-2022-07-14/exam-2022-07-14.sol\":3127:3165  Auction storage auction = auctions[id] */\n      swap1\n      pop\n        /* \"contracts/exam-2022-07-14/exam-2022-07-14.sol\":3182:3189  auction */\n      dup1\n        /* \"contracts/exam-2022-07-14/exam-2022-07-14.sol\":3182:3201  auction.description */\n      0x01\n      add\n        /* \"contracts/exam-2022-07-14/exam-2022-07-14.sol\":3175:3201  return auction.description */\n      dup1\n      sload\n      tag_134\n      swap1\n      tag_135\n      jump\t// in\n    tag_134:\n      dup1\n      0x1f\n      add\n      0x20\n      dup1\n      swap2\n      div\n      mul\n      0x20\n      add\n      mload(0x40)\n      swap1\n      dup2\n      add\n      0x40\n      mstore\n      dup1\n      swap3\n      swap2\n      swap1\n      dup2\n      dup2\n      mstore\n      0x20\n      add\n      dup3\n      dup1\n      sload\n      tag_136\n      swap1\n      tag_135\n      jump\t// in\n    tag_136:\n      dup1\n      iszero\n      tag_137\n      jumpi\n      dup1\n      0x1f\n      lt\n      tag_138\n      jumpi\n      0x0100\n      dup1\n      dup4\n      sload\n      div\n      mul\n      dup4\n      mstore\n      swap2\n      0x20\n      add\n      swap2\n      jump(tag_137)\n    tag_138:\n      dup3\n      add\n      swap2\n      swap1\n      0x00\n      mstore\n      keccak256(0x00, 0x20)\n      swap1\n    tag_139:\n      dup2\n      sload\n      dup2\n      mstore\n      swap1\n      0x01\n      add\n      swap1\n      0x20\n      add\n      dup1\n      dup4\n      gt\n      tag_139\n      jumpi\n      dup3\n      swap1\n      sub\n      0x1f\n      and\n      dup3\n      add\n      swap2\n    tag_137:\n      pop\n      pop\n      pop\n      pop\n      pop\n      swap3\n      pop\n      pop\n        /* \"contracts/exam-2022-07-14/exam-2022-07-14.sol\":2985:3208  function auctionDescription(uint256 id)... */\n      pop\n      swap2\n      swap1\n      pop\n      jump\t// out\n        /* \"contracts/exam-2022-07-14/exam-2022-07-14.sol\":3908:4118  function auctionState(uint256 id)... */\n    tag_41:\n        /* \"contracts/exam-2022-07-14/exam-2022-07-14.sol\":4015:4027  AuctionState */\n      0x00\n        /* \"contracts/exam-2022-07-14/exam-2022-07-14.sol\":3994:3996  id */\n      dup2\n        /* \"contracts/exam-2022-07-14/exam-2022-07-14.sol\":574:589  auctionsCounter */\n      sload(0x01)\n        /* \"contracts/exam-2022-07-14/exam-2022-07-14.sol\":568:570  id */\n      dup2\n        /* \"contracts/exam-2022-07-14/exam-2022-07-14.sol\":568:589  id >= auctionsCounter */\n      lt\n        /* \"contracts/exam-2022-07-14/exam-2022-07-14.sol\":565:643  if(id >= auctionsCounter) {... */\n      tag_141\n      jumpi\n        /* \"contracts/exam-2022-07-14/exam-2022-07-14.sol\":612:632  AuctionNotExisting() */\n      mload(0x40)\n      0x94c1121f00000000000000000000000000000000000000000000000000000000\n      dup2\n      mstore\n      0x04\n      add\n      mload(0x40)\n      dup1\n      swap2\n      sub\n      swap1\n      revert\n        /* \"contracts/exam-2022-07-14/exam-2022-07-14.sol\":565:643  if(id >= auctionsCounter) {... */\n    tag_141:\n        /* \"contracts/exam-2022-07-14/exam-2022-07-14.sol\":4043:4066  Auction storage auction */\n      0x00\n        /* \"contracts/exam-2022-07-14/exam-2022-07-14.sol\":4069:4077  auctions */\n      dup1\n        /* \"contracts/exam-2022-07-14/exam-2022-07-14.sol\":4078:4080  id */\n      dup5\n        /* \"contracts/exam-2022-07-14/exam-2022-07-14.sol\":4069:4081  auctions[id] */\n      dup2\n      sload\n      dup2\n      lt\n      tag_143\n      jumpi\n      tag_144\n      tag_84\n      jump\t// in\n    tag_144:\n    tag_143:\n      swap1\n      0x00\n      mstore\n      keccak256(0x00, 0x20)\n      swap1\n      0x09\n      mul\n      add\n        /* \"contracts/exam-2022-07-14/exam-2022-07-14.sol\":4043:4081  Auction storage auction = auctions[id] */\n      swap1\n      pop\n        /* \"contracts/exam-2022-07-14/exam-2022-07-14.sol\":4098:4105  auction */\n      dup1\n        /* \"contracts/exam-2022-07-14/exam-2022-07-14.sol\":4098:4111  auction.state */\n      0x04\n      add\n      0x00\n      swap1\n      sload\n      swap1\n      0x0100\n      exp\n      swap1\n      div\n      0xff\n      and\n        /* \"contracts/exam-2022-07-14/exam-2022-07-14.sol\":4091:4111  return auction.state */\n      swap3\n      pop\n      pop\n        /* \"contracts/exam-2022-07-14/exam-2022-07-14.sol\":3908:4118  function auctionState(uint256 id)... */\n      pop\n      swap2\n      swap1\n      pop\n      jump\t// out\n        /* \"contracts/exam-2022-07-14/exam-2022-07-14.sol\":5672:6400  function cancelAuction(uint256 id) external auctionExists(id) {... */\n    tag_47:\n        /* \"contracts/exam-2022-07-14/exam-2022-07-14.sol\":5730:5732  id */\n      dup1\n        /* \"contracts/exam-2022-07-14/exam-2022-07-14.sol\":574:589  auctionsCounter */\n      sload(0x01)\n        /* \"contracts/exam-2022-07-14/exam-2022-07-14.sol\":568:570  id */\n      dup2\n        /* \"contracts/exam-2022-07-14/exam-2022-07-14.sol\":568:589  id >= auctionsCounter */\n      lt\n        /* \"contracts/exam-2022-07-14/exam-2022-07-14.sol\":565:643  if(id >= auctionsCounter) {... */\n      tag_147\n      jumpi\n        /* \"contracts/exam-2022-07-14/exam-2022-07-14.sol\":612:632  AuctionNotExisting() */\n      mload(0x40)\n      0x94c1121f00000000000000000000000000000000000000000000000000000000\n      dup2\n      mstore\n      0x04\n      add\n      mload(0x40)\n      dup1\n      swap2\n      sub\n      swap1\n      revert\n        /* \"contracts/exam-2022-07-14/exam-2022-07-14.sol\":565:643  if(id >= auctionsCounter) {... */\n    tag_147:\n        /* \"contracts/exam-2022-07-14/exam-2022-07-14.sol\":5744:5767  Auction storage auction */\n      0x00\n        /* \"contracts/exam-2022-07-14/exam-2022-07-14.sol\":5770:5778  auctions */\n      dup1\n        /* \"contracts/exam-2022-07-14/exam-2022-07-14.sol\":5779:5781  id */\n      dup4\n        /* \"contracts/exam-2022-07-14/exam-2022-07-14.sol\":5770:5782  auctions[id] */\n      dup2\n      sload\n      dup2\n      lt\n      tag_149\n      jumpi\n      tag_150\n      tag_84\n      jump\t// in\n    tag_150:\n    tag_149:\n      swap1\n      0x00\n      mstore\n      keccak256(0x00, 0x20)\n      swap1\n      0x09\n      mul\n      add\n        /* \"contracts/exam-2022-07-14/exam-2022-07-14.sol\":5744:5782  Auction storage auction = auctions[id] */\n      swap1\n      pop\n        /* \"contracts/exam-2022-07-14/exam-2022-07-14.sol\":5814:5821  auction */\n      dup1\n        /* \"contracts/exam-2022-07-14/exam-2022-07-14.sol\":5814:5833  auction.beneficiary */\n      0x00\n      add\n      0x00\n      swap1\n      sload\n      swap1\n      0x0100\n      exp\n      swap1\n      div\n      0xffffffffffffffffffffffffffffffffffffffff\n      and\n        /* \"contracts/exam-2022-07-14/exam-2022-07-14.sol\":5800:5833  msg.sender == auction.beneficiary */\n      0xffffffffffffffffffffffffffffffffffffffff\n      and\n        /* \"contracts/exam-2022-07-14/exam-2022-07-14.sol\":5800:5810  msg.sender */\n      caller\n        /* \"contracts/exam-2022-07-14/exam-2022-07-14.sol\":5800:5833  msg.sender == auction.beneficiary */\n      0xffffffffffffffffffffffffffffffffffffffff\n      and\n      eq\n        /* \"contracts/exam-2022-07-14/exam-2022-07-14.sol\":5792:5876  require(msg.sender == auction.beneficiary, \"Only the creator can cancel an auction\") */\n      tag_152\n      jumpi\n      mload(0x40)\n      0x08c379a000000000000000000000000000000000000000000000000000000000\n      dup2\n      mstore\n      0x04\n      add\n      tag_153\n      swap1\n      tag_154\n      jump\t// in\n    tag_153:\n      mload(0x40)\n      dup1\n      swap2\n      sub\n      swap1\n      revert\n    tag_152:\n        /* \"contracts/exam-2022-07-14/exam-2022-07-14.sol\":5911:5931  AuctionState.Ongoing */\n      0x00\n        /* \"contracts/exam-2022-07-14/exam-2022-07-14.sol\":5894:5931  auction.state == AuctionState.Ongoing */\n      0x03\n      dup2\n      gt\n      iszero\n      tag_155\n      jumpi\n      tag_156\n      tag_88\n      jump\t// in\n    tag_156:\n    tag_155:\n        /* \"contracts/exam-2022-07-14/exam-2022-07-14.sol\":5894:5901  auction */\n      dup2\n        /* \"contracts/exam-2022-07-14/exam-2022-07-14.sol\":5894:5907  auction.state */\n      0x04\n      add\n      0x00\n      swap1\n      sload\n      swap1\n      0x0100\n      exp\n      swap1\n      div\n      0xff\n      and\n        /* \"contracts/exam-2022-07-14/exam-2022-07-14.sol\":5894:5931  auction.state == AuctionState.Ongoing */\n      0x03\n      dup2\n      gt\n      iszero\n      tag_157\n      jumpi\n      tag_158\n      tag_88\n      jump\t// in\n    tag_158:\n    tag_157:\n      eq\n        /* \"contracts/exam-2022-07-14/exam-2022-07-14.sol\":5886:5971  require(auction.state == AuctionState.Ongoing, \"You can cancel only ongoing auction\") */\n      tag_159\n      jumpi\n      mload(0x40)\n      0x08c379a000000000000000000000000000000000000000000000000000000000\n      dup2\n      mstore\n      0x04\n      add\n      tag_160\n      swap1\n      tag_161\n      jump\t// in\n    tag_160:\n      mload(0x40)\n      dup1\n      swap2\n      sub\n      swap1\n      revert\n    tag_159:\n        /* \"contracts/exam-2022-07-14/exam-2022-07-14.sol\":6010:6025  block.timestamp */\n      timestamp\n        /* \"contracts/exam-2022-07-14/exam-2022-07-14.sol\":5989:5996  auction */\n      dup2\n        /* \"contracts/exam-2022-07-14/exam-2022-07-14.sol\":5989:6007  auction.expiration */\n      0x03\n      add\n      sload\n        /* \"contracts/exam-2022-07-14/exam-2022-07-14.sol\":5989:6025  auction.expiration > block.timestamp */\n      gt\n        /* \"contracts/exam-2022-07-14/exam-2022-07-14.sol\":5981:6069  require(auction.expiration > block.timestamp, \"You can cancel only not expired auction\") */\n      tag_162\n      jumpi\n      mload(0x40)\n      0x08c379a000000000000000000000000000000000000000000000000000000000\n      dup2\n      mstore\n      0x04\n      add\n      tag_163\n      swap1\n      tag_164\n      jump\t// in\n    tag_163:\n      mload(0x40)\n      dup1\n      swap2\n      sub\n      swap1\n      revert\n    tag_162:\n        /* \"contracts/exam-2022-07-14/exam-2022-07-14.sol\":6095:6116  AuctionState.Canceled */\n      0x03\n        /* \"contracts/exam-2022-07-14/exam-2022-07-14.sol\":6079:6086  auction */\n      dup2\n        /* \"contracts/exam-2022-07-14/exam-2022-07-14.sol\":6079:6092  auction.state */\n      0x04\n      add\n      0x00\n        /* \"contracts/exam-2022-07-14/exam-2022-07-14.sol\":6079:6116  auction.state = AuctionState.Canceled */\n      0x0100\n      exp\n      dup2\n      sload\n      dup2\n      0xff\n      mul\n      not\n      and\n      swap1\n      dup4\n      0x03\n      dup2\n      gt\n      iszero\n      tag_165\n      jumpi\n      tag_166\n      tag_88\n      jump\t// in\n    tag_166:\n    tag_165:\n      mul\n      or\n      swap1\n      sstore\n      pop\n        /* \"contracts/exam-2022-07-14/exam-2022-07-14.sol\":6130:6136  uint i */\n      0x00\n        /* \"contracts/exam-2022-07-14/exam-2022-07-14.sol\":6126:6394  for(uint i=0; i<auction.bidders.length; i++) {... */\n    tag_167:\n        /* \"contracts/exam-2022-07-14/exam-2022-07-14.sol\":6142:6149  auction */\n      dup2\n        /* \"contracts/exam-2022-07-14/exam-2022-07-14.sol\":6142:6157  auction.bidders */\n      0x05\n      add\n        /* \"contracts/exam-2022-07-14/exam-2022-07-14.sol\":6142:6164  auction.bidders.length */\n      dup1\n      sload\n      swap1\n      pop\n        /* \"contracts/exam-2022-07-14/exam-2022-07-14.sol\":6140:6141  i */\n      dup2\n        /* \"contracts/exam-2022-07-14/exam-2022-07-14.sol\":6140:6164  i<auction.bidders.length */\n      lt\n        /* \"contracts/exam-2022-07-14/exam-2022-07-14.sol\":6126:6394  for(uint i=0; i<auction.bidders.length; i++) {... */\n      iszero\n      tag_168\n      jumpi\n        /* \"contracts/exam-2022-07-14/exam-2022-07-14.sol\":6185:6203  address bidderAddr */\n      0x00\n        /* \"contracts/exam-2022-07-14/exam-2022-07-14.sol\":6206:6213  auction */\n      dup3\n        /* \"contracts/exam-2022-07-14/exam-2022-07-14.sol\":6206:6221  auction.bidders */\n      0x05\n      add\n        /* \"contracts/exam-2022-07-14/exam-2022-07-14.sol\":6222:6223  i */\n      dup3\n        /* \"contracts/exam-2022-07-14/exam-2022-07-14.sol\":6206:6224  auction.bidders[i] */\n      dup2\n      sload\n      dup2\n      lt\n      tag_170\n      jumpi\n      tag_171\n      tag_84\n      jump\t// in\n    tag_171:\n    tag_170:\n      swap1\n      0x00\n      mstore\n      keccak256(0x00, 0x20)\n      add\n      0x00\n      swap1\n      sload\n      swap1\n      0x0100\n      exp\n      swap1\n      div\n      0xffffffffffffffffffffffffffffffffffffffff\n      and\n        /* \"contracts/exam-2022-07-14/exam-2022-07-14.sol\":6185:6224  address bidderAddr = auction.bidders[i] */\n      swap1\n      pop\n        /* \"contracts/exam-2022-07-14/exam-2022-07-14.sol\":6238:6258  uint256 bidderAmount */\n      0x00\n        /* \"contracts/exam-2022-07-14/exam-2022-07-14.sol\":6261:6268  auction */\n      dup4\n        /* \"contracts/exam-2022-07-14/exam-2022-07-14.sol\":6261:6273  auction.bids */\n      0x06\n      add\n        /* \"contracts/exam-2022-07-14/exam-2022-07-14.sol\":6261:6285  auction.bids[bidderAddr] */\n      0x00\n        /* \"contracts/exam-2022-07-14/exam-2022-07-14.sol\":6274:6284  bidderAddr */\n      dup4\n        /* \"contracts/exam-2022-07-14/exam-2022-07-14.sol\":6261:6285  auction.bids[bidderAddr] */\n      0xffffffffffffffffffffffffffffffffffffffff\n      and\n      0xffffffffffffffffffffffffffffffffffffffff\n      and\n      dup2\n      mstore\n      0x20\n      add\n      swap1\n      dup2\n      mstore\n      0x20\n      add\n      0x00\n      keccak256\n      sload\n        /* \"contracts/exam-2022-07-14/exam-2022-07-14.sol\":6238:6285  uint256 bidderAmount = auction.bids[bidderAddr] */\n      swap1\n      pop\n        /* \"contracts/exam-2022-07-14/exam-2022-07-14.sol\":6326:6327  0 */\n      0x00\n        /* \"contracts/exam-2022-07-14/exam-2022-07-14.sol\":6299:6306  auction */\n      dup5\n        /* \"contracts/exam-2022-07-14/exam-2022-07-14.sol\":6299:6311  auction.bids */\n      0x06\n      add\n        /* \"contracts/exam-2022-07-14/exam-2022-07-14.sol\":6299:6323  auction.bids[bidderAddr] */\n      0x00\n        /* \"contracts/exam-2022-07-14/exam-2022-07-14.sol\":6312:6322  bidderAddr */\n      dup5\n        /* \"contracts/exam-2022-07-14/exam-2022-07-14.sol\":6299:6323  auction.bids[bidderAddr] */\n      0xffffffffffffffffffffffffffffffffffffffff\n      and\n      0xffffffffffffffffffffffffffffffffffffffff\n      and\n      dup2\n      mstore\n      0x20\n      add\n      swap1\n      dup2\n      mstore\n      0x20\n      add\n      0x00\n      keccak256\n        /* \"contracts/exam-2022-07-14/exam-2022-07-14.sol\":6299:6327  auction.bids[bidderAddr] = 0 */\n      dup2\n      swap1\n      sstore\n      pop\n        /* \"contracts/exam-2022-07-14/exam-2022-07-14.sol\":6349:6359  bidderAddr */\n      dup2\n        /* \"contracts/exam-2022-07-14/exam-2022-07-14.sol\":6341:6369  payable(bidderAddr).transfer */\n      0xffffffffffffffffffffffffffffffffffffffff\n      and\n        /* \"contracts/exam-2022-07-14/exam-2022-07-14.sol\":6341:6383  payable(bidderAddr).transfer(bidderAmount) */\n      0x08fc\n        /* \"contracts/exam-2022-07-14/exam-2022-07-14.sol\":6370:6382  bidderAmount */\n      dup3\n        /* \"contracts/exam-2022-07-14/exam-2022-07-14.sol\":6341:6383  payable(bidderAddr).transfer(bidderAmount) */\n      swap1\n      dup2\n      iszero\n      mul\n      swap1\n      mload(0x40)\n      0x00\n      mload(0x40)\n      dup1\n      dup4\n      sub\n      dup2\n      dup6\n      dup9\n      dup9\n      call\n      swap4\n      pop\n      pop\n      pop\n      pop\n      iszero\n      dup1\n      iszero\n      tag_174\n      jumpi\n      returndatasize\n      0x00\n      dup1\n      returndatacopy\n      revert(0x00, returndatasize)\n    tag_174:\n      pop\n        /* \"contracts/exam-2022-07-14/exam-2022-07-14.sol\":6171:6394  {... */\n      pop\n      pop\n        /* \"contracts/exam-2022-07-14/exam-2022-07-14.sol\":6166:6169  i++ */\n      dup1\n      dup1\n      0x01\n      add\n      swap2\n      pop\n      pop\n        /* \"contracts/exam-2022-07-14/exam-2022-07-14.sol\":6126:6394  for(uint i=0; i<auction.bidders.length; i++) {... */\n      jump(tag_167)\n    tag_168:\n      pop\n        /* \"contracts/exam-2022-07-14/exam-2022-07-14.sol\":5734:6400  {... */\n      pop\n        /* \"contracts/exam-2022-07-14/exam-2022-07-14.sol\":5672:6400  function cancelAuction(uint256 id) external auctionExists(id) {... */\n      pop\n      pop\n      jump\t// out\n        /* \"contracts/exam-2022-07-14/exam-2022-07-14.sol\":4352:4580  function auctionHighestBidder(uint256 id)... */\n    tag_51:\n        /* \"contracts/exam-2022-07-14/exam-2022-07-14.sol\":4467:4481  address bidder */\n      0x00\n        /* \"contracts/exam-2022-07-14/exam-2022-07-14.sol\":4446:4448  id */\n      dup2\n        /* \"contracts/exam-2022-07-14/exam-2022-07-14.sol\":574:589  auctionsCounter */\n      sload(0x01)\n        /* \"contracts/exam-2022-07-14/exam-2022-07-14.sol\":568:570  id */\n      dup2\n        /* \"contracts/exam-2022-07-14/exam-2022-07-14.sol\":568:589  id >= auctionsCounter */\n      lt\n        /* \"contracts/exam-2022-07-14/exam-2022-07-14.sol\":565:643  if(id >= auctionsCounter) {... */\n      tag_176\n      jumpi\n        /* \"contracts/exam-2022-07-14/exam-2022-07-14.sol\":612:632  AuctionNotExisting() */\n      mload(0x40)\n      0x94c1121f00000000000000000000000000000000000000000000000000000000\n      dup2\n      mstore\n      0x04\n      add\n      mload(0x40)\n      dup1\n      swap2\n      sub\n      swap1\n      revert\n        /* \"contracts/exam-2022-07-14/exam-2022-07-14.sol\":565:643  if(id >= auctionsCounter) {... */\n    tag_176:\n        /* \"contracts/exam-2022-07-14/exam-2022-07-14.sol\":4497:4520  Auction storage auction */\n      0x00\n        /* \"contracts/exam-2022-07-14/exam-2022-07-14.sol\":4523:4531  auctions */\n      dup1\n        /* \"contracts/exam-2022-07-14/exam-2022-07-14.sol\":4532:4534  id */\n      dup5\n        /* \"contracts/exam-2022-07-14/exam-2022-07-14.sol\":4523:4535  auctions[id] */\n      dup2\n      sload\n      dup2\n      lt\n      tag_178\n      jumpi\n      tag_179\n      tag_84\n      jump\t// in\n    tag_179:\n    tag_178:\n      swap1\n      0x00\n      mstore\n      keccak256(0x00, 0x20)\n      swap1\n      0x09\n      mul\n      add\n        /* \"contracts/exam-2022-07-14/exam-2022-07-14.sol\":4497:4535  Auction storage auction = auctions[id] */\n      swap1\n      pop\n        /* \"contracts/exam-2022-07-14/exam-2022-07-14.sol\":4552:4559  auction */\n      dup1\n        /* \"contracts/exam-2022-07-14/exam-2022-07-14.sol\":4552:4573  auction.highestBidder */\n      0x08\n      add\n      0x00\n      swap1\n      sload\n      swap1\n      0x0100\n      exp\n      swap1\n      div\n      0xffffffffffffffffffffffffffffffffffffffff\n      and\n        /* \"contracts/exam-2022-07-14/exam-2022-07-14.sol\":4545:4573  return auction.highestBidder */\n      swap3\n      pop\n      pop\n        /* \"contracts/exam-2022-07-14/exam-2022-07-14.sol\":4352:4580  function auctionHighestBidder(uint256 id)... */\n      pop\n      swap2\n      swap1\n      pop\n      jump\t// out\n        /* \"contracts/exam-2022-07-14/exam-2022-07-14.sol\":4124:4346  function auctionHighestBid(uint256 id)... */\n    tag_56:\n        /* \"contracts/exam-2022-07-14/exam-2022-07-14.sol\":4236:4250  uint256 amount */\n      0x00\n        /* \"contracts/exam-2022-07-14/exam-2022-07-14.sol\":4215:4217  id */\n      dup2\n        /* \"contracts/exam-2022-07-14/exam-2022-07-14.sol\":574:589  auctionsCounter */\n      sload(0x01)\n        /* \"contracts/exam-2022-07-14/exam-2022-07-14.sol\":568:570  id */\n      dup2\n        /* \"contracts/exam-2022-07-14/exam-2022-07-14.sol\":568:589  id >= auctionsCounter */\n      lt\n        /* \"contracts/exam-2022-07-14/exam-2022-07-14.sol\":565:643  if(id >= auctionsCounter) {... */\n      tag_182\n      jumpi\n        /* \"contracts/exam-2022-07-14/exam-2022-07-14.sol\":612:632  AuctionNotExisting() */\n      mload(0x40)\n      0x94c1121f00000000000000000000000000000000000000000000000000000000\n      dup2\n      mstore\n      0x04\n      add\n      mload(0x40)\n      dup1\n      swap2\n      sub\n      swap1\n      revert\n        /* \"contracts/exam-2022-07-14/exam-2022-07-14.sol\":565:643  if(id >= auctionsCounter) {... */\n    tag_182:\n        /* \"contracts/exam-2022-07-14/exam-2022-07-14.sol\":4266:4289  Auction storage auction */\n      0x00\n        /* \"contracts/exam-2022-07-14/exam-2022-07-14.sol\":4292:4300  auctions */\n      dup1\n        /* \"contracts/exam-2022-07-14/exam-2022-07-14.sol\":4301:4303  id */\n      dup5\n        /* \"contracts/exam-2022-07-14/exam-2022-07-14.sol\":4292:4304  auctions[id] */\n      dup2\n      sload\n      dup2\n      lt\n      tag_184\n      jumpi\n      tag_185\n      tag_84\n      jump\t// in\n    tag_185:\n    tag_184:\n      swap1\n      0x00\n      mstore\n      keccak256(0x00, 0x20)\n      swap1\n      0x09\n      mul\n      add\n        /* \"contracts/exam-2022-07-14/exam-2022-07-14.sol\":4266:4304  Auction storage auction = auctions[id] */\n      swap1\n      pop\n        /* \"contracts/exam-2022-07-14/exam-2022-07-14.sol\":4321:4328  auction */\n      dup1\n        /* \"contracts/exam-2022-07-14/exam-2022-07-14.sol\":4321:4339  auction.highestBid */\n      0x07\n      add\n      sload\n        /* \"contracts/exam-2022-07-14/exam-2022-07-14.sol\":4314:4339  return auction.highestBid */\n      swap3\n      pop\n      pop\n        /* \"contracts/exam-2022-07-14/exam-2022-07-14.sol\":4124:4346  function auctionHighestBid(uint256 id)... */\n      pop\n      swap2\n      swap1\n      pop\n      jump\t// out\n        /* \"contracts/exam-2022-07-14/exam-2022-07-14.sol\":3442:3667  function auctionExpiration(uint256 id)... */\n    tag_62:\n        /* \"contracts/exam-2022-07-14/exam-2022-07-14.sol\":3554:3571  uint256 timestamp */\n      0x00\n        /* \"contracts/exam-2022-07-14/exam-2022-07-14.sol\":3533:3535  id */\n      dup2\n        /* \"contracts/exam-2022-07-14/exam-2022-07-14.sol\":574:589  auctionsCounter */\n      sload(0x01)\n        /* \"contracts/exam-2022-07-14/exam-2022-07-14.sol\":568:570  id */\n      dup2\n        /* \"contracts/exam-2022-07-14/exam-2022-07-14.sol\":568:589  id >= auctionsCounter */\n      lt\n        /* \"contracts/exam-2022-07-14/exam-2022-07-14.sol\":565:643  if(id >= auctionsCounter) {... */\n      tag_188\n      jumpi\n        /* \"contracts/exam-2022-07-14/exam-2022-07-14.sol\":612:632  AuctionNotExisting() */\n      mload(0x40)\n      0x94c1121f00000000000000000000000000000000000000000000000000000000\n      dup2\n      mstore\n      0x04\n      add\n      mload(0x40)\n      dup1\n      swap2\n      sub\n      swap1\n      revert\n        /* \"contracts/exam-2022-07-14/exam-2022-07-14.sol\":565:643  if(id >= auctionsCounter) {... */\n    tag_188:\n        /* \"contracts/exam-2022-07-14/exam-2022-07-14.sol\":3587:3610  Auction storage auction */\n      0x00\n        /* \"contracts/exam-2022-07-14/exam-2022-07-14.sol\":3613:3621  auctions */\n      dup1\n        /* \"contracts/exam-2022-07-14/exam-2022-07-14.sol\":3622:3624  id */\n      dup5\n        /* \"contracts/exam-2022-07-14/exam-2022-07-14.sol\":3613:3625  auctions[id] */\n      dup2\n      sload\n      dup2\n      lt\n      tag_190\n      jumpi\n      tag_191\n      tag_84\n      jump\t// in\n    tag_191:\n    tag_190:\n      swap1\n      0x00\n      mstore\n      keccak256(0x00, 0x20)\n      swap1\n      0x09\n      mul\n      add\n        /* \"contracts/exam-2022-07-14/exam-2022-07-14.sol\":3587:3625  Auction storage auction = auctions[id] */\n      swap1\n      pop\n        /* \"contracts/exam-2022-07-14/exam-2022-07-14.sol\":3642:3649  auction */\n      dup1\n        /* \"contracts/exam-2022-07-14/exam-2022-07-14.sol\":3642:3660  auction.expiration */\n      0x03\n      add\n      sload\n        /* \"contracts/exam-2022-07-14/exam-2022-07-14.sol\":3635:3660  return auction.expiration */\n      swap3\n      pop\n      pop\n        /* \"contracts/exam-2022-07-14/exam-2022-07-14.sol\":3442:3667  function auctionExpiration(uint256 id)... */\n      pop\n      swap2\n      swap1\n      pop\n      jump\t// out\n        /* \"contracts/exam-2022-07-14/exam-2022-07-14.sol\":3214:3436  function auctionMinimumBid(uint256 id)... */\n    tag_67:\n        /* \"contracts/exam-2022-07-14/exam-2022-07-14.sol\":3326:3340  uint256 amount */\n      0x00\n        /* \"contracts/exam-2022-07-14/exam-2022-07-14.sol\":3305:3307  id */\n      dup2\n        /* \"contracts/exam-2022-07-14/exam-2022-07-14.sol\":574:589  auctionsCounter */\n      sload(0x01)\n        /* \"contracts/exam-2022-07-14/exam-2022-07-14.sol\":568:570  id */\n      dup2\n        /* \"contracts/exam-2022-07-14/exam-2022-07-14.sol\":568:589  id >= auctionsCounter */\n      lt\n        /* \"contracts/exam-2022-07-14/exam-2022-07-14.sol\":565:643  if(id >= auctionsCounter) {... */\n      tag_194\n      jumpi\n        /* \"contracts/exam-2022-07-14/exam-2022-07-14.sol\":612:632  AuctionNotExisting() */\n      mload(0x40)\n      0x94c1121f00000000000000000000000000000000000000000000000000000000\n      dup2\n      mstore\n      0x04\n      add\n      mload(0x40)\n      dup1\n      swap2\n      sub\n      swap1\n      revert\n        /* \"contracts/exam-2022-07-14/exam-2022-07-14.sol\":565:643  if(id >= auctionsCounter) {... */\n    tag_194:\n        /* \"contracts/exam-2022-07-14/exam-2022-07-14.sol\":3356:3379  Auction storage auction */\n      0x00\n        /* \"contracts/exam-2022-07-14/exam-2022-07-14.sol\":3382:3390  auctions */\n      dup1\n        /* \"contracts/exam-2022-07-14/exam-2022-07-14.sol\":3391:3393  id */\n      dup5\n        /* \"contracts/exam-2022-07-14/exam-2022-07-14.sol\":3382:3394  auctions[id] */\n      dup2\n      sload\n      dup2\n      lt\n      tag_196\n      jumpi\n      tag_197\n      tag_84\n      jump\t// in\n    tag_197:\n    tag_196:\n      swap1\n      0x00\n      mstore\n      keccak256(0x00, 0x20)\n      swap1\n      0x09\n      mul\n      add\n        /* \"contracts/exam-2022-07-14/exam-2022-07-14.sol\":3356:3394  Auction storage auction = auctions[id] */\n      swap1\n      pop\n        /* \"contracts/exam-2022-07-14/exam-2022-07-14.sol\":3411:3418  auction */\n      dup1\n        /* \"contracts/exam-2022-07-14/exam-2022-07-14.sol\":3411:3429  auction.minimumBid */\n      0x02\n      add\n      sload\n        /* \"contracts/exam-2022-07-14/exam-2022-07-14.sol\":3404:3429  return auction.minimumBid */\n      swap3\n      pop\n      pop\n        /* \"contracts/exam-2022-07-14/exam-2022-07-14.sol\":3214:3436  function auctionMinimumBid(uint256 id)... */\n      pop\n      swap2\n      swap1\n      pop\n      jump\t// out\n        /* \"contracts/exam-2022-07-14/exam-2022-07-14.sol\":666:1709  function createNewAuction(... */\n    tag_73:\n        /* \"contracts/exam-2022-07-14/exam-2022-07-14.sol\":814:824  uint256 id */\n      0x00\n        /* \"contracts/exam-2022-07-14/exam-2022-07-14.sol\":836:859  Auction storage auction */\n      dup1\n        /* \"contracts/exam-2022-07-14/exam-2022-07-14.sol\":862:870  auctions */\n      0x00\n        /* \"contracts/exam-2022-07-14/exam-2022-07-14.sol\":862:877  auctions.push() */\n      0x01\n      dup2\n      0x01\n      dup2\n      sload\n      add\n      dup1\n      dup3\n      sstore\n      dup1\n      swap2\n      pop\n      pop\n      sub\n      swap1\n      0x00\n      mstore\n      keccak256(0x00, 0x20)\n      swap1\n      0x09\n      mul\n      add\n        /* \"contracts/exam-2022-07-14/exam-2022-07-14.sol\":836:877  Auction storage auction = auctions.push() */\n      swap1\n      pop\n        /* \"contracts/exam-2022-07-14/exam-2022-07-14.sol\":917:927  msg.sender */\n      caller\n        /* \"contracts/exam-2022-07-14/exam-2022-07-14.sol\":887:894  auction */\n      dup2\n        /* \"contracts/exam-2022-07-14/exam-2022-07-14.sol\":887:906  auction.beneficiary */\n      0x00\n      add\n      0x00\n        /* \"contracts/exam-2022-07-14/exam-2022-07-14.sol\":887:928  auction.beneficiary = payable(msg.sender) */\n      0x0100\n      exp\n      dup2\n      sload\n      dup2\n      0xffffffffffffffffffffffffffffffffffffffff\n      mul\n      not\n      and\n      swap1\n      dup4\n      0xffffffffffffffffffffffffffffffffffffffff\n      and\n      mul\n      or\n      swap1\n      sstore\n      pop\n        /* \"contracts/exam-2022-07-14/exam-2022-07-14.sol\":960:971  description */\n      dup5\n        /* \"contracts/exam-2022-07-14/exam-2022-07-14.sol\":938:945  auction */\n      dup2\n        /* \"contracts/exam-2022-07-14/exam-2022-07-14.sol\":938:957  auction.description */\n      0x01\n      add\n        /* \"contracts/exam-2022-07-14/exam-2022-07-14.sol\":938:971  auction.description = description */\n      swap1\n      dup2\n      tag_201\n      swap2\n      swap1\n      tag_202\n      jump\t// in\n    tag_201:\n      pop\n        /* \"contracts/exam-2022-07-14/exam-2022-07-14.sol\":1002:1012  minimumBid */\n      dup4\n        /* \"contracts/exam-2022-07-14/exam-2022-07-14.sol\":981:988  auction */\n      dup2\n        /* \"contracts/exam-2022-07-14/exam-2022-07-14.sol\":981:999  auction.minimumBid */\n      0x02\n      add\n        /* \"contracts/exam-2022-07-14/exam-2022-07-14.sol\":981:1012  auction.minimumBid = minimumBid */\n      dup2\n      swap1\n      sstore\n      pop\n        /* \"contracts/exam-2022-07-14/exam-2022-07-14.sol\":1082:1086  3600 */\n      0x0e10\n        /* \"contracts/exam-2022-07-14/exam-2022-07-14.sol\":1062:1079  expirationInHours */\n      dup4\n        /* \"contracts/exam-2022-07-14/exam-2022-07-14.sol\":1062:1086  expirationInHours * 3600 */\n      tag_203\n      swap2\n      swap1\n      tag_204\n      jump\t// in\n    tag_203:\n        /* \"contracts/exam-2022-07-14/exam-2022-07-14.sol\":1043:1058  block.timestamp */\n      timestamp\n        /* \"contracts/exam-2022-07-14/exam-2022-07-14.sol\":1043:1087  block.timestamp + (expirationInHours * 3600) */\n      tag_205\n      swap2\n      swap1\n      tag_98\n      jump\t// in\n    tag_205:\n        /* \"contracts/exam-2022-07-14/exam-2022-07-14.sol\":1022:1029  auction */\n      dup2\n        /* \"contracts/exam-2022-07-14/exam-2022-07-14.sol\":1022:1040  auction.expiration */\n      0x03\n      add\n        /* \"contracts/exam-2022-07-14/exam-2022-07-14.sol\":1022:1087  auction.expiration = block.timestamp + (expirationInHours * 3600) */\n      dup2\n      swap1\n      sstore\n      pop\n        /* \"contracts/exam-2022-07-14/exam-2022-07-14.sol\":1113:1133  AuctionState.Ongoing */\n      0x00\n        /* \"contracts/exam-2022-07-14/exam-2022-07-14.sol\":1097:1104  auction */\n      dup2\n        /* \"contracts/exam-2022-07-14/exam-2022-07-14.sol\":1097:1110  auction.state */\n      0x04\n      add\n      0x00\n        /* \"contracts/exam-2022-07-14/exam-2022-07-14.sol\":1097:1133  auction.state = AuctionState.Ongoing */\n      0x0100\n      exp\n      dup2\n      sload\n      dup2\n      0xff\n      mul\n      not\n      and\n      swap1\n      dup4\n      0x03\n      dup2\n      gt\n      iszero\n      tag_206\n      jumpi\n      tag_207\n      tag_88\n      jump\t// in\n    tag_207:\n    tag_206:\n      mul\n      or\n      swap1\n      sstore\n      pop\n        /* \"contracts/exam-2022-07-14/exam-2022-07-14.sol\":1164:1165  0 */\n      0x00\n        /* \"contracts/exam-2022-07-14/exam-2022-07-14.sol\":1143:1150  auction */\n      dup2\n        /* \"contracts/exam-2022-07-14/exam-2022-07-14.sol\":1143:1161  auction.highestBid */\n      0x07\n      add\n        /* \"contracts/exam-2022-07-14/exam-2022-07-14.sol\":1143:1165  auction.highestBid = 0 */\n      dup2\n      swap1\n      sstore\n      pop\n        /* \"contracts/exam-2022-07-14/exam-2022-07-14.sol\":1207:1208  0 */\n      0x00\n        /* \"contracts/exam-2022-07-14/exam-2022-07-14.sol\":1175:1182  auction */\n      dup2\n        /* \"contracts/exam-2022-07-14/exam-2022-07-14.sol\":1175:1196  auction.highestBidder */\n      0x08\n      add\n      0x00\n        /* \"contracts/exam-2022-07-14/exam-2022-07-14.sol\":1175:1209  auction.highestBidder = address(0) */\n      0x0100\n      exp\n      dup2\n      sload\n      dup2\n      0xffffffffffffffffffffffffffffffffffffffff\n      mul\n      not\n      and\n      swap1\n      dup4\n      0xffffffffffffffffffffffffffffffffffffffff\n      and\n      mul\n      or\n      swap1\n      sstore\n      pop\n        /* \"contracts/exam-2022-07-14/exam-2022-07-14.sol\":1579:1634  NewAuction(description, minimumBid, auction.expiration) */\n      0xcf46d2d7c26c0b0a6796544f9c85c0c2d515717cd942218815045650a44eb528\n        /* \"contracts/exam-2022-07-14/exam-2022-07-14.sol\":1590:1601  description */\n      dup6\n        /* \"contracts/exam-2022-07-14/exam-2022-07-14.sol\":1603:1613  minimumBid */\n      dup6\n        /* \"contracts/exam-2022-07-14/exam-2022-07-14.sol\":1615:1622  auction */\n      dup4\n        /* \"contracts/exam-2022-07-14/exam-2022-07-14.sol\":1615:1633  auction.expiration */\n      0x03\n      add\n      sload\n        /* \"contracts/exam-2022-07-14/exam-2022-07-14.sol\":1579:1634  NewAuction(description, minimumBid, auction.expiration) */\n      mload(0x40)\n      tag_208\n      swap4\n      swap3\n      swap2\n      swap1\n      tag_209\n      jump\t// in\n    tag_208:\n      mload(0x40)\n      dup1\n      swap2\n      sub\n      swap1\n      log1\n        /* \"contracts/exam-2022-07-14/exam-2022-07-14.sol\":1644:1666  ongoingAuctionsCounter */\n      0x02\n      0x00\n        /* \"contracts/exam-2022-07-14/exam-2022-07-14.sol\":1644:1668  ongoingAuctionsCounter++ */\n      dup2\n      sload\n      dup1\n      swap3\n      swap2\n      swap1\n      tag_210\n      swap1\n      tag_121\n      jump\t// in\n    tag_210:\n      swap2\n      swap1\n      pop\n      sstore\n      pop\n        /* \"contracts/exam-2022-07-14/exam-2022-07-14.sol\":1685:1700  auctionsCounter */\n      0x01\n      0x00\n        /* \"contracts/exam-2022-07-14/exam-2022-07-14.sol\":1685:1702  auctionsCounter++ */\n      dup2\n      sload\n      dup1\n      swap3\n      swap2\n      swap1\n      tag_211\n      swap1\n      tag_121\n      jump\t// in\n    tag_211:\n      swap2\n      swap1\n      pop\n      sstore\n        /* \"contracts/exam-2022-07-14/exam-2022-07-14.sol\":1678:1702  return auctionsCounter++ */\n      swap2\n      pop\n      pop\n        /* \"contracts/exam-2022-07-14/exam-2022-07-14.sol\":666:1709  function createNewAuction(... */\n      swap4\n      swap3\n      pop\n      pop\n      pop\n      jump\t// out\n        /* \"contracts/exam-2022-07-14/exam-2022-07-14.sol\":4586:5666  function finalizeAuction(uint256 id) external auctionExists(id) {... */\n    tag_78:\n        /* \"contracts/exam-2022-07-14/exam-2022-07-14.sol\":4646:4648  id */\n      dup1\n        /* \"contracts/exam-2022-07-14/exam-2022-07-14.sol\":574:589  auctionsCounter */\n      sload(0x01)\n        /* \"contracts/exam-2022-07-14/exam-2022-07-14.sol\":568:570  id */\n      dup2\n        /* \"contracts/exam-2022-07-14/exam-2022-07-14.sol\":568:589  id >= auctionsCounter */\n      lt\n        /* \"contracts/exam-2022-07-14/exam-2022-07-14.sol\":565:643  if(id >= auctionsCounter) {... */\n      tag_213\n      jumpi\n        /* \"contracts/exam-2022-07-14/exam-2022-07-14.sol\":612:632  AuctionNotExisting() */\n      mload(0x40)\n      0x94c1121f00000000000000000000000000000000000000000000000000000000\n      dup2\n      mstore\n      0x04\n      add\n      mload(0x40)\n      dup1\n      swap2\n      sub\n      swap1\n      revert\n        /* \"contracts/exam-2022-07-14/exam-2022-07-14.sol\":565:643  if(id >= auctionsCounter) {... */\n    tag_213:\n        /* \"contracts/exam-2022-07-14/exam-2022-07-14.sol\":4660:4683  Auction storage auction */\n      0x00\n        /* \"contracts/exam-2022-07-14/exam-2022-07-14.sol\":4686:4694  auctions */\n      dup1\n        /* \"contracts/exam-2022-07-14/exam-2022-07-14.sol\":4695:4697  id */\n      dup4\n        /* \"contracts/exam-2022-07-14/exam-2022-07-14.sol\":4686:4698  auctions[id] */\n      dup2\n      sload\n      dup2\n      lt\n      tag_215\n      jumpi\n      tag_216\n      tag_84\n      jump\t// in\n    tag_216:\n    tag_215:\n      swap1\n      0x00\n      mstore\n      keccak256(0x00, 0x20)\n      swap1\n      0x09\n      mul\n      add\n        /* \"contracts/exam-2022-07-14/exam-2022-07-14.sol\":4660:4698  Auction storage auction = auctions[id] */\n      swap1\n      pop\n        /* \"contracts/exam-2022-07-14/exam-2022-07-14.sol\":4728:4748  AuctionState.Ongoing */\n      0x00\n        /* \"contracts/exam-2022-07-14/exam-2022-07-14.sol\":4711:4748  auction.state != AuctionState.Ongoing */\n      0x03\n      dup2\n      gt\n      iszero\n      tag_218\n      jumpi\n      tag_219\n      tag_88\n      jump\t// in\n    tag_219:\n    tag_218:\n        /* \"contracts/exam-2022-07-14/exam-2022-07-14.sol\":4711:4718  auction */\n      dup2\n        /* \"contracts/exam-2022-07-14/exam-2022-07-14.sol\":4711:4724  auction.state */\n      0x04\n      add\n      0x00\n      swap1\n      sload\n      swap1\n      0x0100\n      exp\n      swap1\n      div\n      0xff\n      and\n        /* \"contracts/exam-2022-07-14/exam-2022-07-14.sol\":4711:4748  auction.state != AuctionState.Ongoing */\n      0x03\n      dup2\n      gt\n      iszero\n      tag_220\n      jumpi\n      tag_221\n      tag_88\n      jump\t// in\n    tag_221:\n    tag_220:\n      eq\n        /* \"contracts/exam-2022-07-14/exam-2022-07-14.sol\":4708:4817  if(auction.state != AuctionState.Ongoing) {... */\n      tag_222\n      jumpi\n        /* \"contracts/exam-2022-07-14/exam-2022-07-14.sol\":4771:4806  AuctionToFinalizeAlreadyFinalized() */\n      mload(0x40)\n      0xcf95da3f00000000000000000000000000000000000000000000000000000000\n      dup2\n      mstore\n      0x04\n      add\n      mload(0x40)\n      dup1\n      swap2\n      sub\n      swap1\n      revert\n        /* \"contracts/exam-2022-07-14/exam-2022-07-14.sol\":4708:4817  if(auction.state != AuctionState.Ongoing) {... */\n    tag_222:\n        /* \"contracts/exam-2022-07-14/exam-2022-07-14.sol\":4847:4854  auction */\n      dup1\n        /* \"contracts/exam-2022-07-14/exam-2022-07-14.sol\":4847:4865  auction.expiration */\n      0x03\n      add\n      sload\n        /* \"contracts/exam-2022-07-14/exam-2022-07-14.sol\":4829:4844  block.timestamp */\n      timestamp\n        /* \"contracts/exam-2022-07-14/exam-2022-07-14.sol\":4829:4865  block.timestamp < auction.expiration */\n      lt\n        /* \"contracts/exam-2022-07-14/exam-2022-07-14.sol\":4826:4947  if(block.timestamp < auction.expiration) {... */\n      iszero\n      tag_223\n      jumpi\n        /* \"contracts/exam-2022-07-14/exam-2022-07-14.sol\":4917:4924  auction */\n      dup1\n        /* \"contracts/exam-2022-07-14/exam-2022-07-14.sol\":4917:4935  auction.expiration */\n      0x03\n      add\n      sload\n        /* \"contracts/exam-2022-07-14/exam-2022-07-14.sol\":4888:4936  AuctionToFinalizeNotYetEnded(auction.expiration) */\n      mload(0x40)\n      0x420f57a200000000000000000000000000000000000000000000000000000000\n      dup2\n      mstore\n      0x04\n      add\n      tag_224\n      swap2\n      swap1\n      tag_58\n      jump\t// in\n    tag_224:\n      mload(0x40)\n      dup1\n      swap2\n      sub\n      swap1\n      revert\n        /* \"contracts/exam-2022-07-14/exam-2022-07-14.sol\":4826:4947  if(block.timestamp < auction.expiration) {... */\n    tag_223:\n        /* \"contracts/exam-2022-07-14/exam-2022-07-14.sol\":4981:4982  0 */\n      0x00\n        /* \"contracts/exam-2022-07-14/exam-2022-07-14.sol\":4959:4966  auction */\n      dup2\n        /* \"contracts/exam-2022-07-14/exam-2022-07-14.sol\":4959:4977  auction.highestBid */\n      0x07\n      add\n      sload\n        /* \"contracts/exam-2022-07-14/exam-2022-07-14.sol\":4959:4982  auction.highestBid == 0 */\n      sub\n        /* \"contracts/exam-2022-07-14/exam-2022-07-14.sol\":4956:5115  if(auction.highestBid == 0) {... */\n      tag_225\n      jumpi\n        /* \"contracts/exam-2022-07-14/exam-2022-07-14.sol\":5014:5034  AuctionState.Expired */\n      0x02\n        /* \"contracts/exam-2022-07-14/exam-2022-07-14.sol\":4998:5005  auction */\n      dup2\n        /* \"contracts/exam-2022-07-14/exam-2022-07-14.sol\":4998:5011  auction.state */\n      0x04\n      add\n      0x00\n        /* \"contracts/exam-2022-07-14/exam-2022-07-14.sol\":4998:5034  auction.state = AuctionState.Expired */\n      0x0100\n      exp\n      dup2\n      sload\n      dup2\n      0xff\n      mul\n      not\n      and\n      swap1\n      dup4\n      0x03\n      dup2\n      gt\n      iszero\n      tag_226\n      jumpi\n      tag_227\n      tag_88\n      jump\t// in\n    tag_227:\n    tag_226:\n      mul\n      or\n      swap1\n      sstore\n      pop\n        /* \"contracts/exam-2022-07-14/exam-2022-07-14.sol\":5053:5084  AuctionExpiredWithoutWinner(id) */\n      0x8f69798335a031208711bd85f5ecdbba5586c28945fe94862229319ef033d7ca\n        /* \"contracts/exam-2022-07-14/exam-2022-07-14.sol\":5081:5083  id */\n      dup4\n        /* \"contracts/exam-2022-07-14/exam-2022-07-14.sol\":5053:5084  AuctionExpiredWithoutWinner(id) */\n      mload(0x40)\n      tag_228\n      swap2\n      swap1\n      tag_58\n      jump\t// in\n    tag_228:\n      mload(0x40)\n      dup1\n      swap2\n      sub\n      swap1\n      log1\n        /* \"contracts/exam-2022-07-14/exam-2022-07-14.sol\":5098:5105  return; */\n      pop\n      jump(tag_214)\n        /* \"contracts/exam-2022-07-14/exam-2022-07-14.sol\":4956:5115  if(auction.highestBid == 0) {... */\n    tag_225:\n        /* \"contracts/exam-2022-07-14/exam-2022-07-14.sol\":5140:5168  AuctionState.EndedWithWinner */\n      0x01\n        /* \"contracts/exam-2022-07-14/exam-2022-07-14.sol\":5124:5131  auction */\n      dup2\n        /* \"contracts/exam-2022-07-14/exam-2022-07-14.sol\":5124:5137  auction.state */\n      0x04\n      add\n      0x00\n        /* \"contracts/exam-2022-07-14/exam-2022-07-14.sol\":5124:5168  auction.state = AuctionState.EndedWithWinner */\n      0x0100\n      exp\n      dup2\n      sload\n      dup2\n      0xff\n      mul\n      not\n      and\n      swap1\n      dup4\n      0x03\n      dup2\n      gt\n      iszero\n      tag_229\n      jumpi\n      tag_230\n      tag_88\n      jump\t// in\n    tag_230:\n    tag_229:\n      mul\n      or\n      swap1\n      sstore\n      pop\n        /* \"contracts/exam-2022-07-14/exam-2022-07-14.sol\":5182:5188  uint i */\n      0x00\n        /* \"contracts/exam-2022-07-14/exam-2022-07-14.sol\":5178:5518  for(uint i=0; i<auction.bidders.length; i++) {... */\n    tag_231:\n        /* \"contracts/exam-2022-07-14/exam-2022-07-14.sol\":5194:5201  auction */\n      dup2\n        /* \"contracts/exam-2022-07-14/exam-2022-07-14.sol\":5194:5209  auction.bidders */\n      0x05\n      add\n        /* \"contracts/exam-2022-07-14/exam-2022-07-14.sol\":5194:5216  auction.bidders.length */\n      dup1\n      sload\n      swap1\n      pop\n        /* \"contracts/exam-2022-07-14/exam-2022-07-14.sol\":5192:5193  i */\n      dup2\n        /* \"contracts/exam-2022-07-14/exam-2022-07-14.sol\":5192:5216  i<auction.bidders.length */\n      lt\n        /* \"contracts/exam-2022-07-14/exam-2022-07-14.sol\":5178:5518  for(uint i=0; i<auction.bidders.length; i++) {... */\n      iszero\n      tag_232\n      jumpi\n        /* \"contracts/exam-2022-07-14/exam-2022-07-14.sol\":5237:5255  address bidderAddr */\n      0x00\n        /* \"contracts/exam-2022-07-14/exam-2022-07-14.sol\":5258:5265  auction */\n      dup3\n        /* \"contracts/exam-2022-07-14/exam-2022-07-14.sol\":5258:5273  auction.bidders */\n      0x05\n      add\n        /* \"contracts/exam-2022-07-14/exam-2022-07-14.sol\":5274:5275  i */\n      dup3\n        /* \"contracts/exam-2022-07-14/exam-2022-07-14.sol\":5258:5276  auction.bidders[i] */\n      dup2\n      sload\n      dup2\n      lt\n      tag_234\n      jumpi\n      tag_235\n      tag_84\n      jump\t// in\n    tag_235:\n    tag_234:\n      swap1\n      0x00\n      mstore\n      keccak256(0x00, 0x20)\n      add\n      0x00\n      swap1\n      sload\n      swap1\n      0x0100\n      exp\n      swap1\n      div\n      0xffffffffffffffffffffffffffffffffffffffff\n      and\n        /* \"contracts/exam-2022-07-14/exam-2022-07-14.sol\":5237:5276  address bidderAddr = auction.bidders[i] */\n      swap1\n      pop\n        /* \"contracts/exam-2022-07-14/exam-2022-07-14.sol\":5290:5310  uint256 bidderAmount */\n      0x00\n        /* \"contracts/exam-2022-07-14/exam-2022-07-14.sol\":5313:5320  auction */\n      dup4\n        /* \"contracts/exam-2022-07-14/exam-2022-07-14.sol\":5313:5325  auction.bids */\n      0x06\n      add\n        /* \"contracts/exam-2022-07-14/exam-2022-07-14.sol\":5313:5337  auction.bids[bidderAddr] */\n      0x00\n        /* \"contracts/exam-2022-07-14/exam-2022-07-14.sol\":5326:5336  bidderAddr */\n      dup4\n        /* \"contracts/exam-2022-07-14/exam-2022-07-14.sol\":5313:5337  auction.bids[bidderAddr] */\n      0xffffffffffffffffffffffffffffffffffffffff\n      and\n      0xffffffffffffffffffffffffffffffffffffffff\n      and\n      dup2\n      mstore\n      0x20\n      add\n      swap1\n      dup2\n      mstore\n      0x20\n      add\n      0x00\n      keccak256\n      sload\n        /* \"contracts/exam-2022-07-14/exam-2022-07-14.sol\":5290:5337  uint256 bidderAmount = auction.bids[bidderAddr] */\n      swap1\n      pop\n        /* \"contracts/exam-2022-07-14/exam-2022-07-14.sol\":5378:5379  0 */\n      0x00\n        /* \"contracts/exam-2022-07-14/exam-2022-07-14.sol\":5351:5358  auction */\n      dup5\n        /* \"contracts/exam-2022-07-14/exam-2022-07-14.sol\":5351:5363  auction.bids */\n      0x06\n      add\n        /* \"contracts/exam-2022-07-14/exam-2022-07-14.sol\":5351:5375  auction.bids[bidderAddr] */\n      0x00\n        /* \"contracts/exam-2022-07-14/exam-2022-07-14.sol\":5364:5374  bidderAddr */\n      dup5\n        /* \"contracts/exam-2022-07-14/exam-2022-07-14.sol\":5351:5375  auction.bids[bidderAddr] */\n      0xffffffffffffffffffffffffffffffffffffffff\n      and\n      0xffffffffffffffffffffffffffffffffffffffff\n      and\n      dup2\n      mstore\n      0x20\n      add\n      swap1\n      dup2\n      mstore\n      0x20\n      add\n      0x00\n      keccak256\n        /* \"contracts/exam-2022-07-14/exam-2022-07-14.sol\":5351:5379  auction.bids[bidderAddr] = 0 */\n      dup2\n      swap1\n      sstore\n      pop\n        /* \"contracts/exam-2022-07-14/exam-2022-07-14.sol\":5410:5417  auction */\n      dup4\n        /* \"contracts/exam-2022-07-14/exam-2022-07-14.sol\":5410:5431  auction.highestBidder */\n      0x08\n      add\n      0x00\n      swap1\n      sload\n      swap1\n      0x0100\n      exp\n      swap1\n      div\n      0xffffffffffffffffffffffffffffffffffffffff\n      and\n        /* \"contracts/exam-2022-07-14/exam-2022-07-14.sol\":5396:5431  bidderAddr != auction.highestBidder */\n      0xffffffffffffffffffffffffffffffffffffffff\n      and\n        /* \"contracts/exam-2022-07-14/exam-2022-07-14.sol\":5396:5406  bidderAddr */\n      dup3\n        /* \"contracts/exam-2022-07-14/exam-2022-07-14.sol\":5396:5431  bidderAddr != auction.highestBidder */\n      0xffffffffffffffffffffffffffffffffffffffff\n      and\n      eq\n        /* \"contracts/exam-2022-07-14/exam-2022-07-14.sol\":5393:5508  if(bidderAddr != auction.highestBidder) {... */\n      tag_237\n      jumpi\n        /* \"contracts/exam-2022-07-14/exam-2022-07-14.sol\":5459:5469  bidderAddr */\n      dup2\n        /* \"contracts/exam-2022-07-14/exam-2022-07-14.sol\":5451:5479  payable(bidderAddr).transfer */\n      0xffffffffffffffffffffffffffffffffffffffff\n      and\n        /* \"contracts/exam-2022-07-14/exam-2022-07-14.sol\":5451:5493  payable(bidderAddr).transfer(bidderAmount) */\n      0x08fc\n        /* \"contracts/exam-2022-07-14/exam-2022-07-14.sol\":5480:5492  bidderAmount */\n      dup3\n        /* \"contracts/exam-2022-07-14/exam-2022-07-14.sol\":5451:5493  payable(bidderAddr).transfer(bidderAmount) */\n      swap1\n      dup2\n      iszero\n      mul\n      swap1\n      mload(0x40)\n      0x00\n      mload(0x40)\n      dup1\n      dup4\n      sub\n      dup2\n      dup6\n      dup9\n      dup9\n      call\n      swap4\n      pop\n      pop\n      pop\n      pop\n      iszero\n      dup1\n      iszero\n      tag_239\n      jumpi\n      returndatasize\n      0x00\n      dup1\n      returndatacopy\n      revert(0x00, returndatasize)\n    tag_239:\n      pop\n        /* \"contracts/exam-2022-07-14/exam-2022-07-14.sol\":5393:5508  if(bidderAddr != auction.highestBidder) {... */\n    tag_237:\n        /* \"contracts/exam-2022-07-14/exam-2022-07-14.sol\":5223:5518  {... */\n      pop\n      pop\n        /* \"contracts/exam-2022-07-14/exam-2022-07-14.sol\":5218:5221  i++ */\n      dup1\n      dup1\n      0x01\n      add\n      swap2\n      pop\n      pop\n        /* \"contracts/exam-2022-07-14/exam-2022-07-14.sol\":5178:5518  for(uint i=0; i<auction.bidders.length; i++) {... */\n      jump(tag_231)\n    tag_232:\n      pop\n        /* \"contracts/exam-2022-07-14/exam-2022-07-14.sol\":5527:5534  auction */\n      dup1\n        /* \"contracts/exam-2022-07-14/exam-2022-07-14.sol\":5527:5546  auction.beneficiary */\n      0x00\n      add\n      0x00\n      swap1\n      sload\n      swap1\n      0x0100\n      exp\n      swap1\n      div\n      0xffffffffffffffffffffffffffffffffffffffff\n      and\n        /* \"contracts/exam-2022-07-14/exam-2022-07-14.sol\":5527:5555  auction.beneficiary.transfer */\n      0xffffffffffffffffffffffffffffffffffffffff\n      and\n        /* \"contracts/exam-2022-07-14/exam-2022-07-14.sol\":5527:5575  auction.beneficiary.transfer(auction.highestBid) */\n      0x08fc\n        /* \"contracts/exam-2022-07-14/exam-2022-07-14.sol\":5556:5563  auction */\n      dup3\n        /* \"contracts/exam-2022-07-14/exam-2022-07-14.sol\":5556:5574  auction.highestBid */\n      0x07\n      add\n      sload\n        /* \"contracts/exam-2022-07-14/exam-2022-07-14.sol\":5527:5575  auction.beneficiary.transfer(auction.highestBid) */\n      swap1\n      dup2\n      iszero\n      mul\n      swap1\n      mload(0x40)\n      0x00\n      mload(0x40)\n      dup1\n      dup4\n      sub\n      dup2\n      dup6\n      dup9\n      dup9\n      call\n      swap4\n      pop\n      pop\n      pop\n      pop\n      iszero\n      dup1\n      iszero\n      tag_241\n      jumpi\n      returndatasize\n      0x00\n      dup1\n      returndatacopy\n      revert(0x00, returndatasize)\n    tag_241:\n      pop\n        /* \"contracts/exam-2022-07-14/exam-2022-07-14.sol\":5590:5659  AuctionEndedWithWinner(id, auction.highestBidder, auction.highestBid) */\n      0xab41e3f06042d2db81478807ab10a02315433d6f63128f9e25858e37e2ac7dfe\n        /* \"contracts/exam-2022-07-14/exam-2022-07-14.sol\":5613:5615  id */\n      dup4\n        /* \"contracts/exam-2022-07-14/exam-2022-07-14.sol\":5617:5624  auction */\n      dup3\n        /* \"contracts/exam-2022-07-14/exam-2022-07-14.sol\":5617:5638  auction.highestBidder */\n      0x08\n      add\n      0x00\n      swap1\n      sload\n      swap1\n      0x0100\n      exp\n      swap1\n      div\n      0xffffffffffffffffffffffffffffffffffffffff\n      and\n        /* \"contracts/exam-2022-07-14/exam-2022-07-14.sol\":5640:5647  auction */\n      dup4\n        /* \"contracts/exam-2022-07-14/exam-2022-07-14.sol\":5640:5658  auction.highestBid */\n      0x07\n      add\n      sload\n        /* \"contracts/exam-2022-07-14/exam-2022-07-14.sol\":5590:5659  AuctionEndedWithWinner(id, auction.highestBidder, auction.highestBid) */\n      mload(0x40)\n      tag_242\n      swap4\n      swap3\n      swap2\n      swap1\n      tag_101\n      jump\t// in\n    tag_242:\n      mload(0x40)\n      dup1\n      swap2\n      sub\n      swap1\n      log1\n        /* \"contracts/exam-2022-07-14/exam-2022-07-14.sol\":4650:5666  {... */\n      pop\n        /* \"contracts/exam-2022-07-14/exam-2022-07-14.sol\":652:653  _ */\n    tag_214:\n        /* \"contracts/exam-2022-07-14/exam-2022-07-14.sol\":4586:5666  function finalizeAuction(uint256 id) external auctionExists(id) {... */\n      pop\n      pop\n      jump\t// out\n        /* \"#utility.yul\":7:82   */\n    tag_243:\n        /* \"#utility.yul\":40:46   */\n      0x00\n        /* \"#utility.yul\":73:75   */\n      0x40\n        /* \"#utility.yul\":67:76   */\n      mload\n        /* \"#utility.yul\":57:76   */\n      swap1\n      pop\n        /* \"#utility.yul\":7:82   */\n      swap1\n      jump\t// out\n        /* \"#utility.yul\":88:205   */\n    tag_244:\n        /* \"#utility.yul\":197:198   */\n      0x00\n        /* \"#utility.yul\":194:195   */\n      dup1\n        /* \"#utility.yul\":187:199   */\n      revert\n        /* \"#utility.yul\":211:328   */\n    tag_245:\n        /* \"#utility.yul\":320:321   */\n      0x00\n        /* \"#utility.yul\":317:318   */\n      dup1\n        /* \"#utility.yul\":310:322   */\n      revert\n        /* \"#utility.yul\":334:411   */\n    tag_246:\n        /* \"#utility.yul\":371:378   */\n      0x00\n        /* \"#utility.yul\":400:405   */\n      dup2\n        /* \"#utility.yul\":389:405   */\n      swap1\n      pop\n        /* \"#utility.yul\":334:411   */\n      swap2\n      swap1\n      pop\n      jump\t// out\n        /* \"#utility.yul\":417:539   */\n    tag_247:\n        /* \"#utility.yul\":490:514   */\n      tag_308\n        /* \"#utility.yul\":508:513   */\n      dup2\n        /* \"#utility.yul\":490:514   */\n      tag_246\n      jump\t// in\n    tag_308:\n        /* \"#utility.yul\":483:488   */\n      dup2\n        /* \"#utility.yul\":480:515   */\n      eq\n        /* \"#utility.yul\":470:533   */\n      tag_309\n      jumpi\n        /* \"#utility.yul\":529:530   */\n      0x00\n        /* \"#utility.yul\":526:527   */\n      dup1\n        /* \"#utility.yul\":519:531   */\n      revert\n        /* \"#utility.yul\":470:533   */\n    tag_309:\n        /* \"#utility.yul\":417:539   */\n      pop\n      jump\t// out\n        /* \"#utility.yul\":545:684   */\n    tag_248:\n        /* \"#utility.yul\":591:596   */\n      0x00\n        /* \"#utility.yul\":629:635   */\n      dup2\n        /* \"#utility.yul\":616:636   */\n      calldataload\n        /* \"#utility.yul\":607:636   */\n      swap1\n      pop\n        /* \"#utility.yul\":645:678   */\n      tag_311\n        /* \"#utility.yul\":672:677   */\n      dup2\n        /* \"#utility.yul\":645:678   */\n      tag_247\n      jump\t// in\n    tag_311:\n        /* \"#utility.yul\":545:684   */\n      swap3\n      swap2\n      pop\n      pop\n      jump\t// out\n        /* \"#utility.yul\":690:1019   */\n    tag_17:\n        /* \"#utility.yul\":749:755   */\n      0x00\n        /* \"#utility.yul\":798:800   */\n      0x20\n        /* \"#utility.yul\":786:795   */\n      dup3\n        /* \"#utility.yul\":777:784   */\n      dup5\n        /* \"#utility.yul\":773:796   */\n      sub\n        /* \"#utility.yul\":769:801   */\n      slt\n        /* \"#utility.yul\":766:885   */\n      iszero\n      tag_313\n      jumpi\n        /* \"#utility.yul\":804:883   */\n      tag_314\n      tag_244\n      jump\t// in\n    tag_314:\n        /* \"#utility.yul\":766:885   */\n    tag_313:\n        /* \"#utility.yul\":924:925   */\n      0x00\n        /* \"#utility.yul\":949:1002   */\n      tag_315\n        /* \"#utility.yul\":994:1001   */\n      dup5\n        /* \"#utility.yul\":985:991   */\n      dup3\n        /* \"#utility.yul\":974:983   */\n      dup6\n        /* \"#utility.yul\":970:992   */\n      add\n        /* \"#utility.yul\":949:1002   */\n      tag_248\n      jump\t// in\n    tag_315:\n        /* \"#utility.yul\":939:1002   */\n      swap2\n      pop\n        /* \"#utility.yul\":895:1012   */\n      pop\n        /* \"#utility.yul\":690:1019   */\n      swap3\n      swap2\n      pop\n      pop\n      jump\t// out\n        /* \"#utility.yul\":1025:1115   */\n    tag_249:\n        /* \"#utility.yul\":1059:1066   */\n      0x00\n        /* \"#utility.yul\":1102:1107   */\n      dup2\n        /* \"#utility.yul\":1095:1108   */\n      iszero\n        /* \"#utility.yul\":1088:1109   */\n      iszero\n        /* \"#utility.yul\":1077:1109   */\n      swap1\n      pop\n        /* \"#utility.yul\":1025:1115   */\n      swap2\n      swap1\n      pop\n      jump\t// out\n        /* \"#utility.yul\":1121:1230   */\n    tag_250:\n        /* \"#utility.yul\":1202:1223   */\n      tag_318\n        /* \"#utility.yul\":1217:1222   */\n      dup2\n        /* \"#utility.yul\":1202:1223   */\n      tag_249\n      jump\t// in\n    tag_318:\n        /* \"#utility.yul\":1197:1200   */\n      dup3\n        /* \"#utility.yul\":1190:1224   */\n      mstore\n        /* \"#utility.yul\":1121:1230   */\n      pop\n      pop\n      jump\t// out\n        /* \"#utility.yul\":1236:1446   */\n    tag_20:\n        /* \"#utility.yul\":1323:1327   */\n      0x00\n        /* \"#utility.yul\":1361:1363   */\n      0x20\n        /* \"#utility.yul\":1350:1359   */\n      dup3\n        /* \"#utility.yul\":1346:1364   */\n      add\n        /* \"#utility.yul\":1338:1364   */\n      swap1\n      pop\n        /* \"#utility.yul\":1374:1439   */\n      tag_320\n        /* \"#utility.yul\":1436:1437   */\n      0x00\n        /* \"#utility.yul\":1425:1434   */\n      dup4\n        /* \"#utility.yul\":1421:1438   */\n      add\n        /* \"#utility.yul\":1412:1418   */\n      dup5\n        /* \"#utility.yul\":1374:1439   */\n      tag_250\n      jump\t// in\n    tag_320:\n        /* \"#utility.yul\":1236:1446   */\n      swap3\n      swap2\n      pop\n      pop\n      jump\t// out\n        /* \"#utility.yul\":1452:1566   */\n    tag_251:\n        /* \"#utility.yul\":1519:1525   */\n      0x00\n        /* \"#utility.yul\":1553:1558   */\n      dup2\n        /* \"#utility.yul\":1547:1559   */\n      mload\n        /* \"#utility.yul\":1537:1559   */\n      swap1\n      pop\n        /* \"#utility.yul\":1452:1566   */\n      swap2\n      swap1\n      pop\n      jump\t// out\n        /* \"#utility.yul\":1572:1756   */\n    tag_252:\n        /* \"#utility.yul\":1671:1682   */\n      0x00\n        /* \"#utility.yul\":1705:1711   */\n      dup3\n        /* \"#utility.yul\":1700:1703   */\n      dup3\n        /* \"#utility.yul\":1693:1712   */\n      mstore\n        /* \"#utility.yul\":1745:1749   */\n      0x20\n        /* \"#utility.yul\":1740:1743   */\n      dup3\n        /* \"#utility.yul\":1736:1750   */\n      add\n        /* \"#utility.yul\":1721:1750   */\n      swap1\n      pop\n        /* \"#utility.yul\":1572:1756   */\n      swap3\n      swap2\n      pop\n      pop\n      jump\t// out\n        /* \"#utility.yul\":1762:1894   */\n    tag_253:\n        /* \"#utility.yul\":1829:1833   */\n      0x00\n        /* \"#utility.yul\":1852:1855   */\n      dup2\n        /* \"#utility.yul\":1844:1855   */\n      swap1\n      pop\n        /* \"#utility.yul\":1882:1886   */\n      0x20\n        /* \"#utility.yul\":1877:1880   */\n      dup3\n        /* \"#utility.yul\":1873:1887   */\n      add\n        /* \"#utility.yul\":1865:1887   */\n      swap1\n      pop\n        /* \"#utility.yul\":1762:1894   */\n      swap2\n      swap1\n      pop\n      jump\t// out\n        /* \"#utility.yul\":1900:2008   */\n    tag_254:\n        /* \"#utility.yul\":1977:2001   */\n      tag_325\n        /* \"#utility.yul\":1995:2000   */\n      dup2\n        /* \"#utility.yul\":1977:2001   */\n      tag_246\n      jump\t// in\n    tag_325:\n        /* \"#utility.yul\":1972:1975   */\n      dup3\n        /* \"#utility.yul\":1965:2002   */\n      mstore\n        /* \"#utility.yul\":1900:2008   */\n      pop\n      pop\n      jump\t// out\n        /* \"#utility.yul\":2014:2193   */\n    tag_255:\n        /* \"#utility.yul\":2083:2093   */\n      0x00\n        /* \"#utility.yul\":2104:2150   */\n      tag_327\n        /* \"#utility.yul\":2146:2149   */\n      dup4\n        /* \"#utility.yul\":2138:2144   */\n      dup4\n        /* \"#utility.yul\":2104:2150   */\n      tag_254\n      jump\t// in\n    tag_327:\n        /* \"#utility.yul\":2182:2186   */\n      0x20\n        /* \"#utility.yul\":2177:2180   */\n      dup4\n        /* \"#utility.yul\":2173:2187   */\n      add\n        /* \"#utility.yul\":2159:2187   */\n      swap1\n      pop\n        /* \"#utility.yul\":2014:2193   */\n      swap3\n      swap2\n      pop\n      pop\n      jump\t// out\n        /* \"#utility.yul\":2199:2312   */\n    tag_256:\n        /* \"#utility.yul\":2269:2273   */\n      0x00\n        /* \"#utility.yul\":2301:2305   */\n      0x20\n        /* \"#utility.yul\":2296:2299   */\n      dup3\n        /* \"#utility.yul\":2292:2306   */\n      add\n        /* \"#utility.yul\":2284:2306   */\n      swap1\n      pop\n        /* \"#utility.yul\":2199:2312   */\n      swap2\n      swap1\n      pop\n      jump\t// out\n        /* \"#utility.yul\":2348:3080   */\n    tag_257:\n        /* \"#utility.yul\":2467:2470   */\n      0x00\n        /* \"#utility.yul\":2496:2550   */\n      tag_330\n        /* \"#utility.yul\":2544:2549   */\n      dup3\n        /* \"#utility.yul\":2496:2550   */\n      tag_251\n      jump\t// in\n    tag_330:\n        /* \"#utility.yul\":2566:2652   */\n      tag_331\n        /* \"#utility.yul\":2645:2651   */\n      dup2\n        /* \"#utility.yul\":2640:2643   */\n      dup6\n        /* \"#utility.yul\":2566:2652   */\n      tag_252\n      jump\t// in\n    tag_331:\n        /* \"#utility.yul\":2559:2652   */\n      swap4\n      pop\n        /* \"#utility.yul\":2676:2732   */\n      tag_332\n        /* \"#utility.yul\":2726:2731   */\n      dup4\n        /* \"#utility.yul\":2676:2732   */\n      tag_253\n      jump\t// in\n    tag_332:\n        /* \"#utility.yul\":2755:2762   */\n      dup1\n        /* \"#utility.yul\":2786:2787   */\n      0x00\n        /* \"#utility.yul\":2771:3055   */\n    tag_333:\n        /* \"#utility.yul\":2796:2802   */\n      dup4\n        /* \"#utility.yul\":2793:2794   */\n      dup2\n        /* \"#utility.yul\":2790:2803   */\n      lt\n        /* \"#utility.yul\":2771:3055   */\n      iszero\n      tag_335\n      jumpi\n        /* \"#utility.yul\":2872:2878   */\n      dup2\n        /* \"#utility.yul\":2866:2879   */\n      mload\n        /* \"#utility.yul\":2899:2962   */\n      tag_336\n        /* \"#utility.yul\":2958:2961   */\n      dup9\n        /* \"#utility.yul\":2943:2956   */\n      dup3\n        /* \"#utility.yul\":2899:2962   */\n      tag_255\n      jump\t// in\n    tag_336:\n        /* \"#utility.yul\":2892:2962   */\n      swap8\n      pop\n        /* \"#utility.yul\":2985:3045   */\n      tag_337\n        /* \"#utility.yul\":3038:3044   */\n      dup4\n        /* \"#utility.yul\":2985:3045   */\n      tag_256\n      jump\t// in\n    tag_337:\n        /* \"#utility.yul\":2975:3045   */\n      swap3\n      pop\n        /* \"#utility.yul\":2831:3055   */\n      pop\n        /* \"#utility.yul\":2818:2819   */\n      0x01\n        /* \"#utility.yul\":2815:2816   */\n      dup2\n        /* \"#utility.yul\":2811:2820   */\n      add\n        /* \"#utility.yul\":2806:2820   */\n      swap1\n      pop\n        /* \"#utility.yul\":2771:3055   */\n      jump(tag_333)\n    tag_335:\n        /* \"#utility.yul\":2775:2789   */\n      pop\n        /* \"#utility.yul\":3071:3074   */\n      dup6\n        /* \"#utility.yul\":3064:3074   */\n      swap4\n      pop\n        /* \"#utility.yul\":2472:3080   */\n      pop\n      pop\n      pop\n        /* \"#utility.yul\":2348:3080   */\n      swap3\n      swap2\n      pop\n      pop\n      jump\t// out\n        /* \"#utility.yul\":3086:3459   */\n    tag_25:\n        /* \"#utility.yul\":3229:3233   */\n      0x00\n        /* \"#utility.yul\":3267:3269   */\n      0x20\n        /* \"#utility.yul\":3256:3265   */\n      dup3\n        /* \"#utility.yul\":3252:3270   */\n      add\n        /* \"#utility.yul\":3244:3270   */\n      swap1\n      pop\n        /* \"#utility.yul\":3316:3325   */\n      dup2\n        /* \"#utility.yul\":3310:3314   */\n      dup2\n        /* \"#utility.yul\":3306:3326   */\n      sub\n        /* \"#utility.yul\":3302:3303   */\n      0x00\n        /* \"#utility.yul\":3291:3300   */\n      dup4\n        /* \"#utility.yul\":3287:3304   */\n      add\n        /* \"#utility.yul\":3280:3327   */\n      mstore\n        /* \"#utility.yul\":3344:3452   */\n      tag_339\n        /* \"#utility.yul\":3447:3451   */\n      dup2\n        /* \"#utility.yul\":3438:3444   */\n      dup5\n        /* \"#utility.yul\":3344:3452   */\n      tag_257\n      jump\t// in\n    tag_339:\n        /* \"#utility.yul\":3336:3452   */\n      swap1\n      pop\n        /* \"#utility.yul\":3086:3459   */\n      swap3\n      swap2\n      pop\n      pop\n      jump\t// out\n        /* \"#utility.yul\":3465:3591   */\n    tag_258:\n        /* \"#utility.yul\":3502:3509   */\n      0x00\n        /* \"#utility.yul\":3542:3584   */\n      0xffffffffffffffffffffffffffffffffffffffff\n        /* \"#utility.yul\":3535:3540   */\n      dup3\n        /* \"#utility.yul\":3531:3585   */\n      and\n        /* \"#utility.yul\":3520:3585   */\n      swap1\n      pop\n        /* \"#utility.yul\":3465:3591   */\n      swap2\n      swap1\n      pop\n      jump\t// out\n        /* \"#utility.yul\":3597:3693   */\n    tag_259:\n        /* \"#utility.yul\":3634:3641   */\n      0x00\n        /* \"#utility.yul\":3663:3687   */\n      tag_342\n        /* \"#utility.yul\":3681:3686   */\n      dup3\n        /* \"#utility.yul\":3663:3687   */\n      tag_258\n      jump\t// in\n    tag_342:\n        /* \"#utility.yul\":3652:3687   */\n      swap1\n      pop\n        /* \"#utility.yul\":3597:3693   */\n      swap2\n      swap1\n      pop\n      jump\t// out\n        /* \"#utility.yul\":3699:3817   */\n    tag_260:\n        /* \"#utility.yul\":3786:3810   */\n      tag_344\n        /* \"#utility.yul\":3804:3809   */\n      dup2\n        /* \"#utility.yul\":3786:3810   */\n      tag_259\n      jump\t// in\n    tag_344:\n        /* \"#utility.yul\":3781:3784   */\n      dup3\n        /* \"#utility.yul\":3774:3811   */\n      mstore\n        /* \"#utility.yul\":3699:3817   */\n      pop\n      pop\n      jump\t// out\n        /* \"#utility.yul\":3823:4045   */\n    tag_31:\n        /* \"#utility.yul\":3916:3920   */\n      0x00\n        /* \"#utility.yul\":3954:3956   */\n      0x20\n        /* \"#utility.yul\":3943:3952   */\n      dup3\n        /* \"#utility.yul\":3939:3957   */\n      add\n        /* \"#utility.yul\":3931:3957   */\n      swap1\n      pop\n        /* \"#utility.yul\":3967:4038   */\n      tag_346\n        /* \"#utility.yul\":4035:4036   */\n      0x00\n        /* \"#utility.yul\":4024:4033   */\n      dup4\n        /* \"#utility.yul\":4020:4037   */\n      add\n        /* \"#utility.yul\":4011:4017   */\n      dup5\n        /* \"#utility.yul\":3967:4038   */\n      tag_260\n      jump\t// in\n    tag_346:\n        /* \"#utility.yul\":3823:4045   */\n      swap3\n      swap2\n      pop\n      pop\n      jump\t// out\n        /* \"#utility.yul\":4051:4150   */\n    tag_261:\n        /* \"#utility.yul\":4103:4109   */\n      0x00\n        /* \"#utility.yul\":4137:4142   */\n      dup2\n        /* \"#utility.yul\":4131:4143   */\n      mload\n        /* \"#utility.yul\":4121:4143   */\n      swap1\n      pop\n        /* \"#utility.yul\":4051:4150   */\n      swap2\n      swap1\n      pop\n      jump\t// out\n        /* \"#utility.yul\":4156:4325   */\n    tag_262:\n        /* \"#utility.yul\":4240:4251   */\n      0x00\n        /* \"#utility.yul\":4274:4280   */\n      dup3\n        /* \"#utility.yul\":4269:4272   */\n      dup3\n        /* \"#utility.yul\":4262:4281   */\n      mstore\n        /* \"#utility.yul\":4314:4318   */\n      0x20\n        /* \"#utility.yul\":4309:4312   */\n      dup3\n        /* \"#utility.yul\":4305:4319   */\n      add\n        /* \"#utility.yul\":4290:4319   */\n      swap1\n      pop\n        /* \"#utility.yul\":4156:4325   */\n      swap3\n      swap2\n      pop\n      pop\n      jump\t// out\n        /* \"#utility.yul\":4331:4470   */\n    tag_263:\n        /* \"#utility.yul\":4420:4426   */\n      dup3\n        /* \"#utility.yul\":4415:4418   */\n      dup2\n        /* \"#utility.yul\":4410:4413   */\n      dup4\n        /* \"#utility.yul\":4404:4427   */\n      mcopy\n        /* \"#utility.yul\":4461:4462   */\n      0x00\n        /* \"#utility.yul\":4452:4458   */\n      dup4\n        /* \"#utility.yul\":4447:4450   */\n      dup4\n        /* \"#utility.yul\":4443:4459   */\n      add\n        /* \"#utility.yul\":4436:4463   */\n      mstore\n        /* \"#utility.yul\":4331:4470   */\n      pop\n      pop\n      pop\n      jump\t// out\n        /* \"#utility.yul\":4476:4578   */\n    tag_264:\n        /* \"#utility.yul\":4517:4523   */\n      0x00\n        /* \"#utility.yul\":4568:4570   */\n      0x1f\n        /* \"#utility.yul\":4564:4571   */\n      not\n        /* \"#utility.yul\":4559:4561   */\n      0x1f\n        /* \"#utility.yul\":4552:4557   */\n      dup4\n        /* \"#utility.yul\":4548:4562   */\n      add\n        /* \"#utility.yul\":4544:4572   */\n      and\n        /* \"#utility.yul\":4534:4572   */\n      swap1\n      pop\n        /* \"#utility.yul\":4476:4578   */\n      swap2\n      swap1\n      pop\n      jump\t// out\n        /* \"#utility.yul\":4584:4961   */\n    tag_265:\n        /* \"#utility.yul\":4672:4675   */\n      0x00\n        /* \"#utility.yul\":4700:4739   */\n      tag_352\n        /* \"#utility.yul\":4733:4738   */\n      dup3\n        /* \"#utility.yul\":4700:4739   */\n      tag_261\n      jump\t// in\n    tag_352:\n        /* \"#utility.yul\":4755:4826   */\n      tag_353\n        /* \"#utility.yul\":4819:4825   */\n      dup2\n        /* \"#utility.yul\":4814:4817   */\n      dup6\n        /* \"#utility.yul\":4755:4826   */\n      tag_262\n      jump\t// in\n    tag_353:\n        /* \"#utility.yul\":4748:4826   */\n      swap4\n      pop\n        /* \"#utility.yul\":4835:4900   */\n      tag_354\n        /* \"#utility.yul\":4893:4899   */\n      dup2\n        /* \"#utility.yul\":4888:4891   */\n      dup6\n        /* \"#utility.yul\":4881:4885   */\n      0x20\n        /* \"#utility.yul\":4874:4879   */\n      dup7\n        /* \"#utility.yul\":4870:4886   */\n      add\n        /* \"#utility.yul\":4835:4900   */\n      tag_263\n      jump\t// in\n    tag_354:\n        /* \"#utility.yul\":4925:4954   */\n      tag_355\n        /* \"#utility.yul\":4947:4953   */\n      dup2\n        /* \"#utility.yul\":4925:4954   */\n      tag_264\n      jump\t// in\n    tag_355:\n        /* \"#utility.yul\":4920:4923   */\n      dup5\n        /* \"#utility.yul\":4916:4955   */\n      add\n        /* \"#utility.yul\":4909:4955   */\n      swap2\n      pop\n        /* \"#utility.yul\":4676:4961   */\n      pop\n        /* \"#utility.yul\":4584:4961   */\n      swap3\n      swap2\n      pop\n      pop\n      jump\t// out\n        /* \"#utility.yul\":4967:5280   */\n    tag_37:\n        /* \"#utility.yul\":5080:5084   */\n      0x00\n        /* \"#utility.yul\":5118:5120   */\n      0x20\n        /* \"#utility.yul\":5107:5116   */\n      dup3\n        /* \"#utility.yul\":5103:5121   */\n      add\n        /* \"#utility.yul\":5095:5121   */\n      swap1\n      pop\n        /* \"#utility.yul\":5167:5176   */\n      dup2\n        /* \"#utility.yul\":5161:5165   */\n      dup2\n        /* \"#utility.yul\":5157:5177   */\n      sub\n        /* \"#utility.yul\":5153:5154   */\n      0x00\n        /* \"#utility.yul\":5142:5151   */\n      dup4\n        /* \"#utility.yul\":5138:5155   */\n      add\n        /* \"#utility.yul\":5131:5178   */\n      mstore\n        /* \"#utility.yul\":5195:5273   */\n      tag_357\n        /* \"#utility.yul\":5268:5272   */\n      dup2\n        /* \"#utility.yul\":5259:5265   */\n      dup5\n        /* \"#utility.yul\":5195:5273   */\n      tag_265\n      jump\t// in\n    tag_357:\n        /* \"#utility.yul\":5187:5273   */\n      swap1\n      pop\n        /* \"#utility.yul\":4967:5280   */\n      swap3\n      swap2\n      pop\n      pop\n      jump\t// out\n        /* \"#utility.yul\":5286:5466   */\n    tag_88:\n        /* \"#utility.yul\":5334:5411   */\n      0x4e487b7100000000000000000000000000000000000000000000000000000000\n        /* \"#utility.yul\":5331:5332   */\n      0x00\n        /* \"#utility.yul\":5324:5412   */\n      mstore\n        /* \"#utility.yul\":5431:5435   */\n      0x21\n        /* \"#utility.yul\":5428:5429   */\n      0x04\n        /* \"#utility.yul\":5421:5436   */\n      mstore\n        /* \"#utility.yul\":5455:5459   */\n      0x24\n        /* \"#utility.yul\":5452:5453   */\n      0x00\n        /* \"#utility.yul\":5445:5460   */\n      revert\n        /* \"#utility.yul\":5472:5591   */\n    tag_266:\n        /* \"#utility.yul\":5559:5560   */\n      0x04\n        /* \"#utility.yul\":5552:5557   */\n      dup2\n        /* \"#utility.yul\":5549:5561   */\n      lt\n        /* \"#utility.yul\":5539:5585   */\n      tag_360\n      jumpi\n        /* \"#utility.yul\":5565:5583   */\n      tag_361\n      tag_88\n      jump\t// in\n    tag_361:\n        /* \"#utility.yul\":5539:5585   */\n    tag_360:\n        /* \"#utility.yul\":5472:5591   */\n      pop\n      jump\t// out\n        /* \"#utility.yul\":5597:5736   */\n    tag_267:\n        /* \"#utility.yul\":5648:5655   */\n      0x00\n        /* \"#utility.yul\":5677:5682   */\n      dup2\n        /* \"#utility.yul\":5666:5682   */\n      swap1\n      pop\n        /* \"#utility.yul\":5683:5730   */\n      tag_363\n        /* \"#utility.yul\":5724:5729   */\n      dup3\n        /* \"#utility.yul\":5683:5730   */\n      tag_266\n      jump\t// in\n    tag_363:\n        /* \"#utility.yul\":5597:5736   */\n      swap2\n      swap1\n      pop\n      jump\t// out\n        /* \"#utility.yul\":5742:5881   */\n    tag_268:\n        /* \"#utility.yul\":5804:5813   */\n      0x00\n        /* \"#utility.yul\":5837:5875   */\n      tag_365\n        /* \"#utility.yul\":5869:5874   */\n      dup3\n        /* \"#utility.yul\":5837:5875   */\n      tag_267\n      jump\t// in\n    tag_365:\n        /* \"#utility.yul\":5824:5875   */\n      swap1\n      pop\n        /* \"#utility.yul\":5742:5881   */\n      swap2\n      swap1\n      pop\n      jump\t// out\n        /* \"#utility.yul\":5887:6042   */\n    tag_269:\n        /* \"#utility.yul\":5986:6035   */\n      tag_367\n        /* \"#utility.yul\":6029:6034   */\n      dup2\n        /* \"#utility.yul\":5986:6035   */\n      tag_268\n      jump\t// in\n    tag_367:\n        /* \"#utility.yul\":5981:5984   */\n      dup3\n        /* \"#utility.yul\":5974:6036   */\n      mstore\n        /* \"#utility.yul\":5887:6042   */\n      pop\n      pop\n      jump\t// out\n        /* \"#utility.yul\":6048:6294   */\n    tag_43:\n        /* \"#utility.yul\":6153:6157   */\n      0x00\n        /* \"#utility.yul\":6191:6193   */\n      0x20\n        /* \"#utility.yul\":6180:6189   */\n      dup3\n        /* \"#utility.yul\":6176:6194   */\n      add\n        /* \"#utility.yul\":6168:6194   */\n      swap1\n      pop\n        /* \"#utility.yul\":6204:6287   */\n      tag_369\n        /* \"#utility.yul\":6284:6285   */\n      0x00\n        /* \"#utility.yul\":6273:6282   */\n      dup4\n        /* \"#utility.yul\":6269:6286   */\n      add\n        /* \"#utility.yul\":6260:6266   */\n      dup5\n        /* \"#utility.yul\":6204:6287   */\n      tag_269\n      jump\t// in\n    tag_369:\n        /* \"#utility.yul\":6048:6294   */\n      swap3\n      swap2\n      pop\n      pop\n      jump\t// out\n        /* \"#utility.yul\":6300:6418   */\n    tag_270:\n        /* \"#utility.yul\":6387:6411   */\n      tag_371\n        /* \"#utility.yul\":6405:6410   */\n      dup2\n        /* \"#utility.yul\":6387:6411   */\n      tag_246\n      jump\t// in\n    tag_371:\n        /* \"#utility.yul\":6382:6385   */\n      dup3\n        /* \"#utility.yul\":6375:6412   */\n      mstore\n        /* \"#utility.yul\":6300:6418   */\n      pop\n      pop\n      jump\t// out\n        /* \"#utility.yul\":6424:6646   */\n    tag_58:\n        /* \"#utility.yul\":6517:6521   */\n      0x00\n        /* \"#utility.yul\":6555:6557   */\n      0x20\n        /* \"#utility.yul\":6544:6553   */\n      dup3\n        /* \"#utility.yul\":6540:6558   */\n      add\n        /* \"#utility.yul\":6532:6558   */\n      swap1\n      pop\n        /* \"#utility.yul\":6568:6639   */\n      tag_373\n        /* \"#utility.yul\":6636:6637   */\n      0x00\n        /* \"#utility.yul\":6625:6634   */\n      dup4\n        /* \"#utility.yul\":6621:6638   */\n      add\n        /* \"#utility.yul\":6612:6618   */\n      dup5\n        /* \"#utility.yul\":6568:6639   */\n      tag_270\n      jump\t// in\n    tag_373:\n        /* \"#utility.yul\":6424:6646   */\n      swap3\n      swap2\n      pop\n      pop\n      jump\t// out\n        /* \"#utility.yul\":6652:6769   */\n    tag_271:\n        /* \"#utility.yul\":6761:6762   */\n      0x00\n        /* \"#utility.yul\":6758:6759   */\n      dup1\n        /* \"#utility.yul\":6751:6763   */\n      revert\n        /* \"#utility.yul\":6775:6892   */\n    tag_272:\n        /* \"#utility.yul\":6884:6885   */\n      0x00\n        /* \"#utility.yul\":6881:6882   */\n      dup1\n        /* \"#utility.yul\":6874:6886   */\n      revert\n        /* \"#utility.yul\":6898:7078   */\n    tag_105:\n        /* \"#utility.yul\":6946:7023   */\n      0x4e487b7100000000000000000000000000000000000000000000000000000000\n        /* \"#utility.yul\":6943:6944   */\n      0x00\n        /* \"#utility.yul\":6936:7024   */\n      mstore\n        /* \"#utility.yul\":7043:7047   */\n      0x41\n        /* \"#utility.yul\":7040:7041   */\n      0x04\n        /* \"#utility.yul\":7033:7048   */\n      mstore\n        /* \"#utility.yul\":7067:7071   */\n      0x24\n        /* \"#utility.yul\":7064:7065   */\n      0x00\n        /* \"#utility.yul\":7057:7072   */\n      revert\n        /* \"#utility.yul\":7084:7365   */\n    tag_273:\n        /* \"#utility.yul\":7167:7194   */\n      tag_378\n        /* \"#utility.yul\":7189:7193   */\n      dup3\n        /* \"#utility.yul\":7167:7194   */\n      tag_264\n      jump\t// in\n    tag_378:\n        /* \"#utility.yul\":7159:7165   */\n      dup2\n        /* \"#utility.yul\":7155:7195   */\n      add\n        /* \"#utility.yul\":7297:7303   */\n      dup2\n        /* \"#utility.yul\":7285:7295   */\n      dup2\n        /* \"#utility.yul\":7282:7304   */\n      lt\n        /* \"#utility.yul\":7261:7279   */\n      0xffffffffffffffff\n        /* \"#utility.yul\":7249:7259   */\n      dup3\n        /* \"#utility.yul\":7246:7280   */\n      gt\n        /* \"#utility.yul\":7243:7305   */\n      or\n        /* \"#utility.yul\":7240:7328   */\n      iszero\n      tag_379\n      jumpi\n        /* \"#utility.yul\":7308:7326   */\n      tag_380\n      tag_105\n      jump\t// in\n    tag_380:\n        /* \"#utility.yul\":7240:7328   */\n    tag_379:\n        /* \"#utility.yul\":7348:7358   */\n      dup1\n        /* \"#utility.yul\":7344:7346   */\n      0x40\n        /* \"#utility.yul\":7337:7359   */\n      mstore\n        /* \"#utility.yul\":7127:7365   */\n      pop\n        /* \"#utility.yul\":7084:7365   */\n      pop\n      pop\n      jump\t// out\n        /* \"#utility.yul\":7371:7500   */\n    tag_274:\n        /* \"#utility.yul\":7405:7411   */\n      0x00\n        /* \"#utility.yul\":7432:7452   */\n      tag_382\n      tag_243\n      jump\t// in\n    tag_382:\n        /* \"#utility.yul\":7422:7452   */\n      swap1\n      pop\n        /* \"#utility.yul\":7461:7494   */\n      tag_383\n        /* \"#utility.yul\":7489:7493   */\n      dup3\n        /* \"#utility.yul\":7481:7487   */\n      dup3\n        /* \"#utility.yul\":7461:7494   */\n      tag_273\n      jump\t// in\n    tag_383:\n        /* \"#utility.yul\":7371:7500   */\n      swap2\n      swap1\n      pop\n      jump\t// out\n        /* \"#utility.yul\":7506:7814   */\n    tag_275:\n        /* \"#utility.yul\":7568:7572   */\n      0x00\n        /* \"#utility.yul\":7658:7676   */\n      0xffffffffffffffff\n        /* \"#utility.yul\":7650:7656   */\n      dup3\n        /* \"#utility.yul\":7647:7677   */\n      gt\n        /* \"#utility.yul\":7644:7700   */\n      iszero\n      tag_385\n      jumpi\n        /* \"#utility.yul\":7680:7698   */\n      tag_386\n      tag_105\n      jump\t// in\n    tag_386:\n        /* \"#utility.yul\":7644:7700   */\n    tag_385:\n        /* \"#utility.yul\":7718:7747   */\n      tag_387\n        /* \"#utility.yul\":7740:7746   */\n      dup3\n        /* \"#utility.yul\":7718:7747   */\n      tag_264\n      jump\t// in\n    tag_387:\n        /* \"#utility.yul\":7710:7747   */\n      swap1\n      pop\n        /* \"#utility.yul\":7802:7806   */\n      0x20\n        /* \"#utility.yul\":7796:7800   */\n      dup2\n        /* \"#utility.yul\":7792:7807   */\n      add\n        /* \"#utility.yul\":7784:7807   */\n      swap1\n      pop\n        /* \"#utility.yul\":7506:7814   */\n      swap2\n      swap1\n      pop\n      jump\t// out\n        /* \"#utility.yul\":7820:7968   */\n    tag_276:\n        /* \"#utility.yul\":7918:7924   */\n      dup3\n        /* \"#utility.yul\":7913:7916   */\n      dup2\n        /* \"#utility.yul\":7908:7911   */\n      dup4\n        /* \"#utility.yul\":7895:7925   */\n      calldatacopy\n        /* \"#utility.yul\":7959:7960   */\n      0x00\n        /* \"#utility.yul\":7950:7956   */\n      dup4\n        /* \"#utility.yul\":7945:7948   */\n      dup4\n        /* \"#utility.yul\":7941:7957   */\n      add\n        /* \"#utility.yul\":7934:7961   */\n      mstore\n        /* \"#utility.yul\":7820:7968   */\n      pop\n      pop\n      pop\n      jump\t// out\n        /* \"#utility.yul\":7974:8399   */\n    tag_277:\n        /* \"#utility.yul\":8052:8057   */\n      0x00\n        /* \"#utility.yul\":8077:8143   */\n      tag_390\n        /* \"#utility.yul\":8093:8142   */\n      tag_391\n        /* \"#utility.yul\":8135:8141   */\n      dup5\n        /* \"#utility.yul\":8093:8142   */\n      tag_275\n      jump\t// in\n    tag_391:\n        /* \"#utility.yul\":8077:8143   */\n      tag_274\n      jump\t// in\n    tag_390:\n        /* \"#utility.yul\":8068:8143   */\n      swap1\n      pop\n        /* \"#utility.yul\":8166:8172   */\n      dup3\n        /* \"#utility.yul\":8159:8164   */\n      dup2\n        /* \"#utility.yul\":8152:8173   */\n      mstore\n        /* \"#utility.yul\":8204:8208   */\n      0x20\n        /* \"#utility.yul\":8197:8202   */\n      dup2\n        /* \"#utility.yul\":8193:8209   */\n      add\n        /* \"#utility.yul\":8242:8245   */\n      dup5\n        /* \"#utility.yul\":8233:8239   */\n      dup5\n        /* \"#utility.yul\":8228:8231   */\n      dup5\n        /* \"#utility.yul\":8224:8240   */\n      add\n        /* \"#utility.yul\":8221:8246   */\n      gt\n        /* \"#utility.yul\":8218:8330   */\n      iszero\n      tag_392\n      jumpi\n        /* \"#utility.yul\":8249:8328   */\n      tag_393\n      tag_272\n      jump\t// in\n    tag_393:\n        /* \"#utility.yul\":8218:8330   */\n    tag_392:\n        /* \"#utility.yul\":8339:8393   */\n      tag_394\n        /* \"#utility.yul\":8386:8392   */\n      dup5\n        /* \"#utility.yul\":8381:8384   */\n      dup3\n        /* \"#utility.yul\":8376:8379   */\n      dup6\n        /* \"#utility.yul\":8339:8393   */\n      tag_276\n      jump\t// in\n    tag_394:\n        /* \"#utility.yul\":8058:8399   */\n      pop\n        /* \"#utility.yul\":7974:8399   */\n      swap4\n      swap3\n      pop\n      pop\n      pop\n      jump\t// out\n        /* \"#utility.yul\":8419:8759   */\n    tag_278:\n        /* \"#utility.yul\":8475:8480   */\n      0x00\n        /* \"#utility.yul\":8524:8527   */\n      dup3\n        /* \"#utility.yul\":8517:8521   */\n      0x1f\n        /* \"#utility.yul\":8509:8515   */\n      dup4\n        /* \"#utility.yul\":8505:8522   */\n      add\n        /* \"#utility.yul\":8501:8528   */\n      slt\n        /* \"#utility.yul\":8491:8613   */\n      tag_396\n      jumpi\n        /* \"#utility.yul\":8532:8611   */\n      tag_397\n      tag_271\n      jump\t// in\n    tag_397:\n        /* \"#utility.yul\":8491:8613   */\n    tag_396:\n        /* \"#utility.yul\":8649:8655   */\n      dup2\n        /* \"#utility.yul\":8636:8656   */\n      calldataload\n        /* \"#utility.yul\":8674:8753   */\n      tag_398\n        /* \"#utility.yul\":8749:8752   */\n      dup5\n        /* \"#utility.yul\":8741:8747   */\n      dup3\n        /* \"#utility.yul\":8734:8738   */\n      0x20\n        /* \"#utility.yul\":8726:8732   */\n      dup7\n        /* \"#utility.yul\":8722:8739   */\n      add\n        /* \"#utility.yul\":8674:8753   */\n      tag_277\n      jump\t// in\n    tag_398:\n        /* \"#utility.yul\":8665:8753   */\n      swap2\n      pop\n        /* \"#utility.yul\":8481:8759   */\n      pop\n        /* \"#utility.yul\":8419:8759   */\n      swap3\n      swap2\n      pop\n      pop\n      jump\t// out\n        /* \"#utility.yul\":8765:9564   */\n    tag_72:\n        /* \"#utility.yul\":8852:8858   */\n      0x00\n        /* \"#utility.yul\":8860:8866   */\n      dup1\n        /* \"#utility.yul\":8868:8874   */\n      0x00\n        /* \"#utility.yul\":8917:8919   */\n      0x60\n        /* \"#utility.yul\":8905:8914   */\n      dup5\n        /* \"#utility.yul\":8896:8903   */\n      dup7\n        /* \"#utility.yul\":8892:8915   */\n      sub\n        /* \"#utility.yul\":8888:8920   */\n      slt\n        /* \"#utility.yul\":8885:9004   */\n      iszero\n      tag_400\n      jumpi\n        /* \"#utility.yul\":8923:9002   */\n      tag_401\n      tag_244\n      jump\t// in\n    tag_401:\n        /* \"#utility.yul\":8885:9004   */\n    tag_400:\n        /* \"#utility.yul\":9071:9072   */\n      0x00\n        /* \"#utility.yul\":9060:9069   */\n      dup5\n        /* \"#utility.yul\":9056:9073   */\n      add\n        /* \"#utility.yul\":9043:9074   */\n      calldataload\n        /* \"#utility.yul\":9101:9119   */\n      0xffffffffffffffff\n        /* \"#utility.yul\":9093:9099   */\n      dup2\n        /* \"#utility.yul\":9090:9120   */\n      gt\n        /* \"#utility.yul\":9087:9204   */\n      iszero\n      tag_402\n      jumpi\n        /* \"#utility.yul\":9123:9202   */\n      tag_403\n      tag_245\n      jump\t// in\n    tag_403:\n        /* \"#utility.yul\":9087:9204   */\n    tag_402:\n        /* \"#utility.yul\":9228:9291   */\n      tag_404\n        /* \"#utility.yul\":9283:9290   */\n      dup7\n        /* \"#utility.yul\":9274:9280   */\n      dup3\n        /* \"#utility.yul\":9263:9272   */\n      dup8\n        /* \"#utility.yul\":9259:9281   */\n      add\n        /* \"#utility.yul\":9228:9291   */\n      tag_278\n      jump\t// in\n    tag_404:\n        /* \"#utility.yul\":9218:9291   */\n      swap4\n      pop\n        /* \"#utility.yul\":9014:9301   */\n      pop\n        /* \"#utility.yul\":9340:9342   */\n      0x20\n        /* \"#utility.yul\":9366:9419   */\n      tag_405\n        /* \"#utility.yul\":9411:9418   */\n      dup7\n        /* \"#utility.yul\":9402:9408   */\n      dup3\n        /* \"#utility.yul\":9391:9400   */\n      dup8\n        /* \"#utility.yul\":9387:9409   */\n      add\n        /* \"#utility.yul\":9366:9419   */\n      tag_248\n      jump\t// in\n    tag_405:\n        /* \"#utility.yul\":9356:9419   */\n      swap3\n      pop\n        /* \"#utility.yul\":9311:9429   */\n      pop\n        /* \"#utility.yul\":9468:9470   */\n      0x40\n        /* \"#utility.yul\":9494:9547   */\n      tag_406\n        /* \"#utility.yul\":9539:9546   */\n      dup7\n        /* \"#utility.yul\":9530:9536   */\n      dup3\n        /* \"#utility.yul\":9519:9528   */\n      dup8\n        /* \"#utility.yul\":9515:9537   */\n      add\n        /* \"#utility.yul\":9494:9547   */\n      tag_248\n      jump\t// in\n    tag_406:\n        /* \"#utility.yul\":9484:9547   */\n      swap2\n      pop\n        /* \"#utility.yul\":9439:9557   */\n      pop\n        /* \"#utility.yul\":8765:9564   */\n      swap3\n      pop\n      swap3\n      pop\n      swap3\n      jump\t// out\n        /* \"#utility.yul\":9570:9750   */\n    tag_84:\n        /* \"#utility.yul\":9618:9695   */\n      0x4e487b7100000000000000000000000000000000000000000000000000000000\n        /* \"#utility.yul\":9615:9616   */\n      0x00\n        /* \"#utility.yul\":9608:9696   */\n      mstore\n        /* \"#utility.yul\":9715:9719   */\n      0x32\n        /* \"#utility.yul\":9712:9713   */\n      0x04\n        /* \"#utility.yul\":9705:9720   */\n      mstore\n        /* \"#utility.yul\":9739:9743   */\n      0x24\n        /* \"#utility.yul\":9736:9737   */\n      0x00\n        /* \"#utility.yul\":9729:9744   */\n      revert\n        /* \"#utility.yul\":9756:9936   */\n    tag_279:\n        /* \"#utility.yul\":9804:9881   */\n      0x4e487b7100000000000000000000000000000000000000000000000000000000\n        /* \"#utility.yul\":9801:9802   */\n      0x00\n        /* \"#utility.yul\":9794:9882   */\n      mstore\n        /* \"#utility.yul\":9901:9905   */\n      0x11\n        /* \"#utility.yul\":9898:9899   */\n      0x04\n        /* \"#utility.yul\":9891:9906   */\n      mstore\n        /* \"#utility.yul\":9925:9929   */\n      0x24\n        /* \"#utility.yul\":9922:9923   */\n      0x00\n        /* \"#utility.yul\":9915:9930   */\n      revert\n        /* \"#utility.yul\":9942:10133   */\n    tag_98:\n        /* \"#utility.yul\":9982:9985   */\n      0x00\n        /* \"#utility.yul\":10001:10021   */\n      tag_410\n        /* \"#utility.yul\":10019:10020   */\n      dup3\n        /* \"#utility.yul\":10001:10021   */\n      tag_246\n      jump\t// in\n    tag_410:\n        /* \"#utility.yul\":9996:10021   */\n      swap2\n      pop\n        /* \"#utility.yul\":10035:10055   */\n      tag_411\n        /* \"#utility.yul\":10053:10054   */\n      dup4\n        /* \"#utility.yul\":10035:10055   */\n      tag_246\n      jump\t// in\n    tag_411:\n        /* \"#utility.yul\":10030:10055   */\n      swap3\n      pop\n        /* \"#utility.yul\":10078:10079   */\n      dup3\n        /* \"#utility.yul\":10075:10076   */\n      dup3\n        /* \"#utility.yul\":10071:10080   */\n      add\n        /* \"#utility.yul\":10064:10080   */\n      swap1\n      pop\n        /* \"#utility.yul\":10099:10102   */\n      dup1\n        /* \"#utility.yul\":10096:10097   */\n      dup3\n        /* \"#utility.yul\":10093:10103   */\n      gt\n        /* \"#utility.yul\":10090:10126   */\n      iszero\n      tag_412\n      jumpi\n        /* \"#utility.yul\":10106:10124   */\n      tag_413\n      tag_279\n      jump\t// in\n    tag_413:\n        /* \"#utility.yul\":10090:10126   */\n    tag_412:\n        /* \"#utility.yul\":9942:10133   */\n      swap3\n      swap2\n      pop\n      pop\n      jump\t// out\n        /* \"#utility.yul\":10139:10581   */\n    tag_101:\n        /* \"#utility.yul\":10288:10292   */\n      0x00\n        /* \"#utility.yul\":10326:10328   */\n      0x60\n        /* \"#utility.yul\":10315:10324   */\n      dup3\n        /* \"#utility.yul\":10311:10329   */\n      add\n        /* \"#utility.yul\":10303:10329   */\n      swap1\n      pop\n        /* \"#utility.yul\":10339:10410   */\n      tag_415\n        /* \"#utility.yul\":10407:10408   */\n      0x00\n        /* \"#utility.yul\":10396:10405   */\n      dup4\n        /* \"#utility.yul\":10392:10409   */\n      add\n        /* \"#utility.yul\":10383:10389   */\n      dup7\n        /* \"#utility.yul\":10339:10410   */\n      tag_270\n      jump\t// in\n    tag_415:\n        /* \"#utility.yul\":10420:10492   */\n      tag_416\n        /* \"#utility.yul\":10488:10490   */\n      0x20\n        /* \"#utility.yul\":10477:10486   */\n      dup4\n        /* \"#utility.yul\":10473:10491   */\n      add\n        /* \"#utility.yul\":10464:10470   */\n      dup6\n        /* \"#utility.yul\":10420:10492   */\n      tag_260\n      jump\t// in\n    tag_416:\n        /* \"#utility.yul\":10502:10574   */\n      tag_417\n        /* \"#utility.yul\":10570:10572   */\n      0x40\n        /* \"#utility.yul\":10559:10568   */\n      dup4\n        /* \"#utility.yul\":10555:10573   */\n      add\n        /* \"#utility.yul\":10546:10552   */\n      dup5\n        /* \"#utility.yul\":10502:10574   */\n      tag_270\n      jump\t// in\n    tag_417:\n        /* \"#utility.yul\":10139:10581   */\n      swap5\n      swap4\n      pop\n      pop\n      pop\n      pop\n      jump\t// out\n        /* \"#utility.yul\":10587:10820   */\n    tag_121:\n        /* \"#utility.yul\":10626:10629   */\n      0x00\n        /* \"#utility.yul\":10649:10673   */\n      tag_419\n        /* \"#utility.yul\":10667:10672   */\n      dup3\n        /* \"#utility.yul\":10649:10673   */\n      tag_246\n      jump\t// in\n    tag_419:\n        /* \"#utility.yul\":10640:10673   */\n      swap2\n      pop\n        /* \"#utility.yul\":10695:10761   */\n      0xffffffffffffffffffffffffffffffffffffffffffffffffffffffffffffffff\n        /* \"#utility.yul\":10688:10693   */\n      dup3\n        /* \"#utility.yul\":10685:10762   */\n      sub\n        /* \"#utility.yul\":10682:10785   */\n      tag_420\n      jumpi\n        /* \"#utility.yul\":10765:10783   */\n      tag_421\n      tag_279\n      jump\t// in\n    tag_421:\n        /* \"#utility.yul\":10682:10785   */\n    tag_420:\n        /* \"#utility.yul\":10812:10813   */\n      0x01\n        /* \"#utility.yul\":10805:10810   */\n      dup3\n        /* \"#utility.yul\":10801:10814   */\n      add\n        /* \"#utility.yul\":10794:10814   */\n      swap1\n      pop\n        /* \"#utility.yul\":10587:10820   */\n      swap2\n      swap1\n      pop\n      jump\t// out\n        /* \"#utility.yul\":10826:11006   */\n    tag_280:\n        /* \"#utility.yul\":10874:10951   */\n      0x4e487b7100000000000000000000000000000000000000000000000000000000\n        /* \"#utility.yul\":10871:10872   */\n      0x00\n        /* \"#utility.yul\":10864:10952   */\n      mstore\n        /* \"#utility.yul\":10971:10975   */\n      0x22\n        /* \"#utility.yul\":10968:10969   */\n      0x04\n        /* \"#utility.yul\":10961:10976   */\n      mstore\n        /* \"#utility.yul\":10995:10999   */\n      0x24\n        /* \"#utility.yul\":10992:10993   */\n      0x00\n        /* \"#utility.yul\":10985:11000   */\n      revert\n        /* \"#utility.yul\":11012:11332   */\n    tag_135:\n        /* \"#utility.yul\":11056:11062   */\n      0x00\n        /* \"#utility.yul\":11093:11094   */\n      0x02\n        /* \"#utility.yul\":11087:11091   */\n      dup3\n        /* \"#utility.yul\":11083:11095   */\n      div\n        /* \"#utility.yul\":11073:11095   */\n      swap1\n      pop\n        /* \"#utility.yul\":11140:11141   */\n      0x01\n        /* \"#utility.yul\":11134:11138   */\n      dup3\n        /* \"#utility.yul\":11130:11142   */\n      and\n        /* \"#utility.yul\":11161:11179   */\n      dup1\n        /* \"#utility.yul\":11151:11232   */\n      tag_424\n      jumpi\n        /* \"#utility.yul\":11217:11221   */\n      0x7f\n        /* \"#utility.yul\":11209:11215   */\n      dup3\n        /* \"#utility.yul\":11205:11222   */\n      and\n        /* \"#utility.yul\":11195:11222   */\n      swap2\n      pop\n        /* \"#utility.yul\":11151:11232   */\n    tag_424:\n        /* \"#utility.yul\":11279:11281   */\n      0x20\n        /* \"#utility.yul\":11271:11277   */\n      dup3\n        /* \"#utility.yul\":11268:11282   */\n      lt\n        /* \"#utility.yul\":11248:11266   */\n      dup2\n        /* \"#utility.yul\":11245:11283   */\n      sub\n        /* \"#utility.yul\":11242:11326   */\n      tag_425\n      jumpi\n        /* \"#utility.yul\":11298:11316   */\n      tag_426\n      tag_280\n      jump\t// in\n    tag_426:\n        /* \"#utility.yul\":11242:11326   */\n    tag_425:\n        /* \"#utility.yul\":11063:11332   */\n      pop\n        /* \"#utility.yul\":11012:11332   */\n      swap2\n      swap1\n      pop\n      jump\t// out\n        /* \"#utility.yul\":11338:11563   */\n    tag_281:\n        /* \"#utility.yul\":11478:11512   */\n      0x4f6e6c79207468652063726561746f722063616e2063616e63656c20616e2061\n        /* \"#utility.yul\":11474:11475   */\n      0x00\n        /* \"#utility.yul\":11466:11472   */\n      dup3\n        /* \"#utility.yul\":11462:11476   */\n      add\n        /* \"#utility.yul\":11455:11513   */\n      mstore\n        /* \"#utility.yul\":11547:11555   */\n      0x756374696f6e0000000000000000000000000000000000000000000000000000\n        /* \"#utility.yul\":11542:11544   */\n      0x20\n        /* \"#utility.yul\":11534:11540   */\n      dup3\n        /* \"#utility.yul\":11530:11545   */\n      add\n        /* \"#utility.yul\":11523:11556   */\n      mstore\n        /* \"#utility.yul\":11338:11563   */\n      pop\n      jump\t// out\n        /* \"#utility.yul\":11569:11935   */\n    tag_282:\n        /* \"#utility.yul\":11711:11714   */\n      0x00\n        /* \"#utility.yul\":11732:11799   */\n      tag_429\n        /* \"#utility.yul\":11796:11798   */\n      0x26\n        /* \"#utility.yul\":11791:11794   */\n      dup4\n        /* \"#utility.yul\":11732:11799   */\n      tag_262\n      jump\t// in\n    tag_429:\n        /* \"#utility.yul\":11725:11799   */\n      swap2\n      pop\n        /* \"#utility.yul\":11808:11901   */\n      tag_430\n        /* \"#utility.yul\":11897:11900   */\n      dup3\n        /* \"#utility.yul\":11808:11901   */\n      tag_281\n      jump\t// in\n    tag_430:\n        /* \"#utility.yul\":11926:11928   */\n      0x40\n        /* \"#utility.yul\":11921:11924   */\n      dup3\n        /* \"#utility.yul\":11917:11929   */\n      add\n        /* \"#utility.yul\":11910:11929   */\n      swap1\n      pop\n        /* \"#utility.yul\":11569:11935   */\n      swap2\n      swap1\n      pop\n      jump\t// out\n        /* \"#utility.yul\":11941:12360   */\n    tag_154:\n        /* \"#utility.yul\":12107:12111   */\n      0x00\n        /* \"#utility.yul\":12145:12147   */\n      0x20\n        /* \"#utility.yul\":12134:12143   */\n      dup3\n        /* \"#utility.yul\":12130:12148   */\n      add\n        /* \"#utility.yul\":12122:12148   */\n      swap1\n      pop\n        /* \"#utility.yul\":12194:12203   */\n      dup2\n        /* \"#utility.yul\":12188:12192   */\n      dup2\n        /* \"#utility.yul\":12184:12204   */\n      sub\n        /* \"#utility.yul\":12180:12181   */\n      0x00\n        /* \"#utility.yul\":12169:12178   */\n      dup4\n        /* \"#utility.yul\":12165:12182   */\n      add\n        /* \"#utility.yul\":12158:12205   */\n      mstore\n        /* \"#utility.yul\":12222:12353   */\n      tag_432\n        /* \"#utility.yul\":12348:12352   */\n      dup2\n        /* \"#utility.yul\":12222:12353   */\n      tag_282\n      jump\t// in\n    tag_432:\n        /* \"#utility.yul\":12214:12353   */\n      swap1\n      pop\n        /* \"#utility.yul\":11941:12360   */\n      swap2\n      swap1\n      pop\n      jump\t// out\n        /* \"#utility.yul\":12366:12588   */\n    tag_283:\n        /* \"#utility.yul\":12506:12540   */\n      0x596f752063616e2063616e63656c206f6e6c79206f6e676f696e672061756374\n        /* \"#utility.yul\":12502:12503   */\n      0x00\n        /* \"#utility.yul\":12494:12500   */\n      dup3\n        /* \"#utility.yul\":12490:12504   */\n      add\n        /* \"#utility.yul\":12483:12541   */\n      mstore\n        /* \"#utility.yul\":12575:12580   */\n      0x696f6e0000000000000000000000000000000000000000000000000000000000\n        /* \"#utility.yul\":12570:12572   */\n      0x20\n        /* \"#utility.yul\":12562:12568   */\n      dup3\n        /* \"#utility.yul\":12558:12573   */\n      add\n        /* \"#utility.yul\":12551:12581   */\n      mstore\n        /* \"#utility.yul\":12366:12588   */\n      pop\n      jump\t// out\n        /* \"#utility.yul\":12594:12960   */\n    tag_284:\n        /* \"#utility.yul\":12736:12739   */\n      0x00\n        /* \"#utility.yul\":12757:12824   */\n      tag_435\n        /* \"#utility.yul\":12821:12823   */\n      0x23\n        /* \"#utility.yul\":12816:12819   */\n      dup4\n        /* \"#utility.yul\":12757:12824   */\n      tag_262\n      jump\t// in\n    tag_435:\n        /* \"#utility.yul\":12750:12824   */\n      swap2\n      pop\n        /* \"#utility.yul\":12833:12926   */\n      tag_436\n        /* \"#utility.yul\":12922:12925   */\n      dup3\n        /* \"#utility.yul\":12833:12926   */\n      tag_283\n      jump\t// in\n    tag_436:\n        /* \"#utility.yul\":12951:12953   */\n      0x40\n        /* \"#utility.yul\":12946:12949   */\n      dup3\n        /* \"#utility.yul\":12942:12954   */\n      add\n        /* \"#utility.yul\":12935:12954   */\n      swap1\n      pop\n        /* \"#utility.yul\":12594:12960   */\n      swap2\n      swap1\n      pop\n      jump\t// out\n        /* \"#utility.yul\":12966:13385   */\n    tag_161:\n        /* \"#utility.yul\":13132:13136   */\n      0x00\n        /* \"#utility.yul\":13170:13172   */\n      0x20\n        /* \"#utility.yul\":13159:13168   */\n      dup3\n        /* \"#utility.yul\":13155:13173   */\n      add\n        /* \"#utility.yul\":13147:13173   */\n      swap1\n      pop\n        /* \"#utility.yul\":13219:13228   */\n      dup2\n        /* \"#utility.yul\":13213:13217   */\n      dup2\n        /* \"#utility.yul\":13209:13229   */\n      sub\n        /* \"#utility.yul\":13205:13206   */\n      0x00\n        /* \"#utility.yul\":13194:13203   */\n      dup4\n        /* \"#utility.yul\":13190:13207   */\n      add\n        /* \"#utility.yul\":13183:13230   */\n      mstore\n        /* \"#utility.yul\":13247:13378   */\n      tag_438\n        /* \"#utility.yul\":13373:13377   */\n      dup2\n        /* \"#utility.yul\":13247:13378   */\n      tag_284\n      jump\t// in\n    tag_438:\n        /* \"#utility.yul\":13239:13378   */\n      swap1\n      pop\n        /* \"#utility.yul\":12966:13385   */\n      swap2\n      swap1\n      pop\n      jump\t// out\n        /* \"#utility.yul\":13391:13617   */\n    tag_285:\n        /* \"#utility.yul\":13531:13565   */\n      0x596f752063616e2063616e63656c206f6e6c79206e6f74206578706972656420\n        /* \"#utility.yul\":13527:13528   */\n      0x00\n        /* \"#utility.yul\":13519:13525   */\n      dup3\n        /* \"#utility.yul\":13515:13529   */\n      add\n        /* \"#utility.yul\":13508:13566   */\n      mstore\n        /* \"#utility.yul\":13600:13609   */\n      0x61756374696f6e00000000000000000000000000000000000000000000000000\n        /* \"#utility.yul\":13595:13597   */\n      0x20\n        /* \"#utility.yul\":13587:13593   */\n      dup3\n        /* \"#utility.yul\":13583:13598   */\n      add\n        /* \"#utility.yul\":13576:13610   */\n      mstore\n        /* \"#utility.yul\":13391:13617   */\n      pop\n      jump\t// out\n        /* \"#utility.yul\":13623:13989   */\n    tag_286:\n        /* \"#utility.yul\":13765:13768   */\n      0x00\n        /* \"#utility.yul\":13786:13853   */\n      tag_441\n        /* \"#utility.yul\":13850:13852   */\n      0x27\n        /* \"#utility.yul\":13845:13848   */\n      dup4\n        /* \"#utility.yul\":13786:13853   */\n      tag_262\n      jump\t// in\n    tag_441:\n        /* \"#utility.yul\":13779:13853   */\n      swap2\n      pop\n        /* \"#utility.yul\":13862:13955   */\n      tag_442\n        /* \"#utility.yul\":13951:13954   */\n      dup3\n        /* \"#utility.yul\":13862:13955   */\n      tag_285\n      jump\t// in\n    tag_442:\n        /* \"#utility.yul\":13980:13982   */\n      0x40\n        /* \"#utility.yul\":13975:13978   */\n      dup3\n        /* \"#utility.yul\":13971:13983   */\n      add\n        /* \"#utility.yul\":13964:13983   */\n      swap1\n      pop\n        /* \"#utility.yul\":13623:13989   */\n      swap2\n      swap1\n      pop\n      jump\t// out\n        /* \"#utility.yul\":13995:14414   */\n    tag_164:\n        /* \"#utility.yul\":14161:14165   */\n      0x00\n        /* \"#utility.yul\":14199:14201   */\n      0x20\n        /* \"#utility.yul\":14188:14197   */\n      dup3\n        /* \"#utility.yul\":14184:14202   */\n      add\n        /* \"#utility.yul\":14176:14202   */\n      swap1\n      pop\n        /* \"#utility.yul\":14248:14257   */\n      dup2\n        /* \"#utility.yul\":14242:14246   */\n      dup2\n        /* \"#utility.yul\":14238:14258   */\n      sub\n        /* \"#utility.yul\":14234:14235   */\n      0x00\n        /* \"#utility.yul\":14223:14232   */\n      dup4\n        /* \"#utility.yul\":14219:14236   */\n      add\n        /* \"#utility.yul\":14212:14259   */\n      mstore\n        /* \"#utility.yul\":14276:14407   */\n      tag_444\n        /* \"#utility.yul\":14402:14406   */\n      dup2\n        /* \"#utility.yul\":14276:14407   */\n      tag_286\n      jump\t// in\n    tag_444:\n        /* \"#utility.yul\":14268:14407   */\n      swap1\n      pop\n        /* \"#utility.yul\":13995:14414   */\n      swap2\n      swap1\n      pop\n      jump\t// out\n        /* \"#utility.yul\":14420:14561   */\n    tag_287:\n        /* \"#utility.yul\":14469:14473   */\n      0x00\n        /* \"#utility.yul\":14492:14495   */\n      dup2\n        /* \"#utility.yul\":14484:14495   */\n      swap1\n      pop\n        /* \"#utility.yul\":14515:14518   */\n      dup2\n        /* \"#utility.yul\":14512:14513   */\n      0x00\n        /* \"#utility.yul\":14505:14519   */\n      mstore\n        /* \"#utility.yul\":14549:14553   */\n      0x20\n        /* \"#utility.yul\":14546:14547   */\n      0x00\n        /* \"#utility.yul\":14536:14554   */\n      keccak256\n        /* \"#utility.yul\":14528:14554   */\n      swap1\n      pop\n        /* \"#utility.yul\":14420:14561   */\n      swap2\n      swap1\n      pop\n      jump\t// out\n        /* \"#utility.yul\":14567:14660   */\n    tag_288:\n        /* \"#utility.yul\":14604:14610   */\n      0x00\n        /* \"#utility.yul\":14651:14653   */\n      0x20\n        /* \"#utility.yul\":14646:14648   */\n      0x1f\n        /* \"#utility.yul\":14639:14644   */\n      dup4\n        /* \"#utility.yul\":14635:14649   */\n      add\n        /* \"#utility.yul\":14631:14654   */\n      div\n        /* \"#utility.yul\":14621:14654   */\n      swap1\n      pop\n        /* \"#utility.yul\":14567:14660   */\n      swap2\n      swap1\n      pop\n      jump\t// out\n        /* \"#utility.yul\":14666:14773   */\n    tag_289:\n        /* \"#utility.yul\":14710:14718   */\n      0x00\n        /* \"#utility.yul\":14760:14765   */\n      dup3\n        /* \"#utility.yul\":14754:14758   */\n      dup3\n        /* \"#utility.yul\":14750:14766   */\n      shl\n        /* \"#utility.yul\":14729:14766   */\n      swap1\n      pop\n        /* \"#utility.yul\":14666:14773   */\n      swap3\n      swap2\n      pop\n      pop\n      jump\t// out\n        /* \"#utility.yul\":14779:15172   */\n    tag_290:\n        /* \"#utility.yul\":14848:14854   */\n      0x00\n        /* \"#utility.yul\":14898:14899   */\n      0x08\n        /* \"#utility.yul\":14886:14896   */\n      dup4\n        /* \"#utility.yul\":14882:14900   */\n      mul\n        /* \"#utility.yul\":14921:15018   */\n      tag_449\n        /* \"#utility.yul\":14951:15017   */\n      0xffffffffffffffffffffffffffffffffffffffffffffffffffffffffffffffff\n        /* \"#utility.yul\":14940:14949   */\n      dup3\n        /* \"#utility.yul\":14921:15018   */\n      tag_289\n      jump\t// in\n    tag_449:\n        /* \"#utility.yul\":15039:15078   */\n      tag_450\n        /* \"#utility.yul\":15069:15077   */\n      dup7\n        /* \"#utility.yul\":15058:15067   */\n      dup4\n        /* \"#utility.yul\":15039:15078   */\n      tag_289\n      jump\t// in\n    tag_450:\n        /* \"#utility.yul\":15027:15078   */\n      swap6\n      pop\n        /* \"#utility.yul\":15111:15115   */\n      dup1\n        /* \"#utility.yul\":15107:15116   */\n      not\n        /* \"#utility.yul\":15100:15105   */\n      dup5\n        /* \"#utility.yul\":15096:15117   */\n      and\n        /* \"#utility.yul\":15087:15117   */\n      swap4\n      pop\n        /* \"#utility.yul\":15160:15164   */\n      dup1\n        /* \"#utility.yul\":15150:15158   */\n      dup7\n        /* \"#utility.yul\":15146:15165   */\n      and\n        /* \"#utility.yul\":15139:15144   */\n      dup5\n        /* \"#utility.yul\":15136:15166   */\n      or\n        /* \"#utility.yul\":15126:15166   */\n      swap3\n      pop\n        /* \"#utility.yul\":14855:15172   */\n      pop\n      pop\n        /* \"#utility.yul\":14779:15172   */\n      swap4\n      swap3\n      pop\n      pop\n      pop\n      jump\t// out\n        /* \"#utility.yul\":15178:15238   */\n    tag_291:\n        /* \"#utility.yul\":15206:15209   */\n      0x00\n        /* \"#utility.yul\":15227:15232   */\n      dup2\n        /* \"#utility.yul\":15220:15232   */\n      swap1\n      pop\n        /* \"#utility.yul\":15178:15238   */\n      swap2\n      swap1\n      pop\n      jump\t// out\n        /* \"#utility.yul\":15244:15386   */\n    tag_292:\n        /* \"#utility.yul\":15294:15303   */\n      0x00\n        /* \"#utility.yul\":15327:15380   */\n      tag_453\n        /* \"#utility.yul\":15345:15379   */\n      tag_454\n        /* \"#utility.yul\":15354:15378   */\n      tag_455\n        /* \"#utility.yul\":15372:15377   */\n      dup5\n        /* \"#utility.yul\":15354:15378   */\n      tag_246\n      jump\t// in\n    tag_455:\n        /* \"#utility.yul\":15345:15379   */\n      tag_291\n      jump\t// in\n    tag_454:\n        /* \"#utility.yul\":15327:15380   */\n      tag_246\n      jump\t// in\n    tag_453:\n        /* \"#utility.yul\":15314:15380   */\n      swap1\n      pop\n        /* \"#utility.yul\":15244:15386   */\n      swap2\n      swap1\n      pop\n      jump\t// out\n        /* \"#utility.yul\":15392:15467   */\n    tag_293:\n        /* \"#utility.yul\":15435:15438   */\n      0x00\n        /* \"#utility.yul\":15456:15461   */\n      dup2\n        /* \"#utility.yul\":15449:15461   */\n      swap1\n      pop\n        /* \"#utility.yul\":15392:15467   */\n      swap2\n      swap1\n      pop\n      jump\t// out\n        /* \"#utility.yul\":15473:15742   */\n    tag_294:\n        /* \"#utility.yul\":15583:15622   */\n      tag_458\n        /* \"#utility.yul\":15614:15621   */\n      dup4\n        /* \"#utility.yul\":15583:15622   */\n      tag_292\n      jump\t// in\n    tag_458:\n        /* \"#utility.yul\":15644:15735   */\n      tag_459\n        /* \"#utility.yul\":15693:15734   */\n      tag_460\n        /* \"#utility.yul\":15717:15733   */\n      dup3\n        /* \"#utility.yul\":15693:15734   */\n      tag_293\n      jump\t// in\n    tag_460:\n        /* \"#utility.yul\":15685:15691   */\n      dup5\n        /* \"#utility.yul\":15678:15682   */\n      dup5\n        /* \"#utility.yul\":15672:15683   */\n      sload\n        /* \"#utility.yul\":15644:15735   */\n      tag_290\n      jump\t// in\n    tag_459:\n        /* \"#utility.yul\":15638:15642   */\n      dup3\n        /* \"#utility.yul\":15631:15736   */\n      sstore\n        /* \"#utility.yul\":15549:15742   */\n      pop\n        /* \"#utility.yul\":15473:15742   */\n      pop\n      pop\n      pop\n      jump\t// out\n        /* \"#utility.yul\":15748:15821   */\n    tag_295:\n        /* \"#utility.yul\":15793:15796   */\n      0x00\n        /* \"#utility.yul\":15748:15821   */\n      swap1\n      jump\t// out\n        /* \"#utility.yul\":15827:16016   */\n    tag_296:\n        /* \"#utility.yul\":15904:15936   */\n      tag_463\n      tag_295\n      jump\t// in\n    tag_463:\n        /* \"#utility.yul\":15945:16010   */\n      tag_464\n        /* \"#utility.yul\":16003:16009   */\n      dup2\n        /* \"#utility.yul\":15995:16001   */\n      dup5\n        /* \"#utility.yul\":15989:15993   */\n      dup5\n        /* \"#utility.yul\":15945:16010   */\n      tag_294\n      jump\t// in\n    tag_464:\n        /* \"#utility.yul\":15880:16016   */\n      pop\n        /* \"#utility.yul\":15827:16016   */\n      pop\n      pop\n      jump\t// out\n        /* \"#utility.yul\":16022:16208   */\n    tag_297:\n        /* \"#utility.yul\":16082:16202   */\n    tag_466:\n        /* \"#utility.yul\":16099:16102   */\n      dup2\n        /* \"#utility.yul\":16092:16097   */\n      dup2\n        /* \"#utility.yul\":16089:16103   */\n      lt\n        /* \"#utility.yul\":16082:16202   */\n      iszero\n      tag_468\n      jumpi\n        /* \"#utility.yul\":16153:16192   */\n      tag_469\n        /* \"#utility.yul\":16190:16191   */\n      0x00\n        /* \"#utility.yul\":16183:16188   */\n      dup3\n        /* \"#utility.yul\":16153:16192   */\n      tag_296\n      jump\t// in\n    tag_469:\n        /* \"#utility.yul\":16126:16127   */\n      0x01\n        /* \"#utility.yul\":16119:16124   */\n      dup2\n        /* \"#utility.yul\":16115:16128   */\n      add\n        /* \"#utility.yul\":16106:16128   */\n      swap1\n      pop\n        /* \"#utility.yul\":16082:16202   */\n      jump(tag_466)\n    tag_468:\n        /* \"#utility.yul\":16022:16208   */\n      pop\n      pop\n      jump\t// out\n        /* \"#utility.yul\":16214:16757   */\n    tag_298:\n        /* \"#utility.yul\":16315:16317   */\n      0x1f\n        /* \"#utility.yul\":16310:16313   */\n      dup3\n        /* \"#utility.yul\":16307:16318   */\n      gt\n        /* \"#utility.yul\":16304:16750   */\n      iszero\n      tag_471\n      jumpi\n        /* \"#utility.yul\":16349:16387   */\n      tag_472\n        /* \"#utility.yul\":16381:16386   */\n      dup2\n        /* \"#utility.yul\":16349:16387   */\n      tag_287\n      jump\t// in\n    tag_472:\n        /* \"#utility.yul\":16433:16462   */\n      tag_473\n        /* \"#utility.yul\":16451:16461   */\n      dup5\n        /* \"#utility.yul\":16433:16462   */\n      tag_288\n      jump\t// in\n    tag_473:\n        /* \"#utility.yul\":16423:16431   */\n      dup2\n        /* \"#utility.yul\":16419:16463   */\n      add\n        /* \"#utility.yul\":16616:16618   */\n      0x20\n        /* \"#utility.yul\":16604:16614   */\n      dup6\n        /* \"#utility.yul\":16601:16619   */\n      lt\n        /* \"#utility.yul\":16598:16647   */\n      iszero\n      tag_474\n      jumpi\n        /* \"#utility.yul\":16637:16645   */\n      dup2\n        /* \"#utility.yul\":16622:16645   */\n      swap1\n      pop\n        /* \"#utility.yul\":16598:16647   */\n    tag_474:\n        /* \"#utility.yul\":16660:16740   */\n      tag_475\n        /* \"#utility.yul\":16716:16738   */\n      tag_476\n        /* \"#utility.yul\":16734:16737   */\n      dup6\n        /* \"#utility.yul\":16716:16738   */\n      tag_288\n      jump\t// in\n    tag_476:\n        /* \"#utility.yul\":16706:16714   */\n      dup4\n        /* \"#utility.yul\":16702:16739   */\n      add\n        /* \"#utility.yul\":16689:16700   */\n      dup3\n        /* \"#utility.yul\":16660:16740   */\n      tag_297\n      jump\t// in\n    tag_475:\n        /* \"#utility.yul\":16319:16750   */\n      pop\n      pop\n        /* \"#utility.yul\":16304:16750   */\n    tag_471:\n        /* \"#utility.yul\":16214:16757   */\n      pop\n      pop\n      pop\n      jump\t// out\n        /* \"#utility.yul\":16763:16880   */\n    tag_299:\n        /* \"#utility.yul\":16817:16825   */\n      0x00\n        /* \"#utility.yul\":16867:16872   */\n      dup3\n        /* \"#utility.yul\":16861:16865   */\n      dup3\n        /* \"#utility.yul\":16857:16873   */\n      shr\n        /* \"#utility.yul\":16836:16873   */\n      swap1\n      pop\n        /* \"#utility.yul\":16763:16880   */\n      swap3\n      swap2\n      pop\n      pop\n      jump\t// out\n        /* \"#utility.yul\":16886:17055   */\n    tag_300:\n        /* \"#utility.yul\":16930:16936   */\n      0x00\n        /* \"#utility.yul\":16963:17014   */\n      tag_479\n        /* \"#utility.yul\":17011:17012   */\n      0x00\n        /* \"#utility.yul\":17007:17013   */\n      not\n        /* \"#utility.yul\":16999:17004   */\n      dup5\n        /* \"#utility.yul\":16996:16997   */\n      0x08\n        /* \"#utility.yul\":16992:17005   */\n      mul\n        /* \"#utility.yul\":16963:17014   */\n      tag_299\n      jump\t// in\n    tag_479:\n        /* \"#utility.yul\":16959:17015   */\n      not\n        /* \"#utility.yul\":17044:17048   */\n      dup1\n        /* \"#utility.yul\":17038:17042   */\n      dup4\n        /* \"#utility.yul\":17034:17049   */\n      and\n        /* \"#utility.yul\":17024:17049   */\n      swap2\n      pop\n        /* \"#utility.yul\":16937:17055   */\n      pop\n        /* \"#utility.yul\":16886:17055   */\n      swap3\n      swap2\n      pop\n      pop\n      jump\t// out\n        /* \"#utility.yul\":17060:17355   */\n    tag_301:\n        /* \"#utility.yul\":17136:17140   */\n      0x00\n        /* \"#utility.yul\":17282:17311   */\n      tag_481\n        /* \"#utility.yul\":17307:17310   */\n      dup4\n        /* \"#utility.yul\":17301:17305   */\n      dup4\n        /* \"#utility.yul\":17282:17311   */\n      tag_300\n      jump\t// in\n    tag_481:\n        /* \"#utility.yul\":17274:17311   */\n      swap2\n      pop\n        /* \"#utility.yul\":17344:17347   */\n      dup3\n        /* \"#utility.yul\":17341:17342   */\n      0x02\n        /* \"#utility.yul\":17337:17348   */\n      mul\n        /* \"#utility.yul\":17331:17335   */\n      dup3\n        /* \"#utility.yul\":17328:17349   */\n      or\n        /* \"#utility.yul\":17320:17349   */\n      swap1\n      pop\n        /* \"#utility.yul\":17060:17355   */\n      swap3\n      swap2\n      pop\n      pop\n      jump\t// out\n        /* \"#utility.yul\":17360:18755   */\n    tag_202:\n        /* \"#utility.yul\":17477:17514   */\n      tag_483\n        /* \"#utility.yul\":17510:17513   */\n      dup3\n        /* \"#utility.yul\":17477:17514   */\n      tag_261\n      jump\t// in\n    tag_483:\n        /* \"#utility.yul\":17579:17597   */\n      0xffffffffffffffff\n        /* \"#utility.yul\":17571:17577   */\n      dup2\n        /* \"#utility.yul\":17568:17598   */\n      gt\n        /* \"#utility.yul\":17565:17621   */\n      iszero\n      tag_484\n      jumpi\n        /* \"#utility.yul\":17601:17619   */\n      tag_485\n      tag_105\n      jump\t// in\n    tag_485:\n        /* \"#utility.yul\":17565:17621   */\n    tag_484:\n        /* \"#utility.yul\":17645:17683   */\n      tag_486\n        /* \"#utility.yul\":17677:17681   */\n      dup3\n        /* \"#utility.yul\":17671:17682   */\n      sload\n        /* \"#utility.yul\":17645:17683   */\n      tag_135\n      jump\t// in\n    tag_486:\n        /* \"#utility.yul\":17730:17797   */\n      tag_487\n        /* \"#utility.yul\":17790:17796   */\n      dup3\n        /* \"#utility.yul\":17782:17788   */\n      dup3\n        /* \"#utility.yul\":17776:17780   */\n      dup6\n        /* \"#utility.yul\":17730:17797   */\n      tag_298\n      jump\t// in\n    tag_487:\n        /* \"#utility.yul\":17824:17825   */\n      0x00\n        /* \"#utility.yul\":17848:17852   */\n      0x20\n        /* \"#utility.yul\":17835:17852   */\n      swap1\n      pop\n        /* \"#utility.yul\":17880:17882   */\n      0x1f\n        /* \"#utility.yul\":17872:17878   */\n      dup4\n        /* \"#utility.yul\":17869:17883   */\n      gt\n        /* \"#utility.yul\":17897:17898   */\n      0x01\n        /* \"#utility.yul\":17892:18510   */\n      dup2\n      eq\n      tag_489\n      jumpi\n        /* \"#utility.yul\":18554:18555   */\n      0x00\n        /* \"#utility.yul\":18571:18577   */\n      dup5\n        /* \"#utility.yul\":18568:18645   */\n      iszero\n      tag_490\n      jumpi\n        /* \"#utility.yul\":18620:18629   */\n      dup3\n        /* \"#utility.yul\":18615:18618   */\n      dup8\n        /* \"#utility.yul\":18611:18630   */\n      add\n        /* \"#utility.yul\":18605:18631   */\n      mload\n        /* \"#utility.yul\":18596:18631   */\n      swap1\n      pop\n        /* \"#utility.yul\":18568:18645   */\n    tag_490:\n        /* \"#utility.yul\":18671:18738   */\n      tag_491\n        /* \"#utility.yul\":18731:18737   */\n      dup6\n        /* \"#utility.yul\":18724:18729   */\n      dup3\n        /* \"#utility.yul\":18671:18738   */\n      tag_301\n      jump\t// in\n    tag_491:\n        /* \"#utility.yul\":18665:18669   */\n      dup7\n        /* \"#utility.yul\":18658:18739   */\n      sstore\n        /* \"#utility.yul\":18527:18749   */\n      pop\n        /* \"#utility.yul\":17862:18749   */\n      jump(tag_488)\n        /* \"#utility.yul\":17892:18510   */\n    tag_489:\n        /* \"#utility.yul\":17944:17948   */\n      0x1f\n        /* \"#utility.yul\":17940:17949   */\n      not\n        /* \"#utility.yul\":17932:17938   */\n      dup5\n        /* \"#utility.yul\":17928:17950   */\n      and\n        /* \"#utility.yul\":17978:18015   */\n      tag_492\n        /* \"#utility.yul\":18010:18014   */\n      dup7\n        /* \"#utility.yul\":17978:18015   */\n      tag_287\n      jump\t// in\n    tag_492:\n        /* \"#utility.yul\":18037:18038   */\n      0x00\n        /* \"#utility.yul\":18051:18259   */\n    tag_493:\n        /* \"#utility.yul\":18065:18072   */\n      dup3\n        /* \"#utility.yul\":18062:18063   */\n      dup2\n        /* \"#utility.yul\":18059:18073   */\n      lt\n        /* \"#utility.yul\":18051:18259   */\n      iszero\n      tag_495\n      jumpi\n        /* \"#utility.yul\":18144:18153   */\n      dup5\n        /* \"#utility.yul\":18139:18142   */\n      dup10\n        /* \"#utility.yul\":18135:18154   */\n      add\n        /* \"#utility.yul\":18129:18155   */\n      mload\n        /* \"#utility.yul\":18121:18127   */\n      dup3\n        /* \"#utility.yul\":18114:18156   */\n      sstore\n        /* \"#utility.yul\":18195:18196   */\n      0x01\n        /* \"#utility.yul\":18187:18193   */\n      dup3\n        /* \"#utility.yul\":18183:18197   */\n      add\n        /* \"#utility.yul\":18173:18197   */\n      swap2\n      pop\n        /* \"#utility.yul\":18242:18244   */\n      0x20\n        /* \"#utility.yul\":18231:18240   */\n      dup6\n        /* \"#utility.yul\":18227:18245   */\n      add\n        /* \"#utility.yul\":18214:18245   */\n      swap5\n      pop\n        /* \"#utility.yul\":18088:18092   */\n      0x20\n        /* \"#utility.yul\":18085:18086   */\n      dup2\n        /* \"#utility.yul\":18081:18093   */\n      add\n        /* \"#utility.yul\":18076:18093   */\n      swap1\n      pop\n        /* \"#utility.yul\":18051:18259   */\n      jump(tag_493)\n    tag_495:\n        /* \"#utility.yul\":18287:18293   */\n      dup7\n        /* \"#utility.yul\":18278:18285   */\n      dup4\n        /* \"#utility.yul\":18275:18294   */\n      lt\n        /* \"#utility.yul\":18272:18451   */\n      iszero\n      tag_496\n      jumpi\n        /* \"#utility.yul\":18345:18354   */\n      dup5\n        /* \"#utility.yul\":18340:18343   */\n      dup10\n        /* \"#utility.yul\":18336:18355   */\n      add\n        /* \"#utility.yul\":18330:18356   */\n      mload\n        /* \"#utility.yul\":18388:18436   */\n      tag_497\n        /* \"#utility.yul\":18430:18434   */\n      0x1f\n        /* \"#utility.yul\":18422:18428   */\n      dup10\n        /* \"#utility.yul\":18418:18435   */\n      and\n        /* \"#utility.yul\":18407:18416   */\n      dup3\n        /* \"#utility.yul\":18388:18436   */\n      tag_300\n      jump\t// in\n    tag_497:\n        /* \"#utility.yul\":18380:18386   */\n      dup4\n        /* \"#utility.yul\":18373:18437   */\n      sstore\n        /* \"#utility.yul\":18295:18451   */\n      pop\n        /* \"#utility.yul\":18272:18451   */\n    tag_496:\n        /* \"#utility.yul\":18497:18498   */\n      0x01\n        /* \"#utility.yul\":18493:18494   */\n      0x02\n        /* \"#utility.yul\":18485:18491   */\n      dup9\n        /* \"#utility.yul\":18481:18495   */\n      mul\n        /* \"#utility.yul\":18477:18499   */\n      add\n        /* \"#utility.yul\":18471:18475   */\n      dup9\n        /* \"#utility.yul\":18464:18500   */\n      sstore\n        /* \"#utility.yul\":17899:18510   */\n      pop\n      pop\n      pop\n        /* \"#utility.yul\":17862:18749   */\n    tag_488:\n      pop\n        /* \"#utility.yul\":17452:18755   */\n      pop\n      pop\n      pop\n        /* \"#utility.yul\":17360:18755   */\n      pop\n      pop\n      jump\t// out\n        /* \"#utility.yul\":18761:19171   */\n    tag_204:\n        /* \"#utility.yul\":18801:18808   */\n      0x00\n        /* \"#utility.yul\":18824:18844   */\n      tag_499\n        /* \"#utility.yul\":18842:18843   */\n      dup3\n        /* \"#utility.yul\":18824:18844   */\n      tag_246\n      jump\t// in\n    tag_499:\n        /* \"#utility.yul\":18819:18844   */\n      swap2\n      pop\n        /* \"#utility.yul\":18858:18878   */\n      tag_500\n        /* \"#utility.yul\":18876:18877   */\n      dup4\n        /* \"#utility.yul\":18858:18878   */\n      tag_246\n      jump\t// in\n    tag_500:\n        /* \"#utility.yul\":18853:18878   */\n      swap3\n      pop\n        /* \"#utility.yul\":18913:18914   */\n      dup3\n        /* \"#utility.yul\":18910:18911   */\n      dup3\n        /* \"#utility.yul\":18906:18915   */\n      mul\n        /* \"#utility.yul\":18935:18965   */\n      tag_501\n        /* \"#utility.yul\":18953:18964   */\n      dup2\n        /* \"#utility.yul\":18935:18965   */\n      tag_246\n      jump\t// in\n    tag_501:\n        /* \"#utility.yul\":18924:18965   */\n      swap2\n      pop\n        /* \"#utility.yul\":19114:19115   */\n      dup3\n        /* \"#utility.yul\":19105:19112   */\n      dup3\n        /* \"#utility.yul\":19101:19116   */\n      div\n        /* \"#utility.yul\":19098:19099   */\n      dup5\n        /* \"#utility.yul\":19095:19117   */\n      eq\n        /* \"#utility.yul\":19075:19076   */\n      dup4\n        /* \"#utility.yul\":19068:19077   */\n      iszero\n        /* \"#utility.yul\":19048:19131   */\n      or\n        /* \"#utility.yul\":19025:19164   */\n      tag_502\n      jumpi\n        /* \"#utility.yul\":19144:19162   */\n      tag_503\n      tag_279\n      jump\t// in\n    tag_503:\n        /* \"#utility.yul\":19025:19164   */\n    tag_502:\n        /* \"#utility.yul\":18809:19171   */\n      pop\n        /* \"#utility.yul\":18761:19171   */\n      swap3\n      swap2\n      pop\n      pop\n      jump\t// out\n        /* \"#utility.yul\":19177:19710   */\n    tag_209:\n        /* \"#utility.yul\":19346:19350   */\n      0x00\n        /* \"#utility.yul\":19384:19386   */\n      0x60\n        /* \"#utility.yul\":19373:19382   */\n      dup3\n        /* \"#utility.yul\":19369:19387   */\n      add\n        /* \"#utility.yul\":19361:19387   */\n      swap1\n      pop\n        /* \"#utility.yul\":19433:19442   */\n      dup2\n        /* \"#utility.yul\":19427:19431   */\n      dup2\n        /* \"#utility.yul\":19423:19443   */\n      sub\n        /* \"#utility.yul\":19419:19420   */\n      0x00\n        /* \"#utility.yul\":19408:19417   */\n      dup4\n        /* \"#utility.yul\":19404:19421   */\n      add\n        /* \"#utility.yul\":19397:19444   */\n      mstore\n        /* \"#utility.yul\":19461:19539   */\n      tag_505\n        /* \"#utility.yul\":19534:19538   */\n      dup2\n        /* \"#utility.yul\":19525:19531   */\n      dup7\n        /* \"#utility.yul\":19461:19539   */\n      tag_265\n      jump\t// in\n    tag_505:\n        /* \"#utility.yul\":19453:19539   */\n      swap1\n      pop\n        /* \"#utility.yul\":19549:19621   */\n      tag_506\n        /* \"#utility.yul\":19617:19619   */\n      0x20\n        /* \"#utility.yul\":19606:19615   */\n      dup4\n        /* \"#utility.yul\":19602:19620   */\n      add\n        /* \"#utility.yul\":19593:19599   */\n      dup6\n        /* \"#utility.yul\":19549:19621   */\n      tag_270\n      jump\t// in\n    tag_506:\n        /* \"#utility.yul\":19631:19703   */\n      tag_507\n        /* \"#utility.yul\":19699:19701   */\n      0x40\n        /* \"#utility.yul\":19688:19697   */\n      dup4\n        /* \"#utility.yul\":19684:19702   */\n      add\n        /* \"#utility.yul\":19675:19681   */\n      dup5\n        /* \"#utility.yul\":19631:19703   */\n      tag_270\n      jump\t// in\n    tag_507:\n        /* \"#utility.yul\":19177:19710   */\n      swap5\n      swap4\n      pop\n      pop\n      pop\n      pop\n      jump\t// out\n\n    auxdata: 0xa26469706673582212206bbd3c3b6f77f5743f781832208f67c99a04fb53526386b5c0f2fea287ae238464736f6c634300081a0033\n}\n",
				"bytecode": {
					"linkReferences": {},
					"object": "60806040525f6001555f6002553480156016575f80fd5b50611ef1806100245f395ff3fe6080604052600436106100a6575f3560e01c8063a43b87a211610063578063a43b87a2146101e0578063bdaaf1941461021c578063bfe21ada14610258578063d4bf313814610294578063e33a33b3146102d0578063e80838631461030c576100a6565b806326b7aeea146100aa5780632c4261bb146100da57806371e21df0146101045780637383841a1461014057806384861e931461017c57806396b5a755146101b8575b5f80fd5b6100c460048036038101906100bf9190611459565b610334565b6040516100d1919061149e565b60405180910390f35b3480156100e5575f80fd5b506100ee6106b2565b6040516100fb919061156e565b60405180910390f35b34801561010f575f80fd5b5061012a60048036038101906101259190611459565b6107aa565b60405161013791906115cd565b60405180910390f35b34801561014b575f80fd5b5061016660048036038101906101619190611459565b610835565b6040516101739190611656565b60405180910390f35b348015610187575f80fd5b506101a2600480360381019061019d9190611459565b610929565b6040516101af91906116e9565b60405180910390f35b3480156101c3575f80fd5b506101de60048036038101906101d99190611459565b6109a2565b005b3480156101eb575f80fd5b5061020660048036038101906102019190611459565b610caa565b60405161021391906115cd565b60405180910390f35b348015610227575f80fd5b50610242600480360381019061023d9190611459565b610d36565b60405161024f9190611711565b60405180910390f35b348015610263575f80fd5b5061027e60048036038101906102799190611459565b610da3565b60405161028b9190611711565b60405180910390f35b34801561029f575f80fd5b506102ba60048036038101906102b59190611459565b610e10565b6040516102c79190611711565b60405180910390f35b3480156102db575f80fd5b506102f660048036038101906102f19190611856565b610e7d565b6040516103039190611711565b60405180910390f35b348015610317575f80fd5b50610332600480360381019061032d9190611459565b611007565b005b5f816001548110610371576040517f94c1121f00000000000000000000000000000000000000000000000000000000815260040160405180910390fd5b5f808481548110610385576103846118c2565b5b905f5260205f20906009020190505f60038111156103a6576103a5611676565b5b816004015f9054906101000a900460ff1660038111156103c9576103c8611676565b5b1461041b57806004015f9054906101000a900460ff166040517f012991dc00000000000000000000000000000000000000000000000000000000815260040161041291906116e9565b60405180910390fd5b80600201543410156104685780600201546040517f01dea4d400000000000000000000000000000000000000000000000000000000815260040161045f9190611711565b60405180910390fd5b5f816006015f3373ffffffffffffffffffffffffffffffffffffffff1673ffffffffffffffffffffffffffffffffffffffff1681526020019081526020015f205403610511578060050133908060018154018082558091505060019003905f5260205f20015f9091909190916101000a81548173ffffffffffffffffffffffffffffffffffffffff021916908373ffffffffffffffffffffffffffffffffffffffff1602179055505b34816006015f3373ffffffffffffffffffffffffffffffffffffffff1673ffffffffffffffffffffffffffffffffffffffff1681526020019081526020015f205f82825461055f919061191c565b925050819055508060070154816006015f3373ffffffffffffffffffffffffffffffffffffffff1673ffffffffffffffffffffffffffffffffffffffff1681526020019081526020015f205411156106a757806006015f3373ffffffffffffffffffffffffffffffffffffffff1673ffffffffffffffffffffffffffffffffffffffff1681526020019081526020015f2054816007018190555033816008015f6101000a81548173ffffffffffffffffffffffffffffffffffffffff021916908373ffffffffffffffffffffffffffffffffffffffff1602179055507ff13cb67d4c8841d2c893b242b7d61382d8e3bb53c5c58a8584106e74e8c4721b84826008015f9054906101000a900473ffffffffffffffffffffffffffffffffffffffff1683600701546040516106959392919061194f565b60405180910390a160019250506106ac565b5f9250505b50919050565b606060025467ffffffffffffffff8111156106d0576106cf611732565b5b6040519080825280602002602001820160405280156106fe5781602001602082028036833780820191505090505b5090505f805b5f805490508110156107a5575f600381111561072357610722611676565b5b5f8281548110610736576107356118c2565b5b905f5260205f2090600902016004015f9054906101000a900460ff16600381111561076457610763611676565b5b03610798578083838151811061077d5761077c6118c2565b5b602002602001018181525050818061079490611984565b9250505b8080600101915050610704565b505090565b5f8160015481106107e7576040517f94c1121f00000000000000000000000000000000000000000000000000000000815260040160405180910390fd5b5f8084815481106107fb576107fa6118c2565b5b905f5260205f2090600902019050805f015f9054906101000a900473ffffffffffffffffffffffffffffffffffffffff1692505050919050565b6060816001548110610873576040517f94c1121f00000000000000000000000000000000000000000000000000000000815260040160405180910390fd5b5f808481548110610887576108866118c2565b5b905f5260205f20906009020190508060010180546108a4906119f8565b80601f01602080910402602001604051908101604052809291908181526020018280546108d0906119f8565b801561091b5780601f106108f25761010080835404028352916020019161091b565b820191905f5260205f20905b8154815290600101906020018083116108fe57829003601f168201915b505050505092505050919050565b5f816001548110610966576040517f94c1121f00000000000000000000000000000000000000000000000000000000815260040160405180910390fd5b5f80848154811061097a576109796118c2565b5b905f5260205f2090600902019050806004015f9054906101000a900460ff1692505050919050565b8060015481106109de576040517f94c1121f00000000000000000000000000000000000000000000000000000000815260040160405180910390fd5b5f8083815481106109f2576109f16118c2565b5b905f5260205f2090600902019050805f015f9054906101000a900473ffffffffffffffffffffffffffffffffffffffff1673ffffffffffffffffffffffffffffffffffffffff163373ffffffffffffffffffffffffffffffffffffffff1614610a90576040517f08c379a0000000000000000000000000000000000000000000000000000000008152600401610a8790611a98565b60405180910390fd5b5f6003811115610aa357610aa2611676565b5b816004015f9054906101000a900460ff166003811115610ac657610ac5611676565b5b14610b06576040517f08c379a0000000000000000000000000000000000000000000000000000000008152600401610afd90611b26565b60405180910390fd5b42816003015411610b4c576040517f08c379a0000000000000000000000000000000000000000000000000000000008152600401610b4390611bb4565b60405180910390fd5b6003816004015f6101000a81548160ff02191690836003811115610b7357610b72611676565b5b02179055505f5b8160050180549050811015610ca4575f826005018281548110610ba057610b9f6118c2565b5b905f5260205f20015f9054906101000a900473ffffffffffffffffffffffffffffffffffffffff1690505f836006015f8373ffffffffffffffffffffffffffffffffffffffff1673ffffffffffffffffffffffffffffffffffffffff1681526020019081526020015f205490505f846006015f8473ffffffffffffffffffffffffffffffffffffffff1673ffffffffffffffffffffffffffffffffffffffff1681526020019081526020015f20819055508173ffffffffffffffffffffffffffffffffffffffff166108fc8290811502906040515f60405180830381858888f19350505050158015610c94573d5f803e3d5ffd5b5050508080600101915050610b7a565b50505050565b5f816001548110610ce7576040517f94c1121f00000000000000000000000000000000000000000000000000000000815260040160405180910390fd5b5f808481548110610cfb57610cfa6118c2565b5b905f5260205f2090600902019050806008015f9054906101000a900473ffffffffffffffffffffffffffffffffffffffff1692505050919050565b5f816001548110610d73576040517f94c1121f00000000000000000000000000000000000000000000000000000000815260040160405180910390fd5b5f808481548110610d8757610d866118c2565b5b905f5260205f2090600902019050806007015492505050919050565b5f816001548110610de0576040517f94c1121f00000000000000000000000000000000000000000000000000000000815260040160405180910390fd5b5f808481548110610df457610df36118c2565b5b905f5260205f2090600902019050806003015492505050919050565b5f816001548110610e4d576040517f94c1121f00000000000000000000000000000000000000000000000000000000815260040160405180910390fd5b5f808481548110610e6157610e606118c2565b5b905f5260205f2090600902019050806002015492505050919050565b5f805f60018160018154018082558091505003905f5260205f209060090201905033815f015f6101000a81548173ffffffffffffffffffffffffffffffffffffffff021916908373ffffffffffffffffffffffffffffffffffffffff16021790555084816001019081610ef09190611d6f565b50838160020181905550610e1083610f089190611e3e565b42610f13919061191c565b81600301819055505f816004015f6101000a81548160ff02191690836003811115610f4157610f40611676565b5b02179055505f81600701819055505f816008015f6101000a81548173ffffffffffffffffffffffffffffffffffffffff021916908373ffffffffffffffffffffffffffffffffffffffff1602179055507fcf46d2d7c26c0b0a6796544f9c85c0c2d515717cd942218815045650a44eb52885858360030154604051610fc893929190611e7f565b60405180910390a160025f815480929190610fe290611984565b919050555060015f815480929190610ff990611984565b919050559150509392505050565b806001548110611043576040517f94c1121f00000000000000000000000000000000000000000000000000000000815260040160405180910390fd5b5f808381548110611057576110566118c2565b5b905f5260205f20906009020190505f600381111561107857611077611676565b5b816004015f9054906101000a900460ff16600381111561109b5761109a611676565b5b146110d2576040517fcf95da3f00000000000000000000000000000000000000000000000000000000815260040160405180910390fd5b806003015442101561111f5780600301546040517f420f57a20000000000000000000000000000000000000000000000000000000081526004016111169190611711565b60405180910390fd5b5f816007015403611193576002816004015f6101000a81548160ff0219169083600381111561115157611150611676565b5b02179055507f8f69798335a031208711bd85f5ecdbba5586c28945fe94862229319ef033d7ca836040516111859190611711565b60405180910390a150611411565b6001816004015f6101000a81548160ff021916908360038111156111ba576111b9611676565b5b02179055505f5b8160050180549050811015611342575f8260050182815481106111e7576111e66118c2565b5b905f5260205f20015f9054906101000a900473ffffffffffffffffffffffffffffffffffffffff1690505f836006015f8373ffffffffffffffffffffffffffffffffffffffff1673ffffffffffffffffffffffffffffffffffffffff1681526020019081526020015f205490505f846006015f8473ffffffffffffffffffffffffffffffffffffffff1673ffffffffffffffffffffffffffffffffffffffff1681526020019081526020015f2081905550836008015f9054906101000a900473ffffffffffffffffffffffffffffffffffffffff1673ffffffffffffffffffffffffffffffffffffffff168273ffffffffffffffffffffffffffffffffffffffff1614611333578173ffffffffffffffffffffffffffffffffffffffff166108fc8290811502906040515f60405180830381858888f19350505050158015611331573d5f803e3d5ffd5b505b505080806001019150506111c1565b50805f015f9054906101000a900473ffffffffffffffffffffffffffffffffffffffff1673ffffffffffffffffffffffffffffffffffffffff166108fc826007015490811502906040515f60405180830381858888f193505050501580156113ac573d5f803e3d5ffd5b507fab41e3f06042d2db81478807ab10a02315433d6f63128f9e25858e37e2ac7dfe83826008015f9054906101000a900473ffffffffffffffffffffffffffffffffffffffff1683600701546040516114079392919061194f565b60405180910390a1505b5050565b5f604051905090565b5f80fd5b5f80fd5b5f819050919050565b61143881611426565b8114611442575f80fd5b50565b5f813590506114538161142f565b92915050565b5f6020828403121561146e5761146d61141e565b5b5f61147b84828501611445565b91505092915050565b5f8115159050919050565b61149881611484565b82525050565b5f6020820190506114b15f83018461148f565b92915050565b5f81519050919050565b5f82825260208201905092915050565b5f819050602082019050919050565b6114e981611426565b82525050565b5f6114fa83836114e0565b60208301905092915050565b5f602082019050919050565b5f61151c826114b7565b61152681856114c1565b9350611531836114d1565b805f5b8381101561156157815161154888826114ef565b975061155383611506565b925050600181019050611534565b5085935050505092915050565b5f6020820190508181035f8301526115868184611512565b905092915050565b5f73ffffffffffffffffffffffffffffffffffffffff82169050919050565b5f6115b78261158e565b9050919050565b6115c7816115ad565b82525050565b5f6020820190506115e05f8301846115be565b92915050565b5f81519050919050565b5f82825260208201905092915050565b8281835e5f83830152505050565b5f601f19601f8301169050919050565b5f611628826115e6565b61163281856115f0565b9350611642818560208601611600565b61164b8161160e565b840191505092915050565b5f6020820190508181035f83015261166e818461161e565b905092915050565b7f4e487b71000000000000000000000000000000000000000000000000000000005f52602160045260245ffd5b600481106116b4576116b3611676565b5b50565b5f8190506116c4826116a3565b919050565b5f6116d3826116b7565b9050919050565b6116e3816116c9565b82525050565b5f6020820190506116fc5f8301846116da565b92915050565b61170b81611426565b82525050565b5f6020820190506117245f830184611702565b92915050565b5f80fd5b5f80fd5b7f4e487b71000000000000000000000000000000000000000000000000000000005f52604160045260245ffd5b6117688261160e565b810181811067ffffffffffffffff8211171561178757611786611732565b5b80604052505050565b5f611799611415565b90506117a5828261175f565b919050565b5f67ffffffffffffffff8211156117c4576117c3611732565b5b6117cd8261160e565b9050602081019050919050565b828183375f83830152505050565b5f6117fa6117f5846117aa565b611790565b9050828152602081018484840111156118165761181561172e565b5b6118218482856117da565b509392505050565b5f82601f83011261183d5761183c61172a565b5b813561184d8482602086016117e8565b91505092915050565b5f805f6060848603121561186d5761186c61141e565b5b5f84013567ffffffffffffffff81111561188a57611889611422565b5b61189686828701611829565b93505060206118a786828701611445565b92505060406118b886828701611445565b9150509250925092565b7f4e487b71000000000000000000000000000000000000000000000000000000005f52603260045260245ffd5b7f4e487b71000000000000000000000000000000000000000000000000000000005f52601160045260245ffd5b5f61192682611426565b915061193183611426565b9250828201905080821115611949576119486118ef565b5b92915050565b5f6060820190506119625f830186611702565b61196f60208301856115be565b61197c6040830184611702565b949350505050565b5f61198e82611426565b91507fffffffffffffffffffffffffffffffffffffffffffffffffffffffffffffffff82036119c0576119bf6118ef565b5b600182019050919050565b7f4e487b71000000000000000000000000000000000000000000000000000000005f52602260045260245ffd5b5f6002820490506001821680611a0f57607f821691505b602082108103611a2257611a216119cb565b5b50919050565b7f4f6e6c79207468652063726561746f722063616e2063616e63656c20616e20615f8201527f756374696f6e0000000000000000000000000000000000000000000000000000602082015250565b5f611a826026836115f0565b9150611a8d82611a28565b604082019050919050565b5f6020820190508181035f830152611aaf81611a76565b9050919050565b7f596f752063616e2063616e63656c206f6e6c79206f6e676f696e6720617563745f8201527f696f6e0000000000000000000000000000000000000000000000000000000000602082015250565b5f611b106023836115f0565b9150611b1b82611ab6565b604082019050919050565b5f6020820190508181035f830152611b3d81611b04565b9050919050565b7f596f752063616e2063616e63656c206f6e6c79206e6f742065787069726564205f8201527f61756374696f6e00000000000000000000000000000000000000000000000000602082015250565b5f611b9e6027836115f0565b9150611ba982611b44565b604082019050919050565b5f6020820190508181035f830152611bcb81611b92565b9050919050565b5f819050815f5260205f209050919050565b5f6020601f8301049050919050565b5f82821b905092915050565b5f60088302611c2e7fffffffffffffffffffffffffffffffffffffffffffffffffffffffffffffffff82611bf3565b611c388683611bf3565b95508019841693508086168417925050509392505050565b5f819050919050565b5f611c73611c6e611c6984611426565b611c50565b611426565b9050919050565b5f819050919050565b611c8c83611c59565b611ca0611c9882611c7a565b848454611bff565b825550505050565b5f90565b611cb4611ca8565b611cbf818484611c83565b505050565b5b81811015611ce257611cd75f82611cac565b600181019050611cc5565b5050565b601f821115611d2757611cf881611bd2565b611d0184611be4565b81016020851015611d10578190505b611d24611d1c85611be4565b830182611cc4565b50505b505050565b5f82821c905092915050565b5f611d475f1984600802611d2c565b1980831691505092915050565b5f611d5f8383611d38565b9150826002028217905092915050565b611d78826115e6565b67ffffffffffffffff811115611d9157611d90611732565b5b611d9b82546119f8565b611da6828285611ce6565b5f60209050601f831160018114611dd7575f8415611dc5578287015190505b611dcf8582611d54565b865550611e36565b601f198416611de586611bd2565b5f5b82811015611e0c57848901518255600182019150602085019450602081019050611de7565b86831015611e295784890151611e25601f891682611d38565b8355505b6001600288020188555050505b505050505050565b5f611e4882611426565b9150611e5383611426565b9250828202611e6181611426565b91508282048414831517611e7857611e776118ef565b5b5092915050565b5f6060820190508181035f830152611e97818661161e565b9050611ea66020830185611702565b611eb36040830184611702565b94935050505056fea26469706673582212206bbd3c3b6f77f5743f781832208f67c99a04fb53526386b5c0f2fea287ae238464736f6c634300081a0033",
					"opcodes": "PUSH1 0x80 PUSH1 0x40 MSTORE PUSH0 PUSH1 0x1 SSTORE PUSH0 PUSH1 0x2 SSTORE CALLVALUE DUP1 ISZERO PUSH1 0x16 JUMPI PUSH0 DUP1 REVERT JUMPDEST POP PUSH2 0x1EF1 DUP1 PUSH2 0x24 PUSH0 CODECOPY PUSH0 RETURN INVALID PUSH1 0x80 PUSH1 0x40 MSTORE PUSH1 0x4 CALLDATASIZE LT PUSH2 0xA6 JUMPI PUSH0 CALLDATALOAD PUSH1 0xE0 SHR DUP1 PUSH4 0xA43B87A2 GT PUSH2 0x63 JUMPI DUP1 PUSH4 0xA43B87A2 EQ PUSH2 0x1E0 JUMPI DUP1 PUSH4 0xBDAAF194 EQ PUSH2 0x21C JUMPI DUP1 PUSH4 0xBFE21ADA EQ PUSH2 0x258 JUMPI DUP1 PUSH4 0xD4BF3138 EQ PUSH2 0x294 JUMPI DUP1 PUSH4 0xE33A33B3 EQ PUSH2 0x2D0 JUMPI DUP1 PUSH4 0xE8083863 EQ PUSH2 0x30C JUMPI PUSH2 0xA6 JUMP JUMPDEST DUP1 PUSH4 0x26B7AEEA EQ PUSH2 0xAA JUMPI DUP1 PUSH4 0x2C4261BB EQ PUSH2 0xDA JUMPI DUP1 PUSH4 0x71E21DF0 EQ PUSH2 0x104 JUMPI DUP1 PUSH4 0x7383841A EQ PUSH2 0x140 JUMPI DUP1 PUSH4 0x84861E93 EQ PUSH2 0x17C JUMPI DUP1 PUSH4 0x96B5A755 EQ PUSH2 0x1B8 JUMPI JUMPDEST PUSH0 DUP1 REVERT JUMPDEST PUSH2 0xC4 PUSH1 0x4 DUP1 CALLDATASIZE SUB DUP2 ADD SWAP1 PUSH2 0xBF SWAP2 SWAP1 PUSH2 0x1459 JUMP JUMPDEST PUSH2 0x334 JUMP JUMPDEST PUSH1 0x40 MLOAD PUSH2 0xD1 SWAP2 SWAP1 PUSH2 0x149E JUMP JUMPDEST PUSH1 0x40 MLOAD DUP1 SWAP2 SUB SWAP1 RETURN JUMPDEST CALLVALUE DUP1 ISZERO PUSH2 0xE5 JUMPI PUSH0 DUP1 REVERT JUMPDEST POP PUSH2 0xEE PUSH2 0x6B2 JUMP JUMPDEST PUSH1 0x40 MLOAD PUSH2 0xFB SWAP2 SWAP1 PUSH2 0x156E JUMP JUMPDEST PUSH1 0x40 MLOAD DUP1 SWAP2 SUB SWAP1 RETURN JUMPDEST CALLVALUE DUP1 ISZERO PUSH2 0x10F JUMPI PUSH0 DUP1 REVERT JUMPDEST POP PUSH2 0x12A PUSH1 0x4 DUP1 CALLDATASIZE SUB DUP2 ADD SWAP1 PUSH2 0x125 SWAP2 SWAP1 PUSH2 0x1459 JUMP JUMPDEST PUSH2 0x7AA JUMP JUMPDEST PUSH1 0x40 MLOAD PUSH2 0x137 SWAP2 SWAP1 PUSH2 0x15CD JUMP JUMPDEST PUSH1 0x40 MLOAD DUP1 SWAP2 SUB SWAP1 RETURN JUMPDEST CALLVALUE DUP1 ISZERO PUSH2 0x14B JUMPI PUSH0 DUP1 REVERT JUMPDEST POP PUSH2 0x166 PUSH1 0x4 DUP1 CALLDATASIZE SUB DUP2 ADD SWAP1 PUSH2 0x161 SWAP2 SWAP1 PUSH2 0x1459 JUMP JUMPDEST PUSH2 0x835 JUMP JUMPDEST PUSH1 0x40 MLOAD PUSH2 0x173 SWAP2 SWAP1 PUSH2 0x1656 JUMP JUMPDEST PUSH1 0x40 MLOAD DUP1 SWAP2 SUB SWAP1 RETURN JUMPDEST CALLVALUE DUP1 ISZERO PUSH2 0x187 JUMPI PUSH0 DUP1 REVERT JUMPDEST POP PUSH2 0x1A2 PUSH1 0x4 DUP1 CALLDATASIZE SUB DUP2 ADD SWAP1 PUSH2 0x19D SWAP2 SWAP1 PUSH2 0x1459 JUMP JUMPDEST PUSH2 0x929 JUMP JUMPDEST PUSH1 0x40 MLOAD PUSH2 0x1AF SWAP2 SWAP1 PUSH2 0x16E9 JUMP JUMPDEST PUSH1 0x40 MLOAD DUP1 SWAP2 SUB SWAP1 RETURN JUMPDEST CALLVALUE DUP1 ISZERO PUSH2 0x1C3 JUMPI PUSH0 DUP1 REVERT JUMPDEST POP PUSH2 0x1DE PUSH1 0x4 DUP1 CALLDATASIZE SUB DUP2 ADD SWAP1 PUSH2 0x1D9 SWAP2 SWAP1 PUSH2 0x1459 JUMP JUMPDEST PUSH2 0x9A2 JUMP JUMPDEST STOP JUMPDEST CALLVALUE DUP1 ISZERO PUSH2 0x1EB JUMPI PUSH0 DUP1 REVERT JUMPDEST POP PUSH2 0x206 PUSH1 0x4 DUP1 CALLDATASIZE SUB DUP2 ADD SWAP1 PUSH2 0x201 SWAP2 SWAP1 PUSH2 0x1459 JUMP JUMPDEST PUSH2 0xCAA JUMP JUMPDEST PUSH1 0x40 MLOAD PUSH2 0x213 SWAP2 SWAP1 PUSH2 0x15CD JUMP JUMPDEST PUSH1 0x40 MLOAD DUP1 SWAP2 SUB SWAP1 RETURN JUMPDEST CALLVALUE DUP1 ISZERO PUSH2 0x227 JUMPI PUSH0 DUP1 REVERT JUMPDEST POP PUSH2 0x242 PUSH1 0x4 DUP1 CALLDATASIZE SUB DUP2 ADD SWAP1 PUSH2 0x23D SWAP2 SWAP1 PUSH2 0x1459 JUMP JUMPDEST PUSH2 0xD36 JUMP JUMPDEST PUSH1 0x40 MLOAD PUSH2 0x24F SWAP2 SWAP1 PUSH2 0x1711 JUMP JUMPDEST PUSH1 0x40 MLOAD DUP1 SWAP2 SUB SWAP1 RETURN JUMPDEST CALLVALUE DUP1 ISZERO PUSH2 0x263 JUMPI PUSH0 DUP1 REVERT JUMPDEST POP PUSH2 0x27E PUSH1 0x4 DUP1 CALLDATASIZE SUB DUP2 ADD SWAP1 PUSH2 0x279 SWAP2 SWAP1 PUSH2 0x1459 JUMP JUMPDEST PUSH2 0xDA3 JUMP JUMPDEST PUSH1 0x40 MLOAD PUSH2 0x28B SWAP2 SWAP1 PUSH2 0x1711 JUMP JUMPDEST PUSH1 0x40 MLOAD DUP1 SWAP2 SUB SWAP1 RETURN JUMPDEST CALLVALUE DUP1 ISZERO PUSH2 0x29F JUMPI PUSH0 DUP1 REVERT JUMPDEST POP PUSH2 0x2BA PUSH1 0x4 DUP1 CALLDATASIZE SUB DUP2 ADD SWAP1 PUSH2 0x2B5 SWAP2 SWAP1 PUSH2 0x1459 JUMP JUMPDEST PUSH2 0xE10 JUMP JUMPDEST PUSH1 0x40 MLOAD PUSH2 0x2C7 SWAP2 SWAP1 PUSH2 0x1711 JUMP JUMPDEST PUSH1 0x40 MLOAD DUP1 SWAP2 SUB SWAP1 RETURN JUMPDEST CALLVALUE DUP1 ISZERO PUSH2 0x2DB JUMPI PUSH0 DUP1 REVERT JUMPDEST POP PUSH2 0x2F6 PUSH1 0x4 DUP1 CALLDATASIZE SUB DUP2 ADD SWAP1 PUSH2 0x2F1 SWAP2 SWAP1 PUSH2 0x1856 JUMP JUMPDEST PUSH2 0xE7D JUMP JUMPDEST PUSH1 0x40 MLOAD PUSH2 0x303 SWAP2 SWAP1 PUSH2 0x1711 JUMP JUMPDEST PUSH1 0x40 MLOAD DUP1 SWAP2 SUB SWAP1 RETURN JUMPDEST CALLVALUE DUP1 ISZERO PUSH2 0x317 JUMPI PUSH0 DUP1 REVERT JUMPDEST POP PUSH2 0x332 PUSH1 0x4 DUP1 CALLDATASIZE SUB DUP2 ADD SWAP1 PUSH2 0x32D SWAP2 SWAP1 PUSH2 0x1459 JUMP JUMPDEST PUSH2 0x1007 JUMP JUMPDEST STOP JUMPDEST PUSH0 DUP2 PUSH1 0x1 SLOAD DUP2 LT PUSH2 0x371 JUMPI PUSH1 0x40 MLOAD PUSH32 0x94C1121F00000000000000000000000000000000000000000000000000000000 DUP2 MSTORE PUSH1 0x4 ADD PUSH1 0x40 MLOAD DUP1 SWAP2 SUB SWAP1 REVERT JUMPDEST PUSH0 DUP1 DUP5 DUP2 SLOAD DUP2 LT PUSH2 0x385 JUMPI PUSH2 0x384 PUSH2 0x18C2 JUMP JUMPDEST JUMPDEST SWAP1 PUSH0 MSTORE PUSH1 0x20 PUSH0 KECCAK256 SWAP1 PUSH1 0x9 MUL ADD SWAP1 POP PUSH0 PUSH1 0x3 DUP2 GT ISZERO PUSH2 0x3A6 JUMPI PUSH2 0x3A5 PUSH2 0x1676 JUMP JUMPDEST JUMPDEST DUP2 PUSH1 0x4 ADD PUSH0 SWAP1 SLOAD SWAP1 PUSH2 0x100 EXP SWAP1 DIV PUSH1 0xFF AND PUSH1 0x3 DUP2 GT ISZERO PUSH2 0x3C9 JUMPI PUSH2 0x3C8 PUSH2 0x1676 JUMP JUMPDEST JUMPDEST EQ PUSH2 0x41B JUMPI DUP1 PUSH1 0x4 ADD PUSH0 SWAP1 SLOAD SWAP1 PUSH2 0x100 EXP SWAP1 DIV PUSH1 0xFF AND PUSH1 0x40 MLOAD PUSH32 0x12991DC00000000000000000000000000000000000000000000000000000000 DUP2 MSTORE PUSH1 0x4 ADD PUSH2 0x412 SWAP2 SWAP1 PUSH2 0x16E9 JUMP JUMPDEST PUSH1 0x40 MLOAD DUP1 SWAP2 SUB SWAP1 REVERT JUMPDEST DUP1 PUSH1 0x2 ADD SLOAD CALLVALUE LT ISZERO PUSH2 0x468 JUMPI DUP1 PUSH1 0x2 ADD SLOAD PUSH1 0x40 MLOAD PUSH32 0x1DEA4D400000000000000000000000000000000000000000000000000000000 DUP2 MSTORE PUSH1 0x4 ADD PUSH2 0x45F SWAP2 SWAP1 PUSH2 0x1711 JUMP JUMPDEST PUSH1 0x40 MLOAD DUP1 SWAP2 SUB SWAP1 REVERT JUMPDEST PUSH0 DUP2 PUSH1 0x6 ADD PUSH0 CALLER PUSH20 0xFFFFFFFFFFFFFFFFFFFFFFFFFFFFFFFFFFFFFFFF AND PUSH20 0xFFFFFFFFFFFFFFFFFFFFFFFFFFFFFFFFFFFFFFFF AND DUP2 MSTORE PUSH1 0x20 ADD SWAP1 DUP2 MSTORE PUSH1 0x20 ADD PUSH0 KECCAK256 SLOAD SUB PUSH2 0x511 JUMPI DUP1 PUSH1 0x5 ADD CALLER SWAP1 DUP1 PUSH1 0x1 DUP2 SLOAD ADD DUP1 DUP3 SSTORE DUP1 SWAP2 POP POP PUSH1 0x1 SWAP1 SUB SWAP1 PUSH0 MSTORE PUSH1 0x20 PUSH0 KECCAK256 ADD PUSH0 SWAP1 SWAP2 SWAP1 SWAP2 SWAP1 SWAP2 PUSH2 0x100 EXP DUP2 SLOAD DUP2 PUSH20 0xFFFFFFFFFFFFFFFFFFFFFFFFFFFFFFFFFFFFFFFF MUL NOT AND SWAP1 DUP4 PUSH20 0xFFFFFFFFFFFFFFFFFFFFFFFFFFFFFFFFFFFFFFFF AND MUL OR SWAP1 SSTORE POP JUMPDEST CALLVALUE DUP2 PUSH1 0x6 ADD PUSH0 CALLER PUSH20 0xFFFFFFFFFFFFFFFFFFFFFFFFFFFFFFFFFFFFFFFF AND PUSH20 0xFFFFFFFFFFFFFFFFFFFFFFFFFFFFFFFFFFFFFFFF AND DUP2 MSTORE PUSH1 0x20 ADD SWAP1 DUP2 MSTORE PUSH1 0x20 ADD PUSH0 KECCAK256 PUSH0 DUP3 DUP3 SLOAD PUSH2 0x55F SWAP2 SWAP1 PUSH2 0x191C JUMP JUMPDEST SWAP3 POP POP DUP2 SWAP1 SSTORE POP DUP1 PUSH1 0x7 ADD SLOAD DUP2 PUSH1 0x6 ADD PUSH0 CALLER PUSH20 0xFFFFFFFFFFFFFFFFFFFFFFFFFFFFFFFFFFFFFFFF AND PUSH20 0xFFFFFFFFFFFFFFFFFFFFFFFFFFFFFFFFFFFFFFFF AND DUP2 MSTORE PUSH1 0x20 ADD SWAP1 DUP2 MSTORE PUSH1 0x20 ADD PUSH0 KECCAK256 SLOAD GT ISZERO PUSH2 0x6A7 JUMPI DUP1 PUSH1 0x6 ADD PUSH0 CALLER PUSH20 0xFFFFFFFFFFFFFFFFFFFFFFFFFFFFFFFFFFFFFFFF AND PUSH20 0xFFFFFFFFFFFFFFFFFFFFFFFFFFFFFFFFFFFFFFFF AND DUP2 MSTORE PUSH1 0x20 ADD SWAP1 DUP2 MSTORE PUSH1 0x20 ADD PUSH0 KECCAK256 SLOAD DUP2 PUSH1 0x7 ADD DUP2 SWAP1 SSTORE POP CALLER DUP2 PUSH1 0x8 ADD PUSH0 PUSH2 0x100 EXP DUP2 SLOAD DUP2 PUSH20 0xFFFFFFFFFFFFFFFFFFFFFFFFFFFFFFFFFFFFFFFF MUL NOT AND SWAP1 DUP4 PUSH20 0xFFFFFFFFFFFFFFFFFFFFFFFFFFFFFFFFFFFFFFFF AND MUL OR SWAP1 SSTORE POP PUSH32 0xF13CB67D4C8841D2C893B242B7D61382D8E3BB53C5C58A8584106E74E8C4721B DUP5 DUP3 PUSH1 0x8 ADD PUSH0 SWAP1 SLOAD SWAP1 PUSH2 0x100 EXP SWAP1 DIV PUSH20 0xFFFFFFFFFFFFFFFFFFFFFFFFFFFFFFFFFFFFFFFF AND DUP4 PUSH1 0x7 ADD SLOAD PUSH1 0x40 MLOAD PUSH2 0x695 SWAP4 SWAP3 SWAP2 SWAP1 PUSH2 0x194F JUMP JUMPDEST PUSH1 0x40 MLOAD DUP1 SWAP2 SUB SWAP1 LOG1 PUSH1 0x1 SWAP3 POP POP PUSH2 0x6AC JUMP JUMPDEST PUSH0 SWAP3 POP POP JUMPDEST POP SWAP2 SWAP1 POP JUMP JUMPDEST PUSH1 0x60 PUSH1 0x2 SLOAD PUSH8 0xFFFFFFFFFFFFFFFF DUP2 GT ISZERO PUSH2 0x6D0 JUMPI PUSH2 0x6CF PUSH2 0x1732 JUMP JUMPDEST JUMPDEST PUSH1 0x40 MLOAD SWAP1 DUP1 DUP3 MSTORE DUP1 PUSH1 0x20 MUL PUSH1 0x20 ADD DUP3 ADD PUSH1 0x40 MSTORE DUP1 ISZERO PUSH2 0x6FE JUMPI DUP2 PUSH1 0x20 ADD PUSH1 0x20 DUP3 MUL DUP1 CALLDATASIZE DUP4 CALLDATACOPY DUP1 DUP3 ADD SWAP2 POP POP SWAP1 POP JUMPDEST POP SWAP1 POP PUSH0 DUP1 JUMPDEST PUSH0 DUP1 SLOAD SWAP1 POP DUP2 LT ISZERO PUSH2 0x7A5 JUMPI PUSH0 PUSH1 0x3 DUP2 GT ISZERO PUSH2 0x723 JUMPI PUSH2 0x722 PUSH2 0x1676 JUMP JUMPDEST JUMPDEST PUSH0 DUP3 DUP2 SLOAD DUP2 LT PUSH2 0x736 JUMPI PUSH2 0x735 PUSH2 0x18C2 JUMP JUMPDEST JUMPDEST SWAP1 PUSH0 MSTORE PUSH1 0x20 PUSH0 KECCAK256 SWAP1 PUSH1 0x9 MUL ADD PUSH1 0x4 ADD PUSH0 SWAP1 SLOAD SWAP1 PUSH2 0x100 EXP SWAP1 DIV PUSH1 0xFF AND PUSH1 0x3 DUP2 GT ISZERO PUSH2 0x764 JUMPI PUSH2 0x763 PUSH2 0x1676 JUMP JUMPDEST JUMPDEST SUB PUSH2 0x798 JUMPI DUP1 DUP4 DUP4 DUP2 MLOAD DUP2 LT PUSH2 0x77D JUMPI PUSH2 0x77C PUSH2 0x18C2 JUMP JUMPDEST JUMPDEST PUSH1 0x20 MUL PUSH1 0x20 ADD ADD DUP2 DUP2 MSTORE POP POP DUP2 DUP1 PUSH2 0x794 SWAP1 PUSH2 0x1984 JUMP JUMPDEST SWAP3 POP POP JUMPDEST DUP1 DUP1 PUSH1 0x1 ADD SWAP2 POP POP PUSH2 0x704 JUMP JUMPDEST POP POP SWAP1 JUMP JUMPDEST PUSH0 DUP2 PUSH1 0x1 SLOAD DUP2 LT PUSH2 0x7E7 JUMPI PUSH1 0x40 MLOAD PUSH32 0x94C1121F00000000000000000000000000000000000000000000000000000000 DUP2 MSTORE PUSH1 0x4 ADD PUSH1 0x40 MLOAD DUP1 SWAP2 SUB SWAP1 REVERT JUMPDEST PUSH0 DUP1 DUP5 DUP2 SLOAD DUP2 LT PUSH2 0x7FB JUMPI PUSH2 0x7FA PUSH2 0x18C2 JUMP JUMPDEST JUMPDEST SWAP1 PUSH0 MSTORE PUSH1 0x20 PUSH0 KECCAK256 SWAP1 PUSH1 0x9 MUL ADD SWAP1 POP DUP1 PUSH0 ADD PUSH0 SWAP1 SLOAD SWAP1 PUSH2 0x100 EXP SWAP1 DIV PUSH20 0xFFFFFFFFFFFFFFFFFFFFFFFFFFFFFFFFFFFFFFFF AND SWAP3 POP POP POP SWAP2 SWAP1 POP JUMP JUMPDEST PUSH1 0x60 DUP2 PUSH1 0x1 SLOAD DUP2 LT PUSH2 0x873 JUMPI PUSH1 0x40 MLOAD PUSH32 0x94C1121F00000000000000000000000000000000000000000000000000000000 DUP2 MSTORE PUSH1 0x4 ADD PUSH1 0x40 MLOAD DUP1 SWAP2 SUB SWAP1 REVERT JUMPDEST PUSH0 DUP1 DUP5 DUP2 SLOAD DUP2 LT PUSH2 0x887 JUMPI PUSH2 0x886 PUSH2 0x18C2 JUMP JUMPDEST JUMPDEST SWAP1 PUSH0 MSTORE PUSH1 0x20 PUSH0 KECCAK256 SWAP1 PUSH1 0x9 MUL ADD SWAP1 POP DUP1 PUSH1 0x1 ADD DUP1 SLOAD PUSH2 0x8A4 SWAP1 PUSH2 0x19F8 JUMP JUMPDEST DUP1 PUSH1 0x1F ADD PUSH1 0x20 DUP1 SWAP2 DIV MUL PUSH1 0x20 ADD PUSH1 0x40 MLOAD SWAP1 DUP2 ADD PUSH1 0x40 MSTORE DUP1 SWAP3 SWAP2 SWAP1 DUP2 DUP2 MSTORE PUSH1 0x20 ADD DUP3 DUP1 SLOAD PUSH2 0x8D0 SWAP1 PUSH2 0x19F8 JUMP JUMPDEST DUP1 ISZERO PUSH2 0x91B JUMPI DUP1 PUSH1 0x1F LT PUSH2 0x8F2 JUMPI PUSH2 0x100 DUP1 DUP4 SLOAD DIV MUL DUP4 MSTORE SWAP2 PUSH1 0x20 ADD SWAP2 PUSH2 0x91B JUMP JUMPDEST DUP3 ADD SWAP2 SWAP1 PUSH0 MSTORE PUSH1 0x20 PUSH0 KECCAK256 SWAP1 JUMPDEST DUP2 SLOAD DUP2 MSTORE SWAP1 PUSH1 0x1 ADD SWAP1 PUSH1 0x20 ADD DUP1 DUP4 GT PUSH2 0x8FE JUMPI DUP3 SWAP1 SUB PUSH1 0x1F AND DUP3 ADD SWAP2 JUMPDEST POP POP POP POP POP SWAP3 POP POP POP SWAP2 SWAP1 POP JUMP JUMPDEST PUSH0 DUP2 PUSH1 0x1 SLOAD DUP2 LT PUSH2 0x966 JUMPI PUSH1 0x40 MLOAD PUSH32 0x94C1121F00000000000000000000000000000000000000000000000000000000 DUP2 MSTORE PUSH1 0x4 ADD PUSH1 0x40 MLOAD DUP1 SWAP2 SUB SWAP1 REVERT JUMPDEST PUSH0 DUP1 DUP5 DUP2 SLOAD DUP2 LT PUSH2 0x97A JUMPI PUSH2 0x979 PUSH2 0x18C2 JUMP JUMPDEST JUMPDEST SWAP1 PUSH0 MSTORE PUSH1 0x20 PUSH0 KECCAK256 SWAP1 PUSH1 0x9 MUL ADD SWAP1 POP DUP1 PUSH1 0x4 ADD PUSH0 SWAP1 SLOAD SWAP1 PUSH2 0x100 EXP SWAP1 DIV PUSH1 0xFF AND SWAP3 POP POP POP SWAP2 SWAP1 POP JUMP JUMPDEST DUP1 PUSH1 0x1 SLOAD DUP2 LT PUSH2 0x9DE JUMPI PUSH1 0x40 MLOAD PUSH32 0x94C1121F00000000000000000000000000000000000000000000000000000000 DUP2 MSTORE PUSH1 0x4 ADD PUSH1 0x40 MLOAD DUP1 SWAP2 SUB SWAP1 REVERT JUMPDEST PUSH0 DUP1 DUP4 DUP2 SLOAD DUP2 LT PUSH2 0x9F2 JUMPI PUSH2 0x9F1 PUSH2 0x18C2 JUMP JUMPDEST JUMPDEST SWAP1 PUSH0 MSTORE PUSH1 0x20 PUSH0 KECCAK256 SWAP1 PUSH1 0x9 MUL ADD SWAP1 POP DUP1 PUSH0 ADD PUSH0 SWAP1 SLOAD SWAP1 PUSH2 0x100 EXP SWAP1 DIV PUSH20 0xFFFFFFFFFFFFFFFFFFFFFFFFFFFFFFFFFFFFFFFF AND PUSH20 0xFFFFFFFFFFFFFFFFFFFFFFFFFFFFFFFFFFFFFFFF AND CALLER PUSH20 0xFFFFFFFFFFFFFFFFFFFFFFFFFFFFFFFFFFFFFFFF AND EQ PUSH2 0xA90 JUMPI PUSH1 0x40 MLOAD PUSH32 0x8C379A000000000000000000000000000000000000000000000000000000000 DUP2 MSTORE PUSH1 0x4 ADD PUSH2 0xA87 SWAP1 PUSH2 0x1A98 JUMP JUMPDEST PUSH1 0x40 MLOAD DUP1 SWAP2 SUB SWAP1 REVERT JUMPDEST PUSH0 PUSH1 0x3 DUP2 GT ISZERO PUSH2 0xAA3 JUMPI PUSH2 0xAA2 PUSH2 0x1676 JUMP JUMPDEST JUMPDEST DUP2 PUSH1 0x4 ADD PUSH0 SWAP1 SLOAD SWAP1 PUSH2 0x100 EXP SWAP1 DIV PUSH1 0xFF AND PUSH1 0x3 DUP2 GT ISZERO PUSH2 0xAC6 JUMPI PUSH2 0xAC5 PUSH2 0x1676 JUMP JUMPDEST JUMPDEST EQ PUSH2 0xB06 JUMPI PUSH1 0x40 MLOAD PUSH32 0x8C379A000000000000000000000000000000000000000000000000000000000 DUP2 MSTORE PUSH1 0x4 ADD PUSH2 0xAFD SWAP1 PUSH2 0x1B26 JUMP JUMPDEST PUSH1 0x40 MLOAD DUP1 SWAP2 SUB SWAP1 REVERT JUMPDEST TIMESTAMP DUP2 PUSH1 0x3 ADD SLOAD GT PUSH2 0xB4C JUMPI PUSH1 0x40 MLOAD PUSH32 0x8C379A000000000000000000000000000000000000000000000000000000000 DUP2 MSTORE PUSH1 0x4 ADD PUSH2 0xB43 SWAP1 PUSH2 0x1BB4 JUMP JUMPDEST PUSH1 0x40 MLOAD DUP1 SWAP2 SUB SWAP1 REVERT JUMPDEST PUSH1 0x3 DUP2 PUSH1 0x4 ADD PUSH0 PUSH2 0x100 EXP DUP2 SLOAD DUP2 PUSH1 0xFF MUL NOT AND SWAP1 DUP4 PUSH1 0x3 DUP2 GT ISZERO PUSH2 0xB73 JUMPI PUSH2 0xB72 PUSH2 0x1676 JUMP JUMPDEST JUMPDEST MUL OR SWAP1 SSTORE POP PUSH0 JUMPDEST DUP2 PUSH1 0x5 ADD DUP1 SLOAD SWAP1 POP DUP2 LT ISZERO PUSH2 0xCA4 JUMPI PUSH0 DUP3 PUSH1 0x5 ADD DUP3 DUP2 SLOAD DUP2 LT PUSH2 0xBA0 JUMPI PUSH2 0xB9F PUSH2 0x18C2 JUMP JUMPDEST JUMPDEST SWAP1 PUSH0 MSTORE PUSH1 0x20 PUSH0 KECCAK256 ADD PUSH0 SWAP1 SLOAD SWAP1 PUSH2 0x100 EXP SWAP1 DIV PUSH20 0xFFFFFFFFFFFFFFFFFFFFFFFFFFFFFFFFFFFFFFFF AND SWAP1 POP PUSH0 DUP4 PUSH1 0x6 ADD PUSH0 DUP4 PUSH20 0xFFFFFFFFFFFFFFFFFFFFFFFFFFFFFFFFFFFFFFFF AND PUSH20 0xFFFFFFFFFFFFFFFFFFFFFFFFFFFFFFFFFFFFFFFF AND DUP2 MSTORE PUSH1 0x20 ADD SWAP1 DUP2 MSTORE PUSH1 0x20 ADD PUSH0 KECCAK256 SLOAD SWAP1 POP PUSH0 DUP5 PUSH1 0x6 ADD PUSH0 DUP5 PUSH20 0xFFFFFFFFFFFFFFFFFFFFFFFFFFFFFFFFFFFFFFFF AND PUSH20 0xFFFFFFFFFFFFFFFFFFFFFFFFFFFFFFFFFFFFFFFF AND DUP2 MSTORE PUSH1 0x20 ADD SWAP1 DUP2 MSTORE PUSH1 0x20 ADD PUSH0 KECCAK256 DUP2 SWAP1 SSTORE POP DUP2 PUSH20 0xFFFFFFFFFFFFFFFFFFFFFFFFFFFFFFFFFFFFFFFF AND PUSH2 0x8FC DUP3 SWAP1 DUP2 ISZERO MUL SWAP1 PUSH1 0x40 MLOAD PUSH0 PUSH1 0x40 MLOAD DUP1 DUP4 SUB DUP2 DUP6 DUP9 DUP9 CALL SWAP4 POP POP POP POP ISZERO DUP1 ISZERO PUSH2 0xC94 JUMPI RETURNDATASIZE PUSH0 DUP1 RETURNDATACOPY RETURNDATASIZE PUSH0 REVERT JUMPDEST POP POP POP DUP1 DUP1 PUSH1 0x1 ADD SWAP2 POP POP PUSH2 0xB7A JUMP JUMPDEST POP POP POP POP JUMP JUMPDEST PUSH0 DUP2 PUSH1 0x1 SLOAD DUP2 LT PUSH2 0xCE7 JUMPI PUSH1 0x40 MLOAD PUSH32 0x94C1121F00000000000000000000000000000000000000000000000000000000 DUP2 MSTORE PUSH1 0x4 ADD PUSH1 0x40 MLOAD DUP1 SWAP2 SUB SWAP1 REVERT JUMPDEST PUSH0 DUP1 DUP5 DUP2 SLOAD DUP2 LT PUSH2 0xCFB JUMPI PUSH2 0xCFA PUSH2 0x18C2 JUMP JUMPDEST JUMPDEST SWAP1 PUSH0 MSTORE PUSH1 0x20 PUSH0 KECCAK256 SWAP1 PUSH1 0x9 MUL ADD SWAP1 POP DUP1 PUSH1 0x8 ADD PUSH0 SWAP1 SLOAD SWAP1 PUSH2 0x100 EXP SWAP1 DIV PUSH20 0xFFFFFFFFFFFFFFFFFFFFFFFFFFFFFFFFFFFFFFFF AND SWAP3 POP POP POP SWAP2 SWAP1 POP JUMP JUMPDEST PUSH0 DUP2 PUSH1 0x1 SLOAD DUP2 LT PUSH2 0xD73 JUMPI PUSH1 0x40 MLOAD PUSH32 0x94C1121F00000000000000000000000000000000000000000000000000000000 DUP2 MSTORE PUSH1 0x4 ADD PUSH1 0x40 MLOAD DUP1 SWAP2 SUB SWAP1 REVERT JUMPDEST PUSH0 DUP1 DUP5 DUP2 SLOAD DUP2 LT PUSH2 0xD87 JUMPI PUSH2 0xD86 PUSH2 0x18C2 JUMP JUMPDEST JUMPDEST SWAP1 PUSH0 MSTORE PUSH1 0x20 PUSH0 KECCAK256 SWAP1 PUSH1 0x9 MUL ADD SWAP1 POP DUP1 PUSH1 0x7 ADD SLOAD SWAP3 POP POP POP SWAP2 SWAP1 POP JUMP JUMPDEST PUSH0 DUP2 PUSH1 0x1 SLOAD DUP2 LT PUSH2 0xDE0 JUMPI PUSH1 0x40 MLOAD PUSH32 0x94C1121F00000000000000000000000000000000000000000000000000000000 DUP2 MSTORE PUSH1 0x4 ADD PUSH1 0x40 MLOAD DUP1 SWAP2 SUB SWAP1 REVERT JUMPDEST PUSH0 DUP1 DUP5 DUP2 SLOAD DUP2 LT PUSH2 0xDF4 JUMPI PUSH2 0xDF3 PUSH2 0x18C2 JUMP JUMPDEST JUMPDEST SWAP1 PUSH0 MSTORE PUSH1 0x20 PUSH0 KECCAK256 SWAP1 PUSH1 0x9 MUL ADD SWAP1 POP DUP1 PUSH1 0x3 ADD SLOAD SWAP3 POP POP POP SWAP2 SWAP1 POP JUMP JUMPDEST PUSH0 DUP2 PUSH1 0x1 SLOAD DUP2 LT PUSH2 0xE4D JUMPI PUSH1 0x40 MLOAD PUSH32 0x94C1121F00000000000000000000000000000000000000000000000000000000 DUP2 MSTORE PUSH1 0x4 ADD PUSH1 0x40 MLOAD DUP1 SWAP2 SUB SWAP1 REVERT JUMPDEST PUSH0 DUP1 DUP5 DUP2 SLOAD DUP2 LT PUSH2 0xE61 JUMPI PUSH2 0xE60 PUSH2 0x18C2 JUMP JUMPDEST JUMPDEST SWAP1 PUSH0 MSTORE PUSH1 0x20 PUSH0 KECCAK256 SWAP1 PUSH1 0x9 MUL ADD SWAP1 POP DUP1 PUSH1 0x2 ADD SLOAD SWAP3 POP POP POP SWAP2 SWAP1 POP JUMP JUMPDEST PUSH0 DUP1 PUSH0 PUSH1 0x1 DUP2 PUSH1 0x1 DUP2 SLOAD ADD DUP1 DUP3 SSTORE DUP1 SWAP2 POP POP SUB SWAP1 PUSH0 MSTORE PUSH1 0x20 PUSH0 KECCAK256 SWAP1 PUSH1 0x9 MUL ADD SWAP1 POP CALLER DUP2 PUSH0 ADD PUSH0 PUSH2 0x100 EXP DUP2 SLOAD DUP2 PUSH20 0xFFFFFFFFFFFFFFFFFFFFFFFFFFFFFFFFFFFFFFFF MUL NOT AND SWAP1 DUP4 PUSH20 0xFFFFFFFFFFFFFFFFFFFFFFFFFFFFFFFFFFFFFFFF AND MUL OR SWAP1 SSTORE POP DUP5 DUP2 PUSH1 0x1 ADD SWAP1 DUP2 PUSH2 0xEF0 SWAP2 SWAP1 PUSH2 0x1D6F JUMP JUMPDEST POP DUP4 DUP2 PUSH1 0x2 ADD DUP2 SWAP1 SSTORE POP PUSH2 0xE10 DUP4 PUSH2 0xF08 SWAP2 SWAP1 PUSH2 0x1E3E JUMP JUMPDEST TIMESTAMP PUSH2 0xF13 SWAP2 SWAP1 PUSH2 0x191C JUMP JUMPDEST DUP2 PUSH1 0x3 ADD DUP2 SWAP1 SSTORE POP PUSH0 DUP2 PUSH1 0x4 ADD PUSH0 PUSH2 0x100 EXP DUP2 SLOAD DUP2 PUSH1 0xFF MUL NOT AND SWAP1 DUP4 PUSH1 0x3 DUP2 GT ISZERO PUSH2 0xF41 JUMPI PUSH2 0xF40 PUSH2 0x1676 JUMP JUMPDEST JUMPDEST MUL OR SWAP1 SSTORE POP PUSH0 DUP2 PUSH1 0x7 ADD DUP2 SWAP1 SSTORE POP PUSH0 DUP2 PUSH1 0x8 ADD PUSH0 PUSH2 0x100 EXP DUP2 SLOAD DUP2 PUSH20 0xFFFFFFFFFFFFFFFFFFFFFFFFFFFFFFFFFFFFFFFF MUL NOT AND SWAP1 DUP4 PUSH20 0xFFFFFFFFFFFFFFFFFFFFFFFFFFFFFFFFFFFFFFFF AND MUL OR SWAP1 SSTORE POP PUSH32 0xCF46D2D7C26C0B0A6796544F9C85C0C2D515717CD942218815045650A44EB528 DUP6 DUP6 DUP4 PUSH1 0x3 ADD SLOAD PUSH1 0x40 MLOAD PUSH2 0xFC8 SWAP4 SWAP3 SWAP2 SWAP1 PUSH2 0x1E7F JUMP JUMPDEST PUSH1 0x40 MLOAD DUP1 SWAP2 SUB SWAP1 LOG1 PUSH1 0x2 PUSH0 DUP2 SLOAD DUP1 SWAP3 SWAP2 SWAP1 PUSH2 0xFE2 SWAP1 PUSH2 0x1984 JUMP JUMPDEST SWAP2 SWAP1 POP SSTORE POP PUSH1 0x1 PUSH0 DUP2 SLOAD DUP1 SWAP3 SWAP2 SWAP1 PUSH2 0xFF9 SWAP1 PUSH2 0x1984 JUMP JUMPDEST SWAP2 SWAP1 POP SSTORE SWAP2 POP POP SWAP4 SWAP3 POP POP POP JUMP JUMPDEST DUP1 PUSH1 0x1 SLOAD DUP2 LT PUSH2 0x1043 JUMPI PUSH1 0x40 MLOAD PUSH32 0x94C1121F00000000000000000000000000000000000000000000000000000000 DUP2 MSTORE PUSH1 0x4 ADD PUSH1 0x40 MLOAD DUP1 SWAP2 SUB SWAP1 REVERT JUMPDEST PUSH0 DUP1 DUP4 DUP2 SLOAD DUP2 LT PUSH2 0x1057 JUMPI PUSH2 0x1056 PUSH2 0x18C2 JUMP JUMPDEST JUMPDEST SWAP1 PUSH0 MSTORE PUSH1 0x20 PUSH0 KECCAK256 SWAP1 PUSH1 0x9 MUL ADD SWAP1 POP PUSH0 PUSH1 0x3 DUP2 GT ISZERO PUSH2 0x1078 JUMPI PUSH2 0x1077 PUSH2 0x1676 JUMP JUMPDEST JUMPDEST DUP2 PUSH1 0x4 ADD PUSH0 SWAP1 SLOAD SWAP1 PUSH2 0x100 EXP SWAP1 DIV PUSH1 0xFF AND PUSH1 0x3 DUP2 GT ISZERO PUSH2 0x109B JUMPI PUSH2 0x109A PUSH2 0x1676 JUMP JUMPDEST JUMPDEST EQ PUSH2 0x10D2 JUMPI PUSH1 0x40 MLOAD PUSH32 0xCF95DA3F00000000000000000000000000000000000000000000000000000000 DUP2 MSTORE PUSH1 0x4 ADD PUSH1 0x40 MLOAD DUP1 SWAP2 SUB SWAP1 REVERT JUMPDEST DUP1 PUSH1 0x3 ADD SLOAD TIMESTAMP LT ISZERO PUSH2 0x111F JUMPI DUP1 PUSH1 0x3 ADD SLOAD PUSH1 0x40 MLOAD PUSH32 0x420F57A200000000000000000000000000000000000000000000000000000000 DUP2 MSTORE PUSH1 0x4 ADD PUSH2 0x1116 SWAP2 SWAP1 PUSH2 0x1711 JUMP JUMPDEST PUSH1 0x40 MLOAD DUP1 SWAP2 SUB SWAP1 REVERT JUMPDEST PUSH0 DUP2 PUSH1 0x7 ADD SLOAD SUB PUSH2 0x1193 JUMPI PUSH1 0x2 DUP2 PUSH1 0x4 ADD PUSH0 PUSH2 0x100 EXP DUP2 SLOAD DUP2 PUSH1 0xFF MUL NOT AND SWAP1 DUP4 PUSH1 0x3 DUP2 GT ISZERO PUSH2 0x1151 JUMPI PUSH2 0x1150 PUSH2 0x1676 JUMP JUMPDEST JUMPDEST MUL OR SWAP1 SSTORE POP PUSH32 0x8F69798335A031208711BD85F5ECDBBA5586C28945FE94862229319EF033D7CA DUP4 PUSH1 0x40 MLOAD PUSH2 0x1185 SWAP2 SWAP1 PUSH2 0x1711 JUMP JUMPDEST PUSH1 0x40 MLOAD DUP1 SWAP2 SUB SWAP1 LOG1 POP PUSH2 0x1411 JUMP JUMPDEST PUSH1 0x1 DUP2 PUSH1 0x4 ADD PUSH0 PUSH2 0x100 EXP DUP2 SLOAD DUP2 PUSH1 0xFF MUL NOT AND SWAP1 DUP4 PUSH1 0x3 DUP2 GT ISZERO PUSH2 0x11BA JUMPI PUSH2 0x11B9 PUSH2 0x1676 JUMP JUMPDEST JUMPDEST MUL OR SWAP1 SSTORE POP PUSH0 JUMPDEST DUP2 PUSH1 0x5 ADD DUP1 SLOAD SWAP1 POP DUP2 LT ISZERO PUSH2 0x1342 JUMPI PUSH0 DUP3 PUSH1 0x5 ADD DUP3 DUP2 SLOAD DUP2 LT PUSH2 0x11E7 JUMPI PUSH2 0x11E6 PUSH2 0x18C2 JUMP JUMPDEST JUMPDEST SWAP1 PUSH0 MSTORE PUSH1 0x20 PUSH0 KECCAK256 ADD PUSH0 SWAP1 SLOAD SWAP1 PUSH2 0x100 EXP SWAP1 DIV PUSH20 0xFFFFFFFFFFFFFFFFFFFFFFFFFFFFFFFFFFFFFFFF AND SWAP1 POP PUSH0 DUP4 PUSH1 0x6 ADD PUSH0 DUP4 PUSH20 0xFFFFFFFFFFFFFFFFFFFFFFFFFFFFFFFFFFFFFFFF AND PUSH20 0xFFFFFFFFFFFFFFFFFFFFFFFFFFFFFFFFFFFFFFFF AND DUP2 MSTORE PUSH1 0x20 ADD SWAP1 DUP2 MSTORE PUSH1 0x20 ADD PUSH0 KECCAK256 SLOAD SWAP1 POP PUSH0 DUP5 PUSH1 0x6 ADD PUSH0 DUP5 PUSH20 0xFFFFFFFFFFFFFFFFFFFFFFFFFFFFFFFFFFFFFFFF AND PUSH20 0xFFFFFFFFFFFFFFFFFFFFFFFFFFFFFFFFFFFFFFFF AND DUP2 MSTORE PUSH1 0x20 ADD SWAP1 DUP2 MSTORE PUSH1 0x20 ADD PUSH0 KECCAK256 DUP2 SWAP1 SSTORE POP DUP4 PUSH1 0x8 ADD PUSH0 SWAP1 SLOAD SWAP1 PUSH2 0x100 EXP SWAP1 DIV PUSH20 0xFFFFFFFFFFFFFFFFFFFFFFFFFFFFFFFFFFFFFFFF AND PUSH20 0xFFFFFFFFFFFFFFFFFFFFFFFFFFFFFFFFFFFFFFFF AND DUP3 PUSH20 0xFFFFFFFFFFFFFFFFFFFFFFFFFFFFFFFFFFFFFFFF AND EQ PUSH2 0x1333 JUMPI DUP2 PUSH20 0xFFFFFFFFFFFFFFFFFFFFFFFFFFFFFFFFFFFFFFFF AND PUSH2 0x8FC DUP3 SWAP1 DUP2 ISZERO MUL SWAP1 PUSH1 0x40 MLOAD PUSH0 PUSH1 0x40 MLOAD DUP1 DUP4 SUB DUP2 DUP6 DUP9 DUP9 CALL SWAP4 POP POP POP POP ISZERO DUP1 ISZERO PUSH2 0x1331 JUMPI RETURNDATASIZE PUSH0 DUP1 RETURNDATACOPY RETURNDATASIZE PUSH0 REVERT JUMPDEST POP JUMPDEST POP POP DUP1 DUP1 PUSH1 0x1 ADD SWAP2 POP POP PUSH2 0x11C1 JUMP JUMPDEST POP DUP1 PUSH0 ADD PUSH0 SWAP1 SLOAD SWAP1 PUSH2 0x100 EXP SWAP1 DIV PUSH20 0xFFFFFFFFFFFFFFFFFFFFFFFFFFFFFFFFFFFFFFFF AND PUSH20 0xFFFFFFFFFFFFFFFFFFFFFFFFFFFFFFFFFFFFFFFF AND PUSH2 0x8FC DUP3 PUSH1 0x7 ADD SLOAD SWAP1 DUP2 ISZERO MUL SWAP1 PUSH1 0x40 MLOAD PUSH0 PUSH1 0x40 MLOAD DUP1 DUP4 SUB DUP2 DUP6 DUP9 DUP9 CALL SWAP4 POP POP POP POP ISZERO DUP1 ISZERO PUSH2 0x13AC JUMPI RETURNDATASIZE PUSH0 DUP1 RETURNDATACOPY RETURNDATASIZE PUSH0 REVERT JUMPDEST POP PUSH32 0xAB41E3F06042D2DB81478807AB10A02315433D6F63128F9E25858E37E2AC7DFE DUP4 DUP3 PUSH1 0x8 ADD PUSH0 SWAP1 SLOAD SWAP1 PUSH2 0x100 EXP SWAP1 DIV PUSH20 0xFFFFFFFFFFFFFFFFFFFFFFFFFFFFFFFFFFFFFFFF AND DUP4 PUSH1 0x7 ADD SLOAD PUSH1 0x40 MLOAD PUSH2 0x1407 SWAP4 SWAP3 SWAP2 SWAP1 PUSH2 0x194F JUMP JUMPDEST PUSH1 0x40 MLOAD DUP1 SWAP2 SUB SWAP1 LOG1 POP JUMPDEST POP POP JUMP JUMPDEST PUSH0 PUSH1 0x40 MLOAD SWAP1 POP SWAP1 JUMP JUMPDEST PUSH0 DUP1 REVERT JUMPDEST PUSH0 DUP1 REVERT JUMPDEST PUSH0 DUP2 SWAP1 POP SWAP2 SWAP1 POP JUMP JUMPDEST PUSH2 0x1438 DUP2 PUSH2 0x1426 JUMP JUMPDEST DUP2 EQ PUSH2 0x1442 JUMPI PUSH0 DUP1 REVERT JUMPDEST POP JUMP JUMPDEST PUSH0 DUP2 CALLDATALOAD SWAP1 POP PUSH2 0x1453 DUP2 PUSH2 0x142F JUMP JUMPDEST SWAP3 SWAP2 POP POP JUMP JUMPDEST PUSH0 PUSH1 0x20 DUP3 DUP5 SUB SLT ISZERO PUSH2 0x146E JUMPI PUSH2 0x146D PUSH2 0x141E JUMP JUMPDEST JUMPDEST PUSH0 PUSH2 0x147B DUP5 DUP3 DUP6 ADD PUSH2 0x1445 JUMP JUMPDEST SWAP2 POP POP SWAP3 SWAP2 POP POP JUMP JUMPDEST PUSH0 DUP2 ISZERO ISZERO SWAP1 POP SWAP2 SWAP1 POP JUMP JUMPDEST PUSH2 0x1498 DUP2 PUSH2 0x1484 JUMP JUMPDEST DUP3 MSTORE POP POP JUMP JUMPDEST PUSH0 PUSH1 0x20 DUP3 ADD SWAP1 POP PUSH2 0x14B1 PUSH0 DUP4 ADD DUP5 PUSH2 0x148F JUMP JUMPDEST SWAP3 SWAP2 POP POP JUMP JUMPDEST PUSH0 DUP2 MLOAD SWAP1 POP SWAP2 SWAP1 POP JUMP JUMPDEST PUSH0 DUP3 DUP3 MSTORE PUSH1 0x20 DUP3 ADD SWAP1 POP SWAP3 SWAP2 POP POP JUMP JUMPDEST PUSH0 DUP2 SWAP1 POP PUSH1 0x20 DUP3 ADD SWAP1 POP SWAP2 SWAP1 POP JUMP JUMPDEST PUSH2 0x14E9 DUP2 PUSH2 0x1426 JUMP JUMPDEST DUP3 MSTORE POP POP JUMP JUMPDEST PUSH0 PUSH2 0x14FA DUP4 DUP4 PUSH2 0x14E0 JUMP JUMPDEST PUSH1 0x20 DUP4 ADD SWAP1 POP SWAP3 SWAP2 POP POP JUMP JUMPDEST PUSH0 PUSH1 0x20 DUP3 ADD SWAP1 POP SWAP2 SWAP1 POP JUMP JUMPDEST PUSH0 PUSH2 0x151C DUP3 PUSH2 0x14B7 JUMP JUMPDEST PUSH2 0x1526 DUP2 DUP6 PUSH2 0x14C1 JUMP JUMPDEST SWAP4 POP PUSH2 0x1531 DUP4 PUSH2 0x14D1 JUMP JUMPDEST DUP1 PUSH0 JUMPDEST DUP4 DUP2 LT ISZERO PUSH2 0x1561 JUMPI DUP2 MLOAD PUSH2 0x1548 DUP9 DUP3 PUSH2 0x14EF JUMP JUMPDEST SWAP8 POP PUSH2 0x1553 DUP4 PUSH2 0x1506 JUMP JUMPDEST SWAP3 POP POP PUSH1 0x1 DUP2 ADD SWAP1 POP PUSH2 0x1534 JUMP JUMPDEST POP DUP6 SWAP4 POP POP POP POP SWAP3 SWAP2 POP POP JUMP JUMPDEST PUSH0 PUSH1 0x20 DUP3 ADD SWAP1 POP DUP2 DUP2 SUB PUSH0 DUP4 ADD MSTORE PUSH2 0x1586 DUP2 DUP5 PUSH2 0x1512 JUMP JUMPDEST SWAP1 POP SWAP3 SWAP2 POP POP JUMP JUMPDEST PUSH0 PUSH20 0xFFFFFFFFFFFFFFFFFFFFFFFFFFFFFFFFFFFFFFFF DUP3 AND SWAP1 POP SWAP2 SWAP1 POP JUMP JUMPDEST PUSH0 PUSH2 0x15B7 DUP3 PUSH2 0x158E JUMP JUMPDEST SWAP1 POP SWAP2 SWAP1 POP JUMP JUMPDEST PUSH2 0x15C7 DUP2 PUSH2 0x15AD JUMP JUMPDEST DUP3 MSTORE POP POP JUMP JUMPDEST PUSH0 PUSH1 0x20 DUP3 ADD SWAP1 POP PUSH2 0x15E0 PUSH0 DUP4 ADD DUP5 PUSH2 0x15BE JUMP JUMPDEST SWAP3 SWAP2 POP POP JUMP JUMPDEST PUSH0 DUP2 MLOAD SWAP1 POP SWAP2 SWAP1 POP JUMP JUMPDEST PUSH0 DUP3 DUP3 MSTORE PUSH1 0x20 DUP3 ADD SWAP1 POP SWAP3 SWAP2 POP POP JUMP JUMPDEST DUP3 DUP2 DUP4 MCOPY PUSH0 DUP4 DUP4 ADD MSTORE POP POP POP JUMP JUMPDEST PUSH0 PUSH1 0x1F NOT PUSH1 0x1F DUP4 ADD AND SWAP1 POP SWAP2 SWAP1 POP JUMP JUMPDEST PUSH0 PUSH2 0x1628 DUP3 PUSH2 0x15E6 JUMP JUMPDEST PUSH2 0x1632 DUP2 DUP6 PUSH2 0x15F0 JUMP JUMPDEST SWAP4 POP PUSH2 0x1642 DUP2 DUP6 PUSH1 0x20 DUP7 ADD PUSH2 0x1600 JUMP JUMPDEST PUSH2 0x164B DUP2 PUSH2 0x160E JUMP JUMPDEST DUP5 ADD SWAP2 POP POP SWAP3 SWAP2 POP POP JUMP JUMPDEST PUSH0 PUSH1 0x20 DUP3 ADD SWAP1 POP DUP2 DUP2 SUB PUSH0 DUP4 ADD MSTORE PUSH2 0x166E DUP2 DUP5 PUSH2 0x161E JUMP JUMPDEST SWAP1 POP SWAP3 SWAP2 POP POP JUMP JUMPDEST PUSH32 0x4E487B7100000000000000000000000000000000000000000000000000000000 PUSH0 MSTORE PUSH1 0x21 PUSH1 0x4 MSTORE PUSH1 0x24 PUSH0 REVERT JUMPDEST PUSH1 0x4 DUP2 LT PUSH2 0x16B4 JUMPI PUSH2 0x16B3 PUSH2 0x1676 JUMP JUMPDEST JUMPDEST POP JUMP JUMPDEST PUSH0 DUP2 SWAP1 POP PUSH2 0x16C4 DUP3 PUSH2 0x16A3 JUMP JUMPDEST SWAP2 SWAP1 POP JUMP JUMPDEST PUSH0 PUSH2 0x16D3 DUP3 PUSH2 0x16B7 JUMP JUMPDEST SWAP1 POP SWAP2 SWAP1 POP JUMP JUMPDEST PUSH2 0x16E3 DUP2 PUSH2 0x16C9 JUMP JUMPDEST DUP3 MSTORE POP POP JUMP JUMPDEST PUSH0 PUSH1 0x20 DUP3 ADD SWAP1 POP PUSH2 0x16FC PUSH0 DUP4 ADD DUP5 PUSH2 0x16DA JUMP JUMPDEST SWAP3 SWAP2 POP POP JUMP JUMPDEST PUSH2 0x170B DUP2 PUSH2 0x1426 JUMP JUMPDEST DUP3 MSTORE POP POP JUMP JUMPDEST PUSH0 PUSH1 0x20 DUP3 ADD SWAP1 POP PUSH2 0x1724 PUSH0 DUP4 ADD DUP5 PUSH2 0x1702 JUMP JUMPDEST SWAP3 SWAP2 POP POP JUMP JUMPDEST PUSH0 DUP1 REVERT JUMPDEST PUSH0 DUP1 REVERT JUMPDEST PUSH32 0x4E487B7100000000000000000000000000000000000000000000000000000000 PUSH0 MSTORE PUSH1 0x41 PUSH1 0x4 MSTORE PUSH1 0x24 PUSH0 REVERT JUMPDEST PUSH2 0x1768 DUP3 PUSH2 0x160E JUMP JUMPDEST DUP2 ADD DUP2 DUP2 LT PUSH8 0xFFFFFFFFFFFFFFFF DUP3 GT OR ISZERO PUSH2 0x1787 JUMPI PUSH2 0x1786 PUSH2 0x1732 JUMP JUMPDEST JUMPDEST DUP1 PUSH1 0x40 MSTORE POP POP POP JUMP JUMPDEST PUSH0 PUSH2 0x1799 PUSH2 0x1415 JUMP JUMPDEST SWAP1 POP PUSH2 0x17A5 DUP3 DUP3 PUSH2 0x175F JUMP JUMPDEST SWAP2 SWAP1 POP JUMP JUMPDEST PUSH0 PUSH8 0xFFFFFFFFFFFFFFFF DUP3 GT ISZERO PUSH2 0x17C4 JUMPI PUSH2 0x17C3 PUSH2 0x1732 JUMP JUMPDEST JUMPDEST PUSH2 0x17CD DUP3 PUSH2 0x160E JUMP JUMPDEST SWAP1 POP PUSH1 0x20 DUP2 ADD SWAP1 POP SWAP2 SWAP1 POP JUMP JUMPDEST DUP3 DUP2 DUP4 CALLDATACOPY PUSH0 DUP4 DUP4 ADD MSTORE POP POP POP JUMP JUMPDEST PUSH0 PUSH2 0x17FA PUSH2 0x17F5 DUP5 PUSH2 0x17AA JUMP JUMPDEST PUSH2 0x1790 JUMP JUMPDEST SWAP1 POP DUP3 DUP2 MSTORE PUSH1 0x20 DUP2 ADD DUP5 DUP5 DUP5 ADD GT ISZERO PUSH2 0x1816 JUMPI PUSH2 0x1815 PUSH2 0x172E JUMP JUMPDEST JUMPDEST PUSH2 0x1821 DUP5 DUP3 DUP6 PUSH2 0x17DA JUMP JUMPDEST POP SWAP4 SWAP3 POP POP POP JUMP JUMPDEST PUSH0 DUP3 PUSH1 0x1F DUP4 ADD SLT PUSH2 0x183D JUMPI PUSH2 0x183C PUSH2 0x172A JUMP JUMPDEST JUMPDEST DUP2 CALLDATALOAD PUSH2 0x184D DUP5 DUP3 PUSH1 0x20 DUP7 ADD PUSH2 0x17E8 JUMP JUMPDEST SWAP2 POP POP SWAP3 SWAP2 POP POP JUMP JUMPDEST PUSH0 DUP1 PUSH0 PUSH1 0x60 DUP5 DUP7 SUB SLT ISZERO PUSH2 0x186D JUMPI PUSH2 0x186C PUSH2 0x141E JUMP JUMPDEST JUMPDEST PUSH0 DUP5 ADD CALLDATALOAD PUSH8 0xFFFFFFFFFFFFFFFF DUP2 GT ISZERO PUSH2 0x188A JUMPI PUSH2 0x1889 PUSH2 0x1422 JUMP JUMPDEST JUMPDEST PUSH2 0x1896 DUP7 DUP3 DUP8 ADD PUSH2 0x1829 JUMP JUMPDEST SWAP4 POP POP PUSH1 0x20 PUSH2 0x18A7 DUP7 DUP3 DUP8 ADD PUSH2 0x1445 JUMP JUMPDEST SWAP3 POP POP PUSH1 0x40 PUSH2 0x18B8 DUP7 DUP3 DUP8 ADD PUSH2 0x1445 JUMP JUMPDEST SWAP2 POP POP SWAP3 POP SWAP3 POP SWAP3 JUMP JUMPDEST PUSH32 0x4E487B7100000000000000000000000000000000000000000000000000000000 PUSH0 MSTORE PUSH1 0x32 PUSH1 0x4 MSTORE PUSH1 0x24 PUSH0 REVERT JUMPDEST PUSH32 0x4E487B7100000000000000000000000000000000000000000000000000000000 PUSH0 MSTORE PUSH1 0x11 PUSH1 0x4 MSTORE PUSH1 0x24 PUSH0 REVERT JUMPDEST PUSH0 PUSH2 0x1926 DUP3 PUSH2 0x1426 JUMP JUMPDEST SWAP2 POP PUSH2 0x1931 DUP4 PUSH2 0x1426 JUMP JUMPDEST SWAP3 POP DUP3 DUP3 ADD SWAP1 POP DUP1 DUP3 GT ISZERO PUSH2 0x1949 JUMPI PUSH2 0x1948 PUSH2 0x18EF JUMP JUMPDEST JUMPDEST SWAP3 SWAP2 POP POP JUMP JUMPDEST PUSH0 PUSH1 0x60 DUP3 ADD SWAP1 POP PUSH2 0x1962 PUSH0 DUP4 ADD DUP7 PUSH2 0x1702 JUMP JUMPDEST PUSH2 0x196F PUSH1 0x20 DUP4 ADD DUP6 PUSH2 0x15BE JUMP JUMPDEST PUSH2 0x197C PUSH1 0x40 DUP4 ADD DUP5 PUSH2 0x1702 JUMP JUMPDEST SWAP5 SWAP4 POP POP POP POP JUMP JUMPDEST PUSH0 PUSH2 0x198E DUP3 PUSH2 0x1426 JUMP JUMPDEST SWAP2 POP PUSH32 0xFFFFFFFFFFFFFFFFFFFFFFFFFFFFFFFFFFFFFFFFFFFFFFFFFFFFFFFFFFFFFFFF DUP3 SUB PUSH2 0x19C0 JUMPI PUSH2 0x19BF PUSH2 0x18EF JUMP JUMPDEST JUMPDEST PUSH1 0x1 DUP3 ADD SWAP1 POP SWAP2 SWAP1 POP JUMP JUMPDEST PUSH32 0x4E487B7100000000000000000000000000000000000000000000000000000000 PUSH0 MSTORE PUSH1 0x22 PUSH1 0x4 MSTORE PUSH1 0x24 PUSH0 REVERT JUMPDEST PUSH0 PUSH1 0x2 DUP3 DIV SWAP1 POP PUSH1 0x1 DUP3 AND DUP1 PUSH2 0x1A0F JUMPI PUSH1 0x7F DUP3 AND SWAP2 POP JUMPDEST PUSH1 0x20 DUP3 LT DUP2 SUB PUSH2 0x1A22 JUMPI PUSH2 0x1A21 PUSH2 0x19CB JUMP JUMPDEST JUMPDEST POP SWAP2 SWAP1 POP JUMP JUMPDEST PUSH32 0x4F6E6C79207468652063726561746F722063616E2063616E63656C20616E2061 PUSH0 DUP3 ADD MSTORE PUSH32 0x756374696F6E0000000000000000000000000000000000000000000000000000 PUSH1 0x20 DUP3 ADD MSTORE POP JUMP JUMPDEST PUSH0 PUSH2 0x1A82 PUSH1 0x26 DUP4 PUSH2 0x15F0 JUMP JUMPDEST SWAP2 POP PUSH2 0x1A8D DUP3 PUSH2 0x1A28 JUMP JUMPDEST PUSH1 0x40 DUP3 ADD SWAP1 POP SWAP2 SWAP1 POP JUMP JUMPDEST PUSH0 PUSH1 0x20 DUP3 ADD SWAP1 POP DUP2 DUP2 SUB PUSH0 DUP4 ADD MSTORE PUSH2 0x1AAF DUP2 PUSH2 0x1A76 JUMP JUMPDEST SWAP1 POP SWAP2 SWAP1 POP JUMP JUMPDEST PUSH32 0x596F752063616E2063616E63656C206F6E6C79206F6E676F696E672061756374 PUSH0 DUP3 ADD MSTORE PUSH32 0x696F6E0000000000000000000000000000000000000000000000000000000000 PUSH1 0x20 DUP3 ADD MSTORE POP JUMP JUMPDEST PUSH0 PUSH2 0x1B10 PUSH1 0x23 DUP4 PUSH2 0x15F0 JUMP JUMPDEST SWAP2 POP PUSH2 0x1B1B DUP3 PUSH2 0x1AB6 JUMP JUMPDEST PUSH1 0x40 DUP3 ADD SWAP1 POP SWAP2 SWAP1 POP JUMP JUMPDEST PUSH0 PUSH1 0x20 DUP3 ADD SWAP1 POP DUP2 DUP2 SUB PUSH0 DUP4 ADD MSTORE PUSH2 0x1B3D DUP2 PUSH2 0x1B04 JUMP JUMPDEST SWAP1 POP SWAP2 SWAP1 POP JUMP JUMPDEST PUSH32 0x596F752063616E2063616E63656C206F6E6C79206E6F74206578706972656420 PUSH0 DUP3 ADD MSTORE PUSH32 0x61756374696F6E00000000000000000000000000000000000000000000000000 PUSH1 0x20 DUP3 ADD MSTORE POP JUMP JUMPDEST PUSH0 PUSH2 0x1B9E PUSH1 0x27 DUP4 PUSH2 0x15F0 JUMP JUMPDEST SWAP2 POP PUSH2 0x1BA9 DUP3 PUSH2 0x1B44 JUMP JUMPDEST PUSH1 0x40 DUP3 ADD SWAP1 POP SWAP2 SWAP1 POP JUMP JUMPDEST PUSH0 PUSH1 0x20 DUP3 ADD SWAP1 POP DUP2 DUP2 SUB PUSH0 DUP4 ADD MSTORE PUSH2 0x1BCB DUP2 PUSH2 0x1B92 JUMP JUMPDEST SWAP1 POP SWAP2 SWAP1 POP JUMP JUMPDEST PUSH0 DUP2 SWAP1 POP DUP2 PUSH0 MSTORE PUSH1 0x20 PUSH0 KECCAK256 SWAP1 POP SWAP2 SWAP1 POP JUMP JUMPDEST PUSH0 PUSH1 0x20 PUSH1 0x1F DUP4 ADD DIV SWAP1 POP SWAP2 SWAP1 POP JUMP JUMPDEST PUSH0 DUP3 DUP3 SHL SWAP1 POP SWAP3 SWAP2 POP POP JUMP JUMPDEST PUSH0 PUSH1 0x8 DUP4 MUL PUSH2 0x1C2E PUSH32 0xFFFFFFFFFFFFFFFFFFFFFFFFFFFFFFFFFFFFFFFFFFFFFFFFFFFFFFFFFFFFFFFF DUP3 PUSH2 0x1BF3 JUMP JUMPDEST PUSH2 0x1C38 DUP7 DUP4 PUSH2 0x1BF3 JUMP JUMPDEST SWAP6 POP DUP1 NOT DUP5 AND SWAP4 POP DUP1 DUP7 AND DUP5 OR SWAP3 POP POP POP SWAP4 SWAP3 POP POP POP JUMP JUMPDEST PUSH0 DUP2 SWAP1 POP SWAP2 SWAP1 POP JUMP JUMPDEST PUSH0 PUSH2 0x1C73 PUSH2 0x1C6E PUSH2 0x1C69 DUP5 PUSH2 0x1426 JUMP JUMPDEST PUSH2 0x1C50 JUMP JUMPDEST PUSH2 0x1426 JUMP JUMPDEST SWAP1 POP SWAP2 SWAP1 POP JUMP JUMPDEST PUSH0 DUP2 SWAP1 POP SWAP2 SWAP1 POP JUMP JUMPDEST PUSH2 0x1C8C DUP4 PUSH2 0x1C59 JUMP JUMPDEST PUSH2 0x1CA0 PUSH2 0x1C98 DUP3 PUSH2 0x1C7A JUMP JUMPDEST DUP5 DUP5 SLOAD PUSH2 0x1BFF JUMP JUMPDEST DUP3 SSTORE POP POP POP POP JUMP JUMPDEST PUSH0 SWAP1 JUMP JUMPDEST PUSH2 0x1CB4 PUSH2 0x1CA8 JUMP JUMPDEST PUSH2 0x1CBF DUP2 DUP5 DUP5 PUSH2 0x1C83 JUMP JUMPDEST POP POP POP JUMP JUMPDEST JUMPDEST DUP2 DUP2 LT ISZERO PUSH2 0x1CE2 JUMPI PUSH2 0x1CD7 PUSH0 DUP3 PUSH2 0x1CAC JUMP JUMPDEST PUSH1 0x1 DUP2 ADD SWAP1 POP PUSH2 0x1CC5 JUMP JUMPDEST POP POP JUMP JUMPDEST PUSH1 0x1F DUP3 GT ISZERO PUSH2 0x1D27 JUMPI PUSH2 0x1CF8 DUP2 PUSH2 0x1BD2 JUMP JUMPDEST PUSH2 0x1D01 DUP5 PUSH2 0x1BE4 JUMP JUMPDEST DUP2 ADD PUSH1 0x20 DUP6 LT ISZERO PUSH2 0x1D10 JUMPI DUP2 SWAP1 POP JUMPDEST PUSH2 0x1D24 PUSH2 0x1D1C DUP6 PUSH2 0x1BE4 JUMP JUMPDEST DUP4 ADD DUP3 PUSH2 0x1CC4 JUMP JUMPDEST POP POP JUMPDEST POP POP POP JUMP JUMPDEST PUSH0 DUP3 DUP3 SHR SWAP1 POP SWAP3 SWAP2 POP POP JUMP JUMPDEST PUSH0 PUSH2 0x1D47 PUSH0 NOT DUP5 PUSH1 0x8 MUL PUSH2 0x1D2C JUMP JUMPDEST NOT DUP1 DUP4 AND SWAP2 POP POP SWAP3 SWAP2 POP POP JUMP JUMPDEST PUSH0 PUSH2 0x1D5F DUP4 DUP4 PUSH2 0x1D38 JUMP JUMPDEST SWAP2 POP DUP3 PUSH1 0x2 MUL DUP3 OR SWAP1 POP SWAP3 SWAP2 POP POP JUMP JUMPDEST PUSH2 0x1D78 DUP3 PUSH2 0x15E6 JUMP JUMPDEST PUSH8 0xFFFFFFFFFFFFFFFF DUP2 GT ISZERO PUSH2 0x1D91 JUMPI PUSH2 0x1D90 PUSH2 0x1732 JUMP JUMPDEST JUMPDEST PUSH2 0x1D9B DUP3 SLOAD PUSH2 0x19F8 JUMP JUMPDEST PUSH2 0x1DA6 DUP3 DUP3 DUP6 PUSH2 0x1CE6 JUMP JUMPDEST PUSH0 PUSH1 0x20 SWAP1 POP PUSH1 0x1F DUP4 GT PUSH1 0x1 DUP2 EQ PUSH2 0x1DD7 JUMPI PUSH0 DUP5 ISZERO PUSH2 0x1DC5 JUMPI DUP3 DUP8 ADD MLOAD SWAP1 POP JUMPDEST PUSH2 0x1DCF DUP6 DUP3 PUSH2 0x1D54 JUMP JUMPDEST DUP7 SSTORE POP PUSH2 0x1E36 JUMP JUMPDEST PUSH1 0x1F NOT DUP5 AND PUSH2 0x1DE5 DUP7 PUSH2 0x1BD2 JUMP JUMPDEST PUSH0 JUMPDEST DUP3 DUP2 LT ISZERO PUSH2 0x1E0C JUMPI DUP5 DUP10 ADD MLOAD DUP3 SSTORE PUSH1 0x1 DUP3 ADD SWAP2 POP PUSH1 0x20 DUP6 ADD SWAP5 POP PUSH1 0x20 DUP2 ADD SWAP1 POP PUSH2 0x1DE7 JUMP JUMPDEST DUP7 DUP4 LT ISZERO PUSH2 0x1E29 JUMPI DUP5 DUP10 ADD MLOAD PUSH2 0x1E25 PUSH1 0x1F DUP10 AND DUP3 PUSH2 0x1D38 JUMP JUMPDEST DUP4 SSTORE POP JUMPDEST PUSH1 0x1 PUSH1 0x2 DUP9 MUL ADD DUP9 SSTORE POP POP POP JUMPDEST POP POP POP POP POP POP JUMP JUMPDEST PUSH0 PUSH2 0x1E48 DUP3 PUSH2 0x1426 JUMP JUMPDEST SWAP2 POP PUSH2 0x1E53 DUP4 PUSH2 0x1426 JUMP JUMPDEST SWAP3 POP DUP3 DUP3 MUL PUSH2 0x1E61 DUP2 PUSH2 0x1426 JUMP JUMPDEST SWAP2 POP DUP3 DUP3 DIV DUP5 EQ DUP4 ISZERO OR PUSH2 0x1E78 JUMPI PUSH2 0x1E77 PUSH2 0x18EF JUMP JUMPDEST JUMPDEST POP SWAP3 SWAP2 POP POP JUMP JUMPDEST PUSH0 PUSH1 0x60 DUP3 ADD SWAP1 POP DUP2 DUP2 SUB PUSH0 DUP4 ADD MSTORE PUSH2 0x1E97 DUP2 DUP7 PUSH2 0x161E JUMP JUMPDEST SWAP1 POP PUSH2 0x1EA6 PUSH1 0x20 DUP4 ADD DUP6 PUSH2 0x1702 JUMP JUMPDEST PUSH2 0x1EB3 PUSH1 0x40 DUP4 ADD DUP5 PUSH2 0x1702 JUMP JUMPDEST SWAP5 SWAP4 POP POP POP POP JUMP INVALID LOG2 PUSH5 0x6970667358 0x22 SLT KECCAK256 PUSH12 0xBD3C3B6F77F5743F78183220 DUP16 PUSH8 0xC99A04FB53526386 0xB5 0xC0 CALLCODE INVALID LOG2 DUP8 0xAE 0x23 DUP5 PUSH5 0x736F6C6343 STOP ADDMOD BYTE STOP CALLER "
				},
				"gasEstimates": {
					"creation": {
						"codeDepositCost": "1584200",
						"executionCost": "11667",
						"totalCost": "1595867"
					},
					"external": {
						"auctionBeneficiary(uint256)": "7155",
						"auctionDescription(uint256)": "infinite",
						"auctionExpiration(uint256)": "infinite",
						"auctionHighestBid(uint256)": "infinite",
						"auctionHighestBidder(uint256)": "7111",
						"auctionMinimumBid(uint256)": "infinite",
						"auctionState(uint256)": "7246",
						"bidOnAuction(uint256)": "infinite",
						"cancelAuction(uint256)": "infinite",
						"createNewAuction(string,uint256,uint256)": "infinite",
						"finalizeAuction(uint256)": "infinite",
						"idsOfOngoingAuctions()": "infinite"
					}
				},
				"methodIdentifiers": {
					"auctionBeneficiary(uint256)": "71e21df0",
					"auctionDescription(uint256)": "7383841a",
					"auctionExpiration(uint256)": "bfe21ada",
					"auctionHighestBid(uint256)": "bdaaf194",
					"auctionHighestBidder(uint256)": "a43b87a2",
					"auctionMinimumBid(uint256)": "d4bf3138",
					"auctionState(uint256)": "84861e93",
					"bidOnAuction(uint256)": "26b7aeea",
					"cancelAuction(uint256)": "96b5a755",
					"createNewAuction(string,uint256,uint256)": "e33a33b3",
					"finalizeAuction(uint256)": "e8083863",
					"idsOfOngoingAuctions()": "2c4261bb"
				}
			},
			"storageLayout": {
				"storage": [
					{
						"astId": 168,
						"contract": "contracts/exam-2022-07-14/exam-2022-07-14.sol:AuctionManager",
						"label": "auctions",
						"offset": 0,
						"slot": "0",
						"type": "t_array(t_struct(Auction)164_storage)dyn_storage"
					},
					{
						"astId": 171,
						"contract": "contracts/exam-2022-07-14/exam-2022-07-14.sol:AuctionManager",
						"label": "auctionsCounter",
						"offset": 0,
						"slot": "1",
						"type": "t_uint256"
					},
					{
						"astId": 174,
						"contract": "contracts/exam-2022-07-14/exam-2022-07-14.sol:AuctionManager",
						"label": "ongoingAuctionsCounter",
						"offset": 0,
						"slot": "2",
						"type": "t_uint256"
					}
				],
				"types": {
					"t_address": {
						"encoding": "inplace",
						"label": "address",
						"numberOfBytes": "20"
					},
					"t_address_payable": {
						"encoding": "inplace",
						"label": "address payable",
						"numberOfBytes": "20"
					},
					"t_array(t_address)dyn_storage": {
						"base": "t_address",
						"encoding": "dynamic_array",
						"label": "address[]",
						"numberOfBytes": "32"
					},
					"t_array(t_struct(Auction)164_storage)dyn_storage": {
						"base": "t_struct(Auction)164_storage",
						"encoding": "dynamic_array",
						"label": "struct AuctionManager.Auction[]",
						"numberOfBytes": "32"
					},
					"t_enum(AuctionState)6": {
						"encoding": "inplace",
						"label": "enum AuctionManagerSpecs.AuctionState",
						"numberOfBytes": "1"
					},
					"t_mapping(t_address,t_uint256)": {
						"encoding": "mapping",
						"key": "t_address",
						"label": "mapping(address => uint256)",
						"numberOfBytes": "32",
						"value": "t_uint256"
					},
					"t_string_storage": {
						"encoding": "bytes",
						"label": "string",
						"numberOfBytes": "32"
					},
					"t_struct(Auction)164_storage": {
						"encoding": "inplace",
						"label": "struct AuctionManager.Auction",
						"members": [
							{
								"astId": 143,
								"contract": "contracts/exam-2022-07-14/exam-2022-07-14.sol:AuctionManager",
								"label": "beneficiary",
								"offset": 0,
								"slot": "0",
								"type": "t_address_payable"
							},
							{
								"astId": 145,
								"contract": "contracts/exam-2022-07-14/exam-2022-07-14.sol:AuctionManager",
								"label": "description",
								"offset": 0,
								"slot": "1",
								"type": "t_string_storage"
							},
							{
								"astId": 147,
								"contract": "contracts/exam-2022-07-14/exam-2022-07-14.sol:AuctionManager",
								"label": "minimumBid",
								"offset": 0,
								"slot": "2",
								"type": "t_uint256"
							},
							{
								"astId": 149,
								"contract": "contracts/exam-2022-07-14/exam-2022-07-14.sol:AuctionManager",
								"label": "expiration",
								"offset": 0,
								"slot": "3",
								"type": "t_uint256"
							},
							{
								"astId": 152,
								"contract": "contracts/exam-2022-07-14/exam-2022-07-14.sol:AuctionManager",
								"label": "state",
								"offset": 0,
								"slot": "4",
								"type": "t_enum(AuctionState)6"
							},
							{
								"astId": 155,
								"contract": "contracts/exam-2022-07-14/exam-2022-07-14.sol:AuctionManager",
								"label": "bidders",
								"offset": 0,
								"slot": "5",
								"type": "t_array(t_address)dyn_storage"
							},
							{
								"astId": 159,
								"contract": "contracts/exam-2022-07-14/exam-2022-07-14.sol:AuctionManager",
								"label": "bids",
								"offset": 0,
								"slot": "6",
								"type": "t_mapping(t_address,t_uint256)"
							},
							{
								"astId": 161,
								"contract": "contracts/exam-2022-07-14/exam-2022-07-14.sol:AuctionManager",
								"label": "highestBid",
								"offset": 0,
								"slot": "7",
								"type": "t_uint256"
							},
							{
								"astId": 163,
								"contract": "contracts/exam-2022-07-14/exam-2022-07-14.sol:AuctionManager",
								"label": "highestBidder",
								"offset": 0,
								"slot": "8",
								"type": "t_address"
							}
						],
						"numberOfBytes": "288"
					},
					"t_uint256": {
						"encoding": "inplace",
						"label": "uint256",
						"numberOfBytes": "32"
					}
				}
			},
			"userdoc": {
				"kind": "user",
				"methods": {},
				"version": 1
			}
		}
	}
}