{
	"data": {
		"bytecode": {
			"linkReferences": {},
			"object": "60806040525f6001555f6002553480156016575f80fd5b50611ef1806100245f395ff3fe6080604052600436106100a6575f3560e01c8063a43b87a211610063578063a43b87a2146101e0578063bdaaf1941461021c578063bfe21ada14610258578063d4bf313814610294578063e33a33b3146102d0578063e80838631461030c576100a6565b806326b7aeea146100aa5780632c4261bb146100da57806371e21df0146101045780637383841a1461014057806384861e931461017c57806396b5a755146101b8575b5f80fd5b6100c460048036038101906100bf9190611459565b610334565b6040516100d1919061149e565b60405180910390f35b3480156100e5575f80fd5b506100ee6106b2565b6040516100fb919061156e565b60405180910390f35b34801561010f575f80fd5b5061012a60048036038101906101259190611459565b6107aa565b60405161013791906115cd565b60405180910390f35b34801561014b575f80fd5b5061016660048036038101906101619190611459565b610835565b6040516101739190611656565b60405180910390f35b348015610187575f80fd5b506101a2600480360381019061019d9190611459565b610929565b6040516101af91906116e9565b60405180910390f35b3480156101c3575f80fd5b506101de60048036038101906101d99190611459565b6109a2565b005b3480156101eb575f80fd5b5061020660048036038101906102019190611459565b610caa565b60405161021391906115cd565b60405180910390f35b348015610227575f80fd5b50610242600480360381019061023d9190611459565b610d36565b60405161024f9190611711565b60405180910390f35b348015610263575f80fd5b5061027e60048036038101906102799190611459565b610da3565b60405161028b9190611711565b60405180910390f35b34801561029f575f80fd5b506102ba60048036038101906102b59190611459565b610e10565b6040516102c79190611711565b60405180910390f35b3480156102db575f80fd5b506102f660048036038101906102f19190611856565b610e7d565b6040516103039190611711565b60405180910390f35b348015610317575f80fd5b50610332600480360381019061032d9190611459565b611007565b005b5f816001548110610371576040517f94c1121f00000000000000000000000000000000000000000000000000000000815260040160405180910390fd5b5f808481548110610385576103846118c2565b5b905f5260205f20906009020190505f60038111156103a6576103a5611676565b5b816004015f9054906101000a900460ff1660038111156103c9576103c8611676565b5b1461041b57806004015f9054906101000a900460ff166040517f012991dc00000000000000000000000000000000000000000000000000000000815260040161041291906116e9565b60405180910390fd5b80600201543410156104685780600201546040517f01dea4d400000000000000000000000000000000000000000000000000000000815260040161045f9190611711565b60405180910390fd5b5f816006015f3373ffffffffffffffffffffffffffffffffffffffff1673ffffffffffffffffffffffffffffffffffffffff1681526020019081526020015f205403610511578060050133908060018154018082558091505060019003905f5260205f20015f9091909190916101000a81548173ffffffffffffffffffffffffffffffffffffffff021916908373ffffffffffffffffffffffffffffffffffffffff1602179055505b34816006015f3373ffffffffffffffffffffffffffffffffffffffff1673ffffffffffffffffffffffffffffffffffffffff1681526020019081526020015f205f82825461055f919061191c565b925050819055508060070154816006015f3373ffffffffffffffffffffffffffffffffffffffff1673ffffffffffffffffffffffffffffffffffffffff1681526020019081526020015f205411156106a757806006015f3373ffffffffffffffffffffffffffffffffffffffff1673ffffffffffffffffffffffffffffffffffffffff1681526020019081526020015f2054816007018190555033816008015f6101000a81548173ffffffffffffffffffffffffffffffffffffffff021916908373ffffffffffffffffffffffffffffffffffffffff1602179055507ff13cb67d4c8841d2c893b242b7d61382d8e3bb53c5c58a8584106e74e8c4721b84826008015f9054906101000a900473ffffffffffffffffffffffffffffffffffffffff1683600701546040516106959392919061194f565b60405180910390a160019250506106ac565b5f9250505b50919050565b606060025467ffffffffffffffff8111156106d0576106cf611732565b5b6040519080825280602002602001820160405280156106fe5781602001602082028036833780820191505090505b5090505f805b5f805490508110156107a5575f600381111561072357610722611676565b5b5f8281548110610736576107356118c2565b5b905f5260205f2090600902016004015f9054906101000a900460ff16600381111561076457610763611676565b5b03610798578083838151811061077d5761077c6118c2565b5b602002602001018181525050818061079490611984565b9250505b8080600101915050610704565b505090565b5f8160015481106107e7576040517f94c1121f00000000000000000000000000000000000000000000000000000000815260040160405180910390fd5b5f8084815481106107fb576107fa6118c2565b5b905f5260205f2090600902019050805f015f9054906101000a900473ffffffffffffffffffffffffffffffffffffffff1692505050919050565b6060816001548110610873576040517f94c1121f00000000000000000000000000000000000000000000000000000000815260040160405180910390fd5b5f808481548110610887576108866118c2565b5b905f5260205f20906009020190508060010180546108a4906119f8565b80601f01602080910402602001604051908101604052809291908181526020018280546108d0906119f8565b801561091b5780601f106108f25761010080835404028352916020019161091b565b820191905f5260205f20905b8154815290600101906020018083116108fe57829003601f168201915b505050505092505050919050565b5f816001548110610966576040517f94c1121f00000000000000000000000000000000000000000000000000000000815260040160405180910390fd5b5f80848154811061097a576109796118c2565b5b905f5260205f2090600902019050806004015f9054906101000a900460ff1692505050919050565b8060015481106109de576040517f94c1121f00000000000000000000000000000000000000000000000000000000815260040160405180910390fd5b5f8083815481106109f2576109f16118c2565b5b905f5260205f2090600902019050805f015f9054906101000a900473ffffffffffffffffffffffffffffffffffffffff1673ffffffffffffffffffffffffffffffffffffffff163373ffffffffffffffffffffffffffffffffffffffff1614610a90576040517f08c379a0000000000000000000000000000000000000000000000000000000008152600401610a8790611a98565b60405180910390fd5b5f6003811115610aa357610aa2611676565b5b816004015f9054906101000a900460ff166003811115610ac657610ac5611676565b5b14610b06576040517f08c379a0000000000000000000000000000000000000000000000000000000008152600401610afd90611b26565b60405180910390fd5b42816003015411610b4c576040517f08c379a0000000000000000000000000000000000000000000000000000000008152600401610b4390611bb4565b60405180910390fd5b6003816004015f6101000a81548160ff02191690836003811115610b7357610b72611676565b5b02179055505f5b8160050180549050811015610ca4575f826005018281548110610ba057610b9f6118c2565b5b905f5260205f20015f9054906101000a900473ffffffffffffffffffffffffffffffffffffffff1690505f836006015f8373ffffffffffffffffffffffffffffffffffffffff1673ffffffffffffffffffffffffffffffffffffffff1681526020019081526020015f205490505f846006015f8473ffffffffffffffffffffffffffffffffffffffff1673ffffffffffffffffffffffffffffffffffffffff1681526020019081526020015f20819055508173ffffffffffffffffffffffffffffffffffffffff166108fc8290811502906040515f60405180830381858888f19350505050158015610c94573d5f803e3d5ffd5b5050508080600101915050610b7a565b50505050565b5f816001548110610ce7576040517f94c1121f00000000000000000000000000000000000000000000000000000000815260040160405180910390fd5b5f808481548110610cfb57610cfa6118c2565b5b905f5260205f2090600902019050806008015f9054906101000a900473ffffffffffffffffffffffffffffffffffffffff1692505050919050565b5f816001548110610d73576040517f94c1121f00000000000000000000000000000000000000000000000000000000815260040160405180910390fd5b5f808481548110610d8757610d866118c2565b5b905f5260205f2090600902019050806007015492505050919050565b5f816001548110610de0576040517f94c1121f00000000000000000000000000000000000000000000000000000000815260040160405180910390fd5b5f808481548110610df457610df36118c2565b5b905f5260205f2090600902019050806003015492505050919050565b5f816001548110610e4d576040517f94c1121f00000000000000000000000000000000000000000000000000000000815260040160405180910390fd5b5f808481548110610e6157610e606118c2565b5b905f5260205f2090600902019050806002015492505050919050565b5f805f60018160018154018082558091505003905f5260205f209060090201905033815f015f6101000a81548173ffffffffffffffffffffffffffffffffffffffff021916908373ffffffffffffffffffffffffffffffffffffffff16021790555084816001019081610ef09190611d6f565b50838160020181905550610e1083610f089190611e3e565b42610f13919061191c565b81600301819055505f816004015f6101000a81548160ff02191690836003811115610f4157610f40611676565b5b02179055505f81600701819055505f816008015f6101000a81548173ffffffffffffffffffffffffffffffffffffffff021916908373ffffffffffffffffffffffffffffffffffffffff1602179055507fcf46d2d7c26c0b0a6796544f9c85c0c2d515717cd942218815045650a44eb52885858360030154604051610fc893929190611e7f565b60405180910390a160025f815480929190610fe290611984565b919050555060015f815480929190610ff990611984565b919050559150509392505050565b806001548110611043576040517f94c1121f00000000000000000000000000000000000000000000000000000000815260040160405180910390fd5b5f808381548110611057576110566118c2565b5b905f5260205f20906009020190505f600381111561107857611077611676565b5b816004015f9054906101000a900460ff16600381111561109b5761109a611676565b5b146110d2576040517fcf95da3f00000000000000000000000000000000000000000000000000000000815260040160405180910390fd5b806003015442101561111f5780600301546040517f420f57a20000000000000000000000000000000000000000000000000000000081526004016111169190611711565b60405180910390fd5b5f816007015403611193576002816004015f6101000a81548160ff0219169083600381111561115157611150611676565b5b02179055507f8f69798335a031208711bd85f5ecdbba5586c28945fe94862229319ef033d7ca836040516111859190611711565b60405180910390a150611411565b6001816004015f6101000a81548160ff021916908360038111156111ba576111b9611676565b5b02179055505f5b8160050180549050811015611342575f8260050182815481106111e7576111e66118c2565b5b905f5260205f20015f9054906101000a900473ffffffffffffffffffffffffffffffffffffffff1690505f836006015f8373ffffffffffffffffffffffffffffffffffffffff1673ffffffffffffffffffffffffffffffffffffffff1681526020019081526020015f205490505f846006015f8473ffffffffffffffffffffffffffffffffffffffff1673ffffffffffffffffffffffffffffffffffffffff1681526020019081526020015f2081905550836008015f9054906101000a900473ffffffffffffffffffffffffffffffffffffffff1673ffffffffffffffffffffffffffffffffffffffff168273ffffffffffffffffffffffffffffffffffffffff1614611333578173ffffffffffffffffffffffffffffffffffffffff166108fc8290811502906040515f60405180830381858888f19350505050158015611331573d5f803e3d5ffd5b505b505080806001019150506111c1565b50805f015f9054906101000a900473ffffffffffffffffffffffffffffffffffffffff1673ffffffffffffffffffffffffffffffffffffffff166108fc826007015490811502906040515f60405180830381858888f193505050501580156113ac573d5f803e3d5ffd5b507fab41e3f06042d2db81478807ab10a02315433d6f63128f9e25858e37e2ac7dfe83826008015f9054906101000a900473ffffffffffffffffffffffffffffffffffffffff1683600701546040516114079392919061194f565b60405180910390a1505b5050565b5f604051905090565b5f80fd5b5f80fd5b5f819050919050565b61143881611426565b8114611442575f80fd5b50565b5f813590506114538161142f565b92915050565b5f6020828403121561146e5761146d61141e565b5b5f61147b84828501611445565b91505092915050565b5f8115159050919050565b61149881611484565b82525050565b5f6020820190506114b15f83018461148f565b92915050565b5f81519050919050565b5f82825260208201905092915050565b5f819050602082019050919050565b6114e981611426565b82525050565b5f6114fa83836114e0565b60208301905092915050565b5f602082019050919050565b5f61151c826114b7565b61152681856114c1565b9350611531836114d1565b805f5b8381101561156157815161154888826114ef565b975061155383611506565b925050600181019050611534565b5085935050505092915050565b5f6020820190508181035f8301526115868184611512565b905092915050565b5f73ffffffffffffffffffffffffffffffffffffffff82169050919050565b5f6115b78261158e565b9050919050565b6115c7816115ad565b82525050565b5f6020820190506115e05f8301846115be565b92915050565b5f81519050919050565b5f82825260208201905092915050565b8281835e5f83830152505050565b5f601f19601f8301169050919050565b5f611628826115e6565b61163281856115f0565b9350611642818560208601611600565b61164b8161160e565b840191505092915050565b5f6020820190508181035f83015261166e818461161e565b905092915050565b7f4e487b71000000000000000000000000000000000000000000000000000000005f52602160045260245ffd5b600481106116b4576116b3611676565b5b50565b5f8190506116c4826116a3565b919050565b5f6116d3826116b7565b9050919050565b6116e3816116c9565b82525050565b5f6020820190506116fc5f8301846116da565b92915050565b61170b81611426565b82525050565b5f6020820190506117245f830184611702565b92915050565b5f80fd5b5f80fd5b7f4e487b71000000000000000000000000000000000000000000000000000000005f52604160045260245ffd5b6117688261160e565b810181811067ffffffffffffffff8211171561178757611786611732565b5b80604052505050565b5f611799611415565b90506117a5828261175f565b919050565b5f67ffffffffffffffff8211156117c4576117c3611732565b5b6117cd8261160e565b9050602081019050919050565b828183375f83830152505050565b5f6117fa6117f5846117aa565b611790565b9050828152602081018484840111156118165761181561172e565b5b6118218482856117da565b509392505050565b5f82601f83011261183d5761183c61172a565b5b813561184d8482602086016117e8565b91505092915050565b5f805f6060848603121561186d5761186c61141e565b5b5f84013567ffffffffffffffff81111561188a57611889611422565b5b61189686828701611829565b93505060206118a786828701611445565b92505060406118b886828701611445565b9150509250925092565b7f4e487b71000000000000000000000000000000000000000000000000000000005f52603260045260245ffd5b7f4e487b71000000000000000000000000000000000000000000000000000000005f52601160045260245ffd5b5f61192682611426565b915061193183611426565b9250828201905080821115611949576119486118ef565b5b92915050565b5f6060820190506119625f830186611702565b61196f60208301856115be565b61197c6040830184611702565b949350505050565b5f61198e82611426565b91507fffffffffffffffffffffffffffffffffffffffffffffffffffffffffffffffff82036119c0576119bf6118ef565b5b600182019050919050565b7f4e487b71000000000000000000000000000000000000000000000000000000005f52602260045260245ffd5b5f6002820490506001821680611a0f57607f821691505b602082108103611a2257611a216119cb565b5b50919050565b7f4f6e6c79207468652063726561746f722063616e2063616e63656c20616e20615f8201527f756374696f6e0000000000000000000000000000000000000000000000000000602082015250565b5f611a826026836115f0565b9150611a8d82611a28565b604082019050919050565b5f6020820190508181035f830152611aaf81611a76565b9050919050565b7f596f752063616e2063616e63656c206f6e6c79206f6e676f696e6720617563745f8201527f696f6e0000000000000000000000000000000000000000000000000000000000602082015250565b5f611b106023836115f0565b9150611b1b82611ab6565b604082019050919050565b5f6020820190508181035f830152611b3d81611b04565b9050919050565b7f596f752063616e2063616e63656c206f6e6c79206e6f742065787069726564205f8201527f61756374696f6e00000000000000000000000000000000000000000000000000602082015250565b5f611b9e6027836115f0565b9150611ba982611b44565b604082019050919050565b5f6020820190508181035f830152611bcb81611b92565b9050919050565b5f819050815f5260205f209050919050565b5f6020601f8301049050919050565b5f82821b905092915050565b5f60088302611c2e7fffffffffffffffffffffffffffffffffffffffffffffffffffffffffffffffff82611bf3565b611c388683611bf3565b95508019841693508086168417925050509392505050565b5f819050919050565b5f611c73611c6e611c6984611426565b611c50565b611426565b9050919050565b5f819050919050565b611c8c83611c59565b611ca0611c9882611c7a565b848454611bff565b825550505050565b5f90565b611cb4611ca8565b611cbf818484611c83565b505050565b5b81811015611ce257611cd75f82611cac565b600181019050611cc5565b5050565b601f821115611d2757611cf881611bd2565b611d0184611be4565b81016020851015611d10578190505b611d24611d1c85611be4565b830182611cc4565b50505b505050565b5f82821c905092915050565b5f611d475f1984600802611d2c565b1980831691505092915050565b5f611d5f8383611d38565b9150826002028217905092915050565b611d78826115e6565b67ffffffffffffffff811115611d9157611d90611732565b5b611d9b82546119f8565b611da6828285611ce6565b5f60209050601f831160018114611dd7575f8415611dc5578287015190505b611dcf8582611d54565b865550611e36565b601f198416611de586611bd2565b5f5b82811015611e0c57848901518255600182019150602085019450602081019050611de7565b86831015611e295784890151611e25601f891682611d38565b8355505b6001600288020188555050505b505050505050565b5f611e4882611426565b9150611e5383611426565b9250828202611e6181611426565b91508282048414831517611e7857611e776118ef565b5b5092915050565b5f6060820190508181035f830152611e97818661161e565b9050611ea66020830185611702565b611eb36040830184611702565b94935050505056fea26469706673582212206bbd3c3b6f77f5743f781832208f67c99a04fb53526386b5c0f2fea287ae238464736f6c634300081a0033",
			"opcodes": "PUSH1 0x80 PUSH1 0x40 MSTORE PUSH0 PUSH1 0x1 SSTORE PUSH0 PUSH1 0x2 SSTORE CALLVALUE DUP1 ISZERO PUSH1 0x16 JUMPI PUSH0 DUP1 REVERT JUMPDEST POP PUSH2 0x1EF1 DUP1 PUSH2 0x24 PUSH0 CODECOPY PUSH0 RETURN INVALID PUSH1 0x80 PUSH1 0x40 MSTORE PUSH1 0x4 CALLDATASIZE LT PUSH2 0xA6 JUMPI PUSH0 CALLDATALOAD PUSH1 0xE0 SHR DUP1 PUSH4 0xA43B87A2 GT PUSH2 0x63 JUMPI DUP1 PUSH4 0xA43B87A2 EQ PUSH2 0x1E0 JUMPI DUP1 PUSH4 0xBDAAF194 EQ PUSH2 0x21C JUMPI DUP1 PUSH4 0xBFE21ADA EQ PUSH2 0x258 JUMPI DUP1 PUSH4 0xD4BF3138 EQ PUSH2 0x294 JUMPI DUP1 PUSH4 0xE33A33B3 EQ PUSH2 0x2D0 JUMPI DUP1 PUSH4 0xE8083863 EQ PUSH2 0x30C JUMPI PUSH2 0xA6 JUMP JUMPDEST DUP1 PUSH4 0x26B7AEEA EQ PUSH2 0xAA JUMPI DUP1 PUSH4 0x2C4261BB EQ PUSH2 0xDA JUMPI DUP1 PUSH4 0x71E21DF0 EQ PUSH2 0x104 JUMPI DUP1 PUSH4 0x7383841A EQ PUSH2 0x140 JUMPI DUP1 PUSH4 0x84861E93 EQ PUSH2 0x17C JUMPI DUP1 PUSH4 0x96B5A755 EQ PUSH2 0x1B8 JUMPI JUMPDEST PUSH0 DUP1 REVERT JUMPDEST PUSH2 0xC4 PUSH1 0x4 DUP1 CALLDATASIZE SUB DUP2 ADD SWAP1 PUSH2 0xBF SWAP2 SWAP1 PUSH2 0x1459 JUMP JUMPDEST PUSH2 0x334 JUMP JUMPDEST PUSH1 0x40 MLOAD PUSH2 0xD1 SWAP2 SWAP1 PUSH2 0x149E JUMP JUMPDEST PUSH1 0x40 MLOAD DUP1 SWAP2 SUB SWAP1 RETURN JUMPDEST CALLVALUE DUP1 ISZERO PUSH2 0xE5 JUMPI PUSH0 DUP1 REVERT JUMPDEST POP PUSH2 0xEE PUSH2 0x6B2 JUMP JUMPDEST PUSH1 0x40 MLOAD PUSH2 0xFB SWAP2 SWAP1 PUSH2 0x156E JUMP JUMPDEST PUSH1 0x40 MLOAD DUP1 SWAP2 SUB SWAP1 RETURN JUMPDEST CALLVALUE DUP1 ISZERO PUSH2 0x10F JUMPI PUSH0 DUP1 REVERT JUMPDEST POP PUSH2 0x12A PUSH1 0x4 DUP1 CALLDATASIZE SUB DUP2 ADD SWAP1 PUSH2 0x125 SWAP2 SWAP1 PUSH2 0x1459 JUMP JUMPDEST PUSH2 0x7AA JUMP JUMPDEST PUSH1 0x40 MLOAD PUSH2 0x137 SWAP2 SWAP1 PUSH2 0x15CD JUMP JUMPDEST PUSH1 0x40 MLOAD DUP1 SWAP2 SUB SWAP1 RETURN JUMPDEST CALLVALUE DUP1 ISZERO PUSH2 0x14B JUMPI PUSH0 DUP1 REVERT JUMPDEST POP PUSH2 0x166 PUSH1 0x4 DUP1 CALLDATASIZE SUB DUP2 ADD SWAP1 PUSH2 0x161 SWAP2 SWAP1 PUSH2 0x1459 JUMP JUMPDEST PUSH2 0x835 JUMP JUMPDEST PUSH1 0x40 MLOAD PUSH2 0x173 SWAP2 SWAP1 PUSH2 0x1656 JUMP JUMPDEST PUSH1 0x40 MLOAD DUP1 SWAP2 SUB SWAP1 RETURN JUMPDEST CALLVALUE DUP1 ISZERO PUSH2 0x187 JUMPI PUSH0 DUP1 REVERT JUMPDEST POP PUSH2 0x1A2 PUSH1 0x4 DUP1 CALLDATASIZE SUB DUP2 ADD SWAP1 PUSH2 0x19D SWAP2 SWAP1 PUSH2 0x1459 JUMP JUMPDEST PUSH2 0x929 JUMP JUMPDEST PUSH1 0x40 MLOAD PUSH2 0x1AF SWAP2 SWAP1 PUSH2 0x16E9 JUMP JUMPDEST PUSH1 0x40 MLOAD DUP1 SWAP2 SUB SWAP1 RETURN JUMPDEST CALLVALUE DUP1 ISZERO PUSH2 0x1C3 JUMPI PUSH0 DUP1 REVERT JUMPDEST POP PUSH2 0x1DE PUSH1 0x4 DUP1 CALLDATASIZE SUB DUP2 ADD SWAP1 PUSH2 0x1D9 SWAP2 SWAP1 PUSH2 0x1459 JUMP JUMPDEST PUSH2 0x9A2 JUMP JUMPDEST STOP JUMPDEST CALLVALUE DUP1 ISZERO PUSH2 0x1EB JUMPI PUSH0 DUP1 REVERT JUMPDEST POP PUSH2 0x206 PUSH1 0x4 DUP1 CALLDATASIZE SUB DUP2 ADD SWAP1 PUSH2 0x201 SWAP2 SWAP1 PUSH2 0x1459 JUMP JUMPDEST PUSH2 0xCAA JUMP JUMPDEST PUSH1 0x40 MLOAD PUSH2 0x213 SWAP2 SWAP1 PUSH2 0x15CD JUMP JUMPDEST PUSH1 0x40 MLOAD DUP1 SWAP2 SUB SWAP1 RETURN JUMPDEST CALLVALUE DUP1 ISZERO PUSH2 0x227 JUMPI PUSH0 DUP1 REVERT JUMPDEST POP PUSH2 0x242 PUSH1 0x4 DUP1 CALLDATASIZE SUB DUP2 ADD SWAP1 PUSH2 0x23D SWAP2 SWAP1 PUSH2 0x1459 JUMP JUMPDEST PUSH2 0xD36 JUMP JUMPDEST PUSH1 0x40 MLOAD PUSH2 0x24F SWAP2 SWAP1 PUSH2 0x1711 JUMP JUMPDEST PUSH1 0x40 MLOAD DUP1 SWAP2 SUB SWAP1 RETURN JUMPDEST CALLVALUE DUP1 ISZERO PUSH2 0x263 JUMPI PUSH0 DUP1 REVERT JUMPDEST POP PUSH2 0x27E PUSH1 0x4 DUP1 CALLDATASIZE SUB DUP2 ADD SWAP1 PUSH2 0x279 SWAP2 SWAP1 PUSH2 0x1459 JUMP JUMPDEST PUSH2 0xDA3 JUMP JUMPDEST PUSH1 0x40 MLOAD PUSH2 0x28B SWAP2 SWAP1 PUSH2 0x1711 JUMP JUMPDEST PUSH1 0x40 MLOAD DUP1 SWAP2 SUB SWAP1 RETURN JUMPDEST CALLVALUE DUP1 ISZERO PUSH2 0x29F JUMPI PUSH0 DUP1 REVERT JUMPDEST POP PUSH2 0x2BA PUSH1 0x4 DUP1 CALLDATASIZE SUB DUP2 ADD SWAP1 PUSH2 0x2B5 SWAP2 SWAP1 PUSH2 0x1459 JUMP JUMPDEST PUSH2 0xE10 JUMP JUMPDEST PUSH1 0x40 MLOAD PUSH2 0x2C7 SWAP2 SWAP1 PUSH2 0x1711 JUMP JUMPDEST PUSH1 0x40 MLOAD DUP1 SWAP2 SUB SWAP1 RETURN JUMPDEST CALLVALUE DUP1 ISZERO PUSH2 0x2DB JUMPI PUSH0 DUP1 REVERT JUMPDEST POP PUSH2 0x2F6 PUSH1 0x4 DUP1 CALLDATASIZE SUB DUP2 ADD SWAP1 PUSH2 0x2F1 SWAP2 SWAP1 PUSH2 0x1856 JUMP JUMPDEST PUSH2 0xE7D JUMP JUMPDEST PUSH1 0x40 MLOAD PUSH2 0x303 SWAP2 SWAP1 PUSH2 0x1711 JUMP JUMPDEST PUSH1 0x40 MLOAD DUP1 SWAP2 SUB SWAP1 RETURN JUMPDEST CALLVALUE DUP1 ISZERO PUSH2 0x317 JUMPI PUSH0 DUP1 REVERT JUMPDEST POP PUSH2 0x332 PUSH1 0x4 DUP1 CALLDATASIZE SUB DUP2 ADD SWAP1 PUSH2 0x32D SWAP2 SWAP1 PUSH2 0x1459 JUMP JUMPDEST PUSH2 0x1007 JUMP JUMPDEST STOP JUMPDEST PUSH0 DUP2 PUSH1 0x1 SLOAD DUP2 LT PUSH2 0x371 JUMPI PUSH1 0x40 MLOAD PUSH32 0x94C1121F00000000000000000000000000000000000000000000000000000000 DUP2 MSTORE PUSH1 0x4 ADD PUSH1 0x40 MLOAD DUP1 SWAP2 SUB SWAP1 REVERT JUMPDEST PUSH0 DUP1 DUP5 DUP2 SLOAD DUP2 LT PUSH2 0x385 JUMPI PUSH2 0x384 PUSH2 0x18C2 JUMP JUMPDEST JUMPDEST SWAP1 PUSH0 MSTORE PUSH1 0x20 PUSH0 KECCAK256 SWAP1 PUSH1 0x9 MUL ADD SWAP1 POP PUSH0 PUSH1 0x3 DUP2 GT ISZERO PUSH2 0x3A6 JUMPI PUSH2 0x3A5 PUSH2 0x1676 JUMP JUMPDEST JUMPDEST DUP2 PUSH1 0x4 ADD PUSH0 SWAP1 SLOAD SWAP1 PUSH2 0x100 EXP SWAP1 DIV PUSH1 0xFF AND PUSH1 0x3 DUP2 GT ISZERO PUSH2 0x3C9 JUMPI PUSH2 0x3C8 PUSH2 0x1676 JUMP JUMPDEST JUMPDEST EQ PUSH2 0x41B JUMPI DUP1 PUSH1 0x4 ADD PUSH0 SWAP1 SLOAD SWAP1 PUSH2 0x100 EXP SWAP1 DIV PUSH1 0xFF AND PUSH1 0x40 MLOAD PUSH32 0x12991DC00000000000000000000000000000000000000000000000000000000 DUP2 MSTORE PUSH1 0x4 ADD PUSH2 0x412 SWAP2 SWAP1 PUSH2 0x16E9 JUMP JUMPDEST PUSH1 0x40 MLOAD DUP1 SWAP2 SUB SWAP1 REVERT JUMPDEST DUP1 PUSH1 0x2 ADD SLOAD CALLVALUE LT ISZERO PUSH2 0x468 JUMPI DUP1 PUSH1 0x2 ADD SLOAD PUSH1 0x40 MLOAD PUSH32 0x1DEA4D400000000000000000000000000000000000000000000000000000000 DUP2 MSTORE PUSH1 0x4 ADD PUSH2 0x45F SWAP2 SWAP1 PUSH2 0x1711 JUMP JUMPDEST PUSH1 0x40 MLOAD DUP1 SWAP2 SUB SWAP1 REVERT JUMPDEST PUSH0 DUP2 PUSH1 0x6 ADD PUSH0 CALLER PUSH20 0xFFFFFFFFFFFFFFFFFFFFFFFFFFFFFFFFFFFFFFFF AND PUSH20 0xFFFFFFFFFFFFFFFFFFFFFFFFFFFFFFFFFFFFFFFF AND DUP2 MSTORE PUSH1 0x20 ADD SWAP1 DUP2 MSTORE PUSH1 0x20 ADD PUSH0 KECCAK256 SLOAD SUB PUSH2 0x511 JUMPI DUP1 PUSH1 0x5 ADD CALLER SWAP1 DUP1 PUSH1 0x1 DUP2 SLOAD ADD DUP1 DUP3 SSTORE DUP1 SWAP2 POP POP PUSH1 0x1 SWAP1 SUB SWAP1 PUSH0 MSTORE PUSH1 0x20 PUSH0 KECCAK256 ADD PUSH0 SWAP1 SWAP2 SWAP1 SWAP2 SWAP1 SWAP2 PUSH2 0x100 EXP DUP2 SLOAD DUP2 PUSH20 0xFFFFFFFFFFFFFFFFFFFFFFFFFFFFFFFFFFFFFFFF MUL NOT AND SWAP1 DUP4 PUSH20 0xFFFFFFFFFFFFFFFFFFFFFFFFFFFFFFFFFFFFFFFF AND MUL OR SWAP1 SSTORE POP JUMPDEST CALLVALUE DUP2 PUSH1 0x6 ADD PUSH0 CALLER PUSH20 0xFFFFFFFFFFFFFFFFFFFFFFFFFFFFFFFFFFFFFFFF AND PUSH20 0xFFFFFFFFFFFFFFFFFFFFFFFFFFFFFFFFFFFFFFFF AND DUP2 MSTORE PUSH1 0x20 ADD SWAP1 DUP2 MSTORE PUSH1 0x20 ADD PUSH0 KECCAK256 PUSH0 DUP3 DUP3 SLOAD PUSH2 0x55F SWAP2 SWAP1 PUSH2 0x191C JUMP JUMPDEST SWAP3 POP POP DUP2 SWAP1 SSTORE POP DUP1 PUSH1 0x7 ADD SLOAD DUP2 PUSH1 0x6 ADD PUSH0 CALLER PUSH20 0xFFFFFFFFFFFFFFFFFFFFFFFFFFFFFFFFFFFFFFFF AND PUSH20 0xFFFFFFFFFFFFFFFFFFFFFFFFFFFFFFFFFFFFFFFF AND DUP2 MSTORE PUSH1 0x20 ADD SWAP1 DUP2 MSTORE PUSH1 0x20 ADD PUSH0 KECCAK256 SLOAD GT ISZERO PUSH2 0x6A7 JUMPI DUP1 PUSH1 0x6 ADD PUSH0 CALLER PUSH20 0xFFFFFFFFFFFFFFFFFFFFFFFFFFFFFFFFFFFFFFFF AND PUSH20 0xFFFFFFFFFFFFFFFFFFFFFFFFFFFFFFFFFFFFFFFF AND DUP2 MSTORE PUSH1 0x20 ADD SWAP1 DUP2 MSTORE PUSH1 0x20 ADD PUSH0 KECCAK256 SLOAD DUP2 PUSH1 0x7 ADD DUP2 SWAP1 SSTORE POP CALLER DUP2 PUSH1 0x8 ADD PUSH0 PUSH2 0x100 EXP DUP2 SLOAD DUP2 PUSH20 0xFFFFFFFFFFFFFFFFFFFFFFFFFFFFFFFFFFFFFFFF MUL NOT AND SWAP1 DUP4 PUSH20 0xFFFFFFFFFFFFFFFFFFFFFFFFFFFFFFFFFFFFFFFF AND MUL OR SWAP1 SSTORE POP PUSH32 0xF13CB67D4C8841D2C893B242B7D61382D8E3BB53C5C58A8584106E74E8C4721B DUP5 DUP3 PUSH1 0x8 ADD PUSH0 SWAP1 SLOAD SWAP1 PUSH2 0x100 EXP SWAP1 DIV PUSH20 0xFFFFFFFFFFFFFFFFFFFFFFFFFFFFFFFFFFFFFFFF AND DUP4 PUSH1 0x7 ADD SLOAD PUSH1 0x40 MLOAD PUSH2 0x695 SWAP4 SWAP3 SWAP2 SWAP1 PUSH2 0x194F JUMP JUMPDEST PUSH1 0x40 MLOAD DUP1 SWAP2 SUB SWAP1 LOG1 PUSH1 0x1 SWAP3 POP POP PUSH2 0x6AC JUMP JUMPDEST PUSH0 SWAP3 POP POP JUMPDEST POP SWAP2 SWAP1 POP JUMP JUMPDEST PUSH1 0x60 PUSH1 0x2 SLOAD PUSH8 0xFFFFFFFFFFFFFFFF DUP2 GT ISZERO PUSH2 0x6D0 JUMPI PUSH2 0x6CF PUSH2 0x1732 JUMP JUMPDEST JUMPDEST PUSH1 0x40 MLOAD SWAP1 DUP1 DUP3 MSTORE DUP1 PUSH1 0x20 MUL PUSH1 0x20 ADD DUP3 ADD PUSH1 0x40 MSTORE DUP1 ISZERO PUSH2 0x6FE JUMPI DUP2 PUSH1 0x20 ADD PUSH1 0x20 DUP3 MUL DUP1 CALLDATASIZE DUP4 CALLDATACOPY DUP1 DUP3 ADD SWAP2 POP POP SWAP1 POP JUMPDEST POP SWAP1 POP PUSH0 DUP1 JUMPDEST PUSH0 DUP1 SLOAD SWAP1 POP DUP2 LT ISZERO PUSH2 0x7A5 JUMPI PUSH0 PUSH1 0x3 DUP2 GT ISZERO PUSH2 0x723 JUMPI PUSH2 0x722 PUSH2 0x1676 JUMP JUMPDEST JUMPDEST PUSH0 DUP3 DUP2 SLOAD DUP2 LT PUSH2 0x736 JUMPI PUSH2 0x735 PUSH2 0x18C2 JUMP JUMPDEST JUMPDEST SWAP1 PUSH0 MSTORE PUSH1 0x20 PUSH0 KECCAK256 SWAP1 PUSH1 0x9 MUL ADD PUSH1 0x4 ADD PUSH0 SWAP1 SLOAD SWAP1 PUSH2 0x100 EXP SWAP1 DIV PUSH1 0xFF AND PUSH1 0x3 DUP2 GT ISZERO PUSH2 0x764 JUMPI PUSH2 0x763 PUSH2 0x1676 JUMP JUMPDEST JUMPDEST SUB PUSH2 0x798 JUMPI DUP1 DUP4 DUP4 DUP2 MLOAD DUP2 LT PUSH2 0x77D JUMPI PUSH2 0x77C PUSH2 0x18C2 JUMP JUMPDEST JUMPDEST PUSH1 0x20 MUL PUSH1 0x20 ADD ADD DUP2 DUP2 MSTORE POP POP DUP2 DUP1 PUSH2 0x794 SWAP1 PUSH2 0x1984 JUMP JUMPDEST SWAP3 POP POP JUMPDEST DUP1 DUP1 PUSH1 0x1 ADD SWAP2 POP POP PUSH2 0x704 JUMP JUMPDEST POP POP SWAP1 JUMP JUMPDEST PUSH0 DUP2 PUSH1 0x1 SLOAD DUP2 LT PUSH2 0x7E7 JUMPI PUSH1 0x40 MLOAD PUSH32 0x94C1121F00000000000000000000000000000000000000000000000000000000 DUP2 MSTORE PUSH1 0x4 ADD PUSH1 0x40 MLOAD DUP1 SWAP2 SUB SWAP1 REVERT JUMPDEST PUSH0 DUP1 DUP5 DUP2 SLOAD DUP2 LT PUSH2 0x7FB JUMPI PUSH2 0x7FA PUSH2 0x18C2 JUMP JUMPDEST JUMPDEST SWAP1 PUSH0 MSTORE PUSH1 0x20 PUSH0 KECCAK256 SWAP1 PUSH1 0x9 MUL ADD SWAP1 POP DUP1 PUSH0 ADD PUSH0 SWAP1 SLOAD SWAP1 PUSH2 0x100 EXP SWAP1 DIV PUSH20 0xFFFFFFFFFFFFFFFFFFFFFFFFFFFFFFFFFFFFFFFF AND SWAP3 POP POP POP SWAP2 SWAP1 POP JUMP JUMPDEST PUSH1 0x60 DUP2 PUSH1 0x1 SLOAD DUP2 LT PUSH2 0x873 JUMPI PUSH1 0x40 MLOAD PUSH32 0x94C1121F00000000000000000000000000000000000000000000000000000000 DUP2 MSTORE PUSH1 0x4 ADD PUSH1 0x40 MLOAD DUP1 SWAP2 SUB SWAP1 REVERT JUMPDEST PUSH0 DUP1 DUP5 DUP2 SLOAD DUP2 LT PUSH2 0x887 JUMPI PUSH2 0x886 PUSH2 0x18C2 JUMP JUMPDEST JUMPDEST SWAP1 PUSH0 MSTORE PUSH1 0x20 PUSH0 KECCAK256 SWAP1 PUSH1 0x9 MUL ADD SWAP1 POP DUP1 PUSH1 0x1 ADD DUP1 SLOAD PUSH2 0x8A4 SWAP1 PUSH2 0x19F8 JUMP JUMPDEST DUP1 PUSH1 0x1F ADD PUSH1 0x20 DUP1 SWAP2 DIV MUL PUSH1 0x20 ADD PUSH1 0x40 MLOAD SWAP1 DUP2 ADD PUSH1 0x40 MSTORE DUP1 SWAP3 SWAP2 SWAP1 DUP2 DUP2 MSTORE PUSH1 0x20 ADD DUP3 DUP1 SLOAD PUSH2 0x8D0 SWAP1 PUSH2 0x19F8 JUMP JUMPDEST DUP1 ISZERO PUSH2 0x91B JUMPI DUP1 PUSH1 0x1F LT PUSH2 0x8F2 JUMPI PUSH2 0x100 DUP1 DUP4 SLOAD DIV MUL DUP4 MSTORE SWAP2 PUSH1 0x20 ADD SWAP2 PUSH2 0x91B JUMP JUMPDEST DUP3 ADD SWAP2 SWAP1 PUSH0 MSTORE PUSH1 0x20 PUSH0 KECCAK256 SWAP1 JUMPDEST DUP2 SLOAD DUP2 MSTORE SWAP1 PUSH1 0x1 ADD SWAP1 PUSH1 0x20 ADD DUP1 DUP4 GT PUSH2 0x8FE JUMPI DUP3 SWAP1 SUB PUSH1 0x1F AND DUP3 ADD SWAP2 JUMPDEST POP POP POP POP POP SWAP3 POP POP POP SWAP2 SWAP1 POP JUMP JUMPDEST PUSH0 DUP2 PUSH1 0x1 SLOAD DUP2 LT PUSH2 0x966 JUMPI PUSH1 0x40 MLOAD PUSH32 0x94C1121F00000000000000000000000000000000000000000000000000000000 DUP2 MSTORE PUSH1 0x4 ADD PUSH1 0x40 MLOAD DUP1 SWAP2 SUB SWAP1 REVERT JUMPDEST PUSH0 DUP1 DUP5 DUP2 SLOAD DUP2 LT PUSH2 0x97A JUMPI PUSH2 0x979 PUSH2 0x18C2 JUMP JUMPDEST JUMPDEST SWAP1 PUSH0 MSTORE PUSH1 0x20 PUSH0 KECCAK256 SWAP1 PUSH1 0x9 MUL ADD SWAP1 POP DUP1 PUSH1 0x4 ADD PUSH0 SWAP1 SLOAD SWAP1 PUSH2 0x100 EXP SWAP1 DIV PUSH1 0xFF AND SWAP3 POP POP POP SWAP2 SWAP1 POP JUMP JUMPDEST DUP1 PUSH1 0x1 SLOAD DUP2 LT PUSH2 0x9DE JUMPI PUSH1 0x40 MLOAD PUSH32 0x94C1121F00000000000000000000000000000000000000000000000000000000 DUP2 MSTORE PUSH1 0x4 ADD PUSH1 0x40 MLOAD DUP1 SWAP2 SUB SWAP1 REVERT JUMPDEST PUSH0 DUP1 DUP4 DUP2 SLOAD DUP2 LT PUSH2 0x9F2 JUMPI PUSH2 0x9F1 PUSH2 0x18C2 JUMP JUMPDEST JUMPDEST SWAP1 PUSH0 MSTORE PUSH1 0x20 PUSH0 KECCAK256 SWAP1 PUSH1 0x9 MUL ADD SWAP1 POP DUP1 PUSH0 ADD PUSH0 SWAP1 SLOAD SWAP1 PUSH2 0x100 EXP SWAP1 DIV PUSH20 0xFFFFFFFFFFFFFFFFFFFFFFFFFFFFFFFFFFFFFFFF AND PUSH20 0xFFFFFFFFFFFFFFFFFFFFFFFFFFFFFFFFFFFFFFFF AND CALLER PUSH20 0xFFFFFFFFFFFFFFFFFFFFFFFFFFFFFFFFFFFFFFFF AND EQ PUSH2 0xA90 JUMPI PUSH1 0x40 MLOAD PUSH32 0x8C379A000000000000000000000000000000000000000000000000000000000 DUP2 MSTORE PUSH1 0x4 ADD PUSH2 0xA87 SWAP1 PUSH2 0x1A98 JUMP JUMPDEST PUSH1 0x40 MLOAD DUP1 SWAP2 SUB SWAP1 REVERT JUMPDEST PUSH0 PUSH1 0x3 DUP2 GT ISZERO PUSH2 0xAA3 JUMPI PUSH2 0xAA2 PUSH2 0x1676 JUMP JUMPDEST JUMPDEST DUP2 PUSH1 0x4 ADD PUSH0 SWAP1 SLOAD SWAP1 PUSH2 0x100 EXP SWAP1 DIV PUSH1 0xFF AND PUSH1 0x3 DUP2 GT ISZERO PUSH2 0xAC6 JUMPI PUSH2 0xAC5 PUSH2 0x1676 JUMP JUMPDEST JUMPDEST EQ PUSH2 0xB06 JUMPI PUSH1 0x40 MLOAD PUSH32 0x8C379A000000000000000000000000000000000000000000000000000000000 DUP2 MSTORE PUSH1 0x4 ADD PUSH2 0xAFD SWAP1 PUSH2 0x1B26 JUMP JUMPDEST PUSH1 0x40 MLOAD DUP1 SWAP2 SUB SWAP1 REVERT JUMPDEST TIMESTAMP DUP2 PUSH1 0x3 ADD SLOAD GT PUSH2 0xB4C JUMPI PUSH1 0x40 MLOAD PUSH32 0x8C379A000000000000000000000000000000000000000000000000000000000 DUP2 MSTORE PUSH1 0x4 ADD PUSH2 0xB43 SWAP1 PUSH2 0x1BB4 JUMP JUMPDEST PUSH1 0x40 MLOAD DUP1 SWAP2 SUB SWAP1 REVERT JUMPDEST PUSH1 0x3 DUP2 PUSH1 0x4 ADD PUSH0 PUSH2 0x100 EXP DUP2 SLOAD DUP2 PUSH1 0xFF MUL NOT AND SWAP1 DUP4 PUSH1 0x3 DUP2 GT ISZERO PUSH2 0xB73 JUMPI PUSH2 0xB72 PUSH2 0x1676 JUMP JUMPDEST JUMPDEST MUL OR SWAP1 SSTORE POP PUSH0 JUMPDEST DUP2 PUSH1 0x5 ADD DUP1 SLOAD SWAP1 POP DUP2 LT ISZERO PUSH2 0xCA4 JUMPI PUSH0 DUP3 PUSH1 0x5 ADD DUP3 DUP2 SLOAD DUP2 LT PUSH2 0xBA0 JUMPI PUSH2 0xB9F PUSH2 0x18C2 JUMP JUMPDEST JUMPDEST SWAP1 PUSH0 MSTORE PUSH1 0x20 PUSH0 KECCAK256 ADD PUSH0 SWAP1 SLOAD SWAP1 PUSH2 0x100 EXP SWAP1 DIV PUSH20 0xFFFFFFFFFFFFFFFFFFFFFFFFFFFFFFFFFFFFFFFF AND SWAP1 POP PUSH0 DUP4 PUSH1 0x6 ADD PUSH0 DUP4 PUSH20 0xFFFFFFFFFFFFFFFFFFFFFFFFFFFFFFFFFFFFFFFF AND PUSH20 0xFFFFFFFFFFFFFFFFFFFFFFFFFFFFFFFFFFFFFFFF AND DUP2 MSTORE PUSH1 0x20 ADD SWAP1 DUP2 MSTORE PUSH1 0x20 ADD PUSH0 KECCAK256 SLOAD SWAP1 POP PUSH0 DUP5 PUSH1 0x6 ADD PUSH0 DUP5 PUSH20 0xFFFFFFFFFFFFFFFFFFFFFFFFFFFFFFFFFFFFFFFF AND PUSH20 0xFFFFFFFFFFFFFFFFFFFFFFFFFFFFFFFFFFFFFFFF AND DUP2 MSTORE PUSH1 0x20 ADD SWAP1 DUP2 MSTORE PUSH1 0x20 ADD PUSH0 KECCAK256 DUP2 SWAP1 SSTORE POP DUP2 PUSH20 0xFFFFFFFFFFFFFFFFFFFFFFFFFFFFFFFFFFFFFFFF AND PUSH2 0x8FC DUP3 SWAP1 DUP2 ISZERO MUL SWAP1 PUSH1 0x40 MLOAD PUSH0 PUSH1 0x40 MLOAD DUP1 DUP4 SUB DUP2 DUP6 DUP9 DUP9 CALL SWAP4 POP POP POP POP ISZERO DUP1 ISZERO PUSH2 0xC94 JUMPI RETURNDATASIZE PUSH0 DUP1 RETURNDATACOPY RETURNDATASIZE PUSH0 REVERT JUMPDEST POP POP POP DUP1 DUP1 PUSH1 0x1 ADD SWAP2 POP POP PUSH2 0xB7A JUMP JUMPDEST POP POP POP POP JUMP JUMPDEST PUSH0 DUP2 PUSH1 0x1 SLOAD DUP2 LT PUSH2 0xCE7 JUMPI PUSH1 0x40 MLOAD PUSH32 0x94C1121F00000000000000000000000000000000000000000000000000000000 DUP2 MSTORE PUSH1 0x4 ADD PUSH1 0x40 MLOAD DUP1 SWAP2 SUB SWAP1 REVERT JUMPDEST PUSH0 DUP1 DUP5 DUP2 SLOAD DUP2 LT PUSH2 0xCFB JUMPI PUSH2 0xCFA PUSH2 0x18C2 JUMP JUMPDEST JUMPDEST SWAP1 PUSH0 MSTORE PUSH1 0x20 PUSH0 KECCAK256 SWAP1 PUSH1 0x9 MUL ADD SWAP1 POP DUP1 PUSH1 0x8 ADD PUSH0 SWAP1 SLOAD SWAP1 PUSH2 0x100 EXP SWAP1 DIV PUSH20 0xFFFFFFFFFFFFFFFFFFFFFFFFFFFFFFFFFFFFFFFF AND SWAP3 POP POP POP SWAP2 SWAP1 POP JUMP JUMPDEST PUSH0 DUP2 PUSH1 0x1 SLOAD DUP2 LT PUSH2 0xD73 JUMPI PUSH1 0x40 MLOAD PUSH32 0x94C1121F00000000000000000000000000000000000000000000000000000000 DUP2 MSTORE PUSH1 0x4 ADD PUSH1 0x40 MLOAD DUP1 SWAP2 SUB SWAP1 REVERT JUMPDEST PUSH0 DUP1 DUP5 DUP2 SLOAD DUP2 LT PUSH2 0xD87 JUMPI PUSH2 0xD86 PUSH2 0x18C2 JUMP JUMPDEST JUMPDEST SWAP1 PUSH0 MSTORE PUSH1 0x20 PUSH0 KECCAK256 SWAP1 PUSH1 0x9 MUL ADD SWAP1 POP DUP1 PUSH1 0x7 ADD SLOAD SWAP3 POP POP POP SWAP2 SWAP1 POP JUMP JUMPDEST PUSH0 DUP2 PUSH1 0x1 SLOAD DUP2 LT PUSH2 0xDE0 JUMPI PUSH1 0x40 MLOAD PUSH32 0x94C1121F00000000000000000000000000000000000000000000000000000000 DUP2 MSTORE PUSH1 0x4 ADD PUSH1 0x40 MLOAD DUP1 SWAP2 SUB SWAP1 REVERT JUMPDEST PUSH0 DUP1 DUP5 DUP2 SLOAD DUP2 LT PUSH2 0xDF4 JUMPI PUSH2 0xDF3 PUSH2 0x18C2 JUMP JUMPDEST JUMPDEST SWAP1 PUSH0 MSTORE PUSH1 0x20 PUSH0 KECCAK256 SWAP1 PUSH1 0x9 MUL ADD SWAP1 POP DUP1 PUSH1 0x3 ADD SLOAD SWAP3 POP POP POP SWAP2 SWAP1 POP JUMP JUMPDEST PUSH0 DUP2 PUSH1 0x1 SLOAD DUP2 LT PUSH2 0xE4D JUMPI PUSH1 0x40 MLOAD PUSH32 0x94C1121F00000000000000000000000000000000000000000000000000000000 DUP2 MSTORE PUSH1 0x4 ADD PUSH1 0x40 MLOAD DUP1 SWAP2 SUB SWAP1 REVERT JUMPDEST PUSH0 DUP1 DUP5 DUP2 SLOAD DUP2 LT PUSH2 0xE61 JUMPI PUSH2 0xE60 PUSH2 0x18C2 JUMP JUMPDEST JUMPDEST SWAP1 PUSH0 MSTORE PUSH1 0x20 PUSH0 KECCAK256 SWAP1 PUSH1 0x9 MUL ADD SWAP1 POP DUP1 PUSH1 0x2 ADD SLOAD SWAP3 POP POP POP SWAP2 SWAP1 POP JUMP JUMPDEST PUSH0 DUP1 PUSH0 PUSH1 0x1 DUP2 PUSH1 0x1 DUP2 SLOAD ADD DUP1 DUP3 SSTORE DUP1 SWAP2 POP POP SUB SWAP1 PUSH0 MSTORE PUSH1 0x20 PUSH0 KECCAK256 SWAP1 PUSH1 0x9 MUL ADD SWAP1 POP CALLER DUP2 PUSH0 ADD PUSH0 PUSH2 0x100 EXP DUP2 SLOAD DUP2 PUSH20 0xFFFFFFFFFFFFFFFFFFFFFFFFFFFFFFFFFFFFFFFF MUL NOT AND SWAP1 DUP4 PUSH20 0xFFFFFFFFFFFFFFFFFFFFFFFFFFFFFFFFFFFFFFFF AND MUL OR SWAP1 SSTORE POP DUP5 DUP2 PUSH1 0x1 ADD SWAP1 DUP2 PUSH2 0xEF0 SWAP2 SWAP1 PUSH2 0x1D6F JUMP JUMPDEST POP DUP4 DUP2 PUSH1 0x2 ADD DUP2 SWAP1 SSTORE POP PUSH2 0xE10 DUP4 PUSH2 0xF08 SWAP2 SWAP1 PUSH2 0x1E3E JUMP JUMPDEST TIMESTAMP PUSH2 0xF13 SWAP2 SWAP1 PUSH2 0x191C JUMP JUMPDEST DUP2 PUSH1 0x3 ADD DUP2 SWAP1 SSTORE POP PUSH0 DUP2 PUSH1 0x4 ADD PUSH0 PUSH2 0x100 EXP DUP2 SLOAD DUP2 PUSH1 0xFF MUL NOT AND SWAP1 DUP4 PUSH1 0x3 DUP2 GT ISZERO PUSH2 0xF41 JUMPI PUSH2 0xF40 PUSH2 0x1676 JUMP JUMPDEST JUMPDEST MUL OR SWAP1 SSTORE POP PUSH0 DUP2 PUSH1 0x7 ADD DUP2 SWAP1 SSTORE POP PUSH0 DUP2 PUSH1 0x8 ADD PUSH0 PUSH2 0x100 EXP DUP2 SLOAD DUP2 PUSH20 0xFFFFFFFFFFFFFFFFFFFFFFFFFFFFFFFFFFFFFFFF MUL NOT AND SWAP1 DUP4 PUSH20 0xFFFFFFFFFFFFFFFFFFFFFFFFFFFFFFFFFFFFFFFF AND MUL OR SWAP1 SSTORE POP PUSH32 0xCF46D2D7C26C0B0A6796544F9C85C0C2D515717CD942218815045650A44EB528 DUP6 DUP6 DUP4 PUSH1 0x3 ADD SLOAD PUSH1 0x40 MLOAD PUSH2 0xFC8 SWAP4 SWAP3 SWAP2 SWAP1 PUSH2 0x1E7F JUMP JUMPDEST PUSH1 0x40 MLOAD DUP1 SWAP2 SUB SWAP1 LOG1 PUSH1 0x2 PUSH0 DUP2 SLOAD DUP1 SWAP3 SWAP2 SWAP1 PUSH2 0xFE2 SWAP1 PUSH2 0x1984 JUMP JUMPDEST SWAP2 SWAP1 POP SSTORE POP PUSH1 0x1 PUSH0 DUP2 SLOAD DUP1 SWAP3 SWAP2 SWAP1 PUSH2 0xFF9 SWAP1 PUSH2 0x1984 JUMP JUMPDEST SWAP2 SWAP1 POP SSTORE SWAP2 POP POP SWAP4 SWAP3 POP POP POP JUMP JUMPDEST DUP1 PUSH1 0x1 SLOAD DUP2 LT PUSH2 0x1043 JUMPI PUSH1 0x40 MLOAD PUSH32 0x94C1121F00000000000000000000000000000000000000000000000000000000 DUP2 MSTORE PUSH1 0x4 ADD PUSH1 0x40 MLOAD DUP1 SWAP2 SUB SWAP1 REVERT JUMPDEST PUSH0 DUP1 DUP4 DUP2 SLOAD DUP2 LT PUSH2 0x1057 JUMPI PUSH2 0x1056 PUSH2 0x18C2 JUMP JUMPDEST JUMPDEST SWAP1 PUSH0 MSTORE PUSH1 0x20 PUSH0 KECCAK256 SWAP1 PUSH1 0x9 MUL ADD SWAP1 POP PUSH0 PUSH1 0x3 DUP2 GT ISZERO PUSH2 0x1078 JUMPI PUSH2 0x1077 PUSH2 0x1676 JUMP JUMPDEST JUMPDEST DUP2 PUSH1 0x4 ADD PUSH0 SWAP1 SLOAD SWAP1 PUSH2 0x100 EXP SWAP1 DIV PUSH1 0xFF AND PUSH1 0x3 DUP2 GT ISZERO PUSH2 0x109B JUMPI PUSH2 0x109A PUSH2 0x1676 JUMP JUMPDEST JUMPDEST EQ PUSH2 0x10D2 JUMPI PUSH1 0x40 MLOAD PUSH32 0xCF95DA3F00000000000000000000000000000000000000000000000000000000 DUP2 MSTORE PUSH1 0x4 ADD PUSH1 0x40 MLOAD DUP1 SWAP2 SUB SWAP1 REVERT JUMPDEST DUP1 PUSH1 0x3 ADD SLOAD TIMESTAMP LT ISZERO PUSH2 0x111F JUMPI DUP1 PUSH1 0x3 ADD SLOAD PUSH1 0x40 MLOAD PUSH32 0x420F57A200000000000000000000000000000000000000000000000000000000 DUP2 MSTORE PUSH1 0x4 ADD PUSH2 0x1116 SWAP2 SWAP1 PUSH2 0x1711 JUMP JUMPDEST PUSH1 0x40 MLOAD DUP1 SWAP2 SUB SWAP1 REVERT JUMPDEST PUSH0 DUP2 PUSH1 0x7 ADD SLOAD SUB PUSH2 0x1193 JUMPI PUSH1 0x2 DUP2 PUSH1 0x4 ADD PUSH0 PUSH2 0x100 EXP DUP2 SLOAD DUP2 PUSH1 0xFF MUL NOT AND SWAP1 DUP4 PUSH1 0x3 DUP2 GT ISZERO PUSH2 0x1151 JUMPI PUSH2 0x1150 PUSH2 0x1676 JUMP JUMPDEST JUMPDEST MUL OR SWAP1 SSTORE POP PUSH32 0x8F69798335A031208711BD85F5ECDBBA5586C28945FE94862229319EF033D7CA DUP4 PUSH1 0x40 MLOAD PUSH2 0x1185 SWAP2 SWAP1 PUSH2 0x1711 JUMP JUMPDEST PUSH1 0x40 MLOAD DUP1 SWAP2 SUB SWAP1 LOG1 POP PUSH2 0x1411 JUMP JUMPDEST PUSH1 0x1 DUP2 PUSH1 0x4 ADD PUSH0 PUSH2 0x100 EXP DUP2 SLOAD DUP2 PUSH1 0xFF MUL NOT AND SWAP1 DUP4 PUSH1 0x3 DUP2 GT ISZERO PUSH2 0x11BA JUMPI PUSH2 0x11B9 PUSH2 0x1676 JUMP JUMPDEST JUMPDEST MUL OR SWAP1 SSTORE POP PUSH0 JUMPDEST DUP2 PUSH1 0x5 ADD DUP1 SLOAD SWAP1 POP DUP2 LT ISZERO PUSH2 0x1342 JUMPI PUSH0 DUP3 PUSH1 0x5 ADD DUP3 DUP2 SLOAD DUP2 LT PUSH2 0x11E7 JUMPI PUSH2 0x11E6 PUSH2 0x18C2 JUMP JUMPDEST JUMPDEST SWAP1 PUSH0 MSTORE PUSH1 0x20 PUSH0 KECCAK256 ADD PUSH0 SWAP1 SLOAD SWAP1 PUSH2 0x100 EXP SWAP1 DIV PUSH20 0xFFFFFFFFFFFFFFFFFFFFFFFFFFFFFFFFFFFFFFFF AND SWAP1 POP PUSH0 DUP4 PUSH1 0x6 ADD PUSH0 DUP4 PUSH20 0xFFFFFFFFFFFFFFFFFFFFFFFFFFFFFFFFFFFFFFFF AND PUSH20 0xFFFFFFFFFFFFFFFFFFFFFFFFFFFFFFFFFFFFFFFF AND DUP2 MSTORE PUSH1 0x20 ADD SWAP1 DUP2 MSTORE PUSH1 0x20 ADD PUSH0 KECCAK256 SLOAD SWAP1 POP PUSH0 DUP5 PUSH1 0x6 ADD PUSH0 DUP5 PUSH20 0xFFFFFFFFFFFFFFFFFFFFFFFFFFFFFFFFFFFFFFFF AND PUSH20 0xFFFFFFFFFFFFFFFFFFFFFFFFFFFFFFFFFFFFFFFF AND DUP2 MSTORE PUSH1 0x20 ADD SWAP1 DUP2 MSTORE PUSH1 0x20 ADD PUSH0 KECCAK256 DUP2 SWAP1 SSTORE POP DUP4 PUSH1 0x8 ADD PUSH0 SWAP1 SLOAD SWAP1 PUSH2 0x100 EXP SWAP1 DIV PUSH20 0xFFFFFFFFFFFFFFFFFFFFFFFFFFFFFFFFFFFFFFFF AND PUSH20 0xFFFFFFFFFFFFFFFFFFFFFFFFFFFFFFFFFFFFFFFF AND DUP3 PUSH20 0xFFFFFFFFFFFFFFFFFFFFFFFFFFFFFFFFFFFFFFFF AND EQ PUSH2 0x1333 JUMPI DUP2 PUSH20 0xFFFFFFFFFFFFFFFFFFFFFFFFFFFFFFFFFFFFFFFF AND PUSH2 0x8FC DUP3 SWAP1 DUP2 ISZERO MUL SWAP1 PUSH1 0x40 MLOAD PUSH0 PUSH1 0x40 MLOAD DUP1 DUP4 SUB DUP2 DUP6 DUP9 DUP9 CALL SWAP4 POP POP POP POP ISZERO DUP1 ISZERO PUSH2 0x1331 JUMPI RETURNDATASIZE PUSH0 DUP1 RETURNDATACOPY RETURNDATASIZE PUSH0 REVERT JUMPDEST POP JUMPDEST POP POP DUP1 DUP1 PUSH1 0x1 ADD SWAP2 POP POP PUSH2 0x11C1 JUMP JUMPDEST POP DUP1 PUSH0 ADD PUSH0 SWAP1 SLOAD SWAP1 PUSH2 0x100 EXP SWAP1 DIV PUSH20 0xFFFFFFFFFFFFFFFFFFFFFFFFFFFFFFFFFFFFFFFF AND PUSH20 0xFFFFFFFFFFFFFFFFFFFFFFFFFFFFFFFFFFFFFFFF AND PUSH2 0x8FC DUP3 PUSH1 0x7 ADD SLOAD SWAP1 DUP2 ISZERO MUL SWAP1 PUSH1 0x40 MLOAD PUSH0 PUSH1 0x40 MLOAD DUP1 DUP4 SUB DUP2 DUP6 DUP9 DUP9 CALL SWAP4 POP POP POP POP ISZERO DUP1 ISZERO PUSH2 0x13AC JUMPI RETURNDATASIZE PUSH0 DUP1 RETURNDATACOPY RETURNDATASIZE PUSH0 REVERT JUMPDEST POP PUSH32 0xAB41E3F06042D2DB81478807AB10A02315433D6F63128F9E25858E37E2AC7DFE DUP4 DUP3 PUSH1 0x8 ADD PUSH0 SWAP1 SLOAD SWAP1 PUSH2 0x100 EXP SWAP1 DIV PUSH20 0xFFFFFFFFFFFFFFFFFFFFFFFFFFFFFFFFFFFFFFFF AND DUP4 PUSH1 0x7 ADD SLOAD PUSH1 0x40 MLOAD PUSH2 0x1407 SWAP4 SWAP3 SWAP2 SWAP1 PUSH2 0x194F JUMP JUMPDEST PUSH1 0x40 MLOAD DUP1 SWAP2 SUB SWAP1 LOG1 POP JUMPDEST POP POP JUMP JUMPDEST PUSH0 PUSH1 0x40 MLOAD SWAP1 POP SWAP1 JUMP JUMPDEST PUSH0 DUP1 REVERT JUMPDEST PUSH0 DUP1 REVERT JUMPDEST PUSH0 DUP2 SWAP1 POP SWAP2 SWAP1 POP JUMP JUMPDEST PUSH2 0x1438 DUP2 PUSH2 0x1426 JUMP JUMPDEST DUP2 EQ PUSH2 0x1442 JUMPI PUSH0 DUP1 REVERT JUMPDEST POP JUMP JUMPDEST PUSH0 DUP2 CALLDATALOAD SWAP1 POP PUSH2 0x1453 DUP2 PUSH2 0x142F JUMP JUMPDEST SWAP3 SWAP2 POP POP JUMP JUMPDEST PUSH0 PUSH1 0x20 DUP3 DUP5 SUB SLT ISZERO PUSH2 0x146E JUMPI PUSH2 0x146D PUSH2 0x141E JUMP JUMPDEST JUMPDEST PUSH0 PUSH2 0x147B DUP5 DUP3 DUP6 ADD PUSH2 0x1445 JUMP JUMPDEST SWAP2 POP POP SWAP3 SWAP2 POP POP JUMP JUMPDEST PUSH0 DUP2 ISZERO ISZERO SWAP1 POP SWAP2 SWAP1 POP JUMP JUMPDEST PUSH2 0x1498 DUP2 PUSH2 0x1484 JUMP JUMPDEST DUP3 MSTORE POP POP JUMP JUMPDEST PUSH0 PUSH1 0x20 DUP3 ADD SWAP1 POP PUSH2 0x14B1 PUSH0 DUP4 ADD DUP5 PUSH2 0x148F JUMP JUMPDEST SWAP3 SWAP2 POP POP JUMP JUMPDEST PUSH0 DUP2 MLOAD SWAP1 POP SWAP2 SWAP1 POP JUMP JUMPDEST PUSH0 DUP3 DUP3 MSTORE PUSH1 0x20 DUP3 ADD SWAP1 POP SWAP3 SWAP2 POP POP JUMP JUMPDEST PUSH0 DUP2 SWAP1 POP PUSH1 0x20 DUP3 ADD SWAP1 POP SWAP2 SWAP1 POP JUMP JUMPDEST PUSH2 0x14E9 DUP2 PUSH2 0x1426 JUMP JUMPDEST DUP3 MSTORE POP POP JUMP JUMPDEST PUSH0 PUSH2 0x14FA DUP4 DUP4 PUSH2 0x14E0 JUMP JUMPDEST PUSH1 0x20 DUP4 ADD SWAP1 POP SWAP3 SWAP2 POP POP JUMP JUMPDEST PUSH0 PUSH1 0x20 DUP3 ADD SWAP1 POP SWAP2 SWAP1 POP JUMP JUMPDEST PUSH0 PUSH2 0x151C DUP3 PUSH2 0x14B7 JUMP JUMPDEST PUSH2 0x1526 DUP2 DUP6 PUSH2 0x14C1 JUMP JUMPDEST SWAP4 POP PUSH2 0x1531 DUP4 PUSH2 0x14D1 JUMP JUMPDEST DUP1 PUSH0 JUMPDEST DUP4 DUP2 LT ISZERO PUSH2 0x1561 JUMPI DUP2 MLOAD PUSH2 0x1548 DUP9 DUP3 PUSH2 0x14EF JUMP JUMPDEST SWAP8 POP PUSH2 0x1553 DUP4 PUSH2 0x1506 JUMP JUMPDEST SWAP3 POP POP PUSH1 0x1 DUP2 ADD SWAP1 POP PUSH2 0x1534 JUMP JUMPDEST POP DUP6 SWAP4 POP POP POP POP SWAP3 SWAP2 POP POP JUMP JUMPDEST PUSH0 PUSH1 0x20 DUP3 ADD SWAP1 POP DUP2 DUP2 SUB PUSH0 DUP4 ADD MSTORE PUSH2 0x1586 DUP2 DUP5 PUSH2 0x1512 JUMP JUMPDEST SWAP1 POP SWAP3 SWAP2 POP POP JUMP JUMPDEST PUSH0 PUSH20 0xFFFFFFFFFFFFFFFFFFFFFFFFFFFFFFFFFFFFFFFF DUP3 AND SWAP1 POP SWAP2 SWAP1 POP JUMP JUMPDEST PUSH0 PUSH2 0x15B7 DUP3 PUSH2 0x158E JUMP JUMPDEST SWAP1 POP SWAP2 SWAP1 POP JUMP JUMPDEST PUSH2 0x15C7 DUP2 PUSH2 0x15AD JUMP JUMPDEST DUP3 MSTORE POP POP JUMP JUMPDEST PUSH0 PUSH1 0x20 DUP3 ADD SWAP1 POP PUSH2 0x15E0 PUSH0 DUP4 ADD DUP5 PUSH2 0x15BE JUMP JUMPDEST SWAP3 SWAP2 POP POP JUMP JUMPDEST PUSH0 DUP2 MLOAD SWAP1 POP SWAP2 SWAP1 POP JUMP JUMPDEST PUSH0 DUP3 DUP3 MSTORE PUSH1 0x20 DUP3 ADD SWAP1 POP SWAP3 SWAP2 POP POP JUMP JUMPDEST DUP3 DUP2 DUP4 MCOPY PUSH0 DUP4 DUP4 ADD MSTORE POP POP POP JUMP JUMPDEST PUSH0 PUSH1 0x1F NOT PUSH1 0x1F DUP4 ADD AND SWAP1 POP SWAP2 SWAP1 POP JUMP JUMPDEST PUSH0 PUSH2 0x1628 DUP3 PUSH2 0x15E6 JUMP JUMPDEST PUSH2 0x1632 DUP2 DUP6 PUSH2 0x15F0 JUMP JUMPDEST SWAP4 POP PUSH2 0x1642 DUP2 DUP6 PUSH1 0x20 DUP7 ADD PUSH2 0x1600 JUMP JUMPDEST PUSH2 0x164B DUP2 PUSH2 0x160E JUMP JUMPDEST DUP5 ADD SWAP2 POP POP SWAP3 SWAP2 POP POP JUMP JUMPDEST PUSH0 PUSH1 0x20 DUP3 ADD SWAP1 POP DUP2 DUP2 SUB PUSH0 DUP4 ADD MSTORE PUSH2 0x166E DUP2 DUP5 PUSH2 0x161E JUMP JUMPDEST SWAP1 POP SWAP3 SWAP2 POP POP JUMP JUMPDEST PUSH32 0x4E487B7100000000000000000000000000000000000000000000000000000000 PUSH0 MSTORE PUSH1 0x21 PUSH1 0x4 MSTORE PUSH1 0x24 PUSH0 REVERT JUMPDEST PUSH1 0x4 DUP2 LT PUSH2 0x16B4 JUMPI PUSH2 0x16B3 PUSH2 0x1676 JUMP JUMPDEST JUMPDEST POP JUMP JUMPDEST PUSH0 DUP2 SWAP1 POP PUSH2 0x16C4 DUP3 PUSH2 0x16A3 JUMP JUMPDEST SWAP2 SWAP1 POP JUMP JUMPDEST PUSH0 PUSH2 0x16D3 DUP3 PUSH2 0x16B7 JUMP JUMPDEST SWAP1 POP SWAP2 SWAP1 POP JUMP JUMPDEST PUSH2 0x16E3 DUP2 PUSH2 0x16C9 JUMP JUMPDEST DUP3 MSTORE POP POP JUMP JUMPDEST PUSH0 PUSH1 0x20 DUP3 ADD SWAP1 POP PUSH2 0x16FC PUSH0 DUP4 ADD DUP5 PUSH2 0x16DA JUMP JUMPDEST SWAP3 SWAP2 POP POP JUMP JUMPDEST PUSH2 0x170B DUP2 PUSH2 0x1426 JUMP JUMPDEST DUP3 MSTORE POP POP JUMP JUMPDEST PUSH0 PUSH1 0x20 DUP3 ADD SWAP1 POP PUSH2 0x1724 PUSH0 DUP4 ADD DUP5 PUSH2 0x1702 JUMP JUMPDEST SWAP3 SWAP2 POP POP JUMP JUMPDEST PUSH0 DUP1 REVERT JUMPDEST PUSH0 DUP1 REVERT JUMPDEST PUSH32 0x4E487B7100000000000000000000000000000000000000000000000000000000 PUSH0 MSTORE PUSH1 0x41 PUSH1 0x4 MSTORE PUSH1 0x24 PUSH0 REVERT JUMPDEST PUSH2 0x1768 DUP3 PUSH2 0x160E JUMP JUMPDEST DUP2 ADD DUP2 DUP2 LT PUSH8 0xFFFFFFFFFFFFFFFF DUP3 GT OR ISZERO PUSH2 0x1787 JUMPI PUSH2 0x1786 PUSH2 0x1732 JUMP JUMPDEST JUMPDEST DUP1 PUSH1 0x40 MSTORE POP POP POP JUMP JUMPDEST PUSH0 PUSH2 0x1799 PUSH2 0x1415 JUMP JUMPDEST SWAP1 POP PUSH2 0x17A5 DUP3 DUP3 PUSH2 0x175F JUMP JUMPDEST SWAP2 SWAP1 POP JUMP JUMPDEST PUSH0 PUSH8 0xFFFFFFFFFFFFFFFF DUP3 GT ISZERO PUSH2 0x17C4 JUMPI PUSH2 0x17C3 PUSH2 0x1732 JUMP JUMPDEST JUMPDEST PUSH2 0x17CD DUP3 PUSH2 0x160E JUMP JUMPDEST SWAP1 POP PUSH1 0x20 DUP2 ADD SWAP1 POP SWAP2 SWAP1 POP JUMP JUMPDEST DUP3 DUP2 DUP4 CALLDATACOPY PUSH0 DUP4 DUP4 ADD MSTORE POP POP POP JUMP JUMPDEST PUSH0 PUSH2 0x17FA PUSH2 0x17F5 DUP5 PUSH2 0x17AA JUMP JUMPDEST PUSH2 0x1790 JUMP JUMPDEST SWAP1 POP DUP3 DUP2 MSTORE PUSH1 0x20 DUP2 ADD DUP5 DUP5 DUP5 ADD GT ISZERO PUSH2 0x1816 JUMPI PUSH2 0x1815 PUSH2 0x172E JUMP JUMPDEST JUMPDEST PUSH2 0x1821 DUP5 DUP3 DUP6 PUSH2 0x17DA JUMP JUMPDEST POP SWAP4 SWAP3 POP POP POP JUMP JUMPDEST PUSH0 DUP3 PUSH1 0x1F DUP4 ADD SLT PUSH2 0x183D JUMPI PUSH2 0x183C PUSH2 0x172A JUMP JUMPDEST JUMPDEST DUP2 CALLDATALOAD PUSH2 0x184D DUP5 DUP3 PUSH1 0x20 DUP7 ADD PUSH2 0x17E8 JUMP JUMPDEST SWAP2 POP POP SWAP3 SWAP2 POP POP JUMP JUMPDEST PUSH0 DUP1 PUSH0 PUSH1 0x60 DUP5 DUP7 SUB SLT ISZERO PUSH2 0x186D JUMPI PUSH2 0x186C PUSH2 0x141E JUMP JUMPDEST JUMPDEST PUSH0 DUP5 ADD CALLDATALOAD PUSH8 0xFFFFFFFFFFFFFFFF DUP2 GT ISZERO PUSH2 0x188A JUMPI PUSH2 0x1889 PUSH2 0x1422 JUMP JUMPDEST JUMPDEST PUSH2 0x1896 DUP7 DUP3 DUP8 ADD PUSH2 0x1829 JUMP JUMPDEST SWAP4 POP POP PUSH1 0x20 PUSH2 0x18A7 DUP7 DUP3 DUP8 ADD PUSH2 0x1445 JUMP JUMPDEST SWAP3 POP POP PUSH1 0x40 PUSH2 0x18B8 DUP7 DUP3 DUP8 ADD PUSH2 0x1445 JUMP JUMPDEST SWAP2 POP POP SWAP3 POP SWAP3 POP SWAP3 JUMP JUMPDEST PUSH32 0x4E487B7100000000000000000000000000000000000000000000000000000000 PUSH0 MSTORE PUSH1 0x32 PUSH1 0x4 MSTORE PUSH1 0x24 PUSH0 REVERT JUMPDEST PUSH32 0x4E487B7100000000000000000000000000000000000000000000000000000000 PUSH0 MSTORE PUSH1 0x11 PUSH1 0x4 MSTORE PUSH1 0x24 PUSH0 REVERT JUMPDEST PUSH0 PUSH2 0x1926 DUP3 PUSH2 0x1426 JUMP JUMPDEST SWAP2 POP PUSH2 0x1931 DUP4 PUSH2 0x1426 JUMP JUMPDEST SWAP3 POP DUP3 DUP3 ADD SWAP1 POP DUP1 DUP3 GT ISZERO PUSH2 0x1949 JUMPI PUSH2 0x1948 PUSH2 0x18EF JUMP JUMPDEST JUMPDEST SWAP3 SWAP2 POP POP JUMP JUMPDEST PUSH0 PUSH1 0x60 DUP3 ADD SWAP1 POP PUSH2 0x1962 PUSH0 DUP4 ADD DUP7 PUSH2 0x1702 JUMP JUMPDEST PUSH2 0x196F PUSH1 0x20 DUP4 ADD DUP6 PUSH2 0x15BE JUMP JUMPDEST PUSH2 0x197C PUSH1 0x40 DUP4 ADD DUP5 PUSH2 0x1702 JUMP JUMPDEST SWAP5 SWAP4 POP POP POP POP JUMP JUMPDEST PUSH0 PUSH2 0x198E DUP3 PUSH2 0x1426 JUMP JUMPDEST SWAP2 POP PUSH32 0xFFFFFFFFFFFFFFFFFFFFFFFFFFFFFFFFFFFFFFFFFFFFFFFFFFFFFFFFFFFFFFFF DUP3 SUB PUSH2 0x19C0 JUMPI PUSH2 0x19BF PUSH2 0x18EF JUMP JUMPDEST JUMPDEST PUSH1 0x1 DUP3 ADD SWAP1 POP SWAP2 SWAP1 POP JUMP JUMPDEST PUSH32 0x4E487B7100000000000000000000000000000000000000000000000000000000 PUSH0 MSTORE PUSH1 0x22 PUSH1 0x4 MSTORE PUSH1 0x24 PUSH0 REVERT JUMPDEST PUSH0 PUSH1 0x2 DUP3 DIV SWAP1 POP PUSH1 0x1 DUP3 AND DUP1 PUSH2 0x1A0F JUMPI PUSH1 0x7F DUP3 AND SWAP2 POP JUMPDEST PUSH1 0x20 DUP3 LT DUP2 SUB PUSH2 0x1A22 JUMPI PUSH2 0x1A21 PUSH2 0x19CB JUMP JUMPDEST JUMPDEST POP SWAP2 SWAP1 POP JUMP JUMPDEST PUSH32 0x4F6E6C79207468652063726561746F722063616E2063616E63656C20616E2061 PUSH0 DUP3 ADD MSTORE PUSH32 0x756374696F6E0000000000000000000000000000000000000000000000000000 PUSH1 0x20 DUP3 ADD MSTORE POP JUMP JUMPDEST PUSH0 PUSH2 0x1A82 PUSH1 0x26 DUP4 PUSH2 0x15F0 JUMP JUMPDEST SWAP2 POP PUSH2 0x1A8D DUP3 PUSH2 0x1A28 JUMP JUMPDEST PUSH1 0x40 DUP3 ADD SWAP1 POP SWAP2 SWAP1 POP JUMP JUMPDEST PUSH0 PUSH1 0x20 DUP3 ADD SWAP1 POP DUP2 DUP2 SUB PUSH0 DUP4 ADD MSTORE PUSH2 0x1AAF DUP2 PUSH2 0x1A76 JUMP JUMPDEST SWAP1 POP SWAP2 SWAP1 POP JUMP JUMPDEST PUSH32 0x596F752063616E2063616E63656C206F6E6C79206F6E676F696E672061756374 PUSH0 DUP3 ADD MSTORE PUSH32 0x696F6E0000000000000000000000000000000000000000000000000000000000 PUSH1 0x20 DUP3 ADD MSTORE POP JUMP JUMPDEST PUSH0 PUSH2 0x1B10 PUSH1 0x23 DUP4 PUSH2 0x15F0 JUMP JUMPDEST SWAP2 POP PUSH2 0x1B1B DUP3 PUSH2 0x1AB6 JUMP JUMPDEST PUSH1 0x40 DUP3 ADD SWAP1 POP SWAP2 SWAP1 POP JUMP JUMPDEST PUSH0 PUSH1 0x20 DUP3 ADD SWAP1 POP DUP2 DUP2 SUB PUSH0 DUP4 ADD MSTORE PUSH2 0x1B3D DUP2 PUSH2 0x1B04 JUMP JUMPDEST SWAP1 POP SWAP2 SWAP1 POP JUMP JUMPDEST PUSH32 0x596F752063616E2063616E63656C206F6E6C79206E6F74206578706972656420 PUSH0 DUP3 ADD MSTORE PUSH32 0x61756374696F6E00000000000000000000000000000000000000000000000000 PUSH1 0x20 DUP3 ADD MSTORE POP JUMP JUMPDEST PUSH0 PUSH2 0x1B9E PUSH1 0x27 DUP4 PUSH2 0x15F0 JUMP JUMPDEST SWAP2 POP PUSH2 0x1BA9 DUP3 PUSH2 0x1B44 JUMP JUMPDEST PUSH1 0x40 DUP3 ADD SWAP1 POP SWAP2 SWAP1 POP JUMP JUMPDEST PUSH0 PUSH1 0x20 DUP3 ADD SWAP1 POP DUP2 DUP2 SUB PUSH0 DUP4 ADD MSTORE PUSH2 0x1BCB DUP2 PUSH2 0x1B92 JUMP JUMPDEST SWAP1 POP SWAP2 SWAP1 POP JUMP JUMPDEST PUSH0 DUP2 SWAP1 POP DUP2 PUSH0 MSTORE PUSH1 0x20 PUSH0 KECCAK256 SWAP1 POP SWAP2 SWAP1 POP JUMP JUMPDEST PUSH0 PUSH1 0x20 PUSH1 0x1F DUP4 ADD DIV SWAP1 POP SWAP2 SWAP1 POP JUMP JUMPDEST PUSH0 DUP3 DUP3 SHL SWAP1 POP SWAP3 SWAP2 POP POP JUMP JUMPDEST PUSH0 PUSH1 0x8 DUP4 MUL PUSH2 0x1C2E PUSH32 0xFFFFFFFFFFFFFFFFFFFFFFFFFFFFFFFFFFFFFFFFFFFFFFFFFFFFFFFFFFFFFFFF DUP3 PUSH2 0x1BF3 JUMP JUMPDEST PUSH2 0x1C38 DUP7 DUP4 PUSH2 0x1BF3 JUMP JUMPDEST SWAP6 POP DUP1 NOT DUP5 AND SWAP4 POP DUP1 DUP7 AND DUP5 OR SWAP3 POP POP POP SWAP4 SWAP3 POP POP POP JUMP JUMPDEST PUSH0 DUP2 SWAP1 POP SWAP2 SWAP1 POP JUMP JUMPDEST PUSH0 PUSH2 0x1C73 PUSH2 0x1C6E PUSH2 0x1C69 DUP5 PUSH2 0x1426 JUMP JUMPDEST PUSH2 0x1C50 JUMP JUMPDEST PUSH2 0x1426 JUMP JUMPDEST SWAP1 POP SWAP2 SWAP1 POP JUMP JUMPDEST PUSH0 DUP2 SWAP1 POP SWAP2 SWAP1 POP JUMP JUMPDEST PUSH2 0x1C8C DUP4 PUSH2 0x1C59 JUMP JUMPDEST PUSH2 0x1CA0 PUSH2 0x1C98 DUP3 PUSH2 0x1C7A JUMP JUMPDEST DUP5 DUP5 SLOAD PUSH2 0x1BFF JUMP JUMPDEST DUP3 SSTORE POP POP POP POP JUMP JUMPDEST PUSH0 SWAP1 JUMP JUMPDEST PUSH2 0x1CB4 PUSH2 0x1CA8 JUMP JUMPDEST PUSH2 0x1CBF DUP2 DUP5 DUP5 PUSH2 0x1C83 JUMP JUMPDEST POP POP POP JUMP JUMPDEST JUMPDEST DUP2 DUP2 LT ISZERO PUSH2 0x1CE2 JUMPI PUSH2 0x1CD7 PUSH0 DUP3 PUSH2 0x1CAC JUMP JUMPDEST PUSH1 0x1 DUP2 ADD SWAP1 POP PUSH2 0x1CC5 JUMP JUMPDEST POP POP JUMP JUMPDEST PUSH1 0x1F DUP3 GT ISZERO PUSH2 0x1D27 JUMPI PUSH2 0x1CF8 DUP2 PUSH2 0x1BD2 JUMP JUMPDEST PUSH2 0x1D01 DUP5 PUSH2 0x1BE4 JUMP JUMPDEST DUP2 ADD PUSH1 0x20 DUP6 LT ISZERO PUSH2 0x1D10 JUMPI DUP2 SWAP1 POP JUMPDEST PUSH2 0x1D24 PUSH2 0x1D1C DUP6 PUSH2 0x1BE4 JUMP JUMPDEST DUP4 ADD DUP3 PUSH2 0x1CC4 JUMP JUMPDEST POP POP JUMPDEST POP POP POP JUMP JUMPDEST PUSH0 DUP3 DUP3 SHR SWAP1 POP SWAP3 SWAP2 POP POP JUMP JUMPDEST PUSH0 PUSH2 0x1D47 PUSH0 NOT DUP5 PUSH1 0x8 MUL PUSH2 0x1D2C JUMP JUMPDEST NOT DUP1 DUP4 AND SWAP2 POP POP SWAP3 SWAP2 POP POP JUMP JUMPDEST PUSH0 PUSH2 0x1D5F DUP4 DUP4 PUSH2 0x1D38 JUMP JUMPDEST SWAP2 POP DUP3 PUSH1 0x2 MUL DUP3 OR SWAP1 POP SWAP3 SWAP2 POP POP JUMP JUMPDEST PUSH2 0x1D78 DUP3 PUSH2 0x15E6 JUMP JUMPDEST PUSH8 0xFFFFFFFFFFFFFFFF DUP2 GT ISZERO PUSH2 0x1D91 JUMPI PUSH2 0x1D90 PUSH2 0x1732 JUMP JUMPDEST JUMPDEST PUSH2 0x1D9B DUP3 SLOAD PUSH2 0x19F8 JUMP JUMPDEST PUSH2 0x1DA6 DUP3 DUP3 DUP6 PUSH2 0x1CE6 JUMP JUMPDEST PUSH0 PUSH1 0x20 SWAP1 POP PUSH1 0x1F DUP4 GT PUSH1 0x1 DUP2 EQ PUSH2 0x1DD7 JUMPI PUSH0 DUP5 ISZERO PUSH2 0x1DC5 JUMPI DUP3 DUP8 ADD MLOAD SWAP1 POP JUMPDEST PUSH2 0x1DCF DUP6 DUP3 PUSH2 0x1D54 JUMP JUMPDEST DUP7 SSTORE POP PUSH2 0x1E36 JUMP JUMPDEST PUSH1 0x1F NOT DUP5 AND PUSH2 0x1DE5 DUP7 PUSH2 0x1BD2 JUMP JUMPDEST PUSH0 JUMPDEST DUP3 DUP2 LT ISZERO PUSH2 0x1E0C JUMPI DUP5 DUP10 ADD MLOAD DUP3 SSTORE PUSH1 0x1 DUP3 ADD SWAP2 POP PUSH1 0x20 DUP6 ADD SWAP5 POP PUSH1 0x20 DUP2 ADD SWAP1 POP PUSH2 0x1DE7 JUMP JUMPDEST DUP7 DUP4 LT ISZERO PUSH2 0x1E29 JUMPI DUP5 DUP10 ADD MLOAD PUSH2 0x1E25 PUSH1 0x1F DUP10 AND DUP3 PUSH2 0x1D38 JUMP JUMPDEST DUP4 SSTORE POP JUMPDEST PUSH1 0x1 PUSH1 0x2 DUP9 MUL ADD DUP9 SSTORE POP POP POP JUMPDEST POP POP POP POP POP POP JUMP JUMPDEST PUSH0 PUSH2 0x1E48 DUP3 PUSH2 0x1426 JUMP JUMPDEST SWAP2 POP PUSH2 0x1E53 DUP4 PUSH2 0x1426 JUMP JUMPDEST SWAP3 POP DUP3 DUP3 MUL PUSH2 0x1E61 DUP2 PUSH2 0x1426 JUMP JUMPDEST SWAP2 POP DUP3 DUP3 DIV DUP5 EQ DUP4 ISZERO OR PUSH2 0x1E78 JUMPI PUSH2 0x1E77 PUSH2 0x18EF JUMP JUMPDEST JUMPDEST POP SWAP3 SWAP2 POP POP JUMP JUMPDEST PUSH0 PUSH1 0x60 DUP3 ADD SWAP1 POP DUP2 DUP2 SUB PUSH0 DUP4 ADD MSTORE PUSH2 0x1E97 DUP2 DUP7 PUSH2 0x161E JUMP JUMPDEST SWAP1 POP PUSH2 0x1EA6 PUSH1 0x20 DUP4 ADD DUP6 PUSH2 0x1702 JUMP JUMPDEST PUSH2 0x1EB3 PUSH1 0x40 DUP4 ADD DUP5 PUSH2 0x1702 JUMP JUMPDEST SWAP5 SWAP4 POP POP POP POP JUMP INVALID LOG2 PUSH5 0x6970667358 0x22 SLT KECCAK256 PUSH12 0xBD3C3B6F77F5743F78183220 DUP16 PUSH8 0xC99A04FB53526386 0xB5 0xC0 CALLCODE INVALID LOG2 DUP8 0xAE 0x23 DUP5 PUSH5 0x736F6C6343 STOP ADDMOD BYTE STOP CALLER "
		},
		"gasEstimates": {
			"creation": {
				"codeDepositCost": "1584200",
				"executionCost": "11667",
				"totalCost": "1595867"
			},
			"external": {
				"auctionBeneficiary(uint256)": "7155",
				"auctionDescription(uint256)": "infinite",
				"auctionExpiration(uint256)": "infinite",
				"auctionHighestBid(uint256)": "infinite",
				"auctionHighestBidder(uint256)": "7111",
				"auctionMinimumBid(uint256)": "infinite",
				"auctionState(uint256)": "7246",
				"bidOnAuction(uint256)": "infinite",
				"cancelAuction(uint256)": "infinite",
				"createNewAuction(string,uint256,uint256)": "infinite",
				"finalizeAuction(uint256)": "infinite",
				"idsOfOngoingAuctions()": "infinite"
			}
		},
		"methodIdentifiers": {
			"auctionBeneficiary(uint256)": "71e21df0",
			"auctionDescription(uint256)": "7383841a",
			"auctionExpiration(uint256)": "bfe21ada",
			"auctionHighestBid(uint256)": "bdaaf194",
			"auctionHighestBidder(uint256)": "a43b87a2",
			"auctionMinimumBid(uint256)": "d4bf3138",
			"auctionState(uint256)": "84861e93",
			"bidOnAuction(uint256)": "26b7aeea",
			"cancelAuction(uint256)": "96b5a755",
			"createNewAuction(string,uint256,uint256)": "e33a33b3",
			"finalizeAuction(uint256)": "e8083863",
			"idsOfOngoingAuctions()": "2c4261bb"
		}
	},
	"abi": [
		{
			"inputs": [
				{
					"internalType": "enum AuctionManagerSpecs.AuctionState",
					"name": "state",
					"type": "uint8"
				}
			],
			"name": "AuctionAlreadyEnded",
			"type": "error"
		},
		{
			"inputs": [],
			"name": "AuctionNotExisting",
			"type": "error"
		},
		{
			"inputs": [],
			"name": "AuctionToFinalizeAlreadyFinalized",
			"type": "error"
		},
		{
			"inputs": [
				{
					"internalType": "uint256",
					"name": "expiration",
					"type": "uint256"
				}
			],
			"name": "AuctionToFinalizeNotYetEnded",
			"type": "error"
		},
		{
			"inputs": [
				{
					"internalType": "uint256",
					"name": "minimumBid",
					"type": "uint256"
				}
			],
			"name": "BidNotAboveMinimum",
			"type": "error"
		},
		{
			"anonymous": false,
			"inputs": [
				{
					"indexed": false,
					"internalType": "uint256",
					"name": "auctionId",
					"type": "uint256"
				},
				{
					"indexed": false,
					"internalType": "address",
					"name": "winner",
					"type": "address"
				},
				{
					"indexed": false,
					"internalType": "uint256",
					"name": "amount",
					"type": "uint256"
				}
			],
			"name": "AuctionEndedWithWinner",
			"type": "event"
		},
		{
			"anonymous": false,
			"inputs": [
				{
					"indexed": false,
					"internalType": "uint256",
					"name": "auctionId",
					"type": "uint256"
				}
			],
			"name": "AuctionExpiredWithoutWinner",
			"type": "event"
		},
		{
			"anonymous": false,
			"inputs": [
				{
					"indexed": false,
					"internalType": "string",
					"name": "description",
					"type": "string"
				},
				{
					"indexed": false,
					"internalType": "uint256",
					"name": "minimumBid",
					"type": "uint256"
				},
				{
					"indexed": false,
					"internalType": "uint256",
					"name": "expiration",
					"type": "uint256"
				}
			],
			"name": "NewAuction",
			"type": "event"
		},
		{
			"anonymous": false,
			"inputs": [
				{
					"indexed": false,
					"internalType": "uint256",
					"name": "auctionId",
					"type": "uint256"
				},
				{
					"indexed": false,
					"internalType": "address",
					"name": "bidder",
					"type": "address"
				},
				{
					"indexed": false,
					"internalType": "uint256",
					"name": "amount",
					"type": "uint256"
				}
			],
			"name": "NewHighestBid",
			"type": "event"
		},
		{
			"inputs": [
				{
					"internalType": "uint256",
					"name": "id",
					"type": "uint256"
				}
			],
			"name": "auctionBeneficiary",
			"outputs": [
				{
					"internalType": "address",
					"name": "beneficiary",
					"type": "address"
				}
			],
			"stateMutability": "view",
			"type": "function"
		},
		{
			"inputs": [
				{
					"internalType": "uint256",
					"name": "id",
					"type": "uint256"
				}
			],
			"name": "auctionDescription",
			"outputs": [
				{
					"internalType": "string",
					"name": "",
					"type": "string"
				}
			],
			"stateMutability": "view",
			"type": "function"
		},
		{
			"inputs": [
				{
					"internalType": "uint256",
					"name": "id",
					"type": "uint256"
				}
			],
			"name": "auctionExpiration",
			"outputs": [
				{
					"internalType": "uint256",
					"name": "timestamp",
					"type": "uint256"
				}
			],
			"stateMutability": "view",
			"type": "function"
		},
		{
			"inputs": [
				{
					"internalType": "uint256",
					"name": "id",
					"type": "uint256"
				}
			],
			"name": "auctionHighestBid",
			"outputs": [
				{
					"internalType": "uint256",
					"name": "amount",
					"type": "uint256"
				}
			],
			"stateMutability": "view",
			"type": "function"
		},
		{
			"inputs": [
				{
					"internalType": "uint256",
					"name": "id",
					"type": "uint256"
				}
			],
			"name": "auctionHighestBidder",
			"outputs": [
				{
					"internalType": "address",
					"name": "bidder",
					"type": "address"
				}
			],
			"stateMutability": "view",
			"type": "function"
		},
		{
			"inputs": [
				{
					"internalType": "uint256",
					"name": "id",
					"type": "uint256"
				}
			],
			"name": "auctionMinimumBid",
			"outputs": [
				{
					"internalType": "uint256",
					"name": "amount",
					"type": "uint256"
				}
			],
			"stateMutability": "view",
			"type": "function"
		},
		{
			"inputs": [
				{
					"internalType": "uint256",
					"name": "id",
					"type": "uint256"
				}
			],
			"name": "auctionState",
			"outputs": [
				{
					"internalType": "enum AuctionManagerSpecs.AuctionState",
					"name": "",
					"type": "uint8"
				}
			],
			"stateMutability": "view",
			"type": "function"
		},
		{
			"inputs": [
				{
					"internalType": "uint256",
					"name": "id",
					"type": "uint256"
				}
			],
			"name": "bidOnAuction",
			"outputs": [
				{
					"internalType": "bool",
					"name": "isHighest",
					"type": "bool"
				}
			],
			"stateMutability": "payable",
			"type": "function"
		},
		{
			"inputs": [
				{
					"internalType": "uint256",
					"name": "id",
					"type": "uint256"
				}
			],
			"name": "cancelAuction",
			"outputs": [],
			"stateMutability": "nonpayable",
			"type": "function"
		},
		{
			"inputs": [
				{
					"internalType": "string",
					"name": "description",
					"type": "string"
				},
				{
					"internalType": "uint256",
					"name": "minimumBid",
					"type": "uint256"
				},
				{
					"internalType": "uint256",
					"name": "expirationInHours",
					"type": "uint256"
				}
			],
			"name": "createNewAuction",
			"outputs": [
				{
					"internalType": "uint256",
					"name": "id",
					"type": "uint256"
				}
			],
			"stateMutability": "nonpayable",
			"type": "function"
		},
		{
			"inputs": [
				{
					"internalType": "uint256",
					"name": "id",
					"type": "uint256"
				}
			],
			"name": "finalizeAuction",
			"outputs": [],
			"stateMutability": "nonpayable",
			"type": "function"
		},
		{
			"inputs": [],
			"name": "idsOfOngoingAuctions",
			"outputs": [
				{
					"internalType": "uint256[]",
					"name": "ids",
					"type": "uint256[]"
				}
			],
			"stateMutability": "view",
			"type": "function"
		}
	]
}